:020000040800F2
:1000000018110020D1010008D9010008D50200080C
:10001000DD010008DF010008E10100080000000028
:10002000000000000000000000000000E3010008E4
:10003000E501000800000000230200080512000886
:10004000EB010008EB010008EB010008EB010008E0
:10005000EB010008EB010008EB010008EB010008D0
:10006000EB010008EB010008EB010008EB010008C0
:10007000EB010008EB010008EB010008EB010008B0
:10008000EB010008EB010008EB010008EB010008A0
:10009000EB010008EB010008EB010008EB01000890
:1000A000EB010008EB010008EB010008EB01000880
:1000B000EB010008EB010008EB010008EB01000870
:1000C000EB010008EB010008EB010008EB01000860
:1000D000EB010008D5120008EB010008EB01000855
:1000E000EB010008EB010008EB010008EB01000840
:1000F000EB010008EB010008EB010008EB01000830
:10010000EB010008EB010008EB010008EB0100081F
:10011000EB010008EB010008EB010008EB0100080F
:10012000EB010008EB010008EB010008EB010008FF
:10013000EB010008EB010008EB010008EB010008EF
:10014000EB010008EB010008EB010008EB010008DF
:10015000EB010008EB010008EB010008EB010008CF
:10016000EB010008EB010008EB010008EB010008BF
:10017000EB010008EB010008EB01000800000000A3
:10018000EB010008EB010008EB010008EB0100089F
:10019000EB010008EB010008EB010008EB0100088F
:1001A000EB010008EB010008DFF810D000F078F94F
:1001B00000480047DD050008AFF30080181100205B
:1001C000002804D090FAA0F0B0FA80F0401C7047EC
:1001D0000648804706480047FEE7FEE7FEE7FEE7E1
:1001E000FEE7FEE7FEE7FEE7FEE7FEE75D1200083A
:1001F000A9010008EFF3108072B6704780F31088F1
:100200007047424A1368012B04D04FF0010313607A
:100210003F4A10603F4A11603F484FF080510160F3
:100220007047EFF3108272B63848016851B34FF04F
:10023000000101603648016891B1EFF309811EF0B9
:10024000100F08BF21ED108B21E9F00F4FF00004D3
:100250001EF0100F08BF012441F8044D0068016032
:100260002C490968096808C9B1E8F00F002B18BFCC
:10027000B1EC108B81F309884EF0100E002B18BFE3
:100280002EF0100E82F310884EF0040E70472149B4
:100290000860EFF3148222F0040282F314881C49F0
:1002A0004FF00000086019494FF0010008601B483A
:1002B0001B49D0F8002041EA0201016016484FF0C6
:1002C0008051016017480068006880F3088861B6B3
:1002D00062B670471EF0040F0CBFEFF30880EFF317
:1002E000098020E9F00F40F804ED40F804ED1EF01D
:1002F000040F0CBF80F3088880F3098800B507F06D
:1003000087FD5DF804EB4EF0040E704708000020F6
:10031000000000200400002004ED00E020ED00E0DB
:100320000000FFFF08ED00E040EA01039B0703D057
:1003300009E008C9121F08C0042AFAD203E011F824
:10034000013B00F8013B521EF9D27047D2B201E0E6
:1003500000F8012B491EFBD270470022F6E710B5CA
:1003600013460A4604461946FFF7F0FF204610BD23
:10037000421E12F8013F002BFBD111F8013B02F89D
:10038000013B002BF9D1704710B5044604E00B780F
:1003900000F8013B03B1491C521EF8D2204610BDA3
:1003A000421C10F8011B0029FBD1801A704710B5C0
:1003B000002200E0521C835C8C5CA34201D1002B24
:1003C000F8D1D8B2E1B2401A10BD30B504460020D1
:1003D000034600E05B1C934203D2E05CCD5C401B13
:1003E000F8D030BD034611F8012B00F8012B002A8C
:1003F000F9D11846704730B505460020034600E0A5
:100400005B1C934205D2EC5CC85C201A01D1002C25
:10041000F6D130BD70B5064600F068FF04680546A9
:100420000A220021304600F002F82C6070BD2DE950
:10043000F04791460F4680460446002614F8015BBB
:100440002DB100F03FF80068405DC007F6D12B2DBC
:1004500002D02D2D18D0641E4A463946204600F0A1
:1004600035F827B13968A14201D1C7F8008071057C
:100470004FF002040BD54042002803DD00F036FFA8
:100480000460A007BDE8F08746F48066E4E7002832
:10049000F8DA00F02BFF04606FF00040F2E7000094
:1004A000064C074D06E0E06840F0010394E80700C1
:1004B00098471034AC42F6D3FFF77AFED8D0000844
:1004C000F8D00008004870470CC500082DE9F05F1F
:1004D00082460078002715468B460AF10104B9468A
:1004E000302801D09DB113E014F8010B01277828C2
:1004F00003D0582801D045B10AE00DB1102D07D125
:100500000027102514F8010B02E0082500E00A2559
:100510000026B0460EE005FB080005FB06F10127AA
:1005200001EB10461FFA80F8B6F5803F00D3B946BC
:1005300014F8010B294600F018F80028EBDABBF19B
:10054000000F05D00FB1641E00E05446CBF8004008
:10055000B9F1000F06D000F0C9FE02210160C81EEB
:10056000BDE8F09F48EA0640FAE73A2800D2303862
:1005700020F02002412A01D3A2F13700884201D3A2
:100580004FF0FF30704770B58C1810F8015B15F014
:10059000070301D110F8013B2A1106D110F8012BF5
:1005A00003E010F8016B01F8016B5B1EF9D12B071A
:1005B00005D40023521E0DD401F8013BFAE710F8D0
:1005C000013BCB1A921C03E013F8015B01F8015BBD
:1005D000521EF9D5A142D8D3002070BD10B50AF043
:1005E00071FB002010BD00F01F0201219140420963
:1005F000920002F1E022C2F80011704710B5002805
:1006000007DA0A07140E054A00F00F031B1FD45423
:1006100003E00A07130E024A135410BD18ED00E060
:1006200000E400E000BF0A48006810F8080C084920
:10063000096811F8041C08440549096801F8080C08
:1006400003480068001F0249086000BF70470000AF
:10065000A001002000BF0A48006850F8080C0849B3
:10066000096851F8041C08440549096841F8080C58
:1006700003480068001F0249086000BF704700007F
:10068000A001002000BF0A48006830F8080C0849A3
:10069000096831F8041C084400B20549096821F8CA
:1006A000080C03480068001F0149086000BF70473C
:1006B000A001002000BF0A48006810F8080C084993
:1006C000096811F8041C08400549096801F8080C7C
:1006D00003480068001F0249086000BF704700001F
:1006E000A001002000BF0A48006850F8080C084923
:1006F000096851F8041C08400549096841F8080CCC
:1007000003480068001F0249086000BF70470000EE
:10071000A001002000BF0A48006830F9080C084911
:10072000096831F9041C08400549096821F8080CDA
:1007300003480068001F0249086000BF70470000BE
:10074000A00100200448006810F8040CC0430249CE
:10075000096801F8040C7047A001002004480068F3
:1007600050F8040CC0430249096841F8040C704772
:10077000A00100200448006830F9040CC04302497D
:10078000096821F8040C7047A001002010B5A4B03E
:10079000DF48006800781390DD480068401CDC49A1
:1007A000086000201290DB480068001FD9490860EB
:1007B00011E0D848006802681398401E1299401A48
:1007C00014A941F82020D3480068001FD1490860CF
:1007D0001298401C1290DDE912018842E9D3CD48FD
:1007E000006800681190139811286ED2DFE800F0BD
:1007F000090E141D293747596E849CB6D2F4F2F1C4
:10080000F000002011998847109074E114980F901F
:100810001199884710906EE115980F9014980E90DA
:10082000119A0F999047109065E116980F901598BE
:100830000E9014980D90119BDDE90E1298471090C0
:1008400059E117980F9016980E9015980D901498DE
:100850000C90119C0DA90EC9A04710904BE118985F
:10086000009017980F9016980E9015980D90149868
:100870000C90119C0DA90EC9A04710903BE1DDE939
:100880001801CDE9000117980F9016980E90159851
:100890000D9014980C90119C0DA90EC9A0471090B2
:1008A00029E1DDE919211898CDE901210090179877
:1008B0000F9016980E9015980D9014980C90119C0E
:1008C0000DA90EC9A047109015E111E1DDE919321B
:1008D00018991B98CDE901320091039017980F9059
:1008E00016980E9015980D9014980C90119C0DA9C7
:1008F0000EC9A0471090FEE0DDE91923DDE91B10C9
:10090000CDE90123CDE903101898009017980F90B6
:1009100016980E9015980D9014980C90119C0DA996
:100920000EC9A0471090E6E0DDE91A23DDE91C10AE
:10093000CDE90223CDE90410DDE91801CDE900017C
:1009400017980F9016980E9015980D9014980C907B
:10095000119C0DA90EC9A0471090CCE0DDE91C3216
:100960001B991E98CDE9043203910690DDE9192107
:100970001898CDE90121009017980F9016980E90C5
:1009800015980D9014980C90119C0DA90EC9A047B4
:100990001090B0E0DDE91C23DDE91E10CDE9042351
:1009A000CDE90610DDE9193218991B98CDE901321D
:1009B0000091039017980F9016980E9015980D902F
:1009C00014980C90119C0DA90EC9A047109092E0AC
:1009D00068E043E020E0FFE7DDE91E321D99209842
:1009E000CDE9063205910890DDE91923DDE91B0107
:1009F000CDE90123CDE903011898009017980F90D5
:100A000016980E9015980D9014980C90119C0DA9A5
:100A10000EC9A04710906EE0DDE91E13DDE920024B
:100A2000CDE90613CDE90802DDE91A23DDE91C0151
:100A3000CDE90223CDE90401DDE91801CDE900018A
:100A400017980F9016980E9015980D9014980C907A
:100A5000119C0DA90EC9A04710904CE0DDE9203192
:100A6000229A1F98CDE908310A920790DDE91B23ED
:100A7000DDE91D01CDE90323CDE90501DDE91921FA
:100A80001898CDE90121009017980F9016980E90B4
:100A900015980D9014980C90119C0DA90EC9A047A3
:100AA000109028E0DDE9213220992398CDE9093220
:100AB00008910B90DDE91D321C991F98CDE9053294
:100AC00004910790DDE91823DDE91A10CDE9002330
:100AD000CDE9021017980F9016980E9015980D906A
:100AE00014980C90119C0DA90EC9A047109002E01B
:100AF0000020109000BF00BF0649109809680860E8
:100B000004480068001D0349086024B010BD0000BF
:100B1000A4010020A001002000BF0A48006810F8CE
:100B2000080C0849096811F8041C90FBF1F005490C
:100B3000096801F8080C03480068001F01490860B3
:100B400000BF7047A001002000BF0A48006850F8AD
:100B5000080C0849096851F8041C90FBF1F005499C
:100B6000096841F8080C03480068001F0149086043
:100B700000BF7047A001002000BF0B48006830F99B
:100B8000080C0949096831F9041C90FBF1F000B226
:100B90000549096821F8080C03480068001F02494C
:100BA000086000BF70470000A001002008480068EE
:100BB000007808490968087006480068001D054962
:100BC000086003480068401C014908607047000045
:100BD000A4010020A00100200F48006800780E4901
:100BE0000968497840EA01200B490968897840EA98
:100BF000014009490968C97840EA01600749096864
:100C0000086006480068001D044908600248006842
:100C1000001D014908607047A4010020A0010020C8
:100C20001049096809780F4A1268527841EA02218E
:100C30000C4A1268927841EA02410A4A1268D27854
:100C400041EA02600178084A126811700649096891
:100C5000091D054A116003490968091D014A11600F
:100C600070470000A4010020A00100200449096889
:100C700051F8040C0178024A126802F8041C70470B
:100C8000A00100201049096809780F4A12685278BB
:100C900041EA02210C4A1268927841EA02410A4A6A
:100CA0001268D27841EA0260084A0168126811604D
:100CB00006490968091D054A116003490968091DAB
:100CC000014A116070470000A4010020A00100202B
:100CD0000449096851F8040C024A0168126842F894
:100CE000041C7047A00100201049096809780F4AC8
:100CF0001268527841EA02210C4A1268927841EA5D
:100D000002410A4A1268D27841EA02600188084A20
:100D10001268118006490968091D054A11600349D6
:100D20000968091D014A116070470000A4010020F4
:100D3000A00100200449096851F8040C0188024A06
:100D4000126822F8041C7047A00100200B480068BC
:100D500000780A490968497840EA012000B2084948
:100D60000968088006480068001D054908600348B6
:100D70000068801C0149086070470000A401002041
:100D8000A001002000BF0B48006810F8080C0949BA
:100D9000096811F8041C90FBF1F201FB12000549EF
:100DA000096801F8080C03480068001F0149086041
:100DB00000BF7047A001002000BF0B48006850F83A
:100DC000080C0949096851F8041C90FBF1F201FB79
:100DD00012000549096841F8080C03480068001F23
:100DE0000149086000BF7047A001002000BF0B4808
:100DF000006830F9080C0949096831F9041C90FBB6
:100E0000F1F201FB12000549096821F8080C0348BA
:100E10000068001F0149086000BF7047A001002062
:100E200000BF0A48006810F8080C0849096811F862
:100E3000041C10FB01F00549096801F8080C03487F
:100E40000068001F0149086000BF7047A001002032
:100E500000BF0A48006850F8080C0849096851F8B2
:100E6000041C48430549096841F8080C0348006818
:100E7000001F0249086000BF70470000A001002069
:100E800000BF0B48006830F8080C0949096831F8C0
:100E9000041C10FB01F000B20549096821F8080C98
:100EA00003480068001F0249086000BF7047000047
:100EB000A00100207047000000BF0A48006810F839
:100EC000080C0849096811F8041C08430549096819
:100ED00001F8080C03480068001F0249086000BFC1
:100EE00070470000A001002000BF0A48006850F8C9
:100EF000080C0849096851F8041C084305490968A9
:100F000041F8080C03480068001F0249086000BF50
:100F100070470000A001002000BF0A48006830F9B7
:100F2000080C0849096831F9041C08430549096897
:100F300021F8080C03480068001F0249086000BF40
:100F400070470000A001002002480068001F01490E
:100F500008607047A001002000BF0A48006810F830
:100F6000080C0849096811F8041C884005490968FB
:100F700001F8080C03480068001F0249086000BF20
:100F800070470000A001002000BF0A48006850F828
:100F9000080C0849096811F8041C884005490968CB
:100FA00041F8080C03480068001F0249086000BFB0
:100FB00070470000A001002000BF0A48006830F818
:100FC000080C0849096811F8041C884000B205495A
:100FD000096821F8080C03480068001F01490860EF
:100FE00000BF7047A001002000BF0A48006810F849
:100FF000080C0849096811F8041C084105490968EA
:1010000001F8080C03480068001F0249086000BF8F
:1010100070470000A001002000BF0A48006850F897
:10102000080C0849096811F8041C084105490968B9
:1010300041F8080C03480068001F0249086000BF1F
:1010400070470000A001002000BF0A48006830F986
:10105000080C0849096811F8041C08410549096889
:1010600021F8080C03480068001F0249086000BF0F
:1010700070470000A00100200748006810F8040C29
:101080000549096851F8081C087003480068001FEA
:101090000149086070470000A0010020074800686F
:1010A00050F8040C0549096851F8081C0860034809
:1010B0000068001F0149086070470000A00100207F
:1010C0000748006830F8040C0549096851F8081C05
:1010D000088003480068001F01490860704700004D
:1010E000A001002000BF0A48006810F8080C084959
:1010F000096811F8041C401A0549096801F8080C30
:1011000003480068001F0249086000BF70470000E4
:10111000A001002000BF0A48006850F8080C0849E8
:10112000096851F8041C401A0549096841F8080C7F
:1011300003480068001F0249086000BF70470000B4
:10114000A001002000BF0A48006830F8080C0849D8
:10115000096831F8041C401A00B20549096821F8F1
:10116000080C03480068001F0149086000BF704771
:10117000A001002000BF0A48006810F8080C0849C8
:10118000096811F8041C48400549096801F8080C71
:1011900003480068001F0249086000BF7047000054
:1011A000A001002000BF0A48006850F8080C084958
:1011B000096851F8041C48400549096841F8080CC1
:1011C00003480068001F0249086000BF7047000024
:1011D000A001002000BF0A48006830F9080C084947
:1011E000096831F9041C48400549096821F8080CD0
:1011F00003480068001F0249086000BF70470000F4
:10120000A001002010B507F071F809F095F807F07B
:1012100097F810BD10B5104800684FF47A71B0FB14
:10122000F1F4601EB0F1807F00D30FE0601E4FF03C
:10123000E02148610F214FF0FF30FFF7DFF9002078
:101240004FF0E02188610720086100BF0021481E9F
:10125000FFF7D4F910BD00001000002010B51948A8
:10126000006840F47000174908601748006840F0B3
:1012700001001549086014490831096841F08001EE
:10128000114A08321160002000E0401C1428FCD3F1
:1012900000200D49083108600B4800680B490840E0
:1012A000094908600A48091D0860081F006820F401
:1012B0008020091F0860002003490C31086009F0F4
:1012C00095FE10BD88ED00E000380240FFFFF6FEFD
:1012D0001030002410B507F009F803480AF0AAF905
:1012E00007F02EF810BD0000CC0100200048704728
:1012F000C801002002E008C8121F08C1002AFAD164
:1013000070477047002001E001C1121F002AFBD185
:101310007047000070B5044606480068FEF750FFAD
:10132000451E054850F83500A0F1140625603046EA
:1013300070BD00000C010020940700202DE9F0434F
:101340008BB005468946174600242DB94FF49B7291
:101350001C491DA005F01AFC2FB940F2371219499B
:101360001AA005F013FC00E0641C285D202804D0BE
:10137000285D092801D04C45F6D324B94FF0FF3041
:101380000BB0BDE8F0832146284604F0B3FC0646C6
:1013900016B94FF0FF30F3E7282101A8FEF7DDFF73
:1013A00001AA4946284604F019FD8046B8F1000F0D
:1013B00002D14FF0FF30E3E701A94046B047386063
:1013C0000020DDE7F4C30008636D6400726574708B
:1013D0000000000070B5044624B94F22134914A040
:1013E00005F0D4FBA06A0078232809D1A16AE0693E
:1013F000884205D9D4E90A010844E16988420AD241
:10140000214610A007F004F8FEF7F4FE054600BFE1
:10141000002DFDD108E0A06A2030E169814203D8A7
:1014200021460FA006F0F4FF70BD000028C100089F
:1014300074687265616420213D2052545F4E554CA2
:101440004C0000007468726561643A2573207374FF
:1014500061636B206F766572666C6F770A000000BF
:101460007761726E696E673A2025732073746163C9
:101470006B20697320636C6F736520746F20656ED9
:1014800064206F6620737461636B206164647265AD
:1014900073732E0A000000002DE9FC5F04468B46A2
:1014A00016461F46DDE90C9ADDE90E5804F11400DA
:1014B0004060006000BF26626762C4F82890C4F8EC
:1014C0002CA02321D4E90A0207F01BFAD4E90A3C34
:1014D00063441A1F174BD4E9080106F0DFFEE061F0
:1014E000202D04DBAF22144914A005F04FFB30344B
:1014F000A57165710020A060C4F81480C4F818803C
:1015000020602071A064E064303C00902346144ABF
:101510002146019004F14C0009F078F800BF114811
:10152000006818B120460F490968884700BF0020AD
:10153000BDE8FC9F519D000876C100087072696F7C
:1015400072697479203C2052545F5448524541449A
:101550005F5052494F524954595F4D415800000065
:1015600041A20008300100202DE9F04704460E4654
:1015700017469846DDF8209084F80990607A20F0AC
:1015800001006072E66127620020A062C4F8248036
:10159000002506E004F1140101EBC50006F078FF18
:1015A0006D1C012DF6DBBDE8F08770B50546002403
:1015B00006E005F1140101EBC40006F0DCFF641C39
:1015C000012CF6DB70BD000010B50948006868B951
:1015D00000BF08A006F01CFF0A4806F019FF0AA089
:1015E00006F016FF00BF01200149086010BD000091
:1015F000180000201B5B33336D5B572F554152544D
:101600005D20000018C500081B5B306D0A0000005B
:101610002DE9F04704460F46904604B12FB94FF428
:10162000EF72404940A005F0B1FAFEF7E3FD8246B3
:10163000A06CC0F38F2000282DD10026E56C2DB9B9
:101640004FF4F472374943A005F0A0FA2868012846
:1016500013D001202860206C006928B940F2ED12F7
:10166000304941A005F092FA206C012342463946E8
:10167000D0F810C02046E04701E06FF00606504663
:10168000FEF7BCFD16B94046BDE8F087304608F0CD
:1016900095F90020F8E7E56C0026204606F0BCF935
:1016A00081462DB940F2FD121E4939A005F06EFAAF
:1016B000C84501DA464600E04E46E8888119A06C2C
:1016C000C0F38F20814207D2EA8828688118324609
:1016D000384607F0B7F81CE0A06CC0F38F20EB8809
:1016E000C21A2868C118384607F0ACF8EB8803EB3B
:1016F000060CA36CC3F38F23ACEB0302A36CC3F300
:101700008F233B44B5F806C0A3EB0C00296807F013
:1017100099F83146204606F085F95046FEF76EFDF1
:101720003046B1E7D5BC00082873657269616C204A
:10173000213D2052545F4E554C4C2920262620280E
:101740006461746120213D2052545F4E554C4C29F8
:101750000000000072785F646D6120213D205254CA
:101760005F4E554C4C00000073657269616C2D3EF4
:101770006F70732D3E646D615F7472616E736D691D
:101780007420213D2052545F4E554C4C0000000007
:1017900072785F6669666F20213D2052545F4E5516
:1017A0004C4C00002DE9F047044688461646256D4E
:1017B0004FF0FF3332464146281D05F0BFFD074676
:1017C000CFB9FEF717FD8146286801280DD001200A
:1017D00028604846FEF712FD206C0223324641463F
:1017E000D0F810C02046E04702E04846FEF706FD6C
:1017F0003046BDE8F087384608F0E0F80020F8E70A
:1018000070B50546EC6C2CB94FF4B8720F4910A0B6
:1018100005F0BCF9A088E188884207D1A06808B922
:10182000002070BDA86CC0F38F20FAE7A088E18883
:10183000884203DDA088E188401AF2E7E088A188A9
:10184000411AA86CC0F38F20401AEAE77EBC00085A
:1018500072785F6669666F20213D2052545F4E5555
:101860004C4C00002DE9F04706460F4615462EB9B0
:101870004FF486721E491FA005F088F9A846F46C43
:101880002CB94FF488721A491FA005F07FF928E09F
:10189000FEF7B0FC8246E088A188884205D1A068A6
:1018A00018B95046FEF7AAFC1DE0E188206810F840
:1018B0000190E088401CE080E188B06CC0F38F208C
:1018C000814201DB0020E080A068012801D10020D6
:1018D000A0605046FEF792FC87F800907F1C6D1EBA
:1018E00000BF002DD4D100BFA8EB0500BDE8F087F4
:1018F00060BC000873657269616C20213D20525400
:101900005F4E554C4C00000072785F6669666F2030
:10191000213D2052545F4E554C4C00002DE9F041C2
:1019200004460E4615462CB94FF49E721B491C48BE
:1019300005F02CF9A846276D2FB94FF4A07217496E
:1019400018A005F023F923E030780A2810D1207E72
:1019500000F0400060B1206C0D2182682046904765
:10196000401C28B94FF0FF31384605F0B3F90FE0BD
:101970003178206C826820469047401C28B94FF08F
:10198000FF31384605F0A6F902E0761C6D1E00BF57
:10199000002DD9D1A8EB0500BDE8F0816FBC00088F
:1019A000041A0008747820213D2052545F4E554C93
:1019B0004C0000002DE9F04106460F46144626B9BA
:1019C000D6220F490FA005F0E1F8A04611E0306CD7
:1019D000C168304688470546681C00B90BE03D7079
:1019E0007F1C641E307E00F0400010B10A2D00D133
:1019F00001E0002CEBD100BFA8EB0400BDE8F081B2
:101A000040BC000873657269616C20213D2052540E
:101A10005F4E554C4C0000002DE9F04104460E4647
:101A2000154624B9ED220F490F4805F0AFF82F46AF
:101A300012E030780A2808D1207E00F0400020B162
:101A4000206C0D218268204690473178206C826896
:101A500020469047761C6D1E002DEAD1781BBDE80C
:101A6000F081000050BC0008041A000870B504465C
:101A7000FEF7C0FB0546A06F10B12046A16F884756
:101A80002846FEF7BBFB70BD07463D4625B9392207
:101A9000264927A005F07AF847E0284601688142E8
:101AA00001D1012100E0002131B108F0B3FA06466E
:101AB00008F058FB07F0E0F9FEF79CFB8146286828
:101AC0000446204606F03CFDAC60208A20F0010070
:101AD0002082002020644846FEF790FB2046D4E98F
:101AE00002219047FEF786FB81460020A860484609
:101AF000FEF784FBA84606F037F811E008F10C0069
:101B000007F046FC0646B01C20B908F10C0007F0AF
:101B100019FB05E00EB9002603E04FF0FF3600E0A8
:101B2000ECE700BF06F030F800BFB6E7EFBA0008F8
:101B3000717565756520213D2052545F4E554C4CA2
:101B40000000000010B520A006F062FC21480178DA
:101B500021A006F05DFC1F48007800F0010010B1E4
:101B600023A006F055FC1B48007800F0020010B1DD
:101B700022A006F04DFC1748007800F0040010B1D8
:101B800021A006F045FC1348007800F0080010B1D1
:101B900021A006F03DFC0F48007800F0100010B1C5
:101BA00020A006F035FC0B48007800F0800030B132
:101BB00008480F3001681DA006F02AFC02E01FA0B3
:101BC00006F026FC10BD0000627573206661756C1E
:101BD000743A0A0029ED00E05343425F43465352F2
:101BE0005F424653523A3078253032582000000088
:101BF000494255534552522000000000505245437F
:101C00004953455252200000494D505245434953D3
:101C10004552522000000000554E53544B4552523D
:101C20002000000053544B45525220005343422D94
:101C30003E424641523A253038580A000A00000018
:101C400010B502A006F0E4FB002010BD1B5B324A79
:101C50001B5B480070B504460D4603F02BF90020CD
:101C600070BD70B504460D4603F076FD002070BDD2
:101C7000024613680BB9116070471068884202D998
:101C800048601160F8E7106807E043688B4200D9AC
:101C900005E0436803B902E040680028F5D100BFC1
:101CA00043680BB143684B60416000BFE4E730B567
:101CB00003464A681C688C4201D1002009E018687C
:101CC00004E044688C4200D102E040680028F8D16A
:101CD00000BFE0B10468044408348C4217D172B1EB
:101CE0000C680C440834944209D10C6815682C44E3
:101CF000103405682C4404605468446014E005689E
:101D00000C6808342C4404604C6844600CE05AB100
:101D10000C680C440834944206D10D6814680834E9
:101D20002C440C6054684C6030BD024610688842F8
:101D300004D14B68136000234B607047106806E0C5
:101D400043688B4202D14B68436002E04068002840
:101D5000F6D100BF00BFF0E700F108035A1803688E
:101D6000083B5B1A13600160436853604260704730
:101D700010B50446002C01F02183206910B12069C0
:101D8000FFF7F6FF20781C2881F00E83DFE810F0C3
:101D90000C0B1C00D901EF01F0011B021A024202D8
:101DA0006A029502C002EB02160341036C0397031B
:101DB000C203ED031A0439040C0BE70422065B0787
:101DC0000E09D80A0B0BC10AA07800F0040048B332
:101DD00000BF2420FA4909680870F9480068401CCF
:101DE000F749086000BF00BF00BFA068007A09681B
:101DF0000870A0680089000AF14909684870A06865
:101E00008068000CEE4909688870A0688068000E40
:101E1000EB490968C87000BFE9480068001DE8493F
:101E200008608CE1A07800F0020000287ED0A06855
:101E300000287CD0017AC91E0C293ED2DFE801F0CF
:101E400006077C3E3F7D78797E7A7B7F00BFA17854
:101E500001F0080151B100BF2421D94A1268117064
:101E6000D7490968491CD64A11600AE000BF2521FC
:101E7000D34A12681170D2490968491CD04A1160CE
:101E800000BF00BF00BF017BCD4A1268117081897D
:101E9000090ACB4A12685170C168090CC84A126815
:101EA0009170C168090EC64A1268D17000BFC4495A
:101EB0000968091DC24A116000BF77E000BFA17820
:101EC00001F0080151B100BF2421BD4A1268117010
:101ED000BB490968491CBA4A11600AE000BF2621C3
:101EE000B74A12681170B6490968491CB44A1160B2
:101EF00000BF00BF00BF017BB14A12681170818929
:101F0000090AAF4A12685170C168090CAC4A1268DC
:101F10009170C168090EAA4A1268D17000BFA84921
:101F20000968091DA64A116000BF3FE040E03EE09D
:101F300000BF00BF00BF00BF00BF00BF00BFA1784F
:101F400001F0080151B100BF24219D4A12681170AF
:101F50009B490968491C9A4A11600AE000BF272181
:101F6000974A1268117096490968491C944A116091
:101F700000BF00BF00BF017B914A126811708189C8
:101F8000090A8F4A12685170C168090C8C4A12689C
:101F90009170C168090E8A4A1268D17000BF8849E1
:101FA0000968091D864A116000BF00BF00BFC6E076
:101FB000A06800287ED0417CC91E0C2940D2DFE8F1
:101FC00001F00607804041817C7D827E7F8300BFD7
:101FD000A17801F0080151B100BF2421784A1268AC
:101FE000117077490968491C754A11600AE000BF01
:101FF0002521734A1268117071490968491C704A99
:10200000116000BF00BF00BF00F114016C4A1268EC
:102010001170090A6A4A1268517000F11401090C22
:10202000674A1268917000F11401090E644A12683F
:10203000D17000BF62490968091D614A116000BF83
:102040007BE000BFA17801F0080151B100BF24215D
:102050005B4A126811705A490968491C584A116054
:102060000AE000BF2621564A1268117054490968D7
:10207000491C534A116000BF00BF00BF00F11401AA
:102080004F4A12681170090A4D4A1268517000F1E6
:102090001401090C4A4A1268917000F11401090EEA
:1020A000474A1268D17000BF45490968091D444A72
:1020B000116000E042E000BF3FE000BF00BF00BF92
:1020C00000BF00BF00BF00BFA17801F0080151B1FF
:1020D00000BF24213A4A1268117039490968491C25
:1020E000374A11600AE000BF2721354A1268117093
:1020F00033490968491C324A116000BF00BF00BF64
:1021000000F114012E4A12681170090A2C4A126853
:10211000517000F11401090C294A1268917000F104
:102120001401090E264A1268D17000BF24490968BB
:10213000091D234A116000BF00BF00BF00BF01F0AE
:1021400037B900BF22201E49096808701C48006882
:10215000401C1B49086000BF00BF20790968087057
:1021600017480068401C1649086000BFE7E700BF39
:1021700000BF242012490968087011480068401CFB
:102180000F49086000BF00BF00BF207909680870D0
:10219000A088000A0A49096848706068000C08496C
:1021A000096888706068000E05490968C87000BF3A
:1021B00003480068001D0249086000BFBFE7000037
:1021C0005001002000BF00BF2420FD4909680870AD
:1021D000FB480068401CFA49086000BF00BF00BF10
:1021E000207909680870A088000AF54909684870D4
:1021F0006068000CF249096888706068000EF04958
:102200000968C87000BFEE480068001DEC4908600E
:1022100000BF94E76078012809D100BFE849096848
:102220000870E7480068401CE549086019E06078DC
:10223000022809D100BFE24909680870E048006837
:10224000401CDF4908600CE06078032809D100BF1A
:10225000DB4909680870DA480068401CD849086002
:1022600000BF6CE7607801280AD100BF0420D44980
:1022700009680870D2480068401CD14908601BE01A
:10228000607802280AD100BF0520CD49096808708E
:10229000CB480068401CCA4908600DE060780328FC
:1022A0000AD100BF0620C64909680870C448006802
:1022B000401CC349086000BF41E7607801280AD18B
:1022C00000BF0D20BE4909680870BD480068401C69
:1022D000BB4908601BE0607802280AD100BF0E20CD
:1022E000B74909680870B6480068401CB4490860DE
:1022F0000DE0607803280AD100BF0F20B0490968BB
:102300000870AF480068401CAD49086000BF16E780
:10231000607801280AD100BF0720A9490968087020
:10232000A7480068401CA64908601BE060780228A6
:102330000AD100BF0820A24909680870A0480068B7
:10234000401C9F4908600DE0607803280AD100BF57
:1023500009209B490968087099480068401C984901
:10236000086000BFEBE6607801280AD100BF0A20B0
:1023700093490968087092480068401C90490860B9
:102380001BE0607802280AD100BF0B208C49096845
:1023900008708B480068401C894908600DE060782F
:1023A00003280AD100BF0C208549096808708448B9
:1023B0000068401C8249086000BFC0E660780128C0
:1023C0000AD100BF10207E49096808707C48006867
:1023D000401C7B4908601BE0607802280AD100BFDE
:1023E000112077490968087075480068401C7449D5
:1023F00008600DE0607803280AD100BF1220704900
:10240000096808706E480068401C6D49086000BF8C
:1024100095E6607801280AD100BF13206849096851
:10242000087067480068401C654908601BE06078D8
:1024300002280AD100BF1420614909680870604869
:102440000068401C5E4908600DE0607803280AD1EE
:1024500000BF15205A490968087059480068401C97
:102460005749086000BF6AE6607801280AD100BFBA
:10247000162053490968087051480068401C5049AB
:1024800008601BE0607802280AD100BF17204C4981
:10249000096808704A480068401C494908600DE016
:1024A000607803280AD100BF1820454909680870E0
:1024B00043480068401C4249086000BF3FE660781E
:1024C00001280AD100BF19203D49096808703C481D
:1024D0000068401C3A4908601BE0607802280AD175
:1024E00000BF1A2036490968087035480068401C4A
:1024F000334908600DE0607803280AD100BF1B2033
:102500002F49096808702E480068401C2C49086053
:1025100000BF14E6607801280AD100BF1C202849BA
:102520000968087026480068401C254908601BE0BF
:10253000607802280AD100BF1D202149096808706F
:102540001F480068401C1E4908600DE060780328A1
:102550000AD100BF1E201A4909680870184800688F
:10256000401C1749086000BFE9E5607801280AD1DE
:1025700000BF1F2012490968087011480068401CFC
:102580000F4908601BE0607802280AD100BF2020B4
:102590000B49096808700A480068401C084908602F
:1025A0000DE0607803280AD100BF212004490968A2
:1025B000087003480068401C0149086000BFBEE580
:1025C0005001002000212269D2B12269D06801E0C7
:1025D000491CC0680028FBD100BF2C22FC4B1B68A3
:1025E0001A70FB4A1268521CF94B1A6000BF00BFF8
:1025F0001B681970F64A1268521CF54B1A6000BF2E
:102600009DE52069C0B320690078012850D1206978
:102610004078012804D0022818D0032843D12CE0A8
:1026200000BF2820EA4909680870E9480068401C92
:10263000E749086000BF00BF2D2009680870E44822
:102640000068401CE249086000BF30E000BF29205C
:10265000DF4909680870DE480068401CDC490860F2
:1026600000BF00BF2E2009680870D9480068401CD0
:10267000D749086000BF1AE01AE000BF2A20D449F9
:1026800009680870D2480068401CD149086000BF42
:1026900000BF2F2009680870CD480068401CCC4955
:1026A000086000BF03E0032000F0D0FE00BF55E04B
:1026B00020690078192851D12069407800F00F0076
:1026C000012804D0022818D0032842D12BE000BFF3
:1026D0002820BF4909680870BD480068401CBC49F3
:1026E000086000BF00BF2D2009680870B848006866
:1026F000401CB749086000BF2FE000BF2920B44943
:1027000009680870B2480068401CB149086000BF01
:1027100000BF2E2009680870AD480068401CAC4915
:10272000086000BF19E000BF2A20A94909680870A5
:10273000A7480068401CA649086000BF00BF2F20C2
:1027400009680870A2480068401CA149086000BFE1
:1027500003E0032000F07AFE00BF00BFEFE4206931
:1027600000287DD020690078012879D12169886806
:102770006178012904D002295DD003295AD1BDE036
:1027800000BF2521924A1268117091490968491CBD
:102790008F4A116000BF00BF00BF00F11401126832
:1027A0001170090A8A4A1268517000F11401090C6B
:1027B000874A1268917000F11401090E844A126868
:1027C000D17000BF82490968091D814A116000BFAC
:1027D00000BF2221126811707D490968491C7C4A9A
:1027E000116000BF00BF01211268117078490968AB
:1027F000491C774A116000BF00BF012112681170A7
:1028000073490968491C724A116000BF00BF282142
:10281000126811706E490968491C6D4A116000BF49
:1028200000BF2F211268117069490968491C684A64
:10283000116000BFC9E000BF2621654A126811700F
:1028400063490968491C624A116000BF00BF00BFAC
:1028500000F1140112681170090A5D4A126800E063
:10286000B5E0517000F11401090C594A12689170D9
:1028700000F11401090E564A1268D17000BF544984
:102880000968091D524A116000BF00BF2321126868
:1028900011704F490968491C4D4A116000BF00BFC3
:1028A00000BF0121126811700021494A126851705D
:1028B00000BF47490968891C454A116000BF00BF35
:1028C00002211268117042490968491C404A11608E
:1028D00000BF00BF2921126811703D490968491CD9
:1028E0003B4A116000BF00BF2F21126811703849A8
:1028F0000968491C364A116000BF66E000BF272105
:10290000334A1268117032490968491C304A116013
:1029100000BF00BF00BF00F1140112681170090A66
:102920002B4A1268517000F11401090C284A1268F0
:10293000917000F11401090E254A1268D17000BF90
:1029400023490968091D224A116000BF00BF2421E4
:10295000126811701E490968491C1D4A116000BFA8
:1029600000BF00BF0121126811700021184A1268CF
:102970005170174A12689170154A1268D17000BFE1
:1029800013490968091D124A116000BF00BF0321E5
:10299000126811700E490968491C0D4A116000BF88
:1029A00000BF2A211268117009490968491C084AA8
:1029B000116000BF00BF2F2112681170044909681F
:1029C000491C034A116000BF00BF00BF00BF20E4E4
:1029D00050010020206900287ED02069007801285D
:1029E0007AD1216988686178012904D002295DD0F3
:1029F00003295AD1BDE000BF2521FE4A126811709B
:102A0000FC490968491CFB4A116000BF00BF00BFB8
:102A100000F1140112681170090AF64A1268517027
:102A200000F11401090CF34A1268917000F11401CD
:102A3000090EF04A1268D17000BFEE490968091DFD
:102A4000EC4A116000BF00BF222112681170E949F1
:102A50000968491CE74A116000BF00BF01211268E4
:102A60001170E4490968491CE24A116000BF00BFC7
:102A7000042112681170DF490968491CDD4A1160A0
:102A800000BF00BF282112681170DA490968491C8B
:102A9000D84A116000BF00BF2F2112681170D549BC
:102AA0000968491CD34A116000BFC9E000BF262154
:102AB000D04A12681170CF490968491CCD4A11608B
:102AC00000BF00BF00BF00F1140112681170090AB5
:102AD000C84A1268517000E0B4E000F11401090C1A
:102AE000C44A1268917000F11401090EC14A1268BB
:102AF000D17000BFBF490968091DBE4A116000BFFF
:102B000000BF232112681170BA490968491CB94AEB
:102B1000116000BF00BF00BF0121126811700021C9
:102B2000B44A1268517000BFB2490968891CB14AA1
:102B3000116000BF00BF052112681170AD4909681E
:102B4000491CAC4A116000BF00BF292112681170F6
:102B5000A8490968491CA74A116000BF00BF2F217E
:102B600012681170A3490968491CA24A116000BF8C
:102B700066E000BF27219F4A126811709D490968CD
:102B8000491C9C4A116000BF00BF00BF00F1140146
:102B900012681170090A974A1268517000F1140105
:102BA000090C944A1268917000F11401090E914ABF
:102BB0001268D17000BF8F490968091D8D4A1160E4
:102BC00000BF00BF2421126811708A490968491C9E
:102BD000884A116000BF00BF00BF01211268117058
:102BE0000021844A12685170824A12689170814AA9
:102BF0001268D17000BF7F490968091D7D4A1160C4
:102C000000BF00BF0621126811707A490968491C8B
:102C1000784A116000BF00BF2A21126811707549FF
:102C20000968491C734A116000BF00BF2F21126858
:102C3000117070490968491C6E4A116000BF00BFDD
:102C400000BF00BFB4E3206900287DD02069007870
:102C5000012879D1216988686178012904D0022985
:102C600073D0032972D110E100BF2421614A126898
:102C7000117060490968491C5E4A116000BF00BFBD
:102C800000BF00F1140112681170090A594A126854
:102C9000517000F11401090C564A1268917000F14C
:102CA0001401090E534A1268D17000BF51490968D6
:102CB000091D504A116000BF00BF25211268117024
:102CC0004C490968491C4B4A116000BF00BF00BF56
:102CD00000F1140112681170090A464A1268517015
:102CE00000F11401090C434A1268917000F11401BB
:102CF000090E404A1268D17000BF3E490968091D9B
:102D00003C4A116000BF00BF22211268117039498E
:102D10000968491C374A116000BF00BF01211268D1
:102D2000117034490968491C324A116000BF00BF64
:102D30000121126811702F490968491C2D4A116040
:102D400000BF00BF282102E02FE113E02BE1126851
:102D5000117028490968491C264A116000BF00BF4C
:102D60002B211268117023490968491C214A1160FE
:102D700000BF18E100BF24211E4A126811701D49CE
:102D80000968491C1B4A116000BF00BF00BF00F169
:102D9000140112681170090A164A1268517000F184
:102DA0001401090C134A1268917000F11401090E04
:102DB000104A1268D17000BF0E490968091D0D4AFA
:102DC000116000BF00BF262112681170094909680F
:102DD000491C084A116000BF00BF00BF00F1140188
:102DE00012681170090A034A1268517000F1140147
:102DF000090C01E050010020FC4A1268917000F1BA
:102E00001401090EF94A1268D17000BFF749096828
:102E1000091DF64A116000BF00BF2321126811701E
:102E2000F2490968491CF14A116000BF00BF00BFA8
:102E30000121126811700021EC4A1268517000BF24
:102E4000EA490968891CE94A116000BF00BF0221F4
:102E500012681170E5490968491CE44A116000BF15
:102E600000BF292112681170E0490968491CDF4A36
:102E7000116000BF00BF2B2112681170DB49096887
:102E8000491CDA4A116000BF8DE000BF2421D74AF7
:102E900012681170D5490968491CD44A116000BFF5
:102EA00000BF00BF00F1140112681170090ACF4A77
:102EB0001268517000F11401090CCC4A126891702B
:102EC00000F11401090EC94A1268D17000BFC74948
:102ED0000968091DC54A116000BF00BF272112689B
:102EE0001170C2490968491CC04A116000BF00BF87
:102EF00000BF00F1140112681170090ABB4A126880
:102F0000517000F11401090CB84A1268917000F177
:102F10001401090EB54A1268D17000BFB34909689F
:102F2000091DB24A116000BF00BF24211268117050
:102F3000AE490968491CAD4A116000BF00BF00BF1F
:102F40000121126811700021A84A12685170A74A25
:102F500012689170A54A1268D17000BFA349096830
:102F6000091DA24A116000BF00BF03211268117041
:102F70009E490968491C9D4A116000BF00BF2A2173
:102F80001268117099490968491C984A116000BF7C
:102F900000BF2B211268117094490968491C934A9B
:102FA000116000BF00BF00BF00BF01E22069002820
:102FB0007ED02069007801287AD1216988686178FB
:102FC000012904D0022974D0032973D110E100BF74
:102FD0002421864A1268117084490968491C834A71
:102FE000116000BF00BF00BF00F114011268117032
:102FF000090A7E4A1268517000F11401090C7B4ADB
:103000001268917000F11401090E784A1268D170AB
:1030100000BF76490968091D744A116000BF00BFEE
:1030200025211268117071490968491C6F4A1160A5
:1030300000BF00BF00BF00F1140112681170090A3F
:103040006A4A1268517000F11401090C674A12684B
:10305000917000F11401090E644A1268D17000BF2A
:1030600062490968091D614A116000BF00BF222141
:10307000126811705D490968491C5C4A116000BF03
:1030800000BF01211268117058490968491C574A4C
:10309000116000BF00BF0421126811705349096814
:1030A000491C524A116000BF00BF2821126802E08B
:1030B0002EE112E02AE111704C490968491C4B4A83
:1030C000116000BF00BF2B211268117047490968C9
:1030D000491C464A116000BF18E100BF2421434A41
:1030E0001268117041490968491C404A116000BFCB
:1030F00000BF00BF00F1140112681170090A3B4AB9
:103100001268517000F11401090C384A126891706C
:1031100000F11401090E354A1268D17000BF33491D
:103120000968091D314A116000BF00BF26211268DD
:1031300011702E490968491C2C4A116000BF00BF5C
:1031400000BF00F1140112681170090A274A1268C1
:10315000517000F11401090C244A1268917000F1B9
:103160001401090E214A1268D17000BF1F49096875
:10317000091D1E4A116000BF00BF23211268117093
:103180001A490968491C194A116000BF00BF00BFF5
:103190000121126811700021144A1268517000BF99
:1031A00012490968891C114A116000BF00BF05213E
:1031B000126811700D490968491C0C4A116000BF62
:1031C00000BF29211268117008490968491C074A83
:1031D000116000BF00BF2B211268117003490968FC
:1031E000491C024A116000BF90E00000500100201D
:1031F00000BF2421724A1268117071490968491C84
:103200006F4A116000BF00BF00BF00F114011268D7
:103210001170090A6A4A1268517000F11401090C10
:10322000674A1268917000F11401090E644A12682D
:10323000D17000BF62490968091D614A116000BF71
:1032400000BF2721126811705D490968491C5C4A5A
:10325000116000BF00BF00BF00F1140112681170BF
:10326000090A574A1268517000F11401090C544AB6
:103270001268917000F11401090E514A1268D17060
:1032800000BF4F490968091D4D4A116000BF00BFCA
:103290002421126811704A490968491C484A116082
:1032A00000BF00BF00BF0121126811700021444A15
:1032B00012685170424A12689170414A1268D17086
:1032C00000BF3F490968091D3D4A116000BF00BFAA
:1032D0000621126811703A490968491C384A116080
:1032E00000BF00BF2A211268117035490968491CC6
:1032F000334A116000BF00BF2B21126811703049A2
:103300000968491C2E4A116000BF00BF00BF00BF02
:103310004EE000BF00BF0020294909680870284915
:103320000968487026490968887025490968C87085
:1033300000BF23480068001D2149086000BF37E036
:10334000A07800F0080068BB6078012804D002284B
:103350000ED0032824D117E000BF2D20184909689A
:10336000087017480068401C1549086000BF18E045
:1033700000BF2E2012490968087011480068401CDF
:103380000F49086000BF0CE000BF2F200C490968FE
:1033900008700B480068401C0949086000BF00E045
:1033A00000BF00BF04E003E0082000F04FF800BFBA
:1033B00000BFE06810B1E068FEF7DAFC002010BD45
:1033C0005001002070B506460021304600F04AFF4B
:1033D00080211448FCF7C1FF4FF480711248FCF7BC
:1033E000BCFF1148114908600E4811490860344675
:1033F00013E02546EC680020E8602846FEF7B8FC9C
:1034000054B100BF2B200A490968087008480068B9
:10341000401C0749086000BF00BF002CE9D1002014
:1034200070BD0000140C0020140B00204C01002083
:10343000500100200148007870470000540100202E
:1034400000200149087070475401002001460248DD
:10345000017000207047000054010020014602481E
:1034600050F82100704700005801002010B50446B4
:10347000204600F0D7F900F02FF9FFF7E1FF002018
:1034800010BD000010B51448006890F82100C0F38A
:10349000400020B9002011490870084610BD1048AE
:1034A000006838B180220E4801680C48FCF76CFFB8
:1034B0000A48F3E702F08CFC20B10AA10748FCF7A8
:1034C00091FF03E009A10548FCF78CFF09A103481F
:1034D000FCF74EFF0148E1E7C0010020940C0020FA
:1034E000C40100206D7368200000000066696E73DF
:1034F000682000003E00000008B5002000900E4843
:10350000006820B9AF220D490DA003F03FFB05E094
:103510004FF0FF310848006805F068FE0649096869
:1035200001236A46D1F8AC02991E04F067F901281C
:10353000EED19DF8000008BDC00100202EC4000897
:103540007368656C6C20213D2052545F4E554C4C85
:103550000000000070B50546E81C20F0030518487F
:10356000046800E0646824B105F108002168814224
:10357000F8D974B900F03EF81148046800E06468B6
:1035800024B105F1080021688142F8D30CB900206C
:1035900070BD29462046FEF7DFFB21460848FEF7AE
:1035A000C4FB0020606021460648FEF761FB294607
:1035B00004F10800FCF7D1FE04F10800E8E7000080
:1035C000940100209801002070B50446A4F108057C
:1035D00029460648FEF7A9FB29460548FEF748FBA1
:1035E00029460348FEF763FB70BD000098010020E8
:1035F0009401002070B50026124805681EE00024E2
:1036000011E004EB4400104901EBC000407C48B1DC
:1036100004EB440001EBC000416905F10800814260
:1036200000D102E0641C082CEBDB00BF2E466D6865
:10363000082C03D106F10800FFF7C6FF002DDED1EC
:1036400070BD000098010020540A002010B58021B0
:103650000748FCF782FE064806490860782009689A
:10366000086000200349096848600349086010BDEC
:1036700094080020940100209801002010B5044611
:10368000204600F0CFF800F027F800F09BFEFFF78F
:10369000D7FEFFF7DBFF002010BD0000024600212F
:1036A00007E001EB81000B4B13F8200000B902E0AA
:1036B000491C1029F5DB00BF102901D100207047FB
:1036C00001EB8100034B03F8202001EB810003EBA9
:1036D0008000F4E71409002010B54FF4A0710248EF
:1036E000FCF73BFE002010BD1409002070B5054614
:1036F0000220FFF7D3FF044624B90620FFF7A6FEF9
:10370000002070BD25712046FBE72DE9F0410746FA
:10371000002400260025384600F09AFE04466CB9C5
:10372000384600F0AFFA044634B9384600F012FAD1
:10373000044624B1042602E0022600E00126D4B1AA
:103740000120FFF7ABFF05462DB90620FFF77EFEEF
:103750000020BDE8F081012E04D0022E04D0042EFA
:1037600006D103E0AC6003E0AC6001E0AC6000BFF8
:1037700000BFAE7002E00D20FFF768FE2846E8E7C4
:1037800070B505460320FFF789FF044624B90620DB
:10379000FFF75CFE002070BD65602046FBE770B55A
:1037A00005460420FFF77AFF044624B90620FFF7F8
:1037B0004DFE002070BD65602046FBE770B50546F4
:1037C0000620FFF76BFF044624B90620FFF73EFEF4
:1037D000002070BD65602046FBE770B505460520FA
:1037E000FFF75CFF044624B90620FFF72FFE0020F8
:1037F00070BD2846FCF7D4FD461C3046FFF7AAFEF4
:1038000060602846FCF7CCFD0646324629466068D3
:10381000FCF7BAFD2846FCF7C3FD002261680A5494
:103820002046E5E710B504469C212046FCF795FDAF
:10383000002010BD2DE9F04104460F460025276009
:10384000201D216800F0F8FC201D00F0FFFC06465A
:1038500057E01F2E13D101216171D4F8980038B1BF
:10386000204602F061FDE860E86838B1ED6805E0E7
:10387000204602F059FD0546C4F8985038E0142E51
:1038800009D0152E07D0162E05D0172E03D0182ECE
:1038900001D0192E13D101216171D4F8980038B1EB
:1038A000204602F0BAFFE860E86800B3ED681EE069
:1038B000204602F0B2FF0546C4F8985017E00121F7
:1038C0006171D4F8980060B1204602F02DFDE860E7
:1038D000E86808B1ED680AE0201D00F0B7FC064674
:1038E00005E0204602F020FD0546C4F8985000BFD0
:1038F00000BFD4F8980000B907E0201D00F0A6FC36
:103900000646212E01D0202EA3D100BFBDE8F081B4
:103910002DE9F04704460F462648006890F821003C
:1039200000F0010010B124A004F072FD39462046D9
:10393000FFF780FFFFF77EFD20B9D4F89800FFF76E
:1039400041FD09E0FFF776FD0646FFF787FD0546D6
:1039500029461AA004F05CFDFFF76CFD28BB00F0BF
:1039600097FD00F0F1F8C6B2202E12DD7E2E10DA9F
:1039700000F0EAF8814600F0E7F8824600F0E4F84B
:1039800000F0FF084B46524641460DA004F040FDB2
:103990000AE000F0D9F8804600F0D6F881464246A9
:1039A00049460CA004F034FD00BF2046FFF75EFD41
:1039B000BDE8F087C00100200A00000025730A005E
:1039C00009272563272C2025642C203078253038C2
:1039D000780A00000925642C203078253038780AD0
:1039E0000000000070B504460D460748006820B985
:1039F000BE22064906A003F0C9F80348006805F096
:103A0000A1FB002070BD0000C00100203CC40008E4
:103A10007368656C6C20213D2052545F4E554C4CB0
:103A20000000000070B5054600242548006820B954
:103A3000D122244924A003F0A9F8284603F032FE3D
:103A4000044624B9294625A004F0E2FC70BD1C48B8
:103A50000068D0F8AC02A04200D1F7E740F2431171
:103A6000204603F027FE48BB15480068D0F8AC029A
:103A700060B113490968D1F8AC0203F0BDFD1049EB
:103A80000968D1F8AC02002103F02CFF51210C4849
:103A9000006800F51570FCF760FC00200849096813
:103AA000A1F8A60206490968A1F8A802044800681E
:103AB000C0F8AC421149204603F014FF00BFC5E72F
:103AC000C001002049C400087368656C6C20213D6A
:103AD0002052545F4E554C4C0000000066696E73D6
:103AE000683A2063616E206E6F742066696E642090
:103AF0006465766963653A2025730A00E539000834
:103B000010B504460948006820B9A322084909A055
:103B100003F03CF80548006890F8210064F3410088
:103B20000249096881F8210010BD0000C001002091
:103B300018C400087368656C6C20213D2052545FE6
:103B40004E554C4C000000000148006870470000D2
:103B5000140B00202DE9F04106461248056808E0E4
:103B600031462868FCF723FC10B92846BDE8F081EF
:103B70000C350D4800688542F2D30C4804680CE00F
:103B80003046FCF70DFC07463A4631466068FCF7C4
:103B900032FC08B9201DE9E72468002CF0D1002090
:103BA000E4E70000B0010020B4010020A8010020DB
:103BB000024A1060024A116070470000B001002004
:103BC000B40100207CB5002519491A48FFF7F0FF21
:103BD00019491A4800F04CF84FF42C71012003F0F9
:103BE0000FF8174908600846006820B915A004F0CE
:103BF0000FFC681E7CBD0A2014214FF48053002264
:103C0000CDE90010154916A006F079F80446002306
:103C10001A4615A10A48006805F05EFA0120FFF770
:103C20006FFF1CB115B9204606F03AFA0020E1E713
:103C3000D8D0000828CF000808D10008F8D0000824
:103C4000C00100206E6F206D656D6F727920666F08
:103C500072207368656C6C0A00000000E13C00088B
:103C6000747368656C6C0000736872780000000003
:103C7000024A1060024A116070470000B80100203B
:103C8000BC0100202DE9F04106461248056808E015
:103C900031462868FCF78BFB10B92846BDE8F08157
:103CA00010350D4800688542F2D30C4804680CE0DA
:103CB0003046FCF775FB07463A4631466068FCF72C
:103CC0009AFB08B9201DE9E72468002CF0D10020F8
:103CD000E4E70000B8010020BC0100209C010020A6
:103CE000FE48006890F8210020F00100401CFB49CC
:103CF000096881F82100F948006800F5DC70FFF7D9
:103D0000BDFCF6480068D0F8AC0238B903F09EF864
:103D1000054615B12846FFF785FE00BFFFF7B2FB49
:103D2000054604F075FB82E2FFF7E6FB0446002C33
:103D300000DA7CE21B2C05D10120E849096881F8F2
:103D4000200074E2E548006890F8200001280DD1B9
:103D50005B2C05D10220E149096881F8200066E268
:103D60000020DE49096881F82000BEE0DB480068D9
:103D700090F820000228F8D10020D849096881F87D
:103D80002000412C36D1D5480068408C002807DD42
:103D9000D2480068408C401ED0490968488404E03D
:103DA0000020CE490968488441E2CC480068408C34
:103DB00000EB8002C9480068263000EB0211502257
:103DC000C648006800F51570FCF7AEFAC3480068F5
:103DD00000F51570FCF7E4FA80B2C0490968A1F853
:103DE000A602BE490968A1F8A802BC48006806F00E
:103DF0009FFF1CE2422C42D1B8480068418CB74872
:103E00000068808C401E814207DAB4480068408C0C
:103E1000401CB249096848840CE0B0480068808CB6
:103E200038B1AE480068808C401EAC4909684884AF
:103E300000E0FCE1A9480068408C00EB8002A74844
:103E40000068263000EB02115022A448006800F5FB
:103E50001570FCF769FAA148006800F51570FCF7C9
:103E60009FFA80B29D490968A1F8A6029B4909689A
:103E7000A1F8A8029948006806F05AFFD7E1442C3F
:103E800011D196480068B0F8A80258B194A004F087
:103E9000BFFA92480068B0F8A802401E8F4909682E
:103EA000A1F8A802C3E1432C1FD18C480068B0F8E8
:103EB000A8028A490968B1F8A612884214DA87482C
:103EC0000068B0F8A8228548006800F51570815C8C
:103ED00084A004F09DFA81480068B0F8A802401C54
:103EE0007E490968A1F8A802A1E10CB1FF2C00D11C
:103EF0009DE1092C21D1002503E079A004F088FA86
:103F00006D1C76480068B0F8A802A842F5DC73483A
:103F1000006800F5157006F0EBFE7048006800F5CB
:103F20001570FCF73DFA80B26C490968A1F8A60249
:103F30006A490968A1F8A80279E17F2C01D0082C10
:103F400074D166480068B0F8A80200B96FE1634810
:103F50000068B0F8A602401E60490968A1F8A602F0
:103F60005E480068B0F8A802401E5C490968A1F8E4
:103F7000A8025A480068B0F8A60258490968B1F882
:103F8000A812884243DD554B1B68B3F8A632534E46
:103F90003668B6F8A8629A1B504B1B68B3F8A83273
:103FA0005B1C4E4E366806F5157699194B4B1B680F
:103FB000B3F8A862494B1B6803F51573F01804F0B9
:103FC0007FFC002145480068B0F8A62243480068FD
:103FD00000F51570815441480068B0F8A8223F48A8
:103FE000006800F5157011183FA004F011FA3B4865
:103FF0000068B0F8A85203E039A004F009FA6D1C7B
:1040000036480068B0F8A602A842F5DA0CE038A0FD
:1040100004F0FEF9002131480068B0F8A6222F48CC
:10402000006800F51570815401E1FFE70D2C01D007
:104030000A2C64D12948006806F092FE01F0C8FEFF
:10404000012814D12548006890F8210000F00100F3
:1040500010B128A004F0DCF920480068B0F8A612DE
:104060001E48006800F5157001F006FE22E03B21B5
:104070001A480068B0F8A6221848006800F51570C4
:10408000815416480068B0F8A60248B11348016888
:1040900001F51571006800F5DC70FFF739FC09E0E7
:1040A0000E48006890F8210000F0010010B111A046
:1040B00004F0AEF9FFF7E6F9054604F0A9F951213D
:1040C0000648006800F51570FCF747F90020034921
:1040D0000968A1F8A602014909680DE0C0010020A5
:1040E0000800000025630000082573202008000058
:1040F000082008000A000000A1F8A80297E04C4838
:104100000068B0F8A602502804DB0020484909687E
:10411000A1F8A60246480068B0F8A8024449096818
:10412000B1F8A61288424ADA414B1B68B3F8A632AE
:104130003F4E3668B6F8A8629A1B3D4B1B68B3F831
:10414000A8623B4B1B6803F51573F118384B1B68CD
:10415000B3F8A8325B1C364E366806F5157698190A
:1041600004F0AEFB32480068B0F8A822304800687E
:1041700000F5157084542E48006890F8210000F076
:10418000010058B12A480068B0F8A8222848006801
:1041900000F51570111827A004F03AF924480068BA
:1041A000B0F8A85204E0AFF2C80004F031F96D1C79
:1041B0001F480068B0F8A602A842F4DC14E01C48CE
:1041C0000068B0F8A6221A48006800F515708454FB
:1041D0001748006890F8210000F0010020B1214646
:1041E000AFF2001004F014F9002411480068B0F890
:1041F000A602401C0E490968A1F8A6020C480068F6
:10420000B0F8A802401C0A490968A1F8A8020848A9
:104210000068B0F8A602502808DB002004490968AD
:10422000A1F8A60202490968A1F8A80200BF7BE52F
:10423000C00100202573000070B504460D4694218E
:104240002046FCF78AF8C4F8905070BD10B50446BB
:10425000607810B10020607002E0204607F0BEF8E0
:10426000207A10BD70B504460D46002C61D0207830
:10427000132808D02078152805D02078162802D0D9
:1042800020781A2804D108212069FFF7EBFF0CE001
:104290002078192805D125B100212069FFF7E2FF18
:1042A00003E029462069FFF7DDFF0021E068FFF702
:1042B000D9FFA078042802D0A0782843A0702069F4
:1042C00020B1206940786070002070BD20780128FE
:1042D00061D1A07800F0010060B3A6684EB3707C95
:1042E0000F2821D2DFE800F020081A0B0C190F105C
:1042F0001B13141C15161D000020607018E000BF71
:104300000120607014E000BF0220607010E000BF68
:1043100000BF00BF032060700AE000BF00BF00BF05
:1043200000BF0320607003E00320FFF78FF800BF99
:1043300000BF44E0A07800F0020058B3A6684EB376
:10434000307A0F2821D2DFE800F020081A0B0C1970
:104350000F101B13141C15161D000020607018E0B0
:1043600000BF0120607014E000BF0220607010E008
:1043700000BF00BF00BF032060700AE000BF00BFA5
:1043800000BF00BF0320607003E00320FFF75EF86A
:1043900000BF00BF13E02078022802D10120607026
:1043A0000DE02078032808D02078042805D0207854
:1043B000052802D02078062801D103206070002053
:1043C00083E7000010B5C0210248FBF7C6FF0020BC
:1043D00010BD0000540A00202DE9F04106460F46AA
:1043E0004FF0FF35002418E004EB4401174A02EBBC
:1043F000C10010223146FBF7FEFF18B94FF0FF3025
:10440000BDE8F08104EB4400104901EBC000407CA2
:1044100010B9681C00B92546641C082CE4DB681C34
:1044200010B94FF0FF30EBE705EB4501074A02EB0F
:10443000C10010223146FBF7A7FF05EB4501034AF7
:1044400002EBC1014F742846DAE70000540A00204D
:1044500070B5054600240BE004EB44010B4A02EB67
:10446000C10010222946FBF7C6FF00B902E0641C18
:10447000082CF1DB00BF082C01D1002070BD04EB3B
:104480004400024901EBC000F8E70000540A002094
:1044900010B50F480F4908600F48104908600BE03D
:1044A0000E48006804780D480068401C0B490860FD
:1044B0000B4951F824008047084800680649401A13
:1044C00004D406480068401A8028E9DB10BD0000CB
:1044D000140B0020A0010020140C0020A4010020D7
:1044E000F0C2000870B506460D462EB940F24112E2
:1044F0002D492EA002F04AFB2DB94FF4A1722A4992
:104500002FA002F043FBF46B204600F01FF929684E
:10451000206807F02BF9287900F00F00092805D151
:104520004FF48051206807F038FA04E00021206839
:1045300007F033FA00BF00BF2879C0F3011001284B
:1045400005D14FF40051206807F017FA04E000216C
:10455000206807F012FA00BF00BF2879C0F381106D
:10456000012802D002280CD105E04FF480612068B8
:1045700007F0F3F90AE04FF4C061206807F0EDF9A5
:1045800004E00021206807F0E8F900BF00BF042123
:10459000206807F0EAF90821206807F0F6F920689A
:1045A00007F065F9002070BDECB900087365726909
:1045B000616C20213D2052545F4E554C4C00000050
:1045C00063666720213D2052545F4E554C4C0000DD
:1045D0002DE9F04105460E4617462DB940F27712F7
:1045E000124913A002F0D2FAEC6B102E11D0112E4A
:1045F00018D194F9040000F01F0201219140114AE2
:10460000430942F8231000BF0F49206807F050F912
:1046100008E094F90400FBF7E6FF0B49206807F077
:104620006AF900BF00BF0020BDE8F081FBB90008B7
:1046300073657269616C20213D2052545F4E554C68
:104640004C00000080E100E02000001070B504463E
:104650002CB94FF4D072094909A002F097FAE56B22
:104660004FF0FF360521286807F013F918B12868C4
:1046700007F0F4F80646304670BD000012BA000894
:1046800073657269616C20213D2052545F4E554C18
:104690004C0000007CB5184903C9CDE90001002495
:1046A00025E0164804EBC401154A02EB8101C969F3
:1046B000086404EBC400114601EB8000C069DDE929
:1046C0000012C0E9111204EBC4020D4D05EB820388
:1046D00004EBC40205EB8202116A04EBC40205EB91
:1046E0008202D06940F2031203F098FD641C002C92
:1046F000D7D000207CBD000028BA0008D8B9000837
:10470000B4B9000870B504460E462CB94FF4C9720E
:10471000084909A002F03AFAE56B3146286807F02B
:10472000A2F800BF0621286807F0B3F80028F9D0E6
:10473000012070BD08BA000873657269616C2021A0
:104740003D2052545F4E554C4C00000070B504465D
:10475000208902F0E1F9608902F0DEF9E08802F0D8
:10476000DBF9628A218AE06800F038F8628B218BDD
:10477000606900F033F8638A01220221E06800F0EA
:104780005CF8638A02220021E06800F07DF8638B08
:1047900001220221606900F050F8638B022200219F
:1047A000606900F071F894F904000021002807DA2C
:1047B0000A07150E074A00F00F031B1FD55403E02C
:1047C0000A07130E044A135400BF94F90400FBF7C0
:1047D0000AFF70BD18ED00E000E400E0F0B503460C
:1047E0001C6A5D6A00200DE00126864016403EB13D
:1047F00087000F26BE40B443860001FA06F6344314
:10480000461CB0B20828EFD3082011E001268640EC
:1048100016405EB1A0F10806B7000F26BE40B543B2
:10482000A0F10806B60001FA06F63543461CB0B200
:104830001028EBD31C625D62F0BDF0B504460D4656
:1048400016462168E268002019E0012787401F40D2
:104850009FB14FEA400C032707FA0CF7B943470012
:1048600005FA07F739434FEA400C032707FA0CF71C
:10487000BA43470006FA07F73A43471CB8B2102874
:10488000E3D32160E260F0BDF0B50C461546012C83
:1048900003D146681E43466002E046689E43466078
:1048A000826800210DE001268E401E403EB14F007F
:1048B0000326BE40B2434E0005FA06F632434E1CB4
:1048C000B1B21029EFD38260F0BD000010B51448DA
:1048D000006800F0020010B112A003F099FD10482A
:1048E000006800F0804088B10D48C01E007808B113
:1048F000FDF728F90A48001F007808B101F0F0F828
:104900000748801E008808B106F0BCFE0448006815
:1049100000F0004010B109A003F07AFD10BD0000C6
:104920002CED00E06661696C656420766563746FE8
:10493000722066657463680A000000006465627531
:1049400067206576656E740A0000000010B502A04D
:1049500003F05EFD002010BD48656C6C6F20525462
:104960002D546872656164210A00000070B51FA0B3
:1049700003F04EFD224804680DE0022221A12068C8
:10498000FBF739FD00B905E01FA0D4E9001203F0E0
:104990003FFD00BF0C34204800688442EDD31F481F
:1049A000056804E01EA0696803F032FD2D68002D43
:1049B000F8D11DA003F02CFD2048046805E012A0EA
:1049C000D4E9001203F024FD10341D48006884422D
:1049D000F5D31C48066804E011A0716803F018FDC7
:1049E0003668002EF8D1002070BD00002D2D4675D0
:1049F0006E6374696F6E204C6973743A0A0000002C
:104A0000B00100205F5F0000252D313673202D2D71
:104A10002025730A00000000B4010020A801002036
:104A20005B6C5D2025730A002D2D566172696162F1
:104A30006C65204C6973743A0A000000B8010020CC
:104A4000BC0100209C0100202DE9F04790B0002718
:104A50000FF2A009082303AA09210BA800F022F9EC
:104A60004FF008084A46414624A003F0D1FC4046D6
:104A700001F02CFA2BA003F0CBFC00BF0BA93846A9
:104A800000F025F9074600262BE003A850F8260081
:104A9000A0F10C05FBF7AEFB8246287A20F08000DF
:104AA0009DF83410884203D05046FBF7A7FB17E06F
:104AB0005046FBF7A3FB2C46A17E207D162804DC84
:104AC000207D214A52F8200001E01F48806D2346D6
:104AD0000822CDE9000141461CA003F099FC00BF6B
:104AE000761C0F98B042D0DC002FC7D1002010B048
:104AF000BDE8F0876465766963650000252D2A2E80
:104B00007320202020202020202074797065202010
:104B10002020202020202072656620636F756E742F
:104B20000A000000202D2D2D2D2D2D2D2D2D2D2D6C
:104B30002D2D2D2D2D2D2D2D2D202D2D2D2D2D2DB2
:104B40002D2D2D2D0A00000094C20008252D2A2E9F
:104B50002A7320252D32307320252D38640A000059
:104B60002DE9F04F8FB000270FF2C009082302AAE9
:104B700004210AA800F096F84FF008084A4641467A
:104B80002CA003F045FC404601F0A0F932A003F050
:104B90003FFC00BF0AA9384600F099F807460025F7
:104BA0003BE002A850F82500A0F10C06FBF722FB21
:104BB0008346307A20F080009DF83010884203D080
:104BC0005846FBF71BFB27E05846FBF717FB34461C
:104BD00004F1140003F0A2FCA8B904F1140003F0DE
:104BE000A5FC8246E069234608224146CDE9000A39
:104BF00021A003F00DFC04F1140006F01DF915A02E
:104C000003F006FC07E0E0692346082241460090D5
:104C10001FA003F0FDFB00BF6D1C0E98A842C0DC76
:104C2000002FB7D100200FB0BDE8F08F6576656E1C
:104C300074000000252D2A2E7320202020202073B0
:104C400065742020202073757370656E642074680D
:104C5000726561640A00000020202D2D2D2D2D2D60
:104C60002D2D2D2D202D2D2D2D2D2D2D2D2D2D2D81
:104C70002D2D2D0A00000000252D2A2E2A7320201C
:104C800030782530387820253033643A0000000031
:104C9000252D2A2E2A732020307825303878203090
:104CA0000A0000002DE9F04704460D4616461F464F
:104CB000284603F095FF814609F10408C4F80080F6
:104CC00025726660E76000202061BDE8F0872DE96D
:104CD000F84F07460C464FF0000A00202061E068BC
:104CE00008B1207A10B90020BDE8F88FD4F8008010
:104CF0001FB945464FF0010A00E03D46FBF77AFA3E
:104D00000090BAF1000F0ED1A5F10C0B9BF8080032
:104D100020F08000217A884204D00098FBF76EFAD8
:104D20000020E1E700BF0026D4F804900BE02D68D6
:104D3000454501D1002507E0761C49F8045BE06891
:104D4000B04200D100E0F2E700BF0098FBF756FA4E
:104D500026612846C8E700002DE9F04F91B00027F2
:104D60000FF2D409082304AA05210CA8FFF79AFF23
:104D70004FF008084A46414631A003F049FB40463F
:104D800001F0A4F837A003F043FB00BF0CA938469C
:104D9000FFF79DFF0746002545E004A850F82500D1
:104DA000A0F10C06FBF726FA8346307A20F080004B
:104DB0009DF83810884203D05846FBF71FFA31E0BF
:104DC0005846FBF71BFA344604F1140003F0A6FB27
:104DD000B8B904F1140003F0A9FB8246208C618C61
:104DE00023460822CDE9010A0091414624A003F0A0
:104DF0000FFB04F1140006F01FF827A003F008FBD6
:104E00000FE004F1140003F091FB8246208C618CCA
:104E100023460822CDE9010A009141461FA003F074
:104E2000F7FA00BF6D1C1098A842B6DC002FADD178
:104E3000002011B0BDE8F08F6D61696C626F780081
:104E4000252D2A2E7320656E7472792073697A6518
:104E50002073757370656E64207468726561640A8E
:104E600000000000202D2D2D2D20202D2D2D2D205A
:104E70002D2D2D2D2D2D2D2D2D2D2D2D2D2D0A00B2
:104E8000252D2A2E2A732025303464202025303405
:104E9000642025643A0000000A000000252D2A2E17
:104EA0002A73202530346420202530346420256482
:104EB0000A00000010B50848016808A003F0A8FA2D
:104EC0000B4801680BA003F0A3FA0F4801680FA07C
:104ED00003F09EFA10BD00004C000020746F746156
:104EE0006C206D656D6F72793A2025640A000000B0
:104EF0005000002075736564206D656D6F727920B8
:104F00003A2025640A000000540000206D61786991
:104F10006D756D20616C6C6F6361746564206D6587
:104F20006D6F72793A2025640A0000002DE9F04780
:104F300090B000270FF29409082303AA07210BA8B9
:104F4000FFF7B0FE4FF008084A46414621A003F0A3
:104F50005FFA404600F0BAFF2AA003F059FA00BFFA
:104F60000BA93846FFF7B3FE0746002624E003A846
:104F700050F82600A0F10C04FBF73CF98246207A99
:104F800020F080009DF83410884203D05046FBF793
:104F900035F910E05046FBF731F92546D5E907020F
:104FA000A9692B46CDE9001202900822414620A0B3
:104FB00003F02EFA00BF761C0F98B042D7DC002F0A
:104FC000CED1002010B0BDE8F08700006D656D689F
:104FD00065617000252D2A2E732020706F6F6C2064
:104FE00073697A6520206D6178207573656420731C
:104FF000697A6520617661696C61626C65207369AC
:105000007A650A00202D2D2D2D2D2D2D2D2D2D20B5
:105010002D2D2D2D2D2D2D2D2D2D2D2D2D202D2DCD
:105020002D2D2D2D2D2D2D2D2D2D2D2D0A0000005A
:10503000252D2A2E2A7320252D3031306420252D50
:105040003031336420252D3035640A002DE9F04FCE
:1050500093B04FF000090FF2DC0B082305AA1946A4
:105060000DA8FFF71FFE4FF0080A5A46514633A01D
:1050700003F0CEF9504600F029FF3AA003F0C8F93A
:1050800000BF0DA94846FFF722FE8146002647E0F3
:1050900005A850F82600A0F10C07FBF7ABF812901A
:1050A000387A20F080009DF83C10884203D0129896
:1050B000FBF7A4F833E01298FBF7A0F83C46002574
:1050C000D4F82C8002E06D1CD8F8008004F12C008C
:1050D0008045F8D1002D14DDD4E90920E16923468B
:1050E000CDE90205CDE900120822514626A003F0C1
:1050F0008FF904F12C0005F09FFE22A003F088F93F
:105100000CE0D4E90920E1692346CDE90205CDE9A7
:1051100000120822514623A003F07AF900BF761C42
:105120001198B042B4DCB9F1000FAAD1002013B03D
:10513000BDE8F08F6D656D706F6F6C00252D2A2EA8
:105140007320626C6F636B20746F74616C20667285
:1051500065652073757370656E642074687265612F
:10516000640A0000202D2D2D2D20202D2D2D2D20E9
:10517000202D2D2D2D202D2D2D2D2D2D2D2D2D2D79
:105180002D2D2D2D0A000000252D2A2E2A732025D5
:1051900030346420202530346420202530346420CD
:1051A00025643A00252D2A2E2A73202530346420C8
:1051B00020253034642020253034642025640A0002
:1051C0002DE9F04F8FB000270FF2CC09082302AA77
:1051D00006210AA8FFF766FD4FF008084A46414637
:1051E00030A003F015F9404600F070FE34A003F043
:1051F0000FF900BF0AA93846FFF769FD07460025E9
:1052000041E002A850F82500A0F10C06FAF7F2FFE1
:105210008346307A20F080009DF83010884203D019
:105220005846FAF7EBFF2DE05846FAF7E7FF344609
:1052300004F1140003F072F9A8B904F1140003F0AA
:1052400075F98246A08C234608224146CDE9000A22
:1052500021A003F0DDF804F1140005F0EDFD23A01A
:1052600003F0D6F80DE004F1140003F05FF9824674
:10527000A08C234608224146CDE9000A1CA003F079
:10528000C7F800BF6D1C0E98A842BADC002FB1D140
:1052900000200FB0BDE8F08F6D736771756575659F
:1052A00000000000252D2A2E7320656E747279206F
:1052B00073757370656E64207468726561640A004A
:1052C000202D2D2D2D20202D2D2D2D2D2D2D2D2D35
:1052D0002D2D2D2D2D0A0000252D2A2E2A73202557
:1052E000303464202025643A000000000A000000E9
:1052F000252D2A2E2A732025303464202025640A87
:10530000000000002DE9F04F91B000270FF29C093A
:10531000082304AA03210CA8FFF7C4FC4FF00808D7
:105320004A46414623A003F073F8404600F0CEFD04
:1053300029A003F06DF800BF0CA93846FFF7C7FCA1
:105340000746002629E004A850F82600A0F10C0426
:10535000FAF750FF8346207A20F080009DF838103D
:10536000884203D05846FAF749FF15E05846FAF745
:1053700045FF254605F1140003F0D8F88246E87F82
:105380000822296A2B46CDE9020ACDE900214146CF
:1053900019A003F03DF800BF761C1098B042D2DC93
:1053A000002FC9D1002011B0BDE8F08F6D75746574
:1053B00078000000252D2A2E732020206F776E653F
:1053C000722020686F6C642073757370656E642042
:1053D0007468726561640A00202D2D2D2D2D2D2DF0
:1053E0002D202D2D2D2D202D2D2D2D2D2D2D2D2D07
:1053F0002D2D2D2D2D0A0000252D2A2E2A73202536
:105400002D382E2A7320253034642025640A0000AC
:105410002DE9F84F05464FF0000B00200090824622
:105420008146684806682DE067A0316805F04FFDA9
:1054300000B926E02846316805F049FD00BBBBF104
:10544000000F0AD161A002F0E3FF287828B1D6F856
:1054500000904846FAF7A4FF82460BF101001FFABC
:1054600080FB287838B14846316805F010FD0446C5
:10547000544500DAA24659A0D6E9001202F0C8FF4E
:1054800000BF0C36594800688642CDD3584807689B
:1054900028E02846796805F01AFD10BBBBF1000F23
:1054A0000DD14AA002F0B4FF287840B1B9F1000F45
:1054B00005D1D7F804904846FAF772FF82460BF1FF
:1054C00001001FFA80FB287838B14846796805F05A
:1054D000DEFC0446544500DAA24646A0796802F094
:1054E00097FF3F68002FD4D14448066828E028463B
:1054F000316805F0ECFC10BB009868B940A002F0E0
:1055000087FF287840B1B9F1000F05D1D6F8009097
:105510004846FAF745FF82460098401C80B200904A
:10552000287838B14846316805F0B1FC0446544546
:1055300000DAA24629A0D6E9001202F069FF10366F
:10554000334800688642D2D33248D0F800802BE03E
:105550002846D8F8041005F0BAFC18BB009868B9C2
:1055600027A002F055FF287840B1B9F1000F05D10E
:10557000D8F804904846FAF713FF82460098401C7A
:1055800080B20090287840B14846D8F8041005F061
:105590007EFC0446544500DAA2461FA0D8F8041049
:1055A00002F036FFD8F80080B8F1000FD0D1B9F181
:1055B000000F04D052464946284604F099FABDE847
:1055C000F88F0000B00100205F5F00002D2D667590
:1055D0006E6374696F6E3A0A00000000252D313643
:1055E00073202D2D2025730A00000000B401002037
:1055F000A80100205B6C5D2025730A00B801002023
:105600002D2D7661726961626C653A0A00000000B6
:10561000BC0100209C0100205B765D2025730A0000
:105620002DE9F04F8FB000270FF2CC09082302AA12
:1056300002210AA8FFF736FB4FF008084A46414608
:1056400030A002F0E5FE404600F040FC34A002F03D
:10565000DFFE00BF0AA93846FFF739FB07460025E1
:1056600041E002A850F82500A0F10C06FAF7C2FDAF
:105670008346307A20F080009DF83010884203D0B5
:105680005846FAF7BBFD2DE05846FAF7B7FD344609
:1056900004F1140002F042FFA8B904F1140002F072
:1056A00045FF8246A08B234608224146CDE9000AE9
:1056B00021A002F0ADFE04F1140005F0BDFB17A01F
:1056C00002F0A6FE0DE004F1140002F02FFF824666
:1056D000A08B234608224146CDE9000A1AA002F019
:1056E00097FE00BF6D1C0E98A842BADC002FB1D106
:1056F00000200FB0BDE8F08F73656D6170686F7248
:1057000065000000252D2A2E732076202020737539
:105710007370656E64207468726561640A000000CD
:10572000202D2D2D202D2D2D2D2D2D2D2D2D2D2DC3
:105730002D2D2D0A00000000252D2A2E2A7320254C
:105740003033642025643A00252D2A2E2A73202523
:105750003033642025640A002DE9F04FB1B04FF0DA
:1057600000090FF21C1B082323AA01212BA8FFF715
:1057700099FA4FF0080A5A465146434802F048FE4B
:10578000504600F0A3FB41A002F042FE00BF2BA94F
:105790004846FFF79CFA81464FF0000865E023A8D1
:1057A00050F82800A0F10C05FAF724FD3090287A73
:1057B00020F080009DF8B410884203D03098FAF7AA
:1057C0001DFD50E08022294603A8FAF7ADFD309870
:1057D000FAF714FD2C4694F835002346082251466A
:1057E00000903AA002F014FE94F8340000F007068E
:1057F000012E03D138A002F00BFE15E0022E03D1DA
:1058000038A002F005FE0FE01EB939A002F000FE3C
:105810000AE0042E03D139A002F0FAFD04E0032EC1
:1058200002D139A002F0F4FDA76A00E07F1C3878AD
:105830002328FBD0D4E90A10791A401A642148437E
:10584000E16AB0FBF1F00290216BA06CCDE90001A0
:10585000E369A06AC01AE36AC1181A462DA0029B28
:1058600002F0D6FD00BF08F101082F98404596DCF4
:10587000B9F1000F8BD1002031B0BDE8F08F0000EE
:105880007468726561640000F4C60008202D2D2D37
:1058900020202D2D2D2D2D2D2D202D2D2D2D2D2D5F
:1058A0002D2D2D2D202D2D2D2D2D2D2D2D2D2D2042
:1058B000202D2D2D2D2D2D20202D2D2D2D2D2D2D3F
:1058C0002D2D2D202D2D2D0A00000000252D2A2EF6
:1058D0002A732025336420002072656164792020BA
:1058E000000000002073757370656E640000000096
:1058F00020696E69742020200000000020636C6F16
:1059000073652020000000002072756E6E696E675E
:10591000000000002030782530387820307825309D
:105920003878202020202530326425252020203082
:10593000782530387820253033640A002DE9F04787
:1059400090B000270FF2B409082303AA0A210BA87C
:10595000FFF7A8F94FF008084A46414629A002F08F
:1059600057FD404600F0B2FA30A002F051FD00BFF2
:105970000BA93846FFF7ABF9074600262DE003A830
:1059800050F82600A0F10C04FAF734FC8246207A85
:1059900020F080009DF83410884203D05046FAF77A
:1059A0002DFC19E05046FAF729FC2546D5E90901F6
:1059B0002B460822CDE90001414625A002F028FD32
:1059C000687A00F0010018B127A002F021FD02E082
:1059D00028A002F01DFD00BF761C0F98B042CEDC5F
:1059E000002FC5D104F0A2FC0446214625A002F0F8
:1059F0000FFD002010B0BDE8F087000074696D65F0
:105A000072000000252D2A2E732020706572696FA8
:105A100064696320202074696D656F75742020208F
:105A200020202020666C61670A000000202D2D2DAB
:105A30002D2D2D2D2D2D2D202D2D2D2D2D2D2D2DA3
:105A40002D2D202D2D2D2D2D2D2D2D2D2D2D0A00E3
:105A5000252D2A2E2A73203078253038782030786A
:105A600025303878200000006163746976617465C0
:105A7000640A000064656163746976617465640A30
:105A80000000000063757272656E74207469636B48
:105A90003A3078253038780A0000000003E04FF4EF
:105AA000FA7004F05FFAFAE710B5044601F0C0F9A5
:105AB000FFF7F4FF10BD2DE9F04107460C461646EE
:105AC0003846FDF7EBFD05461CB115B12C61E660CB
:105AD00002E00E20FDF7BAFC2846BDE8F081000088
