:020000040800F2
:1000000068090020D5010008DD010008D9020008B8
:10001000E1010008E3010008E5010008000000001C
:10002000000000000000000000000000E7010008E0
:10003000E901000800000000270200087904000818
:10004000EF010008EF010008EF010008EF010008D0
:10005000EF010008EF010008EF010008EF010008C0
:10006000EF010008EF010008EF010008EF010008B0
:10007000EF010008EF010008EF010008EF010008A0
:10008000EF010008EF010008EF010008EF01000890
:10009000EF010008EF010008EF010008EF01000880
:1000A000EF010008EF010008EF010008EF01000870
:1000B000EF010008EF010008EF010008EF01000860
:1000C000EF010008EF010008EF010008EF01000850
:1000D000EF01000849050008EF010008EF010008E2
:1000E000EF010008EF010008EF010008EF01000830
:1000F000EF010008EF010008EF010008EF01000820
:10010000EF010008EF010008EF010008EF0100080F
:10011000EF010008EF010008EF010008EF010008FF
:10012000EF010008EF010008EF010008EF010008EF
:10013000EF010008EF010008EF010008EF010008DF
:10014000EF010008EF010008EF010008EF010008CF
:10015000EF010008EF010008EF010008EF010008BF
:10016000EF010008EF010008EF010008EF010008AF
:10017000EF010008EF010008EF0100080000000097
:10018000EF010008EF010008EF010008EF0100088F
:10019000EF010008EF010008EF0100080000000077
:1001A000EF010008EF010008EF010008DFF810D0B0
:1001B00000F000F9004800472F040008AFF300806A
:1001C00068090020002804D090FAA0F0B0FA80F06E
:1001D000401C70470648804706480047FEE7FEE798
:1001E000FEE7FEE7FEE7FEE7FEE7FEE7FEE7FEE7E7
:1001F000D1040008AD010008EFF3108072B670471B
:1002000080F310887047424A1368012B04D04FF0E6
:10021000010313603F4A10603F4A11603F484FF0AE
:10022000805101607047EFF3108272B63848016860
:1002300051B34FF0000101603648016891B1EFF30E
:1002400009811EF0100F08BF21ED108B21E9F00F7E
:100250004FF000041EF0100F08BF012441F8044DB8
:10026000006801602C490968096808C9B1E8F00F05
:10027000002B18BFB1EC108B81F309884EF0100EE3
:10028000002B18BF2EF0100E82F310884EF0040ED3
:10029000704721490860EFF3148222F0040282F3D0
:1002A00014881C494FF00000086019494FF0010004
:1002B00008601B481B49D0F8002041EA0201016098
:1002C00016484FF08051016017480068006880F3BD
:1002D000088861B662B670471EF0040F0CBFEFF3DA
:1002E0000880EFF3098020E9F00F40F804ED40F8B2
:1002F00004ED1EF0040F0CBF80F3088880F309881A
:1003000000B504F013F95DF804EB4EF0040E7047ED
:1003100008000020000000200400002004ED00E0A0
:1003200020ED00E00000FFFF08ED00E0421E12F8A3
:10033000013F002BFBD111F8013B02F8013B002BE0
:10034000F9D1704710B5044604E00B7800F8013B82
:1003500003B1491C521EF8D2204610BD421C10F8B1
:10036000011B0029FBD1801A704730B504460020DC
:10037000034600E05B1C934203D2E05CCD5C401B73
:10038000F8D030BD034611F8012B00F8012B002AEC
:10039000F9D11846704730B505460020034600E005
:1003A0005B1C934205D2EC5CC85C201A01D1002C86
:1003B000F6D130BD064C074D06E0E06840F0010381
:1003C00094E8070098471034AC42F6D3FFF7F2FEEA
:1003D000248B0008448B000870B58C1810F8015B62
:1003E00015F0070301D110F8013B2A1106D110F8CE
:1003F000012B03E010F8016B01F8016B5B1EF9D1D2
:100400002B0705D40023521E0DD401F8013BFAE757
:1004100010F8013BCB1A921C03E013F8015B01F8C2
:10042000015B521EF9D5A142D8D3002070BD10B592
:1004300007F0BCF8002010BD00F01F020121914020
:100440004209920002F1E022C2F800117047000058
:1004500010B5002807DA0A07140E054A00F00F034A
:100460001B1FD45403E00A07130E024A135410BD95
:1004700018ED00E000E400E010B504F0C5FA06F065
:1004800063FB04F0EBFA10BD10B5104800684FF4A0
:100490007A71B0FBF1F4601EB0F1807F00D30FE001
:1004A000601E4FF0E02148610F214FF0FF30FFF751
:1004B000CFFF00204FF0E02188610720086100BFD6
:1004C0000021481EFFF7C4FF10BD000010000020EF
:1004D00010B51948006840F47000174908601748C3
:1004E000006840F0010015490860144908310968A6
:1004F00041F08001114A08321160002000E0401CE8
:100500001428FCD300200D49083108600B4800680E
:100510000B490840094908600A48091D0860081F7E
:10052000006820F48020091F0860002003490C3176
:10053000086007F0ADF910BD88ED00E0003802401A
:10054000FFFFF6FE1030002410B504F05DFA0348FA
:1005500007F0A2F904F082FA10BD00005801002053
:1005600002E008C8121F08C1002AFAD1704770477C
:10057000002001E001C1121F002AFBD170470000DA
:1005800010B506F0ADF928B14FF0FF31024804F084
:10059000F1FC10BD0020FCE73C03002010B5044630
:1005A0002CB14FF4AC62054905A002F04FFE06F0F5
:1005B00097F910B1064804F0EDFB10BD5582000814
:1005C0006C6576656C203D3D2052545F454F4B0075
:1005D0003C03002070B504462068A0F1140500BF5C
:1005E00000BF284606F02EF9002070BD2DE9F0412D
:1005F00005460C469046204606F018FAB8F1000F62
:1006000003D0B8F1010F23D105E004F1140128460D
:1006100004F087FA22E02E680FE0A6F1140794F8A0
:10062000350097F83510884206DA04F1140107F115
:10063000140004F076FA02E03668AE42EDD100BF55
:10064000AE4204D104F11401284604F06AFA05E030
:10065000A322044904A002F0F9FD00BF00BF00205E
:10066000BDE8F081188000083000000010B5044695
:1006700004F1140004F03AFA002010BD2DE9F04313
:100680008BB005468946174600242DB940F20B125F
:100690001D491EA002F0DAFD2FB94FF486721A49E7
:1006A0001BA002F0D3FD00E0641C285D202804D0CC
:1006B000285D092801D04C45F6D324B94FF0FF300E
:1006C0000BB0BDE8F0832146284602F04FFB0646FA
:1006D00016B94FF0FF30F3E72822002101A804F0FB
:1006E00009FB01AA4946284602F092FB8046B8F170
:1006F000000F02D14FF0FF30E2E701A94046B047BA
:1007000038600020DCE70000D0840008636D6400DE
:10071000726574700000000070B5044624B95F2251
:10072000134914A002F092FDA06A0078232809D191
:10073000A16AE069884205D9D4E90A010844E1695F
:1007400088420AD2214610A004F0A4F9FFF754FD14
:10075000054600BF002DFDD108E0A06A2030E16908
:10076000814203D821460FA004F094F970BD000027
:10077000F682000874687265616420213D2052543D
:100780005F4E554C4C0000007468726561643A25F8
:100790007320737461636B206F766572666C6F771C
:1007A0000A0000007761726E696E673A2025732037
:1007B000737461636B20697320636C6F736520745D
:1007C0006F20656E64206F6620737461636B2061B7
:1007D0006464726573732E0A0000000070B50446ED
:1007E00006480068FFF7EEFC451E054850F8350046
:1007F000A0F114062560304670BD000010010020F5
:10080000E003002010B50948006868B900BF08A0DF
:1008100004F040F90A4804F03DF90AA004F03AF95E
:1008200000BF01200149086010BD00001800002031
:100830001B5B33336D5B572F554152545D200000D5
:10084000708500081B5B306D0A0000002DE9F04741
:1008500004460F46904604B12FB94FF4F172404957
:1008600040A002F0F3FCFFF7C7FC8246A06CC0F387
:100870008F2000282DD10026E56C2DB94FF4F6729B
:10088000374943A002F0E2FC2868012813D0012078
:100890002860206C006928B940F2F112304941A06B
:1008A00002F0D4FC206C012342463946D0F810C037
:1008B0002046E04701E06FF006065046FFF7A0FC37
:1008C00016B94046BDE8F087304605F07BFC0020B5
:1008D000F8E7E56C0026204603F01CFD81462DB9A3
:1008E00040F201221E4939A002F0B0FCC84501DAED
:1008F000464600E04E46E8888119A06CC0F38F2080
:10090000814207D2EA88286881183246384604F0C6
:1009100085F91CE0A06CC0F38F20EB88C21A286810
:10092000C118384604F07AF9EB8803EB060CA36C87
:10093000C3F38F23ACEB0302A36CC3F38F233B44BD
:10094000B5F806C0A3EB0C00296804F067F931463E
:10095000204603F0E5FC5046FFF752FC3046B1E775
:10096000B57E00082873657269616C20213D2052B4
:10097000545F4E554C4C2920262620286461746112
:1009800020213D2052545F4E554C4C290000000060
:1009900072785F646D6120213D2052545F4E554C4A
:1009A0004C00000073657269616C2D3E6F70732D91
:1009B0003E646D615F7472616E736D697420213D78
:1009C0002052545F4E554C4C0000000072785F6618
:1009D00069666F20213D2052545F4E554C4C0000FB
:1009E0002DE9F047044688461646256D4FF0FF3343
:1009F00032464146281D03F0C3F80746CFB9FFF73A
:100A0000FBFB8146286801280DD00120286048465C
:100A1000FFF7F6FB206C022332464146D0F810C0A7
:100A20002046E04702E04846FFF7EAFB3046BDE8D3
:100A3000F087384605F0C6FB0020F8E770B505469C
:100A4000EC6C2CB94FF4BA720F4910A002F0FEFB07
:100A5000A088E188884207D1A06808B9002070BD4D
:100A6000A86CC0F38F20FAE7A088E188884203DDF4
:100A7000A088E188401AF2E7E088A188411AA86CB2
:100A8000C0F38F20401AEAE75E7E000872785F6646
:100A900069666F20213D2052545F4E554C4C00003A
:100AA0002DE9F04706460F4615462EB94FF48872D9
:100AB0001E491FA002F0CAFBA846F46C2CB94FF4E3
:100AC0008A721A491FA002F0C1FB28E0FFF794FBCD
:100AD0008246E088A188884205D1A06818B95046AE
:100AE000FFF78EFB1DE0E188206810F80190E08898
:100AF000401CE080E188B06CC0F38F20814201DBB4
:100B00000020E080A068012801D10020A0605046AC
:100B1000FFF776FB87F800907F1C6D1E00BF002D4D
:100B2000D4D100BFA8EB0500BDE8F087407E0008E7
:100B300073657269616C20213D2052545F4E554CA3
:100B40004C00000072785F6669666F20213D20527C
:100B5000545F4E554C4C00002DE9F04104460E46C2
:100B600015462CB94FF4A0721B491C4802F06EFBCD
:100B7000A846276D2FB94FF4A272174918A002F0AA
:100B800065FB23E030780A2810D1207E00F0400079
:100B900060B1206C0D21826820469047401C28B926
:100BA0004FF0FF31384602F0F5FB0FE03178206C52
:100BB000826820469047401C28B94FF0FF313846E4
:100BC00002F0E8FB02E0761C6D1E00BF002DD9D1BB
:100BD000A8EB0500BDE8F0814F7E0008400C00083E
:100BE000747820213D2052545F4E554C4C0000003B
:100BF0002DE9F04106460F46144626B9DA220F4980
:100C00000FA002F023FBA04611E0306CC168304613
:100C100088470546681C00B90BE03D707F1C641EC8
:100C2000307E00F0400010B10A2D00D101E0002C10
:100C3000EBD100BFA8EB0400BDE8F081207E0008E6
:100C400073657269616C20213D2052545F4E554C92
:100C50004C0000002DE9F04104460E46154624B92B
:100C6000F1220F490F4802F0F1FA2F4612E03078D6
:100C70000A2808D1207E00F0400020B1206C0D2110
:100C80008268204690473178206C826820469047E1
:100C9000761C6D1E002DEAD1781BBDE8F0810000A6
:100CA000307E0008400C000870B505F019FE0446BF
:100CB000FFF7A2FA0546204604F07EFD04F14C0041
:100CC00006F072F8042084F83400204605F04EFC4B
:100CD0002846FFF795FA04F073FC70BD2DE9FC5F20
:100CE00004468B4615461E46DDE90C9ADDE90E7872
:100CF00004F114004060006000BF25626662C4F821
:100D00002890C4F82CA02321D4E90A0203F0F2FFB2
:100D1000D4E90A3C63441A1F184BD4E9080103F0D4
:100D20004BFEE061202F04DBBE22154915A002F026
:100D30008DFA303467710020A060E0602074C4F840
:100D40001480C4F8188020602071A064E064303CF6
:100D500000902346144A2146019004F14C0006F00D
:100D600093F800BF1148006818B120460F49096880
:100D7000884700BF0020BDE8FC9F0000A90C0008C8
:100D8000548300087072696F72697479203C205234
:100D9000545F5448524541445F5052494F52495460
:100DA000595F4D4158000000B10D0008300100208E
:100DB00070B505462C4624B98722164916A002F0C4
:100DC00045FA94F8340000F00700022804D0882285
:100DD000104916A002F03AFA204604F05BFB012805
:100DE00004D089220B49204802F030FAFFF704FAB8
:100DF00006466FF00100206304F1140003F0E4FEE6
:100E0000204604F08BFC3046FFF7FAF904F0D8FBDB
:100E100070BD00004483000874687265616420211D
:100E20003D2052545F4E554C4C00000028746872AF
:100E30006561642D3E7374617420262052545F54A2
:100E400048524541445F535441545F4D41534B29EF
:100E5000203D3D2052545F5448524541445F535514
:100E60005350454E44000000608600082DE9F047CD
:100E700004460E4617469846DDF8209084F80990FF
:100E8000607A20F001006072E66127620020A062B3
:100E9000C4F82480002506E004F1140101EBC5002C
:100EA00003F027FE6D1C012DF6DBBDE8F08770B561
:100EB0000546002406E005F1140101EBC40003F02F
:100EC0008CFE641C012CF6DB70BD000007463D461D
:100ED00025B93C22244925A002F0B8F942E0FFF7E9
:100EE0008BF98146284603F033FE50B105F0F8FC3B
:100EF000064605F09BFD4846FFF782F904F060FBCB
:100F000030E028680446204603F04CFE2C61208A1D
:100F100020F001002082002020644846FFF770F98D
:100F20002046D4E90221904700202861A84603F01A
:100F300099FA11E008F1140004F02EFE0646B01CE8
:100F400020B908F1140004F0D5FC05E00EB9002624
:100F500003E04FF0FF3600E0ECE700BF03F092FA49
:100F600000BF00BFBBE70000137D00087175657509
:100F70006520213D2052545F4E554C4C000000002E
:100F800010B520A003F086FD2148017821A003F0D0
:100F900081FD1F48007800F0010010B123A003F08C
:100FA00079FD1B48007800F0020010B122A003F088
:100FB00071FD1748007800F0040010B121A003F083
:100FC00069FD1348007800F0080010B121A003F07B
:100FD00061FD0F48007800F0100010B120A003F070
:100FE00059FD0B48007800F0800030B108480F3000
:100FF00001681DA003F04EFD02E01FA003F04AFDB2
:1010000010BD0000627573206661756C743A0A0049
:1010100029ED00E05343425F434653525F4246533B
:10102000523A30782530325820000000494255535A
:10103000455252200000000050524543495345524A
:1010400052200000494D50524543495345525220C9
:1010500000000000554E53544B45525220000000F2
:1010600053544B45525220005343422D3E42464179
:10107000523A253038580A000A00000010B502A084
:1010800003F008FD002010BD1B5B324A1B5B4800CB
:101090003EB504460D4600200290019000906A463D
:1010A00001A902A803F019FE06A0029903F0F2FCC0
:1010B00008A0019903F0EEFC0AA0009903F0EAFCF5
:1010C00000203EBD746F74616C2020203A2025649E
:1010D0000A00000075736564202020203A202564F2
:1010E0000A0000006D6178696D756D203A202564F5
:1010F0000A00000070B504460D4601F077FB0020A1
:1011000070BD000010B51048006890F82100C0F3D1
:10111000400020B900200D490870084610BD0C4859
:10112000006838B180220A4801680848FFF70AF9C8
:101130000648F3E707A10548FFF724F907A103488C
:10114000FFF7F4F80148E9E750010020E00400202F
:10115000540100206D736820000000003E00000074
:1011600038B5002000901848006820B9A22217491D
:1011700017A002F06BF814480068D0F80C4214B9BC
:101180004FF0FF3038BD13E04FF0FF310E480068DC
:1011900004F004FC0C480068D0F80C02A04207D010
:1011A00009480068D0F80C4214B94FF0FF30E9E765
:1011B00001236A46991E204602F09EFF0128E3D1D2
:1011C0009DF80000DEE70000500100200A850008BD
:1011D0007368656C6C20213D2052545F4E554C4C19
:1011E0000000000070B504460D460748006820B9AD
:1011F000C122064906A002F029F80348006804F05D
:1012000079FB002070BD0000500100201885000807
:101210007368656C6C20213D2052545F4E554C4CD8
:101220000000000070B5054600242648006820B97B
:10123000D422254925A002F009F8284602F0D0FE64
:10124000044624B9294626A003F024FC70BD1D489D
:101250000068D0F80C02A04200D1F7E740F2431139
:10126000204602F0C5FE50BB16480068D0F80C02BC
:1012700060B114490968D1F80C0202F05BFE114913
:101280000968D1F80C02002102F0AAFF51220021C6
:101290000C48006800F5DB7003F02CFD00200949C4
:1012A0000968A1F8080207490968A1F80A02054877
:1012B0000068C0F80C421249204602F091FF00BFBE
:1012C000C4E7000050010020258500087368656CA4
:1012D0006C20213D2052545F4E554C4C00000000C4
:1012E00066696E73683A2063616E206E6F74206663
:1012F000696E64206465766963653A2025730A0027
:10130000E511000810B504460948006820B98E228E
:10131000084909A001F09AFF0548006890F82100EB
:1013200064F341000249096881F8210010BD000002
:1013300050010020F48400087368656C6C20213D26
:101340002052545F4E554C4C00000000024A106081
:10135000024A116070470000480100204C01002043
:101360007CB5002517491848FFF7F0FF4FF40471CA
:10137000012001F0A5FF154908600846006820B962
:1013800013A003F087FB681E7CBD0A2014214FF4D4
:1013900080530022CDE90010134914A005F0A0F8F5
:1013A000044600231A4613A10848006804F044FAD2
:1013B0000120FFF7A7FF1CB115B9204605F0D8FAA8
:1013C0000020E1E7248B0008708A0008500100200B
:1013D0006E6F206D656D6F727920666F7220736815
:1013E000656C6C0A00000000FD13000874736865EA
:1013F0006C6C00007368727800000000FE480068A2
:1014000090F8210020F00100401CFB49096881F898
:101410002100F9480068D0F80C0238B902F0D4F87D
:10142000054615B12846FFF7FDFE00BFFFF76AFE2F
:10143000054603F02FFB5CE2FFF792FE0446002C0A
:1014400000DA56E21B2C05D10120EB49096881F82E
:1014500020004EE2E848006890F8200001280DD1F5
:101460005B2C05D10220E449096881F8200040E2A4
:101470000020E149096881F82000BEE0DE480068EC
:1014800090F820000228F8D10020DB49096881F893
:101490002000412C36D1D8480068408C002807DD58
:1014A000D5480068408C401ED3490968488404E050
:1014B0000020D149096848841BE2CF480068408C6D
:1014C00000EB8002CC480068263000EB021150226D
:1014D000C948006800F5DB7003F0A0FBC64800684F
:1014E00000F5DB70FEF73AFF80B2C3490968A1F846
:1014F0000802C1490968A1F80A02BF48006806F05D
:1015000083F8F6E1422C42D1BB480068418CBA48CE
:101510000068808C401E814207DAB7480068408C22
:10152000401CB549096848840CE0B3480068808CC9
:1015300038B1B1480068808C401EAF4909684884C2
:1015400000E0D6E1AC480068408C00EB8002AA487D
:101550000068263000EB02115022A748006800F511
:10156000DB7003F05BFBA448006800F5DB70FEF75E
:10157000F5FE80B2A0490968A1F808029E490968F1
:10158000A1F80A029C48006806F03EF8B1E1442C3C
:1015900011D199480068B0F80A0258B197A003F039
:1015A00079FA95480068B0F80A02401E9249096825
:1015B000A1F80A029DE1432C1FD18F480068B0F8C2
:1015C0000A028D490968B1F80812884214DA8A487B
:1015D0000068B0F80A228848006800F5DB70815C7A
:1015E00087A003F057FA84480068B0F80A02401C4C
:1015F00081490968A1F80A027BE10CB1FF2C00D1F6
:1016000077E1092C21D1002503E07CA003F042FA08
:101610006D1C79480068B0F80A02A842F5DC7648EB
:10162000006800F5DB7005F0D7FF7348006800F52F
:10163000DB70FEF793FE80B26F490968A1F80802DB
:101640006D490968A1F80A0253E17F2C01D0082CEA
:1016500074D169480068B0F80A0200B949E16648E7
:101660000068B0F80802401E63490968A1F8080242
:1016700061480068B0F80A02401E5F490968A1F895
:101680000A025D480068B0F808025B490968B1F8D1
:101690000A12884243DD584B1B68B3F80832564E95
:1016A0003668B6F80A629A1B534B1B68B3F80A32C5
:1016B0005B1C514E366806F5DB7699194E4B1B685C
:1016C000B3F80A624C4B1B6803F5DB73F01803F0A8
:1016D000E3FA002148480068B0F80822464800684C
:1016E00000F5DB70815444480068B0F80A22424893
:1016F000006800F5DB70111842A003F0CBF93E48FA
:101700000068B0F80A5203E03CA003F0C3F96D1C76
:1017100039480068B0F80802A842F5DA0CE03BA0AE
:1017200003F0B8F9002134480068B0F808223248C4
:10173000006800F5DB708154DBE0FFE70D2C01D081
:101740000A2C2ED12C48006805F076FF2A48006844
:1017500090F8210000F0010010B12DA003F09AF9DB
:1017600025480068B0F808122348006800F5DB70CF
:1017700001F0C6FAFFF7C6FC054603F08BF95122CB
:1017800000211D48006800F5DB7003F0B3FA00206B
:1017900019490968A1F8080217490968A1F80A025D
:1017A000A7E015480068B0F80802502804DB0020C4
:1017B00011490968A1F808020F480068B0F80A0248
:1017C0000D490968B1F8081288425ADA0A4B1B68B9
:1017D000B3F80832084E3668B6F80A629A1B064B10
:1017E0001B68B3F80A62044B1B6803F5DB73F1183E
:1017F000014B1B680EE000005001002008000000B3
:101800002563000008257320200800000820080038
:101810000A000000B3F80A325B1C364E366806F543
:10182000DB76981903F038FA32480068B0F80A22DB
:101830003048006800F5DB7084542E48006890F84A
:10184000210000F0010058B12A480068B0F80A22CF
:101850002848006800F5DB70111827A003F01AF97A
:1018600024480068B0F80A5204E0AFF2700003F0B8
:1018700011F96D1C1F480068B0F80802A842F4DC9A
:1018800014E01C480068B0F808221A48006800F507
:10189000DB7084541748006890F8210000F00100C4
:1018A00020B12146AFF2A80003F0F4F8002411485B
:1018B0000068B0F80802401C0E490968A1F8080247
:1018C0000C480068B0F80A02401C0A490968A1F8EF
:1018D0000A0208480068B0F80802502808DB002017
:1018E00004490968A1F8080202490968A1F80A0236
:1018F00000BFA1E5500100202573000070B5064629
:101900000D462EB940F23D122D492EA001F09EFC4D
:101910002DB94FF49F722A492FA001F097FCF46B68
:10192000204600F01FF92968206806F053F828794E
:1019300000F00F00092805D14FF48051206806F00F
:101940003DF904E00021206806F038F900BF00BF2F
:101950002879C0F30110012805D14FF40051206807
:1019600006F01CF904E00021206806F017F900BF1A
:1019700000BF2879C0F38110012802D002280CD1C1
:1019800005E04FF4C061206806F0F8F80AE04FF473
:101990008061206806F0F2F804E00021206806F07B
:1019A000EDF800BF00BF0421206806F0EFF8082121
:1019B000206806F0FBF8206806F089F8002070BD6A
:1019C000107C000873657269616C20213D205254BF
:1019D0005F4E554C4C00000063666720213D20524D
:1019E000545F4E554C4C00002DE9F04105460E4623
:1019F00017462DB940F27312134914A001F026FCCA
:101A0000EC6B102E12D0112E1AD194F9040000F0B4
:101A10001F0201219140124A430942F8231000BFDE
:101A200040F20531206806F073F809E094F90400EB
:101A3000FEF702FD40F20531206806F076F800BF9F
:101A400000BF0020BDE8F0811F7C0008736572694B
:101A5000616C20213D2052545F4E554C4C000000DB
:101A600080E100E070B504462CB94FF4CE7209490C
:101A700009A001F0EBFBE56B4FF0FF36052128686C
:101A800006F037F818B1286806F018F80646304610
:101A900070BD0000367C000873657269616C20219E
:101AA0003D2052545F4E554C4C0000007CB5184907
:101AB00003C9CDE90001002425E0164804EBC40168
:101AC000154A02EB8101C969086404EBC4001146A0
:101AD00001EB8000C069DDE90012C0E9111204EBDE
:101AE000C4020D4D05EB820304EBC40205EB820238
:101AF000116A04EBC40205EB8202D06940F20312C2
:101B000002F01AFF641C002CD7D000207CBD00001E
:101B10004C7C0008FC7B0008D87B000870B50446AC
:101B20000E462CB94FF4C772084909A001F08EFB8C
:101B3000E56B3146286805F0C6FF00BF062128681E
:101B400005F0D7FF0028F9D0012070BD2C7C0008DB
:101B500073657269616C20213D2052545F4E554C73
:101B60004C00000070B50446208901F035FB608907
:101B700001F032FBE08801F02FFB628A218AE068E5
:101B800000F038F8628B218B606900F033F8638ACB
:101B900001220221E06800F05CF8638A0222002141
:101BA000E06800F07DF8638B01220221606900F09B
:101BB00050F8638B02220021606900F071F894F9FB
:101BC00004000021002807DA0A07150E074A00F072
:101BD0000F031B1FD55403E00A07130E044A1354C6
:101BE00000BF94F90400FEF727FC70BD18ED00E07B
:101BF00000E400E0F0B503461C6A5D6A00200DE0D9
:101C00000126864016403EB187000F26BE40B443F1
:101C1000860001FA06F63443461CB0B20828EFD31A
:101C2000082011E00126864016405EB1A0F10806AA
:101C3000B7000F26BE40B543A0F10806B60001FA72
:101C400006F63543461CB0B21028EBD31C625D6229
:101C5000F0BDF0B504460D4616462168E268002046
:101C600019E0012787401F409FB14FEA400C03272E
:101C700007FA0CF7B943470005FA07F739434FEA6B
:101C8000400C032707FA0CF7BA43470006FA07F798
:101C90003A43471CB8B21028E3D32160E260F0BD9C
:101CA000F0B50C461546012C03D146681E4346602C
:101CB00002E046689E434660826800210DE00126EE
:101CC0008E401E403EB14F000326BE40B2434E0040
:101CD00005FA06F632434E1CB1B21029EFD38260EA
:101CE000F0BD000010B51448006800F0020010B10B
:101CF00012A002F0CFFE1048006800F0804088B1CA
:101D00000D48C01E007808B1FFF73AF90A48001FD5
:101D1000007808B100F03EFF0748801E008808B137
:101D200005F0E4FD0448006800F0004010B109A08F
:101D300002F0B0FE10BD00002CED00E06661696CA1
:101D4000656420766563746F722066657463680AE3
:101D5000000000006465627567206576656E740A30
:101D6000000000002DE9F04790B000270FF2A00915
:101D7000082303AA09210BA800F022F94FF0080854
:101D80004A46414624A002F085FE404601F0B8F8DC
:101D90002BA002F07FFE00BF0BA9384600F025F90A
:101DA000074600262BE003A850F82600A0F10C05FA
:101DB000FEF722FA8246287A20F080009DF834103F
:101DC000884203D05046FEF71BFA17E05046FEF754
:101DD00017FA2C46A17E207D182804DC207D214A9C
:101DE00052F8200001E01F48006E23460822CDE98A
:101DF000000141461CA002F04DFE00BF761C0F986A
:101E0000B042D0DC002FC7D1002010B0BDE8F08771
:101E10006465766963650000252D2A2E73202020D5
:101E20002020202020207479706520202020202070
:101E300020202072656620636F756E740A000000B2
:101E4000202D2D2D2D2D2D2D2D2D2D2D2D2D2D2DCF
:101E50002D2D2D2D2D202D2D2D2D2D2D2D2D2D2DBF
:101E60000A0000006C840008252D2A2E2A732025E4
:101E70002D32307320252D38640A00002DE9F04FF3
:101E80008FB000270FF2C009082302AA04210AA874
:101E900000F096F84FF008084A4641462CA002F0A0
:101EA000F9FD404601F02CF832A002F0F3FD00BF2E
:101EB0000AA9384600F099F8074600253BE002A839
:101EC00050F82500A0F10C06FEF796F98346307A0B
:101ED00020F080009DF83010884203D05846FEF76D
:101EE0008FF927E05846FEF78BF9344604F11400C9
:101EF00002F046FEA8B904F1140002F049FE824641
:101F0000E069234608224146CDE9000A21A002F0FB
:101F1000C1FD04F1140005F0FDFB15A002F0BAFDAF
:101F200007E0E06923460822414600901FA002F026
:101F3000B1FD00BF6D1C0E98A842C0DC002FB7D1C8
:101F400000200FB0BDE8F08F6576656E740000006C
:101F5000252D2A2E73202020202020736574202018
:101F6000202073757370656E642074687265616497
:101F70000A00000020202D2D2D2D2D2D2D2D2D2D55
:101F8000202D2D2D2D2D2D2D2D2D2D2D2D2D2D0AB1
:101F900000000000252D2A2E2A73202030782530BD
:101FA000387820253033643A00000000252D2A2E91
:101FB0002A73202030782530387820300A0000003D
:101FC0002DE9F04704460D4616461F46284603F005
:101FD0004DFA814609F10408C4F800802572666054
:101FE000E76000202061BDE8F0872DE9F84F074643
:101FF0000C464FF0000A00202061E06808B1207A0A
:1020000010B90020BDE8F88FD4F800801FB945460C
:102010004FF0010A00E03D46FEF7EEF80090BAF1FD
:10202000000F0ED1A5F10C0B9BF8080020F08000EA
:10203000217A884204D00098FEF7E2F80020E1E718
:1020400000BF0026D4F804900BE02D68454501D16F
:10205000002507E0761C49F8045BE068B04200D137
:1020600000E0F2E700BF0098FEF7CAF826612846B4
:10207000C8E700002DE9F04F91B000270FF2D40916
:10208000082304AA05210CA8FFF79AFF4FF00808BF
:102090004A46414631A002F0FDFC404600F030FFC8
:1020A00037A002F0F7FC00BF0CA93846FFF79DFFF0
:1020B0000746002545E004A850F82500A0F10C06CD
:1020C000FEF79AF88346307A20F080009DF83810A9
:1020D000884203D05846FEF793F831E05846FEF7A1
:1020E0008FF8344604F1140002F04AFDB8B904F147
:1020F000140002F04DFD8246208C618C234608229C
:10210000CDE9010A0091414624A002F0C3FC04F18C
:10211000140005F0FFFA27A002F0BCFC0FE004F168
:10212000140002F035FD8246208C618C2346082283
:10213000CDE9010A009141461FA002F0ABFC00BFAF
:102140006D1C1098A842B6DC002FADD1002011B054
:10215000BDE8F08F6D61696C626F7800252D2A2EC5
:102160007320656E7472792073697A652073757354
:1021700070656E64207468726561640A0000000016
:10218000202D2D2D2D20202D2D2D2D202D2D2D2DB3
:102190002D2D2D2D2D2D2D2D2D2D0A00252D2A2EC9
:1021A0002A732025303464202025303464202564AF
:1021B0003A0000000A000000252D2A2E2A7320254F
:1021C0003034642020253034642025640A00000067
:1021D0002DE9F04790B000270FF29409082303AAD5
:1021E00007210BA8FFF7ECFE4FF008084A464146CE
:1021F00021A002F04FFC404600F082FE2AA002F02F
:1022000049FC00BF0BA93846FFF7EFFE0746002642
:1022100024E003A850F82600A0F10C04FDF7ECFF21
:102220008246207A20F080009DF83410884203D046
:102230005046FDF7E5FF10E05046FDF7E1FF25466B
:10224000D5E90702A9692B46CDE9001202900822C0
:10225000414620A002F01EFC00BF761C0F98B04241
:10226000D7DC002FCED1002010B0BDE8F0870000F1
:102270006D656D6865617000252D2A2E73202070B4
:102280006F6F6C2073697A6520206D61782075739B
:1022900065642073697A6520617661696C61626C3E
:1022A000652073697A650A00202D2D2D2D2D2D2D89
:1022B0002D2D2D202D2D2D2D2D2D2D2D2D2D2D2D5B
:1022C0002D202D2D2D2D2D2D2D2D2D2D2D2D2D2D4B
:1022D0000A000000252D2A2E2A7320252D303130AA
:1022E0006420252D3031336420252D3035640A00DB
:1022F0002DE9F04F93B04FF000090FF2DC0B0823EB
:1023000005AA19460DA8FFF75BFE4FF0080A5A46CA
:10231000514633A002F0BEFB504600F0F1FD3AA05A
:1023200002F0B8FB00BF0DA94846FFF75EFE8146EC
:10233000002647E005A850F82600A0F10C07FDF79D
:102340005BFF1290387A20F080009DF83C108842A4
:1023500003D01298FDF754FF33E01298FDF750FFB9
:102360003C460025D4F82C8002E06D1CD8F8008093
:1023700004F12C008045F8D1002D14DDD4E90920AA
:10238000E1692346CDE90205CDE900120822514654
:1023900026A002F07FFB04F12C0005F0BBF922A07F
:1023A00002F078FB0CE0D4E90920E1692346CDE98D
:1023B0000205CDE900120822514623A002F06AFB73
:1023C00000BF761C1198B042B4DCB9F1000FAAD15D
:1023D000002013B0BDE8F08F6D656D706F6F6C00FD
:1023E000252D2A2E7320626C6F636B20746F7461CD
:1023F0006C20667265652073757370656E642074F9
:1024000068726561640A0000202D2D2D2D20202D7D
:102410002D2D2D20202D2D2D2D202D2D2D2D2D2D13
:102420002D2D2D2D2D2D2D2D0A000000252D2A2E90
:102430002A73202530346420202530346420202560
:102440003034642025643A00252D2A2E2A73202555
:10245000303464202025303464202025303464203A
:1024600025640A002DE9F04F8FB000270FF2CC0948
:10247000082302AA06210AA8FFF7A2FD4FF00808C8
:102480004A46414630A002F005FB404600F038FDC8
:1024900034A002F0FFFA00BF0AA93846FFF7A5FDF5
:1024A0000746002541E002A850F82500A0F10C06DF
:1024B000FDF7A2FE8346307A20F080009DF83010B0
:1024C000884203D05846FDF79BFE2DE05846FDF7A5
:1024D00097FE344604F1140002F052FBA8B904F14F
:1024E000140002F055FB8246A08C23460822414688
:1024F000CDE9000A21A002F0CDFA04F1140005F0A4
:1025000009F923A002F0C6FA0DE004F1140002F06C
:102510003FFB8246A08C234608224146CDE9000AB3
:102520001CA002F0B7FA00BF6D1C0E98A842BADCDE
:10253000002FB1D100200FB0BDE8F08F6D7367712F
:102540007565756500000000252D2A2E7320656EC7
:102550007472792073757370656E64207468726527
:1025600061640A00202D2D2D2D20202D2D2D2D2DA7
:102570002D2D2D2D2D2D2D2D2D0A0000252D2A2E12
:102580002A732025303464202025643A000000009E
:102590000A000000252D2A2E2A73202530346420BD
:1025A0002025640A000000002DE9F04F91B00027BB
:1025B0000FF29C09082304AA03210CA8FFF700FDD1
:1025C0004FF008084A46414623A002F063FA40460D
:1025D00000F096FC29A002F05DFA00BF0CA9384675
:1025E000FFF703FD0746002629E004A850F826005F
:1025F000A0F10C04FDF700FE8346207A20F0800055
:102600009DF83810884203D05846FDF7F9FD15E0D3
:102610005846FDF7F5FD254605F1140002F0B8FA1D
:102620008246E87F0822296A2B46CDE9020ACDE9D5
:102630000021414619A002F02DFA00BF761C109827
:10264000B042D2DC002FC9D1002011B0BDE8F08F1C
:102650006D75746578000000252D2A2E73202020CA
:102660006F776E65722020686F6C6420737573706D
:10267000656E64207468726561640A00202D2D2DDA
:102680002D2D2D2D2D202D2D2D2D202D2D2D2D2D94
:102690002D2D2D2D2D2D2D2D2D0A0000252D2A2EF1
:1026A0002A7320252D382E2A7320253034642025C6
:1026B000640A00002DE9F04F8FB000270FF2CC091B
:1026C000082302AA02210AA8FFF77AFC4FF00808A3
:1026D0004A46414630A002F0DDF9404600F010FCC9
:1026E00034A002F0D7F900BF0AA93846FFF77DFCF5
:1026F0000746002541E002A850F82500A0F10C068D
:10270000FDF77AFD8346307A20F080009DF8301086
:10271000884203D05846FDF773FD2DE05846FDF77B
:102720006FFD344604F1140002F02AFAA8B904F14E
:10273000140002F02DFA8246A08B2346082241465F
:10274000CDE9000A21A002F0A5F904F1140004F07B
:10275000E1FF17A002F09EF90DE004F1140002F071
:1027600017FA8246A08B234608224146CDE9000A8B
:102770001AA002F08FF900BF6D1C0E98A842BADCB7
:10278000002FB1D100200FB0BDE8F08F73656D61EF
:1027900070686F7265000000252D2A2E7320762048
:1027A000202073757370656E64207468726561644F
:1027B0000A000000202D2D2D202D2D2D2D2D2D2D0D
:1027C0002D2D2D2D2D2D2D0A00000000252D2A2E1A
:1027D0002A7320253033642025643A00252D2A2EC3
:1027E0002A7320253033642025640A002DE9F04F38
:1027F000B1B04FF000090FF21C1B082323AA0121DE
:102800002BA8FFF7DDFB4FF0080A5A465146434814
:1028100002F040F9504600F073FB41A002F03AF993
:1028200000BF2BA94846FFF7E0FB81464FF00008A8
:1028300065E023A850F82800A0F10C05FDF7DCFCAA
:102840003090287A20F080009DF8B410884203D0A0
:102850003098FDF7D5FC50E08022294603A802F00D
:10286000DDF93098FDF7CCFC2C4694F83500234672
:102870000822514600903AA002F00CF994F8340076
:1028800000F00706012E03D138A002F003F915E08D
:10289000022E03D138A002F0FDF80FE01EB939A0D6
:1028A00002F0F8F80AE0042E03D139A002F0F2F8A1
:1028B00004E0032E02D139A002F0ECF8A76A00E090
:1028C0007F1C38782328FBD0D4E90A10791A401AE3
:1028D00064214843E16AB0FBF1F00290216BA06CE7
:1028E000CDE90001E369A06AC01AE36AC1181A467B
:1028F0002DA0029B02F0CEF800BF08F101082F982E
:10290000404596DCB9F1000F8BD1002031B0BDE815
:10291000F08F00007468726561640000A48600088E
:10292000202D2D2D20202D2D2D2D2D2D2D202D2D0B
:102930002D2D2D2D2D2D2D2D202D2D2D2D2D2D2DD4
:102940002D2D2D20202D2D2D2D2D2D20202D2D2DEB
:102950002D2D2D2D2D2D2D202D2D2D0A000000008B
:10296000252D2A2E2A7320253364200020726561CC
:1029700064792020000000002073757370656E6418
:102980000000000020696E69742020200000000013
:1029900020636C6F73652020000000002072756E4C
:1029A0006E696E670000000020307825303878208E
:1029B00030782530387820202020253032642525B5
:1029C00020202030782530387820253033640A00E4
:1029D0002DE9F04790B000270FF2C809082303AA99
:1029E0000A210BA8FFF7ECFA4FF008084A464146C7
:1029F0002EA002F04FF8404600F082FA38A002F014
:102A000049F800BF0BA93846FFF7EFFA0746002642
:102A100038E003A850F82600A0F10C05FDF7ECFB08
:102A20008246287A20F080009DF83410884203D036
:102A30005046FDF7E5FB24E05046FDF7E1FB2C4650
:102A4000D4E9090123460822CDE90001414630A01E
:102A500002F020F8607A00F0010018B132A002F014
:102A600019F802E034A002F015F8607A00F00200D4
:102A700018B135A002F00EF802E036A002F00AF814
:102A800000BF761C0F98B042C3DC002FBAD104F00F
:102A900055F80446214632A001F0FCFF002010B09A
:102AA000BDE8F08774696D6572000000252D2A2E3F
:102AB000732020706572696F6469632020207469D7
:102AC0006D656F7574202020206163746976617470
:102AD000656420202020206D6F64650A00000000DE
:102AE000202D2D2D2D2D2D2D2D2D2D202D2D2D2D30
:102AF0002D2D2D2D2D2D202D2D2D2D2D2D2D2D2D13
:102B00002D2D202D2D2D2D2D2D2D2D2D0A000000AC
:102B1000252D2A2E2A7320307825303878203078D9
:102B2000253038782000000061637469766174652F
:102B30006420202000000000646561637469766190
:102B40007465642000000000706572696F646963D9
:102B50000A0000006F6E652073686F740A00000041
:102B600063757272656E74207469636B3A30782590
:102B70003038780A0000000003E04FF4FA7003F0E8
:102B800057FEFAE710B5044600F010FDFFF7F4FF1A
:102B900010BD000010B51CA001F07CFF1F4801789B
:102BA0001FA001F077FF1D48007800F0010010B170
:102BB00021A001F06FFF1948007800F0020010B169
:102BC00020A001F067FF1548007800F0080010B160
:102BD0001FA001F05FFF1148007800F0100010B155
:102BE0001EA001F057FF0D48007800F0800030B1C2
:102BF0000A480C3001681CA001F04CFF02E01EA046
:102C000001F048FF10BD00006D656D206D616E61C3
:102C10006765206661756C743A0A000028ED00E073
:102C20005343425F434653525F4D4653523A3078C6
:102C300025303258200000004941434356494F4C4B
:102C4000200000004441434356494F4C20000000FF
:102C50004D554E53544B4552522000004D53544B4A
:102C600045525220000000005343422D3E4D4D413D
:102C7000523A253038580A000A0000002DE9F04782
:102C800081460026002799F8000028B9002108464F
:102C900000F08CF8BDE8F087164805681EE0D5F80E
:102CA00000804846FDF75AFB824652464146484658
:102CB000FDF771FB88B926B947463846FDF74EFB4C
:102CC00006464146384604F054FD0446B44200DA54
:102CD0002646414608A001F0DDFE0C350748006895
:102CE0008542DCD327B132463946484603F005FB1E
:102CF00000BFCFE74801002025730A004C010020E7
:102D000038B504460D4601E0641C6D1E2DB12078D7
:102D10002028F9D020780928F6D00DB9002038BD38
:102D20006A4629462046FDF7A9FC08B90098F6E74F
:102D3000204600E0401C0178202902D001780029BB
:102D4000F8D100210170214602A001F0A3FE4FF04E
:102D5000FF30E4E725733A20636F6D6D616E642088
:102D60006E6F7420666F756E642E0A002DE9F04157
:102D700006460D4600270B4804680BE02A463146FC
:102D80002068FDF708FB20B92068405D08B9A768F6
:102D900004E00C34044800688442EFD300BF384696
:102DA000BDE8F081480100204C01002070B50546C7
:102DB0000E460AA001F06EFE0F48046805E00FA061
:102DC000D4E9001201F066FE0C340F48006884421A
:102DD000F5D30EA001F05EFE002070BD52542D54BC
:102DE0006872656164207368656C6C20636F6D6DDB
:102DF000616E64733A0A000048010020252D3136C7
:102E000073202D2025730A004C0100200A000000C9
:102E10002DE9F04782460E4690465446002500278D
:102E200055E003E000202070641C6D1C20782028F1
:102E300002D02078092801D1B542F3D30A2F12D34A
:102E400026A001F027FE4FF0000906E058F82910EF
:102E50002AA001F01FFE09F10109B945F6D326A009
:102E600001F018FE35E0B54200D332E02078222888
:102E70001CD1641C6D1C48F827407F1C09E0207899
:102E80005C2804D16078222801D1641C6D1C641C6C
:102E90006D1C2078222801D0B542F0D3B54200D372
:102EA00017E000202070641C6D1C10E048F82740DB
:102EB0007F1C01E0641C6D1C2078202804D0207841
:102EC000092801D0B542F5D3B54200D301E0B5429F
:102ED000A7D300BF3846BDE8F0870000546F6F20CD
:102EE0006D616E7920617267732021205765206FB4
:102EF0006E6C79205573653A0A0000002573200036
:102F000010B5044602E004A001F0C4FD201EA4F1A7
:102F10000104F8D110BD00002D0000002DE9F04F94
:102F200086B00D469C46DDE9106401960F9B04F0C7
:102F30004008B8F1000F02D0DFF8708101E0DFF83F
:102F40007081CDF8008004F01008B8F1000F01D0B6
:102F500024F0010404F00108B8F1000F02D04FF092
:102F6000300801E04FF02008C246002704F00208B4
:102F7000B8F1000F11D0002A02DA2D2752420CE0DE
:102F800004F00408B8F1000F01D02B2705E004F08D
:102F90000808B8F1000F00D02027002142B94FF0F7
:102FA000300B8846491C0DF1080909F808B01DE0EE
:102FB0001AE0E146B9F10A0F08D14FF00A0BB2FB53
:102FC000FBFE0BFB1E28B2FBFBF202E002F00F0837
:102FD000120900BFDDF8009019F808B08846491CB6
:102FE0000DF1080909F808B0002AE2D1B14200DD6C
:102FF0000E469B1B04F01108B8F1000F10D117B159
:10300000002B00DD5B1E06E0A84203D24FF0200833
:1030100080F80080401CB3F10008A3F10103F3DC49
:1030200027B1A84200D207705B1E401C04F01008B4
:10303000B8F1000F0AD104E0A84201D280F800A044
:10304000401CB3F10008A3F10103F5DC06E0A8423F
:1030500003D24FF0300880F80080401CB046761E46
:103060008845F4DC08E0A84205D20DF1080818F8FC
:10307000018080F80080401CB1F10008A1F101013D
:1030800004DDDDF80480B8F1000FECD106E0A842C1
:1030900003D24FF0200880F80080401CB3F10008F4
:1030A000A3F10103F3DC06B0BDE8F08F4482000811
:1030B000338200082DE9F04F8CB0064600200A90BC
:1030C0003EA090E8004CC068CDE905BECDF810A048
:1030D00007900FF2EC0ADAE9000ACDE9020A0FF2D2
:1030E000E00ADAE9000ACDE9000A38480068C0F3CE
:1030F00081000B900B9820B1012804D0022828D120
:1031000003E0334927E0334925E03048001F0068D9
:1031100000F03F072D48001F0068C0F3881C2B48B3
:10312000001F0068C0F30140401C4FEA40092748D7
:10313000001F006800F48008B8F5800F01D1254B0E
:1031400000E0234BB3FBF7F000FB0CF0B0FBF9F110
:1031500001E01F4900BF00BF1C480068C0F3031412
:1031600004A8055D21FA05F218480068C0F382241E
:1031700002A8055D22FA05F0099014480068C0F322
:1031800042341DF8045022FA05F0089036B1012EA1
:1031900006D0022E06D0032E0AD106E00A9108E0DE
:1031A0000A9206E009980A9003E008980A9000E065
:1031B00000BF00BF0A980CB0BDE8F08F000000000F
:1031C0000000000001020304060708090838024055
:1031D0000024F40040787D01074A02EB9011D1F8F9
:1031E000001800F01F0301229A401143024B03EB29
:1031F0009012C2F800187047003002401CB514202D
:103200000A214FF400630022CDE90010074908A00D
:1032100003F066F9044624B9D522074907A000F057
:1032200015F8204603F0A4FB1CBD0000852B000808
:103230006D61696E000000004A7F000874696420B7
:10324000213D2052545F4E554C4C0000F8B50446C9
:103250000D461646002000900A48006858B93346CB
:103260002A46214608A001F015FC00BF9DF8000089
:103270000028FBD005E0324629462046014B1B685A
:103280009847F8BD480000202825732920617373F2
:10329000657274696F6E206661696C656420617423
:1032A0002066756E6374696F6E3A25732C206C69A5
:1032B0006E65206E756D6265723A2564200A0000A5
:1032C00070B504460D4604FB05F001F08FFC064680
:1032D0002EB104FB05F20021304601F00BFD304613
:1032E00070BD000070B5044624B97F22104911A0BA
:1032F000FFF7ACFF2068012800D170BDFCF77CFF10
:10330000064601202060201D01F012FC58B96068BB
:10331000A0F11405284603F095FA3046FCF770FF3B
:1033200002F04EF902E03046FCF76AFF00BFE4E726
:103330007A7C0008636F6D706C6574696F6E202114
:103340003D2052545F4E554C4C00000070B5044671
:1033500024B91B22084909A0FFF778FFFCF74CFFAE
:10336000054600202060201D4060006000BF284608
:10337000FCF746FF70BD0000547C0008636F6D7061
:103380006C6574696F6E20213D2052545F4E554C20
:103390004C0000002DE9F347054625B93A2245497E
:1033A00045A0FFF753FF00BF019800283AD0FCF773
:1033B00023FF804600F02CF940B13E4944A001F0C3
:1033C00069FB3D223B494DA0FFF740FF00BFFCF7E2
:1033D00013FF814603F084FA40B9364948A001F052
:1033E00059FB3D22334945A0FFF730FF00BFFCF7F2
:1033F00003FF824601F024FB40B12E494EA001F0AC
:1034000049FB3D222B493DA0FFF720FF5046FCF72A
:10341000F7FE00BF4846FCF7F3FE00BF4046FCF74E
:10342000EFFE00BF00BF002603F05AFA0446FCF787
:10343000E3FE07462868012832D0281D01F078FBFA
:1034400020B946221B4946A0FFF700FF019810B99A
:103450006FF0010627E000202063204603F0E6FA23
:10346000281D04F114014268116042684A604160FD
:10347000086000BF0198002809DD01AA002104F1BD
:103480004C0003F001FC04F14C0003F04FFD384602
:10349000FCF7B6FE02F094F8266BFCF7ADFE07468B
:1034A0000020286000BF3846FCF7AAFE3046BDE881
:1034B000FC870000677C0008636F6D706C65746941
:1034C0006F6E20213D2052545F4E554C4C00000041
:1034D00046756E6374696F6E5B25735D3A20736326
:1034E000686564756C6572206973206E6F74206105
:1034F0007661696C61626C650A0000003000000052
:1035000046756E6374696F6E5B25735D20736861C9
:103510006C6C206E6F742062652075736564206228
:1035200065666F7265207363686564756C6572208B
:1035300073746172740A000046756E6374696F6E0D
:103540005B25735D207368616C6C206E6F74206204
:1035500065207573656420696E204953520A000026
:1035600072745F6C6973745F6973656D70747928C8
:103570002628636F6D706C6574696F6E2D3E737570
:103580007370656E6465645F6C69737429290000EB
:1035900010B5044C02E020688047241D0248844294
:1035A000F9D310BD588A0008608A000810B5044C91
:1035B00002E020688047241D02488442F9D310BDF0
:1035C000608A00086C8A00080148006870470000A3
:1035D0003C00002070B506460C480568304600F0F7
:1035E000FFFC0446AC4201D1002070BD64B1074825
:1035F000006818B10548006800F09CFC4321204693
:1036000000F0F6FC014804602846EEE73C0000208C
:103610000148008880B270471401002070B504464C
:103620002CB94FF4DF720F490FA0FFF70FFE1349BB
:103630002068884205D040F2BF120A4910A0FFF767
:1036400005FE204600F0DCFBFCF7D6FD0546002019
:1036500020602846FCF7D4FDE06800F035FF00202C
:1036600070BD0000EC7C0008717565756520213D1A
:103670002052545F4E554C4C000000000E0EADBE63
:1036800071756575652D3E6D61676963203D3D20EF
:103690004441544151554555455F4D4147494300CB
:1036A0002DE9F04104460D4616461F4624B92F2247
:1036B0001A491BA0FFF7CAFD002D04DC3022174970
:1036C0001CA0FFF7C3FD27621D482060A580E6808F
:1036D00020896FF30E00208160896FF30E006081F6
:1036E000208920F4004000F500402081608920F40A
:1036F0000040608104F1100001F0F2F904F11800BB
:1037000001F0EEF9E80001F071FAE060E06818B944
:103710006FF00400BDE8F0810020FBE78D7C00081D
:10372000717565756520213D2052545F4E554C4C96
:103730000000000073697A65203E20300000000020
:103740000E0EADBE70B504462CB94FF4ED721B4998
:103750001BA0FFF77BFD1F492068884205D040F27F
:10376000DB1216491CA0FFF771FD2089C00B08B1C0
:10377000002070BDFCF740FD06466089C0F30E00D6
:103780002189C1F30E01884208DD6089C0F30E0073
:103790002189C1F30E01401A05B209E0A0886189B0
:1037A000C1F30E0108442189C1F30E01401A05B28C
:1037B0003046FCF725FDA8B2DBE70000017D0008DC
:1037C000717565756520213D2052545F4E554C4CF6
:1037D000000000000E0EADBE71756575652D3E6D65
:1037E00061676963203D3D20444154415155455531
:1037F000455F4D41474943002DE9F04104460D46E0
:1038000016462CB940F24F12154916A0FFF71EFDBF
:1038100019492068884205D04FF4A872104917A0B2
:10382000FFF714FD2089C00B18B16FF00300BDE84D
:10383000F081FCF7E1FC07462189C1F30E01E06845
:1038400050F8310028602189C1F30E01E06800EBD7
:10385000C100406830603846FCF7D2FC0020E6E743
:10386000C57C0008717565756520213D2052545F47
:103870004E554C4C000000000E0EADBE71756575C6
:10388000652D3E6D61676963203D3D204441544193
:1038900051554555455F4D41474943002DE9FF4F7F
:1038A00081B004460F46904624B9D722784979A0C2
:1038B000FFF7CCFC7C492068884204D0D8227449A8
:1038C0007AA0FFF7C3FC27B9D92271497FA0FFF77F
:1038D000BDFCB8F1000F04D1DA226D4980A0FFF7DA
:1038E000B5FC00BF049800283AD0FCF785FC009096
:1038F000FFF78EFE40B166497DA001F0CBF8DD22D6
:10390000634986A0FFF7A2FC00BFFCF775FC824666
:1039100002F0E6FF40B95E4981A001F0BBF8DD226C
:103920005B497EA0FFF792FC00BFFCF765FC834675
:1039300001F086F840B1564987A001F0ABF8DD22CE
:10394000534976A0FFF782FC5846FCF759FC00BFAC
:103950005046FCF755FC00BF0098FCF751FC00BF37
:1039600000BF002602F0BCFF0546FCF745FC81467F
:1039700027E0049810B96FF001067DE0002028636D
:10398000284603F053F805F1140104F1180001F082
:10399000C1F80498002809DD04AA002105F14C00B3
:1039A00003F072F905F14C0003F0C0FA4846FCF749
:1039B00027FC01F005FE2E6BFCF71EFC814606B1CC
:1039C0005AE02089C00B0028D3D12189C1F30E0110
:1039D000E06850F8310038602189C1F30E01E068D9
:1039E00000EBC1004068C8F800002089401C218914
:1039F00060F30E0121812089C0F30E00A188884266
:103A000003D120896FF30E002081608920F40040EB
:103A100060816089C0F30E002189C1F30E018842E4
:103A200005D1208920F4004000F500402081204687
:103A3000FFF788FEE18888421DDC04F1100001F0E8
:103A40007FF858B92069A0F11405284602F0FAFE63
:103A50004846FCF7D5FB01F0B3FD02E04846FCF711
:103A6000CFFB206A18B103212046226A90473046D6
:103A700005B0BDE8F08F00BF4846FCF7C1FB2EB98A
:103A8000206A18B101212046226A90473046EFE7AC
:103A9000B37C0008717565756520213D2052545F27
:103AA0004E554C4C000000000E0EADBE7175657594
:103AB000652D3E6D61676963203D3D204441544161
:103AC00051554555455F4D41474943006461746117
:103AD0005F70747220213D2052545F4E554C4C0053
:103AE00073697A6520213D2052545F4E554C4C003D
:103AF00046756E6374696F6E5B25735D3A20736300
:103B0000686564756C6572206973206E6F742061DE
:103B10007661696C61626C650A000000300000002B
:103B200046756E6374696F6E5B25735D20736861A3
:103B30006C6C206E6F742062652075736564206202
:103B400065666F7265207363686564756C65722065
:103B500073746172740A000046756E6374696F6EE7
:103B60005B25735D207368616C6C206E6F742062DE
:103B700065207573656420696E204953520A000000
:103B80002DE9FF4F81B004460F46904624B96222CA
:103B9000684969A0FFF75AFB6C492068884204D045
:103BA000632264496AA0FFF751FB00BF0498002814
:103BB0003AD0FCF721FB0090FFF72AFD40B15D49A8
:103BC0006BA000F067FF66225A4974A0FFF73EFB26
:103BD00000BFFCF711FB824602F082FE40B9554956
:103BE0006FA000F057FF662252496CA0FFF72EFB32
:103BF00000BFFCF701FB834600F022FF40B14D49B6
:103C000075A000F047FF66224A4964A0FFF71EFB3B
:103C10005846FCF7F5FA00BF5046FCF7F1FA00BF32
:103C20000098FCF7EDFA00BF00BF002602F058FE36
:103C30000546FCF7E1FA814627E0049810B96FF0D9
:103C400001066BE000202863284602F0EFFE05F134
:103C5000140104F1100000F05DFF0498002809DD54
:103C600004AA002105F14C0003F00EF805F14C0008
:103C700003F05CF94846FCF7C3FA01F0A1FC2E6B97
:103C8000FCF7BAFA814606B148E06089C00B00280B
:103C9000D3D16189C1F30E01E06840F831706189C8
:103CA000C1F30E01E06800EBC100C0F80480608938
:103CB000401C618960F30E0161816089C0F30E00D0
:103CC000A188884203D160896FF30E00608120894A
:103CD00020F4004020816089C0F30E002189C1F3E7
:103CE0000E01884205D1608920F4004000F50040B3
:103CF000608104F1180000F023FF70B9A069A0F101
:103D00001405284602F09EFD4846FCF779FA01F0BA
:103D100057FC304605B0BDE8F08F00BF4846FCF7C1
:103D20006FFA2EB9206A18B102212046226A904704
:103D30003046EFE7A07C0008717565756520213D70
:103D40002052545F4E554C4C000000000E0EADBE8C
:103D500071756575652D3E6D61676963203D3D2018
:103D60004441544151554555455F4D4147494300F4
:103D700046756E6374696F6E5B25735D3A2073637D
:103D8000686564756C6572206973206E6F7420615C
:103D90007661696C61626C650A00000030000000A9
:103DA00046756E6374696F6E5B25735D2073686121
:103DB0006C6C206E6F742062652075736564206280
:103DC00065666F7265207363686564756C657220E3
:103DD00073746172740A000046756E6374696F6E65
:103DE0005B25735D207368616C6C206E6F7420625C
:103DF00065207573656420696E204953520A00007E
:103E000070B504462CB940F26F122C492CA0FFF774
:103E10001DFA30492068884205D04FF4B87227490E
:103E20002DA0FFF713FAFCF7E7F9064620896FF398
:103E30000E00208160896FF30E006081208920F4DC
:103E4000004000F500402081608920F4004060813E
:103E50003046FCF7D5F900F005FB0EE0FCF7CCF995
:103E60000646A069A0F114054FF0FF3028632846EC
:103E700002F0E8FC3046FCF7C3F904F1180000F04A
:103E80005FFE0028EAD00EE0FCF7B6F9064620698E
:103E9000A0F114054FF0FF302863284602F0D2FC51
:103EA0003046FCF7ADF904F1100000F049FE00289F
:103EB000EAD000F0E7FA01F083FB70BDD87C00087F
:103EC000717565756520213D2052545F4E554C4CEF
:103ED000000000000E0EADBE71756575652D3E6D5E
:103EE00061676963203D3D2044415441515545552A
:103EF000455F4D414749430070B518E002F018FB9B
:103F0000044604B914E0A56F0DB12046A847204629
:103F100001F038FB012803D1204601F023FA05E027
:103F2000A06A00F0D1FA204601F0CCF900BFE5E725
:103F300000BF70BD70B5044600252CB94FF48972DE
:103F4000134914A0FFF782F9204601F0A3FA0928CB
:103F500005D040F213120E4912A0FFF777F9A07EA8
:103F600010B94FF0FF3070BDA07E401EA076A07E3D
:103F700008B10020F7E7E06A18B12046E16A8847F7
:103F800005460DB1A81D08B9002020832846EAE7A0
:103F9000A37F000864657620213D2052545F4E5572
:103FA0004C4C000072745F6F626A6563745F676592
:103FB000745F7479706528266465762D3E70617231
:103FC000656E7429203D3D2052545F4F626A6563DF
:103FD000745F436C6173735F446576696365000069
:103FE00010B504460921204601F0EAF910BD000091
:103FF00070B504460E46002524B9D022254926A0D6
:10400000FFF724F9204601F045FA092804D0D1220F
:10401000204925A0FFF71AF9A07D00F0100070B923
:10402000606A40B12046616A884705461DB100BFFD
:1040300000BF284670BDE08A40F01000E082A07DFD
:1040400000F0080030B1207E00F0080010B16FF0E1
:104050000600EFE7A06A28B131462046A26A9047E1
:10406000054603E040F60F70304020830DB1A81DD7
:1040700068B9208B40F008002083A07E401CA07609
:10408000A07E20B9FF22034916A0FFF7DFF82846DB
:10409000D0E70000947F000864657620213D20521F
:1040A000545F4E554C4C000072745F6F626A6563DA
:1040B000745F6765745F7479706528266465762D12
:1040C0003E706172656E7429203D3D2052545F4FF1
:1040D000626A6563745F436C6173735F446576699C
:1040E000636500006465762D3E7265665F636F757B
:1040F0006E7420213D2030002DE9F04104460D462C
:1041000016461F462CB94FF4A072144914A0FFF7AD
:104110009DF8204601F0BEF9092805D040F2411271
:104120000E4913A0FFF792F8A07E30B94FF0FF3090
:1041300002F048F80020BDE8F081206B38B13B4622
:10414000324629462046D4F830C0E047F3E76FF006
:10415000050002F037F80020EDE70000B37F00080B
:1041600064657620213D2052545F4E554C4C000032
:1041700072745F6F626A6563745F6765745F747998
:10418000706528266465762D3E706172656E7429AF
:10419000203D3D2052545F4F626A6563745F436CFB
:1041A0006173735F446576696365000070B50446AA
:1041B0000D46164614B94FF0FF3070BD2846FFF784
:1041C0000FFF10B14FF0FF30F7E72A4609212046D4
:1041D00001F07AF9E6820020A076208300BFECE7A8
:1041E00070B504460D462CB940F2AB12084909A03F
:1041F000FFF72CF8204601F04DF9092805D04FF4BF
:10420000D672034907A0FFF721F8E561002070BDD1
:10421000E47F000864657620213D2052545F4E55AE
:104220004C4C000072745F6F626A6563745F67650F
:10423000745F7479706528266465762D3E706172AE
:10424000656E7429203D3D2052545F4F626A65635C
:10425000745F436C6173735F4465766963650000E6
:104260002DE9F04104460D4616461F462CB940F292
:104270006B12144914A0FEF7E9FF204601F00AF979
:10428000092805D04FF4B6720E4913A0FEF7DEFFE1
:10429000A07E30B94FF0FF3001F094FF0020BDE860
:1042A000F081606B38B13B46324629462046D4F84F
:1042B00034C0E047F3E76FF0050001F083FF002012
:1042C000EDE70000C27F000864657620213D2052A2
:1042D000545F4E554C4C000072745F6F626A6563A8
:1042E000745F6765745F7479706528266465762DE0
:1042F0003E706172656E7429203D3D2052545F4FBF
:10430000626A6563745F436C6173735F4465766969
:104310006365000010B504462046FCF78FFB10BD16
:1043200070B506460D46F46C2CB940F29F12134945
:1043300013A0FEF78BFF3046FFF7ECFFA84205D233
:104340004FF4D0720D4913A0FEF780FFA06810B1A2
:104350000DB10020A060E0882844E080E188B06CC6
:10436000C0F38F20814208DBE188B06CC0F38F205E
:1043700091FBF0F200FB1210E08070BD7B7E000824
:1043800072785F6669666F20213D2052545F4E55FA
:104390004C4C00006C656E203C3D2072745F646D77
:1043A000615F63616C635F7265637665645F6C65B2
:1043B0006E2873657269616C2900000070B505464E
:1043C0000E46EC6C2CB940F2B512204920A0FEF745
:1043D0003DFFE088A188884218DCA0883044A08096
:1043E000A188A86CC0F38F20814227DBA188A86C2C
:1043F000C0F38F2091FBF0F200FB1210A080A08888
:10440000E18888421ADB0120A06017E0A0883044D0
:10441000A080A088E188884210DBA188A86CC0F346
:104420008F20814208DBA188A86CC0F38F2091FB0C
:10443000F0F200FB1210A0800120A060A06801280B
:1044400003D1FCF7DFF9A088E08070BD987E0008FA
:1044500072785F6669666F20213D2052545F4E5529
:104460004C4C000010B5FBF7C7FE0446044800881A
:10447000401C00B2024908802046FBF7C1FE10BD77
:104480001401002010B5FBF7B7FE04460C48008865
:10449000401E00B20A4908800846B0F90000002812
:1044A0000ADC002008802046FBF7AAFE05480068C9
:1044B00028B101F085F802E02046FBF7A1FE10BD0F
:1044C000140100201801002070B5044600BF074801
:1044D000006818B1204605490968884700BFFCF705
:1044E0004FF805462846FCF759F870BD44000020F7
:1044F00010B54FF0006007490860FBF7C5FFFFF7F4
:1045000047F805A0FFF766F80549064801F010FFD7
:1045100010BD000008ED00E075617274300000000D
:104520000000022068090020704700002DE9F041DA
:10453000054605F128062C1D3348006840B1304679
:1045400031490968884707460FB9BDE8F08100BFC7
:104550002EA0216C00F09EFA30A0616A00F09AFA59
:1045600032A0A16A00F096FA34A0E16A00F092FA53
:1045700036A0216B00F08EFA38A0616800F08AFA4C
:104580003AA0A16800F086FA3CA0E16800F082FA47
:104590003EA0216900F07EFA40A0616900F07AFA3D
:1045A00042A0A16900F076FA44A0E16900F072FA35
:1045B00046A0216A00F06EFA48A0616B00F06AFA2A
:1045C0004AA0A16B00F066FA4CA0E16B00F062FA21
:1045D000287800F0040048B102F082F90746394615
:1045E0004AA000F057FAFEF701F902E04FA000F0F0
:1045F00051FA287800F0100010B953A000F04AFAE0
:10460000FDF770FB00BFFEE70C0000207073723AEC
:10461000203078253038780A000000007230303AB7
:10462000203078253038780A000000007230313AA6
:10463000203078253038780A000000007230323A95
:10464000203078253038780A000000007230333A84
:10465000203078253038780A000000007230343A73
:10466000203078253038780A000000007230353A62
:10467000203078253038780A000000007230363A51
:10468000203078253038780A000000007230373A40
:10469000203078253038780A000000007230383A2F
:1046A000203078253038780A000000007230393A1E
:1046B000203078253038780A000000007231303A16
:1046C000203078253038780A000000007231313A05
:1046D000203078253038780A000000007231323AF4
:1046E000203078253038780A00000000206C723ABB
:1046F000203078253038780A000000002070633AB6
:10470000203078253038780A000000006861726433
:10471000206661756C74206F6E20746872656164C8
:104720003A2025730D0A0D0A0000000068617264CA
:10473000206661756C74206F6E2068616E646C65B4
:10474000720D0A0D0A00000046505520616374691D
:104750007665210D0A0000002DE9FE4305460E4650
:10476000F0B2012806D0022861D003287BD00428AB
:104770005CD161E04FF0FF37EC6C2CB94FF4A262D2
:10478000584959A0FEF762FD2EE0286CC168284602
:1047900088470746781C00B927E0FBF72DFD8146C6
:1047A000A28821688F54A088401CA080A188A86C92
:1047B000C0F38F20814201DB0020A080A088E18827
:1047C00088420ED1E088401CE0800120A060E18892
:1047D000A86CC0F38F20814201DB0020E080FCF751
:1047E00011F84846FBF70CFDCFE700BFE869E8B1D8
:1047F000FBF702FD8146A088E188884203DBA088A0
:10480000E188401A06E0E088A188411AA86CC0F34C
:104810008F20401A80464846FBF7F2FCB8F1000FA3
:1048200003D041462846EA69904700BF56E02C6D08
:104830002046FEF757FD51E02C6D002301AA694682
:10484000201DFFF72BF801AA02A9201DFEF7D4FFB7
:1048500050B901202060286C022307692846DDE951
:104860000121B84702E008E000202060286A18B162
:104870002A6A28460099904730E03712A86CC0F3A6
:104880008F20B0B9EC6C2CB940F2715215491BA0C5
:10489000FEF7DCFCE86928B940F2735211491CA00C
:1048A000FEF7D4FC39462846EA699047002020608C
:1048B00013E0FBF7A1FC804639462846FFF77EFD52
:1048C0002846FFF727FD07464046FBF799FCE869B5
:1048D00018B139462846EA69904700BF00BFBDE8D5
:1048E000FE830000397F000872785F6669666F207A
:1048F000213D2052545F4E554C4C000072785F644D
:104900006D6120213D2052545F4E554C4C000000FB
:1049100073657269616C2D3E706172656E742E7282
:10492000785F696E64696361746520213D2052542B
:104930005F4E554C4C0000002DE9F0470446884678
:1049400016461F462CB940F2E4420F490FA0FEF76D
:104950007DFC254600202875E861286210486862C1
:104960001048A8621048E86210482863104868633D
:104970001048A863EF63B2B241462846FFF716FC21
:1049800081464846BDE8F087237F00087365726959
:10499000616C20213D2052545F4E554C4C0000006C
:1049A000F95D0008415E0008A95B0008ED600008A1
:1049B00059610008555D0008F0B504460D461646DD
:1049C000301D20F0070044380146002203E00D4F5F
:1049D00041F82270521C112AF9D34D624FF0000C9D
:1049E000C1F828C0C1F82CC0C1F830C0C1F834C02B
:1049F0008B63CC634FF0807CC1F840C000270F6010
:104A0000F0BD0000EFBEADDE10B5FBF7F5FB0446D0
:104A100009480078401C0849087000BF0748006832
:104A200010B106480068804700BF2046FBF7E8FB4E
:104A300000BF00BF10BD0000340000202C0000208B
:104A400070B5FBF7D9FB0546034804782846FBF709
:104A5000D7FB204670BD00003400002010B500BF19
:104A600000BFFBF7C9FB044600BF0848006810B14F
:104A700006480068804700BF05480078401E04498A
:104A800008702046FBF7BCFB10BD00003000002082
:104A9000340000200FB438B505A800907F210E48DF
:104AA000009B049A02F066FB04467F2C00D97F2409
:104AB0000A48006818B90848FFF736FD06E02346A3
:104AC000054A002105480068FFF7CAFB0020009056
:104AD000204638BC5DF814FB600300203C00002039
:104AE0004060006070474060006070474060006058
:104AF00070474060006070470268516002680A6059
:104B00000160486070470268516002680A60016095
:104B1000486070474268116042684A6041600860BE
:104B200070474268116042684A604160086070479F
:104B300001460868884201D1012070470020FCE747
:104B400001460868884201D1012070470020FCE737
:104B500001460868884201D1012070470020FCE727
:104B600001460868884201D1012070470020FCE717
:104B700001460868884201D1012070470020FCE707
:104B800001460868884201D1012070470020FCE7F7
:104B9000014600200A4601E01268401C13688B425F
:104BA000FAD17047D0E900215160D0E900121160BC
:104BB000406000607047D0E900215160D0E90012E8
:104BC0001160406000607047D0E900215160D0E979
:104BD00000121160406000607047D0E90021516010
:104BE000D0E90012116040600060704770B5044663
:104BF000FBF7C6FC064600253046FBF7CFFC00BF9E
:104C00000548006820B121462846034A12689047AB
:104C100000BF284670BD0000400000202DE9F04193
:104C20000F46164604463D463346102B28D305F062
:104C3000030C04F003084CEA080CBCF1000F1FD170
:104C400021462A4610E052F804CB41F804CB52F832
:104C500004CB41F804CB52F804CB41F804CB52F812
:104C600004CB41F804CB103B102BECD204E052F8FB
:104C700004CB41F804CB1B1F042BF8D20C4615467D
:104C800003E015F801CB04F801CBB3F1000CA3F15C
:104C90000103F6D1BDE8F08170B50C46014623460C
:104CA0008B4210D29D188D420DD91144134405E05A
:104CB0005D1E2B462E784D1E29462E70151EA2F124
:104CC0000102F5D108E003E013F8015B01F8015B94
:104CD000151EA2F10102F7D170BD2DE9F041054684
:104CE0000E461746FBF74CFC04462046FBF756FCE5
:104CF000BDE8F081F0B50C460546E6B2042A15D3AE
:104D000000F0030797B9014646EA062343EA034346
:104D100004E008C108C108C108C1103A102AF8D23D
:104D200001E008C1121F042AFBD20D4601E005F87C
:104D3000016B171EA2F10102F9D1F0BD70B5044656
:104D40000D4616462CB940F2E6220C490CA0FEF79F
:104D50007DFA2A460321204600F0B6FB2046FBF7E9
:104D600085FC0120A08300202062FF20A077002086
:104D7000E07701206072002070BD00008A8000088A
:104D80006D7574657820213D2052545F4E554C4C12
:104D9000000000002DE9F04704462CB940F24442DF
:104DA000534954A0FEF752FA204600F073FB032843
:104DB00005D040F245424E495348FEF747FA0026D7
:104DC00000BFFBF719FA804601F08AFD48B948494F
:104DD0004EA0FFF75FFE40F24A42454959A0FEF758
:104DE00035FA00BFFBF708FA8146FFF729FE48B104
:104DF0003F4955A0FFF74EFE40F24A423C4951A0C0
:104E0000FEF724FA4846FBF7FBF900BF4046FBF7E4
:104E1000F7F900BF01F064FD0546FBF7EDF9074621
:104E200000BF00BF00BF5248006818B1204650497B
:104E30000968884700BF206AA84209D04FF0FF30B8
:104E400028633846FBF7DCF94FF0FF30BDE8F08708
:104E5000E07F401EE077E07F00283FD1A07F216AFD
:104E600091F83510884205D004F11E020221206A13
:104E700001F0CCFA04F11400FFF772FED8B96069B2
:104E8000A0F1140500BF00BF256295F83500A0779A
:104E9000E07FFF2803DAE07F401CE07705E038463A
:104EA000FBF7AEF96FF00200D0E704F11400FBF756
:104EB00091FB012612E0A08B4FF6FF71884203DAC6
:104EC000A08B401CA08305E03846FBF799F96FF0F2
:104ED0000200BBE700202062FF20A0773846FBF7E6
:104EE0008FF9012E01D100F06BFB0020AEE700002E
:104EF000D68000086D7574657820213D2052545F7E
:104F00004E554C4C000000001C86000846756E6330
:104F100074696F6E5B25735D207368616C6C206EC5
:104F20006F742062652075736564206265666F72B8
:104F300065207363686564756C6572207374617253
:104F4000740A00003000000046756E6374696F6E6D
:104F50005B25735D207368616C6C206E6F742062DA
:104F600065207573656420696E204953520A0000FC
:104F70000C0100202DE9F347044600BFFBF73CF984
:104F80000746FEF745FB48B1664967A0FFF782FD7B
:104F90004FF4657263496FA0FEF758F900BFFBF745
:104FA0002BF9804601F09CFC48B95E496AA0FFF7E6
:104FB00071FD4FF465725B4966A0FEF747F900BFCB
:104FC000FBF71AF98146FFF73BFD48B1554970A040
:104FD000FFF760FD4FF4657252495EA0FEF736F9A7
:104FE0004846FBF70DF900BF4046FBF709F900BF43
:104FF0003846FBF705F900BF2CB940F29732494912
:105000006DA0FEF723F9204600F044FA032805D0EE
:105010004FF4667243496D48FEF718F901F060FCE1
:105020000546FBF7E9F8064600BF6948006818B175
:10503000204667490968884700BF00BF00BF0020BD
:105040002863206AA8420DD1E07FFF2803DAE07FC1
:10505000401CE07758E03046FBF7D2F86FF00200D2
:10506000BDE8FC87A08B002813DDA08B401EA08329
:10507000256295F83500A077E07FFF2803DAE07F0E
:10508000401CE07740E03046FBF7BAF86FF00200D2
:10509000E6E7019840B96FF0010028633046FBF75E
:1050A000AFF86FF00100DBE700BF00BF95F83500F7
:1050B000216A91F83510884205DA05F1350202219E
:1050C000206A01F0A3F9627A294604F11400FBF783
:1050D0008DFA019800280BDD00BF00BF01AA002156
:1050E00005F14C0001F0D0FD05F14C0001F01EFF70
:1050F0003046FBF785F800F063FA286B08B1286B9F
:10510000AEE7FBF779F806463046FBF779F800BFC3
:105110003048006818B120462E490968884700BF0A
:1051200000209DE7C880000846756E6374696F6E45
:105130005B25735D3A207363686564756C657220E6
:105140006973206E6F7420617661696C61626C6551
:105150000A0000003000000046756E6374696F6ECF
:105160005B25735D207368616C6C206E6F742062C8
:10517000652075736564206265666F726520736370
:10518000686564756C65722073746172740A0000DE
:1051900046756E6374696F6E5B25735D207368611D
:1051A0006C6C206E6F742062652075736564206975
:1051B0006E204953520A00006D7574657820213DB8
:1051C0002052545F4E554C4C000000001C860008D5
:1051D00004010020080100202DE9F04706460F4693
:1051E00000BFFBF709F88146FFF72AFC48B12249C6
:1051F00022A0FFF74FFC40F2B7121F4929A0FEF78B
:1052000025F84846FAF7FCFF00BF304600F02EF9BB
:1052100005462DB940F2BB12174923A0FEF716F838
:10522000E868FFF7E3FC044614B90020BDE8F08706
:1052300000212046EA68FFF75DFD267200206072BB
:1052400008223946204601F058F800BF1C48006883
:1052500018B120461A490968884700BFFAF7CCFF01
:10526000804604F10C01281DFFF746FC4046FAF782
:10527000C7FF2046DAE700009682000846756E6395
:1052800074696F6E5B25735D207368616C6C206E52
:105290006F74206265207573656420696E204953C0
:1052A000520A000030000000696E666F726D617412
:1052B000696F6E20213D2052545F4E554C4C0000CA
:1052C000FC00002070B504462CB940F2F5121349D9
:1052D00013A0FDF7BBFF207A00F0800028B14FF447
:1052E000FB720E4913A0FDF7B1FF00BF1C48006818
:1052F00018B120461A490968884700BF002020726B
:10530000FAF77AFF054604F10C00FFF754FC284633
:10531000FAF776FF2046FFF7D7F870BDA98200089C
:105320006F626A65637420213D2052545F4E554C74
:105330004C00000021286F626A6563742D3E747909
:10534000706520262052545F4F626A6563745F4324
:105350006C6173735F5374617469632900000000AA
:105360000001002070B504462CB940F293120D499B
:105370000DA0FDF76BFF00BF1048006818B1204674
:105380000E490968884700BF00202072FAF734FFF1
:10539000054604F10C00FFF70EFC2846FAF730FF33
:1053A00070BD0000858200086F626A656374202109
:1053B0003D2052545F4E554C4C000000000100202F
:1053C0002DE9F04704460F464FF00008002500265F
:1053D000384600F04BF8064604B116B90020BDE887
:1053E000F08700BFFAF708FF8146FFF729FB48B1B5
:1053F000124913A0FFF74EFB40F249220F491AA0B1
:10540000FDF724FF4846FAF7FBFE00BFFFF72AF836
:1054100075680CE0A5F10C0808222146404600F012
:1054200058FF18B9FFF72EF84046D8E72D68301D11
:105430008542EFD1FFF726F80020D0E7E782000889
:1054400046756E6374696F6E5B25735D207368616A
:105450006C6C206E6F7420626520757365642069C2
:105460006E204953520A000030000000024600211D
:105470000AE0074800EB01100078904203D104488D
:1054800000EB01107047491C0B29F2DB0020F9E703
:105490004C00002010B504462CB940F22B220449E0
:1054A00004A0FDF7D3FE207A20F0800010BD00009C
:1054B000D48200086F626A65637420213D205254D3
:1054C0005F4E554C4C0000002DE9F04704460E4657
:1054D000904600273046FFF7C9FF05462DB94FF427
:1054E000AB721C491CA0FDF7B1FEFEF7BBFF6F6855
:1054F0000DE0A7F10C09B9F1000F07D0A14505D1C6
:105500004FF4B37213491AA0FDF7A0FE3F68281D9F
:105510008742EED1FEF7B6FF46F0800020720822E7
:105520004146204600F0E9FE00BF1548006818B16A
:10553000204613490968884700BFFAF75DFE824696
:1055400004F10C01281DFFF7D7FA5046FAF758FE70
:10555000BDE8F08776820008696E666F726D6174CF
:10556000696F6E20213D2052545F4E554C4C000017
:105570006F626A20213D206F626A656374000000DB
:10558000FC00002010B504462CB94FF40672064901
:1055900006A0FDF75BFE207A00F0800008B1012034
:1055A00010BD0020FCE70000BA8200086F626A6547
:1055B000637420213D2052545F4E554C4C00000036
:1055C000F8B5FAF719FE06464D480088002874D150
:1055D0004C480068002871D000276846FBF7FEF8A9
:1055E00004464948006890F8340000F0070003289A
:1055F00025D14548006890F835000099884202D2CC
:105600004148046811E04048006890F8350000996E
:10561000884209D13C48006890F8340000F0080046
:1056200010B93948046800E001273748006890F84D
:10563000340020F008003449096881F83400324809
:105640000068844244D03149009808702E480568AB
:10565000046000BF2E48006820B1214628462C4A2D
:105660001268904700BF17B1284600F057F820464F
:1056700000F0A2F894F8340020F0070040F0030096
:1056800084F8340000BF00BF2046FBF745F82148EE
:105690000078A0B900BF2048006818B128461E490C
:1056A0000968884700BF04F11C0105F11C00FAF7E6
:1056B000AAFD3046FAF7A4FD20E01BE019E000BF88
:1056C00000BF04F11C0105F11C00FAF79CFD0FE07E
:1056D0000D48006800F070F80B48006890F834003E
:1056E00020F0070040F003000749096881F8340002
:1056F00000BF00BF3046FAF783FD00BFF8BD0000D1
:105700001401002010010020180100201C010020BD
:1057100020010020340000202401002070B5044640
:105720002CB940F2D2221B491BA0FDF78FFDFAF7DE
:1057300063FD05461D480068844208D194F8340092
:1057400020F0070040F0030084F834001DE014F856
:10575000340F20F0070040F0010020706278343CE4
:10576000134B03EBC20004F114014268116042685C
:105770004A604160086000BF00BF00BF0D49A06BD8
:10578000096808430B49086000BF2846FAF738FD4E
:1057900070BD000010830008746872656164202188
:1057A0003D2052545F4E554C4C0000001801002023
:1057B000E00300201001002070B504462CB940F22F
:1057C0003332154915A0FDF741FDFAF715FD0546E1
:1057D00000BF00BF04F11400D0E900215160D0E9FE
:1057E000001211604060006000BF94F83510104A4C
:1057F00002EBC1000168814201D1012100E00021DA
:1058000029B10C48A16B006888430A490860284602
:10581000FAF7F6FC70BD00002A8300087468726510
:10582000616420213D2052545F4E554C4C000000D5
:10583000E0030020100100202DE9F04104460F464E
:1058400016461D462CB94FF49672114911A0FDF76A
:10585000FDFCB6F5803F05D340F22D120C4911A096
:10586000FDF7F4FC3DB1012D05D04FF497720849C6
:1058700011A0FDF7EBFC3A4602212046FFF724FE7B
:105880002046FAF7F3FEA68365720020BDE8F0819A
:105890002A80000873656D20213D2052545F4E55CB
:1058A0004C4C000076616C7565203C2030783130BE
:1058B000303030550000000028666C6167203D3DA7
:1058C0002052545F4950435F464C41475F4649462A
:1058D0004F29207C7C2028666C6167203D3D20524A
:1058E000545F4950435F464C41475F5052494F29EE
:1058F0000000000070B504462CB940F25F22204938
:1059000020A0FDF7A3FC2046FFF7C4FD022805D028
:105910004FF418721A491F48FDF798FC00BF1E4843
:10592000006818B120461C490968884700BF002557
:10593000FAF762FC064600BF00BF04F11400FFF74F
:105940000FF928B904F11400FAF744FE01250EE01E
:10595000A08B4FF6FF71884203DAA08B401CA08316
:1059600005E03046FAF74CFC6FF0020070BD30469F
:10597000FAF746FC012D01D1FFF722FE0020F5E7E2
:105980006C80000873656D20213D2052545F4E5598
:105990004C4C0000D48500080C0100202DE9F34791
:1059A00005462DB940F2E5124F4950A0FDF74EFCD7
:1059B0002846FFF76FFD022805D04FF4F3724A49DD
:1059C0004E48FDF743FC00BF4D48006818B128461B
:1059D0004B490968884700BFFAF70EFC064600BF2E
:1059E00000BFA88B002806DDA88B401EA883304688
:1059F000FAF706FC6CE0019830B93046FAF700FC83
:105A00006FF00100BDE8FC8700BFFAF7F5FB074621
:105A1000FDF7FEFD48B134493AA0FFF73BF840F2EC
:105A20000622314942A0FDF711FC00BFFAF7E4FB62
:105A3000804600F055FF48B92B493EA0FFF72AF8F1
:105A400040F2062228493AA0FDF700FC00BFFAF711
:105A5000D3FB8146FEF7F4FF48B1234943A0FFF78B
:105A600019F840F20622204931A0FDF7EFFB484625
:105A7000FAF7C6FB00BF4046FAF7C2FB00BF384644
:105A8000FAF7BEFB00BF00F02BFF044600202063A6
:105A900000BF00BF6A7A214605F11400FAF7A6FD9F
:105AA000019800280BDD00BF00BF01AA002104F10E
:105AB0004C0001F0E9F804F14C0001F037FA3046EF
:105AC000FAF79EFBFFF77CFD206B08B1206B99E78E
:105AD00000BF3048006818B128462E490968884739
