:020000040800F2
:10000000A0BC00205901000861010008210200087D
:100010006501000867010008690100080000000090
:100020000000000000000000000000006B0100085C
:100030006D01000800000000AB0100088D3D0008C4
:1000400073010008730100087301000873010008C0
:10005000730100087301000879110008C711000836
:10006000D9110008EB110008FD1100087301000808
:1000700073010008730100087301000835110008BE
:100080007301000873010008730100087301000880
:100090007301000873010008730100080F120008C3
:1000A0007301000873010008730100087301000860
:1000B0007301000873010008730100087301000850
:1000C0007301000873010008730100087301000840
:1000D00073010008814100087301000873010008E2
:1000E0008B110008730100087301000873010008F8
:1000F0007301000873010008730100087301000810
:1001000073010008730100087301000873010008FF
:1001100073010008730100087301000873010008EF
:1001200073010008730100087301000873010008DF
:10013000DFF810D000F076FF0048004729110008D2
:10014000AFF30080A0BC0020002804D090FAA0F0FB
:10015000B0FA80F0401C70470648804706480047C8
:10016000FEE7FEE7FEE7FEE7FEE7FEE7FEE7FEE767
:10017000FEE7FEE7313E000831010008EFF3108092
:1001800072B6704780F310887047324A1368012BAB
:1001900004D04FF0010313602F4A10602F4A116002
:1001A0002F484FF0805101607047EFF3108272B614
:1001B0002848016891B14FF00001016026480168AC
:1001C00029B1EFF3098121E9F00F006801602349AB
:1001D00009680968B1E8F00F81F3098882F3108893
:1001E0004EF0040E70471D4908601B494FF0000097
:1001F000086018494FF0010008601A481A49D0F801
:10020000002041EA0201016015484FF08051016071
:1002100016480068006880F3088861B662B67047C7
:100220001EF0040F0CBFEFF30880EFF3098020E904
:10023000F00F40F804ED1EF0040F0CBF80F30888A7
:1002400080F3098800B543F077F95DF804EB4EF0D0
:10025000040E70470C00002004000020080000205D
:1002600004ED00E020ED00E00000FFFF08ED00E0FD
:100270002DE9F05F0546002092469B4688460646DB
:10028000814640241BE0284641464746224600F06E
:1002900060F853465A46C01A914110D31146184689
:1002A000224600F047F82D1A67EB01084F46224618
:1002B0000120002100F03EF817EB00094E41201EFE
:1002C000A4F10104DFDC484631462A464346BDE836
:1002D000F09F2DE9F0410024061B254671F1000630
:1002E00005DA01240027D0EB070067EB0101161E99
:1002F00073F1000605DA0027D2EB0702012567EB50
:100300000303FFF7B5FF86460E4617469C46AC42F0
:1003100004D00025D0EB050E65EB010624B10020CA
:10032000D2EB000760EB030C704631463A46634659
:10033000BDE8F081202A04DB203A00FA02F1002017
:1003400070479140C2F1200320FA03F31943904013
:100350007047202A04DB203A21FA02F0002170477E
:1003600021FA02F3D040C2F120029140084319461D
:100370007047A0F14101192900D8203070470000D2
:100380000649074A0868504343F23902104408609E
:10039000400870470149086070470000EC050020E4
:1003A0006D4EC64110B5431A934209D2831888187E
:1003B00003E010F8011D03F8011D521EF9D210BD13
:1003C00040EA01039B0703D009E008C9121F08C0D7
:1003D000042AFAD203E011F8013B00F8013B521E57
:1003E000F9D210BDD2B201E000F8012B491EFBD2B8
:1003F00070470022F6E710B513460A460446194630
:10040000FFF7F0FF204610BD421E12F8013F002BFF
:10041000FBD111F8013B02F8013B002BF9D17047E9
:1004200030B505462A460B4612F8010B13F8014B6E
:1004300008B1A042F8D01CB1002802D06D1CF1E731
:10044000284630BD10B5044604E00B7800F8013BA7
:1004500003B1491C521EF8D2204610BDCAB2401E3C
:1004600010F8011F8A4202D00029F9D100207047FC
:10047000421C10F8011B0029FBD1801A704710B5EF
:10048000002200E0521C835C8C5CA34201D1002B53
:10049000F8D1D8B2E1B2401A10BD30B50446002000
:1004A000034600E05B1C934203D2E05CCD5C401B42
:1004B000F8D030BD034611F8012B00F8012B002ABB
:1004C000F9D11846704730B505460020034600E0D4
:1004D0005B1C934205D2EC5CC85C201A01D1002C55
:1004E000F6D130BD0022CBB20178994200D102464C
:1004F000401C0029F8D11046704700002DE9FF4F3D
:10050000087883B09946FF2805D0491C2D2804D0CF
:100510000024002008E000200BE00124F9E700EBB4
:10052000800003EB4000491C0B78FF2BF7D104B18E
:10053000404200230293147819461D462D2C01D009
:100540002B2C04D1521C2D2C13D000240294AA462B
:100550001478FF2C0FD00A25A3FB057801FB058139
:100560004FF0000C03FB0C11521CE3194AEB010184
:10057000EEE70124EAE7814453EA010002D019F5CD
:10058000C87F06DA03980021C0E9001107B0BDE872
:10059000F08F0025AE4E2F46DFF8B882184600F0E7
:1005A00001FDCDE90001B9F1000002DAC9F1000452
:1005B00000E004460023A74A1AEB030B42EB045A5F
:1005C00012E0E00707D02A4633463846414600F09D
:1005D0006AFA074688462A4633461046194600F00E
:1005E00062FA05460E466410002CEAD1DDE90001EE
:1005F000B9F1000F5A46534606DA00F064FC3A4659
:10060000434600F060FC05E000F04DFA3A464346F0
:1006100000F049FA029A0AB181F00041039AC2E956
:100620000001B3E72DE9FF4F1F468DB0D7E9014622
:100630004FF0FF382E2045464FF000090B90B96966
:100640006D1C0E988847396A824688470028F6D183
:10065000BAF1FF3F0AD024F4D064002E11DDBAF1C4
:100660002B0F08D0BAF12D0F0BD102E0404611B08C
:100670008DE744F48064B9696D1C0E988847824602
:10068000761E6946600501D52D2000E02B208DF8EF
:10069000000001F1010B0DF1200809E0B9696D1CA2
:1006A0000E98884782460F9844F40074761E0560C1
:1006B000002E02DDBAF1300FF0D00B998A453ED101
:1006C00044F0800406E00F99681CA9F1010944F484
:1006D00000740860B9696D1C761E0E9888478246C2
:1006E0003028F0D02BE00B998A4505D1200603D4A1
:1006F00044F08004761E18E0504603F0F9FF08B37A
:100700000DF11301761E44F400748B4508D2AAF152
:1007100030000BF8010B200607D5A9F1010003E01A
:10072000200602D409F101008146A00502D50F99E7
:10073000681C0860B9696D1C0E9888478246002EB7
:10074000D1DC53E0002E51DDBAF1650F02D0BAF1D1
:10075000450F4BD1A00549D5B9696D1C24F44074EF
:10076000761E0E9888478246002E0CDD2B2804D07A
:10077000BAF12D0F07D144F48074B9696D1C0E983D
:1007800088478246761EE00501D52D2100E02B2109
:1007900008F8011BCDF82C8021E00DF12901761E0F
:1007A00044F4007488450CD2AAF1300010F0FF0028
:1007B00088F8000002D10B99884509D908F1010891
:1007C00006E0E00501D5244801E042F20F708146C1
:1007D000B9696D1C0E98884782460F980560002EF7
:1007E00004DD504603F084FF0028D6D1F9690E9845
:1007F0008847FF208BF8000088F800000020069052
:1008000007904B466A4608A906A8FFF777FEA005A1
:1008100002D46FF001002AE714F0240F0AD0E00799
:1008200014D1DDE906123868031D3B600068C0E999
:1008300000120BE0DDE9060100F0D8FB0146E007FD
:1008400004D13868021D3A600068016028460EE74E
:10085000000014400000F03FF1D8FFFF2DE9F04701
:1008600091460F4680460446002614F8015B2DB1E0
:1008700000F002FA0068405DC007F6D12B2D02D0CF
:100880002D2D18D0641E4A463946204600F021FA24
:1008900027B13968A14201D1C7F8008071054FF036
:1008A00002040BD54042002803DD03F0F7FC04608E
:1008B000A007BDE8F08746F48066E4E70028F8DA90
:1008C00003F0ECFC04606FF00040F2E72DE9F05F0C
:1008D00093460F4680460446002603F0DFFCD0F81E
:1008E0000090824614F8015B2DB100F0C5F9006854
:1008F000405DC007F6D12B2D02D02D2D1AD0641EDD
:100900000021CAF800105A463946204600F0E1F9A5
:10091000014627B13868A04201D1C7F80080DAF853
:100920000000022809D0CAF80090700505D5484299
:10093000BDE8F09F46F48066E2E70846F8E770B548
:10094000064603F0ABFC046805460A220021304647
:10095000FFF784FF2C6070BD2DE9FE4F804681EAD1
:100960000300C00F0C46009021F0004123F0004529
:10097000B8EB0200A94105D24046214690461C46EC
:100980000B46024623F00040104347D0270DC7F323
:100990000A00C3F30A510290401A019040286BDA12
:1009A000C3F3130040F4801B0098924620B100234B
:1009B000D2EB030A63EB0B0B01985946C0F14002DE
:1009C0005046FFF7B7FC06460D4650465946019A79
:1009D00000F040F910EB08006141002487EA115251
:1009E00084EAE7731A4340D0009A62B3019A012A5D
:1009F0004FEA075215DC001B61EB02014FF0004289
:100A000002EA0752CDE90042001C41F5801132464E
:100A10002B4600F00AFA03B0BDE8F08F40462146AD
:100A2000F9E7001B61EB0201001C41F5801300187F
:100A30005B412018A2F5001747EB030140EAD5708F
:100A4000B6196D4111E06D084FEA360645EAC075EA
:100A50004FEA0752001B61EB0201001C41F58011B7
:100A600049084FEA30000019514132462B4603B085
:100A7000BDE8F04F00F0CAB9009801224000002301
:100A8000D0EB020263EBE073009821464FEAE0747A
:100A9000B8EB000061EB0401E9E783F000435BE79A
:100AA00081F0004158E72DE9FE4F81EA030404F08C
:100AB000004421F0004100944FF0000B23F000436C
:100AC00050EA01045ED052EA03045BD0C3F30A5437
:100AD000C1F30A552C44A4F2F3340194A0FB025450
:100AE000C1F3130141F48011C3F3130343F48013E2
:100AF00001FB024400FB034E840A970A44EA815436
:100B000047EA8357A4FB076802958D0A05FB078512
:100B10004FEA932C04FB0C542705029D4FEA06581C
:100B200047EA1637B5EB08056EEB070C870E920EF9
:100B300047EA811742EA8312A7FB0201B6EB0B01D9
:100B400064EB00042B0D43EA0C335E1844EB1C509D
:100B5000DA465146E7FB0201C5F313044FEA0B33B3
:100B600043EA14534FEA0432019C43EA0603A4F11A
:100B70000C040294009CCDE900B400F056F903B0D7
:100B8000BDE8F08F00200146F9E770B5C1F30A52C5
:100B900001F000450024C1F3130140F2FF3341F49A
:100BA00080119A4201DA002070BD40F233439A422C
:100BB000A2F2334203DC5242FFF7CBFB00E090404D
:100BC0002C43F1D0404270BD30B5041E71F10004D9
:100BD00004DB4FF00044404264EB0101141E73F14A
:100BE000000405DB1C464FF00043524263EB040354
:100BF0008B4208BF824230BD30B5041E71F1000443
:100C000004DB4FF00044404264EB0101141E73F119
:100C1000000405DB1C464FF00043524263EB040323
:100C2000994208BF904230BD30B50B4601460020C6
:100C30002022012409E021FA02F59D4205D303FA9E
:100C400002F5491B04FA02F52844151EA2F101021F
:100C5000F1DC30BD202A06DBCB17203A41FA02F046
:100C600043EAE07306E041FA02F3D040C2F1200209
:100C7000914008431946704700487047101D070807
:100C800010B50446FFF7F8FF0068005D00F00100B2
:100C900010BD426842B1016811F8013B23B1521EF8
:100CA000C0E90012184670470121C160881E7047D4
:100CB00042685AB1C368016843B983688B4205D062
:100CC000491E521CC0E90012002070474FF0FF304F
:100CD00070472DE9F05F82460078002715468B4665
:100CE0000AF10104B946302801D09DB113E014F88F
:100CF000010B0127782803D0582801D045B10AE01C
:100D00000DB1102D07D10027102514F8010B02E0BA
:100D1000082500E00A250026B0460EE005FB080085
:100D200005FB06F1012701EB10461FFA80F8B6F526
:100D3000803F00D3B94614F8010B294600F084F92E
:100D40000028EBDABBF1000F05D00FB1641E00E004
:100D50005446CBF80040B9F1000F06D003F09EFADC
:100D600002210160C81EBDE8F09F48EA0640FAE78C
:100D70000FB4002300B589B00CA900910B996FF056
:100D80000042CB601E4B06931E4B07930423CDE914
:100D900001321D4A089202466B460020FFF742FCD2
:100DA00009B05DF814FB70B586B006464FF0FF3011
:100DB0000091CDE90101002015460C460490324611
:100DC000694604A8FFF7D4FF02460498211825B10C
:100DD00008B1084600E020462860049800280DD09D
:100DE000002A02DD0098884208D0081B0094CDE953
:100DF00001043246694604A8FFF7BAFF06B070BD89
:100E0000930C0008B10C0008810C000810B5141EEA
:100E100073F1000408DA401C41F1000192185B41B3
:100E20001A4301D120F0010010BD2DE9F04D92468A
:100E30009B4611B1B1FA81F202E0B0FA80F22032A1
:100E40009046FFF777FA04460F4640EA0A0041EA67
:100E50000B0153465A46084313D0114653EA01008A
:100E600019D0C8F140025046FFF773FA05460E4606
:100E7000504659464246FFF75DFA084305D0012027
:100E800004E020463946BDE8F08D0020054346EADF
:100E9000E0762C4337430A986305E40AA0EB080088
:100EA0000022FD0A44EA47540A3002D500200146D8
:100EB000E9E7010510196941DDE9084500196941B3
:100EC000BDE8F04DA2E72DE9F04D81EA030404F0FE
:100ED000004B21F0004514464FF0000A23F000417A
:100EE00050EA050220D054EA01021DD0C5F30A578A
:100EF0000246C5F31303C1F31300C1F30A5640F4CD
:100F0000801543F48013A7EB0608101BD64608F2A1
:100F1000FD3873EB050002D308F1010801E09218D7
:100F20005B41B8F1000F03DA00200146BDE8F08D07
:100F300000204FF48011064684460EE0171B73EB29
:100F4000050705D3121B63EB050306434CEA010CAE
:100F500049084FEA300092185B4150EA0107EDD191
:100F600052EA030012D082EA040083EA0501084332
:100F700005D0101BAB4106D20122002306E000225F
:100F80004FF0004302E06FF0010253101AEB06002D
:100F90004CEB085110EB0A0041EB0B01BDE8F04DA2
:100FA000FFF734BF0EB540F2334202920022CDE982
:100FB00000221346FFF739FF03B000BDC1F30A5208
:100FC000C1F3130140F2FF3341F480119A4202DA77
:100FD00000200146704740F233439A42A2F2334266
:100FE00002DC5242FFF7B5B9FFF7A4B901F00043A4
:100FF00030B421F0004150EA010206D00A0DA2F5FA
:101000006072C1F31301002A02DC30BC002070477B
:10101000440F44EAC104C100E01830BC00EBC250E8
:1010200000F020B8064C074D06E0E06840F00103F0
:1010300094E8070098471034AC42F6D3FFF77CF8E9
:10104000B4690708D46907083A2800D2303820F07C
:101050002002412A01D3A2F13700884201D34FF088
:10106000FF3070470029A8BF7047401C490008BFE7
:1010700020F00100704710B4B0FA80FC00FA0CF0C8
:1010800050EA010404BF10BC704749B1CCF1200400
:1010900021FA04F411FA0CF118BF0121214308438D
:1010A000A3EB0C01CB1D4FEA00614FEA102042BFB9
:1010B000002010BC704700EBC35010440029A4BFAF
:1010C00010BC7047401C490008BF20F0010010BC54
:1010D000704770B58C1810F8015B15F0070301D14B
:1010E00010F8013B2A1106D110F8012B03E010F88B
:1010F000016B01F8016B5B1EF9D12B0705D40023AE
:10110000521E0DD401F8013BFAE710F8013BCB1A4F
:10111000921C03E013F8015B01F8015B521EF9D544
:10112000A142D8D3002070BD10B547F0EBFA0020E3
:1011300010BD000010B542F049FF034800F098FAD6
:1011400042F06EFF10BD00005C06002030B590F844
:1011500040500124AC40C56B6C6004686360446817
:10116000102C04D10468A2600468E16003E0046804
:10117000A1600468E26030BD10B542F027FF012095
:1011800000F070FE42F04CFF10BD10B542F01EFFA3
:101190004FF4806000F066FE4FF4006000F062FEE5
:1011A0004FF4805000F05EFE4FF4005000F05AFE05
:1011B0004FF4804000F056FE4FF4004000F052FE25
:1011C00042F02EFF10BD10B542F000FF022000F0EB
:1011D00049FE42F025FF10BD10B542F0F7FE042095
:1011E00000F040FE42F01CFF10BD10B542F0EEFED4
:1011F000082000F037FE42F013FF10BD10B542F09A
:10120000E5FE102000F02EFE42F00AFF10BD10B5E2
:1012100042F0DCFE202000F025FE402000F022FEFF
:10122000802000F01FFE4FF4807000F01BFE4FF492
:10123000007000F017FE42F0F3FE10BDF0B502465C
:10124000CEB2090ACDB2090ACCB2090A0B4602F1A4
:10125000480757F823C002F5896757F824700CEB4C
:10126000070002F6480757F82570784002F648470D
:1012700057F826703844F0BD0021074AD16107496C
:10128000096941F00401054A11611146096941F0FB
:101290004001116170470000F80500200020024065
:1012A0000021074AD1610749096941F00201054A55
:1012B000116111464861096941F0400111617047AF
:1012C000F8050020002002400022054BDA61054AA3
:1012D000126942F00102034B1A610180704700005D
:1012E000F80500200020024000201E49C96801F0D6
:1012F000100139B11C49C96941F002011A4AD16192
:1013000040F010001749C96801F0040139B11649CD
:10131000C96941F00101144AD16140F0040011494A
:10132000C96901F0010169B10F49C96941F00401BE
:101330000D4AD16100BF0B49C96921F00101094A79
:10134000D16100BF00BF40F20111884206D10549BA
:10135000C96921F00101034AD16101E00149C86076
:1013600000BF704700200240F805002070B5044619
:1013700000F034FF054609E0601C38B124B100F0EC
:101380002DFF401BA04201D9032070BD1248C06848
:1013900000F001000028EFD10F48C06800F02000E5
:1013A00020B100BF20200C49C86000BF0A48C068B7
:1013B00000F0100048B90848C06900F0010020B9E9
:1013C0000548C06800F0040018B1FFF78DFF012048
:1013D000DBE70020D9E700000020024001460020A2
:1013E000C80AC00270470146002291F82100022875
:1013F00008D00420886300BF002081F8200000BFCF
:10140000012070470868006820F00E000B68186023
:101410000868006820F001000B68186091F84030FF
:1014200001209840CB6B5860012081F8210000BF5B
:10143000002081F8200000BF1046E2E770B50446A6
:10144000002594F82100022803D00420A063012580
:10145000C1E02068006820F00E0021680860206864
:10146000006820F00100216808605C49206888421B
:1014700052D95A4978392068884201D1012047E081
:10148000564964392068884201D1102040E0534910
:1014900050392068884201D1801539E04F493C39E4
:1014A0002068884201D1801432E04C4928392068F4
:1014B000884202D14FF480302AE04849143920682C
:1014C000884202D14FF4801022E0444920688842CB
:1014D00001D140041CE042492068884201D101202A
:1014E00016E03F4914312068884201D110200FE0F6
:1014F0003B4928312068884201D1801508E03849ED
:101500003C312068884201D1801401E04FF48030E2
:101510003349091F086051E0304978392068884212
:1015200001D1012047E02D4964392068884201D16A
:10153000102040E0294950392068884201D18015A7
:1015400039E026493C392068884201D1801432E0D4
:10155000224928392068884202D14FF480302AE09D
:101560001E4914392068884202D14FF4801022E0CD
:101570001A492068884201D140041CE018492068BB
:10158000884201D1012016E01549143120688842B3
:1015900001D110200FE0124928312068884201D182
:1015A000801508E00E493C312068884201D1801442
:1015B00001E04FF48030094980394860012084F807
:1015C000210000BF002084F8200000BF606B10B134
:1015D0002046616B8847284670BD000080000240AD
:1015E00008040240014609B90120704708680068F4
:1015F00020F001000A68106000200A6810600A6884
:1016000050600A6890600A68D060174A0868904283
:101610000BD2164A0868801A1422B0FBF2F0800040
:10162000086412480838C8630AE00F4A0868801A3C
:101630001422B0FBF2F0800008640B480838C8633D
:1016400091F8402001209040CA6B506000208862D1
:10165000C86208634863886381F8210000BF81F88D
:10166000200000BF00BFC0E708040240080002409D
:1016700070B50446E06B05682068066894F8401071
:10168000042088402840002875D006F00400002877
:10169000FAD02068006800F0200028B920680068AF
:1016A00020F0040021680860D5492068884254D998
:1016B000D34978392068884201D1042049E0D049D3
:1016C00064392068884201D1402042E0CC49503939
:1016D0002068884201D100153BE0C9493C392068A7
:1016E000884202D14FF4804033E0C5492839206850
:1016F000884202D14FF480202BE0C1491439206880
:10170000884202D14FF4800023E0BD49206888421E
:1017100001D1C0041DE0BB492068884201D10420EA
:1017200017E0B84914312068884201D1402010E008
:10173000B44928312068884201D1001509E0B14937
:101740003C312068884202D14FF4804001E04FF4E0
:101750008020AC49091F086054E0A9497839206805
:10176000884201D104204AE0A549643920688842B2
:1017700002D1402043E04CE0A14950392068884222
:1017800001D100153BE09E493C392068884202D1D6
:101790004FF4804033E09A4928392068884202D1CA
:1017A0004FF480202BE0964914392068884202D1FA
:1017B0004FF4800023E092492068884201D1C004A0
:1017C0001DE090492068884201D1042017E08D492E
:1017D00014312068884201D1402010E08949283125
:1017E0002068884201D1001509E086493C31206813
:1017F000884202D14FF4804001E04FF480208049BC
:1018000080394860E06A002802D02046E16A8847B3
:10181000F4E094F84010022088402840002871D05D
:1018200006F002000028FAD02068006800F02000CE
:1018300040B92068006820F00A0021680860012093
:1018400084F821006E492068884254D96C4978395F
:101850002068884201D1022049E069496439206842
:10186000884201D1202042E06549503920688842F1
:1018700001D140153BE062493C392068884202D1E1
:101880004FF4005033E05E4928392068884202D185
:101890004FF400302BE05A4914392068884202D1B5
:1018A0004FF4001023E056492068884201D180049B
:1018B0001DE054492068884201D1022017E05149B7
:1018C00014312068884201D1202010E04D49283190
:1018D0002068884201D1401509E04A493C3120681E
:1018E000884202D14FF4005001E04FF400304549E6
:1018F000091F086054E0424978392068884202D1C3
:1019000002204AE057E03E4964392068884201D10C
:10191000202042E03A4950392068884201D14015E0
:101920003BE037493C392068884202D14FF40050EF
:1019300033E0334928392068884202D14FF400301F
:101940002BE02F4914392068884202D14FF400104F
:1019500023E02B492068884201D180041DE02949F9
:101960002068884201D1022017E0264914312068FE
:10197000884201D1202010E0224928312068884285
:1019800001D1401509E01F493C312068884202D14D
:101990004FF4005001E04FF400301949803948609D
:1019A00000BF002084F8200000BFA06A30B32046AA
:1019B000A16A884722E094F8401008208840284017
:1019C000E0B106F00800C8B12068006820F00E0001
:1019D0002168086094F8401001208840E16B48605D
:1019E0000120A06384F8210000BF002084F82000BB
:1019F00000BF206B10B12046216B884770BD0000EE
:101A000080000240080402400146002209B901207A
:101A100070471E4B086898420BD21D4B0868C01ACD
:101A20001423B0FBF3F08000086419480838C86339
:101A30000AE0164B0868C01A1423B0FBF3F08000CC
:101A4000086412480838C863022081F82100086839
:101A5000026843F6F0708243D1E901031843CB6872
:101A600018430B6918434B6918438B691843CB69BA
:101A7000184302430868026000208863012081F84F
:101A80002100002081F8200000BFC1E708040240C7
:101A9000080002402DE9F04104460D4616461F4657
:101AA0004FF0000800BF94F82000012802D1022066
:101AB000BDE8F081012084F8200000BF94F82100E7
:101AC00001282CD1022084F821000020A063206886
:101AD000006820F00100216808603B463246294634
:101AE0002046FFF733FBE06A30B12068006840F021
:101AF0000E00216808600BE02068006820F00400F8
:101B0000216808602068006840F00A0021680860C9
:101B10002068006840F001002168086006E000BF0E
:101B2000002084F8200000BF4FF002084046BFE7C5
:101B30002DE9F04104460E460127002500BF264846
:101B4000007E012802D10220BDE8F0810120224957
:101B5000087600BF2068022813D14CF25030FFF7FE
:101B600005FC90BB0120FFF787FB4CF25030FFF7DC
:101B7000FDFB07461948006920F004001749086179
:101B800023E04CF25030FFF7F1FBF0B94FF0FF309B
:101B90003060A56812E02846FFF782FB4CF2503017
:101BA000FFF7E4FB07460D48006920F002000B49EF
:101BB00008610FB1356007E005F50065D4E9021052
:101BC00001EBC020A842E6D800BF00BF00200249B8
:101BD000087600BF3846B7E7F8050020002002402D
:101BE0000348006940F08000014908610020704707
:101BF000002002402DE9FE4F05468B4617469846C9
:101C0000012600240020029000BF2448007E012805
:101C100002D10220BDE8FE8F01202049087600BFD6
:101C20004CF25030FFF7A2FB064686BB012D02D1D5
:101C30000120029006E0022D02D10220029001E074
:101C40000420029000241EE02201B946C246484604
:101C50005146FEF77EFB80B20190022000FB04B0EB
:101C600000900199FFF730FB4CF25030FFF77EFBFC
:101C700006460B48006920F001000949086106B1D9
:101C800004E0601CC4B202988442DDDB00BF00BFE8
:101C900000200249087600BF3046BBE7F805002067
:101CA0000020024000200849096901F0800151B17B
:101CB0000649054A5160064951601146096901F01B
:101CC000800101B1012070470020024023016745D7
:101CD000AB89EFCD2DE9F04102460B4600208BE0A9
:101CE0000127874007EA030100297DD0464F4FEACC
:101CF000900C57F82C4087074FEA177C0F2707FAFC
:101D00000CF73C40414FBA4201D1002719E0404F47
:101D1000BA4201D1012714E03E4FBA4201D1022755
:101D20000FE03D4FBA4201D103270AE03B4FBA42D0
:101D300001D1042705E03A4FBA4201D1052700E05E
:101D400006274FEA807C4FEA1C7C07FA0CF7A74273
:101D500030D187074FEA177C0F2707FA0CF42A4F78
:101D60004FEA900C57F82C70A743DFF89CC04FEA5D
:101D700090084CF828702B4F3F688F43DFF8A4C0C1
:101D8000CCF800700CF104073F688F430CF1040C91
:101D9000CCF800700CF104073F688F430CF1040C81
:101DA000CCF800700CF104073F688F430CF1040C71
:101DB000CCF80070FF2901D8174600E0171D3D46FA
:101DC000FF2901D8870002E0A0F10807BF003E46C6
:101DD0002F684FF00F0C0CFA06FC27EA0C074FF0A7
:101DE000040C0CFA06FC00E005E047EA0C072F6043
:101DF000D7688F43D760401C23FA00F7002F7FF489
:101E00006FAFBDE8F081000008000140000801400C
:101E1000000C014000100140001401400018014076
:101E2000001C01400004014070B50546284604F03E
:101E30000BFA044604EB4400094901EB80004068BA
:101E400058B104EB44020B4603EB8202906804EBAA
:101E5000440203EB82025168884700BF70BD000056
:101E60002400002010B5044604480068204020B13A
:101E7000024804602046FFF7D7FF10BD140401405C
:101E80002DE9F847024600239C467BE14FF001080C
:101E900008FA03F4D1F8008008EA0400A0427DD1DA
:101EA000DFF8F4A2D1F80480A8EB0A09D0453AD0B3
:101EB00014DCB8F1030F50D009DCB8F1000F31D0B9
:101EC000B8F1010F1CD0B8F1020F49D120E0B8F1F0
:101ED000110F18D0B8F1120F42D11EE0B9F5881FCA
:101EE00025D006DCB9F5803F20D0B9F5801F37D169
:101EF0001AE0B9F5001F18D0B9F5041F30D117E06A
:101F0000D1F80CC02DE0D1F80C8008F1040C28E0C9
:101F1000D1F80C8008F1080C23E0D1F80C8008F10E
:101F20000C0C1EE000BF00BF00BF00BF00BF00BF21
:101F3000D1F80880B8F1000F02D14FF0040C0BE08B
:101F4000D1F80880B8F1010F03D14FF0080C1461EB
:101F500002E04FF0080C546103E04FF0000C00E089
:101F600000BF00BFFF2801D8904601E002F104083D
:101F70004646FF2802D84FEA830803E0A3F1080889
:101F80004FEA88084746D6F800804FF00F0909FA53
:101F900007F928EA09080CFA07F900E07AE048EAAC
:101FA0000908C6F80080D1F8048008F08058B8F11C
:101FB000805F6FD100BFDFF8E481D8F8188048F067
:101FC0000108DFF8D891C9F81880C846D8F81880F9
:101FD00008F00108CDF8008000BF00BF4FEAB93813
:101FE0004FEA930958F829504FEA83784FEA187955
:101FF0004FF00F0808FA09F825EA0805DFF8A08174
:10200000424502D14FF0000824E0DFF898814245B4
:1020100002D14FF001081DE0DFF88C81424502D16A
:102020004FF0020816E0DFF88481424502D14FF0FC
:1020300003080FE0DFF87881424502D14FF0040831
:1020400008E0DFF87081424502D14FF0050801E059
:102050004FF006084FEA83794FEA197908FA09F830
:1020600048EA0505DFF850814FEA930948F82950FE
:10207000D1F8048008F48038B8F5803F0BD1DFF840
:102080003C81D8F8008048EA0008DFF83091C9F8B0
:1020900000800AE075E0DFF82481D8F8008028EAA3
:1020A0000008DFF81891C9F80080D1F8048008F41E
:1020B0000038B8F5003F0ED1DFF8008108F10408C0
:1020C000D8F8008048EA0008DFF8F09009F1040928
:1020D000C9F800800DE0DFF8E48008F10408D8F8C2
:1020E000008028EA0008DFF8D49009F10409C9F853
:1020F0000080D1F8048008F48018B8F5801F0ED154
:10210000DFF8B88008F10808D8F8008048EA00082D
:10211000DFF8A89009F10809C9F800800DE0DFF8A0
:102120009C8008F10808D8F8008028EA0008DFF849
:102130008C9009F10809C9F80080D1F8048008F4EE
:102140000018B8F5001F0ED1DFF8708008F10C08F8
:10215000D8F8008048EA0008DFF8609009F10C091F
:10216000C9F800800DE0DFF8548008F10C08D8F8B9
:10217000008028EA0008DFF8449009F10C09C9F84A
:1021800000805B1CD1F8008028FA03F8B8F1000F3A
:102190007FF47CAEBDE8F88700001110001002400B
:1021A00000080140000C01400010014000140140F3
:1021B00000180140001C01400800014000040140DB
:1021C000024693680B400BB1012000E000207047ED
:1021D0000AB1016101E00B040361704700B54FF0E3
:1021E000E020006900F4803008B100F005F80148F3
:1021F000006800BD14000020034800680349096816
:1022000008440149086070471400002020000020A5
:1022100010B50848006840F0100006490860032027
:1022200000F0AAF8002000F007F800F00BF80020FA
:1022300010BD00000020024010B5044641F026FE0B
:10224000002010BD08B500BF1148806940F00100B2
:102250000F4988610846806900F00100009000BFC6
:1022600000BF00BF0846C06940F08050C861084602
:10227000C06900F08050009000BF00BF00BF05495A
:10228000486820F0E06040F00070486000BF08BD82
:10229000001002400000014010B501460846002829
:1022A00017DB00F01F0301229A400B4B440943F84F
:1022B000242000BF00BF00BFBFF34F8F00BF00BF8F
:1022C00000BF00BF00BF00BFBFF36F8F00BF00BFE4
:1022D00000BF00BF10BD000080E100E001460846DD
:1022E000002809DB00F01F0301229A4043099B00EC
:1022F00003F1E023C3F8002100BF70472DE9F05F30
:1023000080460D461646002701F0ACFF07463946C9
:102310002A46334601F00700C0F1070ABAF1040F5C
:1023200002D94FF0040A01E0C0F1070AD14600F1DA
:10233000040ABAF1070F02D24FF0000A01E0A0F13F
:10234000030AD4464FF0010A0AFA09FAAAF1010A6F
:102350000AEA020A0AFA0CFA4FF0010B0BFA0CFB1C
:10236000ABF1010B0BEA030B4AEA0B042146404692
:1023700001F080FFBDE8F09F00BF00F00702064BB0
:1023800019684FF6FF031940044B0B4343EA02213F
:10239000014B196000BF70470CED00E00000FA052A
:1023A00070B504460D460CB9012070BD5A4800684E
:1023B00000F00700A8420ED25748006820F007003E
:1023C0002843554908600846006800F00700A84205
:1023D00001D00120E9E7207800F0020002281DD199
:1023E000207800F00400042805D14C48406840F4EF
:1023F000E0604A494860207800F00800082805D1CC
:102400004648406840F4605044494860434840684A
:1024100020F0F000A168084340494860207800F0AF
:10242000010078B36068012806D13C48006800F4D8
:10243000003090B90120B8E76068022806D137481B
:10244000006800F0007040B90120AEE73348006832
:1024500000F0020008B90120A7E73048406820F0EA
:102460000300616808432D494860FFF7B7FE064640
:1024700009E0FFF7B3FE801B41F28831884202D9A0
:10248000032092E707E02548406800F00C006168EF
:10249000B0EB810FEDD12048006800F00700A842A2
:1024A0000ED91D48006820F0070028431A4908602B
:1024B0000846006800F00700A84201D0012074E738
:1024C000207800F00400042807D11448406820F464
:1024D000E060E168084311494860207800F0080096
:1024E000082808D10D48406820F46050216940EA6E
:1024F000C1000A49486000F03FF808494968C1F343
:102500000311074A515CC840064908600648006844
:10251000FFF792FE002048E7002002400010024032
:1025200086630608000000201800002001480068AB
:10253000704700000000002000B5FFF7F7FF0449D6
:102540004968C1F30221034A515CC84000BD000044
:10255000001002409663060800B5FFF7E7FF044944
:102560004968C1F3C221034A515CC84000BD000064
:102570000010024096630608F0B585B00FF26C0CAF
:102580009CE8E01001A8A0E8E0101CA52D680095CB
:1025900000210022002300240020194D696801F069
:1025A0000C05F5B1042D02D0082D19D101E0154814
:1025B00019E001ADC1F38346AC5D01F4803555B13E
:1025C0000F4D6D68C5F340451DF805200D4D654361
:1025D000B5FBF2F302E00C4D04FB05F3184602E0F4
:1025E00000BF084800BF00BF05B0F0BD02030405EE
:1025F000060708090A0B0C0D0E0F1010010200004F
:102600000010024000127A0000093D00F8B50446AF
:102610000CB90120F8BD207800F00100002878D026
:10262000F848406800F00C0004280CD0F5484068D9
:1026300000F00C00082811D1F248406800F4803006
:10264000B0F5803F0AD1EF48006800F40030002860
:102650005FD0606800285CD10120DBE700BF6068C4
:10266000B0F5803F06D1E748006840F48030E54986
:10267000086028E0606858B9E248006820F48030BB
:10268000E04908600846006820F4802008601AE0ED
:102690006068B0F5A02F0BD1DA48006840F48020C4
:1026A000D84908600846006840F4803008600AE0B5
:1026B000D448006820F48030D24908600846006899
:1026C00020F48020086000BF606888B1FFF786FDB5
:1026D000054606E0FFF782FD401B642801D9032070
:1026E00098E7C848006800F400300028F2D010E0F5
:1026F000FFF774FD054606E0FFF770FD401B6428F8
:1027000001D9032086E7BF48006800F400300028A4
:10271000F2D1207800F00200022857D1B948406871
:1027200000F00C0050B1B748406800F00C000828D9
:1027300018D1B448406800F4803098B9B1480068B6
:1027400000F0020020B12069012801D0012061E7DA
:10275000AC48006820F0F800616940EAC100A9496E
:10276000086033E02069E8B10120A7490860FFF75D
:1027700035FD054606E0FFF731FD401B022801D973
:10278000032047E79F48006800F002000028F2D0CD
:102790009C48006820F0F800616940EAC10099494E
:1027A000086013E0002098490860FFF717FD054610
:1027B00006E0FFF713FD401B022801D9032029E79B
:1027C0009048006800F002000028F2D1207800F064
:1027D000080008282DD1A069B8B101208B490860F4
:1027E000FFF7FCFC054606E0FFF7F8FC401B02285B
:1027F00001D903200EE78348406A00F00200002858
:10280000F2D0012001F01AF913E000207F4908609E
:10281000FFF7E4FC054606E0FFF7E0FC401B02285A
:1028200001D90320F6E67748406A00F0020000284C
:10283000F2D1207800F00400042873D100277148F9
:10284000C06900F0805070B900BF6E48C06940F0A8
:1028500080506C49C8610846C06900F08050009003
:1028600000BF00BF01276A48006800F48070B0B95B
:102870006748006840F4807065490860FFF7AEFC67
:10288000054606E0FFF7AAFC401B642801D9032097
:10289000C0E65F48006800F480700028F2D000BFF6
:1028A000E068012806D15748006A40F00100554908
:1028B000086227E0E06858B95248006A20F0010039
:1028C000504908620846006A20F00400086219E0D6
:1028D000E06805280BD14B48006A40F004004949E4
:1028E00008620846006A40F0010008620AE04548B4
:1028F000006A20F00100434908620846006A20F09F
:102900000400086200BFE068A0B1FFF767FC05465D
:1029100009E0FFF763FC401B41F28831884202D98D
:10292000032077E622E03748006A00F00200002822
:10293000EFD012E0FFF752FC054608E0FFF74EFC2F
:10294000401B41F28831884201D9032062E62D48BC
:10295000006A00F002000028F0D1012F05D12948BB
:10296000C06920F080502749C86100BFE069C8B342
:102970002448406800F00C00082860D0E069022874
:1029800048D1002020490866FFF728FC054606E0EC
:10299000FFF724FC401B022801D903203AE619481E
:1029A000006800F000700028F2D1206AB0F5803F86
:1029B00007D11448406820F40030A1680843114949
:1029C0004860D4E9080108430E49496821F47411AC
:1029D00008430C49486001200B490866FFF7FEFBDD
:1029E000054607E03DE0FFF7F9FB401B022801D94F
:1029F00003200FE60348006800F000700028F2D0C2
:102A00002FE00000001002400000424280044242D9
:102A100000700040002014490866FFF7DFFB054600
:102A200006E0FFF7DBFB401B022801D90320F1E59C
:102A30000E48006800F000700028F2D111E0E06953
:102A4000012800D1E6E50948466806F48031206A8D
:102A5000814204D106F47011606A814201D00120E4
:102A6000D8E50020D6E500000000424200100240F8
:102A70007047014691F85100704710B504460CB9F3
:102A8000012010BD606A38B96068B0F5827F00D15E
:102A900005E00021E16102E0002121616161002186
:102AA000A16294F8510028B9002084F85000204613
:102AB00000F042F8022084F851002068006820F0FD
:102AC000400021680860A08800F48270218901F428
:102AD00004410843A18901F400610843217C01F00D
:102AE00002010843217D01F001010843218B01F41B
:102AF00000710843217F01F0380108432021095D5E
:102B000001F080010843218D01F400510843216840
:102B100008600421A06901EA10402168486020682B
:102B2000C06920F400602168C86100206065012050
:102B300084F851000020A4E710B586B004460020B8
:102B400002900390049005903449206888422ED169
:102B500000BF3348806940F480503149886108469D
:102B6000806900F48050019000BF00BF00BF08469C
:102B7000806940F0040088610846806900F0040024
:102B8000019000BF00BFA02002900220039003200C
:102B9000059002A92348FFF773F940200290002016
:102BA0000390049002A91F48FFF76AF933E01E4919
:102BB000206888422FD100BF1948C06940F4804086
:102BC0001749C8610846C06900F48040019000BF01
:102BD00000BF00BF0846806940F0080088610846D1
:102BE000806900F00800019000BF00BF4FF4204052
:102BF0000290022003900320059002A90B48FFF7E2
:102C00003FF94FF48040029000200390049002A905
:102C10000648FFF735F906B010BD0000003001404E
:102C2000001002400008014000380040000C014044
:102C30002DE9F8430446884616461D464FF0000924
:102C40006068B0F5827F0DD1A06858B9042084F87F
:102C500051003346424641462046009500F007FAAF
:102C6000BDE8F88300BF94F85000012801D102208C
:102C7000F6E7012084F8500000BFFFF7AFFA0746DF
:102C800094F85100012802D04FF002097EE0B8F11B
:102C9000000F00D016B94FF0010977E0042084F846
:102CA000510000206065C4F83880A687E68720635D
:102CB000A086E08620646064A068B0F5004F0BD168
:102CC0002068006820F040002168086020680068E3
:102CD00020F48040216808602068006800F040000F
:102CE000402805D02068006840F040002168086056
:102CF000E068F8B91AE02068806800F0010050B17F
:102D00002068007BA16B0870A06B401CA063E08F63
:102D1000401EE0870AE0FFF761FAC01BA84201D31A
:102D2000681C00B915B94FF003092FE0E08F0028A7
:102D3000E1D11EE01AE02068806800F0010050B187
:102D40002068C068A16B0880A06B801CA063E08F26
:102D5000401EE0870AE0FFF741FAC01BA84201D3FA
:102D6000681C00B915B94FF003090FE0E08F002887
:102D7000E1D13A462946204600F04CFF08B1202018
:102D80006065606D08B14FF0010900BF012084F853
:102D9000510000BF002084F8500000BF48465FE7A4
:102DA0002DE9F04104460E4615460027A06870B98B
:102DB0006068B0F5827F0AD1042084F851002B4668
:102DC00032463146204600F067FABDE8F08100BF88
:102DD00094F85000012801D10220F6E7012084F880
:102DE000500000BF94F85100012801D0022757E09D
:102DF00006B10DB9012753E0042084F851000020EA
:102E00006065A663A587E58720646064A086E08688
:102E1000A068B0F5004F0BD12068006820F040009A
:102E2000216808602068006820F4804021680860FC
:102E30001F48E16CC8621F48E16C88621E48E16C63
:102E400008630020E16C4863E38FD4F800C00CF104
:102E50000C01A26BE06CFEF71DFE40B1606D40F00E
:102E6000100060650127012084F8510018E02068F7
:102E7000006800F04000402805D02068006840F05D
:102E80004000216808602068406840F02000216808
:102E900048602068406840F001002168486000BF39
:102EA00000BF002084F8500000BF38468DE70000C6
:102EB0008D3A0008B73A0008653A00087047704735
:102EC0002DE9F84F0446884616461D464FF0000A85
:102ED00000BF94F85000012802D10220BDE8F88F0D
:102EE000012084F8500000BFFFF778F90746B1468B
:102EF00094F85100012802D04FF0020AADE0B8F179
:102F0000000F00D016B94FF0010AA6E0032084F8A4
:102F1000510000206065C4F83080A686E686A06374
:102F2000A087E08760642064A068B0F5004F0BD1F3
:102F30002068006820F04000216808602068006870
:102F400040F48040216808602068006800F040007C
:102F5000402805D02068006840F0400021680860E3
:102F6000E068B0F5006F2FD1606810B1B9F1010FC2
:102F700009D1206B00882168C860206B801C206309
:102F8000E08E401EE0861BE02068806800F00200B2
:102F900002280AD1206B00882168C860206B801C41
:102FA0002063E08E401EE0860AE0FFF717F9C01BA1
:102FB000A84201D3681C00B915B94FF0030A4CE0D0
:102FC000E08E0028E0D12EE0606810B1B9F1010F69
:102FD00009D1206B007821680873206B401C2063A6
:102FE000E08E401EE0861BE02068806800F0020052
:102FF00002280AD1206B007821680873206B401CDE
:103000002063E08E401EE0860AE0FFF7E7F8C01B71
:10301000A84201D3681C00B915B94FF0030A1CE09F
:10302000E08E0028E0D13A462946204600F02EFEE8
:1030300008B120206065A06850B900BF0020009052
:103040002068C068009020688068009000BF00BFC2
:10305000606D08B14FF0010A00BF012084F85100F3
:1030600000BF002084F8500000BF504636E72DE92D
:10307000FF5F0446884691461D460E9E0120029041
:103080000020019000BF94F85000012803D10220D5
:1030900004B0BDE8F09F012084F8500000BFFFF7A6
:1030A0009DF8074694F851B060680390AA46BBF1BA
:1030B000010F0BD00398B0F5827F04D1A06810B93E
:1030C000BBF1040F02D002200190DBE0B8F1000F49
:1030D00003D0B9F1000F00D015B901200190D1E063
:1030E00094F85100042802D0052084F851000020F3
:1030F0006065C4F83890E587A587C4F83080E58618
:10310000A586206460642068006800F040004028C4
:1031100005D02068006840F0400021680860E06841
:10312000B0F5006F4AD1606810B1BAF1010F09D152
:10313000206B00882168C860206B801C2063E08EB3
:10314000401EE08633E02068806800F0020002281C
:1031500010D1E08E70B1029801280BD1206B00884D
:103160002168C860206B801C2063E08E401EE086D2
:10317000002002902068806800F0010068B1E08FB4
:1031800058B12068C068A16B0880A06B801CA06348
:10319000E08F401EE08701200290FFF71FF8C01B60
:1031A000B04204D3701C10B1032001906AE0E08E9D
:1031B0000028C8D1E08F0028C5D14AE0606810B16E
:1031C000BAF1010F09D1206B007821680873206BD8
:1031D000401C2063E08E401EE08634E0206880685A
:1031E00000F00200022810D1E08E70B10298012890
:1031F0000BD1206B007821680873206B401C206382
:10320000E08E401EE086002002902068806800F07A
:10321000010068B1E08F58B12068C068A16B0870E8
:10322000A06B401CA063E08F401EE087012002904D
:10323000FEF7D4FFC01BB04201D3701C00B916B911
:10324000032001901EE0E08E0028C7D1E08F002807
:10325000C4D13A463146204600F018FD20B1012085
:103260000190202060650DE0A06850B900BF0020EB
:1032700000902068C068009020688068009000BFBF
:1032800000BF00BF012084F8510000BF002084F877
:10329000500000BF0198FBE62DE9F04704460E46BA
:1032A00017461D464FF0000A00BF94F85000012851
:1032B00002D10220BDE8F087012084F8500000BF51
:1032C00094F85180D4F80490B8F1010F0AD0B9F500
:1032D000827F04D1A06810B9B8F1040F02D04FF07A
:1032E000020A7DE00EB107B115B94FF0010A77E08F
:1032F00094F85100042802D0052084F851000020E1
:1033000060652663A586E586A763A587E5872064B3
:10331000606494F85100042806D13548E16CC86215
:103320003448E16C886205E03348E16CC862334898
:10333000E16C88623248E16C08630020E16C48630C
:10334000E38FD4F800C00CF10C01A26BE06CFEF727
:10335000A1FB48B1606D40F0100060654FF0010ABC
:10336000012084F851003BE02068406840F00100F3
:10337000216848600020A16CC862A16C8862A16CC1
:103380000863A16C4863E38ED4F800C00CF10C0212
:10339000216BA06CFEF77EFB48B1606D40F0100021
:1033A00060654FF0010A012084F8510018E02068A0
:1033B000006800F04000402805D02068006840F018
:1033C0004000216808602068406840F020002168C3
:1033D00048602068406840F002002168486000BFF3
:1033E00000BF002084F8500000BF504662E7000094
:1033F0008D3A0008B73A0008A93A0008AF3B000828
:10340000653A00082DE9F04104460E4615460027AE
:1034100000BF94F85000012802D10220BDE8F081DD
:10342000012084F8500000BF94F85100012801D019
:10343000022758E006B10DB9012754E0032084F8B3
:103440005100002060652663A586E586A063606460
:103450002064A087E087A068B0F5004F0BD12068FA
:10346000006820F04000216808602068006840F48F
:103470008040216808601F48A16CC8621E48A16C8A
:1034800088621E48A16C08630020A16C4863E38E2B
:10349000D4F800C00CF10C02216BA06CFEF7FAFA14
:1034A00040B1606D40F0100060650127012084F894
:1034B000510018E02068006800F04000402805D066
:1034C0002068006840F0400021680860206840687B
:1034D00040F02000216848602068406840F0020009
:1034E0002168486000BF00BF002084F8500000BF82
:1034F000384693E79B3A0008313B0008653A0008DC
:10350000704770477047704770B504462546681E7F
:10351000B0F1807F01D301200FE0681E4FF0E02161
:1035200048610F214FF0FF3000F0A4FE00204FF063
:10353000E021886107200861002070BD10B50446B5
:103540000CB9012010BD242084F839002068C0681F
:1035500020F400502168C860204600F007F90020E0
:10356000E06384F8390084F83A0000BF84F838003A
:1035700000BF00BFE6E7000070B504462CB940F27A
:103580001742034903A03EF05DFB254670BD0000D5
:1035900079640608687561727420213D204E554C8F
:1035A0004C0000002DE9F0470446206805682068BB
:1035B000C668206847694FF00008C14605F00F084B
:1035C000B8F1000F0AD105F0200038B106F0200054
:1035D00020B1204600F0D5FCBDE8F087B8F1000F1F
:1035E00071D007F0010018B906F4907000286AD075
:1035F00005F0010030B106F4807018B1E06B40F0C6
:103600000100E06305F0040030B107F0010018B1DB
:10361000E06B40F00200E06305F0020030B107F01B
:10362000010018B1E06B40F00400E06305F0080011
:1036300048B106F0200010B907F0010018B1E06BA6
:1036400040F00800E063E06B68B305F0200028B1AB
:1036500006F0200010B1204600F093FC206840697D
:10366000C0F38019E06B00F0080010B9B9F1000F49
:1036700022D0204600F05BFC2068406900F040004A
:10368000B0B12068406920F0400021684861606B5B
:1036900050B11848616B4863606BFDF7CFFE10B105
:1036A000606B416B88470CE02046FFF765FF08E040
:1036B0002046FFF761FF04E02046FFF75DFF002092
:1036C000E06389E7FFE705F0800030B106F0800095
:1036D00018B1204600F024FD7EE705F0400030B12F
:1036E00006F0400018B1204600F031FC74E700BF3E
:1036F00072E70000333E000810B504460CB9012003
:1037000010BDA06900B100E000BF94F8390028B9ED
:10371000002084F83800204600F044F8242084F883
:1037200039002068C06820F400502168C860204635
:1037300000F078FC2068006920F49040216808615E
:103740002068406920F02A00216848612068C0682C
:1037500040F400502168C8600020E063202084F815
:10376000390084F83A000020CAE7000010B504468A
:103770000949206888420DD10848806920F48040BA
:10378000064988614FF4C0610548FEF7A3FA252079
:10379000FEF782FD10BD000000380140001002401D
:1037A0000008014010B586B0044600200290039046
:1037B000049005901E492068884236D100BF1D48FC
:1037C000806940F480401B4988610846806900F4A4
:1037D0008040019000BF00BF00BF0846806940F0F4
:1037E000040088610846806900F00400019000BF71
:1037F00000BF48150290022003900320059002A903
:103800000D48FEF73DFB4FF48060029000200390CE
:10381000049002A90848FEF733FB00221146252038
:10382000FEF76CFD2520FEF759FD06B010BD000027
:1038300000380140001002400008014077B581B017
:103840000446154694F83A00202850D1029800B159
:1038500015B9012004B070BD00BF94F838000128EC
:1038600001D10220F6E7012084F8380000BF029859
:10387000A062A5850020E063222084F83A001D485C
:10388000616B88621C48616BC8621C48616B08638D
:103890000020616B486302AE32682368191D2B4615
:1038A000606BFEF7F7F800BF00200090206800680A
:1038B000009020684068009000BF00BF00BF00205B
:1038C00084F8380000BF2068C06840F48070216828
:1038D000C8602068406940F00100216848612068A4
:1038E000406940F04000216848610020B2E70220B2
:1038F000B0E70000973E0008DD3E0008473E0008A4
:1039000070B504462CB940F22742054905A03EF0A7
:1039100099F9254605F1D40009F092FE70BD00002A
:1039200090640608687561727420213D204E554CE4
:103930004C00000070B504462CB940F236420549EF
:1039400005A03EF07FF9254605F1D40009F078FE88
:1039500070BD0000A8640608687561727420213D7E
:10396000204E554C4C000000F7B50446154694F81F
:10397000390020283DD1019800B10DB90120FEBDCC
:1039800000BF94F83800012801D10220F7E7012098
:1039900084F8380000BF01982062A584E5840020E7
:1039A000E063212084F839001348216B88621348B2
:1039B000216BC8621248216B08630020216B4863A9
:1039C00001AE23681A1D31682B46206BFEF762F8A2
:1039D0006FF040002168086000BF002084F83800C4
:1039E00000BF2068406940F08000216848610020E5
:1039F000C5E70220C3E70000EB3E0008213F0008B6
:103A0000473E000870B504462CB94FF48B62054957
:103A100005A03EF017F9254605F1D40000F0D8FCCA
:103A200070BD0000D5640608687561727420213D80
:103A3000204E554C4C0000007047000008B5084966
:103A40000968C9084FF47A72B1FBF2F14143009161
:103A500000BF00BF00994A1E00920029F9D108BD9D
:103A60000000002070B505466C6A2068406820F0B0
:103A7000030021684860606D40F01000606501201F
:103A800084F851002046FEF7F3FF70BD70B5044680
:103A9000656A2846FFF713FA70BD70B50446656A7B
:103AA0002846FFF72EFD70BD70B50446656A2846AE
:103AB000FFF729FD70BD70B505466C6AFEF78EFBF9
:103AC00006462868006800F0200020282BD02068D7
:103AD000406820F0200021684860A06850B9606804
:103AE000B0F5827F06D12068406820F0030021688D
:103AF000486005E02068406820F0010021684860C7
:103B000032466421204600F085F808B12020606527
:103B10000020E087012084F85100606D18B1204634
:103B2000FEF7A6FF70BD2046FFF7C8F900BFF9E712
:103B3000F8B505466C6AFEF751FB06462868006832
:103B400000F0200020282DD02068406820F02000C0
:103B5000216848602068406820F0020021684860C1
:103B600032466421204600F091F818B1606D40F0B3
:103B700020006065A06850B900BF00200090206858
:103B8000C068009020688068009000BF00BF0020DF
:103B9000E086012084F85100606D18B12046FEF7E0
:103BA00067FFF8BD2046FFF7ABFC00BFF9E770B533
:103BB00005466C6AFEF712FB06462868006800F0AE
:103BC0002000202821D02068406820F020002168B3
:103BD000486032466421204600F058F818B1606D04
:103BE00040F0200060652068406820F003002168F4
:103BF00048600020E086E087012084F85100606D75
:103C000018B12046FEF734FF70BD2046FFF77AFC5E
:103C100000BFF9E7F8B504460E4615466068B0F5F2
:103C2000827F0DD1A068B0F5004F03D0A068B0F539
:103C3000806F05D12068006820F04000216808608E
:103C40006068B0F5827F11D1A068B0F5806F0DD1AA
:103C50003346002201212046009500F02BF898B150
:103C6000606D40F0200060650320F8BD33460022FF
:103C700080212046009500F01DF828B1606D40F0CD
:103C8000200060650320F0E70020EEE7F8B5044669
:103C90000D4616462B46002280212046009600F055
:103CA00009F828B1606D40F0200060650320F8BD80
:103CB0000020FCE72DE9F84F04460D4690461E46CD
:103CC000DDF82890FEF78AFAA0EB0900371AFEF714
:103CD00085FA82462C480068C0F3CB3078430090C8
:103CE00045E0701C002842D0FEF778FAA0EB0A00ED
:103CF000B84200D2A7BB2068406820F0E0002168ED
:103D000048606068B0F5827F0DD1A068B0F5004FC3
:103D100003D0A068B0F5806F05D12068006820F05E
:103D2000400021680860A06AB0F5005F0DD100BFB7
:103D30002068006820F4005021680860206800684E
:103D400040F400502168086000BF012084F8510051
:103D500000BF002084F8500000BF0320BDE8F88FAA
:103D6000FFE7009800B900270098401E00902068E7
:103D700080682840A84201D1012000E00020404591
:103D8000AFD10020EAE700000000002010B540F0AD
:103D90001DF94FF0E020006900F4803008B1FEF713
:103DA0002BFA43F089FE40F03BF910BD00B58FB00F
:103DB000282105A8FCF71DFB14216846FCF719FB18
:103DC0000120059000040690002007900120099032
:103DD00002200C90C1030D914FF4E0110E9105A843
:103DE000FEF714FC18B123210CA000F0D5F90F2028
:103DF000009002200190002002904FF48060039018
:103E00000020049002216846FEF7CAFA18B130215A
:103E100002A000F0C1F90FB000BD00002E2E5C62C0
:103E20006F6172645C626F6172642E6300000000F7
:103E3000704770B505466C6A0020E085E084204636
:103E4000FFF79AFB70BD70B506460025746A2068BE
:103E50004069C0F3C01594F83900212805D125B177
:103E60000020E084204600F082F820684069C0F31A
:103E7000801594F83A00222805D125B10020E0856C
:103E8000204600F054F8E06B40F01000E06320465C
:103E9000FFF772FB70BD70B505466C6A2868006854
:103EA00000F02000B0B90020E0852068C06820F450
:103EB00080702168C8602068406920F00100216896
:103EC00048612068406920F0400021684861202056
:103ED00084F83A002046FFF713FD70BD70B5044624
:103EE000656A2846FFF726FD70BD70B505466C6A09
:103EF0002868006800F0200070B90020E084206885
:103F0000406920F08000216848612068C06840F066
:103F100040002168C86002E02046FFF773FD70BDD5
:103F200070B50446656A2846FFF786FD70BD0168D6
:103F3000C96821F490710268D1600168496921F073
:103F4000010102685161202180F83A10704710B5D4
:103F500004462068C06820F040002168C860202026
:103F600084F839002046FFF74DFD002010BD0168A0
:103F7000C96821F0C0010268D160202180F83910A1
:103F8000704770B5044694F83A00222847D1A068DB
:103F9000B0F5805F0CD1206950B90025A66A206871
:103FA0004068C0F308003080A06A801CA06215E061
:103FB000A56A0026A068B0F5805F03D0A06828B984
:103FC000206918B920684068287004E020684068BB
:103FD00000F07F002870A06A401CA062E08D401EA7
:103FE00080B2E085C8B92068C06820F02000216850
:103FF000C8602068C06820F480702168C8602068AC
:10400000406920F0010021684861202084F83A00CE
:104010002046FFF775FC002070BD0020FCE7022061
:10402000FAE7000070B504462168096921F440519F
:10403000E2681143226811612269A1681143626933
:1040400041EA02052168C96841F20C6291432943A3
:104050002268D1602168496921F44071A269114345
:10406000226851612D4A2168914202D1FEF774FA0B
:1040700001E0FEF761FA00EBC00101EB001162689C
:104080009200B1FBF2F100EBC00202EB0012636898
:104090009B00B2FBF3F26423B2FBF3F202EBC20328
:1040A00003EB0212A1EB8201322202EB0111642226
:1040B000B1FBF2F101F0F00100EBC00202EB0012E3
:1040C00063689B00B2FBF3F26423B2FBF3F201EBF3
:1040D000021200EBC00101EB001163689B00B1FB11
:1040E000F3F100EBC00303EB00136668B600B3FB0B
:1040F000F6F36426B3FBF6F303EBC30606EB0313F8
:10410000A1EB8301322303EB01116423B1FBF3F133
:1041100001F00F0111442268916070BD0038014028
:10412000014691F83900212828D18868B0F5805FD0
:104130000BD1086948B90A6A1088C0F308000B68F7
:104140005860086A801C086205E00B6A581C086207
:1041500018780B685860C88C401E80B2C88458B963
:104160000868C06820F080000B68D8600868C068E4
:1041700040F040000B68D860002070470220FCE748
:1041800010B53FF023FF03485CF028FE3FF048FFE6
:1041900010BD0000EC06002004460D4600BF07A03D
:1041A0003FF05AFF2A4621460AA03FF055FF11A0D2
:1041B0003FF052FF00BF00BFFEE700001B5B333142
:1041C0006D5B452F6472765F636F6D6D6F6E5D2002
:1041D000000000004572726F725F48616E646C652A
:1041E000722061742066696C653A2573206E756D66
:1041F0003A2564001B5B306D0A0000000FB47CB5EB
:104200000C0009AD01D0611E00E00021CDE90001E4
:10421000064B6A462946089800F05CFB002C02D049
:10422000009A002111707CBC5DF814FB91550008C8
:104230007CB50C001D461646014601D0601E00E00C
:104240000020CDE90010064B6A462946304600F0B2
:1042500041FB002C02D0009A002111707CBD0000AF
:104260009155000802480068C0F302207047000022
:104270000CED00E010B5002804DB0A07130E054A18
:10428000135406E00A07140E034A00F00F031B1F25
:10429000D45410BD00E400E018ED00E00048704781
:1042A000F005002001460A46C81701EB9070801007
:1042B000A1EB800070B9642091FBF0F300FB1310B8
:1042C00030B94FF4C87091FBF0F300FB131008B93C
:1042D000012070470020FCE702E008C8121F08C157
:1042E000002AFAD170477047002001E001C1121F77
:1042F000002AFBD1704702460020704770B5044683
:104300000D462DB12069284010B94FF0FF3070BD27
:10431000264601207169886029462046FFF7EBFF99
:10432000F5E708B509E00021009102E00099491C79
:10433000009100991429F9D3401E0028F3D108BD3B
:104340002DE9F04106463446256C25B9BA221A49B2
:104350001AA03DF077FCFBF711FF074604F11400AB
:1043600043F0DAFC208A20F00200208220463FF051
:1043700002FF2869A04207D0214668683FF09EFEF0
:10438000208A40F001002082286978B9686B90F893
:10439000340000F00700022808D1686B43F006FAE9
:1043A0003846FBF7EFFE41F0BBF902E03846FBF779
:1043B000E9FEBDE8F081000080660608717565754C
:1043C0006520213D2052545F4E554C4C00000000AA
:1043D0002DE9F04104462CB940F241420A490BA0B4
:1043E0003DF030FCA4F1D405FBF7C8FE0746D5F834
:1043F0008C0046683846FBF7C5FE1EB904212046EE
:104400003FF008FABDE8F081C4640608736572697C
:10441000616C20213D2052545F4E554C4C000000F1
:104420002DE9FF5F82B00021DDE90430020DDDF8E7
:1044300040B0034318D044F61050A2F2FF3242437A
:104440001514119801281FD0A5EB0B00401C5FEA42
:10445000000A4FF000064E4FDFF83891B046504644
:1044600015D5CAF1000413E0119801244AA30128CC
:1044700001D16FEA0B010298119AC0E90031C0E93D
:10448000024206B0BDE8F09FCBF10000DFE7044632
:104490000021404A491842EB0450CDE9001012E0D7
:1044A000E00707D032463B4640464946FCF7FBFA58
:1044B0008046894632463B4610461946FCF7F3FAD9
:1044C00006460F466410002CEAD1DDE90401DDE95F
:1044D0000023BAF1000F06DAFCF7E5FA42464B4634
:1044E000FCF7E1FA05E0FCF7EEFC42464B46FCF730
:1044F000EAFC04460E460022284BFCF77DFB03D85D
:104500004FF0FF30014607E00022254B20463146A0
:10451000FCF722FAFCF752FD102409E0002C0ADB1C
:104520000A220023FBF7A4FE039B30321A55641EB7
:1045300050EA0102F2D1641C039AC4F1110314443D
:10454000119A012A03D0012208430DD10AE0084341
:1045500004D000204FF0110B119072E7A3EB0B0574
:104560006D1E0DE05B4504DD4FF0000205F1010515
:1045700004E003DA4FF00002A5F10105002AECD0B7
:1045800002981199C0E90231C0E9004579E70000BD
:10459000000014400000F03F300000000000F04335
:1045A0000000E03F70B504462F212046FBF79AFF3C
:1045B000051E01D1204670BD681C0546FBE70000C2
:1045C00010B543F041F928B14FF0FF31024840F0F7
:1045D000D1FC10BD0020FCE71C0E002010B50446E5
:1045E0002CB14FF4AC62054905A03DF02BFB43F024
:1045F0002BF910B1064840F0CDFB10BD5B700608EA
:104600006C6576656C203D3D2052545F454F4B00F4
:104610001C0E002070B504462068A0F1140500BFF0
:1046200000BF284643F0C2F8002070BD70B50546B3
:104630000EE0FBF7A3FD06462868A0F114044FF036
:10464000FF302063204643F0B1F83046FBF79AFD77
:1046500028463FF06EFD0028EBD0002070BD000022
:104660002DE9F04105460C469046204643F092F96C
:10467000B8F1000F03D0B8F1010F23D105E004F128
:10468000140128463FF036FD22E02E680FE0A6F127
:10469000140794F8350097F83510884206DA04F1CB
:1046A000140107F114003FF025FD02E03668AE4228
:1046B000EDD100BFAE4204D104F1140128463FF011
:1046C00019FD05E0A322044904A03DF0BBFA00BF98
:1046D00000BF0020BDE8F0811E6E0608300000001B
:1046E00010B5044604F114003FF0E2FC002010BDB8
:1046F00030380A2801D2012070470020704700009E
:104700002DE9F0438BB005468946174600242DB9A4
:1047100040F20B121D491EA03DF094FA2FB94FF440
:1047200086721A491BA03DF08DFA00E0641C285DDA
:10473000202804D0285D092801D04C45F6D324B99F
:104740004FF0FF300BB0BDE8F0832146284635F02E
:104750000FFF064616B94FF0FF30F3E7282200217D
:1047600001A840F0ACF901AA4946284635F090FF6F
:104770008046B8F1000F02D14FF0FF30E2E701A907
:104780004046B04738600020DCE70000747406083B
:10479000636D640072657470000000002DE9F041E3
:1047A0000546884616462F4627B93822084909A0EB
:1047B0003DF048FA34461CB94FF0FF30BDE8F081B7
:1047C00062882188386C0368284698470020F5E7FE
:1047D0008A67060870696E20213D2052545F4E554D
:1047E0004C4C00002DE9F0470546894616461F4609
:1047F000A846B8F1000F04D119220A490AA03DF0D9
:1048000021FA34460CB1042F02D00020BDE8F08715
:104810002188D8F840008268284690476080384652
:10482000F4E700007567060870696E20213D20528C
:10483000545F4E554C4C00002DE9F0470546894623
:1048400016461F46A846B8F1000F04D128220A498F
:104850000AA03DF0F7F934460CB1042F02D0002035
:10486000BDE8F08762882188D8F840004368284670
:1048700098473846F4E700007F67060870696E20A5
:10488000213D2052545F4E554C4C00002DE9F04123
:1048900007460E461C203FF093FC04460CB9BDE8C9
:1048A000F0813546B6F904002061201D40600060AB
:1048B00000BFE86820600648E0602869A061656183
:1048C0002C612146384643F09FFE00BFE7E7000019
:1048D000FD4200082DE9FF4F95B09A4688460646EE
:1048E0000025EEE1252877D100242746F94A012149
:1048F000039400E0044316F8013F203B01FA03F063
:104900001042F7D130782A2811D06FF02F03307879
:10491000A0F13002092A16D8039A44F0020402EBEF
:10492000820203EB42021044761C0390EFE758F832
:10493000042B0392002A03DA504244F400540390FB
:1049400044F00204761C30782E2816D116F8010F98
:1049500044F004042A280DD06FF02F023078A0F123
:104960003003092B09D807EB870302EB4303C71871
:10497000761CF3E758F8047B761C30786C280FD04F
:1049800006DC4C2817D068280DD06A2814D104E022
:10499000742810D07A280FD10DE044F400140AE0F6
:1049A00044F4801401E044F440147278824202D14D
:1049B00004F58014761C761C307866280BD013DC46
:1049C000582877D009DC002875D04528F6D046282D
:1049D000F4D047281AD193E118E0632835D0642831
:1049E00079D0652812D18BE1702873D008DC672854
:1049F000F1D069286FD06E280DD06F2806D1ACE0B9
:104A000073282CD0752874D0782853D05246179923
:104A100090476D1C54E1C4F30250022809D00328CA
:104A20000DD0D8F8001004280DD00D6008F104084E
:104A300046E1D8F80010EA17C1E90052F6E7D8F8C5
:104A400000100D80F2E70D70F0E718F8041B8DF8E8
:104A5000001000208DF80100EB46012003E058F81B
:104A600004BB4FF0FF3061074FF0000102D40DE0AE
:104A700009F101018946B9420FDA8145F8DB1BF8DB
:104A800009100029F4D108E009F1010189468142A9
:104A9000FADB1BF809100029F6D103985346A0EB66
:104AA000090721463846179A00F080FA284400EB9F
:104AB000090507E044E008E10DE01BF8010B524650
:104AC00017999047B9F10109F7D253462146384664
:104AD000179AF2E039E00A21C4F302524FF0000BBA
:104AE0000091022A06D058F8040BC117032A09D0F6
:104AF0000AE023E008F1070020F00702F2E80201D3
:104B0000904605E000B2C117042A01D140B2C11796
:104B1000002906DA0A460021404261EB02012D22FB
:104B200002E0220504D52B228DF80420012203E0A7
:104B3000E20701D02022F7E7914657E00A2100E082
:104B400010214FF0000B00910BE010214FF0000BF3
:104B500044F004040827009103E008204FF0000B04
:104B60000090C4F30252022A05D058F8040B002129
:104B7000032A08D008E008F1070020F00702F2E855
:104B80000201904603E080B2042A00D1C0B24FF087
:104B9000000922072AD53278702A07D0DDF800C034
:104BA0008CF0100C5CEA0B0C05D00EE040228DF866
:104BB0000420012208E050EA010306D030238DF8DA
:104BC00004308DF8052002229146009B83F00803F3
:104BD00053EA0B030AD150EA010201D1620705D55D
:104BE00030228DF804204FF001097F1E3278582AB8
:104BF00004D039A20C920CAA02920BE03BA2F9E776
:104C00005B46009AFBF734FB0C9B9B5C029A521E9E
:104C10000292137050EA0102F2D1029804A9081A14
:104C200000F1200B600702D524F4803400E0012756
:104C30005F4502DDA7EB0B0000E0002000EB0B015D
:104C4000009003984944401A0390E00306D4534669
:104C50002146179A039800F0A9F90544002706E0B9
:104C600001A85246C05D179990476D1C7F1C4F45A7
:104C7000F6DBE0030CD553462146179A039800F063
:104C800095F9054404E030205246179990476D1C71
:104C90000099481E00900029F5DC08E0029802996E
:104CA00052460078491C0291179990476D1CBBF140
:104CB0000001ABF1010BF1DC5BE100F065F90544AB
:104CC000761C307800287FF40DAE19B02846BDE878
:104CD000F08F000009280100303132333435363787
:104CE0003839616263646566000000003031323338
:104CF00034353637383941424344454600000000D8
:104D0000600700D4062708F1070020F00700F0E84C
:104D10000223804603F0004C5FEA0C0001D097A00C
:104D200009E0200501D596A005E0E00701D095A097
:104D300001E0AFF24C001390307823F00043652877
:104D40000CD006DC452809D046281DD047287FD145
:104D50003BE0662818D067287AD136E00021112F71
:104D600001DB112000E0781CCDE9000104A90CA8AA
:104D7000FFF756FBDDE90D010C9A4FF0000B07F130
:104D80000109109200914EE04FF000400097CDE9EC
:104D9000011004A90CA8FFF743FBDDE90D020C9BF1
:104DA0000F994FF0000B91461093009211B9791CA6
:104DB00000EB0109B7EB090003D4C0F1FF3B07F199
:104DC0000109A9EB0700019042E0012F00DA012759
:104DD0000021112F01DD112000E03846CDE900014E
:104DE00004A90CA8FFF71CFBDDE90D010C9A00914A
:104DF0004FF0000BB946109221070FD4009A4A4594
:104E000003DA914601E0A9F10109B9F1010F05DDCD
:104E1000109AA9F10101515C3029F4D0B84202DAAC
:104E200010F1040F03DA0121CDE9011010E0002890
:104E300003DC8344A9EB000102E0411C494500DD8D
:104E40008946A0EB0B00401C01904FF000400290FF
:104E5000200705D40198484502DB4FF0FF30019050
:104E600000208DF84B0002980DF14B07B0F1004F78
:104E700025D002200C902B200D90029800280CDAEF
:104E8000404202902D200D9007E00A210298FBF786
:104E9000CBFE3031029007F8011D0C99481E0C9092
:104EA0000029F2DC02980028EFD1791E0D980870D5
:104EB000307800F0200040F0450007F8020D11A8FE
:104EC000C01BC01D02901398007800B1012000EBB8
:104ED0000901019801EBE071029801440398401A1E
:104EE000401E0390E00306D453462146179A0398C8
:104EF00000F05CF805441398007818B152461799F1
:104F000090476D1CE00323D553462146179A03981A
:104F100000F04CF805441BE0BBF1000F07DB0098E4
:104F2000584504DD1098179910F80B0001E0179907
:104F300030205246904701980BF1010B401E05F1BD
:104F40000105019004D12E205246179990476D1CFF
:104F5000B9F10001A9F10109DEDC05E017F8010B48
:104F60005246179990476D1C0299481E02900029DD
:104F7000F4DC53462146179A03989EE62D00000064
:104F80002B000000200000002DE9F0410446002520
:104F90001E461746880404D405E039462020B04751
:104FA0006D1C641EF9D52846BDE8F0812DE9F0415D
:104FB000044600251E469046C80301D5302700E070
:104FC0002027880404D505E041463846B0476D1CCB
:104FD000641EF9D52846BDE8F081000010B53FF009
:104FE00011F808B1054810BD42F02EFC044614B17A
:104FF00004F13000F7E70148F5E70000A8010020C0
:1050000070B5044624B95F22134914A03CF01AFE7F
:10501000A06A0078232809D1A16AE069884205D9ED
:10502000D4E90A010844E16988420AD2214610A065
:105030003FF012F8FBF7A2F8054600BF002DFDD1A6
:1050400008E0A06A2030E169814203D821460FA020
:105050003FF002F870BD0000FC70060874687265CD
:10506000616420213D2052545F4E554C4C0000009D
:105070007468726561643A257320737461636B2090
:105080006F766572666C6F770A0000007761726EEA
:10509000696E673A20257320737461636B206973AE
:1050A00020636C6F736520746F20656E64206F667B
:1050B00020737461636B20616464726573732E0A7C
:1050C0000000000070B5044606480068FBF73CF895
:1050D000451E054850F83500A0F1140625603046FD
:1050E00070BD000080020020C00E002010B50948ED
:1050F000006868B900BF08A03EF0AEFF0A483EF065
:10510000ABFF0AA03EF0A8FF00BF012001490860E4
:1051100010BD0000700100201B5B33336D5B572F07
:10512000554152545D2000002C1D07081B5B306D5B
:105130000A0000002DE9F04704460F46904604B1EE
:105140002FB94FF4F172404940A03CF07BFDFBF7D2
:1051500015F88246A06CC0F38F2000282DD10026C0
:10516000E56C2DB94FF4F672374943A03CF06AFD67
:105170002868012813D001202860206C006928B914
:1051800040F2F112304941A03CF05CFD206C01235B
:1051900042463946D0F810C02046E04701E06FF0A3
:1051A00006065046FAF7EEFF16B94046BDE8F0870E
:1051B000304641F0FBF90020F8E7E56C0026204678
:1051C0003DF094FE81462DB940F201221E4939A0DE
:1051D0003CF038FDC84501DA464600E04E46E88816
:1051E0008119A06CC0F38F20814207D2EA88286819
:1051F0008118324638463FF0F6FB1CE0A06CC0F345
:105200008F20EB88C21A2868C11838463FF0EBFBA4
:10521000EB8803EB060CA36CC3F38F23ACEB030208
:10522000A36CC3F38F233B44B5F806C0A3EB0C007B
:1052300029683FF0D8FB314620463DF05DFE5046E0
:10524000FAF7A0FF3046B1E7926806082873657246
:1052500069616C20213D2052545F4E554C4C2920F1
:10526000262620286461746120213D2052545F4E1F
:10527000554C4C290000000072785F646D6120215C
:105280003D2052545F4E554C4C00000073657269CE
:10529000616C2D3E6F70732D3E646D615F74726141
:1052A0006E736D697420213D2052545F4E554C4CF5
:1052B0000000000072785F6669666F20213D205211
:1052C000545F4E554C4C00002DE9F047044688468B
:1052D0001646256D4FF0FF3332464146281D3DF0FE
:1052E0004BF90746CFB9FAF749FF814628680128EC
:1052F0000DD0012028604846FAF744FF206C0223B5
:1053000032464146D0F810C02046E04702E0484609
:10531000FAF738FF3046BDE8F087384641F046F9E5
:105320000020F8E770B50546EC6C2CB94FF4BA7262
:105330000F4910A03CF086FCA088E188884207D184
:10534000A06808B9002070BDA86CC0F38F20FAE7F0
:10535000A088E188884203DDA088E188401AF2E74E
:10536000E088A188411AA86CC0F38F20401AEAE7B0
:105370003B68060872785F6669666F20213D20529F
:10538000545F4E554C4C00002DE9F04706460F4641
:1053900015462EB94FF488721E491FA03CF052FCEE
:1053A000A846F46C2CB94FF48A721A491FA03CF03D
:1053B00049FC28E0FAF7E2FE8246E088A1888842AC
:1053C00005D1A06818B95046FAF7DCFE1DE0E18867
:1053D000206810F80190E088401CE080E188B06C03
:1053E000C0F38F20814201DB0020E080A06801280B
:1053F00001D10020A0605046FAF7C4FE87F8009063
:105400007F1C6D1E00BF002DD4D100BFA8EB05008E
:10541000BDE8F0871D68060873657269616C20211C
:105420003D2052545F4E554C4C00000072785F6630
:1054300069666F20213D2052545F4E554C4C000050
:105440002DE9F04104460E4615462CB94FF4A072E2
:105450001B491C483CF0F6FBA846276D2FB94FF4BA
:10546000A272174918A03CF0EDFB23E030780A281F
:1054700010D1207E00F0400060B1206C0D218268C8
:1054800020469047401C28B94FF0FF3138463CF089
:105490007DFC0FE03178206C826820469047401CEC
:1054A00028B94FF0FF3138463CF070FC02E0761C22
:1054B0006D1E00BF002DD9D1A8EB0500BDE8F0811D
:1054C0002C68060828550008747820213D20525485
:1054D0005F4E554C4C0000002DE9F04106460F464A
:1054E000144626B9DA220F490FA03CF0ABFBA046C8
:1054F00011E0306CC168304688470546681C00B929
:105500000BE03D707F1C641E307E00F0400010B147
:105510000A2D00D101E0002CEBD100BFA8EB040064
:10552000BDE8F081FD67060873657269616C202132
:105530003D2052545F4E554C4C0000002DE9F04187
:1055400004460E46154624B9F1220F490F483CF097
:1055500079FB2F4612E030780A2808D1207E00F02F
:10556000400020B1206C0D218268204690473178A0
:10557000206C826820469047761C6D1E002DEAD173
:10558000781BBDE8F08100000D680608285500086A
:105590004A68002A06D00A68531C0B6010704868DD
:1055A000401E48607047034611B1012902D100E056
:1055B00000E000BF00BF0020704700002DE9F0416F
:1055C0000446884616461F46254625B9162209492F
:1055D00009A03CF037FBE86E20B9172205490AA064
:1055E0003CF030FB3B4632460021E86E41F00AFDBC
:1055F000BDE8F081CA69060862757320213D20521A
:10560000545F4E554C4C00006275732D3E6F776EA3
:10561000657220213D2052545F4E554C4C000000D5
:105620002DE9F0410446884616461F46254625B911
:105630002422094909A03CF005FBE86E20B9252287
:1056400005490AA03CF0FEFA3B4600223146E86ECE
:1056500041F0D8FCBDE8F081DF690608627573206F
:10566000213D2052545F4E554C4C00006275732D05
:105670003E6F776E657220213D2052545F4E554C2F
:105680004C000000034611B1012902D100E000E006
:1056900000BF00BF002070472DE9F0410446884656
:1056A00016461F46254625B96822094909A03CF03F
:1056B000C9FA286C20B9692205490BA03CF0C2FA4E
:1056C0003B4632460021284641F09CFCBDE8F08173
:1056D0000C6A060864657669636520213D20525492
:1056E0005F4E554C4C0000006465766963652D3E45
:1056F00062757320213D2052545F4E554C4C000082
:105700002DE9F0410446884616461F46254625B930
:105710007622094909A03CF095FA286C20B9772235
:1057200005490BA03CF08EFA3B4600223146284644
:1057300041F068FCBDE8F081206A0608646576697E
:10574000636520213D2052545F4E554C4C000000B3
:105750006465766963652D3E62757320213D205234
:10576000545F4E554C4C00002DE9F04107468846E9
:1057700014461D46069E00BF07A03EF06DFC334652
:105780002A4621460AA03EF067FC0CA03EF064FCCD
:1057900000BFBDE8F08100001B5B306D5B442F6DE6
:1057A000626564746C732E636C6E745D200000001F
:1057B00025733A253034643A202573001B5B306D25
:1057C0000A00000070B542F03FF80446FAF7D6FC34
:1057D0000546204640F0A0F804F14C0042F09CFA47
:1057E000042084F83400204641F066FE2846FAF78B
:1057F000C9FC3FF095FF70BD2DE9FC5F04468B4668
:1058000015461E46DDE90C9ADDE90E7804F1140018
:105810004060006000BF25626662C4F82890C4F84A
:105820002CA02321D4E90A023FF049F9D4E90A3C2B
:1058300063441A1F184BD4E908013EF001FBE061F4
:10584000202F04DBBE22154915A03CF0FBF93034B3
:1058500067710020A060E0602074C4F81480C4F870
:10586000188020602071A064E064303C00902346E2
:10587000144A2146019004F14C0042F0BDFA00BFE9
:105880001148006818B120460F490968884700BFD1
:105890000020BDE8FC9F0000C55700085A710608AB
:1058A0007072696F72697479203C2052545F544859
:1058B000524541445F5052494F524954595F4D41FE
:1058C00058000000CD580008A002002070B5054621
:1058D0002C4624B98722164916A03CF0B3F994F857
:1058E000340000F00700022804D08822104916A0D6
:1058F0003CF0A8F920463FF0CDFD012804D08922D4
:105900000B4920483CF09EF9FAF738FC06466FF048
:105910000100206304F114003EF03FFC20463FF0FC
:10592000ADFF3046FAF72EFC3FF0FAFE70BD0000E6
:105930004A71060874687265616420213D205254E2
:105940005F4E554C4C000000287468726561642DF0
:105950003E7374617420262052545F54485245416E
:10596000445F535441545F4D41534B29203D3D20EA
:1059700052545F5448524541445F53555350454E2D
:10598000440000003C2407082DE9F04704460E4679
:1059900017469846DDF8209084F80990607A20F048
:1059A00001006072E66127620020A062C4F82480D2
:1059B000002506E004F1140101EBC5003EF07BFB7D
:1059C0006D1C012DF6DBBDE8F08770B5054600249F
:1059D00006E005F1140101EBC4003EF0E7FB641C96
:1059E000012CF6DB70BD00001048A0F114014860E6
:1059F00014388161143008601438486141F2FF3076
:105A0000886041F6FF1109481438C1610120074937
:105A100014390861012105481438416204490860BD
:105A2000084600680349086070470000CC0B00205E
:105A30008001002084010020F7B582B005460C46A5
:105A4000FAF79CFB074620463EF095FB208A20F0A3
:105A500001002082049838BB2869A0420AD0214660
:105A600068683EF02BFB208A40F00100208225640C
:105A7000002601E06FF00606286978B9686B90F897
:105A8000340000F00700022808D1686B41F08EFE58
:105A90003846FAF777FB3FF043FE02E03846FAF764
:105AA00071FB304605B0F0BD6FF0004104988842AC
:105AB0002BD2207C00F0020050B104F1140042F01F
:105AC000B1FA04AA002104F1140042F095F80EE0A6
:105AD000042004992346104ACDE900100FA104F1D7
