:020000040800F2
:10000000E0130020D5010008DD010008D902000836
:10001000E1010008E3010008E5010008000000001C
:10002000000000000000000000000000E7010008E0
:10003000E90100080000000027020008032F000863
:10004000EF010008EF010008EF010008EF010008D0
:10005000EF010008EF01000897070008E507000816
:10006000F7070008090800081B080008EF0100084E
:10007000EF010008EF010008EF010008EF010008A0
:10008000EF010008EF010008EF010008EF01000890
:10009000EF010008EF010008EF0100082D0800083B
:1000A000EF010008EF010008EF010008EF01000870
:1000B000EF010008EF010008EF010008EF01000860
:1000C000EF010008EF010008EF010008EF01000850
:1000D000EF01000889350008EF010008EF01000872
:1000E000A9070008EF010008EF010008EF01000870
:1000F000EF010008EF010008EF010008EF01000820
:10010000EF010008EF010008EF010008EF0100080F
:10011000EF010008EF010008EF010008EF010008FF
:10012000EF010008EF010008EF010008EF010008EF
:10013000EF010008EF010008EF010008EF010008DF
:10014000EF010008EF010008EF010008EF010008CF
:10015000EF010008EF010008EF010008EF010008BF
:10016000EF010008EF010008EF010008EF010008AF
:10017000EF010008EF010008EF0100080000000097
:10018000EF010008EF010008EF010008EF0100088F
:10019000EF010008EF010008EF010008EF0100087F
:1001A000EF010008EF010008EF010008DFF810D0B0
:1001B00000F0C8F90048004781060008AFF300804E
:1001C000E0130020002804D090FAA0F0B0FA80F0EC
:1001D000401C70470648804706480047FEE7FEE798
:1001E000FEE7FEE7FEE7FEE7FEE7FEE7FEE7FEE7E7
:1001F000F92F0008AD010008EFF3108072B67047C8
:1002000080F310887047424A1368012B04D04FF0E6
:10021000010313603F4A10603F4A11603F484FF0AE
:10022000805101607047EFF3108272B63848016860
:1002300051B34FF0000101603648016891B1EFF30E
:1002400009811EF0100F08BF21ED108B21E9F00F7E
:100250004FF000041EF0100F08BF012441F8044DB8
:10026000006801602C490968096808C9B1E8F00F05
:10027000002B18BFB1EC108B81F309884EF0100EE3
:10028000002B18BF2EF0100E82F310884EF0040ED3
:10029000704721490860EFF3148222F0040282F3D0
:1002A00014881C494FF00000086019494FF0010004
:1002B00008601B481B49D0F8002041EA0201016098
:1002C00016484FF08051016017480068006880F3BD
:1002D000088861B662B670471EF0040F0CBFEFF3DA
:1002E0000880EFF3098020E9F00F40F804ED40F8B2
:1002F00004ED1EF0040F0CBF80F3088880F309881A
:1003000000B509F08FFB5DF804EB4EF0040E70476A
:10031000140000200C0000201000002004ED00E07C
:1003200020ED00E00000FFFF08ED00E02DE9F05FA8
:100330000546002092469B46884606468146402454
:100340001BE0284641464746224600F0B2F8534695
:100350005A46C01A914110D311461846224600F061
:1003600099F82D1A67EB01084F462246012000211B
:1003700000F090F817EB00094E41201EA4F1010493
:10038000DFDC484631462A464346BDE8F09F40EA56
:1003900001039B0703D009E008C9121F08C0042A03
:1003A000FAD203E011F8013B00F8013B521EF9D2EA
:1003B0007047D2B201E000F8012B491EFBD2704712
:1003C0000022F6E710B513460A4604461946FFF721
:1003D000F0FF204610BD421E12F8013F002BFBD15A
:1003E00011F8013B02F8013B002BF9D1704710B521
:1003F000044604E00B7800F8013B03B1491C521E8F
:10040000F8D2204610BD421C10F8011B0029FBD178
:10041000801A704710B5002200E0521C835C8C5C8F
:10042000A34201D1002BF8D1D8B2E1B2401A10BDDD
:1004300030B504460020034600E05B1C934203D223
:10044000E05CCD5C401BF8D030BD034611F8012BB9
:1004500000F8012B002AF9D11846704730B505463F
:100460000020034600E05B1C934205D2EC5CC85CB4
:10047000201A01D1002CF6D130BD70B5064603F02C
:10048000ADF8046805460A220021304600F021F844
:100490002C6070BD202A04DB203A00FA02F1002013
:1004A00070479140C2F1200320FA03F319439040B2
:1004B0007047202A04DB203A21FA02F0002170471D
:1004C00021FA02F3D040C2F12002914008431946BC
:1004D00070472DE9F04791460F46804604460026B6
:1004E00014F8015B2DB100F03FF80068405DC007D3
:1004F000F6D12B2D02D02D2D18D0641E4A46394638
:10050000204600F035F827B13968A14201D1C7F87B
:10051000008071054FF002040BD54042002803DD36
:1005200003F05CF80460A007BDE8F08746F480663D
:10053000E4E70028F8DA03F051F804606FF00040B7
:10054000F2E70000064C074D06E0E06840F00103CA
:1005500094E8070098471034AC42F6D3FFF72AFE20
:1005600094F90008B4F900080048704754EE0008F8
:100570002DE9F05F82460078002715468B460AF188
:100580000104B946302801D09DB113E014F8010BE5
:100590000127782803D0582801D045B10AE00DB1D1
:1005A000102D07D10027102514F8010B02E00825B3
:1005B00000E00A250026B0460EE005FB080005FB1A
:1005C00006F1012701EB10461FFA80F8B6F5803FCF
:1005D00000D3B94614F8010B294600F018F800289A
:1005E000EBDABBF1000F05D00FB1641E00E05446FA
:1005F000CBF80040B9F1000F06D002F0EFFF022166
:100600000160C81EBDE8F09F48EA0640FAE73A28B4
:1006100000D2303820F02002412A01D3A2F1370065
:10062000884201D34FF0FF30704770B58C1810F836
:10063000015B15F0070301D110F8013B2A1106D127
:1006400010F8012B03E010F8016B01F8016B5B1E41
:10065000F9D12B0705D40023521E0DD401F8013B1C
:10066000FAE710F8013BCB1A921C03E013F8015B88
:1006700001F8015B521EF9D5A142D8D3002070BD0C
:1006800010B50CF0CEFA002010BD0000014608782D
:1006900010381823B0FBF3F20848805CC865032AC1
:1006A00005D908686FF30900001D886503E0086834
:1006B0006FF309008865886D70470000AAE20008A2
:1006C000014600208A6A8B69CBB932B1012A0DD06C
:1006D000022A03D0032A10D10EE000BFCB6A03F038
:1006E0008073B3F1807F00D1012007E0CB6AB3F1C2
:1006F000C07F00D1012001E000E000BF34E08B6941
:10070000B3F5005F1AD132B1012A07D0022A03D013
:10071000032A11D10AE000BF01200EE0CB6A03F0EA
:100720008073B3F1807F00D1012006E0CB6AB3F182
:10073000C07F00D1012000E000BF15E032B1012AE6
:1007400005D0022A04D0032A0CD103E000BF00BF69
:10075000012008E0CB6A03F08073B3F1807F00D101
:10076000012000E000BF00BF704730B50468246876
:1007700024F4802405682C60046863608468402C3D
:1007800004D10468A2600468E16003E00468A16029
:100790000468E26030BD10B509F0F0FC012000F003
:1007A000CDFB09F015FD10BD10B509F0E7FC4FF4C5
:1007B000806000F0C3FB4FF4006000F0BFFB4FF41B
:1007C000805000F0BBFB4FF4005000F0B7FB4FF43B
:1007D000804000F0B3FB4FF4004000F0AFFB09F0A5
:1007E000F7FC10BD10B509F0C9FC022000F0A6FB13
:1007F00009F0EEFC10BD10B509F0C0FC042000F0BB
:100800009DFB09F0E5FC10BD10B509F0B7FC082010
:1008100000F094FB09F0DCFC10BD10B509F0AEFC53
:10082000102000F08BFB09F0D3FC10BD10B509F0CF
:10083000A5FC202000F082FB402000F07FFB802000
:1008400000F07CFB4FF4807000F078FB4FF40070F8
:1008500000F074FB09F0BCFC10BD30B5024600236B
:1008600000240868012816D013686FF30E03D1E93D
:1008700001052843CD6828430D6928434D69284365
:100880008D692843CD6928430D6A28434D6A284362
:100890000343136019E0136823F4F843D1E9070513
:1008A00028434D6A2843034354686FF30E04D1E98B
:1008B00001052843CD6828430D6928434D69284325
:1008C0008D692843044313605460002030BD024604
:1008D000506940EA4100506100207047F8B5064673
:1008E0000C461546002000900027D4E9000108437B
:1008F000A168491E40EA4110E16840EA41200090A9
:100900000098306100F046FC074609E0681C38B1E9
:1009100025B100F03FFCC01BA84201D90320F8BD5F
:10092000B06900F020002028F0D00020F7E7000098
:1009300070B50346154600220024012D1FD09A6889
:1009400002F070420868401E4E68761E40EA0616A5
:100950008868401E46EA0026C868401E46EA0036FF
:10096000088A401E46EA0046888A401E46EA00562B
:10097000087E401E46EA006002439A6022E09A68C0
:1009800011480240C868401E0603888A401E46EA95
:1009900000500243DC6804F070440868401E4E6852
:1009A000761E40EA06168868401E46EA0026088A37
:1009B000401E46EA0046087E401E46EA00600443A8
:1009C0009A60DC60002070BDFF0F0FFF70B5044619
:1009D000A56D00F0DFFB064694F83500022808D02C
:1009E0008020606500BF002084F8340000BF012033
:1009F00070BD2068006820F016002168086020683B
:100A0000406920F0800021684861206C08B9A06C22
:100A100028B12068006820F008002168086020687C
:100A2000006820F00100216808600FE000F0B2FBD0
:100A3000801B05280AD92020606500BF002084F8AB
:100A4000340000BF032084F83500D1E72068006837
:100A500000F001000028E9D194F85C103F208840A4
:100A6000A86000BF002084F8340000BF012084F893
:100A700035000020BCE7014691F83500022803D07C
:100A80008020486501207047052081F835000868FE
:100A9000006820F001000A6810600020F3E770B5DC
:100AA00004460CB9012070BD94F83500022800D12D
:100AB000F9E72068006820F0010021680860002044
:100AC0002168086021684860216888602168C860E2
:100AD000216808612120216848612046FFF7D6FD82
:100AE00005460020E06320646064A064E064206543
:100AF00094F85C103F208840A8600020606584F86E
:100B0000350000BF84F8340000BF00BFCBE7000011
:100B10002DE9F0410446002500F03CFB074614B9DE
:100B20000120BDE8F081606A00B100BF00BF002075
:100B300084F8340000BF022084F835002068006883
:100B400020F00100216808600AE000F023FBC01BD0
:100B5000052805D920206065032084F83500E0E7EA
:100B60002068006800F001000028EED120680568C8
:100B700021480540D4E901010843E168084321699F
:100B8000084361690843A1690843E1690843216A90
:100B900008430543606A042803D1D4E90B010843E4
:100BA0000543206805602068456925F00705606AEF
:100BB0000543606A04280DD1A06A0543E06A48B184
:100BC0002046FFF77DFD28B140206065012084F8B4
:100BD0003500A6E7206845612046FFF757FD064629
:100BE00094F85C103F208840B060002060650120D0
:100BF00084F83500002094E73F8010F02DE9F0479D
:100C000004460D4616461F464FF00008D4F858908B
:100C100000BF94F83400012802D10220BDE8F0871B
:100C2000012084F8340000BF94F83500012825D154
:100C3000022084F83500002060653B463246294694
:100C40002046FFF792FD94F85C103F208840C9F8D9
:100C500008002068006840F0160021680860206CD9
:100C600028B12068006840F008002168086020680A
:100C7000006840F001002168086006E000BF002025
:100C800084F8340000BF4FF002084046C6E7000079
:100C900000B587B0142102A8FFF792FB3148006825
:100CA00008B107B000BD01202E49086000BF002038
:100CB00001902D48006840F001002B49086008466B
:100CC000006800F00100019000BF00BF4FF63F0038
:100CD00002900220039000200490032005900C2035
:100CE000069002A9214800F037F90D200290022059
:100CF000039000200490032005900C20069002A988
:100D00001B4800F029F948F23710029002200390A6
:100D100000200490032005900C20069002A915489D
:100D200000F01AF94FF68070029002200390002024
:100D30000490032005900C20069002A90E4800F0B4
:100D40000BF94CF2037002900220039000200490F3
:100D5000032005900C20069002A9084800F0FCF83A
:100D600000BF9EE700000020383802400014024017
:100D7000000802400018024000100240000C02402F
:100D8000F0B50C4600250022002300219CE001263E
:100D900006FA01F504EA0502AA427CD14C4E8F08FE
:100DA00056F827308E07370F0F26BE403340494E86
:100DB000B04201D100262DE0474EB04201D10126BC
:100DC00028E0464EB04201D1022623E0444EB04214
:100DD00001D103261EE0434EB04201D1042619E0A2
:100DE000414EB04201D1052614E0404EB04201D13F
:100DF00006260FE03E4EB04201D107260AE03D4EE6
:100E0000B04201D1082605E03B4EB04201D109268F
:100E100000E00A268F073F0FBE409E4222D1374E88
:100E200036689643354F3E603E1D366896433F1DFB
:100E30003E603E1D366896433F1D3E603E1D36684F
:100E400096433F1D3E608E07370F0F2606FA07F3C5
:100E50001F4E8F0856F827609E431D4F4FEA910C96
:100E600047F82C6006684FEA410C032707FA0CF795
:100E7000BE430660CF0800F1200656F827604F07F2
:100E80004FEAD76C0F2707FA0CF7BE434FEAD10C95
:100E900000F1200700E016E047F82C60C6684FEA32
:100EA000410C032707FA0CF7BE43C66047680126CA
:100EB0008E40B743476086684FEA410C032707FA24
:100EC0000CF7BE438660491C1029FFF460AFF0BDEB
:100ED00008380140000002400004024000080240BF
:100EE000000C0240001002400014024000180240B2
:100EF000001C02400020024000240240003C01404F
:100F000070B50546284602F0D7FF044604EB4400BE
:100F1000094901EB8000406858B104EB44020B46DC
:100F200003EB8202906804EB440203EB82025168F7
:100F3000884700BF70BD00002800002010B504469F
:100F400004480068204020B1024804602046FFF7B2
:100F5000D7FF10BD143C0140F8B502460B460025F2
:100F6000002400200021E8E0012606FA01F51E68B1
:100F700006EA0504AC4275D11E7906F00306012E7F
:100F800004D01E7906F00306022E13D190684F009C
:100F90000326BE40B0434F00DE68BE403043906041
:100FA000506801268E40B0431E79C6F300168E406D
:100FB000304350601E7906F00306032E09D0D06836
:100FC0004F000326BE40B0434F009E68BE403043F2
:100FD000D0601E7906F00306022E13D1CF0802F16D
:100FE000200656F827004E07F70E0F26BE40B043E6
:100FF0004F07FF0E1E69BE403043CF0802F12006A6
:1010000046F8270010684F000326BE40B0431E7903
:1010100006F003064F00BE40304310605E6806F0E5
:101020008056B6F1805FA6D100BF00260096454EDF
:10103000366846F48046434F3E603E46366806F4C6
:101040008046009600BF00BF3F4E8F0856F827002D
:101050008E07370F0F26BE40B0433C4EB24202D13E
:1010600000262EE068E03A4EB24201D1012628E087
:10107000384EB24201D1022623E0374EB24201D1AE
:1010800003261EE0354EB24201D1042619E0344E4B
:10109000B24201D1052614E0324EB24201D10626F9
:1010A0000FE0314EB24201D107260AE02F4EB24284
:1010B00001D1082605E02E4EB24201D1092600E0FA
:1010C0000A268F073F0FBE4030431F4E8F0846F859
:1010D0002700284E3068A0435E6806F48036B6F5D7
:1010E000803F00D12043234E3060361D3068A0433E
:1010F0005E6806F40036B6F5003F00D120431D4E71
:10110000361D3060361D3068A0435E6806F48016D8
:10111000B6F5801F00D12043164E08363060361DCC
:101120003068A0435E6806F40016B6F5001F00D1D3
:101130002043104E0C363060491C1029FFF414AFC8
:10114000F8BD000044380240083801400000024069
:101150000004024000080240000C0240001002405F
:101160000014024000180240001C0240002002400F
:1011700000240240003C0140024613690B400BB1C1
:10118000012000E0002070470AB1816101E00B04FA
:101190008361704710B50BF0C7F810BD03480068B5
:1011A0000349097808440149086070471C00002081
:1011B0002400002010B50D48006840F400700B4971
:1011C00008600846006840F48060086008460068CF
:1011D00040F480700860032000F0A2F8002000F0C6
:1011E00007F800F009F8002010BD0000003C0240A4
:1011F000014600207047000008B500BF00200090A5
:101200000E48006840F480400C49086008460068B9
:1012100000F48040009000BF00BF00BF002000909D
:10122000081F006840F08050091F086008460068E9
:1012300000F08050009000BF00BF08BD443802405D
:1012400010B501460846002817DB00F01F030122F5
:101250009A400B4B440943F8242000BF00BF00BF55
:10126000BFF34F8F00BF00BF00BF00BF00BF00BF74
:10127000BFF36F8F00BF00BF00BF00BF10BD0000F5
:1012800080E100E001460846002809DB00F01F036A
:1012900001229A4043099B0003F1E023C3F8002197
:1012A00000BF70472DE9F05F80460D4616460027C7
:1012B00002F078F9074639462A46334601F007001E
:1012C000C0F1070ABAF1040F02D94FF0040A01E095
:1012D000C0F1070AD14600F1040ABAF1070F02D2A1
:1012E0004FF0000A01E0A0F1030AD4464FF0010AD2
:1012F0000AFA09FAAAF1010A0AEA020A0AFA0CFA37
:101300004FF0010B0BFA0CFBABF1010B0BEA030BDB
:101310004AEA0B042146404602F04CF9BDE8F09F32
:1013200000BF00F00702064B19684FF6FF03194093
:10133000044B0B4343EA0221014B196000BF704785
:101340000CED00E00000FA0538B5002400BF0020D5
:1013500000901D48006840F080501B490860084616
:10136000006800F08050009000BF00BF01201749C6
:101370000864FFF70FFF044607E0FFF70BFF001BB1
:10138000B0F57A7F01D9032038BD1148406800F4D8
:101390008030B0F5803FF0D101200C494864FFF760
:1013A000F9FE044607E0FFF7F5FE001BB0F57A7F73
:1013B00001D90320E8E70648406800F40030B0F5A2
:1013C000003FF0D10020DFE74038024000000E422D
:1013D0000070004070B504460D460CB9012070BD88
:1013E0005848006800F00F00A84209D255490D7016
:1013F0000846006800F00F00A84201D00120EEE787
:10140000207800F0020002281DD1207800F00400AE
:10141000042805D14C48006840F4E0504A4908606F
:10142000207800F00800082805D14748006840F4FB
:101430006040454908604448006820F0F000A16819
:10144000084341490860207800F00100A8B36068B3
:10145000012807D13C4808380068C0F34040B8B9BB
:101460000120BCE76068022802D06068032807D129
:10147000354808380068C0F3406048B90120AEE73D
:10148000314808380068C0F3400008B90120A6E7D9
:101490002D48006820F00300616808432A4908606D
:1014A000FFF778FE064609E0FFF774FE801B41F265
:1014B0008831884202D9032091E707E0224800687A
:1014C00000F00C006168B0EB810FEDD11D480068A1
:1014D00000F00F00A84209D91A490D7008460068AB
:1014E00000F00F00A84201D0012078E7207800F03A
:1014F0000400042807D11448006820F4E050E16893
:10150000084311490860207800F00800082808D135
:101510000D48006820F46040216940EAC1000A4992
:10152000086000F03FF808490968C1F30311074A51
:10153000515CC8400649086006480068FFF758FE3D
:1015400000204CE7003C02400838024092E20008CC
:1015500008000020200000200148006870470000BB
:101560000800002000B5FFF7F7FF04490968C1F340
:101570008221034A515CC84000BD00000838024087
:10158000A2E2000800B5FFF7E7FF04490968C1F3CC
:101590004231034A515CC84000BD00000838024097
:1015A000A2E200082DE9F047002400250026A1460C
:1015B0002548006800F00C0020B1042805D0082858
:1015C0003AD105E0DFF8849039E0DFF8849036E026
:1015D0001D48001F006800F03F041B48001F006802
:1015E00000F4800078B11A481749091F0968C1F34F
:1015F0008811A0FB01700146224600233846FEF701
:1016000095FE05460EE011480F49091F0968C1F310
:101610008811A0FB01700146224600233846FEF7E0
:1016200085FE05460848001F0068C0F30140401CC5
:101630004600B5FBF6F902E0DFF8109000BF00BFEE
:101640004846BDE8F0870000083802400024F40056
:1016500040787D01F8B504460CB90120F8BD20782A
:1016600000F00100002874D0F948006800F00C0078
:1016700004280DD0F648006800F00C00082813D1AB
:10168000F348001F006800F48000B0F5800F0BD114
:10169000EF4808380068C0F34040002859D060681F
:1016A000002856D10120D9E700BF6068B0F5803F1F
:1016B00008D1E7480838006840F48030E449083928
:1016C00008601EE06068B0F5A02F0DD1E048083832
:1016D000006840F48020DE49083908600846006848
:1016E00040F4803008600CE0D9480838006820F4E5
:1016F0008030D749083908600846006820F4802007
:10170000086000BF606890B1FFF744FD054606E041
:10171000FFF740FD401B642801D903209EE7CC4819
:1017200008380068C0F340400028F1D011E0FFF70E
:1017300031FD054606E0FFF72DFD401B642801D969
:1017400003208BE7C24808380068C0F340400028F7
:10175000F1D1207800F0020002285FD1BC48006877
:1017600000F00C0058B1BA48006800F00C000828DE
:101770001CD1B748001F006800F48000B0B9B4481D
:1017800008380068C0F3400020B1E068012801D0AB
:10179000012063E7AE480838006820F0F8002169AE
:1017A00040EAC100AA490839086037E0E06800B3A0
:1017B0000120A8490860FFF7EDFC054606E0FFF7A9
:1017C000E9FC401B022801D9032047E7A04808385C
:1017D0000068C0F340000028F1D09D480838006838
:1017E00020F0F800216940EAC100994908390860F1
:1017F00014E0002097490860FFF7CCFC054606E09E
:10180000FFF7C8FC401B022801D9032026E79048B7
:1018100008380068C0F340000028F1D1207800F0BB
:10182000080008282CD16069A8B101208A49086005
:10183000FFF7B0FC054606E0FFF7ACFC401B0228B2
:1018400001D903200AE782486C300068C0F34000E9
:101850000028F1D014E000207F490860FFF79AFCCF
:10186000054606E0FFF796FC401B022801D903203D
:10187000F4E677486C300068C0F340000028F1D1EE
:10188000207800F00400042870D100277048383018
:10189000006800F0805090B900BF002000906C48B4
:1018A0003830006840F08050694938310860084697
:1018B000006800F08050009000BF00BF012767481B
:1018C000006800F48070B0B96448006840F480702B
:1018D00062490860FFF75EFC054606E0FFF75AFC28
:1018E000401B022801D90320B8E65C48006800F4D8
:1018F00080700028F2D000BFA068012808D15448A9
:101900006830006840F001005149683108601DE00E
:10191000A06805280DD14E486830006840F00400EA
:101920004B49683108600846006840F001000860D3
:101930000CE047486830006820F0010044496831F5
:1019400008600846006820F00400086000BFA06836
:10195000A8B1FFF71FFC054609E0FFF71BFC401B81
:1019600041F28831884202D9032077E626E03848E0
:1019700068300068C0F340000028EED013E0FFF7A5
:1019800009FC054608E0FFF705FC401B41F28831E1
:10199000884201D9032061E62D4868300068C0F311
:1019A00040000028EFD1012F07D1294838300068C6
:1019B00020F0805026493831086000BFA069002817
:1019C00045D02348006800F00C0008285DD0A069CD
:1019D000022845D100201F490866FFF7DBFB0546BA
:1019E00006E0FFF7D7FB401B022801D9032035E6AC
:1019F000174808380068C0F340600028F1D1D4E9E6
:101A000007010843616A40EA81110122A06AC2EB22
:101A1000500041EA00412C20005D41EA00600C4981
:101A2000091F086001200B490866FFF7B3FB054654
:101A300006E0FFF7AFFB401B022801D903200DE6AB
:101A4000034808380068C0F340600028F1D049E03E
:101A50000838024000004742800E474200700040B4
:101A6000002021490866FFF795FB054606E0FFF7D1
:101A700091FB401B022801D90320EFE51B480068B9
:101A8000C0F340600028F2D12CE0A069012800D109
:101A9000E4E51648001D0668A069012820D006F478
:101AA0008001E06981421BD106F03F01206A81423A
:101AB00016D147F6C0703040616AB0EB811F0FD17C
:101AC00006F440310122A06AC2EB5000B1EB004F96
:101AD00006D106F070612C20005DB1EB006F01D0E3
:101AE0000120BBE50020B9E5000047420038024074
:101AF00070B504460D460CB9012070BD94F82C0059
:101B000028B9002084F82D00204600F011F80220AA
:101B100084F82C00211D2068FEF79FFE2946D4E999
:101B20000002FEF705FF012084F82C000020E4E706
:101B300010B50446FFF7ACF810BD70B504460D466D
:101B400094F82C00022800D170BD022084F82C00EB
:101B500029462068FEF7BBFE012084F82C000020F7
:101B6000F2E770B504460D46164694F82C0002289C
:101B700000D170BD022084F82C003246294620682E
:101B8000FEF7ACFE2868022803D1052084F82C005B
:101B900002E0012084F82C000020EAE7042808D1A4
:101BA0004FF0E021096941F004014FF0E02211619A
:101BB00007E04FF0E021096921F004014FF0E02235
:101BC0001161704770B504462546681EB0F1807FEC
:101BD00001D301200FE0681E4FF0E02148610F2182
:101BE0004FF0FF3001F0E6FC00204FF0E02188616B
:101BF00007200861002070BD704710B504460CB97D
:101C0000012010BD242084F83D002068C06820F425
:101C100000502168C860204600F086F9002020644A
:101C200084F83D0084F83E00206300BF84F83C0047
:101C300000BF00BFE5E7000070B504462CB940F2D4
:101C4000CA32034903A006F071FE254670BD0000AC
:101C50008DE30008687561727420213D204E554C5B
:101C60004C0000002DE9F84F044620680568206804
:101C7000C668206847694FF00009CA4605F00F0999
:101C8000B9F1000F0AD105F0200038B106F02000AC
:101C900020B1204601F087FABDE8F88FB9F1000FB6
:101CA00072D007F0010018B906F4907000286BD0CC
:101CB00005F0010030B106F4807018B1206C40F0DE
:101CC0000100206405F0040030B107F0010018B1F4
:101CD000206C40F00200206405F0020030B107F0F3
:101CE000010018B1206C40F00400206405F00800E9
:101CF00048B106F0200010B907F0010018B1206CBF
:101D000040F008002064206C70B305F0200028B17A
:101D100006F0200010B1204601F045FA2068406925
:101D2000C0F3801A206C00F0080010B9BAF1000F5F
:101D300023D0204601F002FA2068406900F04000FC
:101D4000402816D12068406920F040002168486191
:101D5000A06B50B15648A16B0865A06BFEF78BFED7
:101D600010B1A06B016D88470CE02046FFF764FFBF
:101D700008E02046FFF760FF04E02046FFF75CFF25
:101D80000020206488E7FFE7206B012879D105F067
:101D90001000002875D006F01000002871D000BF98
:101DA0000020009020680068009020684068009043
:101DB00000BF00BF2068406900F04000402839D1D2
:101DC000A06B006840681FFA80F8B8F1000F30D0AF
:101DD000A08D40452DDDA4F82E80A06BC069B0F524
:101DE000807F1FD02068C06820F480702168C860A0
:101DF0002068406920F0010021684861206840693E
:101E000020F0400021684861202084F83E00002036
:101E100020632068C06820F010002168C860A06BB3
:101E2000FEF7D4FDA08DE28D801A81B22046FFF727
:101E3000E3FE31E7A08DE18D401A1FFA80F8E08DB6
:101E4000E8B1B8F1000F1AD02068C06820F4907093
:101E50002168C8602068406920F00100216848615D
:101E6000202084F83E00002020632068C06820F015
:101E700010002168C86041462046FFF7BDFE0BE711
:101E8000FFE705F0800030B106F0800018B1204671
:101E900001F04AFB00E705F0400030B106F04000D9
:101EA00018B1204601F065F9F6E600BFF4E600003F
:101EB0000D30000810B504460CB9012010BDA06912
:101EC00000B100E000BF94F83D0028B9002084F87C
:101ED0003C00204600F044F8242084F83D002068AF
:101EE000C06820F400502168C860204601F0BAF9AB
:101EF0002068006920F490402168086120684069EA
:101F000020F02A00216848612068C06840F4005031
:101F10002168C86000202064202084F83D0084F8F7
:101F20003E000020CAE7000010B5044609492068B9
:101F300088420DD10848006820F01000064908606A
:101F40004FF4C0610548FEF71BFF2520FFF778F925
:101F500010BD000000100140443802400000024063
:101F600010B586B00446142101A8FEF729FA1F49CE
:101F70002068884238D100BF002000901C480068CB
:101F800040F010001A4908600846006800F0100090
:101F9000009000BF00BF00BF00200090144814381C
:101FA000006840F0010012491439086008460068D2
:101FB00000F00100009000BF00BF4FF4C06001902E
:101FC0000220029000200390032004900720059037
:101FD00001A90848FEF7C0FF002211462520FFF79F
:101FE00061F92520FFF74EF906B010BD0010014041
:101FF000443802400000024070B504460D461646C3
:1020000094F83E00202816D105B10EB9012070BD0C
:1020100000BF94F83C00012801D10220F7E701201D
:1020200084F83C0000BF0020206332462946204649
:1020300001F02EFAEBE70220E9E7000070B5044654
:102040002CB940F2DA32054905A006F06FFC2546AE
:1020500005F5887001F0D6FF70BD0000A4E300080C
:10206000687561727420213D204E554C4C00000073
:1020700070B504462CB940F2E932054905A006F0D6
:1020800055FC254605F5887001F0BCFF70BD0000C9
:10209000BCE30008687561727420213D204E554CE8
:1020A0004C000000F7B50446154694F83D00202882
:1020B0003DD1019800B10DB90120FEBD00BF94F8DB
:1020C0003C00012801D10220F7E7012084F83C0000
:1020D00000BF01982062A584E584002020642120AF
:1020E00084F83D001348616BC8631348616B086452
:1020F0001248616BC8640020616B086501AE2368FB
:102100001A1D31682B46606BFEF778FD6FF04000BA
:102110002168086000BF002084F83C0000BF2068F0
:10212000406940F08000216848610020C5E7022036
:10213000C3E70000F93000082F3100082130000803
:1021400070B504462CB940F20B42054905A006F0D3
:10215000EDFB254605F5887001F054FA70BD0000CE
:10216000E9E30008687561727420213D204E554CEA
:102170004C0000007047000000BF0A48006810F8DB
:10218000080C0849096811F8041C08440549096845
:1021900001F8080C03480068001F0249086000BFEE
:1021A000704700006802002000BF0A48006850F82D
:1021B000080C0849096851F8041C084405490968D5
:1021C00041F8080C03480068001F0249086000BF7E
:1021D000704700006802002000BF0A48006830F81D
:1021E000080C0849096831F8041C084400B2054984
:1021F000096821F8080C03480068001F01490860BD
:1022000000BF70476802002000BF0A48006810F84D
:10221000080C0849096811F8041C084005490968B8
:1022200001F8080C03480068001F0249086000BF5D
:10223000704700006802002000BF0A48006850F89C
:10224000080C0849096851F8041C08400549096848
:1022500041F8080C03480068001F0249086000BFED
:10226000704700006802002000BF0A48006830F98B
:10227000080C0849096831F9041C08400549096837
:1022800021F8080C03480068001F0249086000BFDD
:1022900070470000680200200448006810F8040C31
:1022A000C0430249096801F8040C70476802002025
:1022B0000448006850F8040CC0430249096841F81A
:1022C000040C7047680200200448006830F9040CD0
:1022D000C0430249096821F8040C704768020020D5
:1022E00010B5A4B0DF48006800781390DD4800689E
:1022F000401CDC49086000201290DB480068001F89
:10230000D949086011E0D848006802681398401E57
:102310001299401A14A941F82020D3480068001FE0
:10232000D14908601298401C1290DDE912018842E0
:10233000E9D3CD48006800681190139811286ED237
:10234000DFE800F0090E141D293747596E849CB64A
:10235000D2F4F2F1F000002011998847109074E156
:1023600014980F901199884710906EE115980F906E
:1023700014980E90119A0F999047109065E1169855
:102380000F9015980E9014980D90119BDDE90E1288
:102390009847109059E117980F9016980E9015983D
:1023A0000D9014980C90119C0DA90EC9A047109087
:1023B0004BE11898009017980F9016980E9015986A
:1023C0000D9014980C90119C0DA90EC9A047109067
:1023D0003BE1DDE91801CDE9000117980F9016984F
:1023E0000E9015980D9014980C90119C0DA90EC983
:1023F000A047109029E1DDE919211898CDE90121C4
:10240000009017980F9016980E9015980D901498AC
:102410000C90119C0DA90EC9A047109015E111E177
:10242000DDE9193218991B98CDE90132009103902A
:1024300017980F9016980E9015980D9014980C9070
:10244000119C0DA90EC9A0471090FEE0DDE91923EB
:10245000DDE91B10CDE90123CDE9031018980090A8
:1024600017980F9016980E9015980D9014980C9040
:10247000119C0DA90EC9A0471090E6E0DDE91A23D2
:10248000DDE91C10CDE90223CDE90410DDE91801D6
:10249000CDE9000117980F9016980E9015980D90A1
:1024A00014980C90119C0DA90EC9A0471090CCE077
:1024B000DDE91C321B991E98CDE904320391069088
:1024C000DDE919211898CDE90121009017980F90A6
:1024D00016980E9015980D9014980C90119C0DA9BB
:1024E0000EC9A0471090B0E0DDE91C23DDE91E1005
:1024F000CDE90423CDE90610DDE9193218991B98BE
:10250000CDE901320091039017980F9016980E9024
:1025100015980D9014980C90119C0DA90EC9A04708
:10252000109092E068E043E020E0FFE7DDE91E3232
:102530001D992098CDE9063205910890DDE919230F
:10254000DDE91B01CDE90123CDE9030118980090D5
:1025500017980F9016980E9015980D9014980C904F
:10256000119C0DA90EC9A04710906EE0DDE91E1365
:10257000DDE92002CDE90613CDE90802DDE91A23E1
:10258000DDE91C01CDE90223CDE90401DDE91801F3
:10259000CDE9000117980F9016980E9015980D90A0
:1025A00014980C90119C0DA90EC9A04710904CE0F6
:1025B000DDE92031229A1F98CDE908310A9207906F
:1025C000DDE91B23DDE91D01CDE90323CDE905018B
:1025D000DDE919211898CDE90121009017980F9095
:1025E00016980E9015980D9014980C90119C0DA9AA
:1025F0000EC9A047109028E0DDE9213220992398E8
:10260000CDE9093208910B90DDE91D321C991F9824
:10261000CDE9053204910790DDE91823DDE91A10B0
:10262000CDE90023CDE9021017980F9016980E906F
:1026300015980D9014980C90119C0DA90EC9A047E7
:10264000109002E00020109000BF00BF06491098D3
:102650000968086004480068001D0349086024B048
:1026600010BD00006C0200206802002000BF0A4874
:10267000006810F8080C0849096811F8041C90FB60
:10268000F1F00549096801F8080C03480068001FCB
:102690000149086000BF70476802002000BF0A4877
:1026A000006850F8080C0849096851F8041C90FBB0
:1026B000F1F00549096841F8080C03480068001F5B
:1026C0000149086000BF70476802002000BF0B4846
:1026D000006830F9080C0949096831F9041C90FBBD
:1026E000F1F000B20549096821F8080C03480068B8
:1026F000001F0249086000BF704700006802002008
:1027000008480068007808490968087006480068A9
:10271000001D0549086003480068401C0149086025
:10272000704700006C020020680200200F4800681B
:1027300000780E490968497840EA01200B49096888
:10274000897840EA014009490968C97840EA01608E
:1027500007490968086006480068001D04490860C8
:1027600002480068001D0149086070476C020020A3
:10277000680200201049096809780F4A12685278E7
:1027800041EA02210C4A1268927841EA02410A4A5F
:102790001268D27841EA02600178084A1268117022
:1027A00006490968091D054A116003490968091DA0
:1027B000014A1160704700006C020020680200208E
:1027C0000449096851F8040C0178024A126802F8B9
:1027D000041C7047680200201049096809780F4AF4
:1027E0001268527841EA02210C4A1268927841EA52
:1027F00002410A4A1268D27841EA0260084A016836
:102800001268116006490968091D054A11600349EB
:102810000968091D014A1160704700006C02002020
:10282000680200200449096851F8040C024A016852
:10283000126842F8041C70476802002010490968B9
:1028400009780F4A1268527841EA02210C4A12684C
:10285000927841EA02410A4A1268D27841EA02605B
:102860000188084A1268118006490968091D054A4D
:10287000116003490968091D014A11607047000091
:102880006C020020680200200449096851F8040C19
:102890000188024A126822F8041C7047680200206E
:1028A0000B48006800780A490968497840EA012025
:1028B00000B208490968088006480068001D0549FB
:1028C000086003480068801C0149086070470000E8
:1028D0006C0200206802002000BF0B48006810F85E
:1028E000080C0949096811F8041C90FBF1F201FB7E
:1028F00012000549096801F8080C03480068001F28
:102900000149086000BF70476802002000BF0B4803
:10291000006850F8080C0949096851F8041C90FB3C
:10292000F1F201FB12000549096841F8080C03485F
:102930000068001F0149086000BF7047680200205E
:1029400000BF0B48006830F9080C0949096831F9E3
:10295000041C90FBF1F201FB12000549096821F803
:10296000080C03480068001F0149086000BF704759
:102970006802002000BF0A48006810F8080C0849E7
:10298000096811F8041C10FB01F00549096801F8F9
:10299000080C03480068001F0149086000BF704729
:1029A0006802002000BF0A48006850F8080C084977
:1029B000096851F8041C48430549096841F8080CA6
:1029C00003480068001F0249086000BF704700000C
:1029D0006802002000BF0B48006830F8080C094965
:1029E000096831F8041C10FB01F000B205490968C0
:1029F00021F8080C03480068001F0249086000BF66
:102A000070470000680200207047000000BF0A48BD
:102A1000006810F8080C0849096811F8041C0843FC
:102A20000549096801F8080C03480068001F0249BD
:102A3000086000BF704700006802002000BF0A481D
:102A4000006850F8080C0849096851F8041C08434C
:102A50000549096841F8080C03480068001F02494D
:102A6000086000BF704700006802002000BF0A48ED
:102A7000006830F9080C0849096831F9041C08435A
:102A80000549096821F8080C03480068001F02493D
:102A9000086000BF7047000068020020024800681C
:102AA000001F0149086070476802002000BF0A4803
:102AB000006810F8080C0849096811F8041C8840DF
:102AC0000549096801F8080C03480068001F02491D
:102AD000086000BF704700006802002000BF0A487D
:102AE000006850F8080C0849096811F8041C88406F
:102AF0000549096841F8080C03480068001F0249AD
:102B0000086000BF704700006802002000BF0A484C
:102B1000006830F8080C0849096811F8041C88405E
:102B200000B20549096821F8080C03480068001F35
:102B30000149086000BF70476802002000BF0A48D2
:102B4000006810F8080C0849096811F8041C0841CD
:102B50000549096801F8080C03480068001F02498C
:102B6000086000BF704700006802002000BF0A48EC
:102B7000006850F8080C0849096811F8041C08415D
:102B80000549096841F8080C03480068001F02491C
:102B9000086000BF704700006802002000BF0A48BC
:102BA000006830F9080C0849096811F8041C08414C
:102BB0000549096821F8080C03480068001F02490C
:102BC000086000BF704700006802002007480068E6
:102BD00010F8040C0549096851F8081C08700348EE
:102BE0000068001F0149086070470000680200206B
:102BF0000748006850F8040C0549096851F8081C9A
:102C0000086003480068001F014908607047000021
:102C1000680200200748006830F8040C054909687C
:102C200051F8081C088003480068001F014908602B
:102C3000704700006802002000BF0A48006810F8D2
:102C4000080C0849096811F8041C401A054909686C
:102C500001F8080C03480068001F0249086000BF23
:102C6000704700006802002000BF0A48006850F862
:102C7000080C0849096851F8041C401A05490968FC
:102C800041F8080C03480068001F0249086000BFB3
:102C9000704700006802002000BF0A48006830F852
:102CA000080C0849096831F8041C401A00B20549AB
:102CB000096821F8080C03480068001F01490860F2
:102CC00000BF70476802002000BF0A48006810F883
:102CD000080C0849096811F8041C484005490968AE
:102CE00001F8080C03480068001F0249086000BF93
:102CF000704700006802002000BF0A48006850F8D2
:102D0000080C0849096851F8041C4840054909683D
:102D100041F8080C03480068001F0249086000BF22
:102D2000704700006802002000BF0A48006830F9C0
:102D3000080C0849096831F9041C4840054909682C
:102D400021F8080C03480068001F0249086000BF12
:102D5000704700006802002010B588B000242A489F
:102D60002A49086002200190082002900620039062
:102D700004900220059006900790002048600121F1
:102D8000224881600821C160102101614021416118
:102D90004FF4C07181610021C1614FF40061016293
:102DA000490041624900816201A9FEF7A1FE60B1BC
:102DB00000BF17A007F074FA1AA007F071FA1EA05E
:102DC00007F06EFA00BF641E1AE01D490F4800F0BC
:102DD0004BF800BF1BA007F063FA10235A054FF011
:102DE00040411D4807F05CFA13A007F059FA00BFF4
:102DF0004FF000734FF0404218A11A4807F094FDBD
:102E0000204608B010BD0000400100A0F8030020DB
:102E10001B5B33316D5B452F6472762E7364726178
:102E20006D5D2000534452414D20696E69742066E7
:102E300061696C65642100001B5B306D0A00000055
:102E40002C0400201B5B306D5B442F6472762E7364
:102E50006472616D5D20000060EE00087364726151
:102E60006D0000003C040020F8B506460C4600202A
:102E7000009000251025012020606560A0600020E2
:102E8000E0602A0221463046FEF76BFE00200090EB
:102E900002E00098401C00906FF07F41009888424B
:102EA000F7D30220206065600120A0600020E06070
:102EB0004FF4805221463046FEF753FE0320206037
:102EC00065600820A0600020E0604FF48052214639
:102ED0003046FEF746FE40F231200090042020608C
:102EE00065600120A0600098E0604FF480522146A8
:102EF0003046FEF736FE40F2AB213046FEF71DFEAF
:102F0000F8BD10B507F03AF9FEF748F909F010FAE4
:102F100007F05EF910BD000000B593B0302107A89E
:102F2000FDF74EFA142102A8FDF74AFA00BF00206F
:102F300001902A48006840F08050284908600846FF
:102F4000006800F08050019000BF00BF00BF00206B
:102F500001902348006840F4404021490860084639
:102F6000006800F44040019000BF00BF01200790BE
:102F70000004089002200D9041050E9119210F9137
:102F80004FF4B4711091022111910421129107A8FC
:102F9000FEF760FB18B1272112A000F001FBFEF73D
:102FA000D3F918B12D210FA000F0FAFA0F200290EA
:102FB00002200390002004904FF4A05005904FF49D
:102FC00080500690052102A8FEF704FA18B13A21B4
:102FD00004A000F0E5FA13B000BD00004038024044
:102FE000007000402E2E5C626F6172645C626F61E3
:102FF00072642E63000000000348006840F4700013
:10300000014908607047000088ED00E070B5054692
:10301000AC6B0020E085E0842046FEF70DFE70BD1D
:1030200070B506460025B46B20684069C0F3C01532
:1030300094F83D00212805D125B10020E0842046E8
:1030400000F0A7F820684069C0F3801594F83E00AE
:10305000222805D125B10020E085204600F06EF839
:10306000206C40F0100020642046FEF7E5FD70BDA6
:1030700070B50546AC6B2868006800F48070F8B93C
:103080000020E0852068C06820F480702168C86056
:103090002068406920F0010021684861206840698B
:1030A00020F0400021684861202084F83E00206B19
:1030B000012805D12068C06820F010002168C86090
:1030C000206B012804D1A18D2046FEF795FD02E07A
:1030D0002046FEF7B3FF70BD70B50546AC6B206BA4
:1030E000012805D1A08D41082046FEF785FD02E0AC
:1030F0002046FEF7BDFF70BD70B50546AC6B286875
:10310000006800F4807070B90020E0842068406995
:1031100020F08000216848612068C06840F04000CD
:103120002168C86002E02046FFF70AF870BD70B55C
:103130000446A56B2846FFF71DF870BD0168C968F5
:1031400021F490710268D1600168496921F00101A0
:1031500002685161016B012905D10168C96821F03C
:1031600010010268D160202180F83E100021016327
:10317000704710B504462068C06820F04000216800
:10318000C860202084F83D002046FEF7D9FF0020CB
:1031900010BD0168C96821F0C0010268D16020211A
:1031A00080F83D10704770B5044694F83E00222820
:1031B00056D1A068B0F5805F0CD1206950B90025C8
:1031C000A66A20684068C0F308003080A06A801CAE
:1031D000A06215E0A56A0026A068B0F5805F03D064
:1031E000A06828B9206918B920684068287004E0F0
:1031F0002068406800F07F002870A06A401CA06230
:10320000E08D401E80B2E08540BB2068C06820F0A1
:1032100020002168C8602068C06820F480702168A0
:10322000C8602068406920F00100216848612020C2
:1032300084F83E00206B01280AD12068C06820F085
:1032400010002168C860A18D2046FEF7D5FC02E081
:103250002046FEF7F3FE0020206370BD0020FCE74F
:103260000220FAE72DE9F84F04462068006920F4AF
:103270004050E1680843216808612169A06808435B
:1032800061690843E169084300902068C06849F219
:103290000C618843009908432168C8602068406930
:1032A00020F44070A169084321684861764920688C
:1032B000884203D075492068884203D1FEF762F93D
:1032C000814602E0FEF74EF98146E069B0F5004F15
:1032D0006CD102206168A0FB015003461920A9FBB4
:1032E000007001462A463846FDF720F86421B0FBFD
:1032F000F1F04FEA001A02206168A0FB01510B4671
:103300001920A9FB00712A463846FDF70FF88346BD
:1033100002206168A0FB015003461920A9FB00713F
:103320002A463846FDF702F86421B0FBF1F000EBC5
:10333000C00101EB0010ABEB8000322101EBC000BB
:103340006421B0FBF1F000F0F8000AEB400A022023
:103350006168A0FB015003461920A9FB00700146DB
:103360002A463846FCF7E2FF834602206168A0FB4C
:10337000015003461920A9FB00712A463846FCF784
:10338000D5FF6421B0FBF1F000EBC00101EB0010B0
:10339000ABEB8000322101EBC0006421B0FBF1F007
:1033A00000F007005044216888606AE004206168EA
:1033B000A0FB015003461920A9FB007001462A46D4
:1033C0003846FCF7B3FF824604206168A0FB015039
:1033D00003461920A9FB007001462A463846FCF72F
:1033E000A5FF6421B0FBF1F000EBC00101EB001080
:1033F000AAEB8000322101EB00106421B0FBF1F058
:1034000000F0F00A04206168A0FB01700346192057
:10341000A9FB00513A462846FCF788FF6421B0FB1F
:10342000F1F00AEB001A04206168A0FB01510B4681
:103430001920A9FB00712A463846FCF777FF83461E
:1034400004206168A0FB015003461920A9FB00700D
:1034500001462A463846FCF769FF6421B0FBF1F0CB
:1034600000EBC00101EB0010ABEB8000322101EB5F
:1034700000106421B0FBF1F000F00F00504421680F
:103480008860BDE8F88F0000001001400014014082
:1034900077B581B0044615460298A062A585002044
:1034A0002064222084F83E001C48A16BC8631C489D
:1034B000A16B08641B48A16BC8640020A16B086560
:1034C00002AE32682368191D2B46A06BFDF796FBF0
:1034D00000BF0020009020680068009020684068CD
:1034E000009000BF00BF00BF002084F83C0000BF78
:1034F0002068C06840F480702168C8602068406916
:1035000040F00100216848612068406940F04000B7
:1035100021684861002004B070BD000071300008CF
:10352000D930000821300008014691F83D002128DB
:1035300028D18868B0F5805F0BD1086948B90A6A5C
:103540001088C0F308000B685860086A801C086285
:1035500005E00B6A581C086218780B685860C88C24
:10356000401E80B2C88458B90868C06820F0800046
:103570000B68D8600868C06840F040000B68D860ED
:10358000002070470220FCE710B506F0F7FD034865
:103590000AF028FD06F01CFE10BD0000A403002068
:1035A00000BFFEE702480068C0F302207047000039
:1035B0000CED00E010B5002804DB0A07130E054AE5
:1035C000135406E00A07140E034A00F00F031B1FF2
:1035D000D45410BD00E400E018ED00E0004870474E
:1035E0009002002002E008C8121F08C1002AFAD188
:1035F00070477047002001E001C1121F002AFBD173
:10360000704700002DE9F04104462CB94FF47D725B
:103610000A490BA005F08AF9A4F58875FCF7ECFDC2
:103620000746D5F8AC0046683846FCF7E9FD1EB9F8
:103630000421204606F0C0FBBDE8F081D8E3000875
:1036400073657269616C20213D2052545F4E554C68
:103650004C00000070B5044606480068FCF7B2FD57
:10366000451E054850F83500A0F114062560304687
:1036700070BD0000D4010020580A00202DE9F0435D
:103680008BB005468946174600242DB94FF49B722E
:103690001C491DA005F04AF92FB940F2371219490B
:1036A0001AA005F043F900E0641C285D202804D02E
:1036B000285D092801D04C45F6D324B94FF0FF30DE
:1036C0000BB0BDE8F0832146284604F007FB064610
:1036D00016B94FF0FF30F3E7282101A8FCF770FE80
:1036E00001AA4946284604F06DFB8046B8F1000F58
:1036F00002D14FF0FF30E3E701A94046B047386000
:103700000020DDE73CED0008636D640072657470B5
:10371000000000002DE9F0410546884616462F4678
:1037200027B93722084909A005F000F934461CB929
:103730004FF0FF30BDE8F08162882188386C036863
:10374000284698470020F5E7F0E4000870696E20ED
:10375000213D2052545F4E554C4C00002DE9F0475E
:103760000546894616461F46A846B8F1000F04D103
:1037700018220A490AA005F0D9F834460CB1042FE2
:1037800002D00020BDE8F0872188D8F84000826888
:103790002846904760803846F4E70000DBE40008E4
:1037A00070696E20213D2052545F4E554C4C0000F4
:1037B0002DE9F0470546894616461F46A846B8F14A
:1037C000000F04D127220A490AA005F0AFF83446B9
:1037D0000CB1042F02D00020BDE8F0876288218858
:1037E000D8F840004368284698473846F4E7000078
:1037F000E5E4000870696E20213D2052545F4E556B
:103800004C4C000070B5044624B94F22134914A053
:1038100005F08CF8A06A0078232809D1A16AE06934
:10382000884205D9D4E90A010844E16988420AD2EC
:10383000214610A006F034FDFCF7DEFC054600BF73
:10384000002DFDD108E0A06A2030E169814203D853
:1038500021460FA006F024FD70BD00006FEA0008AD
:1038600074687265616420213D2052545F4E554C4E
:103870004C0000007468726561643A2573207374AB
:1038800061636B206F766572666C6F770A0000006B
:103890007761726E696E673A202573207374616375
:1038A0006B20697320636C6F736520746F20656E85
:1038B00064206F6620737461636B20616464726559
:1038C00073732E0A000000002DE9FC5F04468B464E
:1038D00016461F46DDE90C9ADDE90E5804F1140086
:1038E0004060006000BF26626762C4F82890C4F898
:1038F0002CA02321D4E90A0207F09DF8D4E90A3C60
:1039000063441A1F174BD4E9080106F085FBE061F8
:10391000202D04DBAF22144914A005F007F8303441
:10392000A57165710020A060C4F81480C4F81880E7
:1039300020602071A064E064303C00902346144A6B
:103940002146019004F14C0008F05CFE00BF1148D4
:10395000006818B120460F490968884700BF002059
:10396000BDE8FC9F41BD0008BDEA00087072696FA8
:1039700072697479203C2052545F54485245414446
:103980005F5052494F524954595F4D415800000011
:1039900031C20008F80100202DE9F04704460E4628
:1039A00017469846DDF8209084F80990607A20F058
:1039B00001006072E66127620020A062C4F82480E2
:1039C000002506E004F1140101EBC50006F0A5FC9A
:1039D0006D1C012DF6DBBDE8F08770B505460024AF
:1039E00006E005F1140101EBC40006F000FD641CC3
:1039F000012CF6DB70BD000010B50948006868B9FD
:103A000000BF08A006F04CFC0A4806F049FC0AA0DA
:103A100006F046FC00BF01200149086010BD00000F
:103A2000000100201B5B33336D5B572F554152540F
:103A30005D200000A8EE00081B5B306D0A0000004E
:103A40002DE9F04704460F46904604B12FB94FF4D4
:103A5000EF72404940A004F069FFFCF7CDFB8246BD
:103A6000A06CC0F38F2000282DD10026E56C2DB965
:103A70004FF4F472374943A004F058FF2868012836
:103A800013D001202860206C006928B940F2ED12A3
:103A9000304941A004F04AFF206C012342463946D8
:103AA000D0F810C02046E04701E06FF0060650460F
:103AB000FCF7A6FB16B94046BDE8F087304608F093
:103AC0000FF80020F8E7E56C0026204605F09AFE86
:103AD00081462DB940F2FD121E4939A004F026FF9F
:103AE000C84501DA464600E04E46E8888119A06CD8
:103AF000C0F38F20814207D2EA88286881183246B5
:103B0000384606F0F3FC1CE0A06CC0F38F20EB8875
:103B1000C21A2868C118384606F0E8FCEB8803EBA7
:103B2000060CA36CC3F38F23ACEB0302A36CC3F3AB
:103B30008F233B44B5F806C0A3EB0C00296806F0C0
:103B4000D5FC3146204605F063FE5046FCF758FB95
:103B50003046B1E7F8E500082873657269616C20AA
:103B6000213D2052545F4E554C4C292026262028BA
:103B70006461746120213D2052545F4E554C4C29A4
:103B80000000000072785F646D6120213D20525476
:103B90005F4E554C4C00000073657269616C2D3EA0
:103BA0006F70732D3E646D615F7472616E736D69C9
:103BB0007420213D2052545F4E554C4C00000000B3
:103BC00072785F6669666F20213D2052545F4E55C2
:103BD0004C4C00002DE9F047044688461646256DFA
:103BE0004FF0FF3332464146281D05F079FA07466B
:103BF000CFB9FCF701FB8146286801280DD00120D0
:103C000028604846FCF7FCFA206C02233246414605
:103C1000D0F810C02046E04702E04846FCF7F0FA32
:103C20003046BDE8F087384607F05AFF0020F8E735
:103C300070B50546EC6C2CB94FF4B8720F4910A062
:103C400004F074FEA088E188884207D1A06808B912
:103C5000002070BDA86CC0F38F20FAE7A088E1882F
:103C6000884203DDA088E188401AF2E7E088A18855
:103C7000411AA86CC0F38F20401AEAE7A1E50008BA
:103C800072785F6669666F20213D2052545F4E5501
:103C90004C4C00002DE9F04706460F4615462EB95C
:103CA0004FF486721E491FA004F040FEA846F46C33
:103CB0002CB94FF488721A491FA004F037FE28E08F
:103CC000FCF79AFA8246E088A188884205D1A0686C
:103CD00018B95046FCF794FA1DE0E188206810F806
:103CE0000190E088401CE080E188B06CC0F38F2038
:103CF000814201DB0020E080A068012801D1002082
:103D0000A0605046FCF77CFA87F800907F1C6D1E7F
:103D100000BF002DD4D100BFA8EB0500BDE8F0879F
:103D200083E5000873657269616C20213D2052545F
:103D30005F4E554C4C00000072785F6669666F20DC
:103D4000213D2052545F4E554C4C00002DE9F0416E
:103D500004460E4615462CB94FF49E721B491C486A
:103D600004F0E4FDA846276D2FB94FF4A07217495F
:103D700018A004F0DBFD23E030780A2810D1207E63
:103D800000F0400060B1206C0D2182682046904711
:103D9000401C28B94FF0FF31384604F06DFE0FE0AB
:103DA0003178206C826820469047401C28B94FF03B
:103DB000FF31384604F060FE02E0761C6D1E00BF45
:103DC000002DD9D1A8EB0500BDE8F08192E50008EF
:103DD000343E0008747820213D2052545F4E554CEB
:103DE0004C0000002DE9F04106460F46144626B966
:103DF000D6220F490FA004F099FDA04611E0306CC7
:103E0000C168304688470546681C00B90BE03D7024
:103E10007F1C641E307E00F0400010B10A2D00D1DE
:103E200001E0002CEBD100BFA8EB0400BDE8F0815D
:103E300063E5000873657269616C20213D2052546E
:103E40005F4E554C4C0000002DE9F04104460E46F3
:103E5000154624B9ED220F490F4804F067FD2F469F
:103E600012E030780A2808D1207E00F0400020B10E
:103E7000206C0D218268204690473178206C826842
:103E800020469047761C6D1E002DEAD1781BBDE8B8
:103E9000F081000073E50008343E000870B5044668
:103EA000FCF7AAF90546A06F10B12046A16F88471C
:103EB0002846FCF7A5F970BD0246002106E0012066
:103EC0008840904201D108467047491C2029F6DB02
:103ED0004FF0FF30F8E7000010B520A006F0E0F941
:103EE0002148017821A006F0DBF91F48007800F096
:103EF000010010B123A006F0D3F91B48007800F0B0
:103F0000020010B122A006F0CBF91748007800F0AB
:103F1000040010B121A006F0C3F91348007800F0A6
:103F2000080010B121A006F0BBF90F48007800F09E
:103F3000100010B120A006F0B3F90B48007800F093
:103F4000800030B108480F3001681DA006F0A8F9C4
:103F500002E01FA006F0A4F910BD000062757320F6
:103F60006661756C743A0A0029ED00E05343425FC4
:103F7000434653525F424653523A307825303258C6
:103F800020000000494255534552522000000000D5
:103F9000505245434953455252200000494D50521A
:103FA000454349534552522000000000554E53549A
:103FB0004B4552522000000053544B4552522000B2
:103FC0005343422D3E424641523A253038580A006A
:103FD0000A00000010B502A006F062F9002010BD32
:103FE0001B5B324A1B5B480070B504460D4602F06D
:103FF0007BFF002070BD70B504460D4603F08AFBC0
:10400000002070BD2DE9F04105462DB940F2931214
:10401000184919A004F08AFCA5F58874A06C006802
:1040200000F0100020B9A06C006800F00800F8B1A2
:10403000FCF7E2F88046A86CC0F38F20A16C4968B9
:10404000461A36B9A86CC0F38F21A82000590F1A60
:1040500002E0A8200059371AA82006514046FCF774
:10406000CFF82FB1032040EA0721284605F0A4FE2F
:10407000BDE8F08174E3000873657269616C20210A
:104080003D2052545F4E554C4C00000002461368D0
:104090000BB9116070471068884202D948601160FE
:1040A000F8E7106807E043688B4200D905E04368F1
:1040B00003B902E040680028F5D100BF43680BB1A6
:1040C00043684B60416000BFE4E730B503464A688F
:1040D0001C688C4201D1002009E0186804E04468A3
:1040E0008C4200D102E040680028F8D100BFE0B166
:1040F0000468044408348C4217D172B10C680C4433
:104100000834944209D10C6815682C4410340568B1
:104110002C4404605468446014E005680C6808345A
:104120002C4404604C6844600CE05AB10C680C44A8
:104130000834944206D10D68146808342C440C608D
:1041400054684C6030BD02461068884204D14B6808
:10415000136000234B607047106806E043688B4291
:1041600002D14B68436002E040680028F6D100BFEE
:1041700000BFF0E700F108035A180368083B5B1A18
:1041800013600160436853604260704710B5044695
:10419000002C01F02183206910B12069FFF7F6FFA0
:1041A00020781C2881F00E83DFE810F00C0B1C0037
:1041B000D901EF01F0011B021A0242026A029502C4
:1041C000C002EB02160341036C039703C203ED0325
:1041D0001A0439040C0BE70422065B070E09D80AFF
:1041E0000B0BC10AA07800F0040048B300BF2420E4
:1041F000FA4909680870F9480068401CF7490860E6
:1042000000BF00BF00BFA068007A09680870A068FE
:104210000089000AF14909684870A0688068000CAC
:10422000EE4909688870A0688068000EEB4909684B
:10423000C87000BFE9480068001DE84908608CE1CB
:10424000A07800F0020000287ED0A06800287CD072
:10425000017AC91E0C293ED2DFE801F006077C3E38
:104260003F7D78797E7A7B7F00BFA17801F00801DD
:1042700051B100BF2421D94A12681170D749096889
:10428000491CD64A11600AE000BF2521D34A1268B2
:104290001170D2490968491CD04A116000BF00BFA3
:1042A00000BF017BCD4A126811708189090ACB4A8F
:1042B00012685170C168090CC84A12689170C168CF
:1042C000090EC64A1268D17000BFC4490968091DA9
:1042D000C24A116000BF77E000BFA17801F0080179
:1042E00051B100BF2421BD4A12681170BB49096851
:1042F000491CBA4A11600AE000BF2621B74A126879
:104300001170B6490968491CB44A116000BF00BF6A
:1043100000BF017BB14A126811708189090AAF4A56
:1043200012685170C168090CAC4A12689170C1687A
:10433000090EAA4A1268D17000BFA8490968091D70
:10434000A64A116000BF3FE040E03EE000BF00BF72
:1043500000BF00BF00BF00BF00BFA17801F008018F
:1043600051B100BF24219D4A126811709B49096810
:10437000491C9A4A11600AE000BF2721974A126837
:10438000117096490968491C944A116000BF00BF2A
:1043900000BF017B914A126811708189090A8F4A16
:1043A00012685170C168090C8C4A12689170C1681A
:1043B000090E8A4A1268D17000BF88490968091D30
:1043C000864A116000BF00BF00BFC6E0A068002899
:1043D0007ED0417CC91E0C2940D2DFE801F00607DF
:1043E000804041817C7D827E7F8300BFA17801F087
:1043F000080151B100BF2421784A12681170774931
:104400000968491C754A11600AE000BF2521734AFA
:104410001268117071490968491C704A116000BF27
:1044200000BF00BF00F114016C4A12681170090A44
:104430006A4A1268517000F11401090C674A126847
:10444000917000F11401090E644A1268D17000BF26
:1044500062490968091D614A116000BF7BE000BF25
:10446000A17801F0080151B100BF24215B4A126814
:1044700011705A490968491C584A11600AE000BF86
:104480002621564A1268117054490968491C534A3A
:10449000116000BF00BF00BF00F114014F4A126855
:1044A0001170090A4D4A1268517000F11401090C8B
:1044B0004A4A1268917000F11401090E474A1268C5
:1044C000D17000BF45490968091D444A116000E0E8
:1044D00042E000BF3FE000BF00BF00BF00BF00BF21
:1044E00000BF00BFA17801F0080151B100BF242135
:1044F0003A4A1268117039490968491C374A1160F3
:104500000AE000BF2721354A126811703349096853
:10451000491C324A116000BF00BF00BF00F1140106
:104520002E4A12681170090A2C4A1268517000F163
:104530001401090C294A1268917000F11401090E46
:10454000264A1268D17000BF24490968091D234A10
:10455000116000BF00BF00BF00BF01F037B900BF4E
:1045600022201E49096808701C480068401C1B492D
:10457000086000BF00BF207909680870174800680C
:10458000401C1649086000BFE7E700BF00BF2420B9
:1045900012490968087011480068401C0F490860FA
:1045A00000BF00BF00BF207909680870A088000A1A
:1045B0000A49096848706068000C084909688870F1
:1045C0006068000E05490968C87000BF03480068AC
:1045D000001D0249086000BFBFE70000180200206C
:1045E00000BF00BF2420FD4909680870FB4800682F
:1045F000401CFA49086000BF00BF00BF207909686D
:104600000870A088000AF549096848706068000CC5
:10461000F249096888706068000EF0490968C8703E
:1046200000BFEE480068001DEC49086000BF94E739
:104630006078012809D100BFE84909680870E74897
:104640000068401CE549086019E06078022809D13B
:1046500000BFE24909680870E0480068401CDF4973
:1046600008600CE06078032809D100BFDB490968C5
:104670000870DA480068401CD849086000BF6CE741
:10468000607801280AD100BF0420D4490968087065
:10469000D2480068401CD14908601BE060780228BD
:1046A0000AD100BF0520CD4909680870CB480068D1
:1046B000401CCA4908600DE0607803280AD100BF99
:1046C0000620C64909680870C4480068401CC349F0
:1046D000086000BF41E7607801280AD100BF0D20C3
:1046E000BE4909680870BD480068401CBB490860A5
:1046F0001BE0607802280AD100BF0E20B749096884
:104700000870B6480068401CB44908600DE0607845
:1047100003280AD100BF0F20B04909680870AF48CC
:104720000068401CAD49086000BF16E760780128AA
:104730000AD100BF0720A94909680870A748006886
:10474000401CA64908601BE0607802280AD100BF1F
:104750000820A24909680870A0480068401C9F49C9
:1047600008600DE0607803280AD100BF09209B494A
:104770000968087099480068401C9849086000BFA3
:10478000EBE6607801280AD100BF0A209349096846
:10479000087092480068401C904908601BE06078EF
:1047A00002280AD100BF0B208C49096808708B4889
:1047B0000068401C894908600DE0607803280AD130
:1047C00000BF0C2085490968087084480068401CB7
:1047D0008249086000BFC0E6607801280AD100BFA6
:1047E00010207E49096808707C480068401C7B499D
:1047F00008601BE0607802280AD100BF11207749C9
:104800000968087075480068401C744908600DE02C
:10481000607803280AD100BF122070490968087027
:104820006E480068401C6D49086000BF95E66078DE
:1048300001280AD100BF1320684909680870674839
:104840000068401C654908601BE0607802280AD1B6
:1048500000BF142061490968087060480068401C66
:104860005E4908600DE0607803280AD100BF15207A
:104870005A490968087059480068401C574908603F
:1048800000BF6AE6607801280AD100BF16205349AC
:104890000968087051480068401C504908601BE0D6
:1048A000607802280AD100BF17204C4909680870B7
:1048B0004A480068401C494908600DE060780328B8
:1048C0000AD100BF182045490968087043480068AC
:1048D000401C4249086000BF3FE6607801280AD1C9
:1048E00000BF19203D49096808703C480068401C19
:1048F0003A4908601BE0607802280AD100BF1A20FC
:1049000036490968087035480068401C334908601A
:104910000DE0607803280AD100BF1B202F490968E9
:1049200008702E480068401C2C49086000BF14E63F
:10493000607801280AD100BF1C2028490968087046
:1049400026480068401C254908601BE06078022862
:104950000AD100BF1D202149096808701F4800685E
:10496000401C1E4908600DE0607803280AD100BF92
:104970001E201A490968087018480068401C174929
:10498000086000BFE9E5607801280AD100BF1F2058
:1049900012490968087011480068401C0F490860F6
:1049A0001BE0607802280AD100BF20200B4909686B
:1049B00008700A480068401C084908600DE06078EB
:1049C00003280AD100BF2120044909680870034860
:1049D0000068401C0149086000BFBEE518020020C5
:1049E00000212269D2B12269D06801E0491CC06867
:1049F0000028FBD100BF2C22FC4B1B681A70FB4A1D
:104A00001268521CF94B1A6000BF00BF1B68197076
:104A1000F64A1268521CF54B1A6000BF9DE52069EA
:104A2000C0B320690078012850D12069407801285E
:104A300004D0022818D0032843D12CE000BF28203E
:104A4000EA4909680870E9480068401CE7490860BD
:104A500000BF00BF2D2009680870E4480068401CB2
:104A6000E249086000BF30E000BF2920DF49096843
:104A70000870DE480068401CDC49086000BF00BFC9
:104A80002E2009680870D9480068401CD749086082
:104A900000BF1AE01AE000BF2A20D4490968087054
:104AA000D2480068401CD149086000BF00BF2F20D9
:104AB00009680870CD480068401CCC49086000BFF8
:104AC00003E0032000F0D0FE00BF55E0206900782D
:104AD000192851D12069407800F00F00012804D036
:104AE000022818D0032842D12BE000BF2820BF495C
:104AF00009680870BD480068401CBC49086000BFD8
:104B000000BF2D2009680870B8480068401CB749EC
:104B1000086000BF2FE000BF2920B4490968087071
:104B2000B2480068401CB149086000BF00BF2E2099
:104B300009680870AD480068401CAC49086000BFB7
:104B400019E000BF2A20A94909680870A748006831
:104B5000401CA649086000BF00BF2F2009680870EC
:104B6000A2480068401CA149086000BF03E0032080
:104B700000F07AFE00BF00BFEFE4206900287DD07E
:104B800020690078012879D1216988686178012934
:104B900004D002295DD003295AD1BDE000BF2521F0
:104BA000924A1268117091490968491C8F4A116034
:104BB00000BF00BF00BF00F1140112681170090AA4
:104BC0008A4A1268517000F11401090C874A126870
:104BD000917000F11401090E844A1268D17000BF6F
:104BE00082490968091D814A116000BF00BF222166
:104BF000126811707D490968491C7C4A116000BF28
:104C000000BF01211268117078490968491C774A70
:104C1000116000BF00BF012112681170734909685B
:104C2000491C724A116000BF00BF28211268117030
:104C30006E490968491C6D4A116000BF00BF2F21F1
:104C40001268117069490968491C684A116000BFFF
:104C5000C9E000BF2621654A1268117063490968DE
:104C6000491C624A116000BF00BF00BF00F114017F
:104C700012681170090A5D4A126800E0B5E05170CF
:104C800000F11401090C594A1268917000F11401E5
:104C9000090E564A1268D17000BF54490968091DAF
:104CA000524A116000BF00BF2321126811704F49A2
:104CB0000968491C4D4A116000BF00BF00BF0121B7
:104CC000126811700021494A1268517000BF4749AB
:104CD0000968891C454A116000BF00BF02211268A3
:104CE000117042490968491C404A116000BF00BF69
:104CF0002921126811703D490968491C3B4A11601D
:104D000000BF00BF2F211268117038490968491C83
:104D1000364A116000BF66E000BF2721334A12689F
:104D2000117032490968491C304A116000BF00BF48
:104D300000BF00F1140112681170090A2B4A1268B1
:104D4000517000F11401090C284A1268917000F1A9
:104D50001401090E254A1268D17000BF2349096861
:104D6000091D224A116000BF00BF24211268117082
:104D70001E490968491C1D4A116000BF00BF00BFE1
:104D80000121126811700021184A12685170174AE7
:104D900012689170154A1268D17000BF13490968F2
:104DA000091D124A116000BF00BF03211268117073
:104DB0000E490968491C0D4A116000BF00BF2A2135
:104DC0001268117009490968491C084A116000BF3E
:104DD00000BF2F211268117004490968491C034A59
:104DE000116000BF00BF00BF00BF20E41802002018
:104DF000206900287ED02069007801287AD12169B5
:104E000088686178012904D002295DD003295AD12C
:104E1000BDE000BF2521FE4A12681170FC490968F7
:104E2000491CFB4A116000BF00BF00BF00F1140124
:104E300012681170090AF64A1268517000F11401E3
:104E4000090CF34A1268917000F11401090EF04A3E
:104E50001268D17000BFEE490968091DEC4A116063
:104E600000BF00BF222112681170E9490968491C7E
:104E7000E74A116000BF00BF012112681170E449C8
:104E80000968491CE24A116000BF00BF0421126892
:104E90001170DF490968491CDD4A116000BF00BF7D
:104EA000282112681170DA490968491CD84A116032
:104EB00000BF00BF2F2112681170D5490968491C35
:104EC000D34A116000BFC9E000BF2621D04A126852
:104ED0001170CF490968491CCD4A116000BF00BF5D
:104EE00000BF00F1140112681170090AC84A126863
:104EF000517000E0B4E000F11401090CC44A1268DA
:104F0000917000F11401090EC14A1268D17000BFFE
:104F1000BF490968091DBE4A116000BF00BF2321B7
:104F200012681170BA490968491CB94A116000BF7A
:104F300000BF00BF0121126811700021B44A12683D
:104F4000517000BFB2490968891CB14A116000BFA5
:104F500000BF052112681170AD490968491CAC4AAF
:104F6000116000BF00BF292112681170A8490968AB
:104F7000491CA74A116000BF00BF2F2112681170A1
:104F8000A3490968491CA24A116000BF66E000BF3E
:104F900027219F4A126811709D490968491C9C4A43
:104FA000116000BF00BF00BF00F114011268117052
:104FB000090A974A1268517000F11401090C944AC9
:104FC0001268917000F11401090E914A1268D170B3
:104FD00000BF8F490968091D8D4A116000BF00BFDD
:104FE0002421126811708A490968491C884A116095
:104FF00000BF00BF00BF0121126811700021844A68
:1050000012685170824A12689170814A1268D17098
:1050100000BF7F490968091D7D4A116000BF00BFBC
:105020000621126811707A490968491C784A116092
:1050300000BF00BF2A211268117075490968491C18
:10504000734A116000BF00BF2F21126811707049B0
:105050000968491C6E4A116000BF00BF00BF00BF55
:10506000B4E3206900287DD020690078012879D137
:10507000216988686178012904D0022973D0032945
:1050800072D110E100BF2421614A12681170604999
:105090000968491C5E4A116000BF00BF00BF00F1F3
:1050A000140112681170090A594A1268517000F10E
:1050B0001401090C564A1268917000F11401090E8E
:1050C000534A1268D17000BF51490968091D504AFE
:1050D000116000BF00BF2521126811704C4909689A
:1050E000491C4B4A116000BF00BF00BF00F1140112
:1050F00012681170090A464A1268517000F11401D1
:10510000090C434A1268917000F11401090E404ADB
:105110001268D17000BF3E490968091D3C4A116000
:1051200000BF00BF22211268117039490968491C6B
:10513000374A116000BF00BF012112681170344965
:105140000968491C324A116000BF00BF0121126882
:1051500011702F490968491C2D4A116000BF00BF1A
:10516000282102E02FE113E02BE112681170284999
:105170000968491C264A116000BF00BF2B21126834
:10518000117023490968491C214A116000BF18E1C8
:1051900000BF24211E4A126811701D490968491C6C
:1051A0001B4A116000BF00BF00BF00F1140112686C
:1051B0001170090A164A1268517000F11401090CA5
:1051C000134A1268917000F11401090E104A126816
:1051D000D17000BF0E490968091D0D4A116000BF5A
:1051E00000BF26211268117009490968491C084A44
:1051F000116000BF00BF00BF00F114011268117000
:10520000090A034A1268517000F11401090C01E007
:1052100018020020FC4A1268917000F11401090E76
:10522000F94A1268D17000BFF7490968091DF64AAA
:10523000116000BF00BF232112681170F249096894
:10524000491CF14A116000BF00BF00BF0121126874
:1052500011700021EC4A1268517000BFEA490968D8
:10526000891CE94A116000BF00BF02211268117059
:10527000E5490968491CE44A116000BF00BF2921C3
:1052800012681170E0490968491CDF4A116000BFCB
:1052900000BF2B2112681170DB490968491CDA4AEA
:1052A000116000BF8DE000BF2421D74A1268117041
:1052B000D5490968491CD44A116000BF00BF00BF2E
:1052C00000F1140112681170090ACF4A1268517076
:1052D00000F11401090CCC4A1268917000F114011C
:1052E000090EC94A1268D17000BFC7490968091D73
:1052F000C54A116000BF00BF272112681170C24962
:105300000968491CC04A116000BF00BF00BF00F11E
:10531000140112681170090ABB4A1268517000F139
:105320001401090CB84A1268917000F11401090EB9
:10533000B54A1268D17000BFB3490968091DB24A65
:10534000116000BF00BF242112681170AE490968C6
:10535000491CAD4A116000BF00BF00BF01211268A7
:1053600011700021A84A12685170A74A1268917002
:10537000A54A1268D17000BFA3490968091DA24A55
:10538000116000BF00BF0321126811709E490968B7
:10539000491C9D4A116000BF00BF2A21126811708C
:1053A00099490968491C984A116000BF00BF2B2128
:1053B0001268117094490968491C934A116000BF32
:1053C00000BF00BF00BF01E2206900287ED0206935
:1053D000007801287AD1216988686178012904D090
:1053E000022974D0032973D110E100BF2421864A19
:1053F0001268117084490968491C834A116000BF12
:1054000000BF00BF00F1140112681170090A7E4A42
:105410001268517000F11401090C7B4A12689170F6
:1054200000F11401090E784A1268D17000BF764964
:105430000968091D744A116000BF00BF2521126868
:10544000117071490968491C6F4A116000BF00BFA3
:1054500000BF00F1140112681170090A6A4A12684B
:10546000517000F11401090C674A1268917000F143
:105470001401090E644A1268D17000BF62490968BC
:10548000091D614A116000BF00BF2221126811701E
:105490005D490968491C5C4A116000BF00BF0121D9
:1054A0001268117058490968491C574A116000BFB9
:1054B00000BF04211268117053490968491C524AFF
:1054C000116000BF00BF2821126802E02EE112E047
:1054D0002AE111704C490968491C4B4A116000BF10
:1054E00000BF2B211268117047490968491C464AC0
:1054F000116000BF18E100BF2421434A12681170F7
:1055000041490968491C404A116000BF00BF00BF03
:1055100000F1140112681170090A3B4A12685170B7
:1055200000F11401090C384A1268917000F114015D
:10553000090E354A1268D17000BF33490968091D48
:10554000314A116000BF00BF2621126811702E4938
:105550000968491C2C4A116000BF00BF00BF00F160
:10556000140112681170090A274A1268517000F17B
:105570001401090C244A1268917000F11401090EFB
:10558000214A1268D17000BF1F490968091D1E4ACF
:10559000116000BF00BF2321126811701A49096809
:1055A000491C194A116000BF00BF00BF01211268E9
:1055B00011700021144A1268517000BF1249096825
:1055C000891C114A116000BF00BF052112681170CB
:1055D0000D490968491C0C4A116000BF00BF292110
:1055E0001268117008490968491C074A116000BF18
:1055F00000BF2B211268117003490968491C024A37
:10560000116000BF90E000001802002000BF2421BC
:10561000724A1268117071490968491C6F4A116019
:1056200000BF00BF00BF00F1140112681170090A29
:105630006A4A1268517000F11401090C674A126835
:10564000917000F11401090E644A1268D17000BF14
:1056500062490968091D614A116000BF00BF272126
:10566000126811705D490968491C5C4A116000BFED
:1056700000BF00BF00F1140112681170090A574AF7
:105680001268517000F11401090C544A12689170AB
:1056900000F11401090E514A1268D17000BF4F4940
:1056A0000968091D4D4A116000BF00BF242112681E
:1056B00011704A490968491C484A116000BF00BF7F
:1056C00000BF0121126811700021444A1268517014
:1056D000424A12689170414A1268D17000BF3F4936
:1056E0000968091D3D4A116000BF00BF062112680C
:1056F00011703A490968491C384A116000BF00BF5F
:105700002A211268117035490968491C334A116011
:1057100000BF00BF2B211268117030490968491C75
:105720002E4A116000BF00BF00BF00BF4EE000BFA7
:1057300000BF002029490968087028490968487095
:1057400026490968887025490968C87000BF234840
:105750000068001D2149086000BF37E0A07800F014
:10576000080068BB6078012804D002280ED0032806
:1057700024D117E000BF2D20184909680870174888
:105780000068401C1549086000BF18E000BF2E20CB
:1057900012490968087011480068401C0F490860E8
:1057A00000BF0CE000BF2F200C49096808700B48AF
:1057B0000068401C0949086000BF00E000BF00BF4E
:1057C00004E003E0082000F04FF800BF00BFE068ED
:1057D00010B1E068FEF7DAFC002010BD18020020CE
:1057E00070B506460021304600F04AFF802114487B
:1057F000FAF7E6FD4FF480711248FAF7E1FD11481F
:10580000114908600E4811490860344613E02546E6
:10581000EC680020E8602846FEF7B8FC54B100BFF1
:105820002B200A490968087008480068401C07498D
:10583000086000BF00BF002CE9D1002070BD00004F
:10584000D80E0020D80D00201402002018020020DD
:1058500001480078704700001C0200200020014928
:10586000087070471C0200200146024801700020A9
:10587000704700001C0200200146024850F8210039
:10588000704700002002002010B50446204600F0BA
:10589000D7F900F02FF9FFF7E1FF002010BD00005D
:1058A00010B51448006890F82100C0F3400020B9FA
:1058B000002011490870084610BD1048006838B132
:1058C00080220E4801680C48FAF791FD0A48F3E778
:1058D00002F072FA20B10AA10748FAF7B6FD03E018
:1058E00009A10548FAF7B1FD09A10348FAF773FDCC
:1058F0000148E1E788020020580F00208C020020B8
:105900006D7368200000000066696E7368200000F7
:105910003E00000008B5002000900E48006820B945
:10592000AF220D490DA003F001F805E04FF0FF3163
:105930000848006805F0F4FC0649096801236A4636
:10594000D1F8AC02991E03F04FFE0128EED19DF86C
:10595000000008BD8802002076ED00087368656CC1
:105960006C20213D2052545F4E554C4C00000000ED
:1059700070B50546E81C20F003051848046800E0EF
:10598000646824B105F1080021688142F8D974B92E
:1059900000F03EF81148046800E0646824B105F1A5
:1059A000080021688142F8D30CB9002070BD294657
:1059B0002046FEF7DFFB21460848FEF7C4FB002027
:1059C000606021460648FEF761FB294604F10800A5
:1059D000FAF7F6FC04F10800E8E700005C0200209A
:1059E0006002002070B50446A4F108052946064867
:1059F000FEF7A9FB29460548FEF748FB2946034860
:105A0000FEF763FB70BD0000600200205C02002016
:105A100070B50026124805681EE0002411E004EB72
:105A20004400104901EBC000407C48B104EB440045
:105A300001EBC000416905F10800814200D102E09C
:105A4000641C082CEBDB00BF2E466D68082C03D1CC
:105A500006F10800FFF7C6FF002DDED170BD000083
:105A600060020020180D002010B580210748FAF7C9
:105A7000A7FC0648064908607820096808600020ED
:105A80000349096848600349086010BD580B0020AD
:105A90005C0200206002002010B50446204600F0A1
:105AA000CFF800F027F800F09BFEFFF7D7FEFFF7D6
:105AB000DBFF002010BD00000246002107E001EBE3
:105AC00081000B4B13F8200000B902E0491C10299B
:105AD000F5DB00BF102901D10020704701EB8100E8
