:020000040800F2
:10000000C80E0020D5010008DD010008DB02000851
:10001000E1010008E3010008E5010008000000001C
:10002000000000000000000000000000E7010008E0
:10003000E90100080000000027020008931C0008E6
:10004000EF010008EF010008EF010008EF010008D0
:10005000EF010008EF0100082B06000879060008F0
:100060008B0600089D060008AF060008EF01000897
:10007000EF010008EF010008EF010008EF010008A0
:10008000EF010008EF010008EF010008EF01000890
:10009000EF010008EF010008EF010008C1060008A9
:1000A000EF010008EF010008EF010008EF01000870
:1000B000EF010008EF010008EF010008EF01000860
:1000C000EF010008EF010008EF010008EF01000850
:1000D000EF01000819230008EF010008EF010008F4
:1000E0003D060008EF010008EF010008EF010008DD
:1000F000EF010008EF010008EF010008EF01000820
:10010000EF010008EF010008EF010008EF0100080F
:10011000EF010008EF010008EF010008EF010008FF
:10012000EF010008EF010008EF010008EF010008EF
:10013000EF010008EF010008EF010008EF010008DF
:10014000EF010008EF010008EF010008EF010008CF
:10015000EF010008EF010008EF010008EF010008BF
:10016000EF010008EF010008EF010008EF010008AF
:10017000EF010008EF010008EF0100080000000097
:10018000EF010008EF010008EF010008EF0100088F
:10019000EF010008EF010008EF010008EF0100087F
:1001A000EF010008EF010008EF010008DFF810D0B0
:1001B00000F074F90048004717050008AFF300800D
:1001C000C80E0020002804D090FAA0F0B0FA80F009
:1001D000401C70470648804706480047FEE7FEE798
:1001E000FEE7FEE7FEE7FEE7FEE7FEE7FEE7FEE7E7
:1001F000891D0008AD010008EFF3108072B670474A
:1002000080F310887047434A1368012B04D04FF0E5
:1002100001031360404A1060404A116040484FF0AB
:10022000805101607047EFF3108272B6394801685F
:1002300051B34FF0000101603748016891B1EFF30D
:1002400009811EF0100F08BF21ED108B21E9F00F7E
:100250004FF000041EF0100F08BF012441F8044DB8
:10026000006801602D490968096808C9B1E8F00F04
:10027000002B18BFB1EC108B81F309884EF0100EE3
:10028000002B18BF2EF0100E82F310884EF0040ED3
:10029000704722490860EFF3148222F0040282F3CF
:1002A00014881D494FF0000008601A494FF0010002
:1002B00008601C484FF47F01D0F8002041EA020199
:1002C000016017484FF080510160174800680068CE
:1002D00080F3088861B662B670471EF0040F0CBF49
:1002E000EFF30880EFF3098020E9F00F40F804ED08
:1002F00040F804ED1EF0040F0CBF80F3088880F373
:10030000098800B505F01CFB5DF804EB4EF0040E07
:10031000704700000C0000200400002008000020AE
:1003200004ED00E020ED00E008ED00E02DE9F05FD5
:100330000546002092469B46884606468146402454
:100340001BE0284641464746224600F097F85346B0
:100350005A46C01A914110D311461846224600F061
:100360007EF82D1A67EB01084F4622460120002136
:1003700000F075F817EB00094E41201EA4F10104AE
:10038000DFDC484631462A464346BDE8F09F40EA56
:1003900001039B0703D009E008C9121F08C0042A03
:1003A000FAD203E011F8013B00F8013B521EF9D2EA
:1003B0007047D2B201E000F8012B491EFBD2704712
:1003C0000022F6E710B513460A4604461946FFF721
:1003D000F0FF204610BD421E12F8013F002BFBD15A
:1003E00011F8013B02F8013B002BF9D1704710B521
:1003F000044604E00B7800F8013B03B1491C521E8F
:10040000F8D2204610BD421C10F8011B0029FBD178
:10041000801A704730B504460020034600E05B1C9C
:10042000934203D2E05CCD5C401BF8D030BD034664
:1004300011F8012B00F8012B002AF9D1184670475A
:1004400030B505460020034600E05B1C934205D210
:10045000EC5CC85C201A01D1002CF6D130BD202AFA
:1004600004DB203A00FA02F1002070479140C2F10B
:10047000200320FA03F3194390407047202A04DB3D
:10048000203A21FA02F00021704721FA02F3D0400D
:10049000C2F120029140084319467047064C074DAF
:1004A00006E0E06840F0010394E807009847103444
:1004B000AC42F6D3FFF77EFE48B2000868B20008EF
:1004C00070B58C1810F8015B15F0070301D110F816
:1004D000013B2A1106D110F8012B03E010F8016B43
:1004E00001F8016B5B1EF9D12B0705D40023521EC6
:1004F0000DD401F8013BFAE710F8013BCB1A921C2E
:1005000003E013F8015B01F8015B521EF9D5A1422B
:10051000D8D3002070BD10B508F09AFA002010BDA5
:100520000146087810381823B0FBF3F20848805CC5
:10053000C865032A05D908686FF30900001D88659E
:1005400003E008686FF309008865886D7047000054
:10055000DA960008014600208A6A8B69CBB932B16D
:10056000012A0DD0022A03D0032A10D10EE000BFC9
:10057000CB6A03F08073B3F1807F00D1012007E0E4
:10058000CB6AB3F1C07F00D1012001E000E000BFE1
:1005900034E08B69B3F5005F1AD132B1012A07D07C
:1005A000022A03D0032A11D10AE000BF01200EE085
:1005B000CB6A03F08073B3F1807F00D1012006E0A5
:1005C000CB6AB3F1C07F00D1012000E000BF15E08D
:1005D00032B1012A05D0022A04D0032A0CD103E04B
:1005E00000BF00BF012008E0CB6A03F08073B3F1C5
:1005F000807F00D1012000E000BF00BF704730B510
:100600000468246824F4802405682C60046863600E
:100610008468402C04D10468A2600468E16003E0AF
:100620000468A1600468E26030BD10B505F024FDE7
:10063000012000F09BFA05F049FD10BD10B505F052
:100640001BFD4FF4806000F091FA4FF4006000F061
:100650008DFA4FF4805000F089FA4FF4005000F00A
:1006600085FA4FF4804000F081FA4FF4004000F02A
:100670007DFA05F02BFD10BD10B505F0FDFC022044
:1006800000F074FA05F022FD10BD10B505F0F4FC81
:10069000042000F06BFA05F019FD10BD10B505F04F
:1006A000EBFC082000F062FA05F010FD10BD10B55B
:1006B00005F0E2FC102000F059FA05F007FD10BD2E
:1006C00010B505F0D9FC202000F050FA402000F0D1
:1006D0004DFA802000F04AFA4FF4807000F046FA9C
:1006E0004FF4007000F042FA05F0F0FC10BD70B558
:1006F0000446A56D00F066FB064694F83500022816
:1007000008D08020606500BF002084F8340000BF5E
:10071000012070BD2068006820F016002168086084
:100720002068406920F0800021684861206C08B989
:10073000A06C28B12068006820F0080021680860DB
:100740002068006820F00100216808600FE000F0D8
:1007500039FB801B05280AD92020606500BF0020D6
:1007600084F8340000BF032084F83500D1E7206806
:10077000006800F001000028E9D194F85C103F20E7
:100780008840A86000BF002084F8340000BF01202A
:1007900084F835000020BCE7014691F835000228B6
:1007A00003D08020486501207047052081F835007E
:1007B0000868006820F001000A6810600020F3E774
:1007C00070B504460CB9012070BD94F835000228BC
:1007D00000D1F9E72068006820F001002168086076
:1007E00000202168086021684860216888602168CD
:1007F000C860216808612120216848612046FFF710
:100800008FFE05460020E06320646064A064E0641D
:10081000206594F85C103F208840A8600020606547
:1008200084F8350000BF84F8340000BF00BFCBE778
:100830002DE9F0410446002500F0C4FA074614B93A
:100840000120BDE8F081606A00B100BF00BF002058
:1008500084F8340000BF022084F835002068006866
:1008600020F00100216808600AE000F0ABFAC01B2C
:10087000052805D920206065032084F83500E0E7CD
:100880002068006800F001000028EED120680568AB
:1008900021480540D4E901010843E1680843216982
:1008A000084361690843A1690843E1690843216A73
:1008B00008430543606A042803D1D4E90B010843C7
:1008C0000543206805602068456925F00705606AD2
:1008D0000543606A04280DD1A06A0543E06A48B167
:1008E0002046FFF737FE28B140206065012084F8DC
:1008F0003500A6E7206845612046FFF711FE064651
:1009000094F85C103F208840B060002060650120B2
:1009100084F83500002094E73F8010F02DE9F0477F
:1009200004460D4616461F464FF00008D4F858906E
:1009300000BF94F83400012802D10220BDE8F087FE
:10094000012084F8340000BF94F83500012825D137
:10095000022084F83500002060653B463246294677
:100960002046FFF74CFE94F85C103F208840C9F801
:1009700008002068006840F0160021680860206CBC
:1009800028B12068006840F00800216808602068ED
:10099000006840F001002168086006E000BF002008
:1009A00084F8340000BF4FF002084046C6E700005C
:1009B000F0B50C4600250022002300219CE0012612
:1009C00006FA01F504EA0502AA427CD14C4E8F08D2
:1009D00056F827308E07370F0F26BE403340494E5A
:1009E000B04201D100262DE0474EB04201D1012690
:1009F00028E0464EB04201D1022623E0444EB042E8
:100A000001D103261EE0434EB04201D1042619E075
:100A1000414EB04201D1052614E0404EB04201D112
:100A200006260FE03E4EB04201D107260AE03D4EB9
:100A3000B04201D1082605E03B4EB04201D1092663
:100A400000E00A268F073F0FBE409E4222D1374E5C
:100A500036689643354F3E603E1D366896433F1DCF
:100A60003E603E1D366896433F1D3E603E1D366823
:100A700096433F1D3E608E07370F0F2606FA07F399
:100A80001F4E8F0856F827609E431D4F4FEA910C6A
:100A900047F82C6006684FEA410C032707FA0CF769
:100AA000BE430660CF0800F1200656F827604F07C6
:100AB0004FEAD76C0F2707FA0CF7BE434FEAD10C69
:100AC00000F1200700E016E047F82C60C6684FEA06
:100AD000410C032707FA0CF7BE43C660476801269E
:100AE0008E40B743476086684FEA410C032707FAF8
:100AF0000CF7BE438660491C1029FFF460AFF0BDBF
:100B00000838014000000240000402400008024092
:100B1000000C024000100240001402400018024085
:100B2000001C02400020024000240240003C014022
:100B300070B50546284602F0A7F8044604EB4400C9
:100B4000094901EB8000406858B104EB44020B46B0
:100B500003EB8202906804EB440203EB82025168CB
:100B6000884700BF70BD00002000002010B504467B
:100B700004480068204020B1024804602046FFF786
:100B8000D7FF10BD143C0140F8B502460B460025C6
:100B9000002400200021E8E0012606FA01F51E6885
:100BA00006EA0504AC4275D11E7906F00306012E53
:100BB00004D01E7906F00306022E13D190684F0070
:100BC0000326BE40B0434F00DE68BE403043906015
:100BD000506801268E40B0431E79C6F300168E4041
:100BE000304350601E7906F00306032E09D0D0680A
:100BF0004F000326BE40B0434F009E68BE403043C6
:100C0000D0601E7906F00306022E13D1CF0802F140
:100C1000200656F827004E07F70E0F26BE40B043B9
:100C20004F07FF0E1E69BE403043CF0802F1200679
:100C300046F8270010684F000326BE40B0431E79D7
:100C400006F003064F00BE40304310605E6806F0B9
:100C50008056B6F1805FA6D100BF00260096454EB3
:100C6000366846F48046434F3E603E46366806F49A
:100C70008046009600BF00BF3F4E8F0856F8270001
:100C80008E07370F0F26BE40B0433C4EB24202D112
:100C900000262EE068E03A4EB24201D1012628E05B
:100CA000384EB24201D1022623E0374EB24201D182
:100CB00003261EE0354EB24201D1042619E0344E1F
:100CC000B24201D1052614E0324EB24201D10626CD
:100CD0000FE0314EB24201D107260AE02F4EB24258
:100CE00001D1082605E02E4EB24201D1092600E0CE
:100CF0000A268F073F0FBE4030431F4E8F0846F82D
:100D00002700284E3068A0435E6806F48036B6F5AA
:100D1000803F00D12043234E3060361D3068A04311
:100D20005E6806F40036B6F5003F00D120431D4E44
:100D3000361D3060361D3068A0435E6806F48016AC
:100D4000B6F5801F00D12043164E08363060361DA0
:100D50003068A0435E6806F40016B6F5001F00D1A7
:100D60002043104E0C363060491C1029FFF414AF9C
:100D7000F8BD00004438024008380140000002403D
:100D80000004024000080240000C02400010024033
:100D90000014024000180240001C024000200240E3
:100DA00000240240003C0140024613690B400BB195
:100DB000012000E0002070470AB1816101E00B04CE
:100DC0008361704710B507F09DF94FF47A7148437D
:100DD000B0FBF1F010BD000003480068034909783A
:100DE0000844014908607047140000201C000020DE
:100DF00010B50D48006840F400700B4908600846C3
:100E0000006840F4806008600846006840F4807024
:100E10000860032000F0A2F8002000F007F800F0BE
:100E200009F8002010BD0000003C024001460020EF
:100E30007047000008B500BF002000900E48006811
:100E400040F480400C4908600846006800F4804087
:100E5000009000BF00BF00BF00200090081F006886
:100E600040F08050091F08600846006800F080507C
:100E7000009000BF00BF08BD4438024010B50146D5
:100E80000846002817DB00F01F0301229A400B4B95
:100E9000440943F8242000BF00BF00BFBFF34F8FB9
:100EA00000BF00BF00BF00BF00BF00BFBFF36F8F18
:100EB00000BF00BF00BF00BF10BD000080E100E028
:100EC00001460846002809DB00F01F0301229A4072
:100ED00043099B0003F1E023C3F8002100BF7047E2
:100EE0002DE9F05F80460D461646002701F022FAF4
:100EF000074639462A46334601F00700C0F1070A83
:100F0000BAF1040F02D94FF0040A01E0C0F1070A58
:100F1000D14600F1040ABAF1070F02D24FF0000ADD
:100F200001E0A0F1030AD4464FF0010A0AFA09FAD7
:100F3000AAF1010A0AEA020A0AFA0CFA4FF0010BB6
:100F40000BFA0CFBABF1010B0BEA030B4AEA0B04A7
:100F50002146404601F0F6F9BDE8F09F00BF00F0E1
:100F60000702064B19684FF6FF031940044B0B4369
:100F700043EA0221014B196000BF70470CED00E00D
:100F80000000FA0538B5002400BF002000901D487D
:100F9000006840F080501B4908600846006800F077
:100FA0008050009000BF00BF012017490864FFF780
:100FB00009FF044607E0FFF705FF001BB0F57A7F45
:100FC00001D9032038BD1148406800F48030B0F5E5
:100FD000803FF0D101200C494864FFF7F3FE04463E
:100FE00007E0FFF7EFFE001BB0F57A7F01D9032081
:100FF000E8E70648406800F40030B0F5003FF0D163
:101000000020DFE74038024000000E420070004040
:1010100070B504460D460CB9012070BD58480068F3
:1010200000F00F00A84209D255490D70084600682B
:1010300000F00F00A84201D00120EEE7207800F078
:10104000020002281DD1207800F00400042805D1F8
:101050004C48006840F4E0504A490860207800F0AD
:101060000800082805D14748006840F46040454919
:1010700008604448006820F0F000A1680843414936
:101080000860207800F00100A8B36068012807D14B
:101090003C4808380068C0F34040B8B90120BCE7BC
:1010A0006068022802D06068032807D135480838F4
:1010B0000068C0F3406048B90120AEE73148083805
:1010C0000068C0F3400008B90120A6E72D48006879
:1010D00020F00300616808432A490860FFF772FEA8
:1010E000064609E0FFF76EFE801B41F28831884218
:1010F00002D9032091E707E02248006800F00C00C5
:101100006168B0EB810FEDD11D48006800F00F0061
:10111000A84209D91A490D700846006800F00F006E
:10112000A84201D0012078E7207800F004000428CC
:1011300007D11448006820F4E050E16808431149E1
:101140000860207800F00800082808D10D480068E1
:1011500020F46040216940EAC1000A49086000F0BB
:101160003FF808490968C1F30311074A515CC840B8
:101170000649086006480068FFF758FE00204CE763
:10118000003C024008380240C296000800000020DF
:10119000180000200148006870470000000000208F
:1011A00000B5FFF7F7FF04490968C1F38221034A3C
:1011B000515CC84000BD000008380240D2960008CB
:1011C00000B5FFF7E7FF04490968C1F34231034A5C
:1011D000515CC84000BD000008380240D2960008AB
:1011E0002DE9F047002400250026A1462548006887
:1011F00000F00C0020B1042805D008283AD105E001
:10120000DFF8849039E0DFF8849036E01D48001F55
:10121000006800F03F041B48001F006800F48000D5
:1012200078B11A481749091F0968C1F38811A0FB52
:1012300001700146224600233846FFF777F805463D
:101240000EE011480F49091F0968C1F38811A0FB7E
:1012500001700146224600233846FFF767F805462D
:101260000848001F0068C0F30140401C4600B5FB61
:10127000F6F902E0DFF8109000BF00BF4846BDE875
:10128000F0870000083802400024F40040787D0117
:10129000F8B504460CB90120F8BD207800F0010033
:1012A000002874D0F948006800F00C0004280DD024
:1012B000F648006800F00C00082813D1F348001F1E
:1012C000006800F48000B0F5800F0BD1EF480838BB
:1012D0000068C0F34040002859D06068002856D10B
:1012E0000120D9E700BF6068B0F5803F08D1E7482A
:1012F0000838006840F48030E449083908601EE08E
:101300006068B0F5A02F0DD1E0480838006840F4BF
:101310008020DE49083908600846006840F48030C3
:1013200008600CE0D9480838006820F48030D749BC
:10133000083908600846006820F48020086000BF73
:10134000606890B1FFF73EFD054606E0FFF73AFD05
:10135000401B642801D903209EE7CC480838006868
:10136000C0F340400028F1D011E0FFF72BFD054607
:1013700006E0FFF727FD401B642801D903208BE717
:10138000C24808380068C0F340400028F1D12078F6
:1013900000F0020002285FD1BC48006800F00C0099
:1013A00058B1BA48006800F00C0008281CD1B748B2
:1013B000001F006800F48000B0B9B4480838006825
:1013C000C0F3400020B1E068012801D0012063E7AC
:1013D000AE480838006820F0F800216940EAC100F2
:1013E000AA490839086037E0E06800B30120A8493D
:1013F0000860FFF7E7FC054606E0FFF7E3FC401B4B
:10140000022801D9032047E7A04808380068C0F344
:1014100040000028F1D09D480838006820F0F8000E
:10142000216940EAC10099490839086014E00020A8
:1014300097490860FFF7C6FC054606E0FFF7C2FCC7
:10144000401B022801D9032026E79048083800688D
:10145000C0F340000028F1D1207800F008000828EF
:101460002CD16069A8B101208A490860FFF7AAFC65
:10147000054606E0FFF7A6FC401B022801D9032021
:101480000AE782486C300068C0F340000028F1D0C1
:1014900014E000207F490860FFF794FC054606E051
:1014A000FFF790FC401B022801D90320F4E677489F
:1014B0006C300068C0F340000028F1D1207800F0C3
:1014C0000400042870D1002770483830006800F00C
:1014D000805090B900BF002000906C483830006800
:1014E00040F080506949383108600846006800F0D3
:1014F0008050009000BF00BF01276748006800F4DB
:101500008070B0B96448006840F480706249086037
:10151000FFF758FC054606E0FFF754FC401B022885
:1015200001D90320B8E65C48006800F48070002808
:10153000F2D000BFA068012808D154486830006884
:1015400040F001005149683108601DE0A06805289D
:101550000DD14E486830006840F004004B496831B6
:1015600008600846006840F0010008600CE0474849
:101570006830006820F0010044496831086008467E
:10158000006820F00400086000BFA068A8B1FFF761
:1015900019FC054609E0FFF715FC401B41F28831B4
:1015A000884202D9032077E626E038486830006890
:1015B000C0F340000028EED013E0FFF703FC05461F
:1015C00008E0FFF7FFFB401B41F28831884201D958
:1015D000032061E62D4868300068C0F34000002811
:1015E000EFD1012F07D129483830006820F0805012
:1015F00026493831086000BFA069002845D023483B
:10160000006800F00C0008285DD0A069022845D1D0
:1016100000201F490866FFF7D5FB054606E0FFF7E7
:10162000D1FB401B022801D9032035E617480838B2
:101630000068C0F340600028F1D1D4E907010843F5
:10164000616A40EA81110122A06AC2EB500041EABE
:1016500000412C20005D41EA00600C49091F086030
:1016600001200B490866FFF7ADFB054606E0FFF7D2
:10167000A9FB401B022801D903200DE603480838C6
:101680000068C0F340600028F1D049E0083802400B
:1016900000004742800E4742007000400020214970
:1016A0000866FFF78FFB054606E0FFF78BFB401B44
:1016B000022801D90320EFE51B480068C0F3406011
:1016C0000028F2D12CE0A069012800D1E4E51648F9
:1016D000001D0668A069012820D006F48001E06999
:1016E00081421BD106F03F01206A814216D147F6A4
:1016F000C0703040616AB0EB811F0FD106F44031F9
:101700000122A06AC2EB5000B1EB004F06D106F0F7
:1017100070612C20005DB1EB006F01D00120BBE5B2
:101720000020B9E50000474200380240042808D1F3
:101730004FF0E021096941F004014FF0E02211610E
:1017400007E04FF0E021096921F004014FF0E022A9
:101750001161704770B504462546681EB0F1807F60
:1017600001D301200FE0681E4FF0E02148610F21F6
:101770004FF0FF3000F0E6FD00204FF0E0218861DF
:1017800007200861002070BD7047000070B5044656
:101790002CB94FF45372034903A003F0D3F9254643
:1017A00070BD0000F99F0008687561727420213DCA
:1017B000204E554C4C0000002DE9F84F044620689F
:1017C00005682068C668206847694FF00009CA4666
:1017D00005F00F09B9F1000F0AD105F0200038B16A
:1017E00006F0200020B1204600F0A5FBBDE8F88FF0
:1017F000B9F1000F72D007F0010018B906F490702B
:1018000000286BD005F0010030B106F4807018B1EB
:10181000206C40F00100206405F0040030B107F0B6
:10182000010018B1206C40F00200206405F00200B5
:1018300030B107F0010018B1206C40F004002064C2
:1018400005F0080048B106F0200010B907F00100CB
:1018500018B1206C40F008002064206C70B305F0D3
:10186000200028B106F0200010B1204600F063FBF4
:1018700020684069C0F3801A206C00F0080010B99D
:10188000BAF1000F23D0204600F020FB2068406909
:1018900000F04000402816D12068406920F0400048
:1018A00021684861A06B50B15648A16B0865A06BD8
:1018B000FEF772FF10B1A06B016D88470CE0204667
:1018C000FFF764FF08E02046FFF760FF04E02046D2
:1018D000FFF75CFF0020206488E7FFE7206B01280A
:1018E00079D105F01000002875D006F0100000280E
:1018F00071D000BF00200090206800680090206830
:101900004068009000BF00BF2068406900F04000C0
:10191000402839D1A06B006840681FFA80F8B8F100
:10192000000F30D0A08D40452DDDA4F82E80A06B97
:10193000C069B0F5807F1FD02068C06820F4807037
:101940002168C8602068406920F001002168486172
:101950002068406920F0400021684861202084F818
:101960003E00002020632068C06820F0100021683D
:10197000C860A06BFEF7BBFEA08DE28D801A81B21D
:101980002046FFF701FF31E7A08DE18D401A1FFAD5
:1019900080F8E08DE8B1B8F1000F1AD02068C06877
:1019A00020F490702168C8602068406920F0010030
:1019B00021684861202084F83E00002020632068D0
:1019C000C06820F010002168C86041462046FFF73B
:1019D000DBFE0BE7FFE705F0800030B106F080008A
:1019E00018B1204600F068FC00E705F0400030B177
:1019F00006F0400018B1204600F083FAF6E600BF7A
:101A0000F4E600009D1D000810B504460CB9012045
:101A100010BDA06900B100E000BF94F83D0028B9F6
:101A2000002084F83C00204600F028F8242084F8A8
:101A30003D002068C06820F400502168C86020463E
:101A400000F0D8FA2068006920F49040216808610D
:101A50002068406920F02A00216848612068C06839
:101A600040F400502168C86000202064202084F8E1
:101A70003D0084F83E000020CAE7000010B586B0A3
:101A80000446142101A8FEF79BFC1F4920688842E8
:101A900038D100BF002000901C48006840F01000C2
:101AA0001A4908600846006800F01000009000BF66
:101AB00000BF00BF0020009014481438006840F0B8
:101AC00001001249143908600846006800F001005E
:101AD000009000BF00BF4FF4C06001900220029050
:101AE00000200390032004900720059001A90848D6
:101AF000FFF74AF8002211462520FFF7F1F92520CB
:101B0000FFF7DEF906B010BD001001404438024076
:101B10000000024070B504460D46164694F83E009B
:101B2000202816D105B10EB9012070BD00BF94F870
:101B30003C00012801D10220F7E7012084F83C0095
:101B400000BF0020206332462946204600F068FB93
:101B5000EBE70220E9E7000070B504462CB94FF42A
:101B60005772054905A002F0EDFF254605F588707E
:101B700001F026F970BD000010A0000868756172C0
:101B80007420213D204E554C4C00000070B5044699
:101B90002CB940F26B32054905A002F0D3FF25466F
:101BA00005F5887001F00CF970BD000028A0000850
:101BB000687561727420213D204E554C4C00000028
:101BC000F7B50446154694F83D0020283DD101980C
:101BD00000B10DB90120FEBD00BF94F83C00012802
:101BE00001D10220F7E7012084F83C0000BF0198F2
:101BF0002062A584E58400202064212084F83D0033
:101C00001348616BC8631348616B08641248616BC9
:101C1000C8640020616B086501AE23681A1D316835
:101C20002B46606BFEF77AFE6FF04000216808607B
:101C300000BF002084F83C0000BF2068406940F0ED
:101C40008000216848610020C5E70220C3E700004A
:101C5000891E0008BF1E0008B11D000870B50446AB
:101C60002CB940F27232054905A002F06BFF2546FF
:101C7000042105F5887004F02DF870BD44A000081B
:101C8000687561727420213D204E554C4C00000057
:101C9000704710B504F0F0F9FFF79EF806F038FA37
:101CA00004F014FA10BD000000B593B0302107A86D
:101CB000FEF786FB142102A8FEF782FB00BF00207E
:101CC00001902A48006840F0805028490860084682
:101CD000006800F08050019000BF00BF00BF0020EE
:101CE00001902348006840F44040214908600846BC
:101CF000006800F44040019000BF00BF0120079041
:101D00000004089002200D9041050E9119210F91B9
:101D10004FF4B4711091022111910421129107A87E
:101D2000FFF7B6FA18B1272112A000F001FBFFF768
:101D300029F918B12D210FA000F0FAFA0F20029016
:101D400002200390002004904FF4A05005904FF41F
:101D500080500690052102A8FFF75AF918B13A21E0
:101D600004A000F0E5FA13B000BD000040380240C6
:101D7000007000402E2E5C626F6172645C626F6165
:101D800072642E63000000000348006840F4700095
:101D9000014908607047000088ED00E070B5054615
:101DA000AC6B0020E085E0842046FFF7EFFC70BDBF
:101DB00070B506460025B46B20684069C0F3C015B5
:101DC00094F83D00212805D125B10020E08420466B
:101DD00000F0A7F820684069C0F3801594F83E0031
:101DE000222805D125B10020E085204600F06EF8BC
:101DF000206C40F0100020642046FFF7C7FC70BD47
:101E000070B50546AC6B2868006800F48070F8B9BE
:101E10000020E0852068C06820F480702168C860D8
:101E20002068406920F0010021684861206840690D
:101E300020F0400021684861202084F83E00206B9B
:101E4000012805D12068C06820F010002168C86012
:101E5000206B012804D1A18D2046FFF795FC02E0FC
:101E60002046FFF779FE70BD70B50546AC6B206B60
:101E7000012805D1A08D41082046FFF785FC02E02E
:101E80002046FFF783FE70BD70B50546AC6B286831
:101E9000006800F4807070B90020E0842068406918
:101EA00020F08000216848612068C06840F0400050
:101EB0002168C86002E02046FFF7D0FE70BD70B513
:101EC0000446A56B2846FFF7E3FE70BD0168C968AC
:101ED00021F490710268D1600168496921F0010123
:101EE00002685161016B012905D10168C96821F0BF
:101EF00010010268D160202180F83E1000210163AA
:101F0000704710B504462068C06820F04000216882
:101F1000C860202084F83D002046FFF79FFE002087
:101F200010BD0168C96821F0C0010268D16020219C
:101F300080F83D10704770B5044694F83E002228A2
:101F400056D1A068B0F5805F0CD1206950B900254A
:101F5000A66A20684068C0F308003080A06A801C30
:101F6000A06215E0A56A0026A068B0F5805F03D0E6
:101F7000A06828B9206918B920684068287004E072
:101F80002068406800F07F002870A06A401CA062B2
:101F9000E08D401E80B2E08540BB2068C06820F024
:101FA00020002168C8602068C06820F48070216823
:101FB000C8602068406920F0010021684861202045
:101FC00084F83E00206B01280AD12068C06820F008
:101FD00010002168C860A18D2046FFF7D5FB02E004
:101FE0002046FFF7B9FD0020206370BD0020FCE70C
:101FF0000220FAE72DE9F84F04462068006920F432
:102000004050E1680843216808612169A0680843DD
:1020100061690843E169084300902068C06849F29B
:102020000C618843009908432168C86020684069B2
:1020300020F44070A169084321684861764920680E
:10204000884203D075492068884203D1FFF7B8F869
:10205000814602E0FFF7A4F88146E069B0F5004F41
:102060006CD102206168A0FB015003461920A9FB36
:10207000007001462A463846FEF758F96421B0FB45
:10208000F1F04FEA001A02206168A0FB01510B46F3
:102090001920A9FB00712A463846FEF747F9834606
:1020A00002206168A0FB015003461920A9FB0071C2
:1020B0002A463846FEF73AF96421B0FBF1F000EB0E
:1020C000C00101EB0010ABEB8000322101EBC0003E
:1020D0006421B0FBF1F000F0F8000AEB400A0220A6
:1020E0006168A0FB015003461920A9FB007001465E
:1020F0002A463846FEF71AF9834602206168A0FB9B
:10210000015003461920A9FB00712A463846FEF704
:102110000DF96421B0FBF1F000EBC00101EB001000
:10212000ABEB8000322101EBC0006421B0FBF1F089
:1021300000F007005044216888606AE0042061686C
:10214000A0FB015003461920A9FB007001462A4656
:102150003846FEF7EBF8824604206168A0FB015088
:1021600003461920A9FB007001462A463846FEF7AF
:10217000DDF86421B0FBF1F000EBC00101EB0010D1
:10218000AAEB8000322101EB00106421B0FBF1F0DA
:1021900000F0F00A04206168A0FB017003461920DA
:1021A000A9FB00513A462846FEF7C0F86421B0FB6F
:1021B000F1F00AEB001A04206168A0FB01510B4604
:1021C0001920A9FB00712A463846FEF7AFF883466E
:1021D00004206168A0FB015003461920A9FB007090
:1021E00001462A463846FEF7A1F86421B0FBF1F01B
:1021F00000EBC00101EB0010ABEB8000322101EBE2
:1022000000106421B0FBF1F000F00F005044216891
:102210008860BDE8F88F0000001001400014014004
:1022200077B581B0044615460298A062A5850020C6
:102230002064222084F83E001C48A16BC8631C481F
:10224000A16B08641B48A16BC8640020A16B0865E2
:1022500002AE32682368191D2B46A06BFEF75EFBA9
:1022600000BF00200090206800680090206840684F
:10227000009000BF00BF00BF002084F83C0000BFFA
:102280002068C06840F480702168C8602068406998
:1022900040F00100216848612068406940F040003A
:1022A00021684861002004B070BD0000011E0008D4
:1022B000691E0008B11D0008014691F83D00212863
:1022C00028D18868B0F5805F0BD1086948B90A6ADF
:1022D0001088C0F308000B685860086A801C086208
:1022E00005E00B6A581C086218780B685860C88CA7
:1022F000401E80B2C88458B90868C06820F08000C9
:102300000B68D8600868C06840F040000B68D8606F
:10231000002070470220FCE710B503F0ADFE034833
:1023200007F07EF803F0D2FE10BD00003403002059
:1023300000BFFEE702480068C0F3022070470000BB
:102340000CED00E010B5002804DB0A07130E054A67
:10235000135406E00A07140E034A00F00F031B1F74
:10236000D45410BD00E400E018ED00E002E008C81D
:10237000121F08C1002AFAD170477047002001E0FF
:1023800001C1121F002AFBD17047000070B504463E
:1023900006480068FDF716FF451E054850F8350051
:1023A000A0F114062560304670BD0000D001002069
:1023B0004009002003490868884201D00120704785
:1023C0000020FCE7E00100202DE9F0438BB005463A
:1023D0008946174600242DB94FF49B721C491DA055
:1023E00002F0B0FB2FB940F2371219491AA002F0DF
:1023F000A9FB00E0641C285D202804D0285D092882
:1024000001D04C45F6D324B94FF0FF300BB0BDE8F6
:10241000F0832146284602F0A5F9064616B94FF08A
:10242000FF30F3E7282101A8FDF7CAFF01AA4946BA
:10243000284602F007FA8046B8F1000F02D14FF0AB
:10244000FF30E3E701A94046B04738600020DDE7F0
:1024500030A90008636D64007265747000000000AC
:102460002DE9F0410546884616462F4627B9372202
:10247000084909A002F066FB34461CB94FF0FF3052
:10248000BDE8F08162882188386C03682846984747
:102490000020F5E704A3000870696E20213D20525A
:1024A000545F4E554C4C00002DE9F04705468946D7
:1024B00016461F46A846B8F1000F04D118220A4953
:1024C0000AA002F03FFB34460CB1042F02D00020DA
:1024D000BDE8F0872188D8F84000826828469047F8
:1024E00060803846F4E70000EFA2000870696E20B3
:1024F000213D2052545F4E554C4C00002DE9F047D1
:102500000546894616461F46A846B8F1000F04D175
:1025100027220A490AA002F015FB34460CB1042F09
:1025200002D00020BDE8F08762882188D8F84000FA
:102530004368284698473846F4E70000F9A20008A7
:1025400070696E20213D2052545F4E554C4C000066
:1025500070B5044624B95322144915A002F0F2FACA
:10256000A06A0078232809D1A16AE069884205D9C8
:10257000D4E90A010844E16988420CD2214611A03D
:1025800003F00AFE01F02EFEFDF736FE054600BF01
:10259000002DFDD108E0A06A2030E169814203D816
:1025A00021460FA003F0F8FD70BD00005DA70008F4
:1025B00074687265616420213D2052545F4E554C11
:1025C0004C0000007468726561643A25732073746E
:1025D00061636B206F766572666C6F770A0000002E
:1025E0007761726E696E673A202573207374616338
:1025F0006B20697320636C6F736520746F20656E48
:1026000064206F6620737461636B2061646472651B
:1026100073732E0A000000002DE9FC5F04468B4610
:1026200016461F46DDE90C9ADDE90E5804F1140048
:102630004060006000BF26626762C4F82890C4F85A
:102640002CA02321D4E90A0204F075F9D4E90A3C4C
:1026500063441A1F174BD4E9080103F06BFCE061D7
:10266000202D04DB9522144914A002F06BFA3034BB
:10267000A57165710020A060C4F81480C4F81880AA
:1026800020602071A064E064303C00902346144A2E
:102690002146019004F14C0005F078FE00BF11487E
:1026A000006818B120460F490968884700BF00201C
:1026B000BDE8FC9FF57A0008ABA700087072696F4F
:1026C00072697479203C2052545F54485245414409
:1026D0005F5052494F524954595F4D4158000000D4
:1026E0000D800008F40100202DE9F04704460E4655
:1026F00017469846DDF8209084F80990607A20F01B
:1027000001006072E66127620020A062C4F82480A4
:10271000002506E004F1140101EBC50003F07CFD87
:102720006D1C012DF6DBBDE8F08710B502460020D8
:1027300001460EE002F1140303EBC100D0E90043AF
:102740006360D0E9003423604060006000BF481C33
:1027500001460129EEDB10BD10B50948006868B9D3
:1027600000BF08A003F018FD0A4803F015FD0AA0F9
:1027700003F012FD00BF01200149086010BD0000F8
:10278000FC0000201B5B33336D5B572F55415254C7
:102790005D200000D0A900081B5B306D0A0000001E
:1027A0002DE9F04704460F46904604B12FB940F298
:1027B000C912404940A002F0C5F9FDF71DFD82464F
:1027C000A06CC0F38F2000282DD10026E56C2DB918
:1027D00040F2D312374943A002F0B4F92868012827
:1027E00013D001202860206C006928B94FF4EC72E6
:1027F000304941A002F0A6F9206C01234246394637
:10280000D0F810C02046E04701E06FF006065046C1
:10281000FDF7F6FC16B94046BDE8F087304605F0F6
:1028200039F80020F8E7E56C0026204602F078FF32
:1028300081462DB94FF4F4721E4939A002F082F995
:10284000C84501DA464600E04E46E8888119A06C8A
:10285000C0F38F20814207D2EA8828688118324667
:10286000384603F0C3FD1CE0A06CC0F38F20EB885A
:10287000C21A2868C118384603F0B8FDEB8803EB8C
:10288000060CA36CC3F38F23ACEB0302A36CC3F35E
:102890008F233B44B5F806C0A3EB0C00296803F076
:1028A000A5FD3146204602F041FF5046FDF7A8FC49
:1028B0003046B1E75AA200082873657269616C203E
:1028C000213D2052545F4E554C4C2920262620286D
:1028D0006461746120213D2052545F4E554C4C2957
:1028E0000000000072785F646D6120213D20525429
:1028F0005F4E554C4C00000073657269616C2D3E53
:102900006F70732D3E646D615F7472616E736D697B
:102910007420213D2052545F4E554C4C0000000065
:1029200072785F6669666F20213D2052545F4E5574
:102930004C4C00002DE9F047044688461646256DAC
:102940004FF0FF3332464146281D02F0CFFB0746C9
:10295000CFB9FDF751FC8146286801280DD0012030
:1029600028604846FDF74CFC206C02233246414665
:10297000D0F810C02046E04702E04846FDF740FC92
:102980003046BDE8F087384604F084FF0020F8E7C1
:1029900070B50546EC6C2CB940F25B120F4910A0E3
:1029A00002F0D0F8A088E188884207D1A06808B971
:1029B000002070BDA86CC0F38F20FAE7A088E188E2
:1029C000884203DDA088E188401AF2E7E088A18808
:1029D000411AA86CC0F38F20401AEAE703A200084E
:1029E00072785F6669666F20213D2052545F4E55B4
:1029F0004C4C00002DE9F04706460F4615462EB90F
:102A00004FF483721E491FA002F09CF8A846F46C94
:102A10002CB94FF485721A491FA002F093F828E0F0
:102A2000FDF7EAFB8246E088A188884205D1A068CC
:102A300018B95046FDF7E4FB1DE0E188206810F866
:102A40000190E088401CE080E188B06CC0F38F20EA
:102A5000814201DB0020E080A068012801D1002034
:102A6000A0605046FDF7CCFB87F800907F1C6D1EE0
:102A700000BF002DD4D100BFA8EB0500BDE8F08752
:102A8000E5A1000873657269616C20213D205254F4
:102A90005F4E554C4C00000072785F6669666F208F
:102AA000213D2052545F4E554C4C00002DE9F04121
:102AB00005460E4614462DB94FF49B721149124833
:102AC00002F040F8A0462F6D2FB94FF49D720D49CA
:102AD0000EA002F037F80FE03178286C82682846A3
:102AE0009047401C28B94FF0FF31384602F0D0F82B
:102AF00002E0761C641E00BF002CEDD1A8EB0400A0
:102B0000BDE8F081F4A10008642B0008747820214E
:102B10003D2052545F4E554C4C0000002DE9F041D1
:102B200006460F46144626B9D3220D490DA002F0E1
:102B300009F8A0460DE0306CC1683046884705466C
:102B4000681C00B907E03D707F1C641E0A2D00D18F
:102B500001E0002CEFD100BFA8EB0400BDE8F0813C
:102B6000C5A1000873657269616C20213D20525433
:102B70005F4E554C4C0000002DE9F04104460E46D6
:102B8000154624B9E7220F490F4801F0DBFF2F4615
:102B900012E030780A2808D1207E00F0400020B1F1
:102BA000206C0D218268204690473178206C826825
:102BB00020469047761C6D1E002DEAD1781BBDE89B
:102BC000F0810000D5A10008642B000807463D46AF
:102BD00025B93922264927A001F0B4FF47E028464D
:102BE0000168814201D1012100E0002131B105F0ED
:102BF000F7F8064605F09CF904F0CAF8FDF7FCFA70
:102C0000814628680446204603F05EFBAC60208ABB
:102C100020F001002082002020644846FDF7F0FAF1
:102C20002046D4E902219047FDF7E6FA81460020CC
:102C3000A8604846FDF7E4FAA84602F019FE11E044
:102C400008F10C0004F024FB0646B01C20B908F182
:102C50000C0004F003FA05E00EB9002603E04FF083
:102C6000FF3600E0ECE700BF02F012FE00BFB6E75F
:102C7000FCA00008717565756520213D2052545FE8
:102C80004E554C4C000000000246002106E0012099
:102C90008840904201D108467047491C2029F6DB44
:102CA0004FF0FF30F8E7000010B520A003F074FAF1
:102CB0002148017821A003F06FFA1F48007800F046
:102CC000010010B123A003F067FA1B48007800F060
:102CD000020010B122A003F05FFA1748007800F05C
:102CE000040010B121A003F057FA1348007800F057
:102CF000080010B121A003F04FFA0F48007800F04F
:102D0000100010B120A003F047FA0B48007800F043
:102D1000800030B108480F3001681DA003F03CFA74
:102D200002E01FA003F038FA10BD000062757320A6
:102D30006661756C743A0A0029ED00E05343425F06
:102D4000434653525F424653523A30782530325808
:102D50002000000049425553455252200000000017
:102D6000505245434953455252200000494D50525C
:102D7000454349534552522000000000554E5354DC
:102D80004B4552522000000053544B4552522000F4
:102D90005343422D3E424641523A253038580A00AC
:102DA0000A00000070B504460D4600F00DFF00203B
:102DB00070BD70B504460D4601F014FA002070BDD8
:102DC0002DE9F04105462DB94FF4B872184919A004
:102DD00001F0B8FEA5F58874A06C006800F0100042
:102DE00020B9A06C006800F00800F8B1FDF704FA03
:102DF0008046A86CC0F38F20A16C4968461A36B98A
:102E0000A86CC0F38F21A82000590F1A02E0A82057
:102E10000059371AA82006514046FDF7F1F92FB1A5
:102E2000032040EA0721284602F054FFBDE8F08164
:102E3000E09F000873657269616C20213D20525447
:102E40005F4E554C4C00000010B51448006890F8D7
:102E50002100C0F3400020B9002011490870084645
:102E600010BD1048006838B180220E4801680C4837
:102E7000FDF7BDFA0A48F3E701F0E2FC20B10AA130
:102E80000748FDF7D4FA03E009A10548FDF7CFFA9A
:102E900009A10348FDF79FFA0148E1E71C02002061
:102EA000400A0020200200206D736820000000000E
:102EB00066696E73682000003E00000008B50020BF
:102EC00000900E48006820B9AF220D490DA001F016
:102ED00039FE05E04FF0FF310848006804F006F9BC
:102EE0000649096801236A46D1F80C02991E02F0CE
:102EF00009FB0128EED19DF8000008BD1C0200204E
:102F00006AA900087368656C6C20213D2052545FEB
:102F10004E554C4C0000000070B504460D46074865
:102F2000006820B9BE22064906A001F00BFE034846
:102F3000006804F093F8002070BD00001C0200201F
:102F400078A900087368656C6C20213D2052545F9D
:102F50004E554C4C0000000070B505460024254835
:102F6000006820B9D122244924A001F0EBFD2846B5
:102F700002F0C2F9044624B9294625A003F00CF951
:102F800070BD1C480068D0F80C02A04200D1F7E7E1
:102F900040F24311204602F0EDF948BB15480068A5
:102FA000D0F80C0260B113490968D1F80C0202F0A4
:102FB0004DF910490968D1F80C02002102F016FB06
:102FC00050210C48006800F5DB70FDF7F9F900208E
:102FD00008490968A1F8060206490968A1F808022B
:102FE00004480068C0F80C421149204602F0FEFA7D
:102FF00000BFC5E71C02002085A900087368656C46
:103000006C20213D2052545F4E554C4C0000000076
:1030100066696E73683A2063616E206E6F74206615
:10302000696E64206465766963653A2025730A00D9
:10303000192F000810B504460948006820B9A322DA
:10304000084909A001F07EFD0548006890F82100BC
:1030500064F341000249096881F8210010BD0000B5
:103060001C02002054A900087368656C6C20213D87
:103070002052545F4E554C4C00000000024A106034
:10308000024A1160704700000C020020100200206C
:103090007CB5002517491848FFF7F0FF4FF404717D
:1030A000012001F089FD154908600846006820B933
:1030B00013A003F071F8681E7CBD0A2014214FF4A0
:1030C00080530022CDE90010134914A004F0E9FC5C
:1030D000044600231A4613A10848006803F088FF3D
:1030E0000120FFF7A7FF1CB115B9204604F0BEFE72
:1030F0000020E1E748B20008D4B000081C0200201C
:103100006E6F206D656D6F727920666F72207368C7
:10311000656C6C0A000000002D310008747368654E
:103120006C6C00007368727800000000FE48006854
:1031300090F8210020F00100401CFB49096881F84B
:103140002100F9480068D0F80C0238B901F05CFEA3
:10315000054615B12846FFF7FFFE00BFFFF774FED6
:10316000054603F019F85EE2FFF7A8FE0446002CBE
:1031700000DA58E21B2C05D10120EB49096881F8DF
:10318000200050E2E848006890F8200001280DD1A6
:103190005B2C05D10220E449096881F8200042E255
:1031A0000020E149096881F82000BEE0DE4800689F
:1031B00090F820000228F8D10020DB49096881F846
:1031C0002000412C36D1D8480068408C002807DD0B
:1031D000D5480068408C401ED3490968488404E003
:1031E0000020D149096848841DE2CF480068408C1E
:1031F00000EB8002CC480068263000EB0211502220
:10320000C948006800F5DB70FDF7C1F8C6480068E2
:1032100000F5DB70FDF7F7F880B2C3490968A1F843
:103220000602C1490968A1F80802BF48006805F014
:1032300041FCF8E1422C42D1BB480068418CBA48BD
:103240000068808C401E814207DAB7480068408CD5
:10325000401CB549096848840CE0B3480068808C7C
:1032600038B1B1480068808C401EAF490968488475
:1032700000E0D8E1AC480068408C00EB8002AA482E
:103280000068263000EB02115022A748006800F5C4
:10329000DB70FDF77CF8A448006800F5DB70FDF7F3
:1032A000B2F880B2A0490968A1F806029E490968EF
:1032B000A1F808029C48006805F0FCFBB3E1442C2F
:1032C00011D199480068B0F8080258B197A002F0EF
:1032D00063FF95480068B0F80802401E92490968EB
:1032E000A1F808029FE1432C1FD18F480068B0F875
:1032F00008028D490968B1F80612884214DA8A4832
:103300000068B0F808228848006800F5DB70815C2E
:1033100087A002F041FF84480068B0F80802401C12
:1033200081490968A1F808027DE10CB1FF2C00D1A8
:1033300079E1092C21D1002503E07CA002F02CFFCB
:103340006D1C79480068B0F80802A842F5DC7648A0
:10335000006800F5DB7005F091FB7348006800F52C
:10336000DB70FDF750F880B26F490968A1F80602DA
:103370006D490968A1F8080255E17F2C01D0082C9D
:1033800074D169480068B0F8080200B94BE166489A
:103390000068B0F80602401E63490968A1F80602F9
:1033A00061480068B0F80802401E5F490968A1F84A
:1033B00008025D480068B0F806025B490968B1F888
:1033C0000812884243DD584B1B68B3F80632564E4C
:1033D0003668B6F808629A1B534B1B68B3F808327C
:1033E0005B1C514E366806F5DB7699194E4B1B680F
:1033F000B3F808624C4B1B6803F5DB73F01803F05D
:1034000079FA002148480068B0F80622464800686A
:1034100000F5DB70815444480068B0F80822424847
:10342000006800F5DB70111842A002F0B5FE3E48BE
:103430000068B0F8085203E03CA002F0ADFE6D1C3D
:1034400039480068B0F80602A842F5DA0CE03BA063
:1034500002F0A2FE002234480068B0F8061232489A
:10346000006800F5DB704254DDE0FFE70D2C01D071
:103470000A2C31D12C48006805F034FB01F0E0F94A
:10348000012813D12848006890F8210000F00100BD
:1034900010B12BA002F080FE23480068B0F806129D
:1034A0002148006800F5DB7001F026F9FFF7CCFC3D
:1034B000054602F071FE50211B48006800F5DB70E4
:1034C000FCF77EFF002018490968A1F8060216499A
:1034D0000968A1F80802A6E013480068B0F80602DF
:1034E000502804DB002010490968A1F806020E48A4
:1034F0000068B0F808020C490968B1F80612884261
:1035000059DA094B1B68B3F80632074E3668B6F82D
:1035100008629A1B044B1B68B3F80862024B1B68D5
:1035200003F5DB73F1180DE01C0200200800000019
:1035300025630000082573202008000008200800EB
:103540000A000000384B1B68B3F808325B1C364E8B
:10355000366806F5DB76981903F0CCF93248006836
:10356000B0F808223048006800F5DB7084542E481B
:10357000006890F8210000F0010058B12A48006866
:10358000B0F808222848006800F5DB70111827A061
:1035900002F002FE24480068B0F8085204E0AFF2DE
:1035A000740002F0F9FD6D1C1F480068B0F80602B7
:1035B000A842F4DC14E01C480068B0F806221A485F
:1035C000006800F5DB7084541748006890F821000B
:1035D00000F0010020B12146AFF2AC0002F0DCFDAA
:1035E000002411480068B0F80602401C0E49096822
:1035F000A1F806020C480068B0F80802401C0A490D
:103600000968A1F8080208480068B0F806025028C6
:1036100008DB002004490968A1F80602024909688C
:10362000A1F8080200BF9FE51C02002025730000DE
:103630000146B02909D201EB4102054B03EB8200A0
:103640000268521C12B9002000E000207047000000
:10365000E496000810B51448006800F0020010B1AC
:1036600012A002F099FD1048006800F0804088B177
:103670000D48C01E007808B1FFF716FB0A48001F6E
:10368000007808B100F074FF0748801E008808B178
:1036900005F09EFF0448006800F0004010B109A04A
:1036A00002F07AFD10BD00002CED00E06661696C4F
:1036B000656420766563746F722066657463680A5A
:1036C000000000006465627567206576656E740AA7
:1036D0000000000010B502A002F05EFD002010BD49
:1036E00048656C6C6F2052542D546872656164217A
:1036F0000A00000010B50DA002F04EFD104804684D
:103700000DE002220FA12068FCF79AFE00B905E047
:103710000DA0D4E9001202F03FFD00BF0C340E48AA
:1037200000688442EDD3002010BD00002D2D4675A9
:103730006E6374696F6E204C6973743A0A000000FE
:103740000C0200205F5F0000252D313673202D2DE7
:103750002025730A00000000100200202DE9F04728
:1037600090B000270FF2A009082303AA09210BA893
:1037700000F022F94FF008084A46414624A002F022
:103780000BFD404601F0D6F82BA002F005FD00BF6E
:103790000BA9384600F025F9074600262BE003A8C0
:1037A00050F82600A0F10C05FCF726FD8246287A89
:1037B00020F080009DF83410884203D05046FCF77A
:1037C0001FFD17E05046FCF71BFD2C46A17E207D17
:1037D000152804DC207D214A52F8200001E01F4812
:1037E000406D23460822CDE9000141461CA002F0AD
:1037F000D3FC00BF761C0F98B042D0DC002FC7D19D
:10380000002010B0BDE8F08764657669636500004C
:10381000252D2A2E7320202020202020202074797E
:1038200070652020202020202020207265662063E3
:103830006F756E740A000000202D2D2D2D2D2D2D5D
:103840002D2D2D2D2D2D2D2D2D2D2D2D2D202D2DB5
:103850002D2D2D2D2D2D2D2D0A000000D8A800086E
:10386000252D2A2E2A7320252D32307320252D3820
:10387000640A00002DE9F04F8FB000270FF2C00955
:10388000082302AA04210AA800F096F84FF00808BD
:103890004A4641462CA002F07FFC404601F04AF81F
:1038A00032A002F079FC00BF0AA9384600F099F86E
:1038B000074600253BE002A850F82500A0F10C06C1
:1038C000FCF79AFC8346307A20F080009DF8301097
:1038D000884203D05846FCF793FC27E05846FCF793
:1038E0008FFC344604F1140002F0DCFCA8B904F1AA
:1038F000140002F0DFFC8246E069234608224146BC
:10390000CDE9000A21A002F047FC04F1140005F003
:1039100055F915A002F040FC07E0E06923460822B3
:10392000414600901FA002F037FC00BF6D1C0E98AE
:10393000A842C0DC002FB7D100200FB0BDE8F08F47
:103940006576656E74000000252D2A2E73202020D8
:103950002020207365742020202073757370656E9D
:1039600064207468726561640A00000020202D2DB7
:103970002D2D2D2D2D2D2D2D202D2D2D2D2D2D2D84
:103980002D2D2D2D2D2D2D0A00000000252D2A2E48
:103990002A73202030782530387820253033643A57
:1039A00000000000252D2A2E2A7320203078253093
:1039B000387820300A0000002DE9F04704460D4613
:1039C00016461F46284603F0CFF8814609F1040841
:1039D000C4F8008025726660E76000202061BDE8C1
:1039E000F0872DE9F84F07460C464FF0000A0020FB
:1039F0002061E06808B1207A10B90020BDE8F88F96
:103A0000D4F800801FB945464FF0010A00E03D465A
:103A1000FCF7F2FB0090BAF1000F0ED1A5F10C0BF0
:103A20009BF8080020F08000217A884204D000989A
:103A3000FCF7E6FB0020E1E700BF0026D4F8049085
:103A40000BE02D68454501D1002507E0761C49F8BB
:103A5000045BE068B04200D100E0F2E700BF0098EC
:103A6000FCF7CEFB26612846C8E700002DE9F04FA1
:103A700091B000270FF2D409082304AA05210CA84D
:103A8000FFF79AFF4FF008084A46414631A002F07E
:103A900083FB404600F04EFF37A002F07DFB00BFE5
:103AA0000CA93846FFF79DFF0746002545E004A80E
:103AB00050F82500A0F10C06FCF79EFB8346307AF7
:103AC00020F080009DF83810884203D05846FCF75B
:103AD00097FB31E05846FCF793FB344604F11400A1
:103AE00002F0E0FBB8B904F1140002F0E3FB8246F7
:103AF000208C618C23460822CDE9010A00914146C1
:103B000024A002F049FB04F1140005F057F827A0A7
:103B100002F042FB0FE004F1140002F0CBFB8246FE
:103B2000208C618C23460822CDE9010A0091414690
:103B30001FA002F031FB00BF6D1C1098A842B6DC3C
:103B4000002FADD1002011B0BDE8F08F6D61696C20
:103B5000626F7800252D2A2E7320656E747279208D
:103B600073697A652073757370656E64207468720A
:103B70006561640A00000000202D2D2D2D20202DD0
:103B80002D2D2D202D2D2D2D2D2D2D2D2D2D2D2D72
:103B90002D2D0A00252D2A2E2A732025303464204D
:103BA00020253034642025643A0000000A0000001B
:103BB000252D2A2E2A7320253034642020253034E8
:103BC000642025640A0000002DE9F04790B000272A
:103BD0000FF29409082303AA07210BA8FFF7ECFEB4
:103BE0004FF008084A46414621A002F0D5FA404667
:103BF00000F0A0FE2AA002F0CFFA00BF0BA93846C1
:103C0000FFF7EFFE0746002624E003A850F8260041
:103C1000A0F10C04FCF7F0FA8246207A20F0800034
:103C20009DF83410884203D05046FCF7E9FA10E0C2
:103C30005046FCF7E5FA2546D5E90702A9692B4667
:103C4000CDE9001202900822414620A002F0A4FA19
:103C500000BF761C0F98B042D7DC002FCED10020D9
:103C600010B0BDE8F08700006D656D68656170009B
:103C7000252D2A2E732020706F6F6C2073697A6552
:103C800020206D617820757365642073697A6520E2
:103C9000617661696C61626C652073697A650A009E
:103CA000202D2D2D2D2D2D2D2D2D2D202D2D2D2D5E
:103CB0002D2D2D2D2D2D2D2D2D202D2D2D2D2D2D41
:103CC0002D2D2D2D2D2D2D2D0A000000252D2A2ED8
:103CD0002A7320252D3031306420252D3031336476
:103CE00020252D3035640A002DE9F04F93B04FF0B8
:103CF00000090FF2DC0B082305AA19460DA8FFF7EF
:103D00005BFE4FF0080A5A46514633A002F044FACF
:103D1000504600F00FFE3AA002F03EFA00BF0DA997
:103D20004846FFF75EFE8146002647E005A850F8AA
:103D30002600A0F10C07FCF75FFA1290387A20F009
:103D400080009DF83C10884203D01298FCF758FA86
:103D500033E01298FCF754FA3C460025D4F82C8046
:103D600002E06D1CD8F8008004F12C008045F8D1E9
:103D7000002D14DDD4E90920E1692346CDE90205CF
:103D8000CDE900120822514626A002F005FA04F1FE
:103D90002C0004F013FF22A002F0FEF90CE0D4E99D
:103DA0000920E1692346CDE90205CDE90012082288
:103DB000514623A002F0F0F900BF761C1198B042E2
:103DC000B4DCB9F1000FAAD1002013B0BDE8F08F28
:103DD0006D656D706F6F6C00252D2A2E7320626CDF
:103DE0006F636B20746F74616C20667265652073FD
:103DF000757370656E64207468726561640A000092
:103E0000202D2D2D2D20202D2D2D2D20202D2D2D23
:103E10002D202D2D2D2D2D2D2D2D2D2D2D2D2D2DDF
:103E20000A000000252D2A2E2A7320253034642014
:103E300020253034642020253034642025643A0065
:103E4000252D2A2E2A732025303464202025303455
:103E5000642020253034642025640A002DE9F04FC9
:103E60008FB000270FF2CC09082302AA06210AA866
:103E7000FFF7A2FD4FF008084A46414630A002F085
:103E80008BF9404600F056FD34A002F085F900BFE2
:103E90000AA93846FFF7A5FD0746002541E002A81C
:103EA00050F82500A0F10C06FCF7A6F98346307AFD
:103EB00020F080009DF83010884203D05846FCF76F
:103EC0009FF92DE05846FCF79BF9344604F11400A5
:103ED00002F0E8F9A8B904F1140002F0EBF9824607
:103EE000A08C234608224146CDE9000A21A002F019
:103EF00053F904F1140004F061FE23A002F04CF920
:103F00000DE004F1140002F0D5F98246A08C23469E
:103F100008224146CDE9000A1CA002F03DF900BF8D
:103F20006D1C0E98A842BADC002FB1D100200FB052
:103F3000BDE8F08F6D7367717565756500000000F1
:103F4000252D2A2E7320656E747279207375737017
:103F5000656E64207468726561640A00202D2D2DE1
:103F60002D20202D2D2D2D2D2D2D2D2D2D2D2D2D9B
:103F70002D0A0000252D2A2E2A7320253034642096
:103F80002025643A000000000A000000252D2A2E9A
:103F90002A732025303464202025640A00000000A4
:103FA0002DE9F04F91B000270FF29C09082304AAD5
:103FB00003210CA8FFF700FD4FF008084A464146D0
:103FC00023A002F0E9F8404600F0B4FC29A002F07A
:103FD000E3F800BF0CA93846FFF703FD07460026AB
:103FE00029E004A850F82600A0F10C04FCF704F91D
:103FF0008346207A20F080009DF83810884203D054
:104000005846FCF7FDF815E05846FCF7F9F8254648
:1040100005F1140002F04EF98246E87F0822296A71
:104020002B46CDE9020ACDE90021414619A002F054
:10403000B3F800BF761C1098B042D2DC002FC9D173
:10404000002011B0BDE8F08F6D7574657800000038
:10405000252D2A2E732020206F776E657220206810
:104060006F6C642073757370656E6420746872651C
:1040700061640A00202D2D2D2D2D2D2D2D202D2D6F
:104080002D2D202D2D2D2D2D2D2D2D2D2D2D2D2D6D
:104090002D0A0000252D2A2E2A7320252D382E2AA0
:1040A0007320253034642025640A00002DE9F04F88
:1040B0008FB000270FF2CC09082302AA02210AA818
:1040C000FFF77AFC4FF008084A46414630A002F05C
:1040D00063F8404600F02EFC34A002F05DF800BF0B
:1040E0000AA93846FFF77DFC0746002541E002A8F3
:1040F00050F82500A0F10C06FCF77EF88346307AD4
:1041000020F080009DF83010884203D05846FCF71C
:1041100077F82DE05846FCF773F8344604F11400A4
:1041200002F0C0F8A8B904F1140002F0C3F8824606
:10413000A08B234608224146CDE9000A21A002F0C7
:104140002BF804F1140004F039FD17A002F024F854
:104150000DE004F1140002F0ADF88246A08B234676
:1041600008224146CDE9000A1AA002F015F800BF66
:104170006D1C0E98A842BADC002FB1D100200FB000
:10418000BDE8F08F73656D6170686F726500000047
:10419000252D2A2E73207620202073757370656E6E
:1041A00064207468726561640A000000202D2D2D62
:1041B000202D2D2D2D2D2D2D2D2D2D2D2D2D2D0A5F
:1041C00000000000252D2A2E2A732025303364207C
:1041D00025643A00252D2A2E2A73202530336420A9
:1041E00025640A002DE9F04FB1B04FF000090FF23D
:1041F0001C1B082323AA01212BA8FFF7DDFB4FF08E
:10420000080A5A465146434801F0C6FF504600F09E
:1042100091FB41A001F0C0FF00BF2BA94846FFF76A
:10422000E0FB81464FF0000865E023A850F8280025
:10423000A0F10C05FBF7E0FF3090287A20F0800019
:104240009DF8B410884203D03098FBF7D9FF50E0B6
:104250008022294603A8FCF79AF83098FBF7D0FF94
:104260002C4694F8350023460822514600903AA087
:1042700001F092FF94F8340000F00706012E03D1FC
:1042800038A001F089FF15E0022E03D138A001F01B
:1042900083FF0FE01EB939A001F07EFF0AE0042E73
:1042A00003D139A001F078FF04E0032E02D139A038
:1042B00001F072FFA76A00E07F1C38782328FBD04A
:1042C000D4E90A10791A401A64214843E16AB0FB24
:1042D000F1F00290216BA06CCDE90001E369A06AC6
:1042E000C01AE36AC1181A462DA0029B01F054FFC0
:1042F00000BF08F101082F98404596DCB9F1000F86
:104300008BD1002031B0BDE8F08F00007468726579
:1043100061640000C0AA0008202D2D2D20202D2D25
:104320002D2D2D2D2D202D2D2D2D2D2D2D2D2D2DCA
:10433000202D2D2D2D2D2D2D2D2D2D20202D2D2DD4
:104340002D2D2D20202D2D2D2D2D2D2D2D2D2D20C4
:104350002D2D2D0A00000000252D2A2E2A73202540
:104360003364200020726561647920200000000021
:104370002073757370656E640000000020696E69BB
:10438000742020200000000020636C6F73652020E3
:10439000000000002072756E6E696E6700000000FC
:1043A0002030782530387820307825303878202033
:1043B00020202530326425252020203078253038F3
:1043C0007820253033640A002DE9F04790B00027AB
:1043D0000FF2B409082303AA0A210BA8FFF7ECFA8D
:1043E0004FF008084A46414629A001F0D5FE404654
:1043F00000F0A0FA30A001F0CFFE00BF0BA93846B4
:10440000FFF7EFFA074600262DE003A850F8260034
:10441000A0F10C04FBF7F0FE8246207A20F0800029
:104420009DF83410884203D05046FBF7E9FE19E0AE
:104430005046FBF7E5FE2546D5E909012B46082243
:10444000CDE90001414625A001F0A6FE687A00F002
:10445000010018B127A001F09FFE02E028A001F0A2
:104460009BFE00BF761C0F98B042CEDC002FC5D15A
:1044700003F048FE0446214625A001F08DFE0020F1
:1044800010B0BDE8F087000074696D65720000002F
:10449000252D2A2E732020706572696F6469632050
:1044A000202074696D656F757420202020202020E5
:1044B000666C61670A000000202D2D2D2D2D2D2DFD
:1044C0002D2D2D202D2D2D2D2D2D2D2D2D2D202D36
:1044D0002D2D2D2D2D2D2D2D2D2D0A00252D2A2E66
:1044E0002A73203078253038782030782530387895
:1044F000200000006163746976617465640A0000DD
:1045000064656163746976617465640A0000000023
:1045100063757272656E74207469636B3A307825C6
:104520003038780A0000000010B501240021132063
:1045300002F0C4FB0FE00121132002F005FC4FF450
:10454000FA7003F0F5FB0021132002F0FDFB4FF49D
:10455000FA7003F0EDFB201E04F10104EBD110BD55
:1045600010B5044600F042FCFFF7DEFF10BD00006E
:1045700010B51CA001F010FE1F4801781FA001F02B
:104580000BFE1D48007800F0010010B121A001F0E1
:1045900003FE1948007800F0020010B120A001F0DD
:1045A000FBFD1548007800F0080010B11FA001F0D5
:1045B000F3FD1148007800F0100010B11EA001F0CA
:1045C000EBFD0D48007800F0800030B10A480C3057
:1045D00001681CA001F0E0FD02E01EA001F0DCFD7E
:1045E00010BD00006D656D206D616E6167652066B0
:1045F00061756C743A0A000028ED00E05343425F95
:10460000434653525F4D4653523A30782530325824
:10461000200000004941434356494F4C2000000010
:104620004441434356494F4C200000004D554E53E2
:10463000544B4552522000004D53544B455252208A
:10464000000000005343422D3E4D4D41523A25306B
:1046500038580A000A0000002DE9F047814600267C
:10466000002799F8000028B90021084600F0A8F8B2
:10467000BDE8F0871B48046827E006221AA12068DD
:10468000FBF7DEFE00B11FE0206800F10608484697
:10469000FBF7B9FE8246524641464846FBF7D0FE3C
:1046A00088B926B947463846FBF7ADFE064641466F
:1046B000384604F0A5FE0546B54200DA2E464146CE
:1046C0000BA001F069FD00BF0C340A480068844269
:1046D000D3D327B132463946484603F075F900BFB7
:1046E000C6E700000C0200205F5F636D645F00009E
:1046F00025730A001002002038B504460D4601E07B
:10470000641C6D1E20782028FAD020780928F7D064
:104710000DB9002038BD6A4629462046FDF754FEF3
:1047200008B90098F6E7204600E0401C01782029EF
:1047300002D001780029F8D100210170214603A0A0
:1047400001F02AFD4FF0FF30E4E7000025733A2026
:10475000636F6D6D616E64206E6F7420666F756E31
:10476000642E0A002DE9F04106460D460027104848
:10477000046815E006220FA12068FBF761FE00B176
:104780000DE02168881D2A463146FBF759FE28B9FD
:10479000A81D2168085C08B9A76805E000BF0C34B3
:1047A000064800688442E5D300BF3846BDE8F08182
:1047B0000C0200205F5F636D645F00001002002048
:1047C00070B505460E460FA001F0E6FC14480468DB
:1047D0000EE0062213A12068FBF732FE00B106E0CE
:1047E000D4E90002811D11A001F0D6FC00BF0C34F9
:1047F000114800688442ECD310A001F0CDFC0020E9
:1048000070BD000052542D54687265616420736855
:10481000656C6C20636F6D6D616E64733A0A0000A5
:104820000C0200205F5F636D645F0000252D313650
:1048300073202D2025730A00100200200A000000BA
:10484000012070472DE9F04782460E4690465446B7
:104850000025002755E003E000202070641C6D1C3B
:104860002078202802D02078092801D1B542F3D33E
:104870000A2F12D326A001F08FFC4FF0000906E0AA
:1048800058F829102AA001F087FC09F10109B9455F
:10489000F6D326A001F080FC35E0B54200D332E02B
:1048A000207822281CD1641C6D1C48F827407F1CEE
:1048B00009E020785C2804D16078222801D1641CAA
:1048C0006D1C641C6D1C2078222801D0B542F0D3E9
:1048D000B54200D317E000202070641C6D1C10E06E
:1048E00048F827407F1C01E0641C6D1C20782028BC
:1048F00004D02078092801D0B542F5D3B54200D3C1
:1049000001E0B542A7D300BF3846BDE8F0870000FC
:10491000546F6F206D616E79206172677320212062
:104920005765206F6E6C79205573653A0A00000058
:104930002573200010B5044602E004A001F02CFC11
:10494000201EA4F10104F8D110BD00002D000000CC
:104950002DE9F04F86B00D469C46DDE910640196C6
:104960000F9B04F04008B8F1000F02D0DFF870810F
:1049700001E0DFF87081CDF8008004F01008B8F194
:10498000000F01D024F0010404F00108B8F1000F79
:1049900002D04FF0300801E04FF02008C246002757
:1049A00004F00208B8F1000F11D0002A02DA2D2716
:1049B00052420CE004F00408B8F1000F01D02B279C
:1049C00005E004F00808B8F1000F00D0202700210E
:1049D00042B94FF0300B8846491C0DF1080909F81F
:1049E00008B01DE01AE0E146B9F10A0F08D14FF016
:1049F0000A0BB2FBFBFE0BFB1E28B2FBFBF202E034
:104A000002F00F08120900BFDDF8009019F808B095
:104A10008846491C0DF1080909F808B0002AE2D1BE
:104A2000B14200DD0E469B1B04F01108B8F1000FE7
:104A300010D117B1002B00DD5B1E06E0A84203D2A7
:104A40004FF0200880F80080401CB3F10008A3F16B
:104A50000103F3DC27B1A84200D207705B1E401CA3
:104A600004F01008B8F1000F0AD104E0A84201D206
:104A700080F800A0401CB3F10008A3F10103F5DCAD
:104A800006E0A84203D24FF0300880F80080401CB6
:104A9000B046761E8845F4DC08E0A84205D20DF148
:104AA000080818F8018080F80080401CB1F1000867
:104AB000A1F1010104DDDDF80480B8F1000FECD1B3
:104AC00006E0A84203D24FF0200880F80080401C86
:104AD000B3F10008A3F10103F3DC06B0BDE8F08FE9
:104AE0006CA600085BA6000870B504460D4600F0F1
:104AF0001FFF70BD1CB514200A214FF40063002273
:104B0000CDE90010074908A002F0CBFF044624B904
:104B1000C822074907A000F015F8204603F0A6F9BF
:104B20001CBD0000614500086D61696E0000000059
:104B30006CA3000874696420213D2052545F4E55D7
:104B40004C4C0000F8B504460D4616460020009077
:104B50000A48006858B933462A46214608A001F0A1
:104B60001BFB00BF9DF800000028FBD005E032468B
:104B700029462046014B1B689847F8BD18010020C4
:104B80002825732920617373657274696F6E2066BE
:104B900061696C65642061742066756E6374696F09
:104BA0006E3A25732C206C696E65206E756D62659A
:104BB000723A2564200A00002DE9F04107460C46B0
:104BC00007FB04F6304601F09BFB054625B1324653
:104BD0000021284601F0AFFE2846BDE8F081000024
:104BE00070B5044624B96422104911A0FFF7AAFF4A
:104BF0002068012800D170BDFBF7FEFA06460120AF
:104C00002060201D01F02EFB58B96068A0F114054A
:104C1000284603F097F83046FBF7F2FA02F0B8F8AE
:104C200002E03046FBF7ECFA00BFE4E79EA0000884
:104C3000636F6D706C6574696F6E20213D205254F6
:104C40005F4E554C4C00000070B5044624B9152247
:104C5000084909A0FFF776FFFBF7CEFA05460020CA
:104C60002060201D4060006000BF2846FBF7C8FAA6
:104C700070BD000078A00008636F6D706C6574698A
:104C80006F6E20213D2052545F4E554C4C00000069
:104C90002DE9F341054625B924222F492FA0FFF71E
:104CA00051FF002603F09CF80446FBF7A5FA0746DF
:104CB0002868012846D0281D01F0D4FA20B92D22F9
:104CC00025492CA0FFF73EFF019810B96FF00106AF
:104CD0003BE000202063204603F02AF9281D04F160
:104CE00014014268116042684A604160086000BF78
:104CF00000BFFBF781FA804601F0DAF940B11649AE
:104D000028A001F049FA4022134930A0FFF71AFF0A
:104D10004046FBF775FA00BF0198002809DD01AA9B
:104D2000002104F14C0003F06BFA04F14C0003F095
:104D300057FB3846FBF764FA02F02AF8266BFBF7BC
:104D40005BFA07460020286000BF3846FBF758FA98
:104D50003046BDE8FC8100008BA00008636F6D70D9
:104D60006C6574696F6E20213D2052545F4E554C26
:104D70004C00000072745F6C6973745F6973656DD9
:104D8000707479282628636F6D706C6574696F6E16
:104D90002D3E73757370656E6465645F6C697374C2
:104DA0002929000046756E6374696F6E5B25735D1B
:104DB000207368616C6C206E6F742062652075735F
:104DC000656420696E204953520A000030000000DB
:104DD00010B5044C02E020688047241D024884423C
:104DE000F9D310BDC0B00008C4B0000810B5044C21
:104DF00002E020688047241D02488442F9D310BD98
:104E0000C4B00008D0B00008014800687047000036
:104E10001401002070B505460A480668284600F0CF
:104E20006BFA044664B10748006818B10548006889
:104E300000F00CFA4321204600F09CFA014804607F
:104E4000304670BD140100202DE9F04104460D46A6
:104E500016461F4624B91C220E490FA0FFF772FE0A
:104E600027622580668000202081608104F1100087
:104E700001F0C6F904F1180001F0C2F9E80001F0F0
:104E80003FFAE060E06818B96FF00400BDE8F08117
:104E90000020FBE7B1A00008717565756520213D14
:104EA0002052545F4E554C4C000000002DE9F0415B
:104EB00004460D46164624B9F822164916A0FFF7F7
:104EC00041FEFBF799F9074620896189884206D19E
:104ED0003846FBF795F96FF00300BDE8F0812089B3
:104EE000218890FBF1F201FB1200E16851F83000DB
:104EF00028602089218890FBF1F201FB1200E16813
:104F000001EBC000406830603846FBF779F90020BB
:104F1000E3E70000E9A00008717565756520213D93
:104F20002052545F4E554C4C000000002DE9FF47C5
:104F300004460F46904624B99522524952A0FFF7E5
:104F400001FE27B996224F4954A0FFF7FBFDB8F1A7
:104F5000000F04D197224B4955A0FFF7F3FD00261F
:104F600002F03EFF0546FBF747F981463BE0039818
:104F700010B96FF0010678E000BFFBF73DF98246FB
:104F800001F096F840B13F494DA001F005F9A72284
:104F90003C4955A0FFF7D6FD5046FBF731F900BF5D
:104FA00000202863284602F0C3FF05F1140104F134
:104FB000180001F049F90398002809DD03AA00212F
:104FC00005F14C0003F01CF905F14C0003F008FA60
:104FD0004846FBF715F901F0DBFE2E6BFBF70CF9E9
:104FE000814606B141E0208961898842BFD020898D
:104FF000218890FBF1F201FB1200E16851F83000CA
:1050000038602089218890FBF1F201FB1200E168F1
:1050100001EBC0004068C8F800002089401C2081D6
:1050200060892189401A618888421DDC04F11000E2
:1050300001F020F958B92069A0F11405284602F0C2
:1050400081FE4846FBF7DCF801F0A2FE02E048468C
:10505000FBF7D6F8206A18B103212046226A904750
:10506000304604B0BDE8F08700BF4846FBF7C8F8FB
:105070002EB9206A18B101212046226A9047304695
:10508000EFE70000D7A00008717565756520213D28
:105090002052545F4E554C4C000000006461746116
:1050A0005F70747220213D2052545F4E554C4C006D
:1050B00073697A6520213D2052545F4E554C4C0057
:1050C00046756E6374696F6E5B25735D20736861EE
:1050D0006C6C206E6F742062652075736564206946
:1050E0006E204953520A0000300000002DE9FF47AE
:1050F00004460F46904624B93C22434943A0FFF79B
:1051000021FD002602F06CFE0546FBF775F881468E
:105110003BE0039810B96FF0010668E000BFFBF7B1
:105120006BF8824600F0C4FF40B137493CA001F063
:1051300033F84D22344944A0FFF704FD5046FBF7F5
:105140005FF800BF00202863284602F0F1FE05F159
:10515000140104F1100001F077F80398002809DD2C
:1051600003AA002105F14C0003F04AF805F14C00B8
:1051700003F036F94846FBF743F801F009FE2E6BC1
:10518000FBF73AF8814606B131E060892189401A7F
:1051900021888842BDD06089218890FBF1F201FB13
:1051A0001200E16841F830706089218890FBF1F2CB
:1051B00001FB1200E16801EBC000C0F804806089C7
:1051C000401C608104F1180001F054F870B9A06926
:1051D000A0F11405284602F0B5FD4846FBF710F88B
:1051E00001F0D6FD304604B0BDE8F08700BF484668
:1051F000FBF706F82EB9206A18B102212046226A70
:1052000090473046EFE70000C4A00008717565754F
:105210006520213D2052545F4E554C4C000000004B
:1052200046756E6374696F6E5B25735D207368618C
:105230006C6C206E6F7420626520757365642069E4
:105240006E204953520A00003000000070B5044639
:1052500000252CB940F23512134914A0FFF772FC57
:10526000204601F095FC092805D04FF49B720E49A9
:1052700012A0FFF767FCA07E10B94FF0FF3070BDA1
:10528000A07E401EA076A07E08B10020F7E7E06A6D
:1052900018B12046E16A884705460DB1A81D08B936
:1052A000002020832846EAE7D4A30008646576201E
:1052B000213D2052545F4E554C4C000072745F6F7C
:1052C000626A6563745F6765745F747970652826C8
:1052D0006465762D3E706172656E7429203D3D20B7
:1052E00052545F4F626A6563745F436C6173735FAE
:1052F00044657669636500002DE9F041064602F0D9
:105300006FFD08B100F0B4FA092001F02DFC04464D
:1053100024B97C22104911A0FFF714FC656810E045
:10532000A5F10C0708223146384602F039FB38B99E
:1053300002F056FD08B100F0ABFA3846BDE8F08146
:105340002D68201D8542EBD102F04AFD08B100F026
:105350009FFA0020F2E7000095A30008696E666FCF
:10536000726D6174696F6E20213D2052545F4E55FD
:105370004C4C000070B504460E46002524B9F422BA
:10538000274928A0FFF7DEFB204601F001FC092891
:1053900004D0F522224927A0FFF7D4FBA07D00F01E
:1053A000100088B9606A58B12046616A884705468E
:1053B00035B12A4621462EA000F0EEFE284670BDEB
:1053C000E08A40F01000E082A07D00F0080030B1DB
:1053D000207E00F0080010B16FF00600EFE7A06A31
:1053E00028B131462046A26A9047054603E040F6C0
:1053F0000F70304020830DB1A81D70B9208B40F094
:1054000008002083A07E401CA076A07E28B940F230
:105410002312034924A0FFF795FB2846CFE700009D
:10542000C5A3000864657620213D2052545F4E5587
:105430004C4C000072745F6F626A6563745F6765ED
:10544000745F7479706528266465762D3E7061728C
:10545000656E7429203D3D2052545F4F626A65633A
:10546000745F436C6173735F4465766963650000C4
:10547000546F20696E697469616C697A652064652E
:10548000766963653A2573206661696C65642E20D0
:10549000546865206572726F7220636F646520695D
:1054A000732025640A0000006465762D3E726566EF
:1054B0005F636F756E7420213D20300070B5044627
:1054C0000E46154612200B4908750020C861086277
:1054D00048628862C8620848086308484863084808
:1054E000886308460664C5630322214600F064F819
:1054F000002070BD88030020A9240008FD240008B6
:10550000612400082DE9F04104460D4616461F4669
:105510002CB940F25F12144914A0FFF713FB204688
:1055200001F036FB092805D04FF4B0720E4913A0E4
:10553000FFF708FBA07E30B94FF0FF3002F0AAF968
:105540000020BDE8F081206B38B13B463246294649
:105550002046D4F830C0E047F3E76FF0050002F0D2
:1055600099F90020EDE70000E4A3000864657620C7
:10557000213D2052545F4E554C4C000072745F6FB9
:10558000626A6563745F6765745F74797065282605
:105590006465762D3E706172656E7429203D3D20F4
:1055A00052545F4F626A6563745F436C6173735FEB
:1055B000446576696365000070B504460D4616467D
:1055C00014B94FF0FF3070BD2846FFF795FE10B1BB
:1055D0004FF0FF30F7E72A460921204601F0F2FAA2
:1055E000E6820020A076208300BFECE770B5044679
:1055F0000D462CB940F2C112084909A0FFF7A2FAE2
:10560000204601F0C5FA092805D04FF4E17203499C
:1056100007A0FFF797FAE561002070BD15A4000808
:1056200064657620213D2052545F4E554C4C00005D
:1056300072745F6F626A6563745F6765745F7479C3
:10564000706528266465762D3E706172656E7429DA
:10565000203D3D2052545F4F626A6563745F436C26
:105660006173735F44657669636500002DE9F041FD
:1056700004460D4616461F462CB94FF4C372144912
:1056800014A0FFF75FFA204601F082FA092805D03E
:1056900040F287120E4913A0FFF754FAA07E30B9EA
:1056A0004FF0FF3002F0F6F80020BDE8F081606BAB
:1056B00038B13B46324629462046D4F834C0E0474C
:1056C000F3E76FF0050002F0E5F80020EDE70000D9
:1056D000F3A3000864657620213D2052545F4E55A7
:1056E0004C4C000072745F6F626A6563745F67653B
:1056F000745F7479706528266465762D3E706172DA
:10570000656E7429203D3D2052545F4F626A656387
:10571000745F436C6173735F446576696365000011
:1057200010B504462046FDF733F910BD70B50646A6
:105730000D46F46C2CB94FF4C372134913A0FFF754
:1057400001FA3046FFF7ECFFA84205D240F287127B
:105750000D4913A0FFF7F6F9A06810B10DB10020B4
:10576000A060E0882844E080E188B06CC0F38F201E
:10577000814208DBE188B06CC0F38F2091FBF0F22E
:1057800000FB1210E08070BD20A2000872785F66F6
:1057900069666F20213D2052545F4E554C4C0000ED
:1057A0006C656E203C3D2072745F646D615F636167
:1057B0006C635F7265637665645F6C656E287365A4
:1057C0007269616C2900000070B505460E46EC6CEC
:1057D0002CB94FF4CE72204920A0FFF7B3F9E0882E
:1057E000A188884218DCA0883044A080A188A86CD9
:1057F000C0F38F20814227DBA188A86CC0F38F20E3
:1058000091FBF0F200FB1210A080A088E188884292
:105810001ADB0120A06017E0A0883044A080A08897
:10582000E188884210DBA188A86CC0F38F208142F8
:1058300008DBA188A86CC0F38F2091FBF0F200FB7D
:105840001210A0800120A060A068012803D1FCF7FD
:1058500083FFA088E08070BD3DA2000872785F667B
:1058600069666F20213D2052545F4E554C4C00001C
:1058700010B5FAF7C1FC044604480088401C00B289
:10588000024908802046FAF7BBFC10BDD401002075
:1058900010B5FAF7B1FC04460C480088401E00B26F
:1058A0000A4908800846B0F9000000280ADC0020F8
:1058B00008802046FAF7A4FC0548006828B101F0EA
:1058C00067FA02E02046FAF79BFC10BDD4010020E5
:1058D000D801002010B50446204600F095FE10BD0A
:1058E00010B5FBF785FA002080F3108800BFFCF7A5
:1058F000DBF9012080F3108800BF00F043FB07496B
:10590000074802F07BF800F031F900F04FFB05A0EA
:10591000FFF780FAFFF75CFA10BD000000000320DB
:10592000C80E0020756172743100000070470000DD
:1059300001480249086070470400FA050CED00E0D8
:105940002DE9F041054605F128062C1D3348006875
:1059500040B1304631490968884707460FB9BDE86C
:10596000F08100BF2EA0216C00F016FC30A0616A0F
:1059700000F012FC32A0A16A00F00EFC34A0E16A33
:1059800000F00AFC36A0216B00F006FC38A061682C
:1059900000F002FC3AA0A16800F0FEFB3CA0E16828
:1059A00000F0FAFB3EA0216900F0F6FB40A061691F
:1059B00000F0F2FB42A0A16900F0EEFB44A0E16917
:1059C00000F0EAFB46A0216A00F0E6FB48A0616B0C
:1059D00000F0E2FB4AA0A16B00F0DEFB4CA0E16B03
:1059E00000F0DAFB287800F0040048B102F0F8F982
:1059F000074639464AA000F0CFFBFEF7F3FB02E072
:105A00004FA000F0C9FB287800F0100010B953A097
:105A100000F0C2FBFDF71EFE00BFFEE710000020F5
:105A20007073723A203078253038780A0000000010
:105A30007230303A203078253038780A0000000083
:105A40007230313A203078253038780A0000000072
:105A50007230323A203078253038780A0000000061
:105A60007230333A203078253038780A0000000050
:105A70007230343A203078253038780A000000003F
:105A80007230353A203078253038780A000000002E
:105A90007230363A203078253038780A000000001D
:105AA0007230373A203078253038780A000000000C
:105AB0007230383A203078253038780A00000000FB
:105AC0007230393A203078253038780A00000000EA
:105AD0007231303A203078253038780A00000000E2
