:020000040800F2
:10000000D8BA0020550100085D0100081F02000851
:10001000610100086301000865010008000000009C
:100020000000000000000000000000006701000860
:100030006901000800000000A70100082B36000835
:100040006F0100086F0100086F0100086F010008D0
:100050006F0100086F010008070D0008550D00082A
:10006000670D0008790D00088B0D00086F0100086E
:100070006F0100086F0100086F0100086F010008A0
:100080006F0100086F0100086F0100086F01000890
:100090006F0100086F0100086F0100089D0D000846
:1000A0006F0100086F0100086F0100086F01000870
:1000B0006F0100086F0100086F0100086F01000860
:1000C0006F0100086F0100086F0100086F01000850
:1000D0006F010008453B00086F0100086F01000830
:1000E000190D00086F0100086F0100086F0100087A
:1000F0006F0100086F0100086F0100086F01000820
:100100006F0100086F0100086F0100086F0100080F
:100110006F0100086F0100086F0100086F010008FF
:100120006F0100086F0100086F0100086F010008EF
:10013000DFF80CD000F030FD00480047D10C00087B
:10014000D8BA0020002804D090FAA0F0B0FA80F0CD
:10015000401C70470648804706480047FEE7FEE718
:10016000FEE7FEE7FEE7FEE7FEE7FEE7FEE7FEE767
:10017000ED36000831010008EFF3108072B67047C9
:1001800080F310887047334A1368012B04D04FF076
:1001900001031360304A1060304A116030484FF05C
:1001A000805101607047EFF3108272B629480168F0
:1001B00091B14FF0000101602748016829B1EFF3C8
:1001C000098121E9F00F0068016024490968096884
:1001D000B1E8F00F81F3098882F310884EF0040E25
:1001E00070471E4908601C494FF00000086019491B
:1001F0004FF0010008601B484FF47F01D0F8002049
:1002000041EA0201016016484FF080510160164832
:100210000068006880F3088861B662B670471EF017
:10022000040F0CBFEFF30880EFF3098020E9F00F13
:1002300040F804ED1EF0040F0CBF80F3088880F333
:10024000098800B53EF066FD5DF804EB4EF0040E43
:10025000704700000C00002004000020080000206F
:1002600004ED00E020ED00E008ED00E02DE9F05F96
:100270000546002092469B46884606468146402415
:100280001BE0284641464746224600F060F85346A8
:100290005A46C01A914110D311461846224600F022
:1002A00047F82D1A67EB01084F462246012000212E
:1002B00000F03EF817EB00094E41201EA4F10104A6
:1002C000DFDC484631462A464346BDE8F09F2DE92B
:1002D000F0410024061B254671F1000605DA0124D1
:1002E0000027D0EB070067EB0101161E73F1000633
:1002F00005DA0027D2EB0702012567EB0303FFF7BE
:10030000B5FF86460E4617469C46AC4204D00025F3
:10031000D0EB050E65EB010624B10020D2EB0007FF
:1003200060EB030C704631463A466346BDE8F08107
:10033000202A04DB203A00FA02F1002070479140A5
:10034000C2F1200320FA03F3194390407047202A9A
:1003500004DB203A21FA02F00021704721FA02F36F
:10036000D040C2F120029140084319467047A0F1E5
:100370004101192900D82030704700000649074A7A
:100380000868504343F2390210440860400870473F
:100390000149086070470000A40500206D4EC64169
:1003A00010B5431A934209D28318881803E010F855
:1003B000011D03F8011D521EF9D210BD40EA0103D0
:1003C0009B0703D009E008C9121F08C0042AFAD20B
:1003D00003E011F8013B00F8013B521EF9D210BDB9
:1003E000D2B201E000F8012B491EFBD27047002277
:1003F000F6E710B513460A4604461946FFF7F0FF24
:10040000204610BD421E12F8013F002BFBD111F80F
:10041000013B02F8013B002BF9D1704730B505468E
:100420002A460B4612F8010B13F8014B08B1A04203
:10043000F8D01CB1002802D06D1CF1E7284630BD71
:1004400010B5044604E00B7800F8013B03B1491CE9
:10045000521EF8D2204610BD421C10F8011B002984
:10046000FBD1801A704710B5002200E0521C835C5B
:100470008C5CA34201D1002BF8D1D8B2E1B2401A72
:1004800010BD30B504460020034600E05B1C9342DB
:1004900003D2E05CCD5C401BF8D030BD034611F8C0
:1004A000012B00F8012B002AF9D11846704730B50E
:1004B00005460020034600E05B1C934205D2EC5C3D
:1004C000C85C201A01D1002CF6D130BD0246C9B259
:1004D00000E0401C0378002BFBD102E003788B4244
:1004E00003D0401E9042F9D2002070472DE9F0471A
:1004F00091460F4680460446002614F8015B2DB154
:1005000000F0FCF90068405DC007F6D12B2D02D049
:100510002D2D18D0641E4A463946204600F0F2F9C7
:1005200027B13968A14201D1C7F8008071054FF0A9
:1005300002040BD54042002803DD03F06FFB04608A
:10054000A007BDE8F08746F48066E4E70028F8DA03
:1005500003F064FB04606FF00040F2E72DE9F05F08
:1005600093460F4680460446002603F057FBD0F81A
:100570000090824614F8015B2DB100F0BFF90068CD
:10058000405DC007F6D12B2D02D02D2D1AD0641E50
:100590000021CAF800105A463946204600F0B2F948
:1005A000014627B13868A04201D1C7F80080DAF8C7
:1005B0000000022809D0CAF80090700505D548420D
:1005C000BDE8F09F46F48066E2E70846F8E770B5BC
:1005D000064603F023FB046805460A220021304644
:1005E000FFF784FF2C6070BD2DE9FE4F804681EA45
:1005F0000300C00F0C46009021F0004123F000459D
:10060000B8EB0200A94105D24046214690461C465F
:100610000B46024623F00040104347D0270DC7F396
:100620000A00C3F30A510290401A019040286BDA85
:10063000C3F3130040F4801B0098924620B10023BE
:10064000D2EB030A63EB0B0B01985946C0F1400251
:100650005046FFF76DFE06460D4650465946019A34
:1006600000F03AF910EB08006141002487EA1152CA
:1006700084EAE7731A4340D0009A62B3019A012AD0
:100680004FEA075215DC001B61EB02014FF00042FC
:1006900002EA0752CDE90042001C41F580113246C2
:1006A0002B4600F08DF903B0BDE8F08F404621469F
:1006B000F9E7001B61EB0201001C41F580130018F3
:1006C0005B412018A2F5001747EB030140EAD57003
:1006D000B6196D4111E06D084FEA360645EAC0755E
:1006E0004FEA0752001B61EB0201001C41F580112B
:1006F00049084FEA30000019514132462B4603B0F9
:10070000BDE8F04F00F04DB90098012240000023F1
:10071000D0EB020263EBE073009821464FEAE074ED
:10072000B8EB000061EB0401E9E783F000435BE70D
:1007300081F0004158E72DE9FE4F81EA030404F0FF
:10074000004421F0004100944FF0000B23F00043DF
:1007500050EA01045ED052EA03045BD0C3F30A54AA
:10076000C1F30A552C44A4F2F3340194A0FB0254C3
:10077000C1F3130141F48011C3F3130343F4801355
:1007800001FB024400FB034E840A970A44EA8154A9
:1007900047EA8357A4FB076802958D0A05FB078586
:1007A0004FEA932C04FB0C542705029D4FEA065890
:1007B00047EA1637B5EB08056EEB070C870E920E6D
:1007C00047EA811742EA8312A7FB0201B6EB0B014D
:1007D00064EB00042B0D43EA0C335E1844EB1C5011
:1007E000DA465146E7FB0201C5F313044FEA0B3327
:1007F00043EA14534FEA0432019C43EA0603A4F18E
:100800000C040294009CCDE900B400F0D9F803B0C8
:10081000BDE8F08F00200146F9E70EB5C10F80EA70
:10082000E0700844CA07002140F233438DE80E000F
:100830000A460B4600F0C4F803B000BD70B5C1F322
:100840000A5201F000450024C1F3130140F2FF33C6
:1008500041F480119A4201DA002070BD40F2334326
:100860009A42A2F2334203DC5242FFF770FD00E0ED
:1008700090402C43F1D0404270BD000030B5041EC2
:1008800071F1000404DB4FF00044404264EB0101CD
:10089000141E73F1000405DB1C464FF00043524266
:1008A00063EB0403994208BF904230BD30B50B465C
:1008B000014600202022012409E021FA02F59D4290
:1008C00005D303FA02F5491B04FA02F52844151E64
:1008D000A2F10102F1DC30BD202A06DBCB17203A61
:1008E00041FA02F043EAE07306E041FA02F3D04035
:1008F000C2F12002914008431946704700487047F2
:1009000034CD06082DE9F05F8246007800271546B1
:100910008B460AF10104B946302801D09DB113E09D
:1009200014F8010B0127782803D0582801D045B1CD
:100930000AE00DB1102D07D10027102514F8010B86
:1009400002E0082500E00A250026B0460EE005FB7F
:10095000080005FB06F1012701EB10461FFA80F89D
:10096000B6F5803F00D3B94614F8010B294600F0D4
:1009700025F90028EBDABBF1000F05D00FB1641E9A
:1009800000E05446CBF80040B9F1000F06D003F068
:1009900045F902210160C81EBDE8F09F48EA064003
:1009A000FAE710B5141E73F1000408DA401C41F197
:1009B000000192185B411A4301D120F0010010BDE3
:1009C0002DE9F04D92469B4611B1B1FA81F202E059
:1009D000B0FA80F220329046FFF7AAFC04460F4698
:1009E00040EA0A0041EA0B0153465A46084313D035
:1009F000114653EA010019D0C8F140025046FFF7F2
:100A0000A6FC05460E46504659464246FFF790FC66
:100A1000084305D0012004E020463946BDE8F08DAA
:100A20000020054346EAE0762C4337430A986305E5
:100A3000E40AA0EB08000022FD0A44EA47540A3009
:100A400002D500200146E9E7010510196941DDE9F9
:100A5000084500196941BDE8F04DA2E72DE9F04DC8
:100A600081EA030404F0004B21F0004514464FF0E6
:100A7000000A23F0004150EA050220D054EA0102A6
:100A80001DD0C5F30A570246C5F31303C1F3130083
:100A9000C1F30A5640F4801543F48013A7EB06080F
:100AA000101BD64608F2FD3873EB050002D308F19F
:100AB000010801E092185B41B8F1000F03DA002051
:100AC0000146BDE8F08D00204FF4801106468446B3
:100AD0000EE0171B73EB050705D3121B63EB050331
:100AE00006434CEA010C49084FEA300092185B417A
:100AF00050EA0107EDD152EA030012D082EA040065
:100B000083EA0501084305D0101BAB4106D2012240
:100B1000002306E000224FF0004302E06FF00102E4
:100B200053101AEB06004CEB085110EB0A0041EB96
:100B30000B01BDE8F04DFFF734BF70B521F0004365
:100B400003430CD0C1F30A550024D5EB040564EB34
:100B50000403D617AD1AB34102DB0020014670BD75
:100B6000201841EB025170BDC1F30A52C1F31301C9
:100B700040F2FF3341F480119A4202DA002001462C
:100B8000704740F233439A42A2F2334202DC5242AF
:100B9000FFF7DDBBFFF7CCBB064C074D06E0E06876
:100BA00040F0010394E8070098471034AC42F6D3B4
:100BB000FFF7C2FAF81E0708181F07083A2800D2E4
:100BC000303820F02002412A01D3A2F137008842B8
:100BD00001D34FF0FF3070472DE9F04D00231A4646
:100BE0001B1A8A4103DB00200146BDE8F08DC1F3EA
:100BF0000A52C1F3130141F480154FF0000BD107E5
:100C000002D100186D41521E0027044640F2FF1128
:100C1000384601EB620A3E468046024600204FF409
:100C20008011FFF794FBC2197141BB1846EB01001C
:100C3000B4EB030C75EB000C04D3E41A65EB000570
:100C400017460E46241908F101006D4180463428EC
:100C5000E3DDF91946EB0600091BA84103D24FF06A
:100C6000FF32134601E0002213461BEB070046EB60
:100C70000A51BDE8F04DFFF794BE70B58C1810F81E
:100C8000015B15F0070301D110F8013B2A1106D1D1
:100C900010F8012B03E010F8016B01F8016B5B1EEB
:100CA000F9D12B0705D40023521E0DD401F8013BC6
:100CB000FAE710F8013BCB1A921C03E013F8015B32
:100CC00001F8015B521EF9D5A142D8D3002070BDB6
:100CD00010B543F080F9002010BD30B590F84050B9
:100CE0000124AC40C56B6C60046863604468102CE0
:100CF00004D10468A2600468E16003E00468A160B4
:100D00000468E26030BD10B53EF02AFD012000F01D
:100D10007BFC3EF04FFD10BD10B53EF021FD4FF4C1
:100D2000806000F071FC4FF4006000F06DFC4FF447
:100D3000805000F069FC4FF4005000F065FC4FF467
:100D4000804000F061FC4FF4004000F05DFC3EF09C
:100D500031FD10BD10B53EF003FD022000F054FC43
:100D60003EF028FD10BD10B53EF0FAFC042000F066
:100D70004BFC3EF01FFD10BD10B53EF0F1FC08200D
:100D800000F042FC3EF016FD10BD10B53EF0E8FC50
:100D9000102000F039FC3EF00DFD10BD10B53EF006
:100DA000DFFC202000F030FC402000F02DFC8020F3
:100DB00000F02AFC4FF4807000F026FC4FF4007025
:100DC00000F022FC3EF0F6FC10BDF0B50246CEB2BB
:100DD000090ACDB2090ACCB2090A0B4602F148074A
:100DE00057F823C002F5896757F824700CEB070009
:100DF00002F6480757F82570784002F6484757F83A
:100E000026703844F0BD00000021074AD16107492F
:100E1000096941F00401054A11611146096941F06F
:100E20004001116170470000B00500200020024021
:100E30000021074AD1610749096941F00201054AC9
:100E4000116111464861096941F040011161704723
:100E5000B0050020002002400022054BDA61054A5F
:100E6000126942F00102034B1A61018070470000D1
:100E7000B00500200020024000201E49C96801F092
:100E8000100139B11C49C96941F002011A4AD16106
:100E900040F010001749C96801F0040139B1164942
:100EA000C96941F00101144AD16140F004001149BF
:100EB000C96901F0010169B10F49C96941F0040133
:100EC0000D4AD16100BF0B49C96921F00101094AEE
:100ED000D16100BF00BF40F20111884206D105492F
:100EE000C96921F00101034AD16101E00149C860EB
:100EF00000BF704700200240B005002070B50446D6
:100F000000F03EFD054609E0601C38B124B100F058
:100F100037FD401BA04201D9032070BD1248C068B4
:100F200000F001000028EFD10F48C06800F0200059
:100F300020B100BF20200C49C86000BF0A48C0682B
:100F400000F0100048B90848C06900F0010020B95D
:100F50000548C06800F0040018B1FFF78DFF0120BC
:100F6000DBE70020D9E70000002002400146002016
:100F7000C80AC0027047000070B50446002594F806
:100F80002100022803D00420A0630125C1E02068CD
:100F9000006820F00E00216808602068006820F0DA
:100FA0000100216808605C492068884252D95A498A
:100FB00078392068884201D1012047E056496439D8
:100FC0002068884201D1102040E053495039206800
:100FD000884201D1801539E04F493C392068884268
:100FE00001D1801432E04C4928392068884202D16E
:100FF0004FF480302AE0484914392068884202D1F1
:101000004FF4801022E044492068884201D1400416
:101010001CE042492068884201D1012016E03F4986
:1010200014312068884201D110200FE03B4928315B
:101030002068884201D1801508E038493C31206899
:10104000884201D1801401E04FF480303349091FF8
:10105000086051E0304978392068884201D1012088
:1010600047E02D4964392068884201D1102040E0D2
:10107000294950392068884201D1801539E0264934
:101080003C392068884201D1801432E02249283955
:101090002068884202D14FF480302AE01E4914397A
:1010A0002068884202D14FF4801022E01A4920685B
:1010B000884201D140041CE018492068884201D1CF
:1010C000012016E0154914312068884201D1102012
:1010D0000FE0124928312068884201D1801508E0CC
:1010E0000E493C312068884201D1801401E04FF460
:1010F0008030094980394860012084F8210000BF10
:10110000002084F8200000BF606B10B12046616BA6
:101110008847284670BD0000800002400804024055
:10112000014609B9012070470868006820F00100F5
:101130000A68106000200A6810600A6850600A6837
:1011400090600A68D060174A086890420BD2164A2D
:101150000868801A1422B0FBF2F08000086412487C
:101160000838C8630AE00F4A0868801A1422B0FBE6
:10117000F2F0800008640B480838C86391F84020FA
:1011800001209040CA6B506000208862C8620863EA
:101190004863886381F8210000BF81F8200000BF08
:1011A00000BFC0E7080402400800024001460022D8
:1011B00009B9012070471E4B086898420BD21D4B9D
:1011C0000868C01A1423B0FBF3F0800008641948C3
:1011D0000838C8630AE0164B0868C01A1423B0FB2D
:1011E000F3F08000086412480838C863022081F8D0
:1011F00021000868026843F6F0708243D1E90103D8
:101200001843CB6818430B6918434B6918438B6923
:101210001843CB69184302430868026000208863C2
:10122000012081F82100002081F8200000BFC1E7E3
:1012300008040240080002402DE9F04104460D4632
:1012400016461F464FF0000800BF94F82000012802
:1012500002D10220BDE8F081012084F8200000BF07
:1012600094F8210001282CD1022084F821000020CC
:10127000A0632068006820F00100216808603B46F8
:10128000324629462046FFF728FDE06A30B1206843
:10129000006840F00E00216808600BE020680068DC
:1012A00020F00400216808602068006840F00A000F
:1012B000216808602068006840F00100216808602B
:1012C00006E000BF002084F8200000BF4FF00208B5
:1012D0004046BFE72DE9F04104460E4601270025B0
:1012E00000BF2648007E012802D10220BDE8F0811F
:1012F00001202249087600BF2068022813D14CF251
:101300005030FFF7FBFD90BB0120FFF77DFD4CF255
:101310005030FFF7F3FD07461948006920F004003C
:101320001749086123E04CF25030FFF7E7FDF0B9B0
:101330004FF0FF303060A56812E02846FFF778FDD7
:101340004CF25030FFF7DAFD07460D48006920F0F7
:1013500002000B4908610FB1356007E005F5006533
:10136000D4E9021001EBC020A842E6D800BF00BFBC
:1013700000200249087600BF3846B7E7B0050020D4
:10138000002002400348006940F0800001490861E4
:1013900000207047002002402DE9FE4F05468B4695
:1013A00017469846012600240020029000BF2448DA
:1013B000007E012802D10220BDE8FE8F01202049D5
:1013C000087600BF4CF25030FFF798FD064686BB0A
:1013D000012D02D10120029006E0022D02D102204F
:1013E000029001E00420029000241EE02201B94690
:1013F000C24648465146FEF7AAFF80B2019002203D
:1014000000FB04B000900199FFF726FD4CF250302C
:10141000FFF774FD06460B48006920F001000949FA
:10142000086106B104E0601CC4B202988442DDDBAE
:1014300000BF00BF00200249087600BF3046BBE76E
:10144000B00500200020024000200849096901F091
:10145000800151B10649054A516006495160114663
:10146000096901F0800101B10120704700200240AC
:1014700023016745AB89EFCD2DE9F04102460B46CC
:1014800000208BE00127874007EA030100297DD077
:10149000464F4FEA900C57F82C4087074FEA177CCD
:1014A0000F2707FA0CF73C40414FBA4201D1002701
:1014B00019E0404FBA4201D1012714E03E4FBA4231
:1014C00001D102270FE03D4FBA4201D103270AE0C4
:1014D0003B4FBA4201D1042705E03A4FBA4201D14D
:1014E000052700E006274FEA807C4FEA1C7C07FABC
:1014F0000CF7A74230D187074FEA177C0F2707FA6E
:101500000CF42A4F4FEA900C57F82C70A743DFF8E1
:101510009CC04FEA90084CF828702B4F3F688F43CF
:10152000DFF8A4C0CCF800700CF104073F688F43CB
:101530000CF1040CCCF800700CF104073F688F43E9
:101540000CF1040CCCF800700CF104073F688F43D9
:101550000CF1040CCCF80070FF2901D8174600E00C
:10156000171D3D46FF2901D8870002E0A0F10807BA
:10157000BF003E462F684FF00F0C0CFA06FC27EA1E
:101580000C074FF0040C0CFA06FC00E005E047EAFB
:101590000C072F60D7688F43D760401C23FA00F7F1
:1015A000002F7FF46FAFBDE8F0810000080001401C
:1015B00000080140000C01400010014000140140EF
:1015C00000180140001C01400004014070B50546B0
:1015D000284604F0DFF9044604EB4400094901EB16
:1015E0008000406858B104EB44020B4603EB8202D2
:1015F000906804EB440203EB82025168884700BF05
:1016000070BD00002000002010B5044604480068AA
:10161000204020B1024804602046FFF7D7FF10BDEC
:10162000140401402DE9F847024600239C467BE163
:101630004FF0010808FA03F4D1F8008008EA04002A
:10164000A0427DD1DFF8F4A2D1F80480A8EB0A090A
:10165000D0453AD014DCB8F1030F50D009DCB8F112
:10166000000F31D0B8F1010F1CD0B8F1020F49D1F1
:1016700020E0B8F1110F18D0B8F1120F42D11EE0DE
:10168000B9F5881F25D006DCB9F5803F20D0B9F523
:10169000801F37D11AE0B9F5001F18D0B9F5041F23
:1016A00030D117E0D1F80CC02DE0D1F80C8008F152
:1016B000040C28E0D1F80C8008F1080C23E0D1F8E4
:1016C0000C8008F10C0C1EE000BF00BF00BF00BF83
:1016D00000BF00BFD1F80880B8F1000F02D14FF071
:1016E000040C0BE0D1F80880B8F1010F03D14FF0E2
:1016F000080C146102E04FF0080C546103E04FF055
:10170000000C00E000BF00BFFF2801D8904601E0B8
:1017100002F104084646FF2802D84FEA830803E096
:10172000A3F108084FEA88084746D6F800804FF032
:101730000F0909FA07F928EA09080CFA07F900E085
:101740007AE048EA0908C6F80080D1F8048008F079
:101750008058B8F1805F6FD100BFDFF8E481D8F81E
:10176000188048F00108DFF8D891C9F81880C846F9
:10177000D8F8188008F00108CDF8008000BF00BF3D
:101780004FEAB9384FEA930958F829504FEA83785D
:101790004FEA18794FF00F0808FA09F825EA08050A
:1017A000DFF8A081424502D14FF0000824E0DFF8C5
:1017B0009881424502D14FF001081DE0DFF88C818D
:1017C000424502D14FF0020816E0DFF8848142451D
:1017D00002D14FF003080FE0DFF87881424502D1D3
:1017E0004FF0040808E0DFF87081424502D14FF065
:1017F000050801E04FF006084FEA83794FEA1979AE
:1018000008FA09F848EA0505DFF850814FEA93091C
:1018100048F82950D1F8048008F48038B8F5803FA2
:101820000BD1DFF83C81D8F8008048EA0008DFF8E7
:101830003091C9F800800AE075E0DFF82481D8F81B
:10184000008028EA0008DFF81891C9F80080D1F874
:10185000048008F40038B8F5003F0ED1DFF80081AD
:1018600008F10408D8F8008048EA0008DFF8F09092
:1018700009F10409C9F800800DE0DFF8E48008F1FF
:101880000408D8F8008028EA0008DFF8D49009F1AD
:101890000409C9F80080D1F8048008F48018B8F56C
:1018A000801F0ED1DFF8B88008F10808D8F8008052
:1018B00048EA0008DFF8A89009F10809C9F8008093
:1018C0000DE0DFF89C8008F10808D8F8008028EACD
:1018D0000008DFF88C9009F10809C9F80080D1F8F8
:1018E000048008F40018B8F5001F0ED1DFF87080EE
:1018F00008F10C08D8F8008048EA0008DFF860908A
:1019000009F10C09C9F800800DE0DFF8548008F1F6
:101910000C08D8F8008028EA0008DFF8449009F1A4
:101920000C09C9F800805B1CD1F8008028FA03F884
:10193000B8F1000F7FF47CAEBDE8F887000011100D
:101940000010024000080140000C0140001001405E
:101950000014014000180140001C01400800014033
:1019600000040140024693680B400BB1012000E0E7
:10197000002070470AB1016101E00B040361704768
:1019800010B541F067FD4FF47A714843B0FBF1F0B8
:1019900010BD000003480068034909780844014964
:1019A00008607047140000201C00002010B5084893
:1019B000006840F0100006490860032000F0A8F815
:1019C000002000F007F800F009F8002010BD00002A
:1019D00000200240014600207047000008B500BF0B
:1019E0001148806940F001000F498861084680690C
:1019F00000F00100009000BF00BF00BF0846C069B2
:101A000040F08050C8610846C06900F080500090E6
:101A100000BF00BF00BF0549486820F0E06040F00B
:101A20000070486000BF08BD001002400000014087
:101A300010B501460846002817DB00F01F030122FD
:101A40009A400B4B440943F8242000BF00BF00BF5D
:101A5000BFF34F8F00BF00BF00BF00BF00BF00BF7C
:101A6000BFF36F8F00BF00BF00BF00BF10BD0000FD
:101A700080E100E001460846002809DB00F01F0372
:101A800001229A4043099B0003F1E023C3F800219F
:101A900000BF70472DE9F05F80460D4616460027CF
:101AA00002F0A0F8074639462A46334601F00700FF
:101AB000C0F1070ABAF1040F02D94FF0040A01E09D
:101AC000C0F1070AD14600F1040ABAF1070F02D2A9
:101AD0004FF0000A01E0A0F1030AD4464FF0010ADA
:101AE0000AFA09FAAAF1010A0AEA020A0AFA0CFA3F
:101AF0004FF0010B0BFA0CFBABF1010B0BEA030BE4
:101B00004AEA0B042146404602F074F8BDE8F09F13
:101B100000BF00F00702064B19684FF6FF0319409B
:101B2000044B0B4343EA0221014B196000BF70478D
:101B30000CED00E00000FA05F8B50446002600258B
:101B4000207800F0010000286BD000274348C069CE
:101B500000F0805070B900BF4048C06940F080502C
:101B60003E49C8610846C06900F08050009000BF3F
:101B700000BF01273A48006800F48070B0B93848C7
:101B8000006840F4807036490860FFF7F9FE0646A9
:101B900006E0FFF7F5FE801B642801D90320F8BD9D
:101BA0002F48006800F480700028F2D02B48006AAB
:101BB00000F440752DB3A08800F44070A84220D0F6
:101BC0002648006A20F4407501202649086000205C
:101BD00008602248056205F0010090B1FFF7D0FED1
:101BE000064608E0FFF7CCFE801B41F288318842B0
:101BF00001D90320D3E71948006A00F00200002849
:101C0000F0D01648006A20F4407061680843134918
:101C10000862012F04D10846C06920F08050C861D5
:101C200000BF207800F00200022807D10B4840686E
:101C300020F44040A168084308494860207800F03B
:101C40001000102807D10548406820F48000616921
:101C50000843024948600020A1E70000001002404C
:101C6000007000404004424270B504460D460CB975
:101C7000012070BD5A48006800F00700A8420ED24B
:101C80005748006820F00700284355490860084677
:101C9000006800F00700A84201D00120E9E72078A1
:101CA00000F0020002281DD1207800F00400042872
:101CB00005D14C48406840F4E0604A4948602078CB
:101CC00000F00800082805D14648406840F46050FC
:101CD000444948604348406820F0F000A168084348
:101CE00040494860207800F0010078B3606801281E
:101CF00006D13C48006800F4003090B90120B8E7F4
:101D00006068022806D13748006800F0007040B9CA
:101D10000120AEE73348006800F0020008B9012056
:101D2000A7E73048406820F00300616808432D4968
:101D30004860FFF725FE064609E0FFF721FE801BFD
:101D400041F28831884202D9032092E707E0254812
:101D5000406800F00C006168B0EB810FEDD12048C5
:101D6000006800F00700A8420ED91D48006820F066
:101D7000070028431A4908600846006800F0070079
:101D8000A84201D0012074E7207800F00400042864
:101D900007D11448406820F4E060E1680843114925
:101DA0004860207800F00800082808D10D484068F5
:101DB00020F46050216940EAC1000A49486000F0FF
:101DC0003FF808494968C1F30311074A515CC8400C
:101DD0000649086006480068FFF7FCFD002048E758
:101DE0000020024000100240960E0608000000206D
:101DF0001800002001480068704700000000002023
:101E000000B5FFF7F7FF04494968C1F30221034A0F
:101E1000515CC84000BD000000100240A60E06083C
:101E200000B5FFF7E7FF04494968C1F3C221034A3F
:101E3000515CC84000BD000000100240A60E06081C
:101E4000F0B585B00FF26C0C9CE8E01001A8A0E89A
:101E5000E0101CA52D68009500210022002300241D
:101E60000020194D696801F00C05F5B1042D02D070
:101E7000082D19D101E0154819E001ADC1F38346E1
:101E8000AC5D01F4803555B10F4D6D68C5F340452B
:101E90001DF805200D4D6543B5FBF2F302E00C4D36
:101EA00004FB05F3184602E000BF084800BF00BF6E
:101EB00005B0F0BD02030405060708090A0B0C0D66
:101EC0000E0F1010010200000010024000127A00F4
:101ED00000093D00F8B504460CB90120F8BD207892
:101EE00000F00100002878D0F848406800F00C00AD
:101EF00004280CD0F548406800F00C00082811D1E7
:101F0000F248406800F48030B0F5803F0AD1EF48D5
:101F1000006800F4003000285FD0606800285CD1C1
:101F20000120DBE700BF6068B0F5803F06D1E748DD
:101F3000006840F48030E549086028E0606858B9DE
:101F4000E248006820F48030E049086008460068F4
:101F500020F4802008601AE06068B0F5A02F0BD153
:101F6000DA48006840F48020D849086008460068D4
:101F700040F4803008600AE0D448006820F48030E3
:101F8000D24908600846006820F48020086000BF3D
:101F9000606888B1FFF7F4FC054606E0FFF7F0FC47
:101FA000401B642801D9032098E7C848006800F462
:101FB00000300028F2D010E0FFF7E2FC054606E012
:101FC000FFF7DEFC401B642801D9032086E7BF48E9
:101FD000006800F400300028F2D1207800F0020000
:101FE000022857D1B948406800F00C0050B1B748FA
:101FF000406800F00C00082818D1B448406800F48C
:10200000803098B9B148006800F0020020B1206922
:10201000012801D0012061E7AC48006820F0F800F9
:10202000616940EAC100A949086033E02069E8B16C
:102030000120A7490860FFF7A3FC054606E0FFF76B
:102040009FFC401B022801D9032047E79F480068F6
:1020500000F002000028F2D09C48006820F0F80050
:10206000616940EAC1009949086013E0002098497D
:102070000860FFF785FC054606E0FFF781FC401B82
:10208000022801D9032029E79048006800F00200E7
:102090000028F2D1207800F0080008282DD1A0698E
:1020A000B8B101208B490860FFF76AFC054606E0DD
:1020B000FFF766FC401B022801D903200EE7834886
:1020C000406A00F002000028F2D0012001F02AF955
:1020D00013E000207F490860FFF752FC054606E048
:1020E000FFF74EFC401B022801D90320F6E6774893
:1020F000406A00F002000028F2D1207800F00400CD
:10210000042873D100277148C06900F0805070B96D
:1021100000BF6E48C06940F080506C49C8610846F5
:10212000C06900F08050009000BF00BF01276A48DE
:10213000006800F48070B0B96748006840F48070AF
:1021400065490860FFF71CFC054606E0FFF718FC30
:10215000401B642801D90320C0E65F48006800F4F2
:1021600080700028F2D000BFE068012806D15748EF
:10217000006A40F001005549086227E0E06858B95C
:102180005248006A20F00100504908620846006A7F
:1021900020F00400086219E0E06805280BD14B48E4
:1021A000006A40F00400494908620846006A40F0AD
:1021B000010008620AE04548006A20F00100434936
:1021C00008620846006A20F00400086200BFE06868
:1021D000A0B1FFF7D5FB054609E0FFF7D1FB401B97
:1021E00041F28831884202D9032077E622E037485D
:1021F000006A00F002000028EFD012E0FFF7C0FBF9
:10220000054608E0FFF7BCFB401B41F288318842DD
:1022100001D9032062E62D48006A00F00200002880
:10222000F0D1012F05D12948C06920F080502749FD
:10223000C86100BFE069C8B32448406800F00C00E2
:10224000082860D0E069022848D1002020490866AB
:10225000FFF796FB054606E0FFF792FB401B0228BE
:1022600001D903203AE61948006800F00070002800
:10227000F2D1206AB0F5803F07D11448406820F4BD
:102280000030A168084311494860D4E908010843B7
:102290000E49496821F4741108430C494860012033
:1022A0000B490866FFF76CFB054607E03DE0FFF7CA
:1022B00067FB401B022801D903200FE60348006892
:1022C00000F000700028F2D02FE000000010024063
:1022D0000000424280044242007000400020144945
:1022E0000866FFF74DFB054606E0FFF749FB401B7C
:1022F000022801D90320F1E50E48006800F00070C3
:102300000028F2D111E0E069012800D1E6E5094892
:10231000466806F48031206A814204D106F47011C7
:10232000606A814201D00120D8E50020D6E5000096
:1023300000004242001002407047014691F85100EF
:10234000704710B504460CB9012010BD606A00B991
:1023500000BF0021A16294F8510028B9002084F840
:102360005000204600F032F8022084F85100206826
:10237000006820F0400021680860D4E901010843AA
:10238000E16808432169084361690843218B01F42E
:1023900000710843E1690843216A0843A16A0843C0
:1023A000216808600421A06901EA104021684860A2
:1023B0002068C06920F400602168C8610020606561
:1023C000012084F851000020BFE7000010B586B05E
:1023D0000446002002900390049005903449206840
:1023E00088422ED100BF3348806940F48050314983
:1023F00088610846806900F48050019000BF00BFEA
:1024000000BF0846806940F0040088610846806982
:1024100000F00400019000BF00BFA0200290022045
:1024200003900320059002A92348FFF7FBF8402002
:10243000029000200390049002A91F48FFF7F2F8D1
:1024400033E01E49206888422FD100BF1948C06977
:1024500040F480401749C8610846C06900F48040D4
:10246000019000BF00BF00BF0846806940F008002F
:1024700088610846806900F00800019000BF00BF35
:102480004FF420400290022003900320059002A9FF
:102490000B48FFF7C7F84FF48040029000200390EC
:1024A000049002A90648FFF7BDF806B010BD000071
:1024B0000030014000100240000801400038004098
:1024C000000C01402DE9F8430446884616461D4697
:1024D0004FF000096068B0F5827F0DD1A06858B94F
:1024E000042084F851003346424641462046009578
:1024F00000F0F5F9BDE8F88300BF94F8500001281A
:1025000001D10220F6E7012084F8500000BFFFF758
:1025100037FA074694F85100012802D04FF002091B
:1025200078E0B8F1000F00D016B94FF0010971E062
:10253000042084F8510000206065C4F83880A68724
:10254000E6872063A086E08620646064A068B0F51A
:10255000004F05D12068006820F4804021680860A1
:102560002068006800F04000402805D0206800681E
:1025700040F0400021680860E068F8B91AE020687F
:10258000806800F0010050B12068007BA16B0870EA
:10259000A06B401CA063E08F401EE0870AE0FFF7BD
:1025A000EFF9C01BA84201D3681C00B915B94FF060
:1025B00003092FE0E08F0028E1D11EE01AE0206837
:1025C000806800F0010050B12068C068A16B0880ED
:1025D000A06B801CA063E08F401EE0870AE0FFF73D
:1025E000CFF9C01BA84201D3681C00B915B94FF040
:1025F00003090FE0E08F0028E1D13A462946204642
:1026000000F06FFF08B120206065606D08B14FF0E9
:10261000010900BF012084F8510000BF002084F8A8
:10262000500000BF484665E72DE9F04104460E46DC
:1026300015460027A06870B96068B0F5827F0AD19E
:10264000042084F851002B4632463146204600F0E3
:102650005BFABDE8F08100BF94F85000012801D179
:102660000220F6E7012084F8500000BF94F85100E2
:10267000012801D0022751E006B10DB901274DE034
:10268000042084F8510000206065A663A587E587D3
:1026900020646064A086E086A068B0F5004F05D194
:1026A0002068006820F48040216808601F48E16CC1
:1026B000C8621F48E16C88621E48E16C0863002014
:1026C000E16C4863E38FD4F800C00CF10C01A26BFD
:1026D000E06CFEF7B1FD40B1606D40F01000606548
:1026E0000127012084F8510018E02068006800F0FC
:1026F0004000402805D02068006840F04000216874
:1027000008602068406840F0200021684860206828
:10271000406840F001002168486000BF00BF002011
:1027200084F8500000BF384693E700007533000876
:102730009F3300084D330008704770472DE9F84F6C
:102740000446884616461D464FF0000A00BF94F81E
:102750005000012802D10220BDE8F88F012084F842
:10276000500000BFFFF70CF90746B14694F851003E
:10277000012802D04FF0020AA7E0B8F1000F00D004
:1027800016B94FF0010AA0E0032084F851000020A0
:102790006065C4F83080A686E686A063A087E087DF
:1027A00060642064A068B0F5004F05D1206800681F
:1027B00040F48040216808602068006800F0400014
:1027C000402805D02068006840F04000216808607B
:1027D000E068B0F5006F2FD1606810B1B9F1010F5A
:1027E00009D1206B00882168C860206B801C2063A1
:1027F000E08E401EE0861BE02068806800F002004A
:1028000002280AD1206B00882168C860206B801CD8
:102810002063E08E401EE0860AE0FFF7B1F8C01B9F
:10282000A84201D3681C00B915B94FF0030A4CE067
:10283000E08E0028E0D12EE0606810B1B9F1010F00
:1028400009D1206B007821680873206B401C20633D
:10285000E08E401EE0861BE02068806800F00200E9
:1028600002280AD1206B007821680873206B401C75
:102870002063E08E401EE0860AE0FFF781F8C01B6F
:10288000A84201D3681C00B915B94FF0030A1CE037
:10289000E08E0028E0D13A462946204600F05DFE51
:1028A00008B120206065A06850B900BF00200090EA
:1028B0002068C068009020688068009000BF00BF5A
:1028C000606D08B14FF0010A00BF012084F851008B
:1028D00000BF002084F8500000BF50463CE72DE9BF
:1028E000FF5F0446884691461D460E9E01200290D9
:1028F0000020019000BF94F85000012803D102206D
:1029000004B0BDE8F09F012084F8500000BFFFF73D
:1029100037F8074694F851B060680390AA46BBF1B7
:10292000010F0BD00398B0F5827F04D1A06810B9D5
:10293000BBF1040F02D002200190DBE0B8F1000FE0
:1029400003D0B9F1000F00D015B901200190D1E0FA
:1029500094F85100042802D0052084F8510000208A
:102960006065C4F83890E587A587C4F83080E586AF
:10297000A586206460642068006800F0400040285C
:1029800005D02068006840F0400021680860E068D9
:10299000B0F5006F4AD1606810B1BAF1010F09D1EA
:1029A000206B00882168C860206B801C2063E08E4B
:1029B000401EE08633E02068806800F002000228B4
:1029C00010D1E08E70B1029801280BD1206B0088E5
:1029D0002168C860206B801C2063E08E401EE0866A
:1029E000002002902068806800F0010068B1E08F4C
:1029F00058B12068C068A16B0880A06B801CA063E0
:102A0000E08F401EE08701200290FEF7B9FFC01B57
:102A1000B04204D3701C10B1032001906AE0E08E34
:102A20000028C8D1E08F0028C5D14AE0606810B105
:102A3000BAF1010F09D1206B007821680873206B6F
:102A4000401C2063E08E401EE08634E020688068F1
:102A500000F00200022810D1E08E70B10298012827
:102A60000BD1206B007821680873206B401C206319
:102A7000E08E401EE086002002902068806800F012
:102A8000010068B1E08F58B12068C068A16B087080
:102A9000A06B401CA063E08F401EE08701200290E5
:102AA000FEF76EFFC01BB04201D3701C00B916B90F
:102AB000032001901EE0E08E0028C7D1E08F00289F
:102AC000C4D13A463146204600F047FD20B10120EE
:102AD0000190202060650DE0A06850B900BF002083
:102AE00000902068C068009020688068009000BF57
:102AF00000BF00BF012084F8510000BF002084F80F
:102B0000500000BF0198FBE62DE9F04704460E4651
:102B100017461D464FF0000A00BF94F850000128E8
:102B200002D10220BDE8F087012084F8500000BFE8
:102B300094F85180D4F80490B8F1010F0AD0B9F597
:102B4000827F04D1A06810B9B8F1040F02D04FF011
:102B5000020A7DE00EB107B115B94FF0010A77E026
:102B600094F85100042802D0052084F85100002078
:102B700060652663A586E586A763A587E58720644B
:102B8000606494F85100042806D13548E16CC862AD
:102B90003448E16C886205E03348E16CC862334830
:102BA000E16C88623248E16C08630020E16C4863A4
:102BB000E38FD4F800C00CF10C01A26BE06CFEF7BF
:102BC0003BFB48B1606D40F0100060654FF0010ABA
:102BD000012084F851003BE02068406840F001008B
:102BE000216848600020A16CC862A16C8862A16C59
:102BF0000863A16C4863E38ED4F800C00CF10C02AA
:102C0000216BA06CFEF718FB48B1606D40F010001E
:102C100060654FF0010A012084F8510018E0206837
:102C2000006800F04000402805D02068006840F0AF
:102C30004000216808602068406840F0200021685A
:102C400048602068406840F002002168486000BF8A
:102C500000BF002084F8500000BF504662E700002B
:102C6000753300089F330008913300087D34000855
:102C70004D3300082DE9F04104460E461546002765
:102C800000BF94F85000012802D10220BDE8F08175
:102C9000012084F8500000BF94F85100012801D0B1
:102CA000022752E006B10DB901274EE0032084F857
:102CB0005100002060652663A586E586A0636064F8
:102CC0002064A087E087A068B0F5004F05D1206898
:102CD000006840F48040216808601F48A16CC86209
:102CE0001E48A16C88621E48A16C08630020A16C7C
:102CF0004863E38ED4F800C00CF10C02216BA06C89
:102D0000FEF79AFA40B1606D40F01000606501274F
:102D1000012084F8510018E02068006800F04000AD
:102D2000402805D02068006840F040002168086015
:102D30002068406840F020002168486020684068B2
:102D400040F002002168486000BF00BF002084F806
:102D5000500000BF384699E783330008FF3300086E
:102D60004D3300087047704770477047042808D1FA
:102D70004FF0E021096941F004014FF0E0221161B8
:102D800007E04FF0E021096921F004014FF0E02253
:102D90001161704770B504462546681EB0F1807F0A
:102DA00001D301200FE0681E4FF0E02148610F21A0
:102DB0004FF0FF3000F01EFF00204FF0E02188614F
:102DC00007200861002070BD70B504462CB94FF48F
:102DD0005372034903A03AF0D9FC254670BD0000A8
:102DE000C5140608687561727420213D204E554C4B
:102DF0004C0000002DE9F047044620680568206873
:102E0000C668206847694FF00008C14605F00F0802
:102E1000B8F1000F0AD105F0200038B106F020000B
:102E200020B1204600F036FDBDE8F087B8F1000F74
:102E30006DD007F0010018B906F49070002866D034
:102E400005F0010030B106F4807018B1E06B40F07D
:102E50000100E06305F0040030B107F0010018B193
:102E6000E06B40F00200E06305F0020030B107F0D3
:102E7000010018B1E06B40F00400E06305F00800C9
:102E800030B107F0010018B1E06B40F00800E063DA
:102E9000E06B68B305F0200028B106F0200010B107
:102EA000204600F0F7FC20684069C0F38019E06B11
:102EB00000F0080010B9B9F1000F22D0204600F050
:102EC000BFFC2068406900F04000B0B12068406954
:102ED00020F0400021684861606B50B11748616B79
:102EE0004863606BFEF748F810B1606B416B884730
:102EF0000CE02046FFF768FF08E02046FFF764FF7C
:102F000004E02046FFF760FF0020E0638CE705F057
:102F1000800030B106F0800018B1204600F0DEFDE0
:102F200082E705F0400030B106F0400018B12046BD
:102F300000F096FC78E700BF76E700004537000810
:102F400010B504460CB9012010BDA06900B100E025
:102F500000BF94F8390028B9002084F838002046D2
:102F600000F028F8242084F839002068C06820F494
:102F700000502168C860204600F0E0FC206800692D
:102F800020F49040216808612068406920F02A0000
:102F9000216848612068C06840F400502168C8601A
:102FA0000020E063202084F8390084F83A000020F3
:102FB000CAE7000010B586B00446002002900390D6
:102FC0000490059051492068884237D100BF50488D
:102FD000806940F480404E4988610846806900F469
:102FE0008040019000BF00BF00BF0846806940F0EC
:102FF000040088610846806900F00400019000BF69
:1030000000BF48150290022003900320059002A9FA
:103010004048FEF707FB4FF48060029000200390C9
:10302000049002A93B48FEF7FDFA00221146252034
:10303000FEF730FD2520FEF71DFD65E036492068CE
:1030400088422ED100BF3248C06940F40030304978
:10305000C8610846C06900F40030019000BF00BF9D
:1030600000BF0846806940F0040088610846806916
:1030700000F00400019000BF00BF04200290022075
:1030800003900320059002A92248FEF7CBFA0820FE
:10309000029000200390049002A91E48FEF7C2FA95
:1030A00032E01E49206888422ED100BF1848C0690E
:1030B00040F480201649C8610846C06900F48020A9
:1030C000019000BF00BF00BF0846806940F00800C3
:1030D00088610846806900F00800019000BF00BFC9
:1030E00008150290022003900320059002A90C48C5
:1030F000FEF798FA4FF400600290002003900490CD
:1031000002A90748FEF78EFA06B010BD003801404C
:103110000010024000080140004400400048004008
:10312000000C014077B581B00446154694F83A008A
:10313000202850D1029800B115B9012004B070BD0B
:1031400000BF94F83800012801D10220F6E70120E1
:1031500084F8380000BF0298A062A5850020E063D3
:10316000222084F83A001D48616B88621C48616B1C
:10317000C8621C48616B08630020616B486302AE43
:1031800032682368191D2B46606BFEF755F800BFA7
:10319000002000902068006800902068406800903F
:1031A00000BF00BF00BF002084F8380000BF2068C7
:1031B000C06840F480702168C8602068406940F0B1
:1031C0000100216848612068406940F040002168A2
:1031D00048610020B2E70220B0E70000A9370008EC
:1031E000EF3700085937000870B504462CB94FF482
:1031F0005772054905A03AF0C9FA254605F1D400F1
:1032000007F0EEF870BD0000DC1406086875617206
:103210007420213D204E554C4C00000070B50446F2
:103220002CB940F26B32054905A03AF0AFFA2546B9
:1032300005F1D40007F0D4F870BD0000F4140608BE
:10324000687561727420213D204E554C4C00000081
:10325000F7B50446154694F8390020283DD1019869
:1032600000B10DB90120FEBD00BF94F8380001285F
:1032700001D10220F7E7012084F8380000BF01984F
:103280002062A584E5840020E063212084F83900D1
:103290001348216B88621348216BC8621248216B66
:1032A00008630020216B486301AE23681A1D316852
:1032B0002B46206BFDF7C0FF6FF0400021680860CF
:1032C00000BF002084F8380000BF2068406940F04B
:1032D0008000216848610020C5E70220C3E70000A4
:1032E000FD370008333800085937000870B5044628
:1032F0002CB940F27232054905A03AF047FA25464A
:10330000042105F1D4003BF073FE70BD10150608D2
:10331000687561727420213D204E554C4C000000B0
:103320007047000008B508490968C9084FF47A7267
:10333000B1FBF2F14143009100BF00BF00994A1E6A
:1033400000920029F9D108BD0000002070B50546A3
:103350006C6A2068406820F0030021684860606D56
:1033600040F010006065012084F851002046FEF70F
:10337000E3FF70BD70B50446656A2846FFF7DDF9C6
:1033800070BD70B50446656A2846FFF7ECFC70BD59
:1033900070B50446656A2846FFF7E7FC70BD70B556
:1033A00005466C6AFEF7ECFA06462868006800F0ED
:1033B000200020281ED02068406820F020002168CE
:1033C00048602068406820F0030021684860324669
:1033D0006421204600F085F808B1202060650020B7
:1033E000E087012084F85100606D18B12046FEF797
:1033F000A3FF70BD2046FFF79FF900BFF9E7F8B5BE
:1034000005466C6AFEF7BCFA06462868006800F0BC
:10341000200020282DD02068406820F0200021685E
:1034200048602068406820F0020021684860324609
:103430006421204600F091F818B1606D40F0200042
:103440006065A06850B900BF002000902068C06887
:10345000009020688068009000BF00BF0020E086D8
:10346000012084F85100606D18B12046FEF764FF1A
:10347000F8BD2046FFF776FC00BFF9E770B50546BA
:103480006C6AFEF77DFA06462868006800F02000A6
:10349000202821D02068406820F020002168486062
:1034A00032466421204600F058F818B1606D40F0B3
:1034B000200060652068406820F0030021684860B3
:1034C0000020E086E087012084F85100606D18B18B
:1034D0002046FEF731FF70BD2046FFF745FC00BFD8
:1034E000F9E7F8B504460E4615466068B0F5827FE8
:1034F0000DD1A068B0F5004F03D0A068B0F5806F83
:1035000005D12068006820F04000216808606068EC
:10351000B0F5827F11D1A068B0F5806F0DD1334630
:10352000002201212046009500F02BF898B1606D33
:1035300040F0200060650320F8BD33460022802162
:103540002046009500F01DF828B1606D40F0200085
:1035500060650320F0E70020EEE7F8B504460D466D
:1035600016462B46002280212046009600F009F8DE
:1035700028B1606D40F0200060650320F8BD002098
:10358000FCE72DE9F04104460E4617461D46DDF8DE
:1035900018803EE0681CD8B3FEF7F2F9A0EB0800F3
:1035A000A84200D2A5BB2068406820F0E000216856
:1035B00048606068B0F5827F0DD1A068B0F5004F1B
:1035C00003D0A068B0F5806F05D12068006820F0B6
:1035D000400021680860A06AB0F5005F0DD100BF0F
:1035E0002068006820F400502168086020680068A6
:1035F00040F400502168086000BF012084F85100A9
:1036000000BF002084F8500000BF0320BDE8F08117
:10361000FFE7206880683040B04201D1012000E01F
:103620000020B842B6D10020F0E710B53CF098F881
:10363000FEF7B0F93FF014FF3CF0BCF810BD0000FD
:1036400000B595B028210BA8FCF7D1FE142106A8DF
:10365000FCF7CDFE18216846FCF7C9FE0D200B9043
:103660004FF480300C9000200D9001200E900F90B0
:10367000119002201290C1031391C10414910BA860
:10368000FEF728FC18B1222114A000F067FA0F20E1
:10369000069002200790002008904FF48060099067
:1036A00000200A90012106A8FEF7DEFA18B12F21AA
:1036B0000AA000F053FA132000904FF4807001909C
:1036C00080010290000205906846FEF735FA18B1B5
:1036D000382102A000F042FA15B000BD2E2E5C6227
:1036E00073705C626F6172642E6300001148006841
:1036F00040F001000F490860084640680E49084044
:103700000C494860084600680C49084009490860AF
:103710000846006820F4802008600846406820F4CD
:10372000FE0048604FF41F008860C8030449086029
:1037300070470000001002400000FFF8FFFFF6FE97
:1037400008ED00E070B505466C6A0020E085E08475
:103750002046FFF739FB70BD70B506460025746A38
:1037600020684069C0F3C01594F83900212805D1BC
:1037700025B10020E084204600F082F820684069EE
:10378000C0F3801594F83A00222805D125B1002015
:10379000E085204600F054F8E06B40F01000E06354
:1037A0002046FFF711FB70BD70B505466C6A2868AE
:1037B000006800F02000B0B90020E0852068C068F3
:1037C00020F480702168C8602068406920F0010002
:1037D000216848612068406920F040002168486104
:1037E000202084F83A002046FFF7FEFC70BD70B53B
:1037F0000446656A2846FFF711FD70BD70B50546A1
:103800006C6A2868006800F0200070B90020E0842D
:103810002068406920F08000216848612068C06805
:1038200040F040002168C86002E02046FFF75EFDDE
:1038300070BD70B50446656A2846FFF771FD70BD1E
:103840000168C96821F490710268D1600168496912
:1038500021F0010102685161202180F83A1070477F
:1038600010B504462068C06820F040002168C86098
:10387000202084F839002046FFF738FD002010BDD5
:103880000168C96821F0C0010268D160202180F878
:103890003910704770B5044694F83A0022284AD18E
:1038A000A068B0F5805F13D1A56A206940B920688F
:1038B0004068C0F308002880A06A801CA06219E05C
:1038C00020684068C0B22880A06A401CA06211E055
:1038D000206938B920684068C1B2A26A501CA06251
:1038E000117007E02068406800F07F01A26A501C58
:1038F000A0621170E08D401E80B2E085C8B92068DA
:10390000C06820F020002168C8602068C06820F4EA
:1039100080702168C8602068406920F0010021683B
:103920004861202084F83A002046FFF75DFC002023
:1039300070BD0020FCE70220FAE7000070B50446E5
:103940002168096921F44051E2681143226811613C
:103950002269A1681143626941EA02052168C968C8
:1039600041F20C62914329432268D1602168496980
:1039700021F44071A269114322685161564A2168BD
:10398000914254D1FEF74CFA00EBC00101EB00115B
:1039900062689200B1FBF2F100EBC00202EB001290
:1039A00063689B00B2FBF3F26423B2FBF3F202EB19
:1039B000C20303EB0212A1EB8201322202EB0111DE
:1039C0006422B1FBF2F101F0F00100EBC00202EB66
:1039D000001263689B00B2FBF3F26423B2FBF3F2C4
:1039E00001EB021200EBC00101EB001163689B00C8
:1039F000B1FBF3F100EBC00303EB00136668B60004
:103A0000B3FBF6F36426B3FBF6F303EBC30606EB56
:103A10000313A1EB8301322303EB01116423B1FBF8
:103A2000F3F101F00F0111442268916053E0FEF7B9
:103A3000E7F900EBC00101EB001162689200B1FBF5
:103A4000F2F100EBC00202EB001263689B00B2FBD4
:103A5000F3F26423B2FBF3F202EBC20303EB0212B4
:103A6000A1EB8201322202EB01116422B1FBF2F1DF
:103A700001F0F00100EBC00202EB001263689B0052
:103A8000B2FBF3F26423B2FBF3F201EB021200EBA0
:103A9000C00101EB001163689B00B1FBF3F100EB87
:103AA000C00303EB00136668B600B3FBF6F36426AD
:103AB000B3FBF6F303EBC30606EB0313A1EB8301A1
:103AC000322303EB01116423B1FBF3F101F00F0189
:103AD00011442268916070BD00380140014691F8A0
:103AE000390021282CD18868B0F5805F0FD10A6A8F
:103AF0001088C0F308000B685860086918B9086A94
:103B0000801C086209E0086A401C086205E00B6A34
:103B1000581C086218780B685860C88C401E80B228
:103B2000C88458B90868C06820F080000B68D86065
:103B30000868C06840F040000B68D86000207047FB
:103B40000220FCE710B53BF00BFE034858F012F8DA
:103B50003BF030FE10BD0000A406002000BFFEE7D1
:103B60000FB41CB50246002007AC00290BD0491E3B
:103B7000CDE90021054B6A462146069800F012FB6C
:103B8000009A002111701CBC5DF814FB754F0008F1
:103B90007CB5044600201D46164600290BD0491E60
:103BA000CDE90041044B6A462946304600F0FAFA56
:103BB000009A002111707CBD754F0008490050EA41
:103BC000C12018BF04204A0D18BF40F0010040F288
:103BD000FF72B2EB515F08BF40F00200012808BF3E
:103BE0000520704702480068C0F3022070470000BB
:103BF0000CED00E010B5002804DB0A07130E054A9F
:103C0000135406E00A07140E034A00F00F031B1FAB
:103C1000D45410BD00E400E018ED00E00048704707
:103C2000A805002001460A46C81701EB90708010D5
:103C3000A1EB800070B9642091FBF0F300FB13103E
:103C400030B94FF4C87091FBF0F300FB131008B9C2
:103C5000012070470020FCE72DE9F0414F1E00EBEA
:103C6000C7010446D1E9000115461E4637F0060299
:103C70000DD02A463346FCF75EFD7F1E04EBC703DA
:103C8000D3E90023FCF7B0FC37F00602F1D1022F94
:103C900025D0042F13D0062F18BFBDE8F0812A4687
:103CA0003346FCF748FDD4E90A23FCF79DFC2A467D
:103CB0003346FCF740FDD4E90823FCF795FC2A467F
:103CC0003346FCF738FDD4E90623FCF78DFC2A4681
:103CD0003346FCF730FDD4E90423FCF785FC2A4683
:103CE0003346FCF728FDD4E90223FCF77DFC2A4685
:103CF0003346FCF720FDD4E90023BDE8F041FCF792
:103D000073BC00000022134610460149FCF7A6BE12
:103D10000000F03FFCF768BC002213461046114635
:103D2000FCF79CBE40F2013200204FF0E041FCF76E
:103D300004BF0000024A00201107FCF7FEBE00008D
:103D400001FDFFFF02E008C8121F08C1002AFAD1D6
:103D500070477047002001E001C1121F002AFBD10B
:103D6000704700000149086070470000A805002066
:103D700002460020704770B504460D462DB12069FB
:103D8000284010B94FF0FF3070BD26460120716900
:103D9000886029462046FFF7EBFFF5E708B509E004
:103DA0000021009102E00099491C0091009914291A
:103DB000F9D3401E0028F3D108BD70B5044625464E
:103DC000FCF7DAF9064605F114003FF091FD05F124
:103DD00014003FF019FC288A20F002002882688A2B
:103DE00020F0010068823046FCF7CAF92946286CA9
:103DF00001F09EFA70BD00002DE9FF5F82B0002146
:103E0000DDE90430020DDDF840B0034318D044F67C
:103E10001050A2F2FF3242431514119801281FD00E
:103E2000A5EB0B00401C5FEA000A4FF000064E4F66
:103E3000DFF83891B046504615D5CAF1000413E0BA
:103E4000119801244AA3012801D16FEA0B010298BD
:103E5000119AC0E90031C0E9024206B0BDE8F09F06
:103E6000CBF10000DFE704460021404A491842EB4D
:103E70000450CDE9001012E0E00707D032463B467F
:103E800040464946FCF757FC8046894632463B4649
:103E900010461946FCF74FFC06460F466410002CEE
:103EA000EAD1DDE90401DDE90023BAF1000F06DA09
:103EB000FCF741FC42464B46FCF73DFC05E0FCF7B5
:103EC000CDFD42464B46FCF7C9FD04460E46002296
:103ED000284BFCF7D3FC03D84FF0FF30014607E036
:103EE0000022254B20463146FCF77EFBFCF73CFECA
:103EF000102409E0002C0ADB0A220023FCF7B6F9A3
:103F0000039B30321A55641E50EA0102F2D1641C40
:103F1000039AC4F111031444119A012A03D0012217
:103F200008430DD10AE0084304D000204FF0110BE4
:103F3000119072E7A3EB0B056D1E0DE05B4504DDF0
:103F40004FF0000205F1010504E003DA4FF0000232
:103F5000A5F10105002AECD002981199C0E90231BF
:103F6000C0E9004579E70000000014400000F03F80
:103F7000300000000000F0430000E03F70B5044650
:103F800006480068FCF7DEF8451E054850F8350085
:103F9000A0F114062560304670BD00002802002004
:103FA000600F002070B504462F212046FCF78EFAE2
:103FB000051E01D1204670BD681C0546FBE70000C8
:103FC00003490868884201D0012070470020FCE7BF
:103FD000380200202DE9F0438BB00546894617468C
:103FE00000242DB94FF49B721C491DA039F0CEFB63
:103FF0002FB940F2371219491AA039F0C7FB00E077
:10400000641C285D202804D0285D092801D04C4577
:10401000F6D324B94FF0FF300BB0BDE8F083214652
:10402000284631F039FF064616B94FF0FF30F3E766
:10403000282101A8FCF7DBF901AA4946284631F0FE
:10404000D9FF8046B8F1000F02D14FF0FF30E3E70F
:1040500001A94046B04738600020DDE7FC2406088F
:10406000636D640072657470000000002DE9F0411A
:104070000546884616462F4627B93722084909A023
:1040800039F084FB34461CB94FF0FF30BDE8F081B5
:1040900062882188386D0368284698470020F5E734
:1040A000E915060870696E20213D2052545F4E5577
:1040B0004C4C00002DE9F0470546894616461F4640
:1040C000A846B8F1000F04D118220A490AA039F015
:1040D0005DFB34460CB1042F02D00020BDE8F08710
:1040E0002188D8F85000826828469047608038467A
:1040F000F4E70000D415060870696E20213D2052B7
:10410000545F4E554C4C00002DE9F047054689465A
:1041100016461F46A846B8F1000F04D127220A49C7
:104120000AA039F033FB34460CB1042F02D0002032
:10413000BDE8F08762882188D8F850004368284697
:1041400098473846F4E70000DE15060870696E20CF
:10415000213D2052545F4E554C4C00002DE9F0415A
:1041600007460E461C203BF05FFC04460CB9BDE838
:10417000F0813546B6F904002061201D40600060E2
:1041800000BFE86820600648E0602869A0616561BA
:104190002C61214638463FF041FE00BFE7E70000B2
:1041A000773D00082DE9FF4F95B09B4689460646AE
:1041B00000250FE2252877D100242746F84A01215F
:1041C000059400E0044316F8013F203B01FA03F098
:1041D0001042F7D130782A2811D06FF02F033078B1
:1041E000A0F13002092A16D8059A44F0020402EB25
:1041F000820203EB42021044761C0590EFE759F867
:10420000042B0592002A03DA504244F4005405902E
:1042100044F00204761C30782E2816D116F8010FCF
:1042200044F004042A280DD06FF02F023078A0F15A
:104230003003092B09D807EB870302EB4303C718A8
:10424000761CF3E759F8047B761C30786C280FD085
:1042500006DC4C2817D068280DD06A2814D104E059
:10426000742810D07A280FD10DE044F400140AE02D
:1042700044F4801401E044F440147278824202D184
:1042800004F58014761C761C307866280BD013DC7D
:10429000582877D009DC002875D04528F6D0462864
:1042A000F4D047281AD19DE118E0632835D064285E
:1042B00079D0652812D195E1702873D008DC672881
:1042C000F1D069286FD06E280DD06F2806D1B5E0E7
:1042D00073282CD0752875D0782874D05A46179931
:1042E00090476D1C75E1C4F30250022809D00328E1
:1042F0000DD0D9F8001004280DD00D6009F1040983
:1043000067E1D9F80010EA17C1E90052F6E7D9F8D9
:1043100000100D80F2E70D70F0E719F8041B8DF81E
:10432000001000208DF80100EA46012003E059F852
:1043300004AB4FF0FF3061074FF0000102D40DE0F5
:1043400008F101018846B9420FDA8045F8DB1AF816
:1043500008100029F4D108E008F1010188468142E3
:10436000FADB1AF808100029F6D105985B46A0EB95
:10437000080721463846179A00F094FA284400EBC3
:10438000080507E04DE029E10DE01AF8010B5A4657
:1043900017999047B8F10108F7D25B462146384695
:1043A000179A13E142E00A220092C4F302524FF03E
:1043B000000A022A08D059F804CB032A4FEAEC710C
:1043C0000AD00DE029E02AE009F1070121F00702F7
:1043D000F2E802C1914609E00FFA8CFC4FEAEC7159
:1043E000042A03D14FFA8CFC4FEAEC71002907DA5A
:1043F0000A460021DCF1000C61EB02012D2202E0F3
:10440000220504D52B228DF80420012203E0E207C7
:1044100001D02022F7E7904659E00A2102E010225D
:104420000DE010214FF0000A00910BE010224FF038
:10443000000A44F004040827009203E008224FF029
:10444000000A0092C4F30252022A05D059F804CBA4
:104450000021032A08D009E009F1070121F0070231
:10446000F2E802C1914605E01FFA8CFC042A01D152
:104470000CF0FF0C4FF00008220728D5702806D05A
:10448000009B83F0100353EA0A0305D00EE040229C
:104490008DF80420012208E05CEA010206D03022F7
:1044A0008DF804208DF8050002229046009B83F0D1
:1044B000080353EA0A030AD15CEA010201D1620748
:1044C00005D530228DF804204FF001087F1E5828B2
:1044D00004D034A003900EA802900DE036A0F9E7B6
:1044E00053466046009AFBF7C1FE84460398825CFF
:1044F0000298401E029002705CEA0100F0D102981E
:1045000006A9081A00F1200A600702D524F48034B5
:1045100000E00127574502DDA7EB0A0000E000207C
:1045200000EB0A01009005984144401A0590E00311
:1045300006D45B462146179A059800F0B3F9054466
:10454000002706E001A85A46C05D179990476D1CE8
:104550007F1C4745F6DBE0030CD55B462146179AE6
:10456000059800F09FF9054404E030205A46179959
:1045700090476D1C0099481E00900029F5DC08E06A
:10458000029802995A460078491C0291179990475F
:104590006D1CBAF10001AAF1010AF1DC65E100002D
:1045A0000928010030313233343536373839616209
:1045B00063646566000000003031323334353637CD
:1045C00038394142434445460000000000F058F9A4
:1045D0000544761C307800287FF4ECAD19B02846ED
:1045E000BDE8F08F620700D4062709F1070222F028
:1045F000070CFCE80223E14603F000485FEA080CE0
:1046000002D00FF2702C0DE05FEA045C02D50FF2CD
:10461000682C07E05FEAC47C02D00FF2602C01E056
:10462000AFF2700C4FF0FF3823F00043CDF850C0CC
:1046300065280CD006DC452809D046281DD047281F
:104640003DD13DE0662818D067287ED138E00021B2
:10465000112F01DB112000E0781CCDE9000106A933
:104660000EA8FFF7C9FBDDE90F010E9A03910021A7
:10467000009207F1010A04914DE04FF000400097CD
:10468000CDE9011006A90EA8FFF7B6FBDDE90F0280
:1046900003920E9B11990022DDF80CA00093049266
:1046A00011B9791C00EB010AB7EB0A0004D4C0F180
:1046B000FF3007F1010A0490AAEB0700019044E0E3
:1046C000012F00DA01270021112F01DD112000E068
:1046D0003846CDE9000106A90EA8FFF78DFBDDE9FC
:1046E0000F010E9A0391002104910092BA4621070E
:1046F0000CD40399514500DA8A46BAF1010F05DD61
:10470000009AAAF10101515C302908D0B84202DABE
:1047100010F1040F06DA0121CDE9011015E0AAF12C
:104720000101E9E7002805DC049901440491AAEBA2
:10473000000102E0411C514500DD8A460499401AFF
:10474000401C01904FF000400290200704D40198D3
:10475000504501DBCDF8048000208DF84F00029811
:104760000DF14F07B0F1004F25D02B200E9002988D
:104770004FF0020800280CDA404202902D200E90E3
:1047800007E00A210298FCF791F83031029007F80F
:10479000011DB8F10001A8F10108F2DC029800281F
:1047A000EFD1791E0E980870307800F0200040F0AC
:1047B000450007F8020D12A8C01B00F10708149865
:1047C000007800B1012000EB0A01019801EBE071D3
:1047D00005984144401A401E0590E00306D45B460C
:1047E0002146179A059800F05DF805441498007862
:1047F00018B15A46179990476D1CE00324D55B46C3
:104800002146179A059800F04DF805441CE00498DD
:10481000002807DBDDE90301884203DD0098405CE6
:10482000179901E0179930205A469047049805F1EE
:104830000105401C04900198401E019004D12E20D7
:104840005A46179990476D1CBAF10001AAF1010A66
:10485000DDDC05E017F8010B5A46179990476D1CEF
:10486000B8F10001A8F10108F4DC5B462146179A73
:104870000598ABE62D0000002B0000002000000092
:104880002DE9F041044600251E461746880404D44D
:1048900005E039462020B0476D1C641EF9D5284636
:1048A000BDE8F0812DE9F041044600251E46904602
:1048B000C80301D5302700E02027880404D505E08F
:1048C00041463846B0476D1C641EF9D52846BDE800
:1048D000F081000010B53AF05FFF08B1054810BD47
:1048E0003EF026FC044614B104F13000F7E701481D
:1048F000F5E700004801002070B5044624B95322B2
:10490000144915A038F042FFA06A0078232809D185
:10491000A16AE069884205D9D4E90A010844E1693D
:1049200088420CD2214611A03AF0C4FF14F080FB5B
:10493000FBF722FC054600BF002DFDD108E0A06A70
:104940002030E169814203D821460FA03AF0B2FF3E
:1049500070BD00000C210608746872656164202136
:104960003D2052545F4E554C4C00000074687265F7
:1049700061643A257320737461636B206F7665728E
:10498000666C6F770A0000007761726E696E673A35
:1049900020257320737461636B20697320636C6FCF
:1049A000736520746F20656E64206F662073746178
:1049B000636B20616464726573732E0A00000000EB
:1049C0002DE9FC5F04468B4616461F46DDE90C9A2E
:1049D000DDE90E5804F114004060006000BF26625B
:1049E0006762C4F82890C4F82CA02321D4E90A02F5
:1049F0003BF018FDD4E90A3C63441A1F174BD4E975
:104A000008013AF001FEE061202D04DB95221449F3
:104A100014A038F0BBFE3034A57165710020A06091
:104A2000C4F81480C4F8188020602071A064E06489
:104A3000303C00902346144A2146019004F14C007A
:104A40003EF04CFE00BF1148006818B120460F49E7
:104A50000968884700BF0020BDE8FC9FC92D0408F5
:104A60005A2106087072696F72697479203C20526D
:104A7000545F5448524541445F5052494F52495443
:104A8000595F4D41580000005D3304084C0200207E
:104A90002DE9F04704460E4617469846DDF820906B
:104AA00084F80990607A20F001006072E661276264
:104AB0000020A062C4F82480002506E004F114015F
:104AC00001EBC5003AF036FF6D1C012DF6DBBDE8A9
:104AD000F08710B50246002001460EE002F11403F3
:104AE00003EBC100D0E900436360D0E900342360E8
:104AF0004060006000BF481C01460129EEDB10BD8C
:104B000010B50948006868B900BF08A03AF0D2FEA5
:104B10000A483AF0CFFE0AA03AF0CCFE00BF0120CE
:104B20000149086010BD0000180100201B5B3333F1
:104B30006D5B572F554152545D20000050CD060843
:104B40001B5B306D0A0000002DE9F04704460F465C
:104B5000904604B12FB940F2C912404940A038F044
:104B600015FEFBF709FB8246A06DC0F38F200028DD
:104B70002DD10026E56D2DB940F2D312374943A05F
:104B800038F004FE2868012813D001202860206D29
:104B9000006928B94FF4EC72304941A038F0F6FDB5
:104BA000206D012342463946D0F810C02046E04728
:104BB00001E06FF006065046FBF7E2FA16B94046F0
:104BC000BDE8F08730463DF03BF90020F8E7E56DA1
:104BD0000026204639F0E0FC81462DB94FF4F472EE
:104BE0001E4939A038F0D2FDC84501DA464600E03A
:104BF0004E46E8888119A06DC0F38F20814207D20C
:104C0000EA8828688118324638463BF0ACFB1CE045
:104C1000A06DC0F38F20EB88C21A2868C1183846EF
:104C20003BF0A1FBEB8803EB060CA36DC3F38F23D2
:104C3000ACEB0302A36DC3F38F233B44B5F806C06E
:104C4000A3EB0C0029683BF08EFB3146204639F07F
:104C5000A9FC5046FBF794FA3046B1E72F17060837
:104C60002873657269616C20213D2052545F4E5556
:104C70004C4C2920262620286461746120213D2087
:104C800052545F4E554C4C290000000072785F640E
:104C90006D6120213D2052545F4E554C4C00000068
:104CA00073657269616C2D3E6F70732D3E646D612A
:104CB0005F7472616E736D697420213D2052545F80
:104CC0004E554C4C0000000072785F6669666F209C
:104CD000213D2052545F4E554C4C00002DE9F047C9
:104CE000044688461646256E4FF0FF33324641464D
:104CF000281D39F01DF80746CFB9FBF73DFA81466C
:104D0000286801280DD0012028604846FBF738FAB2
:104D1000206D022332464146D0F810C02046E047BD
:104D200002E04846FBF72CFA3046BDE8F0873846EB
:104D30003DF086F80020F8E770B50546EC6D2CB91B
:104D400040F25B120F4910A038F020FDA088E188E6
:104D5000884207D1A06808B9002070BDA86DC0F3D3
:104D60008F20FAE7A088E188884203DDA088E188E7
:104D7000401AF2E7E088A188411AA86DC0F38F209D
:104D8000401AEAE7D816060872785F6669666F20EF
:104D9000213D2052545F4E554C4C00002DE9F04708
:104DA00006460F4615462EB94FF483721E491FA0C2
:104DB00038F0ECFCA846F46D2CB94FF485721A4912
:104DC0001FA038F0E3FC28E0FBF7D6F98246E08824
:104DD000A188884205D1A06818B95046FBF7D0F9E0
:104DE0001DE0E188206810F80190E088401CE08018
:104DF000E188B06DC0F38F20814201DB0020E080AC
:104E0000A068012801D10020A0605046FBF7B8F946
:104E100087F800907F1C6D1E00BF002DD4D100BF0D
:104E2000A8EB0500BDE8F087BA160608736572693D
:104E3000616C20213D2052545F4E554C4C000000C7
:104E400072785F6669666F20213D2052545F4E552F
:104E50004C4C00002DE9F04105460E4614462DB994
:104E60004FF49B721149124838F090FCA0462F6E07
:104E70002FB94FF49D720D490EA038F087FC0FE05A
:104E80003178286D826828469047401C28B94FF039
:104E9000FF31384638F01EFD02E0761C641E00BF6C
:104EA000002CEDD1A8EB0400BDE8F081C91606087E
:104EB0000C4F0008747820213D2052545F4E554C11
:104EC0004C0000002DE9F04106460F46144626B975
:104ED000D3220D490DA038F059FCA0460DE0306DED
:104EE000C168304688470546681C00B907E03D7038
:104EF0007F1C641E0A2D00D101E0002CEFD100BF01
:104F0000A8EB0400BDE8F0819A1606087365726983
:104F1000616C20213D2052545F4E554C4C000000E6
:104F20002DE9F04104460E46154624B9E7220F4903
:104F30000F4838F02BFC2F4612E030780A2808D1B1
:104F4000207E00F0400020B1206D0D2182682046B7
:104F500090473178206D826820469047761C6D1E00
:104F6000002DEAD1781BBDE8F0810000AA160608E2
:104F70000C4F00084A68002A06D00A68531C0B60D0
:104F800010704868401E48607047034611B10129FF
:104F900002D100E000E000BF00BF00207047000029
:104FA0002DE9F0410446884616461F46254625B998
:104FB0001622094909A038F0E9FBE86F20B9172249
:104FC00005490AA038F0E2FB3B4632460021E86F73
:104FD0003DF0EAFBBDE8F081C31906086275732055
:104FE000213D2052545F4E554C4C00006275732D8C
:104FF0003E6F776E657220213D2052545F4E554CB6
:105000004C0000002DE9F0410446884616461F4634
:10501000254625B92422094909A038F0B7FBE86FD5
:1050200020B9252205490AA038F0B0FB3B460022F2
:105030003146E86F3DF0B8FBBDE8F081D8190608AD
:1050400062757320213D2052545F4E554C4C000038
:105050006275732D3E6F776E657220213D2052542C
:105060005F4E554C4C000000034611B1012902D19E
:1050700000E000E000BF00BF002070472DE9F041D4
:105080000446884616461F46254625B96822094922
:1050900009A038F07BFB286D20B9692205490BA0D7
:1050A00038F074FB3B463246002128463DF07CFB3D
:1050B000BDE8F081051A06086465766963652021FC
:1050C0003D2052545F4E554C4C000000646576699B
:1050D00063652D3E62757320213D2052545F4E550D
:1050E0004C4C00002DE9F0410446884616461F4608
:1050F000254625B97622094909A038F047FB286DD5
:1051000020B9772205490BA038F040FB3B4600222E
:10511000314628463DF048FBBDE8F081191A0608E3
:1051200064657669636520213D2052545F4E554C7D
:105130004C0000006465766963652D3E62757320DE
:10514000213D2052545F4E554C4C00002DE9F0415A
:105150000746884614461D46069E00BF07A03AF043
:10516000A9FB33462A4621460AA03AF0A3FB0CA02D
:105170003AF0A0FB00BFBDE8F08100001B5B306D82
:105180005B442F6D626564746C732E636C6E745D2A
:105190002000000025733A253034643A202573003E
:1051A0001B5B306D0A0000001048A0F1140148603C
:1051B00014388161143008601438486141F2FF30BE
:1051C000886041F6FF1109481438C1610120074980
:1051D0001439086101210548143841620449086006
:1051E000084600680349086070470000440C00202E
:1051F0002C0100203001002070B504460025206CF1
:1052000010B96FF01C052DE0207C00F0010030B1DA
:105210002146206C00F028F80546B5B122E0207C3C
:1052200000F0020088B1FAF7A7FF064604F1140067
:105230003EF05EFB04F114003EF0E6F9208A20F017
:10524000020020823046FAF79BFFFAF795FF0646E8
:1052500000202064208A20F0010020823046FAF7E6
:105260008FFF00BF284670BD70B505460C46FAF7A3
:1052700083FF0646A868A04205D13046FAF780FFB2
:105280006FF0060070BD20463AF0B3FB208A20F094
:10529000010020823046FAF773FF0020F2E7000099
:1052A0002DE9FC4105460C4616460027206C28B126
:1052B000206CA84202D06FF0090730E0206CA842B1
:1052C00006D12046FFF798FF0746002F00DA26E0B8
:1052D000FAF752FF804625644046FAF751FF2EB98F
:1052E0002146206C00F024F8074617E0FAF744FF47
:1052F0008046208A40F00200208204202346094A8A
:1053000009A1CDE9006004F114003EF0E7F9404640
:10531000FAF736FF04F114003EF00AFA00BF3846EF
:10532000BDE8FC81BB3D0008776F726B0000000098
:1053300070B505460C46FAF71FFF0646207C00F0C4
:10534000010028B13046FAF71BFF6FF0060070BD70
:10535000A868A04205D13046FAF712FF6FF00600A8
:10536000F5E720463AF045FB214668683AF0E5FA51
:10537000208A40F001002082A86840B93046FAF740
:10538000FFFEE86A3DF086FE3BF0A6FE02E03046F6
:10539000FAF7F6FE0020DAE707463D4625B939223E
:1053A000264927A038F0F2F947E0284601688142F3
:1053B00001D1012100E0002131B13DF0B9FE0646E6
:1053C0003DF05EFF3BF088FEFAF7D6FE8146286886
:1053D000044620463AF00DFBAC60208A20F0010024
:1053E0002082002020644846FAF7CAFE2046D4E90D
:1053F00002219047FAF7C0FE81460020A860484687
:10540000FAF7BEFEA84639F06FF911E008F10C007A
:105410003CF0FCF90646B01C20B908F10C003CF049
:10542000DBF805E00EB9002603E04FF0FF3600E0A0
:10543000ECE700BF39F018FB00BFB6E757180608C5
:10544000717565756520213D2052545F4E554C4C59
:10545000000000002DE9FE4F8146884616461C4696
:10546000002509F120074FF0010B08EB0601D9F8E0
:105470001000814205D942A040F02CFD0520BDE876
:10548000FE8FB86810B13846B968884708F0010047
:1054900070B12046641C414608F1010801231A46F8
:1054A0000090484633F050FC054605B15CE0761E9E
:1054B000012148463FF0DAFD054605B154E0AD2034
:1054C0008DF804003DE0BBF1000F18D00DF105028E
:1054D0004146484616F0AFFA99F8350008B1052064
:1054E00000E004208246207801A901F80A006178D2
:1054F00001AA0AF1010011544FF0000B07E04FF030
:10550000010A20788DF8050060788DF806000020EB
:10551000009003460AF1020201A93846D7F804C0F8
:10552000E04705461DB120A040F0D4FC1CE04846F1
:1055300057F022F9054605B116E0B61E08F102083B
:10554000A41C022EBFD2002148463FF08FFD054625
:105550004DB9012E07D101231A4641464846009411
:1055600033F0F2FB054600BF1DB1002148463FF075
:105570007DFDF86810B13846F968884728467EE70F
:105580004572726F723A20466C6173682061646480
:1055900072657373206973206F7574206F66206263
:1055A0006F756E642E0000004572726F723A20466D
:1055B0006C61736820777269746520535049206369
:1055C0006F6D6D756E6963617465206572726F725F
:1055D0002E0000002DE9F0470746884691464FF01F
:1055E000FF35384604F0E6F882464A4641465046C2
:1055F0003EF006FD0546681C80B30FF0ABF9064689
:10560000002E0ADA6FF012003CF01AFC28463EF039
:1056100055FE4FF0FF30BDE8F08730460FF01DF922
:1056200004468CB1012060800020606004F0BEF868
:105630002061022060610020A061E06125622046B7
:105640000FF0DCF93046E6E76FF012003CF0F8FBB3
:1056500028463EF033FE4FF0FF30DCE7FFE74FF027
:10566000FF30D8E710B503680B44036092F90030AF
:1056700004688C4201D2012400E0002423445BB280
:10568000137010BD70B513460022002419E00568A0
:10569000154405600568954201D2012500E000250A
:1056A0002A4605680E683544056005680E68B542EF
:1056B00001D2012500E000252A44651CECB2001D42
:1056C000091D022CE3D31D6815441D6070BD70B523
:1056D0000B469C1A002180258554012104E00025F9
:1056E000561885554D1CE9B2A142F8D370BD70B56E
:1056F00003468C1A002003E016189C55451CE8B29E
:10570000A042F9D370BD70B58C1A0023012305E0C7
:105710000026D5186D1E46555D1CEBB2A342F7D38B
:105720004D1E445570BD10B50346104602E00024DE
:105730001C54401C8842FAD310BD2DE9FC47044696
:105740000D4616461F46DDE90A893B463246294684
:105750002046CDE9008916F08AF9BDE8FC872DE9DD
:10576000FE4F04460D4616461F46DDE90D9ADDF84C
:1057700030803B463246294620468DE8000716F029
:10578000C7F9BDE8FE8F2DE9FE4F04460D461646CB
:105790001F46DDE90D9ADDF830803B46324629464A
:1057A00020468DE8000716F0F6F9BDE8FE8F2DE9DA
:1057B000F04104460D4616461F463B4632462946F2
:1057C000204616F01DFABDE8F08110B54FF48C713B
:1057D000012000F0A7FC04460CB9002010BD2046B3
:1057E00016F02CFA2046F9E710B50446204616F0CC
:1057F0001AFA20460FF06AFF10BD70B504460D4638
:10580000164632462946204616F020FA70BD70B57D
:1058100004460D46164632462946204616F086FABC
:1058200070BD014648420843C00F40427047000027
:105830002DE9F04106460F46002450E038F054FFB1
:10584000294800EB44100068002845D1264800EBA9
:105850004410407C00283FD1234800EB44100660F0
:1058600039F002F90020204901EB441148601E493B
:1058700001EB441108811C4901EB44114881307847
:1058800000F0F000102804D10FB1012002E0002048
:1058900000E00120144901EB4411888100201249E5
:1058A00001EB4411C881104901EB441108740E4802
:1058B00000EB441000F1140525B925220B490CA07A
:1058C00037F064FF00202860281D4060006000BFA2
:1058D00000BF2046BDE8F08139F0C6F8641C082CF2
:1058E000ACDB4FF0FF30F5E720130020F42B060867
:1058F000717565756520213D2052545F4E554C4CA5
:10590000000000002DE9F04104460D4616461F46F2
:105910003B4632462946204616F004FBBDE8F0819E
:1059200010B54FF48471012000F0FCFB04460CB963
:10593000002010BD204616F028FB2046F9E710B5E0
:105940000446204616F016FB20460FF0BFFE10BDA1
:1059500070B505460E46144604F0070008B1044829
:1059600070BDE2083146284616F017FB0020F7E725
:10597000009FFFFF2DE9F04104460D4616462046E4
:1059800003F018FF07463246294638463EF0BEFB74
:10599000BDE8F0810246002106E0012088409042E7
:1059A00001D108467047491C2029F6DB4FF0FF3033
:1059B000F8E700002DE9F84F804689461446454631
:1059C00035B91E4A1EA122A039F074FF00BFFEE7C0
:1059D000B9F1100F0BD1214619B94FF0FF30BDE8D6
:1059E000F88FD5E91523286D81E80D0024E0B9F181
:1059F000120F21D1A246DAF80060DAF80470BAF189
:105A0000000F01D0BE4202D94FF0FF30E7E7B742A6
:105A100000D17F1C686D00FB06FBB81B696D484315
:105A20000090E86D5946009A0EF04EF8002802DA10
:105A30004FF0FF30D3E700BF0020D0E7EC2306088B
:105A40007061727420213D2052545F4E554C4C00C1
:105A5000282573292068617320617373657274202F
:105A60006661696C65642061742025732E0A0000EC
:105A70002DE9F04706460F4691461D464FF00008B7
:105A8000344634B90D4A0EA111A039F013FF00BFFE
:105A9000FEE7A26D02FB05F302FB07F14A46E06D4B
:105AA0000EF0B2F98046A06D6843404502D04FF039
:105AB000000800E0A8464046BDE8F087FC23060841
:105AC0007061727420213D2052545F4E554C4C0041
:105AD00028257329206861732061737365727420AF
