:020000040800F2
:1000000090120020550100085D0100081F02000841
:10001000610100086301000865010008000000009C
:100020000000000000000000000000006701000860
:100030006901000800000000A70100086B2F0008FC
:100040006F0100086F0100086F0100086F010008D0
:100050006F0100086F01000883060008D106000840
:10006000E3060008F5060008070700086F0100080E
:100070006F0100086F0100086F0100086F010008A0
:100080006F0100086F0100086F0100086F01000890
:100090006F0100086F0100086F01000819070008D0
:1000A0006F0100086F0100086F0100086F01000870
:1000B0006F0100086F0100086F0100086F01000860
:1000C0006F0100086F0100086F0100086F01000850
:1000D0006F010008853400086F0100086F010008F7
:1000E000950600086F0100086F0100086F01000805
:1000F0006F0100086F0100086F0100086F01000820
:100100006F0100086F0100086F0100086F0100080F
:100110006F0100086F0100086F0100086F010008FF
:100120006F0100086F0100086F0100086F010008EF
:10013000DFF80CD000F030FA004800474D06000808
:1001400090120020002804D090FAA0F0B0FA80F0BD
:10015000401C70470648804706480047FEE7FEE718
:10016000FEE7FEE7FEE7FEE7FEE7FEE7FEE7FEE767
:100170002D30000831010008EFF3108072B670478F
:1001800080F310887047334A1368012B04D04FF076
:1001900001031360304A1060304A116030484FF05C
:1001A000805101607047EFF3108272B629480168F0
:1001B00091B14FF0000101602748016829B1EFF3C8
:1001C000098121E9F00F0068016024490968096884
:1001D000B1E8F00F81F3098882F310884EF0040E25
:1001E00070471E4908601C494FF00000086019491B
:1001F0004FF0010008601B484FF47F01D0F8002049
:1002000041EA0201016016484FF080510160164832
:100210000068006880F3088861B662B670471EF017
:10022000040F0CBFEFF30880EFF3098020E9F00F13
:1002300040F804ED1EF0040F0CBF80F3088880F333
:10024000098800B510F0F4F95DF804EB4EF0040EE7
:10025000704700000C00002004000020080000206F
:1002600004ED00E020ED00E008ED00E02DE9F041B4
:100270000024061B254671F1000605DA012400273B
:10028000D0EB070067EB0101161E73F1000605DADB
:100290000027D2EB0702012567EB030300F0F7F814
:1002A00086460E4617469C46AC4204D00025D0EB4D
:1002B000050E65EB010624B10020D2EB000760EBD0
:1002C000030C704631463A466346BDE8F081202A69
:1002D00004DB203A21FA02F00021704721FA02F3F0
:1002E000D040C2F12002914008431946704740EACD
:1002F00001039B0703D009E008C9121F08C0042AA4
:10030000FAD203E011F8013B00F8013B521EF9D28A
:100310007047D2B201E000F8012B491EFBD27047B2
:100320000022F6E710B513460A4604461946FFF7C1
:10033000F0FF204610BD421E12F8013F002BFBD1FA
:1003400011F8013B02F8013B002BF9D1704730B5A1
:1003500005462A460B4612F8010B13F8014B08B16B
:10036000A042F8D01CB1002802D06D1CF1E728464D
:1003700030BD10B5044604E00B7800F8013B03B132
:10038000491C521EF8D2204610BD421C10F8011B19
:100390000029FBD1801A704710B5002200E0521CE2
:1003A000835C8C5CA34201D1002BF8D1D8B2E1B2BE
:1003B000401A10BD30B504460020034600E05B1C27
:1003C000934203D2E05CCD5C401BF8D030BD0346C5
:1003D00011F8012B00F8012B002AF9D118467047BB
:1003E00030B505460020034600E05B1C934205D271
:1003F000EC5CC85C201A01D1002CF6D130BD02465D
:10040000C9B200E0401C0378002BFBD102E0037866
:100410008B4203D0401E9042F9D2002070472DE954
:10042000F04791460F4680460446002614F8015BCB
:100430002DB100F05DF80068405DC007F6D12B2DAE
:1004400002D02D2D18D0641E4A463946204600F0B1
:1004500053F827B13968A14201D1C7F8008071056E
:100460004FF002040BD54042002803DD03F04CF8A6
:100470000460A007BDE8F08746F48066E4E7002842
:10048000F8DA03F041F804606FF00040F2E72DE97C
:10049000F05F0546002092469B4688460646814608
:1004A00040241BE02846414647462246FFF70FFFFF
:1004B00053465A46C01A914110D311461846224657
:1004C00000F07CF82D1A67EB01084F462246012008
:1004D000002100F073F817EB00094E41201EA4F133
:1004E0000104DFDC484631462A464346BDE8F09F1A
:1004F000004870470C9501082DE9F05F82460078AE
:10050000002715468B460AF10104B946302801D070
:100510009DB113E014F8010B0127782803D0582867
:1005200001D045B10AE00DB1102D07D100271025EB
:1005300014F8010B02E0082500E00A250026B04669
:100540000EE005FB080005FB06F1012701EB104654
:100550001FFA80F8B6F5803F00D3B94614F8010BB6
:10056000294600F03AF80028EBDABBF1000F05D07D
:100570000FB1641E00E05446CBF80040B9F1000F03
:1005800006D002F0C1FF02210160C81EBDE8F09F45
:1005900048EA0640FAE70000064C074D06E0E0682E
:1005A00040F0010394E8070098471034AC42F6D3BA
:1005B000FFF7C2FDA4AF0108C4AF0108202A04DB85
:1005C000203A00FA02F1002070479140C2F1200366
:1005D00020FA03F31943904070473A2800D230388C
:1005E00020F02002412A01D3A2F13700884201D332
:1005F0004FF0FF30704770B58C1810F8015B15F0A4
:10060000070301D110F8013B2A1106D110F8012B84
:1006100003E010F8016B01F8016B5B1EF9D12B07A9
:1006200005D40023521E0DD401F8013BFAE710F85F
:10063000013BCB1A921C03E013F8015B01F8015B4C
:10064000521EF9D5A142D8D3002070BD10B514F0C8
:1006500002FB002010BD30B590F840500124AC40A2
:10066000C56B6C60046863604468102C04D1046836
:10067000A2600468E16003E00468A1600468E260CD
:1006800030BD10B510F0FAFC012000F05DFC10F058
:100690001FFD10BD10B510F0F1FC4FF4806000F0AC
:1006A00053FC4FF4006000F04FFC4FF4805000F01A
:1006B0004BFC4FF4005000F047FC4FF4804000F03A
:1006C00043FC4FF4004000F03FFC10F001FD10BD72
:1006D00010B510F0D3FC022000F036FC10F0F8FC4E
:1006E00010BD10B510F0CAFC042000F02DFC10F075
:1006F000EFFC10BD10B510F0C1FC082000F024FC88
:1007000010F0E6FC10BD10B510F0B8FC102000F0A1
:100710001BFC10F0DDFC10BD10B510F0AFFC20206C
:1007200000F012FC402000F00FFC802000F00CFCD8
:100730004FF4807000F008FC4FF4007000F004FCEF
:1007400010F0C6FC10BD00000021074AD161074926
:10075000096941F00401054A11611146096941F036
:100760004001116170470000E803002000200240B2
:100770000021074AD1610749096941F00201054A90
:10078000116111464861096941F0400111617047EA
:10079000E8030020002002400022054BDA61054AF0
:1007A000126942F00102034B1A6101807047000098
:1007B000E80300200020024000201E49C96801F023
:1007C000100139B11C49C96941F002011A4AD161CD
:1007D00040F010001749C96801F0040139B1164909
:1007E000C96941F00101144AD16140F00400114986
:1007F000C96901F0010169B10F49C96941F00401FA
:100800000D4AD16100BF0B49C96921F00101094AB4
:10081000D16100BF00BF40F20111884206D10549F5
:10082000C96921F00101034AD16101E00149C860B1
:1008300000BF704700200240E803002070B5044666
:1008400000F03EFD054609E0601C38B124B100F01F
:1008500037FD401BA04201D9032070BD1248C0687B
:1008600000F001000028EFD10F48C06800F0200020
:1008700020B100BF20200C49C86000BF0A48C068F2
:1008800000F0100048B90848C06900F0010020B924
:100890000548C06800F0040018B1FFF78DFF012083
:1008A000DBE70020D9E700000020024001460020DD
:1008B000C80AC0027047000070B50446002594F8CD
:1008C0002100022803D00420A0630125C1E0206894
:1008D000006820F00E00216808602068006820F0A1
:1008E0000100216808605C492068884252D95A4951
:1008F00078392068884201D1012047E0564964399F
:100900002068884201D1102040E0534950392068C6
:10091000884201D1801539E04F493C39206888422E
:1009200001D1801432E04C4928392068884202D134
:100930004FF480302AE0484914392068884202D1B7
:100940004FF4801022E044492068884201D14004DD
:100950001CE042492068884201D1012016E03F494D
:1009600014312068884201D110200FE03B49283122
:100970002068884201D1801508E038493C31206860
:10098000884201D1801401E04FF480303349091FBF
:10099000086051E0304978392068884201D101204F
:1009A00047E02D4964392068884201D1102040E099
:1009B000294950392068884201D1801539E02649FB
:1009C0003C392068884201D1801432E0224928391C
:1009D0002068884202D14FF480302AE01E49143941
:1009E0002068884202D14FF4801022E01A49206822
:1009F000884201D140041CE018492068884201D196
:100A0000012016E0154914312068884201D11020D8
:100A10000FE0124928312068884201D1801508E092
:100A20000E493C312068884201D1801401E04FF426
:100A30008030094980394860012084F8210000BFD6
:100A4000002084F8200000BF606B10B12046616B6D
:100A50008847284670BD000080000240080402401C
:100A6000014609B9012070470868006820F00100BC
:100A70000A68106000200A6810600A6850600A68FE
:100A800090600A68D060174A086890420BD2164AF4
:100A90000868801A1422B0FBF2F080000864124843
:100AA0000838C8630AE00F4A0868801A1422B0FBAD
:100AB000F2F0800008640B480838C86391F84020C1
:100AC00001209040CA6B506000208862C8620863B1
:100AD0004863886381F8210000BF81F8200000BFCF
:100AE00000BFC0E70804024008000240014600229F
:100AF00009B9012070471E4B086898420BD21D4B64
:100B00000868C01A1423B0FBF3F080000864194889
:100B10000838C8630AE0164B0868C01A1423B0FBF3
:100B2000F3F08000086412480838C863022081F896
:100B300021000868026843F6F0708243D1E901039E
:100B40001843CB6818430B6918434B6918438B69EA
:100B50001843CB6918430243086802600020886389
:100B6000012081F82100002081F8200000BFC1E7AA
:100B700008040240080002402DE9F04104460D46F9
:100B800016461F464FF0000800BF94F820000128C9
:100B900002D10220BDE8F081012084F8200000BFCE
:100BA00094F8210001282CD1022084F82100002093
:100BB000A0632068006820F00100216808603B46BF
:100BC000324629462046FFF746FDE06A30B12068EC
:100BD000006840F00E00216808600BE020680068A3
:100BE00020F00400216808602068006840F00A00D6
:100BF000216808602068006840F0010021680860F2
:100C000006E000BF002084F8200000BF4FF002087B
:100C10004046BFE72DE9F04104460E460127002576
:100C200000BF2648007E012802D10220BDE8F081E5
:100C300001202249087600BF2068022813D14CF217
:100C40005030FFF7FBFD90BB0120FFF77DFD4CF21C
:100C50005030FFF7F3FD07461948006920F0040003
:100C60001749086123E04CF25030FFF7E7FDF0B977
:100C70004FF0FF303060A56812E02846FFF778FD9E
:100C80004CF25030FFF7DAFD07460D48006920F0BE
:100C900002000B4908610FB1356007E005F50065FA
:100CA000D4E9021001EBC020A842E6D800BF00BF83
:100CB00000200249087600BF3846B7E7E803002065
:100CC000002002400348006940F0800001490861AB
:100CD00000207047002002402DE9FE4F05468B465C
:100CE00017469846012600240020029000BF2448A1
:100CF000007E012802D10220BDE8FE8F012020499C
:100D0000087600BF4CF25030FFF798FD064686BBD0
:100D1000012D02D10120029006E0022D02D1022015
:100D2000029001E00420029000241EE02201B94656
:100D3000C24648465146FFF7CAFA80B201900220E7
:100D400000FB04B000900199FFF726FD4CF25030F3
:100D5000FFF774FD06460B48006920F001000949C1
:100D6000086106B104E0601CC4B202988442DDDB75
:100D700000BF00BF00200249087600BF3046BBE735
:100D8000E80300200020024000200849096901F022
:100D9000800151B10649054A51600649516011462A
:100DA000096901F0800101B1012070470020024073
:100DB00023016745AB89EFCD2DE9F04102460B4693
:100DC00000208BE00127874007EA030100297DD03E
:100DD000464F4FEA900C57F82C4087074FEA177C94
:100DE0000F2707FA0CF73C40414FBA4201D10027C8
:100DF00019E0404FBA4201D1012714E03E4FBA42F8
:100E000001D102270FE03D4FBA4201D103270AE08A
:100E10003B4FBA4201D1042705E03A4FBA4201D113
:100E2000052700E006274FEA807C4FEA1C7C07FA82
:100E30000CF7A74230D187074FEA177C0F2707FA34
:100E40000CF42A4F4FEA900C57F82C70A743DFF8A8
:100E50009CC04FEA90084CF828702B4F3F688F4396
:100E6000DFF8A4C0CCF800700CF104073F688F4392
:100E70000CF1040CCCF800700CF104073F688F43B0
:100E80000CF1040CCCF800700CF104073F688F43A0
:100E90000CF1040CCCF80070FF2901D8174600E0D3
:100EA000171D3D46FF2901D8870002E0A0F1080781
:100EB000BF003E462F684FF00F0C0CFA06FC27EAE5
:100EC0000C074FF0040C0CFA06FC00E005E047EAC2
:100ED0000C072F60D7688F43D760401C23FA00F7B8
:100EE000002F7FF46FAFBDE8F081000008000140E3
:100EF00000080140000C01400010014000140140B6
:100F000000180140001C01400004014070B5054676
:100F1000284603F06FF9044604EB4400094901EB4D
:100F20008000406858B104EB44020B4603EB820298
:100F3000906804EB440203EB82025168884700BFCB
:100F400070BD00002000002010B504460448006871
:100F5000204020B1024804602046FFF7D7FF10BDB3
:100F6000140401402DE9F847024600239C467BE12A
:100F70004FF0010808FA03F4D1F8008008EA0400F1
:100F8000A0427DD1DFF8F4A2D1F80480A8EB0A09D1
:100F9000D0453AD014DCB8F1030F50D009DCB8F1D9
:100FA000000F31D0B8F1010F1CD0B8F1020F49D1B8
:100FB00020E0B8F1110F18D0B8F1120F42D11EE0A5
:100FC000B9F5881F25D006DCB9F5803F20D0B9F5EA
:100FD000801F37D11AE0B9F5001F18D0B9F5041FEA
:100FE00030D117E0D1F80CC02DE0D1F80C8008F119
:100FF000040C28E0D1F80C8008F1080C23E0D1F8AB
:101000000C8008F10C0C1EE000BF00BF00BF00BF49
:1010100000BF00BFD1F80880B8F1000F02D14FF037
:10102000040C0BE0D1F80880B8F1010F03D14FF0A8
:10103000080C146102E04FF0080C546103E04FF01B
:10104000000C00E000BF00BFFF2801D8904601E07F
:1010500002F104084646FF2802D84FEA830803E05D
:10106000A3F108084FEA88084746D6F800804FF0F9
:101070000F0909FA07F928EA09080CFA07F900E04C
:101080007AE048EA0908C6F80080D1F8048008F040
:101090008058B8F1805F6FD100BFDFF8E481D8F8E5
:1010A000188048F00108DFF8D891C9F81880C846C0
:1010B000D8F8188008F00108CDF8008000BF00BF04
:1010C0004FEAB9384FEA930958F829504FEA837824
:1010D0004FEA18794FF00F0808FA09F825EA0805D1
:1010E000DFF8A081424502D14FF0000824E0DFF88C
:1010F0009881424502D14FF001081DE0DFF88C8154
:10110000424502D14FF0020816E0DFF884814245E3
:1011100002D14FF003080FE0DFF87881424502D199
:101120004FF0040808E0DFF87081424502D14FF02B
:10113000050801E04FF006084FEA83794FEA197974
:1011400008FA09F848EA0505DFF850814FEA9309E3
:1011500048F82950D1F8048008F48038B8F5803F69
:101160000BD1DFF83C81D8F8008048EA0008DFF8AE
:101170003091C9F800800AE075E0DFF82481D8F8E2
:10118000008028EA0008DFF81891C9F80080D1F83B
:10119000048008F40038B8F5003F0ED1DFF8008174
:1011A00008F10408D8F8008048EA0008DFF8F09059
:1011B00009F10409C9F800800DE0DFF8E48008F1C6
:1011C0000408D8F8008028EA0008DFF8D49009F174
:1011D0000409C9F80080D1F8048008F48018B8F533
:1011E000801F0ED1DFF8B88008F10808D8F8008019
:1011F00048EA0008DFF8A89009F10809C9F800805A
:101200000DE0DFF89C8008F10808D8F8008028EA93
:101210000008DFF88C9009F10809C9F80080D1F8BE
:10122000048008F40018B8F5001F0ED1DFF87080B4
:1012300008F10C08D8F8008048EA0008DFF8609050
:1012400009F10C09C9F800800DE0DFF8548008F1BD
:101250000C08D8F8008028EA0008DFF8449009F16B
:101260000C09C9F800805B1CD1F8008028FA03F84B
:10127000B8F1000F7FF47CAEBDE8F88700001110D4
:101280000010024000080140000C01400010014025
:101290000014014000180140001C014008000140FA
:1012A00000040140024693680B400BB1012000E0AE
:1012B000002070470AB1016101E00B04036170472F
:1012C00010B512F099FF4FF47A714843B0FBF1F07A
:1012D00010BD00000348006803490978084401492B
:1012E00008607047140000201C00002010B508485A
:1012F000006840F0100006490860032000F0A8F8DC
:10130000002000F007F800F009F8002010BD0000F0
:1013100000200240014600207047000008B500BFD1
:101320001148806940F001000F49886108468069D2
:1013300000F00100009000BF00BF00BF0846C06978
:1013400040F08050C8610846C06900F080500090AD
:1013500000BF00BF00BF0549486820F0E06040F0D2
:101360000070486000BF08BD00100240000001404E
:1013700010B501460846002817DB00F01F030122C4
:101380009A400B4B440943F8242000BF00BF00BF24
:10139000BFF34F8F00BF00BF00BF00BF00BF00BF43
:1013A000BFF36F8F00BF00BF00BF00BF10BD0000C4
:1013B00080E100E001460846002809DB00F01F0339
:1013C00001229A4043099B0003F1E023C3F8002166
:1013D00000BF70472DE9F05F80460D461646002796
:1013E00002F076F8074639462A46334601F00700F0
:1013F000C0F1070ABAF1040F02D94FF0040A01E064
:10140000C0F1070AD14600F1040ABAF1070F02D26F
:101410004FF0000A01E0A0F1030AD4464FF0010AA0
:101420000AFA09FAAAF1010A0AEA020A0AFA0CFA05
:101430004FF0010B0BFA0CFBABF1010B0BEA030BAA
:101440004AEA0B042146404602F04AF8BDE8F09F04
:1014500000BF00F00702064B19684FF6FF03194062
:10146000044B0B4343EA0221014B196000BF704754
:101470000CED00E00000FA05F8B504460026002552
:10148000207800F0010000286BD000274348C06995
:1014900000F0805070B900BF4048C06940F08050F3
:1014A0003E49C8610846C06900F08050009000BF06
:1014B00000BF01273A48006800F48070B0B938488E
:1014C000006840F4807036490860FFF7F9FE064670
:1014D00006E0FFF7F5FE801B642801D90320F8BD64
:1014E0002F48006800F480700028F2D02B48006A72
:1014F00000F440752DB3A08800F44070A84220D0BD
:101500002648006A20F44075012026490860002022
:1015100008602248056205F0010090B1FFF7D0FE97
:10152000064608E0FFF7CCFE801B41F28831884276
:1015300001D90320D3E71948006A00F0020000280F
:10154000F0D01648006A20F44070616808431349DF
:101550000862012F04D10846C06920F08050C8619C
:1015600000BF207800F00200022807D10B48406835
:1015700020F44040A168084308494860207800F002
:101580001000102807D10548406820F480006169E8
:101590000843024948600020A1E700000010024013
:1015A000007000404004424270B504460D460CB93C
:1015B000012070BD5A48006800F00700A8420ED212
:1015C0005748006820F0070028435549086008463E
:1015D000006800F00700A84201D00120E9E7207868
:1015E00000F0020002281DD1207800F00400042839
:1015F00005D14C48406840F4E0604A494860207892
:1016000000F00800082805D14648406840F46050C2
:10161000444948604348406820F0F000A16808430E
:1016200040494860207800F0010078B360680128E4
:1016300006D13C48006800F4003090B90120B8E7BA
:101640006068022806D13748006800F0007040B991
:101650000120AEE73348006800F0020008B901201D
:10166000A7E73048406820F00300616808432D492F
:101670004860FFF725FE064609E0FFF721FE801BC4
:1016800041F28831884202D9032092E707E02548D9
:10169000406800F00C006168B0EB810FEDD120488C
:1016A000006800F00700A8420ED91D48006820F02D
:1016B000070028431A4908600846006800F0070040
:1016C000A84201D0012074E7207800F0040004282B
:1016D00007D11448406820F4E060E16808431149EC
:1016E0004860207800F00800082808D10D484068BC
:1016F00020F46050216940EAC1000A49486000F0C6
:101700003FF808494968C1F30311074A515CC840D2
:101710000649086006480068FFF7FCFD002048E71E
:1017200000200240001002403C7801080000002028
:1017300018000020014800687047000000000020E9
:1017400000B5FFF7F7FF04494968C1F30221034AD6
:10175000515CC84000BD0000001002404C780108F8
:1017600000B5FFF7E7FF04494968C1F3C221034A06
:10177000515CC84000BD0000001002404C780108D8
:10178000F0B585B00FF26C0C9CE8E01001A8A0E861
:10179000E0101CA52D6800950021002200230024E4
:1017A0000020194D696801F00C05F5B1042D02D037
:1017B000082D19D101E0154819E001ADC1F38346A8
:1017C000AC5D01F4803555B10F4D6D68C5F34045F2
:1017D0001DF805200D4D6543B5FBF2F302E00C4DFD
:1017E00004FB05F3184602E000BF084800BF00BF35
:1017F00005B0F0BD02030405060708090A0B0C0D2D
:101800000E0F1010010200000010024000127A00BA
:1018100000093D00F8B504460CB90120F8BD207858
:1018200000F00100002878D0F848406800F00C0073
:1018300004280CD0F548406800F00C00082811D1AD
:10184000F248406800F48030B0F5803F0AD1EF489C
:10185000006800F4003000285FD0606800285CD188
:101860000120DBE700BF6068B0F5803F06D1E748A4
:10187000006840F48030E549086028E0606858B9A5
:10188000E248006820F48030E049086008460068BB
:1018900020F4802008601AE06068B0F5A02F0BD11A
:1018A000DA48006840F48020D8490860084600689B
:1018B00040F4803008600AE0D448006820F48030AA
:1018C000D24908600846006820F48020086000BF04
:1018D000606888B1FFF7F4FC054606E0FFF7F0FC0E
:1018E000401B642801D9032098E7C848006800F429
:1018F00000300028F2D010E0FFF7E2FC054606E0D9
:10190000FFF7DEFC401B642801D9032086E7BF48AF
:10191000006800F400300028F2D1207800F00200C6
:10192000022857D1B948406800F00C0050B1B748C0
:10193000406800F00C00082818D1B448406800F452
:10194000803098B9B148006800F0020020B12069E9
:10195000012801D0012061E7AC48006820F0F800C0
:10196000616940EAC100A949086033E02069E8B133
:101970000120A7490860FFF7A3FC054606E0FFF732
:101980009FFC401B022801D9032047E79F480068BD
:1019900000F002000028F2D09C48006820F0F80017
:1019A000616940EAC1009949086013E00020984944
:1019B0000860FFF785FC054606E0FFF781FC401B49
:1019C000022801D9032029E79048006800F00200AE
:1019D0000028F2D1207800F0080008282DD1A06955
:1019E000B8B101208B490860FFF76AFC054606E0A4
:1019F000FFF766FC401B022801D903200EE783484D
:101A0000406A00F002000028F2D0012001F02AF91B
:101A100013E000207F490860FFF752FC054606E00E
:101A2000FFF74EFC401B022801D90320F6E6774859
:101A3000406A00F002000028F2D1207800F0040093
:101A4000042873D100277148C06900F0805070B934
:101A500000BF6E48C06940F080506C49C8610846BC
:101A6000C06900F08050009000BF00BF01276A48A5
:101A7000006800F48070B0B96748006840F4807076
:101A800065490860FFF71CFC054606E0FFF718FCF7
:101A9000401B642801D90320C0E65F48006800F4B9
:101AA00080700028F2D000BFE068012806D15748B6
:101AB000006A40F001005549086227E0E06858B923
:101AC0005248006A20F00100504908620846006A46
:101AD00020F00400086219E0E06805280BD14B48AB
:101AE000006A40F00400494908620846006A40F074
:101AF000010008620AE04548006A20F001004349FD
:101B000008620846006A20F00400086200BFE0682E
:101B1000A0B1FFF7D5FB054609E0FFF7D1FB401B5D
:101B200041F28831884202D9032077E622E0374823
:101B3000006A00F002000028EFD012E0FFF7C0FBBF
:101B4000054608E0FFF7BCFB401B41F288318842A4
:101B500001D9032062E62D48006A00F00200002847
:101B6000F0D1012F05D12948C06920F080502749C4
:101B7000C86100BFE069C8B32448406800F00C00A9
:101B8000082860D0E069022848D100202049086672
:101B9000FFF796FB054606E0FFF792FB401B022885
:101BA00001D903203AE61948006800F000700028C7
:101BB000F2D1206AB0F5803F07D11448406820F484
:101BC0000030A168084311494860D4E9080108437E
:101BD0000E49496821F4741108430C4948600120FA
:101BE0000B490866FFF76CFB054607E03DE0FFF791
:101BF00067FB401B022801D903200FE60348006859
:101C000000F000700028F2D02FE000000010024029
:101C1000000042428004424200700040002014490B
:101C20000866FFF74DFB054606E0FFF749FB401B42
:101C3000022801D90320F1E50E48006800F0007089
:101C40000028F2D111E0E069012800D1E6E5094859
:101C5000466806F48031206A814204D106F470118E
:101C6000606A814201D00120D8E50020D6E500005D
:101C700000004242001002407047014691F85100B6
:101C8000704710B504460CB9012010BD606A00B958
:101C900000BF0021A16294F8510028B9002084F807
:101CA0005000204600F032F8022084F851002068ED
:101CB000006820F0400021680860D4E90101084371
:101CC000E16808432169084361690843218B01F4F5
:101CD00000710843E1690843216A0843A16A084387
:101CE000216808600421A06901EA10402168486069
:101CF0002068C06920F400602168C8610020606528
:101D0000012084F851000020BFE7000010B586B024
:101D10000446002002900390049005903449206806
:101D200088422ED100BF3348806940F48050314949
:101D300088610846806900F48050019000BF00BFB0
:101D400000BF0846806940F0040088610846806949
:101D500000F00400019000BF00BFA020029002200C
:101D600003900320059002A92348FFF7FBF84020C9
:101D7000029000200390049002A91F48FFF7F2F898
:101D800033E01E49206888422FD100BF1948C0693E
:101D900040F480401749C8610846C06900F480409B
:101DA000019000BF00BF00BF0846806940F00800F6
:101DB00088610846806900F00800019000BF00BFFC
:101DC0004FF420400290022003900320059002A9C6
:101DD0000B48FFF7C7F84FF48040029000200390B3
:101DE000049002A90648FFF7BDF806B010BD000038
:101DF000003001400010024000080140003800405F
:101E0000000C01402DE9F8430446884616461D465D
:101E10004FF000096068B0F5827F0DD1A06858B915
:101E2000042084F85100334642464146204600953E
:101E300000F0F5F9BDE8F88300BF94F850000128E0
:101E400001D10220F6E7012084F8500000BFFFF71F
:101E500037FA074694F85100012802D04FF00209E2
:101E600078E0B8F1000F00D016B94FF0010971E029
:101E7000042084F8510000206065C4F83880A687EB
:101E8000E6872063A086E08620646064A068B0F5E1
:101E9000004F05D12068006820F480402168086068
:101EA0002068006800F04000402805D020680068E5
:101EB00040F0400021680860E068F8B91AE0206846
:101EC000806800F0010050B12068007BA16B0870B1
:101ED000A06B401CA063E08F401EE0870AE0FFF784
:101EE000EFF9C01BA84201D3681C00B915B94FF027
:101EF00003092FE0E08F0028E1D11EE01AE02068FE
:101F0000806800F0010050B12068C068A16B0880B3
:101F1000A06B801CA063E08F401EE0870AE0FFF703
:101F2000CFF9C01BA84201D3681C00B915B94FF006
:101F300003090FE0E08F0028E1D13A462946204608
:101F400000F06FFF08B120206065606D08B14FF0B0
:101F5000010900BF012084F8510000BF002084F86F
:101F6000500000BF484665E72DE9F04104460E46A3
:101F700015460027A06870B96068B0F5827F0AD165
:101F8000042084F851002B4632463146204600F0AA
:101F90005BFABDE8F08100BF94F85000012801D140
:101FA0000220F6E7012084F8500000BF94F85100A9
:101FB000012801D0022751E006B10DB901274DE0FB
:101FC000042084F8510000206065A663A587E5879A
:101FD00020646064A086E086A068B0F5004F05D15B
:101FE0002068006820F48040216808601F48E16C88
:101FF000C8621F48E16C88621E48E16C08630020DB
:10200000E16C4863E38FD4F800C00CF10C01A26BC3
:10201000E06CFEF7B1FD40B1606D40F0100060650E
:102020000127012084F8510018E02068006800F0C2
:102030004000402805D02068006840F0400021683A
:1020400008602068406840F02000216848602068EF
:10205000406840F001002168486000BF00BF0020D8
:1020600084F8500000BF384693E70000B52C000804
:10207000DF2C00088D2C0008704770472DE9F84FC1
:102080000446884616461D464FF0000A00BF94F8E5
:102090005000012802D10220BDE8F88F012084F809
:1020A000500000BFFFF70CF90746B14694F8510005
:1020B000012802D04FF0020AA7E0B8F1000F00D0CB
:1020C00016B94FF0010AA0E0032084F85100002067
:1020D0006065C4F83080A686E686A063A087E087A6
:1020E00060642064A068B0F5004F05D120680068E6
:1020F00040F48040216808602068006800F04000DB
:10210000402805D02068006840F040002168086041
:10211000E068B0F5006F2FD1606810B1B9F1010F20
:1021200009D1206B00882168C860206B801C206367
:10213000E08E401EE0861BE02068806800F0020010
:1021400002280AD1206B00882168C860206B801C9F
:102150002063E08E401EE0860AE0FFF7B1F8C01B66
:10216000A84201D3681C00B915B94FF0030A4CE02E
:10217000E08E0028E0D12EE0606810B1B9F1010FC7
:1021800009D1206B007821680873206B401C206304
:10219000E08E401EE0861BE02068806800F00200B0
:1021A00002280AD1206B007821680873206B401C3C
:1021B0002063E08E401EE0860AE0FFF781F8C01B36
:1021C000A84201D3681C00B915B94FF0030A1CE0FE
:1021D000E08E0028E0D13A462946204600F05DFE18
:1021E00008B120206065A06850B900BF00200090B1
:1021F0002068C068009020688068009000BF00BF21
:10220000606D08B14FF0010A00BF012084F8510051
:1022100000BF002084F8500000BF50463CE72DE985
:10222000FF5F0446884691461D460E9E012002909F
:102230000020019000BF94F85000012803D1022033
:1022400004B0BDE8F09F012084F8500000BFFFF704
:1022500037F8074694F851B060680390AA46BBF17E
:10226000010F0BD00398B0F5827F04D1A06810B99C
:10227000BBF1040F02D002200190DBE0B8F1000FA7
:1022800003D0B9F1000F00D015B901200190D1E0C1
:1022900094F85100042802D0052084F85100002051
:1022A0006065C4F83890E587A587C4F83080E58676
:1022B000A586206460642068006800F04000402823
:1022C00005D02068006840F0400021680860E068A0
:1022D000B0F5006F4AD1606810B1BAF1010F09D1B1
:1022E000206B00882168C860206B801C2063E08E12
:1022F000401EE08633E02068806800F0020002287B
:1023000010D1E08E70B1029801280BD1206B0088AB
:102310002168C860206B801C2063E08E401EE08630
:10232000002002902068806800F0010068B1E08F12
:1023300058B12068C068A16B0880A06B801CA063A6
:10234000E08F401EE08701200290FEF7B9FFC01B1E
:10235000B04204D3701C10B1032001906AE0E08EFB
:102360000028C8D1E08F0028C5D14AE0606810B1CC
:10237000BAF1010F09D1206B007821680873206B36
:10238000401C2063E08E401EE08634E020688068B8
:1023900000F00200022810D1E08E70B102980128EE
:1023A0000BD1206B007821680873206B401C2063E0
:1023B000E08E401EE086002002902068806800F0D9
:1023C000010068B1E08F58B12068C068A16B087047
:1023D000A06B401CA063E08F401EE08701200290AC
:1023E000FEF76EFFC01BB04201D3701C00B916B9D6
:1023F000032001901EE0E08E0028C7D1E08F002866
:10240000C4D13A463146204600F047FD20B10120B4
:102410000190202060650DE0A06850B900BF002049
:1024200000902068C068009020688068009000BF1D
:1024300000BF00BF012084F8510000BF002084F8D5
:10244000500000BF0198FBE62DE9F04704460E4618
:1024500017461D464FF0000A00BF94F850000128AF
:1024600002D10220BDE8F087012084F8500000BFAF
:1024700094F85180D4F80490B8F1010F0AD0B9F55E
:10248000827F04D1A06810B9B8F1040F02D04FF0D8
:10249000020A7DE00EB107B115B94FF0010A77E0ED
:1024A00094F85100042802D0052084F8510000203F
:1024B00060652663A586E586A763A587E587206412
:1024C000606494F85100042806D13548E16CC86274
:1024D0003448E16C886205E03348E16CC8623348F7
:1024E000E16C88623248E16C08630020E16C48636B
:1024F000E38FD4F800C00CF10C01A26BE06CFEF786
:102500003BFB48B1606D40F0100060654FF0010A80
:10251000012084F851003BE02068406840F0010051
:10252000216848600020A16CC862A16C8862A16C1F
:102530000863A16C4863E38ED4F800C00CF10C0270
:10254000216BA06CFEF718FB48B1606D40F01000E5
:1025500060654FF0010A012084F8510018E02068FE
:10256000006800F04000402805D02068006840F076
:102570004000216808602068406840F02000216821
:1025800048602068406840F002002168486000BF51
:1025900000BF002084F8500000BF504662E70000F2
:1025A000B52C0008DF2C0008D12C0008BD2D000838
:1025B0008D2C00082DE9F04104460E4615460027F3
:1025C00000BF94F85000012802D10220BDE8F0813C
:1025D000012084F8500000BF94F85100012801D078
:1025E000022752E006B10DB901274EE0032084F81E
:1025F0005100002060652663A586E586A0636064BF
:102600002064A087E087A068B0F5004F05D120685E
:10261000006840F48040216808601F48A16CC862CF
:102620001E48A16C88621E48A16C08630020A16C42
:102630004863E38ED4F800C00CF10C02216BA06C4F
:10264000FEF79AFA40B1606D40F010006065012716
:10265000012084F8510018E02068006800F0400074
:10266000402805D02068006840F0400021680860DC
:102670002068406840F02000216848602068406879
:1026800040F002002168486000BF00BF002084F8CD
:10269000500000BF384699E7C32C00083F2D0008C2
:1026A0008D2C00087047704770477047042808D188
:1026B0004FF0E021096941F004014FF0E02211617F
:1026C00007E04FF0E021096921F004014FF0E0221A
:1026D0001161704770B504462546681EB0F1807FD1
:1026E00001D301200FE0681E4FF0E02148610F2167
:1026F0004FF0FF3000F0F4FE00204FF0E021886141
:1027000007200861002070BD70B504462CB94FF455
:102710005372034903A00CF0CDFE254670BD0000A6
:10272000697E0108687561727420213D204E554C08
:102730004C0000002DE9F047044620680568206839
:10274000C668206847694FF00008C14605F00F08C9
:10275000B8F1000F0AD105F0200038B106F02000D2
:1027600020B1204600F036FDBDE8F087B8F1000F3B
:102770006DD007F0010018B906F49070002866D0FB
:1027800005F0010030B106F4807018B1E06B40F044
:102790000100E06305F0040030B107F0010018B15A
:1027A000E06B40F00200E06305F0020030B107F09A
:1027B000010018B1E06B40F00400E06305F0080090
:1027C00030B107F0010018B1E06B40F00800E063A1
:1027D000E06B68B305F0200028B106F0200010B1CE
:1027E000204600F0F7FC20684069C0F38019E06BD8
:1027F00000F0080010B9B9F1000F22D0204600F017
:10280000BFFC2068406900F04000B0B1206840691A
:1028100020F0400021684861606B50B11748616B3F
:102820004863606BFEF748F810B1606B416B8847F6
:102830000CE02046FFF768FF08E02046FFF764FF42
:1028400004E02046FFF760FF0020E0638CE705F01E
:10285000800030B106F0800018B1204600F0DEFDA7
:1028600082E705F0400030B106F0400018B1204684
:1028700000F096FC78E700BF76E70000853000089E
:1028800010B504460CB9012010BDA06900B100E0EC
:1028900000BF94F8390028B9002084F83800204699
:1028A00000F028F8242084F839002068C06820F45B
:1028B00000502168C860204600F0E0FC20680069F4
:1028C00020F49040216808612068406920F02A00C7
:1028D000216848612068C06840F400502168C860E1
:1028E0000020E063202084F8390084F83A000020BA
:1028F000CAE7000010B586B004460020029003909D
:102900000490059051492068884237D100BF504853
:10291000806940F480404E4988610846806900F42F
:102920008040019000BF00BF00BF0846806940F0B2
:10293000040088610846806900F00400019000BF2F
:1029400000BF48150290022003900320059002A9C1
:102950004048FEF707FB4FF4806002900020039090
:10296000049002A93B48FEF7FDFA002211462520FB
:10297000FEF730FD2520FEF71DFD65E03649206895
:1029800088422ED100BF3248C06940F4003030493F
:10299000C8610846C06900F40030019000BF00BF64
:1029A00000BF0846806940F00400886108468069DD
:1029B00000F00400019000BF00BF0420029002203C
:1029C00003900320059002A92248FEF7CBFA0820C5
:1029D000029000200390049002A91E48FEF7C2FA5C
:1029E00032E01E49206888422ED100BF1848C069D5
:1029F00040F480201649C8610846C06900F4802070
:102A0000019000BF00BF00BF0846806940F0080089
:102A100088610846806900F00800019000BF00BF8F
:102A200008150290022003900320059002A90C488B
:102A3000FEF798FA4FF40060029000200390049093
:102A400002A90748FEF78EFA06B010BD0038014013
:102A500000100240000801400044004000480040CF
:102A6000000C014077B581B00446154694F83A0051
:102A7000202850D1029800B115B9012004B070BDD2
:102A800000BF94F83800012801D10220F6E70120A8
:102A900084F8380000BF0298A062A5850020E0639A
:102AA000222084F83A001D48616B88621C48616BE3
:102AB000C8621C48616B08630020616B486302AE0A
:102AC00032682368191D2B46606BFEF755F800BF6E
:102AD0000020009020680068009020684068009006
:102AE00000BF00BF00BF002084F8380000BF20688E
:102AF000C06840F480702168C8602068406940F078
:102B00000100216848612068406940F04000216868
:102B100048610020B2E70220B0E70000E930000879
:102B20002F3100089930000870B504462CB94FF4D5
:102B30005772054905A00CF0BDFC254605F1D400EF
:102B400004F0F4FD70BD0000807E010868756172BC
:102B50007420213D204E554C4C00000070B50446B9
:102B60002CB940F26B32054905A00CF0A3FC2546B8
:102B700005F1D40004F0DAFD70BD0000987E010874
:102B8000687561727420213D204E554C4C00000048
:102B9000F7B50446154694F8390020283DD1019830
:102BA00000B10DB90120FEBD00BF94F83800012826
:102BB00001D10220F7E7012084F8380000BF019816
:102BC0002062A584E5840020E063212084F8390098
:102BD0001348216B88621348216BC8621248216B2D
:102BE00008630020216B486301AE23681A1D316819
:102BF0002B46206BFDF7C0FF6FF040002168086096
:102C000000BF002084F8380000BF2068406940F011
:102C10008000216848610020C5E70220C3E700006A
:102C20003D310008733100089930000870B5044642
:102C30002CB940F27232054905A00CF03BFC254648
:102C4000042105F1D4000DF061FE70BDB47E0108D1
:102C5000687561727420213D204E554C4C00000077
:102C60007047000008B508490968C9084FF47A722E
:102C7000B1FBF2F14143009100BF00BF00994A1E31
:102C800000920029F9D108BD0000002070B505466A
:102C90006C6A2068406820F0030021684860606D1D
:102CA00040F010006065012084F851002046FEF7D6
:102CB000E3FF70BD70B50446656A2846FFF7DDF98D
:102CC00070BD70B50446656A2846FFF7ECFC70BD20
:102CD00070B50446656A2846FFF7E7FC70BD70B51D
:102CE00005466C6AFEF7ECFA06462868006800F0B4
:102CF000200020281ED02068406820F02000216895
:102D000048602068406820F003002168486032462F
:102D10006421204600F085F808B12020606500207D
:102D2000E087012084F85100606D18B12046FEF75D
:102D3000A3FF70BD2046FFF79FF900BFF9E7F8B584
:102D400005466C6AFEF7BCFA06462868006800F083
:102D5000200020282DD02068406820F02000216825
:102D600048602068406820F00200216848603246D0
:102D70006421204600F091F818B1606D40F0200009
:102D80006065A06850B900BF002000902068C0684E
:102D9000009020688068009000BF00BF0020E0869F
:102DA000012084F85100606D18B12046FEF764FFE1
:102DB000F8BD2046FFF776FC00BFF9E770B5054681
:102DC0006C6AFEF77DFA06462868006800F020006D
:102DD000202821D02068406820F020002168486029
:102DE00032466421204600F058F818B1606D40F07A
:102DF000200060652068406820F00300216848607A
:102E00000020E086E087012084F85100606D18B151
:102E10002046FEF731FF70BD2046FFF745FC00BF9E
:102E2000F9E7F8B504460E4615466068B0F5827FAE
:102E30000DD1A068B0F5004F03D0A068B0F5806F49
:102E400005D12068006820F04000216808606068B3
:102E5000B0F5827F11D1A068B0F5806F0DD13346F7
:102E6000002201212046009500F02BF898B1606DFA
:102E700040F0200060650320F8BD33460022802129
:102E80002046009500F01DF828B1606D40F020004C
:102E900060650320F0E70020EEE7F8B504460D4634
:102EA00016462B46002280212046009600F009F8A5
:102EB00028B1606D40F0200060650320F8BD00205F
:102EC000FCE72DE9F04104460E4617461D46DDF8A5
:102ED00018803EE0681CD8B3FEF7F2F9A0EB0800BA
:102EE000A84200D2A5BB2068406820F0E00021681D
:102EF00048606068B0F5827F0DD1A068B0F5004FE2
:102F000003D0A068B0F5806F05D12068006820F07C
:102F1000400021680860A06AB0F5005F0DD100BFD5
:102F20002068006820F4005021680860206800686C
:102F300040F400502168086000BF012084F851006F
:102F400000BF002084F8500000BF0320BDE8F081DE
:102F5000FFE7206880683040B04201D1012000E0E6
:102F60000020B842B6D10020F0E710B50EF086F888
:102F7000FEF7B0F911F046F90EF0AAF810BD000006
:102F800000B595B028210BA8FDF7CAF9142106A8B1
:102F9000FDF7C6F918216846FDF7C2F90D200B9020
:102FA0004FF480300C9000200D9001200E900F9077
:102FB000119002201290C1031391C10414910BA827
:102FC000FEF728FC18B1222114A000F067FA0F20A8
:102FD000069002200790002008904FF4806009902E
:102FE00000200A90012106A8FEF7DEFA18B12F2171
:102FF0000AA000F053FA132000904FF48070019063
:1030000080010290000205906846FEF735FA18B17B
:10301000382102A000F042FA15B000BD2E2E5C62ED
:1030200073705C626F6172642E6300001148006807
:1030300040F001000F490860084640680E4908400A
:103040000C494860084600680C4908400949086076
:103050000846006820F4802008600846406820F494
:10306000FE0048604FF41F008860C80304490860F0
:1030700070470000001002400000FFF8FFFFF6FE5E
:1030800008ED00E070B505466C6A0020E085E0843C
:103090002046FFF739FB70BD70B506460025746AFF
:1030A00020684069C0F3C01594F83900212805D183
:1030B00025B10020E084204600F082F820684069B5
:1030C000C0F3801594F83A00222805D125B10020DC
:1030D000E085204600F054F8E06B40F01000E0631B
:1030E0002046FFF711FB70BD70B505466C6A286875
:1030F000006800F02000B0B90020E0852068C068BA
:1031000020F480702168C8602068406920F00100C8
:10311000216848612068406920F0400021684861CA
:10312000202084F83A002046FFF7FEFC70BD70B501
:103130000446656A2846FFF711FD70BD70B5054667
:103140006C6A2868006800F0200070B90020E084F4
:103150002068406920F08000216848612068C068CC
:1031600040F040002168C86002E02046FFF75EFDA5
:1031700070BD70B50446656A2846FFF771FD70BDE5
:103180000168C96821F490710268D16001684969D9
:1031900021F0010102685161202180F83A10704746
:1031A00010B504462068C06820F040002168C8605F
:1031B000202084F839002046FFF738FD002010BD9C
:1031C0000168C96821F0C0010268D160202180F83F
:1031D0003910704770B5044694F83A0022284AD155
:1031E000A068B0F5805F13D1A56A206940B9206856
:1031F0004068C0F308002880A06A801CA06219E023
:1032000020684068C0B22880A06A401CA06211E01B
:10321000206938B920684068C1B2A26A501CA06217
:10322000117007E02068406800F07F01A26A501C1E
:10323000A0621170E08D401E80B2E085C8B92068A0
:10324000C06820F020002168C8602068C06820F4B1
:1032500080702168C8602068406920F00100216802
:103260004861202084F83A002046FFF75DFC0020EA
:1032700070BD0020FCE70220FAE7000070B50446AC
:103280002168096921F44051E26811432268116103
:103290002269A1681143626941EA02052168C9688F
:1032A00041F20C62914329432268D1602168496947
:1032B00021F44071A269114322685161564A216884
:1032C000914254D1FEF74CFA00EBC00101EB001122
:1032D00062689200B1FBF2F100EBC00202EB001257
:1032E00063689B00B2FBF3F26423B2FBF3F202EBE0
:1032F000C20303EB0212A1EB8201322202EB0111A5
:103300006422B1FBF2F101F0F00100EBC00202EB2C
:10331000001263689B00B2FBF3F26423B2FBF3F28A
:1033200001EB021200EBC00101EB001163689B008E
:10333000B1FBF3F100EBC00303EB00136668B600CA
:10334000B3FBF6F36426B3FBF6F303EBC30606EB1D
:103350000313A1EB8301322303EB01116423B1FBBF
:10336000F3F101F00F0111442268916053E0FEF780
:10337000E7F900EBC00101EB001162689200B1FBBC
:10338000F2F100EBC00202EB001263689B00B2FB9B
:10339000F3F26423B2FBF3F202EBC20303EB02127B
:1033A000A1EB8201322202EB01116422B1FBF2F1A6
:1033B00001F0F00100EBC00202EB001263689B0019
:1033C000B2FBF3F26423B2FBF3F201EB021200EB67
:1033D000C00101EB001163689B00B1FBF3F100EB4E
:1033E000C00303EB00136668B600B3FBF6F3642674
:1033F000B3FBF6F303EBC30606EB0313A1EB830168
:10340000322303EB01116423B1FBF3F101F00F014F
:1034100011442268916070BD00380140014691F866
:10342000390021282CD18868B0F5805F0FD10A6A55
:103430001088C0F308000B685860086918B9086A5A
:10344000801C086209E0086A401C086205E00B6AFB
:10345000581C086218780B685860C88C401E80B2EF
:10346000C88458B90868C06820F080000B68D8602C
:103470000868C06840F040000B68D86000207047C2
:103480000220FCE710B50DF0F9FD034813F090FFA2
:103490000DF01EFE10BD0000DC04002000BFFEE7A2
:1034A0000FB41CB50246002007AC00290BD0491E02
:1034B000CDE90021054B6A462146069800F044F903
:1034C000009A002111701CBC5DF814FB9D3E0008A1
:1034D00002480068C0F30220704700000CED00E0D5
:1034E00010B5002804DB0A07130E054A135406E042
:1034F0000A07140E034A00F00F031B1FD45410BD1B
:1035000000E400E018ED00E000487047E003002010
:1035100001460A46C81701EB90708010A1EB8000AD
:1035200070B9642091FBF0F300FB131030B94FF435
:10353000C87091FBF0F300FB131008B9012070472D
:103540000020FCE702E008C8121F08C1002AFAD1D7
:1035500070477047002001E001C1121F002AFBD113
:10356000704702460020704770B504460648006860
:10357000FCF7E8FD451E054850F83500A0F114069B
:103580002560304670BD0000080200202C0B002092
:1035900070B504462F212046FCF731FF051E01D1EE
:1035A000204670BD681C0546FBE70000034908681B
:1035B000884201D0012070470020FCE7180200205B
:1035C0002DE9F0438BB005468946174600242DB9F6
:1035D0004FF49B721C491DA00BF06CFF2FB940F2F9
:1035E000371219491AA00BF065FF00E0641C285D32
:1035F000202804D0285D092801D04C45F6D324B9F1
:103600004FF0FF300BB0BDE8F083214628460AF0AA
:1036100021FE064616B94FF0FF30F3E7282101A836
:10362000FCF77EFE01AA494628460AF0C1FE804604
:10363000B8F1000F02D14FF0FF30E3E701A9404697
:10364000B04738600020DDE7CC8D0108636D640071
:1036500072657470000000002DE9F041054688464F
:1036600016462F4627B93722084909A00BF022FF3A
:1036700034461CB94FF0FF30BDE8F08162882188E4
:10368000386D0368284698470020F5E78D7F0108CC
:1036900070696E20213D2052545F4E554C4C000005
:1036A0002DE9F0470546894616461F46A846B8F15B
:1036B000000F04D118220A490AA00BF0FBFE344681
:1036C0000CB1042F02D00020BDE8F0872188D8F883
:1036D000500082682846904760803846F4E7000032
:1036E000787F010870696E20213D2052545F4E554D
:1036F0004C4C00002DE9F0470546894616461F460A
:10370000A846B8F1000F04D127220A490AA00BF0FD
:10371000D1FE34460CB1042F02D00020BDE8F08762
:1037200062882188D8F85000436828469847384670
:10373000F4E70000827F010870696E20213D20526D
:10374000545F4E554C4C00002DE9F84F9946924677
:1037500088460546002706E025280AD051464A46F5
:1037600090476D1C7F1C28780028F5D13846BDE8AD
:10377000F88F002315F8011F18462E2915D115F8CA
:10378000011F04232A290DD06FF02F022978A1F1FF
:103790003004092C09D800EB800002EB40000844FB
:1037A0006D1CF3E758F8040B6D1C2A78002ADDD055
:1037B000632A07D0732A0FD0104651464A469047D5
:1037C0007F1C2AE018F8042B8DF8002000218DF8CA
:1037D00001106E46012103E058F8046B4FF0FF31F1
:1037E0005A074FF0000401D409E0641C84420BDA4C
:1037F0008C42FADB325D002AF7D105E0641C8C4272
:10380000FCDB305D0028F9D1274404E016F8010BF9
:1038100051464A469047641EF8D26D1CA3E700004B
:1038200070B5044624B95322144915A00BF042FE8A
:10383000A06A0078232809D1A16AE069884205D9E5
:10384000D4E90A010844E16988420CD2214611A05A
:103850000DF0BEFC09F0C6FEFCF78EFC054600BF6D
:10386000002DFDD108E0A06A2030E169814203D833
:1038700021460FA00DF0ACFC70BD0000DC890108F2
:1038800074687265616420213D2052545F4E554C2E
:103890004C0000007468726561643A25732073748B
:1038A00061636B206F766572666C6F770A0000004B
:1038B0007761726E696E673A202573207374616355
:1038C0006B20697320636C6F736520746F20656E65
:1038D00064206F6620737461636B20616464726539
:1038E00073732E0A000000002DE9FC5F04468B462E
:1038F00016461F46DDE90C9ADDE90E5804F1140066
:103900004060006000BF26626762C4F82890C4F877
:103910002CA02321D4E90A020DF0BFFED4E90A3C11
:1039200063441A1F174BD4E908010DF0FBFAE0615C
:10393000202D04DB9522144914A00BF0BBFD30347C
:10394000A57165710020A060C4F81480C4F81880C7
:1039500020602071A064E064303C00902346144A4B
:103960002146019004F14C0010F08AFD00BF11487F
:10397000006818B120460F490968884700BF002039
:10398000BDE8FC9FE93B01082A8A01087072696F53
:1039900072697479203C2052545F54485245414426
:1039A0005F5052494F524954595F4D4158000000F1
:1039B000014101082C0200202DE9F04704460E4683
:1039C00017469846DDF8209084F80990607A20F038
:1039D00001006072E66127620020A062C4F82480C2
:1039E000002506E004F1140101EBC5000DF02DFCEB
:1039F0006D1C012DF6DBBDE8F08710B502460020F6
:103A000001460EE002F1140303EBC100D0E90043CC
:103A10006360D0E9003423604060006000BF481C50
:103A200001460129EEDB10BD10B50948006868B9F0
:103A300000BF08A00DF0CCFB0A480DF0C9FB0AA09E
:103A40000DF0C6FB00BF01200149086010BD000059
:103A5000080100201B5B33336D5B572F55415254D7
:103A60005D200000209501081B5B306D0A000000FE
:103A70002DE9F04704460F46904604B12FB940F2B5
:103A8000C912404940A00BF015FDFCF775FB8246BA
:103A9000A06DC0F38F2000282DD10026E56D2DB933
:103AA00040F2D312374943A00BF004FD28680128E7
:103AB00013D001202860206D006928B94FF4EC7202
:103AC000304941A00BF0F6FC206D012342463946F7
:103AD000D0F810C02046E04701E06FF006065046DF
:103AE000FCF74EFB16B94046BDE8F08730460FF0B4
:103AF00069F90020F8E7E56D002620460CF08AFB06
:103B000081462DB94FF4F4721E4939A00BF0D2FC56
:103B1000C84501DA464600E04E46E8888119A06DA6
:103B2000C0F38F20814207D2EA8828688118324684
:103B300038460DF053FD1CE0A06DC0F38F20EB88DC
:103B4000C21A2868C11838460DF048FDEB8803EB0F
:103B5000060CA36DC3F38F23ACEB0302A36DC3F379
:103B60008F233B44B5F806C0A3EB0C0029680DF089
:103B700035FD314620460CF053FB5046FCF700FB68
:103B80003046B1E7D38001082873657269616C2003
:103B9000213D2052545F4E554C4C2920262620288A
:103BA0006461746120213D2052545F4E554C4C2974
:103BB0000000000072785F646D6120213D20525446
:103BC0005F4E554C4C00000073657269616C2D3E70
:103BD0006F70732D3E646D615F7472616E736D6999
:103BE0007420213D2052545F4E554C4C0000000083
:103BF00072785F6669666F20213D2052545F4E5592
:103C00004C4C00002DE9F047044688461646256EC8
:103C10004FF0FF3332464146281D0BF01DFF07468B
:103C2000CFB9FCF7A9FA8146286801280DD00120F8
:103C300028604846FCF7A4FA206D0223324641462C
:103C4000D0F810C02046E04702E04846FCF798FA5A
:103C50003046BDE8F08738460FF0B4F80020F8E7AA
:103C600070B50546EC6D2CB940F25B120F4910A0FF
:103C70000BF020FCA088E188884207D1A06808B931
:103C8000002070BDA86DC0F38F20FAE7A088E188FE
:103C9000884203DDA088E188401AF2E7E088A18825
:103CA000411AA86DC0F38F20401AEAE77C80010812
:103CB00072785F6669666F20213D2052545F4E55D1
:103CC0004C4C00002DE9F04706460F4615462EB92C
:103CD0004FF483721E491FA00BF0ECFBA846F46D55
:103CE0002CB94FF485721A491FA00BF0E3FB28E0B2
:103CF000FCF742FA8246E088A188884205D1A06894
:103D000018B95046FCF73CFA1DE0E188206810F82D
:103D10000190E088401CE080E188B06DC0F38F2006
:103D2000814201DB0020E080A068012801D1002051
:103D3000A0605046FCF724FA87F800907F1C6D1EA7
:103D400000BF002DD4D100BFA8EB0500BDE8F0876F
:103D50005E80010873657269616C20213D205254B8
:103D60005F4E554C4C00000072785F6669666F20AC
:103D7000213D2052545F4E554C4C00002DE9F0413E
:103D800005460E4614462DB94FF49B721149124850
:103D90000BF090FBA0462F6E2FB94FF49D720D498A
:103DA0000EA00BF087FB0FE03178286D8268284663
:103DB0009047401C28B94FF0FF3138460BF01EFCED
:103DC00002E0761C641E00BF002CEDD1A8EB0400BD
:103DD000BDE8F0816D800108343E00087478202130
:103DE0003D2052545F4E554C4C0000002DE9F041EF
:103DF00006460F46144626B9D3220D490DA00BF0F6
:103E000059FBA0460DE0306DC16830468847054635
:103E1000681C00B907E03D707F1C641E0A2D00D1AC
:103E200001E0002CEFD100BFA8EB0400BDE8F08159
:103E30003E80010873657269616C20213D205254F7
:103E40005F4E554C4C0000002DE9F04104460E46F3
:103E5000154624B9E7220F490F480BF02BFB2F46DC
:103E600012E030780A2808D1207E00F0400020B10E
:103E7000206D0D218268204690473178206D826840
:103E800020469047761C6D1E002DEAD1781BBDE8B8
:103E9000F08100004E800108343E00084A68002A84
:103EA00006D00A68531C0B6010704868401E4860BA
:103EB0007047034611B1012902D100E000E000BFC4
:103EC00000BF0020704700002DE9F04104468846FD
:103ED00016461F46254625B91622094909A00BF0AA
:103EE000E9FAE86F20B9172205490AA00BF0E2FAB7
:103EF0003B4632460021E86F0FF084FBBDE8F081BD
:103F00009E82010862757320213D2052545F4E55F8
:103F10004C4C00006275732D3E6F776E65722021E8
:103F20003D2052545F4E554C4C0000002DE9F041AD
:103F30000446884616461F46254625B924220949C7
:103F400009A00BF0B7FAE86F20B9252205490AA0AD
:103F50000BF0B0FA3B4600223146E86F0FF052FBFF
:103F6000BDE8F081B382010862757320213D2052C3
:103F7000545F4E554C4C00006275732D3E6F776E4A
:103F8000657220213D2052545F4E554C4C0000007C
:103F9000034611B1012902D100E000E000BF00BFDB
:103FA000002070472DE9F0410446884616461F461A
:103FB000254625B96822094909A00BF07BFA286D2E
:103FC00020B9692205490BA00BF074FA3B46324632
:103FD000002128460FF016FBBDE8F081E0820108C1
:103FE00064657669636520213D2052545F4E554CCF
:103FF0004C0000006465766963652D3E6275732030
:10400000213D2052545F4E554C4C00002DE9F041AB
:104010000446884616461F46254625B97622094994
:1040200009A00BF047FA286D20B9772205490BA0AB
:104030000BF040FA3B460022314628460FF0E2FAE8
:10404000BDE8F081F482010864657669636520212A
:104050003D2052545F4E554C4C000000646576691B
:1040600063652D3E62757320213D2052545F4E558D
:104070004C4C00002DE9FE4F8146884616461C46F2
:10408000002509F120074FF0010B08EB0601D9F8D4
:104090001000814205D942A011F05CFE0520BDE868
:1040A000FE8FB86810B13846B968884708F001003B
:1040B00070B12046641C414608F1010801231A46EC
:1040C000009048460AF068FA054605B15CE0761EA5
:1040D0000121484610F042FF054605B154E0AD20ED
:1040E0008DF804003DE0BBF1000F18D00DF1050282
:1040F0004146484609F0EBFC99F8350008B1052027
:1041000000E004208246207801A901F80A006178C5
:1041100001AA0AF1010011544FF0000B07E04FF023
:10412000010A20788DF8050060788DF806000020DF
:10413000009003460AF1020201A93846D7F804C0EC
:10414000E04705461DB120A011F004FE1CE04846E2
:1041500013F0C2FA054605B116E0B61E08F10208D2
:10416000A41C022EBFD20021484610F0F7FE0546DF
:104170004DB9012E07D101231A4641464846009405
:104180000AF00AFA054600BF1DB10021484610F0AA
:10419000E5FEF86810B13846F968884728467EE79A
:1041A0004572726F723A20466C6173682061646474
:1041B00072657373206973206F7574206F66206257
:1041C0006F756E642E0000004572726F723A204661
:1041D0006C6173682077726974652053504920635D
:1041E0006F6D6D756E6963617465206572726F7253
:1041F0002E0000000246002106E001208840904287
:1042000001D108467047491C2029F6DB4FF0FF30EA
:10421000F8E700002DE9F84F8046894614464546E8
:1042200035B91E4A1EA122A00CF0D2FF00BFFEE746
:10423000B9F1100F0BD1214619B94FF0FF30BDE88D
:10424000F88FD5E91523286D81E80D0024E0B9F138
:10425000120F21D1A246DAF80060DAF80470BAF140
:10426000000F01D0BE4202D94FF0FF30E7E7B7425E
:1042700000D17F1C686D00FB06FBB81B696D4843CD
:104280000090E86D5946009A06F0ECF8002802DA32
:104290004FF0FF30D3E700BF0020D0E7BC8C01080F
:1042A0007061727420213D2052545F4E554C4C0079
:1042B00028257329206861732061737365727420E7
:1042C0006661696C65642061742025732E0A0000A4
:1042D0002DE9F04706460F4691461D464FF000086F
:1042E000344634B90D4A0EA111A00CF071FF00BF85
:1042F000FEE7A26D02FB05F302FB07F14A46E06D03
:1043000006F050FA8046A06D6843404502D04FF059
:10431000000800E0A8464046BDE8F087CC8C0108C4
:104320007061727420213D2052545F4E554C4C00F8
:104330002825732920686173206173736572742066
:104340006661696C65642061742025732E0A000023
:104350002DE9F05F0646894693461F464FF0000858
:10436000344634B9124A13A116A00CF031FF00BF35
:10437000FEE7606D00FB09FA606D00FB07F52A4659
:104380005146E06D06F06EF88046A84506D12B46F2
:104390005A465146E06D06F0C9FA8046A84502D05B
:1043A0004FF0000800E0B8464046BDE8F09F00002E
:1043B000D98C01087061727420213D2052545F4EE7
:1043C000554C4C0028257329206861732061737354
:1043D000657274206661696C656420617420257360
:1043E0002E0A000010B520A00CF0F2FE2148017842
:1043F00021A00CF0EDFE1F48007800F0010010B184
:1044000023A00CF0E5FE1B48007800F0020010B17C
:1044100022A00CF0DDFE1748007800F0040010B177
:1044200021A00CF0D5FE1348007800F0080010B170
:1044300021A00CF0CDFE0F48007800F0100010B164
:1044400020A00CF0C5FE0B48007800F0800030B1D1
:1044500008480F3001681DA00CF0BAFE02E01FA052
:104460000CF0B6FE10BD0000627573206661756CBD
:10447000743A0A0029ED00E05343425F4346535229
:104480005F424653523A30782530325820000000BF
:1044900049425553455252200000000050524543B6
:1044A0004953455252200000494D5052454349530B
:1044B0004552522000000000554E53544B45525275
:1044C0002000000053544B45525220005343422DCC
:1044D0003E424641523A253038580A000A00000050
:1044E00030B595B0054600222946114802F016F86D
:1044F000002805DA29460FA00CF06AFE15B030BD81
:1045000000BF54216846FBF70BFF5022694608485C
:1045100002F072F804461CB169460AA00CF058FE7D
:10452000002CEED1024801F0AFFF00BFE6E700002B
:10453000640D00204F70656E202573206661696CE4
:1045400065640A002573000070B50446256A35B914
:104550000D4A0EA111A00CF03BFE00BFFEE717496B
:104560006069084020B1012803D0022806D101E08B
:1045700005E000BF286D06F02DF800E000BF00BF89
:104580000020E06170BD00001A8D01087061727436
:1045900020213D2052545F4E554C4C002825732954
:1045A0002068617320617373657274206661696C41
:1045B00065642061742025732E0A0000030020002A
:1045C0002DE9F0410446884615460027266A36B98B
:1045D000104A11A114A00CF0FBFD00BFFEE7E0693A
:1045E0002844316D896B884203D9306D806BE16955
:1045F000451AE1692B464246306D06F0D3F807466E
:10460000AF4202D00020BDE8F081E0693844E061AB
:104610003846F8E7298D01087061727420213D2029
:1046200052545F4E554C4C00282573292068617305
:1046300020617373657274206661696C65642061C2
:10464000742025732E0A00002DE9F04104468846A7
:1046500015460027266A36B9104A11A114A00CF09D
:10466000B7FD00BFFEE7E0692844316D896B8842E1
:1046700003D9306D806BE169451AE1692B464246EA
:10468000306D06F053F90746AF4202D00020BDE876
:10469000F081E0693844E0613846F8E7388D010878
:1046A0007061727420213D2052545F4E554C4C0075
:1046B00028257329206861732061737365727420E3
:1046C0006661696C65642061742025732E0A0000A0
:1046D00070B505464DB902F0ABF9204920A00CF0A9
:1046E00077FD02F0C7FC002070BD2846FBF74DFEA9
:1046F000B0F5807F06D96FF01A000EF063FB4FF023
:10470000FF30F1E72946002002F060FB044634B98F
:104710006FF01A000EF056FB4FF0FF30E4E702F0A6
:1047200087F9204609F0F8FE06463EB920460BF010
:104730004BFE02F09FFC4FF0FF30D5E7304600F013
:1047400096F84FF4807221460448FBF712FE20468B
:104750000BF03AFE02F08EFC0020C5E7800200203C
:1047600025730A0070B504460D460020E070401E17
:10477000A0632946204609F055FB08B1042070BD0E
:1047800004F23A2008F071F84AF65521884201D027
:104790000320F4E794F83C00E92807D094F83C00A3
:1047A000EB2817D13E20005D902813D104F1720050
:1047B00008F04FF820F07F400749884201D10020DF
:1047C000DDE704F18E0008F044F80449884201D185
:1047D0000020D4E70220D2E746415400464154333A
:1047E000024600E0521C107810B110788842F9D1CE
:1047F00010787047F0B503460D461E68986A021D92
:10480000B089B5FBF0F07789B0FBF7F400BF02CABE
:1048100009B90020F0BD8C4200D202E0641A121DDA
:10482000F5E700BF10682044F4E770B5064630464F
:1048300006F0B9FC054635B96FF00F000EF0C2FA6C
:104840004FF0FF3070BD284601F01EFE044628469A
:1048500006F07AFD002C05DA20460EF0B3FA4FF090
:10486000FF30EFE7284606F06FFD0020EAE770B55D
:104870000546286806F097FC064636B96FF00F002B
:104880000EF0A0FA4FF0FF3070BD304601F0FCFD95
:104890000446304606F058FD304606F055FD2846E1
:1048A0000BF092FD002C05DA20460EF08BFA4FF04B
:1048B000FF30E9E70020E7E70246891E106A801E04
:1048C000884201D8002070475389506B01FB0300D8
:1048D000F9E7000070B505460E46012D07D109A085
:1048E0000CF076FC0DA00CF073FC002070BD0124D0
:1048F00004E056F82400FFF7F3FD641CAC42F8DB3B
:104900000020F3E755736167653A20636174205BAB
:1049100046494C455D2E2E2E0A000000436F6E6303
:104920006174656E6174652046494C452873290A97
:104930000000000070B504460D46012C04D1084962
:1049400008A00CF045FC09E0022C07D16868FFF7CD
:10495000BFFE18B104A069680CF03AFC002070BDDD
:104960008002002025730A004E6F20737563682053
:104970006469726563746F72793A2025730A000066
:1049800070B505460C46032D06D006A00CF020FCA1
:104990000AA00CF01DFC03E0D4E9010100F064FA68
:1049A000002070BD55736167653A20637020534FD6
:1049B0005552434520444553540A0000436F7079D3
:1049C00020534F5552434520746F20444553542E75
:1049D0000A00000070B505460C46022D03D00BA05E
:1049E00000F0AAFD10E00AA16068FBF7D5FC20B139
:1049F00009A16068FBF7D0FC18B908A00CF0E8FB2F
:104A000002E0606800F098FD002070BD2F000000FB
:104A10002D2D68656C7000002D6800006466205BB9
:104A2000706174685D0A00002DE9F04105460C468E
:104A3000022D04D113A061680CF0CAFB1FE0032D06
:104A40001AD1002240F24241A06809F037FD064623
:104A5000002E0CDB6068FBF798FC07463A463046B0
:104A6000616812F073FE3046FFF7DFFE03E006A038
:104A7000A1680CF0ADFB02E009A00CF0A9FB00203E
:104A8000BDE8F08125730A006F70656E2066696C61
:104A9000653A2573206661696C6564210A0000002F
:104AA00055736167653A206563686F20227374727D
:104AB000696E6722205B66696C656E616D655D0A73
:104AC0000000000070B504460D4608F041FA0020D1
:104AD00070BD000070B504460D46012C03D104489A
:104AE00008F03AFF02E0686808F036FF002070BD69
:104AF0008002002070B504460D46012C06D106A0A8
:104B00000CF066FB0DA00CF063FB03E0002168686D
:104B100009F090F8002070BD55736167653A206D0B
:104B20006B646972205B4F5054494F4E5D2044497D
:104B3000524543544F52590A0000000043726561C8
:104B4000746520746865204449524543544F525956
:104B50002C206966207468657920646F206E6F74FC
:104B600020616C72656164792065786973742E0ABE
:104B7000000000002DE9F04105460C46002612A772
:104B8000022D05D13846616801F06CFF064613E03E
:104B9000042D0BD10DA16068FBF7FEFB60B9A7687F
:104BA0003846E16801F05EFF064605E008A00CF01B
:104BB0000FFB0020BDE8F0811EB131460CA00CF0C7
:104BC00007FB0020F6E70000656C6D002D74000007
:104BD00055736167653A206D6B6673205B2D742099
:104BE000747970655D206465766963650A0000000C
:104BF0006D6B6673206661696C65642C20726573E9
:104C0000756C743D25640A002DE9F84380460C4616
:104C1000B8F1030F06D02DA00CF0DAFA31A00CF099
:104C2000D7FA50E000253DA0D4E901120CF0D0FAEB
:104C300000224FF48031A06809F040FC0746002FA5
:104C400026DB3846FFF7F1FD4FF480700CF068FB6F
:104C5000054635B934A00CF0BBFA6FF00400BDE88E
:104C6000F88360680EF0A9FD6168461804E03078AA
:104C70002F2800D103E0761E6068B042F7D100BF54
:104C800000962DA2FF212846A3680EF06FFB0EE0D0
:104C900000221146A06809F011FC0746002F05DB31
:104CA0003846FFF7C2FDA06812F05AFCA5682946F5
:104CB00060680AF044FB2DB1A068A84202D02846E3
:104CC0000BF082FB00BF0020C9E70000557361674D
:104CD000653A206D7620534F555243452044455345
:104CE000540A000052656E616D6520534F55524362
:104CF0004520746F20444553542C206F72206D6FF3
:104D0000766520534F5552434528732920746F20F0
:104D10004449524543544F52592E0A002573203DB1
:104D20003E2025730A0000006F7574206F66206DA9
:104D3000656D6F72790A000025732F2573000000DE
:104D400070B504460D4608F04DFC002070BD000013
:104D500070B504460D46034903A00CF039FA002053
:104D600070BD00008002002025730A0070B5054662
:104D70000E46012D07D109A00CF02AFA0CA00CF068
:104D800027FA002070BD012404E056F8240012F038
:104D9000E7FB641CAC42F8DB0020F3E75573616766
:104DA000653A20726D2046494C452E2E2E0A000091
:104DB00052656D6F76652028756E6C696E6B292063
:104DC0007468652046494C452873292E0A00000066
:104DD0002DE9F04780460C4604F11A0007F045FD26
:104DE00010B10020BDE8F087207800F03F00401EA1
:104DF00000EB800101EBC0054FF00109002621E026
:104E00001849895D081907F030FD0746B9F1000F10
:104E100011D0FF2D0BD2384606F02CFB82462946D6
:104E20006D1C38F8110006F025FB824501D00020EA
:104E3000D8E7B94605E04FF6FF70874201D0002061
:104E4000D0E7761C0D2EDBD3207800F0400038B17F
:104E5000B9F1000F04D038F8150008B10020C1E7FF
:104E60000120BFE7A09001082DE9F04190B006466F
:104E70000F4600246946304601F032FC002806DA6D
:104E800031463FA00CF0A4F910B0BDE8F081BDF8A8
:104E9000060000F47040B0F5804F02D144F00104E8
:104EA00001E044F002046946384601F019FC00288C
:104EB00000DA0BE0BDF8060000F47040B0F5804F5A
:104EC00002D144F0040401E044F0080404F00100BD
:104ED00030B104F0080018B12FA00CF079F9D3E735
:104EE00004F00200E8B104F00400A8B13046FEF777
:104EF0004FFB80464146384601F068FF05461DB924
:104F000030A00CF065F9BFE72946304600F0FEF806
:104F100028460BF059FA31E03946304600F0F6F8F1
:104F20002CE004F00400C8B13046FEF731FB8046A7
:104F30004146384601F04AFF05461DB921A00CF054
:104F400047F9A1E70021284608F074FE29463046BB
:104F500000F040F828460BF037FA0FE004F00C00A0
:104F600040B90021384608F065FE3946304600F069
:104F700031F803E03946304600F02CF800BF83E7F3
:104F8000636F7079206661696C65642C206261646E
:104F90002025730A000000006370206661696C645C
:104FA0002C2063702064697220746F2066696C65C0
:104FB000206973206E6F74207065726D69747465FA
:104FC00064210A006F7574206F66206D656D6F72C5
:104FD000790A00002DE9F041DAB005460E464FF49B
:104FE00080322946684601F099FA002806DA2946F7
:104FF00036A00CF0EDF85AB0BDE8F08100BF4FF4D8
:10500000827119A8FBF78CF94FF4827219A96846CE
:1050100001F054FA0446002C4EDD4FF00008002742
:105020002EA11AA8FBF7B8F920B12DA11AA8FBF7F9
:10503000B3F900B941E01AA9284601F0C7FEB0F162
:10504000000803D127A00CF0C3F838E01AA93046B5
:1050500001F0BCFE071E06D122A00CF0B9F84046B4
:105060000BF0B2F92BE0402109A8FBF759F909A987
:10507000404601F035FB20B11AA91EA00CF0A8F89B
:105080001BE0BDF82A0000F47040B0F5804F08D155
:105090000021384608F0CEFD39464046FFF79AFF1A
:1050A00003E03946404600F031F840460BF08CF9F9
:1050B00038460BF089F900BF00BF002C9FDC00BF11
:1050C000684601F0E1F900BF95E700006F70656E7A
:1050D000202573206661696C65640A002E2E00002D
:1050E0002E0000006F7574206F66206D656D6F7205
:1050F00079210A006F70656E2066696C653A20251B
:1051000073206661696C65640A0000002DE9F04156
:105110008AB0064688464FF480500CF001F90546E7
:105120002DB926A00CF054F80AB0BDE8F081002299
:10513000314601A801F0F2F9002807DA28460BF001
:1051400043F9314621A00CF043F8EDE741224146F6
:10515000224801F0E3F900280ADA28460BF034F976
:1051600001A801F091F941461DA00CF031F8DBE7F0
:1051700000BF4FF48052294601A801F03DFA0446D1
:10518000002C0DDD22462946144801F0A7FB0746F6
:10519000A74204D0394617A00CF01AF802E000BF6D
:1051A000002CE6DC00BF01A801F06EF90B4801F00D
:1051B0006BF928460BF008F900BFB5E76F7574204E
:1051C0006F66206D656D6F72790A000052656164CB
:1051D000202573206661696C65640A00640D0020F7
:1051E0005772697465202573206661696C65640A6D
:1051F0000000000057726974652066696C65206460
:10520000617461206661696C65642C206572726EE0
:105210006F3D25640A0000002DE9F047824689466B
:10522000DAF80040B9F1000F06D1A76917B1206A7A
:10523000B84215D8012713E04946504606F02AFF28
:105240000646022E02D20120BDE8F087701C08B984
:105250003046F9E7206AB04201D93046F4E74F46BC
:105260003D4600BF6D1C206AA84204D80225BD42FD
:1052700001D90020E8E72946504606F00BFF064614
:1052800006B909E0012E01D0701C08B93046DBE7F1
:10529000BD42E7D10020D7E700BF00BF4FF0FF328B
:1052A0002946204609F0BCFB8046B8F1000F08D122
:1052B000B9F1000F05D02A464946204609F0B0FB57
:1052C0008046B8F1000F0DD1A561D4E90710801E0A
:1052D000814202D2E069401EE061207940F0010085
:1052E000207107E0B8F1010F02D14FF0FF3000E06C
:1052F000012005462846A7E72DE9F34F83B08146F4
:10530000049800680190D9F80000D0F810A000209F
:105310000546064600BF3046761C01990C5C202CE1
:1053200000DA2BE02F2C01D05C2C0AD100E0761C97
:105330000198805D2F28FAD00198805D5C28F6D016
:105340001CE0FF2D03D3062005B0BDE8F08FE4B2CA
:105350000121204606F02AF804460CB90620F3E79E
:10536000802C06DA21466AA0FFF73AFA08B1062037
:10537000EAE728466D1C2AF81040CCE700BF0198E8
:10538000811904980160202C01DA042000E000203B
:10539000074608E0681E3AF81040202C02D02E2C58
:1053A00000D002E06D1E002DF4D100BF00202AF8CD
:1053B00015000DB90620C7E70B22202109F12000B6
:1053C00008F02EFC002600E0761C3AF81600202893
:1053D000FAD03AF816002E28F6D00EB147F003079F
:1053E00000E06D1E25B1681E3AF810002E28F8D195
:1053F0004FF00008CDF808804FF0080B00BF304692
:10540000761C3AF8104004B954E0202C03D02E2C1E
:1054100004D1AE4202D047F00307F0E702985845A6
:1054200001D2AE4216D1BBF10B0F02D147F00307F8
:1054300040E0AE4201D047F00307AE4200D939E068
:105440002E46082002904FF00B0B4FEA88604FEA7F
:105450001068D4E7802C0BDB0021204605F0A6FF66
:1054600004461CB1A4F180002C490C5C47F00207F3
:1054700000BF24B121462AA0FFF7B2F918B15F247A
:1054800047F003070FE0412C04DB5A2C02DC48F004
:10549000020808E0612C06DB7A2C04DC48F00108E5
:1054A000A4F1200084B20298411C029109F120016C
:1054B0000C54A4E700BF99F82000E52802D105208C
:1054C00089F82000BBF1080F03D14FEA88604FEA4A
:1054D000106808F00C000C2803D008F00300032823
:1054E00001D147F0020707F0020058B908F00300A5
:1054F000012801D147F0100708F00C00042801D161
:1055000047F008072B2000F8097000201CE7000076
:10551000222A3A3C3E3F7C7F000000002090010898
:105520002B2C3B3D5B5D000010B5024801F00AFDED
:10553000002010BDAC8E01082DE9F04F89B08246E5
:105540004FF0000BD946314A07CA03AB07C3BAF183
:10555000000F01D0514600E00021084606A901F0E5
:1055600059FD06463EB12AA00BF032FE4FF0FF3047
:1055700009B0BDE8F08F08990698A0FB01700146BC
:105580004FF4806200233846FAF770FE04460D4659
:105590004FF0000927E04FF48061611A75F10000B7
:1055A00000DA23E04FF48062002320462946FAF710
:1055B0005DFE0A210020A2FB017E03FB01E102FB4C
:1055C00000114FF4806203463846FAF74FFE8346D7
:1055D0004FF48062002320462946FAF747FE04462E
:1055E0000D4609F10109B9F1020FD4DB00BF06999C
:1055F0000898CDE9000103A850F829305A46214601
:1056000008A00BF0E5FD0020B2E700007C8E010849
:105610006466735F737461746673206661696C6538
:10562000642E0A006469736B20667265653A2025F2
:10563000642E2564202573205B20256420626C6F16
:10564000636B2C2025642062797465732070657209
:1056500020626C6F636B205D0A0000002DE9F04151
:10566000044624B95C22134913A009F023FF608883
:1056700002280CD1276A27B963220E4912A009F02B
:1056800019FF38460AF0A0FE0020BDE8F081266A26
:1056900026B96C22074912A009F00CFF30460AF027
:1056A0008BFA054615B900202062EEE76FF00B007B
:1056B000EBE700000F8F010866696C6520213D2033
:1056C00052545F4E554C4C00726F6F745F64697238
:1056D000656E7420213D2052545F4E554C4C0000A5
:1056E0006465765F696420213D2052545F4E554CBD
:1056F0004C0000002DE9F047804689461746D8F84F
:1057000020502DB940F2091219491AA009F0D2FE11
:105710004FF48270B7FBF0F71FB96FF01C00BDE8C3
:10572000F087002415E0A9882144286850F821A0BA
:1057300004EB841009EB80060120307008207070A3
:105740004FF48270708008225146301D0EF052F8DE
:10575000641CBC4204D2A8882044E9888842E2D371
:10576000A8882044A88004EB84108000D7E70000BC
:10577000368F0108726F6F745F646972656E742092
:10578000213D2052545F4E554C4C00002DE9F04114
:1057900004460F46904624B925220B490BA009F078
:1057A00089FE266A26B9292207490CA009F082FE43
:1057B0004246394630460AF055FA054615B90020EA
:1057C000BDE8F0812846FBE7D48E010866696C6568
:1057D00020213D2052545F4E554C4C006465765F4D
:1057E000696420213D2052545F4E554C4C0000000E
:1057F00003460020704700002DE9F05F0446606812
:1058000000782F2848D160684078002844D160692A
:1058100000F4803000283FD04FF000090AF0A2FDCC
:1058200009200CF067FB8246BAF1000F04D18E22EA
:105830002F4930A009F03EFEDAF8048003E009F1B8
:105840000109D8F800800AF104008045F7D1082149
:1058500001EB89000BF064FD0546BDB105F10800C0
:1058600028600020A880A5F806908146DAF8048018
:1058700008E0A8F10C0B286840F829B009F10109EB
:10588000D8F800800AF104008045F2D10AF07AFDD0
:1058900025620020BDE8F09F6168481C0AF02CFAE0
:1058A000074617B96FF01900F4E7F86B78B1F86B99
:1058B0002061276220690068A0B120690168204644
:1058C000884706460EB1B01D60B90020E2E703210B
:1058D00038460AF04FFA06460EB1B01D10B92762DD
:1058E0000020D7E7002020626FF00B00D2E7000015
:1058F000238F0108696E666F726D6174696F6E2027
:10590000213D2052545F4E554C4C00000246002071
:10591000704700002DE9F04104460F46904624B937
:1059200038220C490CA009F0C5FD266A26B93C2294
:1059300008490DA009F0BEFD43463A463046E169EC
:105940000AF0E0FA0546E0692844E0612846BDE82F
:10595000F0810000E88E010866696C6520213D2019
:1059600052545F4E554C4C006465765F696420214B
:105970003D2052545F4E554C4C0000002DE9F04143
:1059800007460E46144630782F2814D1707890B907
:105990000020206048F2B610E080E08820F400404B
:1059A000E080E08844F249010843E0800020606123
:1059B0002062BDE8F081701C0AF09EF905461DB317
:1059C000002020604FF4DB70E080287D20B9E08863
:1059D00040F40050E08013E0287D012804D1E088E5
:1059E00040F4C040E0800BE0287D0F2804D1E0881F
:1059F00040F48050E08003E0E08840F40040E08024
:105A0000002060612062D4E700BF6FF00800D0E79B
:105A10002DE9F04104460F46904624B94A220C492C
:105A20000CA009F047FD266A26B94E2208490DA0B0
:105A300009F040FD43463A463046E1690AF090FBE2
:105A40000546E0692844E0612846BDE8F081000091
:105A5000FB8E010866696C6520213D2052545F4E23
:105A6000554C4C006465765F696420213D2052549A
:105A70005F4E554C4C00000070B504460025608810
:105A800002280BD1266A2EB940F2C9120F4910A084
:105A900009F010FD30460AF097FC12E0608880B9EA
:105AA000266A2EB94FF4E97208490DA009F002FDEB
:105AB000304601F013FF054615B930460AF084FC64
:105AC00000BF284601F090FE70BD0000BB8F0108AA
:105AD00064697220213D2052545F4E554C4C0000A9
