:020000040800F2
:10000000902D0020D5010008DD010008D90200086C
:10001000E1010008E3010008E5010008000000001C
:10002000000000000000000000000000E7010008E0
:10003000E901000800000000270200080D43000845
:10004000EF010008EF010008EF010008EF010008D0
:10005000EF010008EF010008D3080008210900089B
:10006000330900084509000857090008EF01000896
:10007000EF010008EF010008EF010008EF010008A0
:10008000EF010008EF010008EF010008EF01000890
:10009000EF010008EF010008EF01000869090008FE
:1000A000EF010008EF010008EF010008EF01000870
:1000B000EF010008EF010008EF010008EF01000860
:1000C000EF010008EF010008EF010008EF01000850
:1000D000EF010008E54A0008EF010008EF01000801
:1000E000E5080008EF010008EF010008EF01000833
:1000F000EF010008EF010008EF010008EF01000820
:10010000EF010008693C0008EF010008EF0100085A
:10011000EF010008EF010008EF010008EF010008FF
:10012000EF010008EF0100083D070008550700082F
:100130006D070008EF010008EF010008EF0100085B
:10014000EF010008EF010008EF010008EF010008CF
:10015000EF010008EF010008EF010008EF010008BF
:10016000EF010008EF010008EF010008EF010008AF
:10017000EF010008EF010008EF0100080000000097
:10018000EF010008EF010008EF010008EF0100088F
:10019000EF010008513F0008EF010008EF010008DF
:1001A000EF010008EF010008EF010008DFF810D0B0
:1001B00000F074FA0048004733070008AFF30080EE
:1001C000902D0020002804D090FAA0F0B0FA80F022
:1001D000401C70470648804706480047FEE7FEE798
:1001E000FEE7FEE7FEE7FEE7FEE7FEE7FEE7FEE7E7
:1001F00031440008AD010008EFF3108072B670477B
:1002000080F310887047424A1368012B04D04FF0E6
:10021000010313603F4A10603F4A11603F484FF0AE
:10022000805101607047EFF3108272B63848016860
:1002300051B34FF0000101603648016891B1EFF30E
:1002400009811EF0100F08BF21ED108B21E9F00F7E
:100250004FF000041EF0100F08BF012441F8044DB8
:10026000006801602C490968096808C9B1E8F00F05
:10027000002B18BFB1EC108B81F309884EF0100EE3
:10028000002B18BF2EF0100E82F310884EF0040ED3
:10029000704721490860EFF3148222F0040282F3D0
:1002A00014881C494FF00000086019494FF0010004
:1002B00008601B481B49D0F8002041EA0201016098
:1002C00016484FF08051016017480068006880F3BD
:1002D000088861B662B670471EF0040F0CBFEFF3DA
:1002E0000880EFF3098020E9F00F40F804ED40F8B2
:1002F00004ED1EF0040F0CBF80F3088880F309881A
:1003000000B514F06BFE5DF804EB4EF0040E704780
:10031000140000200C0000201000002004ED00E07C
:1003200020ED00E00000FFFF08ED00E02DE9F05FA8
:100330000546002092469B46884606468146402454
:100340001BE0284641464746224600F042F9534604
:100350005A46C01A914110D311461846224600F061
:1003600029F92D1A67EB01084F462246012000218A
:1003700000F020F917EB00094E41201EA4F1010402
:10038000DFDC484631462A464346BDE8F09F2DE96A
:10039000F0410024061B254671F1000605DA012410
:1003A0000027D0EB070067EB0101161E73F1000672
:1003B00005DA0027D2EB0702012567EB0303FFF7FD
:1003C000B5FF86460E4617469C46AC4204D0002533
:1003D000D0EB050E65EB010624B10020D2EB00073F
:1003E00060EB030C704631463A466346BDE8F08147
:1003F00040EA01039B0703D009E008C9121F08C0A7
:10040000042AFAD203E011F8013B00F8013B521E26
:10041000F9D27047D2B201E000F8012B491EFBD29D
:1004200070470022F6E710B513460A4604461946FF
:10043000FFF7F0FF204610BD421E12F8013F002BCF
:10044000FBD111F8013B02F8013B002BF9D17047B9
:1004500030B505462A460B4612F8010B13F8014B3E
:1004600008B1A042F8D01CB1002802D06D1CF1E701
:10047000284630BD10B5044604E00B7800F8013B77
:1004800003B1491C521EF8D2204610BDCAB2401E0C
:1004900010F8011F8A4202D00029F9D100207047CC
:1004A000421C10F8011B0029FBD1801A704710B5BF
:1004B000002200E0521C835C8C5CA34201D1002B23
:1004C000F8D1D8B2E1B2401A10BD30B504460020D0
:1004D000034600E05B1C934203D2E05CCD5C401B12
:1004E000F8D030BD034611F8012B00F8012B002A8B
:1004F000F9D11846704730B505460020034600E0A4
:100500005B1C934205D2EC5CC85C201A01D1002C24
:10051000F6D130BD0022CBB20178994200D102461B
:10052000401C0029F8D1104670472DE9F04791464C
:100530000F4680460446002614F8015B2DB100F0FA
:1005400059F80068405DC007F6D12B2D02D02D2D43
:1005500018D0641E4A463946204600F04FF827B1AD
:100560003968A14201D1C7F8008071054FF002043B
:100570000BD54042002803DD04F00EFB0460A00709
:10058000BDE8F08746F48066E4E70028F8DA04F076
:1005900003FB04606FF00040F2E770B5064604F01C
:1005A000FBFA046805460A2200213046FFF7BDFF2A
:1005B0002C6070BD202A04DB203A00FA02F10020F2
:1005C00070479140C2F1200320FA03F31943904091
:1005D0007047202A04DB203A21FA02F000217047FC
:1005E00021FA02F3D040C2F120029140084319469B
:1005F00070470000004870477C0B02082DE9F05F4F
:1006000082460078002715468B460AF10104B94658
:10061000302801D09DB113E014F8010B0127782890
:1006200003D0582801D045B10AE00DB1102D07D1F3
:100630000027102514F8010B02E0082500E00A2528
:100640000026B0460EE005FB080005FB06F1012779
:1006500001EB10461FFA80F8B6F5803F00D3B9468B
:1006600014F8010B294600F02BF80028EBDABBF157
:10067000000F05D00FB1641E00E05446CBF80040D7
:10068000B9F1000F06D004F087FA02210160C81EFC
:10069000BDE8F09F48EA0640FAE70000064C074D27
:1006A00006E0E06840F0010394E807009847103442
:1006B000AC42F6D3FFF77EFD88220208A82202088A
:1006C0003A2800D2303820F02002412A01D3A2F18A
:1006D0003700884201D34FF0FF30704770B58C1857
:1006E00010F8015B15F0070301D110F8013B2A1146
:1006F00006D110F8012B03E010F8016B01F8016B33
:100700005B1EF9D12B0705D40023521E0DD401F82E
:10071000013BFAE710F8013BCB1A921C03E013F8F7
:10072000015B01F8015B521EF9D5A142D8D300202C
:1007300070BD10B51AF00AFD002010BD10B515F0FF
:10074000A5FA034800F040FD15F0CAFA10BD0000FC
:10075000B404002010B515F099FA034800F034FDF8
:1007600015F0BEFA10BD0000DC06002010B515F033
:100770008DFA034800F028FD15F0B2FA10BD000014
:100780003C0700200146087810381823B0FBF3F22C
:100790000848805CC865032A05D908686FF309001A
:1007A000001D886503E008686FF309008865886D9F
:1007B000704700003CF10108014600208A6A8B69FD
:1007C000CBB932B1012A0DD0022A03D0032A10D1AD
:1007D0000EE000BFCB6A03F08073B3F1807F00D1DD
:1007E000012007E0CB6AB3F1C07F00D1012001E016
:1007F00000E000BF34E08B69B3F5005F1AD132B17D
:10080000012A07D0022A03D0032A11D10AE000BF2F
:1008100001200EE0CB6A03F08073B3F1807F00D13A
:10082000012006E0CB6AB3F1C07F00D1012000E0D7
:1008300000BF15E032B1012A05D0022A04D0032AF4
:100840000CD103E000BF00BF012008E0CB6A03F039
:100850008073B3F1807F00D1012000E000BF00BFB2
:1008600070472DE9F04106460F4614462546E0172D
:1008700004EB907082103946304603F0D7FA00201E
:10088000BDE8F08130B50468246824F4802405684C
:100890002C60046863608468402C04D10468A26002
:1008A0000468E16003E00468A1600468E26030BDB0
:1008B0002DE9F04106460F4614462546E01704EBA5
:1008C000907082103946304603F0F4FA0020BDE8FB
:1008D000F08110B515F0DAF9012001F0A7F815F054
:1008E000FFF910BD10B515F0D1F94FF4806001F09B
:1008F0009DF84FF4006001F099F84FF4805001F03A
:1009000095F84FF4005001F091F84FF4804001F059
:100910008DF84FF4004001F089F815F0E1F910BDB1
:1009200010B515F0B3F9022001F080F815F0D8F9F0
:1009300010BD10B515F0AAF9042001F077F815F0F4
:10094000CFF910BD10B515F0A1F9082001F06EF82F
:1009500015F0C6F910BD10B515F098F9102001F08A
:1009600065F815F0BDF910BD10B515F08FF9202010
:1009700001F05CF8402001F059F8802001F056F8B1
:100980004FF4807001F052F84FF4007001F04EF80F
:1009900015F0A6F910BD000010B5002201B909E05C
:1009A000012901D10A0205E0022901D10A0201E070
:1009B0004FF440720B2800D9001D0E4B1B6823F426
:1009C00040730C4C236023461B681343236023466B
:1009D0001B6823F0F803236023461B68022444EAC3
:1009E000C0042343034C236023461B6843F4803335
:1009F000236010BD103C02401C48006800F40070E9
:100A0000B0B11A48006820F400701849086000BFAF
:100A10000846006840F4006008600846006820F45A
:100A20000060086000BF0846006840F4007008607D
:100A30000E48006800F48060B0B10C48006820F4F3
:100A400080600A49086000BF0846006840F4805092
:100A500008600846006820F48050086000BF08461F
:100A6000006840F48060086070470000003C02406D
:100A7000134A126822F44072114B1A60032906D1FE
:100A80001A461268DB131A430D4B1A600EE0012957
:100A900006D10B4A126842F00402094B1A6005E0C5
:100AA000074A126842F40042054B1A60044A126871
:100AB0004FF4803343EA00231A43014B1A60704716
:100AC000103C0240074A126822F44072054B1A603B
:100AD0001A4612681A601A46126842F001021A6039
:100AE00001707047103C024010B50D49096821F4AF
:100AF00040710B4C21602146096841F4407121602E
:100B00002146096841F001012160026000BF00BF79
:100B100000BFBFF36F8F00BF00BF00BF436010BDB9
:100B2000103C0240084A126822F44072064B1A60D8
:100B30001A46126842F480721A601A46126842F02D
:100B400001021A6001807047103C0240084A126896
:100B500022F44072064B1A601A46126842F4007280
:100B60001A601A46126842F001021A60016070476A
:100B7000103C02402A48006800F0100040B12948AB
:100B8000C06940F010002749C8611020244908605E
:100B90002348006800F0200040B12248C06940F0BE
:100BA00008002049C86120201D4908601C480068D1
:100BB00000F0400040B11B48C06940F004001949F2
:100BC000C8614020164908601548006800F08000A0
:100BD00040B11448C06940F002001249C861802049
:100BE0000F4908600E48006800F4807048B10D4855
:100BF000C06940F001000B49C8614FF4807008499A
:100C000008600748006800F0020040B10548C0696C
:100C100040F020000349C861022001490860704784
:100C20000C3C02404C04002070B504460025002016
:100C30001449C86101F01EF8054609E0601C38B18E
:100C400024B101F017F8401BA04201D9032070BD68
:100C50000D48006800F480300028EFD10A48006891
:100C600000F0010010B10120074908600648006843
:100C700000F4F97018B1FFF77DFF0120E7E70020CD
:100C8000E5E700004C0400200C3C024002460868E6
:100C9000B0B9D1E901031843CB6818430B69184375
:100CA0004B6918438B691843CB6918430B6A184387
:100CB0004B6A184313686FF30E031843106019E072
:100CC000D1E9070318434B6A1843136823F4F84328
:100CD00018431060D1E901031843CB6818430B692E
:100CE00018434B6918438B69184353686FF30E031D
:100CF00018435060002070470246506943F6FE7367
:100D0000984340EA41005061002070472DE9F041CE
:100D100005460C4616460027D4E900010843A168A1
:100D2000491E40EA4110E16840EA412029696FF319
:100D300015010843286100F09DFF07460AE0701C7A
:100D400040B126B100F096FFC01BB04202D903208B
:100D5000BDE8F081A86900F020002028EFD0002035
:100D6000F6E7000030B50346FAB90868401E4C6843
:100D7000641E40EA04148868401E44EA0024C868DF
:100D8000401E44EA0034088A401E44EA0044888A2F
:100D9000401E44EA0054087E401E44EA00609C68FD
:100DA00004F070442043986022E0C868401E0403A9
:100DB000888A401E44EA00509C680E4D2C40204317
:100DC00098600868401E4C68641E40EA04148868F5
:100DD000401E44EA0024088A401E44EA0044087E7B
:100DE000401E44EA0060DC6804F070442043D86090
:100DF000002030BDFF0F0FFF2DE9F04303460C46E6
:100E00001546202D02DA0120A84000E00020A0F1C4
:100E1000010C0320A0EB541604F01F0153F8260028
:100E200020FA01F76818202811DDC1F120004FEAEF
:100E3000E07800EBD8684FEA6818A0EB4819A6F1F3
:100E4000010853F8288008FA09F848EA070707EA72
:100E50000C00BDE8F0832DE9F04303460C4615462F
:100E6000202D02DA0120A84000E00020A0F1010CB2
:100E70000320A0EB541604F01F0153F8260020FABB
:100E800001F76818202811DDC1F120004FEAE07851
:100E900000EBD8684FEA6818A0EB4819A6F10108E2
:100EA00053F8288008FA09F848EA070707EA0C000F
:100EB000BDE8F083014600205C4A914203D2B1F1C3
:100EC000006F00D3B0E05A4A914204D2574A91428F
:100ED00001D30120A8E0574A914204D2544A9142DA
:100EE00001D30220A0E0544A914204D2514A9142D7
:100EF00001D3032098E0514A914204D24E4A9142D4
:100F000001D3042090E04E4A914204D24B4A9142D0
:100F100001D3052088E04B4A914204D2484A9142CD
:100F200001D3062080E0484A914204D2454A9142CA
:100F300001D3072078E0454A914204D2424A9142C7
:100F400001D3082070E0424A914204D23F4A9142C4
:100F500001D3092068E03F4A914204D23C4A9142C1
:100F600001D30A2060E0B1F1016F04D2394A914205
:100F700001D30B2058E0384A914204D2B1F1016FFD
:100F800001D30C2050E0354A914204D2324A9142BA
:100F900001D30D2048E0324A914204D22F4A9142B7
:100FA00001D30E2040E02F4A914204D22C4A9142B4
:100FB00001D30F2038E02C4A914204D2294A9142B1
:100FC00001D3102030E0294A914204D2264A9142AE
:100FD00001D3112028E0264A914204D2234A9142AB
:100FE00001D3122020E0234A914204D2204A9142A8
:100FF00001D3132018E0204A914204D21D4A9142A5
:1010000001D3142010E01D4A914204D21A4A9142A1
:1010100001D3152008E01A4A914204D2174A91429E
:1010200001D3162000E017207047000000400008A0
:101030000080000800C0000800000108000002084D
:1010400000000408000006080000080800000A0864
:1010500000000C0800000E08004010080080100876
:1010600000C0100800001108000012080000140859
:10107000000016080000180800001A0800001C08EC
:1010800000001E0870B50446A56D00F0F3FD06468D
:1010900094F83500022808D08020606500BF002049
:1010A00084F8340000BF012070BD2068006820F083
:1010B0001600216808602068406920F080002168DF
:1010C0004861206C08B9A06C28B12068006820F045
:1010D0000800216808602068006820F0010021688D
:1010E000086010E000F0C6FD801B05280BD9202009
:1010F0006065032084F8350000BF002084F83400C8
:1011000000BF0320D0E72068006800F0010000283D
:10111000E8D194F85C103F208840A860012084F852
:10112000350000BF002084F8340000BF00BFBBE7DB
:10113000014691F83500022803D08020486501203F
:101140007047052081F835000868006820F001002C
:101150000A6810600020F3E770B504460CB901205E
:1011600070BD94F83500022800D1F9E720680068C6
:1011700020F00100216808600020216808602168D3
:101180004860216888602168C86021680861212062
:10119000216848612046FFF7F5FA05460020E06324
:1011A00020646064A064E064206594F85C103F20D3
:1011B0008840A8600020606584F8350000BF84F88E
:1011C000340000BF00BFCBE7F8B504460020009014
:1011D0008C4800684FF41651B0FBF1F7A56D2E68EE
:1011E00094F85C1008208840304098B1206800686E
:1011F00000F0040070B12068006820F0040021684D
:10120000086094F85C1008208840A860606D40F089
:101210000100606594F85C1001208840304068B19E
:101220002068406900F0800040B194F85C10012013
:101230008840A860606D40F00200606594F85C1022
:1012400004208840304068B12068006800F0020047
:1012500040B194F85C1004208840A860606D40F0B4
:101260000400606594F85C1010208840304078B32A
:101270002068006800F0080050B394F85C1010205B
:101280008840A8602068006800F4802080B1206851
:10129000006800F4002028B9206CC8B12046216CF9
:1012A000884715E0A06C98B12046A16C88470FE0F4
:1012B0002068006800F4807028B92068006820F079
:1012C000080021680860206C10B12046216C884716
:1012D00094F85C10202088403040002865D02068B9
:1012E000006800F0100000285FD094F85C10202007
:1012F0008840A86094F83500052828D12068006847
:1013000020F01600216808602068406920F0800005
:1013100021684861206C08B9A06C28B12068006879
:1013200020F008002168086094F85C103F20884095
:10133000A860012084F8350000BF002084F8340044
:1013400000BF206D10B12046216D8847F8BD206890
:10135000006800F4802080B12068006800F400205C
:1013600028B9606C10B12046616C88471DE0E06BC5
:10137000D8B12046E16B884717E02068006800F488
:10138000807068B92068006820F01000216808604B
:10139000012084F8350000BF002084F8340000BF2D
:1013A000E06B10B12046E16B8847606D38B3606D2B
:1013B00000F00100F0B1052084F8350020680068D5
:1013C00020F001002168086000BF0098401C0090D8
:1013D000B84200D905E02068006800F0010000284C
:1013E000F3D100BF012084F8350000BF002084F84D
:1013F000340000BFE06C10B12046E16C884700BFAC
:10140000A4E70000080000202DE9F0410446002573
:1014100000F030FC074614B90120BDE8F081606A95
:1014200000B100BF022084F8350000BF002084F81E
:10143000340000BF2068006820F0010021680860C7
:101440000AE000F017FCC01B052805D920206065C4
:10145000032084F83500E0E72068006800F0010010
:101460000028EED12068056821480540D4E9010133
:101470000843E16808432169084361690843A16999
:101480000843E1690843216A08430543606A042868
:1014900003D1D4E90B0108430543206805602068A7
:1014A000456925F00705606A0543606A04280DD187
:1014B000A06A0543E06A48B12046FFF77DF928B1EC
:1014C00040206065012084F83500A6E7206845616A
:1014D0002046FFF757F9064694F85C103F208840F5
:1014E000B06000206065012084F83500002094E79A
:1014F0003F8010F02DE9F04104460D4616461F4688
:101500004FF0000800BF94F83400012802D10220F7
:10151000BDE8F081012084F8340000BF94F8350064
:10152000012811D1022084F83500002060653B4677
:10153000324629462046FFF7A5F92068006840F0AA
:1015400001002168086006E000BF002084F8340034
:1015500000BF4FF002084046DAE72DE9F0470446A5
:101560000D4616461F464FF00008D4F8589000BFAD
:1015700094F83400012802D10220BDE8F087012050
:1015800084F8340000BF94F83500012825D10220EA
:1015900084F83500002060653B46324629462046E7
:1015A000FFF770F994F85C103F208840C9F80800F4
:1015B0002068006840F0160021680860206C28B19F
:1015C0002068006840F00800216808602068006812
:1015D00040F001002168086006E000BF002084F8A8
:1015E000340000BF4FF002084046C6E72DE9F04145
:1015F00004460E460127002500BF2648007E01282C
:1016000002D10220BDE8F08101202249087600BF06
:101610004CF25030FFF708FB0746002F32D1401E36
:1016200030602068012810D1207C6168FFF720FA23
:101630004CF25030FFF7F8FA07461748006848F2B6
:1016400004018843144908601AE0A56812E0217C6F
:101650002846FFF7A1F94CF25030FFF7E5FA0746AC
:101660000D48006820F0FA000B4908600FB13560A2
:1016700005E06D1CD4E902100844A842E7D800BF79
:10168000FFF7BAF900BF00200249087600BF3846CC
:10169000B8E700004C040020103C024003480068FA
:1016A00040F000400149086000207047103C0240B3
:1016B0002DE9F04106460F4614461D464FF001083D
:1016C00000BF1F48007E012802D10220BDE8F08142
:1016D00001201B49087600BF4CF25030FFF7A4FAF6
:1016E0008046B8F1000F23D126B9E1B23846FFF7A2
:1016F000E9F912E0012E04D1A1B23846FFF712FA3F
:101700000BE0022E04D121463846FFF71FFA04E011
:1017100022462B463846FFF7E7F94CF25030FFF7E8
:1017200083FA80460748006820F0010005490860F8
:1017300000BF00200249087600BF4046C6E700000F
:101740004C040020103C024000200949096801F0C7
:10175000004159B10749064A0C3A11600649116027
:101760000349096801F0004101B101207047000000
:10177000103C024023016745AB89EFCD00B587B02F
:10178000142102A8FEF74DFE3148006808B107B0E9
:1017900000BD01202E49086000BF002001902D48A7
:1017A000006840F001002B4908600846006800F01E
:1017B0000100019000BF00BF4FF63F0002900220E1
:1017C000039000200490032005900C20069002A9AD
:1017D000214800F039F90D200290022003900020EA
:1017E0000490032005900C20069002A91B4800F0ED
:1017F0002BF948F237100290022003900020049049
:10180000032005900C20069002A9154800F01CF951
:101810004FF6807002900220039000200490032075
:1018200005900C20069002A90E4800F00DF94CF22C
:101830000370029002200390002004900320059082
:101840000C20069002A9084800F0FEF800BF9EE7B1
:101850000000002038380240001402400008024016
:101860000018024000100240000C0240F0B50C4687
:1018700000250022002300219EE0012606FA01F542
:1018800004EA0502AA427CD14D4E8F0856F8273053
:101890008E07370F0F26BE4033404A4EB04201D16B
:1018A00000262DE0484EB04201D1012628E0474EE7
:1018B000B04201D1022623E0454EB04201D10326B9
:1018C0001EE0444EB04201D1042619E0424EB0421F
:1018D00001D1052614E0414EB04201D106260FE0A9
:1018E0003F4EB04201D107260AE03E4EB04201D140
:1018F000082605E03C4EB04201D1092600E00A2648
:101900008F073F0FBE409E4224D1384E3668964323
:10191000364F3E603E1D366896433F1D3E60334E57
:101920000C3636689643314F0C373E603E1F3668A2
:1019300096433F1F3E608E07370F0F2606FA07F3C8
:101940001F4E8F0856F827609E431D4F4FEA910C9B
:1019500047F82C6006684FEA410C032707FA0CF79A
:10196000BE430660CF0800F1200656F827604F07F7
:101970004FEAD76C0F2707FA0CF7BE434FEAD10C9A
:1019800000E018E000F1200747F82C60C6684FEA35
:10199000410C032707FA0CF7BE43C66047680126CF
:1019A0008E40B743476086684FEA410C032707FA29
:1019B0000CF7BE438660491C1029FFF45EAFF0BDF2
:1019C00008380140000002400004024000080240C4
:1019D000000C0240001002400014024000180240B7
:1019E000001C02400020024000240240003C014054
:1019F00070B50546284604F0BFF8044604EB4400E1
:101A0000094901EB8000406858B104EB44020B46E1
:101A100003EB8202906804EB440203EB82025168FC
:101A2000884700BF70BD00002C00002010B50446A0
:101A300004480068204020B1024804602046FFF7B7
:101A4000D7FF10BD143C0140F8B502460B460025F7
:101A5000002400200021E0E0012606FA01F51E68BE
:101A600006EA0504AC4274D11E7906F00306012E85
:101A700004D01E7906F00306022E13D190684F00A1
:101A80000326BE40B0434F00DE68BE403043906046
:101A9000506801268E40B0431E79C6F300168E4072
:101AA000304350601E7906F00306032E09D0D0683B
:101AB0004F000326BE40B0434F009E68BE403043F7
:101AC000D0601E7906F00306022E13D1CF0802F172
:101AD000200656F827004E07F70E0F26BE40B043EB
:101AE0004F07FF0E1E69BE403043CF0802F12006AB
:101AF00046F8270010684F000326BE40B0431E7909
:101B000006F003064F00BE40304310605E6806F4E6
:101B10004036002E1DD000BF00260096414E36688C
:101B200046F480463F4F3E603E46366806F48046A7
:101B3000009600BF00BF3C4E8F0856F827008E0766
:101B4000370F0F26BE40B043384EB24202D10026B6
:101B50002EE061E0364EB24201D1012628E0354E3A
:101B6000B24201D1022623E0334EB24201D1032614
:101B70001EE0324EB24201D1042619E0304EB2428C
:101B800001D1052614E02F4EB24201D106260FE006
:101B90002D4EB24201D107260AE02C4EB24201D1AD
:101BA000082605E02A4EB24201D1092600E00A26A5
:101BB0008F073F0FBE4030431B4E8F0846F827006B
:101BC000244E3068A0435E6806F4801606B12043B8
:101BD000204E3060361D3068A0435E6806F4001663
:101BE00006B120431B4E361D30601A4E361F30683A
:101BF000A0435E6806F4003606B12043154E361F3A
:101C00003060361F3068A0435E6806F4803606B147
:101C10002043104E083E3060491C1029FFF41CAFD1
:101C2000F8BD00004438024008380140000002407E
:101C30000004024000080240000C02400010024074
:101C40000014024000180240001C02400020024024
:101C500000240240083C0140024613690B400BB1CE
:101C6000012000E0002070470AB1816101E00B040F
:101C70008361704700B54FF0E020006900F48030C8
:101C800008B100F005F80148006800BD1C00002004
:101C9000034800680349096808440149086070471F
:101CA0001C0000202800002010B50D48006840F4FA
:101CB00000700B4908600846006840F480600860C6
:101CC0000846006840F480700860032000F0A4F823
:101CD000002000F007F800F00BF8002010BD000015
:101CE000003C024010B5044613F03CFF002010BD3C
:101CF00008B500BF002000900E48006840F4804006
:101D00000C4908600846006800F48040009000BF5D
:101D100000BF00BF00200090081F006840F0805006
:101D2000091F08600846006800F08050009000BF5E
:101D300000BF08BD4438024010B5014608460028DF
:101D400017DB00F01F0301229A400B4B440943F8B4
:101D5000242000BF00BF00BFBFF34F8F00BF00BFF4
:101D600000BF00BF00BF00BFBFF36F8F00BF00BF49
:101D700000BF00BF10BD000080E100E00146084642
:101D8000002809DB00F01F0301229A4043099B0051
:101D900003F1E023C3F8002100BF70472DE9F05F95
:101DA00080460D461646002702F0DAFE0746394601
:101DB0002A46334601F00700C0F1070ABAF1040FC2
:101DC00002D94FF0040A01E0C0F1070AD14600F140
:101DD000040ABAF1070F02D24FF0000A01E0A0F1A5
:101DE000030AD4464FF0010A0AFA09FAAAF1010AD5
:101DF0000AEA020A0AFA0CFA4FF0010B0BFA0CFB82
:101E0000ABF1010B0BEA030B4AEA0B0421464046F7
:101E100002F0AEFEBDE8F09F00BF00F00702064BE7
:101E200019684FF6FF031940044B0B4343EA0221A4
:101E3000014B196000BF70470CED00E00000FA058F
:101E400038B5002400BF002000901D48006840F015
:101E500080501B4908600846006800F080500090E0
:101E600000BF00BF012017490864FFF703FF0446C5
:101E700007E0FFF7FFFE001BB0F57A7F01D90320D2
:101E800038BD1148406800F48030B0F5803FF0D193
:101E900001200C494864FFF7EDFE044607E0FFF718
:101EA000E9FE001BB0F57A7F01D90320E8E7064878
:101EB000406800F40030B0F5003FF0D10020DFE7CB
:101EC0004038024000000E4200700040F8B5044661
:101ED00000250026207800F0010048B9207800F0A5
:101EE0000200022804D0207800F04000402862D18F
:101EF0000020B1498866FFF7BDFE054606E0FFF702
:101F0000B9FE401B022801D90320F8BDAB48006888
:101F1000C0F3C0600028F2D1207800F0010038B191
:101F200060688101207A41EA0070A4498431086028
:101F3000207800F00200022819D1A04884300068FF
:101F4000C0F3027660688101207B41EA006040EACC
:101F500006709A498431086098488C30006820F0F7
:101F60001F00E169491E084394498C3108602078BC
:101F700000F0400040280AD160688101207B41EADE
:101F80000061207A41EA00708C49843108600120A8
:101F900089498866FFF76EFE054606E0FFF76AFE90
:101FA000401B022801D90320AFE784480068C0F332
:101FB000C0600028F2D0207800F00400042804D08B
:101FC000207800F00800082863D100207A490867CB
:101FD000FFF750FE054606E0FFF74CFE401B0228C7
:101FE00001D9032091E775480068C0F340700028CC
:101FF000F2D1207800F00400042819D16F4888300D
:102000000068C0F3027620698101207D41EA00600A
:1020100040EA0670694988310860081D006820F4AC
:10202000F851206A401E41EA002064498C31086062
:10203000207800F00800082817D160488830006830
:10204000C0F303662069800140EA0661207E41EA10
:1020500000705A4988310860081D006820F440303B
:10206000616A084355498C3108600120524908676C
:10207000FFF700FE054606E0FFF7FCFD401B0228C7
:1020800001D9032041E74D480068C0F340700028A3
:10209000F2D0207800F0200020287DD100BF002061
:1020A000009046484030006840F08050434940313D
:1020B00008600846006800F08050009000BF00BF34
:1020C0003F48006840F480703D490860FFF7D2FD4A
:1020D000054606E0FFF7CEFD401B022801D903208C
:1020E00013E73748006800F480700028F2D03348C6
:1020F0007030006800F440764EB3208D00F44070DC
:10210000B04224D02D487030006820F44076012081
:102110002C4908600020086028487030066000687C
:1021200000F0010098B1FFF7A5FD054608E0FFF7B4
:10213000A1FD401B41F28831884201D90320E4E629
:102140001E4870300068C0F340000028EFD000BF88
:10215000208D00F44070B0F5407F0CD11748083056
:10216000006820F4F810184AA16A11400843134986
:102170000831086007E011480830006820F4F810C2
:102180000E49083108600D4870300068218DC1F398
:102190000B010843094900E002E07031086000BF0C
:1021A000207800F01000102803D194F82C00074983
:1021B00008600020A9E60000000047420038024005
:1021C00000700040400E4742FFFCFF0FE011474205
:1021D00070B504460D460CB9012070BD5848006822
:1021E00000F00F00A84209D255490D70084600685A
:1021F00000F00F00A84201D00120EEE7207800F0A7
:10220000020002281DD1207800F00400042805D126
:102210004C48006840F4E0504A490860207800F0DB
:102220000800082805D14748006840F46040454947
:1022300008604448006820F0F000A1680843414964
:102240000860207800F00100A8B36068012807D179
:102250003C4808380068C0F34040B8B90120BCE7EA
:102260006068022802D06068032807D13548083822
:102270000068C0F3406048B90120AEE73148083833
:102280000068C0F3400008B90120A6E72D480068A7
:1022900020F00300616808432A490860FFF7EAFC60
:1022A000064609E0FFF7E6FC801B41F288318842D0
:1022B00002D9032091E707E02248006800F00C00F3
:1022C0006168B0EB810FEDD11D48006800F00F0090
:1022D000A84209D91A490D700846006800F00F009D
:1022E000A84201D0012078E7207800F004000428FB
:1022F00007D11448006820F4E050E1680843114910
:102300000860207800F00800082808D10D4800680F
:1023100020F46040216940EAC1000A49086000F0E9
:102320003FF808490968C1F30311074A515CC840E6
:102330000649086006480068FFF7D4FC00204CE717
:10234000003C02400838024024F101080800002047
:1023500020000020014800687047000008000020AD
:1023600000B5FFF7F7FF04490968C1F38221034A6A
:10237000515CC84000BD00000838024034F101083B
:1023800000B5FFF7E7FF04490968C1F34231034A8A
:10239000515CC84000BD00000838024034F101081B
:1023A0002DE9F047002400250026A14625480068B5
:1023B00000F00C0020B1042805D008283AD105E02F
:1023C000DFF8849039E0DFF8849036E01D48001F84
:1023D000006800F03F041B48001F006800F4800004
:1023E00078B11A481749091F0968C1F38811A0FB81
:1023F00001700146224600233846FDF797FF054647
:102400000EE011480F49091F0968C1F38811A0FBAC
:1024100001700146224600233846FDF787FF054636
:102420000848001F0068C0F30140401C4600B5FB8F
:10243000F6F902E0DFF8109000BF00BF4846BDE8A3
:10244000F0870000083802400024F40040787D0145
:10245000F8B504460CB90120F8BD207800F0010061
:10246000002874D0F948006800F00C0004280DD052
:10247000F648006800F00C00082813D1F348001F4C
:10248000006800F48000B0F5800F0BD1EF480838E9
:102490000068C0F34040002859D06068002856D139
:1024A0000120D9E700BF6068B0F5803F08D1E74858
:1024B0000838006840F48030E449083908601EE0BC
:1024C0006068B0F5A02F0DD1E0480838006840F4EE
:1024D0008020DE49083908600846006840F48030F2
:1024E00008600CE0D9480838006820F48030D749EB
:1024F000083908600846006820F48020086000BFA2
:10250000606890B1FFF7B6FB054606E0FFF7B2FB47
:10251000401B642801D903209EE7CC480838006896
:10252000C0F340400028F1D011E0FFF7A3FB0546BF
:1025300006E0FFF79FFB401B642801D903208BE7CF
:10254000C24808380068C0F340400028F1D1207824
:1025500000F0020002285FD1BC48006800F00C00C7
:1025600058B1BA48006800F00C0008281CD1B748E0
:10257000001F006800F48000B0B9B4480838006853
:10258000C0F3400020B1E068012801D0012063E7DA
:10259000AE480838006820F0F800216940EAC10020
:1025A000AA490839086037E0E06800B30120A8496B
:1025B0000860FFF75FFB054606E0FFF75BFB401B8B
:1025C000022801D9032047E7A04808380068C0F373
:1025D00040000028F1D09D480838006820F0F8003D
:1025E000216940EAC10099490839086014E00020D7
:1025F00097490860FFF73EFB054606E0FFF73AFB08
:10260000401B022801D9032026E7904808380068BB
:10261000C0F340000028F1D1207800F0080008281D
:102620002CD16069A8B101208A490860FFF722FB1C
:10263000054606E0FFF71EFB401B022801D90320D8
:102640000AE782486C300068C0F340000028F1D0EF
:1026500014E000207F490860FFF70CFB054606E008
:10266000FFF708FB401B022801D90320F4E6774856
:102670006C300068C0F340000028F1D1207800F0F1
:102680000400042870D1002770483830006800F03A
:10269000805090B900BF002000906C48383000682E
:1026A00040F080506949383108600846006800F001
:1026B0008050009000BF00BF01276748006800F409
:1026C0008070B0B96448006840F480706249086066
:1026D000FFF7D0FA054606E0FFF7CCFA401B0228C8
:1026E00001D90320B8E65C48006800F48070002837
:1026F000F2D000BFA068012808D1544868300068B3
:1027000040F001005149683108601DE0A0680528CB
:102710000DD14E486830006840F004004B496831E4
:1027200008600846006840F0010008600CE0474877
:102730006830006820F001004449683108600846AC
:10274000006820F00400086000BFA068A8B1FFF78F
:1027500091FA054609E0FFF78DFA401B41F28831F6
:10276000884202D9032077E626E0384868300068BE
:10277000C0F340000028EED013E0FFF77BFA0546D7
:1027800008E0FFF777FA401B41F28831884201D90F
:10279000032061E62D4868300068C0F3400000283F
:1027A000EFD1012F07D129483830006820F0805040
:1027B00026493831086000BFA069002845D0234869
:1027C000006800F00C0008285DD0A069022845D1FF
:1027D00000201F490866FFF74DFA054606E0FFF79F
:1027E00049FA401B022801D9032035E6174808386A
:1027F0000068C0F340600028F1D1D4E90701084324
:10280000616A40EA81110122A06AC2EB500041EAEC
:1028100000412C20005D41EA00600C49091F08605E
:1028200001200B490866FFF725FA054606E0FFF789
:1028300021FA401B022801D903200DE6034808387D
:102840000068C0F340600028F1D049E00838024039
:1028500000004742800E474200700040002021499E
:102860000866FFF707FA054606E0FFF703FA401B84
:10287000022801D90320EFE51B480068C0F340603F
:102880000028F2D12CE0A069012800D1E4E5164827
:10289000001D0668A069012820D006F48001E069C7
:1028A00081421BD106F03F01206A814216D147F6D2
:1028B000C0703040616AB0EB811F0FD106F4403127
:1028C0000122A06AC2EB5000B1EB004F06D106F026
:1028D00070612C20005DB1EB006F01D00120BBE5E1
:1028E0000020B9E5000047420038024070B50446B8
:1028F0000D460CB9012070BD94F82C0028B90020B9
:1029000084F82D00204600F011F8022084F82C00F5
:10291000211D2068FEF7BAF92946D4E90002FEF726
:1029200021FA012084F82C000020E4E710B50446C9
:10293000FEF724FF10BD70B504460D4694F82C0038
:10294000022800D170BD94F82C0001280AD1022081
:1029500084F82C0029462068FEF7CEF9012084F87F
:102960002C0001E00120EDE70020EBE72DE9F0412C
:1029700004460E46174694F82C50022D02D1022030
:10298000BDE8F081012D01D0052D12D1022084F87F
:102990002C003A4631462068FEF7B8F93068022824
:1029A00003D1052084F82C0005E0012084F82C00D8
:1029B00001E00120E4E70020E2E7000010B586B066
:1029C0000446142101A8FDF72CFD2A4920688842FD
:1029D0004DD100BF002000902748006840F40060FF
:1029E000254908600846006800F40060009000BFB8
:1029F00000BF00BF002000901F481438006840F05E
:102A000004001D49143908600846006800F00400FD
:102A1000009000BF00BF00BF002000900846006883
:102A200040F0080008600846006800F008000090C8
:102A300000BF00BF4FF4F850019002200290002028
:102A40000390032004900C20059001A90B48FEF789
:102A5000FBFF04200190022002900020039003203D
:102A600004900C20059001A90548FEF7EDFF06B083
:102A700010BD0000002C0140443802400008024014
:102A8000000C02407047014691F851007047000069
:102A9000F8B504462068466820688568C5F380104C
:102AA00048B905F0010030B1C6F3801018B12046D6
:102AB000216C8847F8BDC5F3400030B1C6F3C010A3
:102AC00018B12046616C8847F4E7C5F3401030B96F
:102AD000C5F3801018B9C5F3002000287CD0C6F3D8
:102AE000401000287DD0C5F38010F0B194F851005B
:102AF00003280ED0606D40F00400606500BF002028
:102B000000902068C068009020688068009000BF36
:102B10000BE000BF002000902068C0680090206893
:102B20008068009000BF00BFC4E7C5F3401088B1C3
:102B3000606D40F00100606500BF002000902068DB
:102B4000806800902068006820F0400021680860DC
:102B500000BF00BFC5F3002058B1606D40F0080011
:102B6000606500BF0020009020688068009000BF72
:102B700000BF606D78B32068406820F0E0002168F5
:102B80004860012084F8510006F00200022802D0BB
:102B900006F0010008B32068406820F003002168B7
:102BA0004860E06C50B11048E16C0865E06CFEF7DD
:102BB000BFFA18B1606D40F040006065A06C50B184
:102BC0000948A16C0865A06CFEF7B2FA18B1606DF7
:102BD00040F04000606503E003E02046FFF752FF4D
:102BE00068E700BF66E70000693F000810B50446CB
:102BF0000CB9012010BD606A38B96068B0F5827FF9
:102C000000D105E00021E16102E000212161616164
:102C10000021A16294F8510028B9002084F85000E6
:102C2000204600F047F8022084F851002068006830
:102C300020F0400021680860A08800F4827021899B
:102C400001F404410843A18901F400610843217C97
:102C500001F002010843217D01F001010843218BAD
:102C600001F400710843217F01F03801084320215D
:102C7000095D01F080010843218D01F400510843F2
:102C8000216808600421A06901EA104094F824102A
:102C900001F010010843216848602068C06920F4F1
:102CA00000602168C86100206065012084F851003F
:102CB00000209FE710B586B00446142101A8FDF757
:102CC000B0FB1B492068884230D100BF0020009033
:102CD0001848006840F480101649086008460068EB
:102CE00000F48010009000BF00BF00BF00200090E3
:102CF00010481438006840F020000E49143908606C
:102D00000846006800F02000009000BF00BF4FF4AC
:102D10006070019002200290002003900320049034
:102D20000520059001A90448FEF78EFE06B010BDEF
:102D30000050014044380240001402402DE9F8439D
:102D40000446884616461D464FF000096068B0F5F7
:102D5000827F0DD1A06858B9042084F85100334611
:102D6000424641462046009500F007FABDE8F88348
:102D700000BF94F85000012801D10220F6E701209D
:102D800084F8500000BFFEF775FF074694F8510025
:102D9000012802D04FF002097EE0B8F1000F00D008
:102DA00016B94FF0010977E0042084F851000020A3
:102DB0006065C4F83880A687E6872063A086E08631
:102DC00020646064A068B0F5004F0BD120680068F3
:102DD00020F04000216808602068006820F48040EE
:102DE000216808602068006800F04000402805D095
:102DF0002068006840F0400021680860E068F8B989
:102E00001AE02068806800F0010050B12068007B63
:102E1000A16B0870A06B401CA063E08F401EE08790
:102E20000AE0FEF727FFC01BA84201D3681C00B9C7
:102E300015B94FF003092FE0E08F0028E1D11EE023
:102E40001AE02068806800F0010050B12068C06876
:102E5000A16B0880A06B801CA063E08F401EE08700
:102E60000AE0FEF707FFC01BA84201D3681C00B9A7
:102E700015B94FF003090FE0E08F0028E1D13A4681
:102E80002946204601F055F908B120206065606DA3
:102E900008B14FF0010900BF012084F8510000BFC4
:102EA000002084F8500000BF48465FE72DE9F0415C
:102EB00004460E4615460027A06870B96068B0F554
:102EC000827F0AD1042084F851002B4632463146D5
:102ED000204600F067FABDE8F08100BF94F850008A
:102EE000012801D10220F6E7012084F8500000BF3C
:102EF00094F85100012801D0022757E006B10DB91E
:102F0000012753E0042084F8510000206065A66387
:102F1000A587E58720646064A086E086A068B0F598
:102F2000004F0BD12068006820F040002168086045
:102F30002068006820F48040216808601F48E16C28
:102F400008641F48E16CC8631E48E16CC864002037
:102F5000E16C0865E38FD4F800C00CF10C01A26BA2
:102F6000E06CFEF7FAFA40B1606D40F01000606569
:102F70000127012084F8510018E02068006800F063
:102F80004000402805D02068006840F040002168DB
:102F900008602068406840F0200021684860206890
:102FA000406840F001002168486000BF00BF002079
:102FB00084F8500000BF38468DE70000A53F0008A8
:102FC000CF3F00087D3F0008704770472DE9F84F5C
:102FD0000446884616461D464FF0000A00BF94F886
:102FE0005000012802D10220BDE8F88F012084F8AA
:102FF000500000BFFEF73EFE0746B14694F8510070
:10300000012802D04FF0020AADE0B8F1000F00D065
:1030100016B94FF0010AA6E0032084F85100002001
:103020006065C4F83080A686E686A063A087E08746
:1030300060642064A068B0F5004F0BD12068006880
:1030400020F04000216808602068006840F480405B
:10305000216808602068006800F04000402805D022
:103060002068006840F0400021680860E068B0F522
:10307000006F2FD1606810B1B9F1010F09D1206B39
:1030800000882168C860206B801C2063E08E401E91
:10309000E0861BE02068806800F0020002280AD168
:1030A000206B00882168C860206B801C2063E08E44
:1030B000401EE0860AE0FEF7DDFDC01BA84201D3FA
:1030C000681C00B915B94FF0030A4CE0E08E0028E7
:1030D000E0D12EE0606810B1B9F1010F09D1206B89
:1030E000007821680873206B401C2063E08E401E2E
:1030F000E0861BE02068806800F0020002280AD108
:10310000206B007821680873206B401C2063E08EE0
:10311000401EE0860AE0FEF7ADFDC01BA84201D3C9
:10312000681C00B915B94FF0030A1CE0E08E0028B6
:10313000E0D13A462946204601F046F808B1202061
:103140006065A06850B900BF002000902068C0688A
:10315000009020688068009000BF00BF606D08B1DB
:103160004FF0010A00BF012084F8510000BF002089
:1031700084F8500000BF504636E72DE9FF5F044653
:10318000884691461D460E9E012002900020019027
:1031900000BF94F85000012803D1022004B0BDE81C
:1031A000F09F012084F8500000BFFEF763FD074642
:1031B00094F851B060680390AA46BBF1010F0BD0A0
:1031C0000398B0F5827F04D1A06810B9BBF1040F59
:1031D00002D002200190DBE0B8F1000F03D0B9F17A
:1031E000000F00D015B901200190D1E094F85100F2
:1031F000042802D0052084F8510000206065C4F83E
:103200003890E587A587C4F83080E586A5862064D8
:1032100060642068006800F04000402805D0206805
:10322000006840F0400021680860E068B0F5006F79
:103230004AD1606810B1BAF1010F09D1206B008842
:103240002168C860206B801C2063E08E401EE086F1
:1032500033E02068806800F00200022810D1E08E80
:1032600070B1029801280BD1206B00882168C860DA
:10327000206B801C2063E08E401EE08600200290C0
:103280002068806800F0010068B1E08F58B12068C4
:10329000C068A16B0880A06B801CA063E08F401EFB
:1032A000E08701200290FEF7E5FCC01BB04204D38A
:1032B000701C10B1032001906AE0E08E0028C8D194
:1032C000E08F0028C5D14AE0606810B1BAF1010F63
:1032D00009D1206B007821680873206B401C2063A3
:1032E000E08E401EE08634E02068806800F0020036
:1032F000022810D1E08E70B1029801280BD1206B0A
:10330000007821680873206B401C2063E08E401E0B
:10331000E086002002902068806800F0010068B11B
:10332000E08F58B12068C068A16B0870A06B401C8A
:10333000A063E08F401EE08701200290FEF79AFC18
:10334000C01BB04201D3701C00B916B90320019014
:103350001EE0E08E0028C7D1E08F0028C4D13A4695
:103360003146204600F030FF20B10120019020209E
:1033700060650DE0A06850B900BF00200090206893
:10338000C068009020688068009000BF00BF00BF48
:10339000012084F8510000BF002084F8500000BFD5
:1033A0000198FBE62DE9F04704460E4617461D46F8
:1033B0004FF0000A00BF94F85000012802D102200B
:1033C000BDE8F087012084F8500000BF94F85180D8
:1033D000D4F80490B8F1010F0AD0B9F5827F04D176
:1033E000A06810B9B8F1040F02D04FF0020A7DE0D6
:1033F0000EB107B115B94FF0010A77E094F851000A
:10340000042802D0052084F851000020606526635E
:10341000A586E586A763A587E5872064606494F8A0
:103420005100042806D13548E16C08643448E16C49
:10343000C86305E03348E16C08643348E16CC86355
:103440003248E16CC8640020E16C0865E38FD4F871
:1034500000C00CF10C01A26BE06CFEF77EF848B1E5
:10346000606D40F0100060654FF0010A012084F8A3
:1034700051003BE02068406840F00100216848604E
:103480000020A16C0864A16CC863A16CC864A16C25
:103490000865E38ED4F800C00CF10C02216BA06C1F
:1034A000FEF75BF848B1606D40F0100060654FF0CA
:1034B000010A012084F8510018E02068006800F03B
:1034C0004000402805D02068006840F04000216896
:1034D00008602068406840F020002168486020684B
:1034E000406840F002002168486000BF00BF002033
:1034F00084F8500000BF504662E70000A53F000876
:10350000CF3F0008C13F0008CB4000087D3F0008C6
:103510002DE9F04104460E461546002700BF94F8F9
:103520005000012802D10220BDE8F081012084F87A
:10353000500000BF94F85100012801D0022758E044
:1035400006B10DB9012754E0032084F85100002092
:1035500060652663A586E586A06360642064A08715
:10356000E087A068B0F5004F0BD12068006820F01C
:103570004000216808602068006840F480402168AD
:1035800008601F48A16C08641E48A16CC8631E48EF
:10359000A16CC8640020A16C0865E38ED4F800C05B
:1035A0000CF10C02216BA06CFDF7D7FF40B1606DF0
:1035B00040F0100060650127012084F8510018E0F8
:1035C0002068006800F04000402805D020680068AE
:1035D00040F04000216808602068406840F020000A
:1035E000216848602068406840F002002168486017
:1035F00000BF00BF002084F8500000BF384693E7AA
:10360000B33F00084B4000087D3F000870477047FB
:103610007047704770B504462546681EB0F1807F3C
:1036200001D301200FE0681E4FF0E02148610F2117
:103630004FF0FF3001F09CFA00204FF0E02188614C
:1036400007200861002070BD704710B504460CB912
:10365000012010BD242084F83D002068C06820F4BB
:1036600000502168C860204600F0CEF90020206498
:1036700084F83D0084F83E00206300BF84F83C00DD
:1036800000BF00BFE5E7000070B504462CB940F26A
:103690001742034903A010F049F8254670BD000009
:1036A0001DF20108687561727420213D204E554C51
:1036B0004C0000002DE9F84F04462068056820689A
:1036C000C668206847694FF00009CA4605F00F092F
:1036D000B9F1000F0AD105F0200038B106F0200042
:1036E00020B1204600F0D4FFBDE8F88FB9F1000FFB
:1036F0007CD007F0010018B906F49070002875D04E
:1037000005F0010030B106F4807018B1206C40F073
:103710000100206405F0040030B107F0010018B189
:10372000206C40F00200206405F0020030B107F088
:10373000010018B1206C40F00400206405F008007E
:1037400048B106F0200010B907F0010018B1206C54
:1037500040F008002064206C002846D005F02000CE
:1037600028B106F0200010B1204600F091FF20683B
:103770004069C0F3801A206C00F0080010B9BAF15B
:10378000000F2DD0204600F02AFF2068406900F08D
:103790004000402820D100BF00BF2168143151E80B
:1037A000001F21F040002168143141E80002002A86
:1037B000F3D100BFA06B50B17548A16B0865A06B39
:1037C000FDF7B6FC88B1A06B016D88470DE020467F
:1037D000FFF75AFF09E009E02046FFF755FF04E034
:1037E0002046FFF751FF002020647DE7206B012871
:1037F00076D105F01000002872D006F010000028E5
:10380000FAD000BF00200090206800680090206877
:103810004068009000BF00BF2068406900F0400091
:1038200040285ED1A06B006840681FFA80F8B8F1AC
:10383000000F54D0A08D404551DDA4F82E80A06B20
:10384000C069B0F5807F43D000BF00BF21680C3154
:1038500051E8001F21F4807021680C3141E800021A
:10386000002AF3D100BF00BF00BF2168143151E826
:10387000001F21F001002168143141E80002002AF4
:10388000F3D100BF00BF00BF2168143151E8001F11
:1038900021F040002168143141E80002002AF3D1F0
:1038A00000BF202084F83E000020206300BF00BF3E
:1038B00021680C3151E8001F21F0100021680C3103
:1038C00041E80002002AF3D100BFA06BFDF7DAFB4C
:1038D000A08DE28D801A81B22046FFF7B5FE03E786
:1038E00040E0A08DE18D401A1FFA80F8E08DC0B352
:1038F000B8F1000F35D000BF00BF21680C3151E88E
:10390000001F21F4907021680C3141E80002002A68
:10391000F3D100BF00BF00BF2168143151E8001F80
:1039200021F001002168143141E80002002AF3D19E
:1039300000BF202084F83E000020206300BF00BFAD
:1039400021680C3151E8001F21F0100021680C3172
:1039500041E80002002AF3D100BF41462046FFF7AC
:1039600073FEC1E605F0800030B106F0800018B1AA
:10397000204601F087F8B7E605F0400030B106F0C8
:10398000400018B1204600F060FEADE600BFABE697
:103990004544000810B504460CB9012010BDA069CB
:1039A00000B100E000BF94F83D0028B9002084F881
:1039B0003C00204600F044F8242084F83D002068B4
:1039C000C06820F400502168C860204600F0DCFE8A
:1039D0002068006920F490402168086120684069EF
:1039E00020F02A00216848612068C06840F4005037
:1039F0002168C86000202064202084F83D0084F8FD
:103A00003E000020CAE7000010B5044609492068BE
:103A100088420DD10848006820F01000064908606F
:103A20004FF4C0610548FDF721FF2520FEF784F91A
:103A300010BD000000100140443802400000024068
:103A400010B586B00446142101A8FCF7EAFC1F4912
:103A50002068884238D100BF002000901C480068D0
:103A600040F010001A4908600846006800F0100095
:103A7000009000BF00BF00BF002000901448143821
:103A8000006840F0010012491439086008460068D7
:103A900000F00100009000BF00BF4FF4C060019033
:103AA000022002900020039003200490072005903C
:103AB00001A90848FDF7C8FF002211462520FEF79E
:103AC0006DF92520FEF75AF906B010BD001001402F
:103AD000443802400000024070B504460D461646C8
:103AE00094F83E00202816D105B10EB9012070BD12
:103AF00000BF94F83C00012801D10220F7E7012023
:103B000084F83C0000BF002020633246294620464E
:103B100000F050FFEBE70220E9E7000070B5044633
:103B20002CB940F22742054905A00FF0FFFD2546BC
:103B300005F5887006F0B8F870BD000034F2010891
:103B4000687561727420213D204E554C4C00000078
:103B500070B504462CB940F23642054905A00FF075
:103B6000E5FD254605F5887006F09EF870BD00005D
:103B70004CF20108687561727420213D204E554C4D
:103B80004C000000F7B50446154694F83D00202887
:103B900046D1019800B10DB90120FEBD00BF94F8D7
:103BA0003C00012801D10220F7E7012084F83C0005
:103BB00000BF01982062A584E584002020642120B4
:103BC00084F83D001748616BC8631748616B08644F
:103BD0001648616BC8640020616B086501AE2368FC
:103BE0001A1D31682B46606BFDF7B7FC6FF0400083
:103BF0002168086000BF002084F83C0000BF00BFBF
:103C000000BF2168143151E8001F41F08000216895
:103C1000143141E80002002AF3D100BF0020BCE7C4
:103C20000220BAE779450008D14500085944000848
:103C300070B504462CB94FF48B62054905A00FF00E
:103C400075FD254605F5887000F0F2FF70BD000097
:103C500079F20108687561727420213D204E554C3F
:103C60004C0000007047000010B512F00FF8034838
:103C7000006817F017F812F033F810BD6C0100203F
:103C800010B588B000242A482A4908600220019013
:103C900008200290062003900490022005900690D0
:103CA0000790002048600121224881600821C160FE
:103CB00010210161402141614FF4C07181610021F7
:103CC000C1614FF4006101624900416249008162B3
:103CD00001A9FEF70BFE60B100BF17A012F01CF89F
:103CE0001AA012F019F81EA012F016F800BF641EF8
:103CF0001AE01D490F4800F04BF800BF1BA012F05E
:103D00000BF810235A054FF040411D4812F004F8FB
:103D100013A012F001F800BF4FF000734FF04042C3
:103D200018A11A4812F0E4FD204608B010BD0000AA
:103D3000400100A0D00500201B5B33316D5B452F97
:103D40006472762E736472616D5D2000534452413B
:103D50004D20696E6974206661696C65642100009C
:103D60001B5B306D0A000000040600201B5B306DF9
:103D70005B442F6472762E736472616D5D20000067
:103D8000880B0208736472616D0000001406002045
:103D9000F8B506460C4600200090002510250120AD
:103DA00020606560A0600020E0602A022146304665
:103DB000FEF7DCFD0020009002E00098401C00901F
:103DC0004FF6FF7100988842F7D3022020606560AB
:103DD0000120A0600020E0604FF480522146304670
:103DE000FEF7C4FD0320206065600820A06000206D
:103DF000E0604FF4805221463046FEF7B7FD40F2B6
:103E0000312000900420206065600120A0600098AF
:103E1000E0604FF4805221463046FEF7A7FD40F2A5
:103E2000AB213046FEF787FDF8BD000070B50446B3
:103E30000D4616461D481E4948604069C1F8980065
:103E40001A48016A1A48C0F89C100021C0F8A01056
:103E5000C0F8A4104FF48061C0F8A8108900C0F821
:103E6000AC108900C0F8B0102021C0F8B410C9020D
:103E7000C0F8B8100421C0F8BC100321C0F8C0106D
:103E80004FF40001C0F8C4108910C0F8C810983071
:103E9000FDF762F906489830FDF7B6FA33462A4630
:103EA000214603489830FDF725FB70BD48010020EE
:103EB0002008002070B505460E46144621480068CB
:103EC00000EB84001F4908601F4820494860416991
:103ED0001E48C0F8F8101C48016A1C48C0F8FC10C5
:103EE0004021C0F800110021C0F804114FF4806196
:103EF000C0F808118900C0F80C118900C0F8101131
:103F00002021C0F81411C902C0F818110421C0F80A
:103F10001C110321C0F820114FF40001C0F8241136
:103F20008910C0F82811F830FDF716F90748F83065
:103F3000FDF76AFA2346324629460448F830FDF771
:103F4000D9FA70BD7001002048010020200800202F
:103F500010B511F09BFE0348FEF79AFD11F0C0FE6C
:103F600010BD00007C06002070B50546AC6B00203B
:103F7000E087E0862046FEF785FD70BD70B50546FA
:103F8000AC6B2068406820F0030021684860606DD9
:103F900040F010006065012084F851002046FEF7D3
:103FA00071FD70BD70B50446A56B2846FFF70DF88E
:103FB00070BD70B50446A56B2846FFF728FB70BDA1
:103FC00070B50446A56B2846FFF723FB70BD70B59E
:103FD0000546AC6BFDF74EFE06462868006800F407
:103FE0008070B0F5807F2BD02068406820F02000E2
:103FF00021684860A06850B96068B0F5827F06D13A
:104000002068406820F003002168486005E02068CF
:10401000406820F001002168486032466421204653
:1040200000F087F808B1202060650020E0870120BB
:1040300084F85100606D18B12046FEF723FD70BD75
:104040002046FEF7C1FF00BFF9E7F8B50546AC6BA7
:10405000FDF710FE06462868006800F48070B0F591
:10406000807F2DD02068406820F0200021684860C3
:104070002068406820F002002168486032466421D0
:10408000204600F0A1F818B1606D40F02000606596
:10409000A06850B900BF002000902068C068009060
:1040A00020688068009000BF00BF0020E0860120EB
:1040B00084F85100606D18B12046FEF7E3FCF8BDAE
:1040C0002046FFF7A3FA00BFF9E770B50546AC6BD1
:1040D000FDF7D0FD06462868006800F48070B0F552
:1040E000807F21D02068406820F02000216848604F
:1040F00032466421204600F067F818B1606D40F048
:10410000200060652068406820F003002168486056
:104110000020E086E087012084F85100606D18B12E
:104120002046FEF7AFFC70BD2046FFF771FA00BFD6
:10413000F9E7F8B504460E4615466068B0F5827F8B
:104140000DD1A068B0F5004F03D0A068B0F5806F26
:1041500005D12068006820F0400021680860606890
:10416000B0F5827F1FD1A068B0F5806F0DD03346C7
:10417000002280212046009500F05CF808B3606DB5
:1041800040F0200060650320F8BD33460022012185
:104190002046009500F04EF898B1606D40F0200088
:1041A00060650320F0E73346002201212046009598
:1041B00000F040F828B1606D40F0200060650320F9
:1041C000E2E70020E0E700007CB504460D46164615
:1041D000164800681821B0FBF1F01549B0FBF1F06A
:1041E0004FF47A71484301906068B0F5827F0DD139
:1041F0002B46002280212046009600F01BF898B143
:10420000606D40F02000606503207CBD00BF019818
:1042100000B908E00198401E019020688068C0F352
:10422000C0100028F3D100BF0020EEE708000020F6
:1042300040420F002DE9F84F04460D4690461E46B9
:10424000DDF82890FDF716FDA0EB0900371AFDF701
:1042500011FD82462C480068C0F3CB3078430090B3
:1042600045E0701C002842D0FDF704FDA0EB0A00D9
:10427000B84200D2A7BB2068406820F0E000216867
:1042800048606068B0F5827F0DD1A068B0F5004F3E
:1042900003D0A068B0F5806F05D12068006820F0D9
:1042A000400021680860A06AB0F5005F0DD100BF32
:1042B0002068006820F400502168086020680068C9
:1042C00040F400502168086000BF012084F85100CC
:1042D00000BF002084F8500000BF0320BDE8F88F25
:1042E000FFE7009800B900270098401E0090206862
:1042F00080682840A84201D1012000E0002040450C
:10430000AFD10020EAE700000800002010B511F04E
:10431000BDFC4FF0E020006900F4803008B1FDF7EB
:10432000B7FC15F027FF11F0DBFC10BD00B59FB006
:10433000302113A8FCF775F814210EA8FCF771F8CA
:10434000302102A8FCF76DF800BF00200190314831
:10435000006840F080502F4908600846006800F06F
:104360008050019000BF00BF00BF002001902A488C
:10437000006840F44040284908600846006800F49E
:104380004040019000BF00BF0D2013904FF48030DB
:1043900014900120159018900220199041051A914F
:1043A0000F211B91D8211C9102211D9108211E91E2
:1043B00013A8FEF74DF818B1282118A000F09EFBB5
:1043C000FDF73EFD18B12E2114A000F097FB0F2041
:1043D0000E9002200F90002010904FF4A0501190EA
:1043E0004FF48050129005210EA8FDF7F1FE18B190
:1043F0003B210AA000F082FB20200290C0000C901C
:1044000002A8FDF763FD18B1412104A000F076FB7E
:104410001FB000BD40380240007000402E2E5C628C
:104420006F6172645C626F6172642E6300000000F1
:104430000348006840F470000149086070470000BC
:1044400088ED00E070B50546AC6B0020E085E084A7
:104450002046FFF719F970BD70B506460025B46B0C
:1044600020684069C0F3C01594F83D00212805D1AB
:1044700025B10020E084204600F0F7F8206840696C
:10448000C0F3801594F83E00222805D125B1002004
:10449000E085204600F0A3F8206C40F01000206476
:1044A0002046FFF7F1F870BD70B50546AC6B286883
:1044B000006800F48070002842D1E08500BF00BF92
:1044C00021680C3151E8001F21F4807021680C3103
:1044D00041E80002002AF3D100BF00BF00BF2168FD
:1044E000143151E8001F21F001002168143141E826
:1044F0000002002AF3D100BF00BF00BF21681431C1
:1045000051E8001F21F040002168143141E8000209
:10451000002AF3D100BF202084F83E00206B012840
:104520000ED100BF00BF21680C3151E8001F21F0FF
:10453000100021680C3141E80002002AF3D100BFCD
:10454000206B012804D1A18D2046FFF77DF802E001
:104550002046FFF7E3FA70BD70B50546AC6B206BE3
:10456000012805D1A08D41082046FFF76DF802E033
:104570002046FFF7EDFA70BD70B50546AC6B2868B4
:10458000006800F48070F8B90020E08400BF00BF2C
:104590002168143151E8001F21F080002168143196
:1045A00041E80002002AF3D100BF00BF00BF21682C
:1045B0000C3151E8001F41F0400021680C3141E806
:1045C0000002002AF3D102E02046FFF731FB70BD64
:1045D00070B50446A56B2846FFF744FB70BD00BFCD
:1045E00000BF02680C3252E8002F22F4907102687A
:1045F0000C3242E80013002BF3D100BF00BF00BF14
:104600000268143252E8002F22F0010102681432CD
:1046100042E80013002BF3D100BF016B01290ED13A
:1046200000BF00BF02680C3252E8002F22F01001D8
:1046300002680C3242E80013002BF3D100BF2021A6
:1046400080F83E1000210163704710B504462068D1
:10465000C06820F040002168C860202084F83D0038
:104660002046FFF7E5FA002010BD00BF00BF02683A
:104670000C3252E8002F22F0C00102680C3242E8EE
:104680000013002BF3D100BF202180F83D107047AC
:10469000F8B5044694F83E00222873D1A068B0F51E
:1046A000805F0CD1206950B90025A66A2068406857
:1046B000C0F308003080A06A801CA06215E0A56AE3
:1046C0000026A068B0F5805F03D0A06828B92069F3
:1046D00018B920684068287004E02068406800F03D
:1046E0007F002870A06A401CA062E08D401E80B24E
:1046F000E085002844D12068C06820F020002168AF
:10470000C8602068C06820F480702168C860206894
:10471000406920F0010021684861202084F83E00B3
:10472000206B012826D10020206300BF00BF216834
:104730000C3151E8001F21F0100021680C3141E8D4
:104740000002002AF3D100BF2068006800F01000CA
:1047500010280AD100BF0020009020680068009057
:1047600020684068009000BF00BFA18D2046FEF782
:104770006BFF02E02046FFF7D1F90020F8BD01E011
:104780000020FBE70220F9E72DE9F84F04462068F6
:10479000006920F44050E1680843216808612169FC
:1047A000A068084361690843E169084300902068F4
:1047B000C06849F20C618843009908432168C860C9
:1047C0002068406920F44070A1690843216848616D
:1047D00076492068884203D075492068884203D111
:1047E000FDF7CEFD814602E0FDF7BAFD8146E069A6
:1047F000B0F5004F6CD102206168A0FB0150034668
:104800001920A9FB007001462A463846FBF78EFDA9
:104810006421B0FBF1F04FEA001A02206168A0FBAE
:1048200001510B461920A9FB00712A463846FBF7B7
:104830007DFD834602206168A0FB015003461920DC
:10484000A9FB00712A463846FBF770FD6421B0FBD6
:10485000F1F000EBC00101EB0010ABEB8000322166
:1048600001EBC0006421B0FBF1F000F0F8000AEBAE
:10487000400A02206168A0FB015003461920A9FBF1
:10488000007001462A463846FBF750FD8346022059
:104890006168A0FB015003461920A9FB00712A465C
:1048A0003846FBF743FD6421B0FBF1F000EBC0019B
:1048B00001EB0010ABEB8000322101EBC000642162
:1048C000B0FBF1F000F007005044216888606AE016
:1048D00004206168A0FB015003461920A9FB007069
:1048E00001462A463846FBF721FD824604206168CE
:1048F000A0FB015003461920A9FB007001462A467F
:104900003846FBF713FD6421B0FBF1F000EBC0016A
:1049100001EB0010AAEB8000322101EB00106421B2
:10492000B0FBF1F000F0F00A04206168A0FB017018
:1049300003461920A9FB00513A462846FBF7F6FC2E
:104940006421B0FBF1F00AEB001A04206168A0FBBF
:1049500001510B461920A9FB00712A463846FBF786
:10496000E5FC834604206168A0FB01500346192042
:10497000A9FB007001462A463846FBF7D7FC6421A4
:10498000B0FBF1F000EBC00101EB0010ABEB8000DD
:10499000322101EB00106421B0FBF1F000F00F00B8
:1049A000504421688860BDE8F88F00000010014085
:1049B0000014014077B581B0044615460298A06204
:1049C000A58500202064222084F83E002A48A16B9F
:1049D000C8632A48A16B08642948A16BC8640020F9
:1049E000A16B086502AE32682368191D2B46A06BC7
:1049F000FCF7B3FD00BF0020009020680068009025
:104A000020684068009000BF00BF00BF002084F80D
:104A10003C0000BF206970B100BF00BF21680C31AD
:104A200051E8001F41F4807021680C3141E8000218
:104A3000002AF3D100BF00BF00BF2168143151E844
:104A4000001F41F001002168143141E80002002AF2
:104A5000F3D100BF00BF00BF2168143151E8001F2F
:104A600041F040002168143141E80002002AF3D1EE
:104A700000BF002004B070BDA944000859450008DB
:104A800059440008014691F83D00212828D1886842
:104A9000B0F5805F0BD1086948B90A6A1088C0F385
:104AA00008000B685860086A801C086205E00B6A01
:104AB000581C086218780B685860C88C401E80B279
:104AC000C88458B90868C06820F080000B68D860B6
:104AD0000868C06840F040000B68D860002070474C
:104AE0000220FCE710B511F0D1F803481AF0B6F82F
:104AF00011F0F6F810BD00007C05002004460D46BC
:104B000000BF07A011F008F92A4621460AA011F0BB
:104B100003F911A011F000F900BF00BFFEE700008B
:104B20001B5B33316D5B452F6472765F636F6D6D18
:104B30006F6E5D20000000004572726F725F486109
:104B40006E646C65722061742066696C653A2573C9
:104B5000206E756D3A2564001B5B306D0A00000005
:104B600002480068C0F30220704700000CED00E02E
:104B700010B5002804DB0A07130E054A135406E09B
:104B80000A07140E034A00F00F031B1FD45410BD74
:104B900000E400E018ED00E0004870474804002001
:104BA00001460A46C81701EB90708010A1EB800007
:104BB00070B9642091FBF0F300FB131030B94FF48F
:104BC000C87091FBF0F300FB131008B90120704787
:104BD0000020FCE70146202209B900207047080C9C
:104BE000000408B90904103A01F07F4008B909022D
:104BF000083A01F0704008B90901121F01F0404065
:104C000008B98900921E01F0004000B9521E1046FA
:104C1000E4E702E008C8121F08C1002AFAD1704771
:104C20007047002001E001C1121F002AFBD170472C
:104C30002DE9F04104462CB940F241420A490BA04B
:104C40000EF074FDA4F58875FBF7D6FA0746D5F883
:104C5000AC0046683846FBF7D3FA1EB9042120465B
:104C600010F0EAFBBDE8F08168F201087365726933
:104C7000616C20213D2052545F4E554C4C00000089
:104C800070B504462F212046FBF744FC051E01D1D8
:104C9000204670BD681C0546FBE7000010B515F006
:104CA00035F928B14FF0FF31024812F023FE10BD54
:104CB0000020FCE7D024002010B504462CB14FF4AE
:104CC000AC62054905A00EF031FD15F01FF910B1D9
:104CD000064812F01FFD10BD8EFF01086C65766559
:104CE0006C203D3D2052545F454F4B00D0240020A6
:104CF00070B504462068A0F1140500BF00BF284627
:104D000015F0B6F8002070BD70B505460EE0FBF753
:104D100073FA06462868A0F114044FF0FF302063B0
:104D2000204615F0A5F83046FBF76AFA284611F040
:104D30005DF80028EBD0002070BD00002DE9F041A7
:104D400005460C469046204615F086F9B8F1000F4E
:104D500003D0B8F1010F23D105E004F11401284676
:104D600011F025F822E02E680FE0A6F1140794F860
:104D7000350097F83510884206DA04F1140107F17E
:104D8000140011F014F802E03668AE42EDD100BF15
:104D9000AE4204D104F11401284611F008F805E0F0
:104DA000A322044904A00EF0C1FC00BF00BF0020F4
:104DB000BDE8F08151FD01083000000010B5044647
:104DC00004F1140010F0D1FF002010BD70B50446AE
:104DD0000D462946204611F089FB0646304670BD37
:104DE00010B50446204611F057FC10BD2DE9F047E0
:104DF00081460C4615462CB929464846FFF7E6FF82
:104E0000BDE8F08725B92046FFF7EAFF0020F7E765
:104E1000A4F118072A462146786811F0CFFD06460E
:104E2000E6B9DDB129464846FFF7D0FF0646AEB1E8
:104E3000A4B1B868C01BA0F11808454505D9424681
:104E40002146304611F014FB04E02A462146304644
:104E500011F00EFB2046FFF7C3FF00BF3046CFE73F
:104E600070B58CB006460C462C22002101A811F02A
:104E70002FFF072001902CB1A08800040290012090
:104E8000079002E0002002900790032201A930461B
:104E90000CF014FD054615B128460CB070BD00207D
:104EA000FBE700002DE9F0438BB005468946174625
:104EB00000242DB940F20B121D491EA00EF036FC45
:104EC0002FB94FF486721A491BA00EF02FFC00E098
:104ED000641C285D202804D0285D092801D04C4599
:104EE000F6D324B94FF0FF300BB0BDE8F083214674
:104EF00028460DF0F5FA064616B94FF0FF30F3E7F5
:104F00002822002101A811F0E3FE01AA4946284603
:104F10000DF076FB8046B8F1000F02D14FF0FF3064
:104F2000E2E701A94046B04738600020DCE7000016
:104F300000040208636D6400726574700000000074
:104F40002DE9F0410546884616462F4627B93822F6
:104F5000084909A00EF0EAFB34461CB94FF0FF30B7
:104F6000BDE8F08162882188386C0368284698473C
:104F70000020F5E7B3F4010870696E20213D20524E
:104F8000545F4E554C4C00002DE9F04705468946CC
:104F900016461F46A846B8F1000F04D119220A4947
:104FA0000AA00EF0C3FB34460CB1042F02D000203F
:104FB000BDE8F0872188D8F84000826828469047ED
:104FC00060803846F4E700009EF4010870696E20A6
:104FD000213D2052545F4E554C4C00002DE9F047C6
:104FE0000546894616461F46A846B8F1000F04D16B
:104FF00028220A490AA00EF099FB34460CB1042F6E
:1050000002D00020BDE8F08762882188D8F84000EF
:105010004368284698473846F4E70000A8F401089A
:1050200070696E20213D2052545F4E554C4C00005B
:10503000D0E904215161D0E904121161D0E90221C3
:10504000D160D0E9021291607047000070B504464B
:1050500024B95F22134914A00EF068FBA06A0078FF
:10506000232809D1A16AE069884205D9D4E90A0157
:105070000844E16988420AD2214610A010F04CFE93
:10508000FBF7BAF8054600BF002DFDD108E0A06A85
:105090002030E169814203D821460FA010F03CFE88
:1050A00070BD00008500020874687265616420218B
:1050B0003D2052545F4E554C4C00000074687265A0
:1050C00061643A257320737461636B206F76657237
:1050D000666C6F770A0000007761726E696E673ADE
:1050E00020257320737461636B20697320636C6F78
:1050F000736520746F20656E64206F662073746121
:10510000636B20616464726573732E0A0000000093
:1051100070B5044606480068FBF754F8451E05487C
:1051200050F83500A0F114062560304670BD00002F
:10513000C8020020DC25002010B50948006868B9C5
:1051400000BF08A010F0E8FD0A4810F0E5FD0AA035
:1051500010F0E2FD00BF01200149086010BD000011
:10516000B00100201B5B33336D5B572F5541525408
:105170005D200000640C02081B5B306D0A0000001B
:105180002DE9F04704460F46904604B12FB94FF47D
:10519000F172404940A00EF0C9FAFBF72DF88246A3
:1051A000A06CC0F38F2000282DD10026E56C2DB90E
:1051B0004FF4F672374943A00EF0B8FA2868012878
:1051C00013D001202860206C006928B940F2F11248
:1051D000304941A00EF0AAFA206C0123424639461C
:1051E000D0F810C02046E04701E06FF006065046B8
:1051F000FBF706F816B94046BDE8F087304613F0D5
:10520000F1FD0020F8E7E56C002620460FF0BCFB1E
:1052100081462DB940F201221E4939A00EF086FACE
:10522000C84501DA464600E04E46E8888119A06C80
:10523000C0F38F20814207D2EA882868811832465D
:10524000384611F015F91CE0A06CC0F38F20EB88F4
:10525000C21A2868C118384611F00AF9EB8803EB26
:10526000060CA36CC3F38F23ACEB0302A36CC3F354
:105270008F233B44B5F806C0A3EB0C00296811F05E
:10528000F7F8314620460FF085FB5046FAF7B8FF95
:105290003046B1E7BBF501082873657269616C207F
:1052A000213D2052545F4E554C4C29202626202863
:1052B0006461746120213D2052545F4E554C4C294D
:1052C0000000000072785F646D6120213D2052541F
:1052D0005F4E554C4C00000073657269616C2D3E49
:1052E0006F70732D3E646D615F7472616E736D6972
:1052F0007420213D2052545F4E554C4C000000005C
:1053000072785F6669666F20213D2052545F4E556A
:105310004C4C00002DE9F047044688461646256DA2
:105320004FF0FF3332464146281D0EF099FE0746E6
:10533000CFB9FAF761FF8146286801280DD0012016
:1053400028604846FAF75CFF206C0223324641464B
:10535000D0F810C02046E04702E04846FAF750FF78
:105360003046BDE8F087384613F03CFD0020F8E7F2
:1053700070B50546EC6C2CB94FF4BA720F4910A009
:105380000EF0D4F9A088E188884207D1A06808B956
:10539000002070BDA86CC0F38F20FAE7A088E188D8
:1053A000884203DDA088E188401AF2E7E088A188FE
:1053B000411AA86CC0F38F20401AEAE764F501088F
:1053C00072785F6669666F20213D2052545F4E55AA
:1053D0004C4C00002DE9F04706460F4615462EB905
:1053E0004FF488721E491FA00EF0A0F9A846F46C75
:1053F0002CB94FF48A721A491FA00EF097F928E0D1
:10540000FAF7FAFE8246E088A188884205D1A068B2
:1054100018B95046FAF7F4FE1DE0E188206810F84C
:105420000190E088401CE080E188B06CC0F38F20E0
:10543000814201DB0020E080A068012801D100202A
:10544000A0605046FAF7DCFE87F800907F1C6D1EC6
:1054500000BF002DD4D100BFA8EB0500BDE8F08748
:1054600046F5010873657269616C20213D20525434
:105470005F4E554C4C00000072785F6669666F2085
:10548000213D2052545F4E554C4C00002DE9F04117
:1054900004460E4615462CB94FF4A0721B491C4811
:1054A0000EF044F9A846276D2FB94FF4A2721749A0
:1054B00018A00EF03BF923E030780A2810D1207EA6
:1054C00000F0400060B1206C0D21826820469047BA
:1054D000401C28B94FF0FF3138460EF0CBF90FE0F1
:1054E0003178206C826820469047401C28B94FF0E4
:1054F000FF3138460EF0BEF902E0761C6D1E00BF8B
:10550000002DD9D1A8EB0500BDE8F08155F50108C3
:1055100074550008747820213D2052545F4E554C3C
:105520004C0000002DE9F04106460F46144626B90E
:10553000DA220F490FA00EF0F9F8A04611E0306C06
:10554000C168304688470546681C00B90BE03D70CD
:105550007F1C641E307E00F0400010B10A2D00D187
:1055600001E0002CEBD100BFA8EB0400BDE8F08106
:1055700026F5010873657269616C20213D20525443
:105580005F4E554C4C0000002DE9F04104460E469C
:10559000154624B9F1220F490F480EF0C7F82F46DF
:1055A00012E030780A2808D1207E00F0400020B1B7
:1055B000206C0D218268204690473178206C8268EB
:1055C00020469047761C6D1E002DEAD1781BBDE861
:1055D000F081000036F5010874550008034611B14A
:1055E000012902D100E000E000BF00BF00207047A9
:1055F0002DE9F0410446884616461F46254625B942
:105600001622094909A00EF091F8E86E20B9172278
:1056100005490AA00EF08AF83B4632460021E86EA2
:1056200014F078F8BDE8F081F3F601086275732094
:10563000213D2052545F4E554C4C00006275732D35
:105640003E6F776E657220213D2052545F4E554C5F
:105650004C0000002DE9F0410446884616461F46DE
:10566000254625B92422094909A00EF05FF8E86E05
:1056700020B9252205490AA00EF058F83B46002221
:105680003146E86E14F046F8BDE8F08108F70108ED
:1056900062757320213D2052545F4E554C4C0000E2
:1056A0006275732D3E6F776E657220213D205254D6
:1056B0005F4E554C4C000000034611B1012902D148
:1056C00000E000E000BF00BF002070472DE9F0417E
:1056D0000446884616461F46254625B968220949CC
:1056E00009A00EF023F8286C20B9692205490BA007
:1056F0000EF01CF83B4632460021284614F00AF80A
:10570000BDE8F08135F7010864657669636520219D
:105710003D2052545F4E554C4C0000006465766944
:1057200063652D3E62757320213D2052545F4E55B6
:105730004C4C00002DE9F0410446884616461F46B1
:10574000254625B97622094909A00DF0EFFF286CFE
:1057500020B9772205490BA00DF0E8FF3B46002257
:105760003146284613F0D6FFBDE8F08149F701081D
:1057700064657669636520213D2052545F4E554C27
:105780004C0000006465766963652D3E6275732088
:10579000213D2052545F4E554C4C000070B514F022
:1057A000B5FB0446FAF728FD0546204612F022FD17
:1057B00004F14C0014F00EFE042084F8340020465E
:1057C00014F0E4F92846FAF71BFD12F017FC70BD3F
:1057D0002DE9FC5F04468B4615461E46DDE90C9A12
:1057E000DDE90E7804F114004060006000BF25621E
:1057F0006662C4F82890C4F82CA02321D4E90A02D8
:1058000011F066FAD4E90A3C63441A1F184BD4E934
:10581000080110F07FF9E061202F04DBBE2215495A
:1058200015A00DF083FF303467710020A060E060A8
:105830002074C4F81480C4F8188020602071A0641B
:10584000E064303C00902346144A2146019004F164
:105850004C0014F02FFE00BF1148006818B120461C
:105860000F490968884700BF0020BDE8FC9F000081
:105870009D570008E30002087072696F72697479BD
:10588000203C2052545F5448524541445F50524995
:105890004F524954595F4D4158000000A558000827
:1058A000E802002070B505462C4624B98722164927
:1058B00016A00DF03BFF94F8340000F0070002281A
:1058C00004D08822104916A00DF030FF204612F0B7
:1058D000A1FA012804D089220B4920480DF026FFA7
:1058E000FAF78AFC06466FF00100206304F1140009
:1058F00010F0A7FA204612F02FFC3046FAF780FC91
:1059000012F07CFB70BD0000D30002087468726561
:10591000616420213D2052545F4E554C4C000000E4
:10592000287468726561642D3E737461742026204A
:1059300052545F5448524541445F535441545F4D63
:1059400041534B29203D3D2052545F54485245411C
:10595000445F53555350454E44000000D413020891
:105960002DE9F04704460E4617469846DDF820908C
:1059700084F80990607A20F001006072E661276285
:105980000020A062C4F82480002506E004F1140180
:1059900001EBC50010F0ECF96D1C012DF6DBBDE844
:1059A000F08770B50546002406E005F1140101EB0F
:1059B000C40010F04FFA641C012CF6DB70BD00002F
:1059C0002DE9FE4F8146884616461C46002509F102
:1059D00020074FF0010B08EB0601D9F810008142B7
:1059E0000DD900BF49A010F097F94CA010F094F920
:1059F00054A010F091F900BF0520BDE8FE8FB868F3
:105A000010B13846B968884708F0010070B12046E7
:105A1000641C414608F1010801231A4600904846DB
:105A20000CF0E2FE054605B164E0761E0121484611
:105A300016F088FB054605B15CE0AD208DF804004A
:105A400045E0BBF1000F18D00DF105024146484674
:105A50000AF07EFA99F8350008B1052000E004202C
:105A60008246207801A901F80A00617801AA0AF1AA
:105A7000010011544FF0000B07E04FF0010A2078AD
:105A80008DF8050060788DF8060000200090034630
:105A90000AF1020201A93846D7F804C0E0470546DA
:105AA0005DB100BF19A010F037F928A010F034F94B
:105AB00024A010F031F900BF1CE0484619F06CFA40
:105AC000054605B116E0B61E08F10208A41C022E18
:105AD000B7D20021484616F035FB05464DB9012ED8
