:020000040802F0
:10000000A01F01206D030208750302088D04020879
:10001000790302087B0302087D0302080000000048
:100020000000000000000000000000007F03020844
:100030008103020800000000DB030208119002089F
:100040008703020887030208870302088703020860
:10005000870302088703020813490208614902085E
:100060007349020885490208974902088703020874
:100070008703020887030208870302088703020830
:100080008703020887030208870302088703020820
:10009000870302088703020887030208A9490208A8
:1000A0008703020887030208870302088703020800
:1000B00087030208870302088703020887030208F0
:1000C00087030208870302088703020887030208E0
:1000D00087030208DD97020887030208F5970208E4
:1000E00025490208870302088703020887030208DC
:1000F00087030208870302088703020887030208B0
:1001000087030208458B0208870302088703020859
:10011000870302088703020887030208870302088F
:10012000870302088703020895470208870302082D
:10013000870302088703020887030208870302086F
:10014000870302088703020887030208870302085F
:100150008703020887030208AD47020887030208E5
:10016000870302088703020887030208870302083F
:1001700087030208870302088703020800000000C3
:10018000870302088703020800F002F800F0BCF8B9
:100190000AA090E8000C82448344AAF10107DA45E2
:1001A00001D100F0B1F8AFF2090EBAE80F0013F078
:1001B000010F18BFFB1A43F001031847E0310C0090
:1001C00000320C0010F8013B0A4413F0030408BF8E
:1001D00010F8014B1D1108BF10F8015B641E05D01B
:1001E00010F8016B641E01F8016BF9D1002D15D0D8
:1001F00010F8014B03F00C030C2BA1EB04040ABF15
:1002000010F8013BA4EB8314A4EB032405F10103D4
:1002100014F8016B5B1E01F8016BF9D5914238BFF0
:1002200010F8013BD1D3704700230024002500269D
:10023000103A28BF78C1FBD8520728BF30C148BF49
:100240000B6070476E2901F05A81702900F02183FC
:10025000662923F03A89652923F03789672923F035
:100260003489612923F0338903681B0A28BF41F0D0
:100270008001692900F09282642900F08F8275293B
:1002800000F08C826F2901F06884782900F0ED82FB
:10029000E92901F00384E42901F00084F52901F043
:1002A000FD83EF2901F06584F82900F0EC820368F2
:1002B000DB0928BF41F08001632901F072837329B3
:1002C00001F07783E32902F01385F32902F0188502
:1002D000002070471FB5A3F0EBF800F02CFE01F0F2
:1002E0009FF8040000200021A2F054FE401C606032
:1002F00000200021A2F064FEE06003F02DF81FBD95
:1003000010B503F092F810BD03F000F91146FFF7A5
:10031000E1FF04F0B9F803F076FB03B4FFF7F0FF58
:1003200003BC0EF09AFC0000002804D090FAA0F064
:10033000B0FA80F0401C70470B49D1F800C04A6801
:100340005CF8043B1068184442F8040B8C4528BF45
:10035000A1F1DC0C8A4228BFA1F1DC02C1F800C087
:100360004A6020F0004070473C180120094880474F
:1003700009480047FEE7FEE7FEE7FEE7FEE7FEE787
:10038000FEE7FEE7FEE7FEE704480549054A064B9F
:10039000704700002991020889010208A019012074
:1003A000A01F0120A01B0120A01B0120EFF3108043
:1003B00072B6704780F310887047424A1368012B69
:1003C00004D04FF0010313603F4A10603F4A1160B0
:1003D0003F484FF0805101607047EFF3108272B6D2
:1003E0003848016851B34FF0000101603648016898
:1003F00091B1EFF309811EF0100F08BF21ED108BB2
:1004000021E9F00F4FF000041EF0100F08BF012487
:1004100041F8044D006801602C490968096808C961
:10042000B1E8F00F002B18BFB1EC108B81F30988F5
:100430004EF0100E002B18BF2EF0100E82F3108815
:100440004EF0040E704721490860EFF3148222F049
:10045000040282F314881C494FF000000860194917
:100460004FF0010008601B481B49D0F8002041EA0A
:100470000201016016484FF0805101601748006882
:10048000006880F3088861B662B670471EF0040FFA
:100490000CBFEFF30880EFF3098020E9F00F40F87C
:1004A00004ED40F804ED1EF0040F0CBF80F3088843
:1004B00080F3098800B57DF00DFE5DF804EB4EF089
:1004C000040E7047140000200C00002010000020D3
:1004D00004ED00E020ED00E00000FFFF08ED00E08B
:1004E0007047000010B500F09BFF001D10BD00BF5D
:1004F000A52A0A0000487047441801207047704739
:1005000053EA020C00F069802DE9F04B4FF0000631
:10051000002B1FBFB3FA83F503FA05F424FA05F69E
:100520005E4012BF1643B2FA82F502FA05F4C5F135
:1005300020051EBF22FA05FC44EA0C04203556EAC9
:10054000044C4FEA144418BF641C4FF000084FF0ED
:100550000009904271EB030C39D3002919BFB1FA9D
:1005600081F701FA07F6B0FA80F700FA07F6C7F14B
:1005700020071EBF20FA07FC46EA0C062037B6FB10
:10058000F4FCA7EB0507103F07F01F0BCBF120068B
:100590000CFA0BFB2CFA06F644BFB3460026202FBC
:1005A000A4BF5E464FF0000B5BEA060C08BF4FF09D
:1005B000010B19EB0B09ABFB027C48EB0608C01BD7
:1005C00006FB02CC0BFB03CC71EB0C01C1E70B4625
:1005D000024641464846BDE8F08B13B54FF0000097
:1005E0004FF0000100F01AFFBDE81C407047B2F167
:1005F00020030AD5C2F1200301FA02F120FA03F325
:1006000000FA02F041EA0301704700FA03F14FF0EB
:100610000000704710B54C1084EA530404D54042E2
:10062000C1F1000138BF491E1B4204D55242C3F13B
:10063000000338BF5B1EFFF763FF14F0804F04D048
:100640004042C1F1000138BF491E14F0004F04D0F0
:100650005242C3F1000338BF5B1E10BD10B5044603
:10066000FFF740FF0068005DC00602D504F12000DE
:1006700010BD204610BD00007CB51D4616460C007E
:10068000009001D02044401E074B7B442A46694617
:100690000190304601F05BF905461CB10020694627
:1006A00001F068F928467CBDF11200000FB404493E
:1006B00010B503AA029801F081F910BC5DF814FB93
:1006C000F81801200FB47CB50C0009AA009001D0E5
:1006D0002044401E084B7B4469460190089801F075
:1006E00036F905461CB10020694601F043F9284659
:1006F0007CBC5DF814FB0000A512000070B5044638
:1007000085690068C10601D5302600E02026C007B3
:1007100007D070BDD4E9012130469047206A401CC3
:1007200020626D1EF6D570BD70B5044685690078EF
:10073000C00707D170BDD4E9012120209047206A6D
:10074000401C20626D1EF6D570BD70B50C46054686
:10075000012A05D02878800600D5EA69002302E046
:10076000012305E05B1C934202D2E05C0028F9D132
:10077000A869E618C01AA861286A184428622846A1
:10078000FFF7BCFF04E0D5E9012114F8010B904705
:10079000B442F8D32846FFF7C7FF70BD2DE9F041FA
:1007A0000646002410687529314616A510D000F0C1
:1007B0003BFE002802DA404213A507E031688A07B1
:1007C00001D512A502E0490704D511A5012401E0D5
:1007D00000F033FE00210A2206F1240709E0B0FBF5
:1007E000F2FCB0FBF2F302FB1C00303078541846E8
:1007F000491C0028F3D123462A463046BDE8F04183
:1008000000F024BE000000002D0000002B000000BE
:1008100020000000F0B40D460188090502D5214CE6
:100820007C4402E01F4C7C440E34002100F124067D
:1008300008E002F00F071209E75D42EA03721B09A4
:100840007754491C52EA0307F3D1027800231207B8
:1008500004D5702D06D009B1022311342246F0BC14
:1008600000F0F4BD01231034F8E770B504460D46DE
:100870002146106800F0E1FD024629462046BDE809
:1008800070400023C6E7D21D22F00703D3E90023FE
:10089000C0E70368126843F0200303600823C361C4
:1008A0000023B7E7FACF0B002DE9F05F8946044635
:1008B0004FF0000ADFF874B1FB44C0F820A02046D6
:1008C000E1688847002874D0252806D0D4E90121A2
:1008D0009047206A401C2062F1E700265F462046D0
:1008E000E16888472028054607DB312D05D27819B5
:1008F00010F8200C08B10643F1E7B00701D526F047
:100900000406C4F81CA00027C4F818A02A2D09D09A
:10091000284609F0E5FD38B304EB8708303DC8F8F8
:10092000185019E059F8041B204604EB8702916126
:10093000E1688847012F054618D1E069002820DAD0
:1009400026F020061DE0D8F8180000EB800005EB2B
:1009500040003038C8F818002046E168884705464E
:1009600009F0BEFD0028EED1012F0AD02E2D08D1AE
:100970002046E16888477F1C0546022F46F0200686
:10098000C4DBA069002803DA404246F00106A061FA
:10099000F00701D026F010066C2D0BD0682D09D081
:1009A0004C2D39D06A2D35D0742D35D07A2D33D0D9
:1009B00016E038E0E1682F4620468847B8420546F1
:1009C00009D16C2F26D04FF48060E16806432046A1
:1009D0008847054604E06C2F1AD04FF48070064318
:1009E0000DB3A5F14100192802D8203546F4006660
:1009F0004A462946204626604E46FFF723FC80B132
:100A000001280BD0F61D26F0070000F1080956E773
:100A10004020E4E78020D8E70020D6E706F104096B
:100A20004DE7284652E7206ABDE8F09F8ACF0B00C9
:100A300000B58DB0099000920B904FF0FF300A90F6
:100A400000200C90054878440690054878446A4692
:100A5000079009A801F044FC0DB000BDB7180000D4
:100A6000CF1800000FB400B58DB010A90990009107
:100A70000B904FF0FF300A9000200C90064878440D
:100A80000690064878446A4607900F9909A801F035
:100A900027FC0DB05DF814FB7F18000097180000CC
:100AA0002DE9FF5F1D464FF0FF3B91464FF00008D8
:100AB0005F46D5E90146A96901987F1C8847296AE4
:100AC000824688470028F6D1BAF1FF3F0CD0002EAD
:100AD00024F4C06419DD600614D5BAF12B0F09D0D7
:100AE000BAF12D0F0ED103E0584604B0BDE8F09FD7
:100AF00044F48064A96901987F1C8847761E824669
:100B0000002E02DDBAF1300F03D0B9F1000F26D06C
:100B100032E0A969761E01987F1C44F4007488476E
:100B2000002E824605DDBAF1780F06D0BAF1580FD3
:100B300003D0B9F1000F10D01EE0B9F1000F02D0C0
:100B4000B9F1100F18D1A969761E01987F1C24F401
:100B5000007488478246102002E0082000E00A2046
:100B6000814609E0A96908FB0908761E01987F1CE7
:100B700044F4007488478246002E05DD49465046FD
:100B800001F002F80028EDDAE96901988847A0052C
:100B900002D46FF00100A8E7E00725D1600613D565
:100BA000600502D5C8F1000000E0404629680A1D32
:100BB0002A600968220501D5087015E0220701D5D1
:100BC000088011E008600FE02868011D29600068B6
:100BD000210502D580F8008006E0210702D5A0F8A3
:100BE000008001E0C0F8008038467EE770B5064618
:100BF000FFF780FC0468054630460A22002100F019
:100C00000FF82C6070BD70B50646FFF773FC0468E2
:100C1000054630460A22002100F002F82C6070BD23
:100C20002DE9F04791460F4680460446002614F809
:100C3000015B2DB1FFF756FC0068405DC007F6D19F
:100C40002B2D02D02D2D18D0641E4A463946204641
:100C500001F076FB27B13968A14201D1C7F80080C5
:100C60004FF0020471050BD54042002803DDFFF769
:100C700041FC0460A007BDE8F08746F48066E4E725
:100C80000028F8DAFFF736FC04606FF00040F2E766
:100C9000007B00F0800070472DE9F04104461646C5
:100CA0000D464769007B80072ED038460DF0EAFFDD
:100CB00050BB3EB3012E02D0022E25D104E02046C7
:100CC00000F066F805441DE038460DF0CDFFE16800
:100CD000002841F01001E16005DA204601F038FDFE
:100CE0000120BDE8F081C9030BD56268E16A914239
:100CF00000D81146A26911442269891A814200DD97
:100D000008460544002D01DA0220EAE7E16A60683E
:100D1000E268814206D29103E06203D522F40031F9
:100D200041F01002A6690027AE4213DCE16A81425D
:100D300001D90B4600E0034603EB060C2369ACEB3C
:100D4000030CAC4506DD814201D98C4600E08446A7
:100D50009C4505D1A760276042F02000A5620DE008
:100D6000AD1BE669AE1B8142A66000D90846C01AD9
:100D7000281A20605819606022F0200003490840BA
:100D8000E060002084F84870ABE70000BFCFD7FFD9
:100D900010B50146C268900703D0900607D5886A4F
:100DA0000AE0FFF7A7FB01210160881E10BD8B69D7
:100DB000486818440B69C01A91F848301BB191F883
:100DC0004910401A10BD1103FCD50028FADD401E61
:100DD00010BD00002DE9F0410C46074616461046AE
:100DE00000F06EF82078611C61280AD0722802D0C9
:100DF00077283CD102E00125002405E002250424E7
:100E000002E0082448F2020511F8010B2B2806D055
:100E1000622809D011F8010C74280AD00BE045F0C3
:100E2000030544F00204EFE745F0040544F0010433
:100E3000EAE744F01004384621460DF02DFF411C2E
:100E400015D00021316171604FF40071F560F161DE
:100E50007061200704D5304602220021FFF71CFFF5
:100E6000306D40F0010030653046BDE8F081002073
:100E7000FBE72DE9F0410D460646104C206DC107F9
:100E800004D0410804D020F00104F7E722460EE028
:100E9000542057F020FD07000ED0206D47F00101CF
:100EA000084354212065384600F01EFA3A46294688
:100EB0003046BDE8F0418DE70020D6E7A4180120B8
:100EC0002DE9F04704464FF000094FF0FF37C568A1
:100ED000D4E90486A80707D0204601F06DFC30460F
:100EE0000DF0B1FE002802DA3846BDE8F08728058B
:100EF00002D5404631F0E2FC4C21204600F0F4F9E6
:100F0000206D20F0010020654846EEE70B4910B542
:100F1000A1F17C020A4CC2E93712372106E000EB4E
:100F2000104342F82130074B00FB03400B1EA1F198
:100F30000101F4DC10BD0120E8E70000DC1701200E
:100F4000E119D666CD0D0100401ECAB210F8011F8E
:100F50008A4202D00029F9D10020704730B50546F9
:100F60000B462A4613F8014B12F8010B08B1A042B8
:100F7000F8D01CB1002802D06D1CF1E7284630BD26
:100F800040EA010310B59B070FD1042A0DD310C806
:100F900008C9121F9C42F8D020BA19BA884201D958
:100FA000012010BD4FF0FF3010BD1AB1D30703D0A0
:100FB000521C07E0002010BD10F8013B11F8014B56
:100FC0001B1B07D110F8013B11F8014B1B1B01D172
:100FD000921EF1D1184610BD40EA0103024630B519
:100FE0009B0710D14FF0013400E008C208C91D1B57
:100FF0009D4315EAC41FF8D013F0FF0102F8011B4E
:101000000DD01B0AF8E711F8013B002B02F8013B59
:1010100005D011F8013B002B02F8013BF3D130BDA4
:101020000022CBB210F8011B994200D1421E0029C8
:10103000F8D11046704710B5431C02E010F8011BB0
:1010400071B18107FAD14FF0013202C88C1A8C437A
:1010500014EAC211F9D0C01A0A0603D0C01E10BD8E
:10106000C01A10BD0A0401D0801E10BD0902FCD0B8
:10107000401E10BD40EA010370B59B072ED14FF012
:101080000136042A2AD308C810C99D1B9D43121F8C
:1010900015EAC61517D0D8B2E1B2401A50EA056178
:1010A00010D198B2A1B2401A50EA05410AD123F0FA
:1010B0007F4024F07F41401A50EA052102D1180EEA
:1010C000A0EB146070BDA342DBD018BA21BA8842ED
:1010D00001D9012070BD4FF0FF3070BD0AB900206A
:1010E00070BD10F8013B11F8014B63B1A3420AD166
:1010F000521E08D010F8013B11F8014B1BB1A3425E
:1011000001D1521EEDD1181B70BD421E12F8013FD5
:10111000002BFBD111F8013B002B02F8013BF9D168
:101120007047032A40F2308010F0030C00F0158065
:1011300011F8013BBCF1020F624498BF11F801CBDA
:1011400000F8013B38BF11F8013BA2F1040298BF3F
:1011500000F801CB38BF00F8013B11F0030300F0A9
:101160006780083AC0F0088051F8043B083A51F80B
:1011700004CBA0E80810F5E7121D5CBF51F8043B52
:1011800040F8043BAFF30080D20724BF11F8013BC5
:1011900011F801CB48BF11F8012B24BF00F8013B27
:1011A00000F801CB48BF00F8012B7047431A28BF55
:1011B0009A427FF6B6AF032A1044114440F22680CB
:1011C00010F0030F1EBF11F8013D521E00F8013D43
:1011D00010F0030F7FF4F6AF11F0030301F0438327
:1011E000083AC0F00B8051F8043D083A51F804CD9C
:1011F00040F8043D40F804CDFFF7F3BF121D5CBF7B
:1012000051F8043D40F8043DAFF30080D20724BFFD
:1012100011F8013D11F801CD48BF11F8012C24BF90
:1012200000F8013D00F801CD48BF00F8012C7047DF
:1012300010B5203AC0F00B80B1E81850203AA0E871
:101240001850B1E81850A0E81850BFF4F5AF5FEAA5
:10125000027C24BFB1E81850A0E8185044BF18C958
:1012600018C0BDE810405FEA827C24BF51F8043BFF
:1012700040F8043B08BF7047D20728BF31F8023B53
:1012800048BF11F8012B28BF20F8023B48BF00F8E7
:10129000012B704702F0FF0343EA032242EA0242B5
:1012A00000F002B84FF000020429C0F0128010F0E4
:1012B000030C00F01B80CCF1040CBCF1020F18BF32
:1012C00000F8012BA8BF20F8022BA1EB0C0100F0C5
:1012D0000DB85FEAC17C24BF00F8012B00F8012B98
:1012E00048BF00F8012B70474FF0000200B51346CD
:1012F00094469646203922BFA0E80C50A0E80C5036
:10130000B1F12001BFF4F7AF090728BFA0E80C50E6
:1013100048BF0CC05DF804EB890028BF40F8042BDF
:1013200008BF704748BF20F8022B11F0804F18BF4C
:1013300000F8012B704710B5044610F0030F08BFEA
:1013400011F0030F40F015804FF0013E121FC0F264
:101350000E8051F8043BA3EB0E0C2CEA030C1CEAA4
:10136000CE1C08BF40F8043BF0D0A1F1040102F10B
:101370000402521E08DB11F8013B002B00F8013B70
:10138000F7D11146FFF78EFF204610BD4FF0013C0C
:1013900050F8042B51F8043B9A4221D1A2EB0C03E4
:1013A000934313EACC1317D150F8042B51F8043BA4
:1013B0009A4215D1A2EB0C03934313EACC130BD141
:1013C00050F8042B51F8043B9A4209D1A2EB0C03CC
:1013D000934313EACC13DBD04FF00000704700BFFB
:1013E000D01A01BAB1FA81F101F0180122FA01F024
:1013F000CB40C1F12001DBB2C0B2C01A2CFA01F31C
:10140000D11A914311EAC311E6D170477047704772
:1014100070470000004870474418012001F04DBAA1
:10142000004870476418012009684A0501D540B298
:101430007047C905FCD500B2704709684A0501D557
:10144000C0B27047C905FCD580B270472DE9F0479E
:101450000D4699469246044600F124080168880624
:1014600004D5E06921F01001216000E00120A842CC
:1014700001DD471B00E00027A1697A1902EB090092
:10148000081AA0612078C00602D42046FFF736F97A
:10149000002608E0D4E901211AF806009047206AE6
:1014A000401C761C20624E45F4DB2078C0060AD52D
:1014B0002046FFF723F906E0D4E9012130209047C8
:1014C000206A401C2062381EA7F10107F4DC07E007
:1014D000D4E9012118F805009047206A401C2062D9
:1014E000281EA5F10105F3DC2046FFF71DF9207841
:1014F000000602D50220BDE8F0870120FBE7116855
:101500000268006A530501D508700AE0D30501D5C9
:10151000088006E0130603D5C217C1E9000200E007
:1015200008600120704770472DE9FF4F0C461E46AA
:101530004FF0FF378BB0D2E90001DDF860800A90F0
:101540008A46C1F30A5505B93D46002108464FF0C9
:101550000000BAF1000F00F4400005DA00EB800053
:101560004FF4400101EA50004FEA9059B9F1010FE0
:1015700000DDB9460A9850EA4A000ED044F61050F1
:10158000A5F2FF3545432F14B8F1000F1ED0754268
:10159000291E1EDDC9F100021CE0B8F1010F4FF059
:1015A000000001D0302103E0F24305E02154401C4B
:1015B000B042FBDB30460022002121540B99C1F8D8
:1015C0000880C1E900200FB0BDE8F08FBD1B6D1C85
:1015D000DEE74A4600DA694206A801F05FFD06AB85
:1015E00093E8070003AB83E8070050460A9902F02E
:1015F000EFFA8DE80700A0F500501F38009003981F
:10160000002D0ADD42F21F014A460844002303A9C7
:101610000390684602F09AFD09E0A0F500504A46A2
:101620001F38002303A90390684602F0B9FD8DE836
:1016300007000004000C03D04FF0FF30410800E029
:101640001046B8F1000F03D00022009215461EE0AC
:10165000751E05D401F036F9303262556D1EF9D58C
:10166000B3460122084302D000227F1C04E0207808
:10167000302801D100227F1E002A099784D01DE066
:10168000112D07DA01F01EF9303262556D1C50EA57
:101690000102F5D1084302D00098C8B10EE0002144
:1016A000681E05E0235C625C63542254401E491CA2
:1016B0008142F7DBAB46A81B401E0990002004F8CE
:1016C0000B000B98099AC0F80880C0E9002B7AE754
:1016D00011264FF0000857E72DE9F04F88460446E1
:1016E000D21D22F0070191B0D1E90001CDE90A0134
:1016F00008F0EDFB02460B98C00F01D02D2007E04B
:101700002068810701D52B2002E0202101EAC000DA
:10171000032A099001D0072A05DB034641462046EB
:1017200001F09CFA0BE12078800601D5E06900E029
:101730000620B8F1650F814606D0B8F1660F18D0C3
:10174000B8F1670F70D131E00020B9F1110F0090AE
:1017500001DB112301E009F101030AAA01A90CA888
:10176000FFF7E2FEDDE90C70002609F10105834672
:1017700047E001204B4600904FF000470AAA01A91C
:101780000CA8FFF7D1FEDDE90DB00C995D460026EF
:1017900010B909F101000D18B9EB050003D4C0F12F
:1017A000FF3609F10105A5EB09002BE0B9F1010FA6
:1017B00001DA4FF001090020B9F1110F00904846FD
:1017C00001DD112300E003460AAA01A90CA8FFF7D6
:1017D000ABFEDDE90C704D460026834620780007FD
:1017E0000AD4AB4500DA5D4601A8012D04DD41199C
:1017F00011F8011C302907D04F4502DA17F1040F08
:1018000004DA012082460FE06D1EEEE7002F02DCB5
:10181000ED1B3E4403E0781CA84200DD7D1CB81B94
:1018200000F1010A4FF000472078000703D4AA45D1
:1018300001DB4FF0FF3A0021B7F1004F0DF14308F3
:101840008DF8431024D002202B23002F01DA7F4291
:101850002D230A21021EA0F1010000DC5FB197FBDD
:10186000F1FC97FBF1F201FB1C7C17460CF1300CEC
:1018700008F801CDEEE7A8F1010003702188090501
:1018800001D5452100E06521A0F1010800F8011C07
:1018900009980FA9A1EB0807FF1D00B1012041190C
:1018A00001EBEA70A1693844081A401EA061207853
:1018B000C00602D42046FEF721FF099828B1D4E9DA
:1018C00001219047206A401C20622078C00622D562
:1018D0002046FEF713FF1EE0002E04DBB34502DDB9
:1018E00001A8805D00E03020D4E901219047206A02
:1018F000401C2062761CAAF101005FEA000A0AD1AE
:10190000FFF78EFDC0680168405CD4E90121904773
:10191000206A401C2062281EA5F10105DCDC07E0DE
:10192000D4E9012118F8010B9047206A401C20627D
:10193000381EA7F10107F3DC2046FEF7F5FE032071
:1019400011B041E601694A1C02610878704700B590
:101950008FB0CDE901310021059105497944CDE9E8
:10196000031011466846FEF79FFF0FB000BD000050
:10197000E5FFFFFF0A6802F8010B0A607047D1E932
:1019800000239A4202D2531C0B601070704710B5AE
:10199000436913B1AFF3008001E0FEF7D6FE0120EA
:1019A00010BD127800F124010A7000224A70012251
:1019B000EDE711684FF0FF32E9E70000074B70B523
:1019C0000D467B44FFF7C3FF04462846FFF760F946
:1019D00010B14FF0FF3070BD204670BDDD0E03002A
:1019E0002DE9FF5F15468A460446DFF8AC80F844CF
:1019F0000027D8E900103E46CDE9001010E03AF883
:101A000016106A4602A801F061FD411C07D021783A
:101A1000890603D5E269391891420DD80744761C2E
:101A20002078800602D5E069B84205DDAE42E6DBEB
:101A30003AF816000028E2D1A069C01BA061204638
:101A4000FEF75CFED8E90010CDE90010002017E099
:101A50003AF818106A4602A801F038FDB0F1FF3FCD
:101A600081460BD000250DF1080B05E0D4E90121DA
:101A70001BF8050090476D1C4D45F7D308F1010098
:101A8000B0428046E4DB206A384420622046FEF7FC
:101A90004BFEBDE8FF9F000066BE0B002DE9F04144
:101AA0008046D21D22F007020025D2E90002F52966
:101AB00015A614D0011E72F1000106DA0023D0EB46
:101AC000030063EB020211A608E0D8F800108B07B0
:101AD00001D50FA602E0490701D50EA60125114642
:101AE000002408F1240704E000F0ECFE30323A55FF
:101AF000641C50EA0102F7D12B463246214640468B
:101B0000BDE8F041FFF7A2BC000000002D0000007E
:101B10002B0000002000000030B4002100F124045C
:101B200008E002F00705D208303542EA4372DB08CC
:101B30006554491C52EA0305F3D10468002310A23E
:101B4000250707D5A40600D421B1C46901230DA23D
:101B5000641EC46130BCFFF779BC10B50446214651
:101B60001068FFF76AFC02462046BDE810400023DB
:101B7000D2E7D21D22F00701D1E90023CCE7000013
:101B800000000000300000003A2800D2303820F079
:101B90002002412A01D3A2F13700884201D34FF03D
:101BA000FF3070472DE9FF4F1C4691464FF0FF353F
:101BB00081B000218A468846D4E90167A16902986C
:101BC0006D1C8847216A834688470028F6D1BBF1FF
:101BD000FF3F0CD0002F26F4C0661ADD700615D525
:101BE000BBF12B0F0AD0BBF12D0F0FD104E04FF04A
:101BF000FF3005B0BDE8F08F46F48066A169029819
:101C00006D1C88477F1E8346002F02DDBBF1300F1D
:101C100003D0B9F1000F2AD025E0A1696D1C02980C
:101C20007F1E46F400768847002F834605DDBBF112
:101C3000780F06D0BBF1580F03D0B9F1000F10D0C8
:101C400011E0B9F1000F02D0B9F1100F0BD1A16969
:101C50006D1C02987F1E26F400768847834610206C
:101C600000E0082081464FEAE970009017E00A2062
:101C7000F8E74346AAFB0928DDF800C07F1E03FBF6
:101C8000098046F4007605F101050AFB0C0112EB10
:101C90000B0A029841EBEB78A16988478346002F35
:101CA00006DD49465846FFF76FFF5FEA000BE0D5B7
:101CB000E16902988847B00502D46FF0010098E707
:101CC000F00718D1700610D55146700505D50023D0
:101CD000D1EB030163EB080200E042462068031DDC
:101CE00023600068C0E9001205E02068011D216042
:101CF0000068C0E900A828467BE72DE9FF5F4FF0A8
:101D000000089946144646469169D2E901A7DDF8D4
:101D100038B001988847054659EA0B0005D009E01C
:101D2000A1690198761C88470546216A284688479C
:101D30000028F5D1681C03D05FEACA7005D015E011
:101D40004FF0FF3004B0BDE8F09F2068011D216016
:101D5000D0F800800AE05FEACA7001D108F8015BA0
:101D6000A169761C01987F1E88470546002F1ADD61
:101D7000681C18D0B9F1000F0DD0E81705EBD06042
:101D8000421120F01F0059F822102A1A0120904019
:101D90000142E0D107E0BBF1000FDCD12846216A07
:101DA00088470028D7D0E16901988847BBF1000F28
:101DB00007D1002E05DD5FEACA7002D1002188F844
:101DC0000010A068B84203DDBBF1000F03D017B1CB
:101DD0006FF00100B6E73046B4E700002DE9FF4F91
:101DE00006468BB00878FF2806D0491C2D2805D060
:101DF00000244FF0000908E000200CE00124F8E77F
:101E000009EB8903491C00EB43090878FF28F7D147
:101E100014B1C9F100008146107800252C46AA466D
:101E200029462D2801D02B2804D1521C2D2813D04F
:101E3000002082468B461078FF280FD04FF0000C10
:101E40000A21521CA5FB017804FB018105FB0C1142
:101E5000C5194BEB0104EEE70120EAE70021084633
:101E60004FF00000BAF1000F02D000EB80004008F4
:101E7000C0F38157012F01DD4FF0FF370E9955EA6E
:101E8000040009EB01080BD04FF0020918F5FA7FA6
:101E900016DA4FEACA70002F706008DD012007E0F3
:101EA0004FEACA70C6E900B00FB0BDE8F08F00205D
:101EB0003060FEF71FFBC0F800901821084616E0BE
:101EC000B8F5FA7F18DD002F02DAF748784401E010
:101ED000F6487844D0E90010C6E9001040EACA701C
:101EE0007060FEF707FBC0F80090142108460FB0A1
:101EF000BDE8F04FA1F0E6BA002108464FF000001F
:101F0000B8F10001099002DAC7F1000200E03A4698
:101F100001DAC8F1000106A801F0C0F806AB93E8A9
:101F2000070003AB83E8070044F23E005BEA0401CC
:101F30000090584604D144F21E012C465D460091A3
:101F4000210C0904014306D10099240444EA1544F4
:101F50002D041039009104F07F41014306D100990E
:101F6000240244EA15642D020839009104F07041FE
:101F7000014306D10099240144EA15742D01091F7B
:101F8000009104F04041014306D10099A40044EAC5
:101F90009574AD00891E009104F00041084304D1FE
:101FA00000986D196441401E00904FF001033A46BD
:101FB0006846B8F1000FCDE9014503A902DD02F042
:101FC00004F901E002F0D7F8BAF1000F04460D461B
:101FD00001D084F00044002108464FF00000099928
:101FE00040F2FF77484010F00C0F07D124F000407A
:101FF000284303D0C4F30A50B84212D1FEF77AFA4C
:10200000C0F80090C4F30A50B8420AD1A8487844F6
:10201000D0E90010C6E9001004F0004108437060E8
:1020200042E7C6E900543FE72DE9FF4F1F464FF056
:10203000000A4FF0FF38454691B0D7E90146CDF888
:102040003CA0FFF7EDF9C0680168405C1090B969E9
:1020500012986D1C8847396A814688470028F6D156
:10206000B9F1FF3F0AD0002E24F4D06411DDB9F19C
:102070002B0F08D0B9F12D0F0BD102E0404615B05F
:1020800013E744F48064B96912986D1C8847761E82
:102090008146600504A901D52D2000E02B20002EEB
:1020A00001F1010B0DF130088DF810003FDDB9F1A1
:1020B000690F08D0B9F1490F05D0B9F16E0F02D000
:1020C000B9F14E0F1CD13B4601A8009580E85002A3
:1020D000DDE912126FF00200A1F05FFAC11CCED14F
:1020E0000EE0B96912986D1C884781461398761ED8
:1020F00044F4007405600F98401C002E0F9016DD0C
:10210000B9F1300FEDD0B9F1780F02D0B9F1580F15
:102110000DD10F9801280AD13B46CDE90054DDE9E5
:102120001212001F0296A1F036FAC11CA7D1109915
:1021300089453ED144F0800406E01399681CAAF159
:10214000010A44F400740860B9696D1C1298761E87
:10215000884730288146F0D02BE01099894505D179
:10216000200603D4761E44F0800418E0484608F0A8
:10217000B7F908B3761E0DF123018B4544F40074C2
:1021800008D2A9F130000BF8010B200607D5AAF1FF
:10219000010003E0200602D40AF101008246A005F6
:1021A00002D51399681C0860B96912986D1C88479C
:1021B0008146002ED1DC53E0002E51DDB9F1650FD0
:1021C00002D0B9F1450F4BD1A00549D5B9696D1CB5
:1021D0001298761E24F440748847002E81460CDD48
:1021E0002B2804D0B9F12D0F07D144F48074B969BC
:1021F00012986D1C8847761E8146E00501D52D2179
:1022000000E02B2108F8011BCDF8008021E0761EAC
:102210000DF13901884544F400740CD2A9F1300065
:1022200010F0FF0088F8000002D10099884509D914
:1022300008F1010806E0E00501D51E4801E042F280
:102240000F708246B96912986D1C884781461398B1
:102250000560002E04DD484608F042F90028D6D17A
:10226000F96912988847FF2053468BF8000088F8D8
:10227000000000200A900B9004AA0CA90AA8FFF7FE
:10228000ADFDA00502D46FF00100F8E614F0240FB4
:1022900012D0E0071CD13868DDE90A12031D3B604B
:1022A0000068C0E9001213E0F4140C00E6140C00FE
:1022B000AA130C00F1D8FFFF0AA9684607F070FFC7
:1022C000E00705D13868009A011D39600068026096
:1022D0002846D4E602681144137801601846704716
:1022E000D160054979445161044979441162002162
:1022F0001161114600F008BDEDFFFFFF610600000F
:10230000426842B1016811F8013B23B1521EC0E995
:102310000012184670470121C160881E704742684C
:102320005AB1C368016843B983688B4205D0491E1E
:10233000521CC0E90012002070474FF0FF30704778
:102340002DE9F05F824615468B4600270AF101040D
:10235000B9460078302801D09DB113E014F8010B84
:102360000127782803D0582801D045B10AE00DB1E3
:10237000102D07D1002714F8010B102502E00825C5
:1023800000E00A250026B0460EE005FB080005FB2C
:1023900006F101271FFA80F801EB1046B6F5803FE1
:1023A00000D3B94614F8010B2946FFF7EDFB0028CE
:1023B000EBDABBF1000F05D00FB1641E00E054460C
:1023C000CBF80040B9F1000F06D0FEF793F80221D8
:1023D0000160C81EBDE8F09F48EA0640FAE7000029
:1023E0000FB4002300B589B00CA900910B99CB6004
:1023F000214B7B440693214B7B44079304236FF0CE
:102400000042CDE901321E4A7A446B4608920246E8
:102410000020A1F0BEF809B05DF814FB70B50646C7
:102420004FF0FF3015460C46324686B00091CDE99C
:10243000010169460020049004A8FFF7D1FF02467D
:102440000498211825B108B1084600E0204628600C
:10245000049800280DD0002A02DD0098884208D098
:102460003246081B69460094CDE9010404A8FFF731
:10247000B7FF06B070BD00000BFFFFFF23FFFFFF9B
:10248000430500002DE9FF4F4FF000089A4614461F
:10249000C146464683B0D2E901B7CDF80080CDF8F9
:1024A0000480916904988847109905465AEA01000A
:1024B00005D009E0A1690498761C88470546216A81
:1024C000284688470028F5D1681C03D05FEACB7006
:1024D00005D02AE04FF0FF3007B0BDE8F08F20684C
:1024E000011D2160D0F800801FE002A86A46E9B211
:1024F00000F0CEFF411C07D0801C09D04FF000092E
:102500005FEACB7007D00AE0E169049888473EE0B3
:102510004FF0010904E0BDF8081028F8021B7F1EE7
:10252000A1690498761C88470546002F1ADD681CAF
:1025300018D0BAF1000F0DD0E81705EBD0604211AA
:1025400020F01F005AF822102A1A01209040014260
:10255000CBD107E010980028C7D12846216A8847C8
:102560000028C2D0E16904988847B9F1000F0ED164
:10257000109830B9002E04DD5FEACB7001D1A8F8C5
:102580000000A068B84202DD109818B117B16FF0D2
:102590000100A1E730469FE72DE9FF4F4FF000080B
:1025A0009B461446454683B0D2E90196CDF800809B
:1025B000CDF804809169DDF848A004988847074663
:1025C0005BEA0A0005D009E0A16904986D1C884700
:1025D0000746216A384688470028F5D1781C03D081
:1025E0005FEAC97005D01BE04FF0FF3007B0BDE8CF
:1025F000F08F2068011D2160D0F8008010E05FEAB4
:10260000C97007D16A464046B9B200F05FFF411C6D
:1026100031D08044A1696D1C0498761E8847074616
:10262000002E14DD781C12D0BBF1000007D03B4611
:10263000DDE9101200F022FD0028E0D107E0BAF138
:10264000000FDCD13846216A88470028D7D0E169DD
:1026500004988847BAF1000F06D1002D04DD5FEA27
:10266000C97001D188F80000A068B04203DDBAF15A
:10267000000F03D016B16FF00100B7E72846B5E7A9
:102680002DE9FF5F9B46144600273D469169D2E93C
:102690000196DDF840A00198884780465BEA0A0071
:1026A00005D009E0A16901986D1C88478046216A20
:1026B000404688470028F5D1B8F1FF3F03D05FEAD4
:1026C000C97005D014E04FF0FF3004B0BDE8F09FB2
:1026D0002068011D216007680AE05FEAC97001D126
:1026E00027F8028BA1696D1C0198761E88478046E9
:1026F000002E15DDB8F1FF3F12D0BBF1000007D06E
:102700004346DDE90E1200F0B9FC0028E5D107E0F0
:10271000BAF1000FE1D14046216A88470028DCD099
:10272000E16901988847BAF1000F05D1002D03DD5A
:102730005FEAC97000D13880A068B04203DDBAF109
:10274000000F03D016B16FF00100BEE72846BCE7CA
:10275000C16821F4001141F08001C1600021816055
:10276000016070472DE9F047814614460E464FF050
:10277000FF383248D5685769054209D03846A16903
:102780000CF0D8FA002811DB2C48C0430540E56066
:102790002B463246494638460CF0D9FAA16920F05A
:1027A0000042B21A11440028A16103D02046FFF76D
:1027B000CFFF4046BDE8F08770B504460569C06AA2
:1027C0006168884200D80846E16821F42011E16080
:1027D000C90312D5A84208D02246411B2846FFF75C
:1027E000C1FF10B14FF0FF3070BD0020E562C4E9B9
:1027F0000150E06820F48030E060002070BD10B52A
:102800000446C06820F02000E060A16AA069884208
:102810000DD02046FFF7D0FFE06820F4405040F094
:102820001000E060A06AA0612069E062606044F28C
:102830004001E0688843E06010BD00001000020025
:10284000431A28BF9A427EF6F3AC104410F0030FEF
:1028500011441EBF11F8013D521E00F8013D10F059
:10286000030F7FF4F6AF103AC0F00A8010B531E9DB
:102870001850103A20E91850BFF4F9AFBDE81040E5
:10288000530724BF31E9081020E9081044BF51F86C
:10289000043D40F8043D12F0030F08BF7047D20713
:1028A00028BF31F8023D48BF11F8012C28BF20F89D
:1028B000023D48BF00F8012C704707B5022001F027
:1028C000ABF807BD30B5B0F10A024FEA900E71F1D6
:1028D00000034EEA817EB0EB0E0061EB91014FEAFE
:1028E000101E4EEA017E10EB0E0041EB11114FEA73
:1028F000102E4EEA016E10EB0E0041EB11214FEA53
:10290000104E4EEA014E10EB0E0041EB1141401803
:1029100041F100014FEAD00040EA41704FEAD10195
:1029200010EB80054FEA810444EA907444EB010403
:102930006D1944EB0404521BA3414FF0000348BF40
:102940000A3200D530BD401C41F1000130BD10B548
:102950000446FDF7C7FD0068005D00F0010010BDF2
:102960002DE9F04F04460D46D21D22F0070089B034
:10297000D0E900974846394607F0A9FA0246F80F11
:1029800001D02D2307E02068810701D52B2302E029
:10299000202101EAC0038DF820300BB1012000E0B6
:1029A0000020032A824601D0072A04DB294620465C
:1029B00000F054F93FE12078800601D40D2500E0B5
:1029C000E569C7F30A560D2D49DA00214FEA175B76
:1029D00008464FF00000002F00F4400007DA00EB3B
:1029E00080004FF4400100EBD07001EA60008115D7
:1029F000012901DD4FF0FF3100224FEA850CBCF1C7
:102A0000180F06D31346ACF118004FF08052C240A5
:102A100003E04FF4801323FA0CF30CF10C0CBCF11F
:102A2000200F04D3ACF1200C09FA0CF001E007FAF6
:102A30000CF000294FF0004801DD18B90FE00ED16D
:102A400040450CD319EB02095F4121B9404502D141
:102A50009F4329EA0209BBEB175F00D0761C208850
:102A6000000502D57B48784402E07A48784419385A
:102A700008AA302302F80A30037C0AF10101002E73
:102A80000AF1020A53546A4602DC4FF0300101E0B9
:102A90004FF031014FF001088DF8001002D0A6F27E
:102AA000FF3603E059EA470100D06B4E002D02DCEF
:102AB0002178090704D54FF002082E218DF8011066
:102AC000C44600210BE0C7F303433F01C35C491C2C
:102AD0006D1E02F80830052908F1010801DA002D01
:102AE000F1DC00210CE000EB1973491C1B786D1E12
:102AF000082902F808304FEA091908F1010801DA3B
:102B0000002DF0DC21688B0602D516E0A8F1010843
:102B1000E04505DD02EB080313F8013C302BF5D04E
:102B2000B8F1000F09DD02EB080313F8013C2E2B6E
:102B300003D1090701D4A8F10108002D05DD3E21CC
:102B400002F808106D1E08F10108407C002E02F802
:102B5000080008F1010804DA2D20764202F8080086
:102B600002E02B2002F808000A214FF47A70864216
:102B700008F101080BDB96FBF0F3303302F8083064
:102B800096FBF0F308F1010800FB136601E0642EE8
:102B90000CDB642096FBF0F3303302F8083096FB30
:102BA000F0F308F1010800FB136601E00A2E06DBD2
:102BB00096FBF1F0303002F8080008F1010896FBAE
:102BC000F1F001FB1060303002F80800A16908F153
:102BD000010808EB050202EB0A00081AA061207840
:102BE000C00602D42046FDF789FD216A08AE01EB3C
:102BF0000A00206204E0D4E9012116F8010B904795
:102C0000BAF1010AF7D22078C00602D52046FDF7B6
:102C100075FD6E4609E016F8010B3E280FD0D4E989
:102C200001219047206A401C2062B8F10108F2D2CD
:102C30002046FDF779FD09B00320BDE8F08F206A3A
:102C40002844206203E0D4E90121302090476D1E22
:102C5000EBD3F8E709AE0B0002FCFFFF2DE9F041D2
:102C60001F46044603260168072A01F4006004DBBE
:102C700008B116A505E016A503E008B115A500E00A
:102C800015A521F010002060A069C01EA0610FB141
:102C9000401EA0612046FDF731FD4FB1D4E901216E
:102CA00038469047206A401C2062C01C206206E023
:102CB000206AFAE7D4E9012115F8010B9047761E46
:102CC000F8D22046FDF730FDBDE8F0814E414E00C0
:102CD0006E616E00494E4600696E660010B543692C
:102CE00013B1AFF3008001E0FEF77AFE012010BDC2
:102CF000128800F1240182840022C2840122EDE7BF
:102D000011684FF0FF32E9E72DE9F34F4FF0000A69
:102D10000C4656468DB001200C9001F10C000B9032
:102D200062690B9801219047051E2DD0252D2CD0CE
:102D3000216A8847C0B162690B9801219047216AD6
:102D400088470028F7D16269411E0B98904700E040
:102D5000761CA1690D988847216A88470028F7D119
:102D6000E1690D988847DBE7A1690D988847A8427B
:102D7000074601D1761CD3E7E1690D9888477F1C8F
:102D800002D1BAF1000F6FD06CE162690B98002795
:102D90003D46394690472A2804D162690B980121A3
:102DA00090470125DFF8D08262690B980121904796
:102DB000A0F130010A290AD24745E5DC07EB87017B
:102DC00000EB4107303FDFD445F01005ECE7E906A2
:102DD00001D46FF000476C280AD04C2814D0682822
:102DE00015D06A280DD074281CD07A281AD01DE07E
:102DF00062690B98012190476C2802D045F00405C8
:102E000014E045F002050DE045F020050AE0626996
:102E10000B9801219047682802D045F0080505E08D
:102E200045F4006562690B9801219047C4E9015798
:102E300065283DD019DC58287AD00CDC452837D0DD
:102E400004DC252826D041289ED131E046282FD009
:102E5000472899D12CE05B2877D0612828D06328B7
:102E60007CD0642823D15AE0F7E06F2848D008DCF2
:102E700066281DD067281BD0692821D06E2816D15E
:102E800027E0702845D0732868D0752847D0782867
:102E90000DD14DE0A1690D988847252805463FF4DE
:102EA00069AFE1690D9888476D1C3FF46AAFD9E0BE
:102EB0000D9923466A466FF00100A0F06AFBC6E058
:102EC00045F0400023464FF000026060A80736D46A
:102ED0003EE0E8077FF447AF2068011D21600068ED
:102EE000290501D506701BE7290701D5068017E7DC
:102EF000A90703D5F117C0E9006111E706600FE7E4
:102F000045F0400023464FF008026060A80716D441
:102F10001EE040F60E0125EA0100606016E045F073
:102F2000400023464FF00A026060A80707D40FE074
:102F300045F040006060A80708D5234610220D998F
:102F40006FF00100FEF72EFE81E007E0102223461D
:102F50000D996FF00100FDF7A3FD78E04FF0000937
:102F600063284F46C8464B46CB4602D05B2807D065
:102F700039E02079C00601D40120A060012732E0A9
:102F80006269D4F80CB00B98012190475E2807D1F4
:102F90004FF0010949466269D4F80CB00B9890478C
:102FA000216939B900210A4603AB43F82120491CA5
:102FB0000829FADBD8B3216949B308F1010862692D
:102FC0000B98012190475D28F4D1B9F1000F09D089
:102FD000002003A951F82020D24341F82020401CB2
:102FE0000828F7DB03AB2069002820794FEA4070FE
:102FF0001ED05B462246CDF80080CDE901970D99A1
:1030000000286FF0010020DAFFF73AFB1FE0C1173C
:1030100003AA00EBD1614B1121F01F0102EB8302E7
:10302000411A13680120884003431360C7E719E081
:103030000D99224600286FF00100009702DAFFF791
:1030400021FA04E0FEF759FE01E0FFF7A5FA002897
:103050000ADA401C06D10C9820B14FF0FF300FB0B7
:10306000BDE8F08F5046FAE7E90701D10AF1010AFD
:10307000064400200C9053E6CCCCCC0C10B508E0F4
:1030800030F8024B9C4204D10AB1002010BD01204F
:1030900010BD491EF4D2104610BD00002DE9F047C6
:1030A000814616468AB0354878440DC88DE80D0033
:1030B00032487844801C03AC0DC884E80D0041F60A
:1030C0009B300844372190FBF1F290FBF1F5A5F11C
:1030D000800501FB12041B3C02D56442012000E084
:1030E0000020DFF898A080460027FA44AAF1BE0A23
:1030F0000EE0E0070AD03246684607EB470101239D
:103100000AEB810101F04CF88DE8070064107F1C88
:10311000002CEED1194F7F44AE3F19E0E80715D0DF
:1031200007EB04100DF1180A90E80E008AE80E0073
:10313000C068F04201D1981908903246012306A9CF
:1031400003A801F02DF803AB83E807006D10641CA1
:10315000002DE3D14FF0010332466946B8F1000F6C
:1031600003A802D000F0F2FF01E001F019F8C9E96C
:103170000001C9F808200AB0BDE8F08758A80B0084
:103180002DE9F04705460C46C86820F4201040F4AD
:103190008000C860800602D50846FFF730FBE06873
:1031A00041F282014FF0FF390140022903D020464D
:1031B000FFF7CEFAB5E000F42041B1F5004F0FD192
:1031C000C00306D56168E06A884200D8084660609E
:1031D00006E02069E062606060690BF045FDA06177
:1031E000A0680022EEB200280DDAE1688B050AD44F
:1031F000C043A06041F490302260E0606068411CF0
:1032000061600670A5E0E0689046226040F40050DE
:10321000E060206968BB60690BF034FD012704F1B0
:103220002405A0B1A08910F4407F08D0E06955F0D2
:1032300052FB206118B1E06840F4006016E0E761DD
:103240002561E06820F4407040F480600EE0E069A1
:1032500055F041FB00282061F1D0E06840F40060A7
:1032600010F4407FE06002D140F48070E06020699B
:103270006060E06825696FF0010AC1051FD56168CB
:10328000E06A884200D80846411B04D022462846FE
:10329000FFF768FAF0BBE068010203D5E562C4E914
:1032A000015854E0691CE1626160E16940F48030DA
:1032B000491EC4E9021030462E70BDE8F0870102B5
:1032C00002D500F480320AE06068411C616006703B
:1032D000E0680A2E40F48030E06006D00022E16A07
:1032E0006068814203D90B4602E00122F7E70346FA
:1032F000A7895B1B7F0503D4E7699F4200DDE2B12C
:10330000814200D80146E5620F1AC4E90158002B3A
:1033100009DD00E005E0224619462846FFF722FABB
:1033200008B14846C9E747B1A069E5626560C01BBE
:10333000A061E06840F01000E060E068000208D59D
:103340006168A069E562491B08446560A061504658
:10335000B3E73046B1E7000010B542485421FDF70D
:10336000C3FF41485421FDF7BFFF40485421FDF7FA
:10337000BBFF3F493B483C4A3F4B08603D490A6020
:103380003A491960531C0365481C10650120086503
:103390003B48344A39A17844FDF71CFD20B9384830
:1033A00078440A3800F03CFB37482F4A35A178446E
:1033B000FDF710FD20B9344878440A3800F030FB9E
:1033C00032482A4A2FA17844FDF704FD20B92F483E
:1033D00078440A3800F024FB40232248DC00002116
:1033E000224600F0EDFA20B125487844543800F028
:1033F00017FB1D4822464023002100F0E1FA20B1CE
:1034000021487844543800F00BFB1848224610231A
:10341000002100F0D5FA002806D01C487844BDE809
:103420001040563800F0FCBA10BD104870B5006D61
:1034300020F001040B48FDF743FD0B48FDF740FD6C
:103440000A48FDF73DFD09E0206D20F0010520460A
:10345000FDF736FD20462FF031FA2C46002CF3D133
:1034600070BD0000A4180120F81801204C1901209B
:10347000BC2D0020C02D0020C42D002072000000B3
:103480009C170A00770000008A170A0079170A00C3
:1034900070B516460C460546FDF724F8036893F808
:1034A0000101012804D0185D68B101202C8070BD95
:1034B000D3F803013246214603F20313034428469E
:1034C000BDE8704018474FF0FF3070BD70B516462C
:1034D0000C460546FDF706F8036893F8010101283C
:1034E00006D0FF2C0FD8185D68B101202C7070BD7C
:1034F000D3F807013246214603F207130344284656
:10350000BDE8704018474FF0FF3070BD7546FDF7BD
:1035100081FFAE4605006946534620F00700854608
:1035200018B020B5FCF730FFBDE820404FF0000692
:103530004FF000074FF000084FF0000B21F007019B
:10354000AC46ACE8C009ACE8C009ACE8C009ACE8DE
:10355000C0098D46704710B5FCF7CCFF006810BD60
:1035600010B50446FCF7C6FF046010BD2DE9FF4FFF
:103570001F464FF03C0987B04FF00042DDE91410C0
:1035800001F10108DDF858A002EA40500390002044
:1035900005908346054604460490B969461E08987E
:1035A0008847AAF1010A0290BAF1000F3BDD0298A8
:1035B0002E2815D01021FEF7E7FA00282EDB4FF059
:1035C000010B0599014317D0B9F1000F0BDB4A46F7
:1035D000C117FDF70CF805430C43A9F1040905E0F8
:1035E000012004900BE008B145F001050120059091
:1035F000049820B9361D02E0049800B1361FB9695D
:10360000089808F101088847BBF1000FAAF1010AE8
:103610000290C9D00999C1F80080C5E702987028C6
:1036200008D0502806D0F96908988847BBF1000FE8
:1036300014D04FE0002002900120BBF1000F049055
:1036400009D0B969089808F101088847AAF1010969
:10365000B9F1000F07DCF969089888476FF001009D
:103660000BB0BDE8F08F2B2804D02D280CD14FF0E3
:10367000FF300490B969089808F101088847A9F15A
:103680000109B9F1000FE6DD411CE4D00A21FEF783
:103690007BFA0028DFDB029908F1010801EB8101C8
:1036A00000EB41000290B969089888470A21FEF7AB
:1036B0006BFA099AA9F10109B9F1000FC2F800806B
:1036C00001DD0028E7DAF96908988847049902982B
:1036D00000FB016655EA040004D004F040410900F3
:1036E00002D006E0039898E0A40044EA9574AD0087
:1036F000B61E04F00041080002D16D196441761E27
:10370000159810F0240F03D04FF00B095C4803E02C
:103710004FF028096FF07D008246564507DAAAEB84
:1037200006018944B9F1410F01DD4FF04109012043
:103730000021A9F10102FCF75AFF024628400B467E
:103740002140084301D0012100E00021501E0291D8
:1037500043F1FF3128402140084301D0012000E01F
:1037600000200299834651EA0B014FD00021084600
:103770004FF00000039900F4400039B100EB8000E5
:103780004FF4400100EBD07001EA60008015012881
:1037900002DD4FF0FF3000E013D0401C36D002981D
:1037A00060B3BBF1000F0CD14A4601200021FCF7A9
:1037B0001EFF28402140084301D0012000E00020E6
:1037C000E0B101204A460021FCF711FF03464019F1
:1037D0000A4661412D1A8C4111D3B9F1400F09DD20
:1037E000159810F0240F02D0AAF1340603E0AAF1D4
:1037F000170600E0761C00254FF0004406E05B1E33
:1038000042F1FF3220EA030521EA0204CAF1010075
:10381000B04206DA1B49039808430190002000904B
:103820000EE0039AC4F3D321E80A0A43164940EA9A
:1038300044500A433146CDE90002684606F00AFDCD
:10384000159810F0240F0BD01598C00715D13868C3
:10385000DDE90012031D3B600068C0E900120CE0C6
:1038600002A8694606F09CFC1598C00705D1386887
:10387000029A011D3960006802604046F0E60000CF
:1038800002FCFFFF0000F07F0000F03F2DE9FF4F3A
:1038900092461D4685B04FF00041DDE9124BDDE94F
:1038A00014727F1E01EA4B50414940F0FF4940EA43
:1038B0000108002122F020004928049102D04E285E
:1038C00028D04CE03BA0012607C88DE80700A96975
:1038D0000698641C88477F1E014606D41DF8060022
:1038E00018B121F0200181420BD0E9690698884780
:1038F000032E34D0082E32D06FF0010009B0BDE89D
:10390000F08F761C032E01D0082EE0D1601CCAF87F
:103910000000DCE7A9690698641C88477F1E2AD44A
:1039200020F02000412826D1A9690698641C884708
:103930007F1E20D420F020004E281CD1A9690698B3
:10394000641C88477F1E48F4002849F48009CAF89F
:10395000004001D4282806D0E969069888475FEA24
:10396000CB7012D022E0A9690698641C88477F1E9C
:1039700001D4002803DAE96906988847BCE72928BA
:10398000F1D1641CCAF80040E9E71BF0240F07D00E
:1039900028680499031D2B600068C0E9001805E041
:1039A0002868021D2A600068C0F800902046A5E73C
:1039B0000000F07F494E46494E495459000000002E
:1039C00070B5C468A50713D0650211D4B2F5807F25
:1039D00009D0B2F5007F06D0B2F5806F08D101237F
:1039E00000F1240106E05D1E6FF07F46B54201D371
:1039F000012070BD0161C361416024F47061114315
:103A0000C160002070BD10B50446AFF300802046B1
:103A1000BDE81040FCF781BC0146022000F004B86C
:103A200001460820AFF3008010B500F077F80028B9
:103A300000D110BDBDE810400BF00FB910B5022841
:103A400003D0410103D50DA112E0002010BD0101FA
:103A500001D50FA10CE0C10001D511A108E0810042
:103A600001D512A104E0400001D513A100E000211E
:103A700015A000F06BF8012010BD0000496E7661C2
:103A80006C6964204F7065726174696F6E0000002C
:103A9000446976696465204279205A65726F000036
:103AA0004F766572666C6F7700000000556E646536
:103AB00072666C6F77000000496E657861637420F0
:103AC000526573756C7400005349474650453A205F
:103AD00041726974686D65746963206578636570A7
:103AE00074696F6E3A20000010B5014602A000F024
:103AF0002DF8012010BD000053494752545245444F
:103B00003A2052656469726563743A2063616E2776
:103B100074206F70656E3A200000000070B50D468D
:103B2000044601464FF0FF30AFF300800246401CD0
:103B300006D0D01C02D0294620469047002070BDF8
:103B400029462046BDE8704000F076BC70B50546B9
:103B50000C460A2000E06D1C0BF0CEFB35B1287836
:103B60000028F8D102E0641C0BF0C6FB14B12078E9
:103B70000028F8D1BDE870400A200BF0BDBB000062
:103B800010B5012805D0002103A0FFF7DFFF0120B9
:103B900010BD09A1F8E7000053494752544D454D67
:103BA0003A204F7574206F662068656170206D65DE
:103BB0006D6F7279000000003A2048656170206DD9
:103BC000656D6F727920636F7272757074656400D1
:103BD0005FEA400C08BF91F0000F4FEA8C234FEAD8
:103BE000C12243EA51514FEA1C5018BF00F5F04082
:103BF0004FEA300018BF41F000415FEA6C5C00F012
:103C00002980BCF1FF3F08BF40F080407047130C93
:103C100006BF12044FF0100C4FF0000C130E04BF3F
:103C200012020CF1080C130F04BF12010CF1040C6A
:103C3000930F04BF92000CF1020CD30F04BF52008B
:103C40000CF1010C11464FF00002A0F11F00A0EB97
:103C50000C00704711F0004F08BF704731F0004171
:103C60003FF4D5AF0B0C06BF09044FF0100C4FF01A
:103C7000000C0B0E04BF09020CF1080C0B0F04BF63
:103C800009010CF1040C8B0F04BF89000CF1020C2C
:103C9000CB0F04BF49000CF1010CCCF12003A0EBC9
:103CA0000C0022FA03F302FA0CF241EA030100F1DC
:103CB0000100704720F07F4C80EA030023F07F472B
:103CC000ACEB070303F57C5300F0004003F1FF0366
:103CD0002DE980494FEA154B09B44FEA144325EA10
:103CE0000B4E24EA03480FF2042606EB132749087B
:103CF0003E785FEA320203FB0667C7F5000707FB61
:103D000006F64FEA54374FEAD64606F1020607FB9D
:103D1000066CCCF1005C4FEA1C472CEA074C07FB11
:103D200006F40CFB06F504EB15464FEA961634BF75
:103D300000204FF000404FEAD13706FB07FC4FEA66
:103D40001C4C0CFB0BF7D21B03FB0CF761EB0701C0
:103D50000CFB0EF7B0EB074072EB17420CFB08F7B9
:103D600034BFA2EB0742B2EB074261EB17414FEAC7
:103D70000C444FEA910706FB07FC4FEA1C4C0CFB76
:103D80000BF7B0EBC74072EB573203FB0CF734BFB5
:103D9000A2EBC742B2EBC74261EB57310CFB0EF707
:103DA000B0EBC70072EB57720CFB08F734BFA2EB05
:103DB000C702B2EBC70261EB5771039F4FEA816103
:103DC00041EA921104EBCC044FEAD1374FEA826208
:103DD00006FB07FC42EA90124FEA80604FEA1C4C57
:103DE0000CFB0BF7D21B03FB0CF761EB07010CFB81
:103DF0000EF7B0EB074072EB17420CFB08F734BF2D
:103E0000A2EB0742B2EB074261EB17414FEA8C5538
:103E10004FEA910704EB9C2406FB07FC4FEA1C4C7D
:103E20000CFB0BF7B0EBC74072EB573203FB0CF700
:103E300034BFA2EBC742B2EBC74261EB57310CFB78
:103E40000EF7B0EBC70072EB57720CFB08F734BFEC
:103E5000A2EBC702B2EBC70261EB577115EB4C2521
:103E60004FEA816141EA92114FEA82624FEAD1370B
:103E700042EA901206FB07FC44F100044FEA80601E
:103E80004FEA1C4C0CFB0BF7D21B03FB0CF761EB4E
:103E900007010CFB0EF7B0EB074072EB17420CFB6F
:103EA00008F734BFA2EB0742B2EB074261EB1741C0
:103EB00015EB1C154FEA813141EA92414FEA8232FB
:103EC00042EA90424FEA80304FEA0C7644F1000417
:103ED00048EA03434EEA0B484FF0000EB2EB080CE1
:103EE00071EB030724BF624639464EEB0E0E4FF0CE
:103EF000000B0018524149414BEB0B0BB2EB080C85
:103F000071EB03077BF1000B24BF624639464EEB91
:103F10000E0E4FF0000B0018524149414BEB0B0BBA
:103F2000B2EB080C71EB03077BF1000B24BF624678
:103F300039464EEB0E0E51EA020718BF46F0010655
:103F400016EB0E7655F1000254F1000103D5BDE8E1
:103F50008901BDE80088BDE88901BDE80048B619BF
:103F6000524141EB0101A3F10103704780807F7E44
:103F70007D7C7B7A797877767675747372717170DF
:103F80006F6E6E6D6C6C6B6A6A6968686766666591
:103F90006464636362616160605F5F5E5E5D5D5C1F
:103FA0005C5B5B5A5A595958585757565655555590
:103FB0005454535352525251515050504F4F4F4EF0
:103FC0004E4D4D4D4C4C4C4B4B4B4A4A4A4949493E
:103FD0004848484747474746464645454544444480
:103FE00044434343434242424241414146EA06463A
:103FF000A3F570534FEA164646EA42564FEAD222DC
:1040000042EA415210B54FEAD121A3F1010300F079
:104010002FF820F0004000F1020C00F0004701EB07
:1040200000501146BCF5006F40EA070000D210BDF9
:10403000BAF1000F0AD01CB503B44FF004004FF0E2
:1040400004014FF000000FBCBDE810404FF000012C
:10405000BBF1010FB9BF04484FF0FF310348002105
:1040600040EA070010BD00BFFFFFEF7F0000F07FB8
:10407000002B9C4630D477002BD01CB54FEA370775
:1040800003B44FF010004FF01001BAF1000F06D04A
:10409000BCF1000FDCBF40F0080040F008014FF019
:1040A00000000FBCBDE810400BF1010BBBF1010F8C
:1040B00008BF5FEA170722BF12F1010211F10101E7
:1040C0004FF0004143F1000300F0004043EA0000DC
:1040D0007047F9D35708D0E746EA064613F1400F78
:1040E0004FEA16461FDD13F1200FDFBF16430A46C5
:1040F000002120335B42BED0C3F1200746EA0646CA
:1041000002FA07F74FEA164646EA0706C3F1200708
:1041100022FA03F201FA07F721FA03F14FF0000344
:1041200042EA0702A7E746EA020646EA06464FEADF
:10413000164646EA0106BCBF46EA0646360C4FF074
:1041400000034FF000024FF0000194E72DE9804C8E
:104150009A46934670B491E8380007C831EA400C9B
:1041600048BF34EA430C03D5FFF7A4FDFFF780FFF7
:10417000F0BCBDE8008C2DE9804C9A46934670B4A3
:1041800091E8380007C831EA400C48BF34EA430CD4
:1041900003D5FFF78FFDFFF729FFF0BCBDE8008CCA
:1041A0002DE9804C9A46934670B491E8380007C8D0
:1041B00010F0804F08BF13F0804F03D100F01AF8C1
:1041C000FFF756FFF0BCBDE8008C2DE9804C9A4605
:1041D000934670B491E8380007C810F0804F08BFCC
:1041E00013F0804F03D100F005F8FFF7FFFEF0BC9D
:1041F000BDE8008C20F07F4780EA030023F07F4C6D
:1042000007EB0C03A3F57C5300F00040A3F1FE0381
:1042100092F0000F00F0B38095F0000F00F077806F
:104220002DE901494FEA11404FEA144621EA0048BE
:1042300000FB06FC24EA064708FB06F607FB08F825
:1042400000FB07F718EB06484CEB164C4FEA124BF5
:1042500018EB07484FEA15464CEB174022EA0B4E85
:104260000BFB06FC25EA06470EFB06F607FB0EFED7
:104270000BFB07F71EEB064E4CEB164C4FF00006FF
:104280001EEB074E4CEB174B18EB0B0840F10000F0
:1042900018EB0E0B58EB000840F100008F1A4FF09E
:1042A00000013CBFC943661B14BFB5EB040C0021E1
:1042B0003CBFC943F61B4FEA17444EEA8E0E27EA6D
:1042C00004454FEA1C4704FB07622CEA074C05FB38
:1042D00007F70CFB05F604FB0CFC16EB074642EB5C
:1042E000174216EB0C4642EB1C421BEB060658EB42
:1042F0000202414146EA9E0601D5BDE80189B61990
:10430000524141EB0101A3F10103BDE801894FEAEC
:1043100014454FEA114724EA054621EA074C05FBFC
:1043200007F406FB07F70CFB06F105FB0CFC11EB91
:10433000074144EB17444FEA124711EB0C4144EBA1
:104340001C4422EA074C05FB07F206FB07F70CFBAF
:1043500006F605FB0CFC16EB074642EB174216EB84
:104360000C4642EB1C456A1854F1000148BF7047E7
:10437000B619524141EB0101A3F10103704795F0D9
:10438000000F37D04FEA11424FEA144721EA0246A4
:1043900024EA074C02FB07F106FB07F70CFB06F4C7
:1043A00002FB0CFC14EB074441EB17414FEA1547A5
:1043B00014EB0C4441EB1C4125EA074C02FB07F5CA
:1043C00006FB07F70CFB06F602FB0CFC16EB074698
:1043D00045EB174516EB0C4645EB1C42121951F103
:1043E000000148BF7047B619524141EB0101A3F1EA
:1043F000010370474FEA14454FEA114724EA054686
:1044000021EA074C05FB07F106FB07F70CFB06F258
:104410004FF0000605FB0CFC12EB074241EB174185
:1044200012EB0C4251EB1C4148BF7047921841EB14
:104430000101A3F101037047401E0D2828BF0D2084
:1044400003A202EB8002012013689B1818477047F3
:10445000FFFFFFFFE9F5FFFFF7FFFFFFF3FFFFFFA0
:10446000EFFFFFFFEBFFFFFFE7FFFFFF7DF6FFFF23
:1044700011F7FFFFDBFFFFFFD7FFFFFFD3FFFFFFBA
:10448000CFFFFFFFCBFFFFFF10B582F049FE0020FA
:1044900010BD00002DE9FF4FABB081468A4616469D
:1044A000389D05A92E980DAB15AACDE90016CDE9CA
:1044B00002051DA924A800F0A7F8082D48D3002460
:1044C00043E0EB08002139E0002031E00DF1140851
:1044D00058F824800DF1900B5BF824B001FB0B0B16
:1044E0000BFB0387DFF8108158F82480DFF80CB14C
:1044F0005BF824B001FB0B88DFF804B15BF824B053
:1045000008FB06B8DFF8FCB05BF824B000FB0B88B2
:1045100008FB03FC002208E007EB02081AF80880F9
:104520000CEB020B09F80B80521C9A42F4D3401C8E
:1045300024AF57F824708742C8D8491C1DAF57F8DC
:1045400024708F42C0D8601C0446072CB9D150E0BB
:1045500000244CE024A850F824006843049005FB94
:1045600006F003904FF000083BE0002732E004988B
:1045700008FB00F007FB050005A951F824100822EC
:1045800002FB010001901C4850F824001B4951F81F
:10459000241008FB010003994843194951F82410DD
:1045A000184A52F8242007FB021101FB0500029073
:1045B0004FF0000B0BE0514601A875F06BFB00902B
:1045C000494602A8009A85F0A2F80BF1010BAB4511
:1045D000F1D37F1C24A850F82400B842C7D808F1B2
:1045E00001081DA850F824004045BED8641C072CC3
:1045F000B0D12FB0BDE8F08FE0D20D0818D30D0870
:10460000C4D20D08FCD20D082DE9F0470446DDE9BF
:10461000097C0B9E089D00203CE0DFF8288158F8BB
:104620002080B844DFF8209159F82090A8EB0908C1
:10463000A8F10108DFF80C9159F82090B8FBF9F8BF
:1046400044F82080DFF8048158F82080E044DFF847
:10465000009159F82090A8EB0908A8F10108DFF8AB
:10466000EC9059F82090B8FBF9F841F8208054F804
:104670002080B8F1000F03D14FF0000841F82080EE
:1046800051F82080B8F1000F03D14FF0000844F832
:104690002080401C0728C0D14FF00008C5F80080DA
:1046A000C3F80080C2F80080002046E054F8208063
:1046B000B8F1000F13D051F82080B8F1000F0ED0E0
:1046C00051F8209054F8208008FB06F808F10708FC
:1046D0004FF0010A0AEBD80809FB08F801E04FF097
:1046E000000852F82090C14400F1010842F82890D7
:1046F00053F8209051F820A054F8208008FB06F8C9
:1047000008F107084FEAD8080AFB089900F10108E8
:1047100043F8289051F8208054F8209008FB09F8BD
:1047200008FB06F808F1070855F8209009EBD809AE
:1047300000F1010845F82890401C0728B6D1BDE8D3
:10474000F0870000FCD20D08C4D20D0818D30D0864
:10475000E0D20D0830B50246002016E012F8015BE9
:1047600080EA0520082300BF00F400442CB141F288
:10477000210484EA4004A0B203E04FF6FF7404EA87
:1047800040005C1EE4B2231EEED14C1E211EE5DA71
:1047900030BD000010B57AF031FE034800F08AFC0D
:1047A0007AF056FE10BD00005831002010B57AF0A6
:1047B00025FE034800F07EFC7AF04AFE10BD0000A2
:1047C000BC3100200146087810381823B0FBF3F202
:1047D0000848805CC865032A05D908686FF309009A
:1047E000001D886503E008686FF309008865886D1F
:1047F00070470000E6350C08014600208A6A8B6984
:10480000CBB932B1012A0DD0022A03D0032A10D12C
:104810000EE000BFCB6A03F08073B3F1807F00D15C
:10482000012007E0CB6AB3F1C07F00D1012001E095
:1048300000E000BF34E08B69B3F5005F1AD132B1FC
:10484000012A07D0022A03D0032A11D10AE000BFAF
:1048500001200EE0CB6A03F08073B3F1807F00D1BA
:10486000012006E0CB6AB3F1C07F00D1012000E057
:1048700000BF15E032B1012A05D0022A04D0032A74
:104880000CD103E000BF00BF012008E0CB6A03F0B9
:104890008073B3F1807F00D1012000E000BF00BF32
:1048A00070472DE9F04106460F4614462546E017AD
:1048B00004EB907082103946304604F04FF9002026
:1048C000BDE8F08130B50468246824F480240568CC
:1048D0002C60046863608468402C04D10468A26082
:1048E0000468E16003E00468A1600468E26030BD30
:1048F0002DE9F04106460F4614462546E01704EB25
:10490000907082103946304604F06CF90020BDE802
:10491000F08110B57AF072FD012000F0DDFF7AF031
:1049200097FD10BD10B57AF069FD4FF4806000F07E
:10493000D3FF4FF4006000F0CFFF4FF4805000F041
:10494000CBFF4FF4005000F0C7FF4FF4804000F061
:10495000C3FF4FF4004000F0BFFF7AF079FD10BDB7
:1049600010B57AF04BFD022000F0B6FF7AF070FD32
:1049700010BD10B57AF042FD042000F0ADFF7AF0D2
:1049800067FD10BD10B57AF039FD082000F0A4FFD6
:104990007AF05EFD10BD10B57AF030FD102000F009
:1049A0009BFF7AF055FD10BD10B57AF027FD202051
:1049B00000F092FF402000F08FFF802000F08CFF7D
:1049C0004FF4807000F088FF4FF4007000F084FF17
:1049D0007AF03EFD10BDF0B50246CEB2090ACDB266
:1049E000090ACCB2090A0B4602F1480757F823C05E
:1049F00002F5896757F824700CEB070002F64807A8
:104A000057F82570784002F6484757F82670384422
:104A1000F0BD000010B5002201B909E0012901D163
:104A20000A0205E0022901D10A0201E04FF44072B6
:104A30000E4B1B6823F440730C4C236023461B6809
:104A40001343236023461B6823F0F80323602346A7
:104A50001B68022444EAC0042343044C2360234619
:104A60001B6843F48033236010BD0000103C0240FB
:104A70001C48006800F40070B0B11A48006820F4C7
:104A800000701849086000BF0846006840F40060E4
:104A900008600846006820F40060086000BF08460F
:104AA000006840F4007008600E48006800F4806000
:104AB000B0B10C48006820F480600A49086000BF6B
:104AC0000846006840F4805008600846006820F4FA
:104AD0008050086000BF0846006840F480600860AD
:104AE00070470000003C02400A4A126822F44072FB
:104AF000084B1A601A46126842F004021A601A46FD
:104B000012684FF4803343EA00231A43014B1A60C2
:104B100070470000103C0240074A126822F44072BD
:104B2000054B1A601A4612681A601A46126842F05B
:104B300001021A6001707047103C024010B50D4927
:104B4000096821F440710B4C21602146096841F449
:104B5000407121602146096841F001012160026035
:104B600000BF00BF00BFBFF36F8F00BF00BF00BF1B
:104B7000436010BD103C0240084A126822F44072A3
:104B8000064B1A601A46126842F480721A601A467E
:104B9000126842F001021A6001807047103C024026
:104BA000084A126822F44072064B1A601A461268CC
:104BB00042F400721A601A46126842F001021A604A
:104BC00001607047103C02402348006800F010006C
:104BD00040B12248C06940F010002049C86110204F
:104BE0001D4908601C48006800F0200040B11B48C7
:104BF000C06940F008001949C861202016490860C2
:104C00001548006800F0400040B11448C06940F009
:104C100004001249C86140200F4908600E4800682E
:104C200000F0800040B10D48C06940F002000B491F
:104C3000C8618020084908600748006800F0020049
:104C400040B10648C06940F020000449C861022014
:104C500001490860704700000C3C0240C82D00204C
:104C600070B50446002500201449C86100F04AFFD1
:104C7000054609E0601C38B124B100F043FF401B39
:104C8000A04201D9032070BD0D48006800F48030B7
:104C90000028EFD10A48006800F0010010B101209F
:104CA000074908600648006800F0F20018B1FFF7F5
:104CB0008BFF0120E7E70020E5E70000C82D00207A
:104CC0000C3C024070B50446B3F5804F13D1D1E9D6
:104CD000000540EA05108D6840EA05208D692843EB
:104CE0008D8940EA054054F82250064E354028434D
:104CF00044F8220003E06FF0704044F822000020E6
:104D000070BD00000000F0CF70B50246086852F890
:104D1000200020F001000E6842F82600886808286C
:104D200001D1402300E00023486818438E683043D7
:104D3000CE6830430E6930434E693043CE6930430C
:104D40000E6A30434E6A30438E6A3043CE6A304337
:104D50000E6B40EA060488690443C86B0443074DA0
:104D600045F4806545F4E025086852F82000A84322
:104D700020430E6842F82600002070BD7FFB08002B
:104D800010B50346D1E9000440EA04108C6840EAFB
:104D900004208C8940EA0444088A401E44EA0054F6
:104DA000087D801E44EA00608C692043541C53F83F
:104DB000244004F040442043541C43F824000020C5
:104DC00010BD2DE9F04303460C461546202D02DAAE
:104DD0000120A84000E00020A0F1010C0320A0EB7E
:104DE000541604F01F0153F8260020FA01F7681842
:104DF000202811DDC1F120004FEAE07800EBD868EF
:104E00004FEA6818A0EB4819A6F1010853F828806A
:104E100008FA09F848EA070707EA0C00BDE8F0833A
:104E20002DE9F04303460C461546202D02DA0120F9
:104E3000A84000E00020A0F1010C0320A0EB5416D4
:104E400004F01F0153F8260020FA01F76818202803
:104E500011DDC1F120004FEAE07800EBD8684FEA9D
:104E60006818A0EB4819A6F1010853F8288008FA41
:104E700009F848EA070707EA0C00BDE8F0830000DC
:104E8000014600202F4A914203D2B1F1006F00D3B6
:104E900056E02D4A914204D22A4A914201D3012080
:104EA0004EE02A4A914204D2274A914201D302207D
:104EB00046E0274A914204D2244A914201D303207A
:104EC0003EE0244A914204D2214A914201D3042077
:104ED00036E0214A914204D21E4A914201D3052074
:104EE0002EE01E4A914204D21B4A914201D3062071
:104EF00026E01B4A914204D2184A914201D307206E
:104F00001EE0184A914204D2154A914201D308206A
:104F100016E0154A914204D2124A914201D3092067
:104F20000EE0124A914204D20F4A914201D30A2064
:104F300006E0B1F1016F03D20C4A914200D30B207D
:104F400070470000004000080080000800C0000812
:104F50000000010800000208000004080000060824
:104F60000000080800000A0800000C0800000E08F5
:104F700070B50446A56D00F0C5FD064694F83500F1
:104F8000022808D08020606500BF002084F834002B
:104F900000BF012070BD2068006820F01600216865
:104FA00008602068406920F0800021684861206C1A
:104FB00008B9A06C28B12068006820F008002168BA
:104FC00008602068006820F001002168086010E097
:104FD00000F098FD801B05280BD920206065032078
:104FE00084F8350000BF002084F8340000BF03209F
:104FF000D0E72068006800F001000028E8D194F8AC
:105000005C103F208840A860012084F8350000BF74
:10501000002084F8340000BF00BFBBE7014691F8D0
:105020003500022803D08020486501207047052004
:1050300081F835000868006820F001000A681060F7
:105040000020F3E770B504460CB9012070BD94F858
:105050003500022800D1F9E72068006820F001003F
:105060002168086000202168086021684860216884
:1050700088602168C8602168086121202168486132
:105080002046FFF79FFB05460020E0632064606434
:10509000A064E064206594F85C103F208840A8601C
:1050A0000020606584F8350000BF84F8340000BF3C
:1050B00000BFCBE7F8B50446002000908C4800689C
:1050C0004FF41651B0FBF1F7A56D2E6894F85C1003
:1050D00008208840304098B12068006800F0040043
:1050E00070B12068006820F004002168086094F81E
:1050F0005C1008208840A860606D40F00100606589
:1051000094F85C1001208840304068B12068406904
:1051100000F0800040B194F85C1001208840A86045
:10512000606D40F00200606594F85C1004208840D7
:10513000304068B12068006800F0020040B194F887
:105140005C1004208840A860606D40F00400606539
:1051500094F85C1010208840304078B320680068D4
:1051600000F0080050B394F85C1010208840A8604C
:105170002068006800F4802080B12068006800F496
:10518000002028B9206CC8B12046216C884715E062
:10519000A06C98B12046A16C88470FE02068006899
:1051A00000F4807028B92068006820F008002168A9
:1051B0000860206C10B12046216C884794F85C1080
:1051C000202088403040002865D02068006800F02A
:1051D000100000285FD094F85C1020208840A86060
:1051E00094F83500052828D12068006820F01600C2
:1051F000216808602068406920F0800021684861CB
:10520000206C08B9A06C28B12068006820F0080064
:105210002168086094F85C103F208840A860012055
:1052200084F8350000BF002084F8340000BF206DF2
:1052300010B12046216D8847F8BD2068006800F451
:10524000802080B12068006800F4002028B9606CDC
:1052500010B12046616C88471DE0E06BD8B1204654
:10526000E16B884717E02068006800F4807068B937
:105270002068006820F0100021680860012084F890
:10528000350000BF002084F8340000BFE06B10B18F
:105290002046E16B8847606D38B3606D00F0010017
:1052A000F0B1052084F835002068006820F0010086
:1052B0002168086000BF0098401C0090B84200D9E7
:1052C00005E02068006800F001000028F3D100BF6D
:1052D000012084F8350000BF002084F8340000BFAE
:1052E000E06C10B12046E16C884700BFA4E70000E5
:1052F000080000202DE9F0410446002500F002FCE2
:10530000074614B90120BDE8F081606A00B100BF12
:10531000022084F8350000BF002084F8340000BF6C
:105320002068006820F00100216808600AE000F0B1
:10533000E9FBC01B052805D920206065032084F8FF
:105340003500E0E72068006800F001000028EED199
:105350002068056821480540D4E901010843E16857
:1053600008432169084361690843A1690843E16969
:105370000843216A08430543606A042803D1D4E93D
:105380000B0108430543206805602068456925F046
:105390000705606A0543606A04280DD1A06A0543C9
:1053A000E06A48B12046FFF727FA28B1402060653F
:1053B000012084F83500A6E7206845612046FFF704
:1053C00001FA064694F85C103F208840B060002047
:1053D0006065012084F83500002094E73F8010F0DC
:1053E0002DE9F04104460D4616461F464FF00008D1
:1053F00000BF94F83400012802D10220BDE8F081FA
:10540000012084F8340000BF94F83500012811D140
:10541000022084F83500002060653B46324629466C
:105420002046FFF74FFA2068006840F0010021682D
:10543000086006E000BF002084F8340000BF4FF091
:1054400002084046DAE72DE9F04704460D461646C5
:105450001F464FF00008D4F8589000BF94F834006D
:10546000012802D10220BDE8F087012084F8340031
:1054700000BF94F83500012825D1022084F83500BA
:10548000002060653B46324629462046FFF71AFA5F
:1054900094F85C103F208840C9F808002068006834
:1054A00040F0160021680860206C28B12068006870
:1054B00040F00800216808602068006840F00100A2
:1054C0002168086006E000BF002084F8340000BFB7
:1054D0004FF002084046C6E72DE9F04104460E466B
:1054E0000127002500BF2548007E012802D10220A7
:1054F000BDE8F08101202149087600BF4CF2503010
:10550000FFF7AEFB0746002F31D1401E3060206808
:1055100001280FD1207C6168FFF7E6FA4CF2503089
:10552000FFF79EFB07461648006820F00400144968
:1055300008601AE0A56812E0217C2846FFF76AFAA5
:105540004CF25030FFF78CFB07460D48006820F006
:10555000FA000B4908600FB1356005E06D1CD4E915
:1055600002100844A842E7D800BFFFF781FA00BF45
:1055700000200249087600BF3846B9E7C82D002050
:10558000103C02400348006840F0004001490860B8
:1055900000207047103C02402DE9F04106460F46BE
:1055A00014461D464FF0010800BF1F48007E012829
:1055B00002D10220BDE8F08101201B49087600BF1E
:1055C0004CF25030FFF74CFB8046B8F1000F23D16E
:1055D00026B9E1B23846FFF79FFA12E0012E04D156
:1055E000A1B23846FFF7C8FA0BE0022E04D12146DB
:1055F0003846FFF7D5FA04E022462B463846FFF737
:105600009DFA4CF25030FFF72BFB804607480068AC
:1056100020F001000549086000BF0020024908761B
:1056200000BF4046C6E70000C82D0020103C0240E5
:1056300000200949096801F0004159B10749064AAB
:105640000C3A1160064911600349096801F00041F4
:1056500001B1012070470000103C02402301674562
:10566000AB89EFCD00B587B0142102A8FBF73CFE53
:105670002A48006808B107B000BD0120274908602A
:1056800000BF002001902648006840F00100244936
:1056900008600846006800F00100019000BF00BFEC
:1056A00088140290022003900020049003200590AB
:1056B0000C20069002A91B4800F01CF94FF68070E0
:1056C00002900220039000200490032005900C20FB
:1056D000069002A9144800F00DF94CF233700290C4
:1056E0000220039000200490032005900C200690D7
:1056F00002A90E4800F0FEF84FF4805002900220FC
:10570000039000200490032005900C20069002A92D
:10571000074800F0EFF800BFADE7000000000020F0
:10572000383802400014024000100240000C0240D1
:1057300000180240F0B50C4600250022002300218D
:1057400094E0012606FA01F504EA0502AA427DD199
:10575000484E8F0856F827308E07370F0F26BE4069
:105760003340454EB04201D1002623E0434EB042C3
:1057700001D101261EE0424EB04201D1022619E0BD
:10578000404EB04201D1032614E03F4EB04201D159
:1057900004260FE03D4EB04201D105260AE03C4E02
:1057A000B04201D1062605E03A4EB04201D10726AB
:1057B00000E008268F073F0FBE409E4224D1364EA0
:1057C00036689643344F3E603E1D366896433F1D13
:1057D0003E60314E0C36366896432F4F0C373E6094
:1057E0003E1F366896433F1F3E608E07370F0F26D9
:1057F00006FA07F31F4E8F0856F827609E431D4F89
:105800004FEA910C47F82C6006684FEA410C0327D9
:1058100007FA0CF7BE430660CF0800F1200656F8E1
:1058200027604F074FEAD76C0F2707FA0CF7BE43E4
:105830004FEAD10C00F1200747F82C60C6684FEA08
:10584000410C032707FA0CF7BE4300E00DE0C660E9
:10585000466801278F40BE43466086684FEA410C88
:10586000032707FA0CF7BE438660491C1029FFF492
:1058700068AFF0BD0838014000000240000402405B
:1058800000080240000C02400010024000140240D8
:1058900000180240001C0240003C014070B5054663
:1058A00028460EF0DFFD044604EB4400094901EBF5
:1058B0008000406858B104EB44020B4603EB8202BF
:1058C000906804EB440203EB82025168884700BFF2
:1058D00070BD00002C00002010B50446044800688C
:1058E000204020B1024804602046FFF7D7FF10BDDA
:1058F000143C0140F8B502460B4600250024002068
:105900000021D6E0012606FA01F51E6806EA050424
:10591000AC4274D11E7906F00306012E04D01E7924
:1059200006F00306022E13D190684F000326BE40F6
:10593000B0434F00DE68BE4030439060506801269F
:105940008E40B0431E79C6F300168E40304350603F
:105950001E7906F00306032E09D0D0684F000326F7
:10596000BE40B0434F009E68BE403043D0601E79B9
:1059700006F00306022E13D1CF0802F1200656F8D6
:1059800027004E07F70E0F26BE40B0434F07FF0E0D
:105990001E69BE403043CF0802F1200646F82700BA
:1059A00010684F000326BE40B0431E7906F0030680
:1059B0004F00BE40304310605E6806F44036002E53
:1059C00076D000BF002600963C4E366846F48046EE
:1059D0003A4F3E603E46366806F48046009600BF69
:1059E00000BF374E8F0856F827008E07370F0F2657
:1059F000BE40B043334EB24202D1002624E057E00D
:105A0000314EB24201D101261EE0304EB24201D1E8
:105A1000022619E02E4EB24201D1032614E02D4E8B
:105A2000B24201D104260FE02B4EB24201D105262D
:105A30000AE02A4EB24201D1062605E0284EB242C3
:105A400001D1072600E008268F073F0FBE403043F4
:105A50001B4E8F0846F82700224E3068A0435E6830
:105A600006F4801606B120431E4E3060361D3068A5
:105A7000A0435E6806F4001606B12043194E361D99
:105A80003060184E361F3068A0435E6806F400365A
:105A900006B12043134E361F3060361F3068A043D6
:105AA0005E6806F4803606B120430E4E083E306034
:105AB000491C1029FFF426AFF8BD0000443802400D
:105AC0000838014000000240000402400008024083
:105AD000000C024000100240001402400018024076
