:020000040800F2
:1000000060110120B1010008B9010008B702000821
:10001000BD010008BF010008C10100080000000088
:10002000000000000000000000000000C301000804
:10003000C50100080000000003020008C94C0008C8
:10004000CB010008CB010008CB010008CB01000860
:10005000CB010008CB0100085B120008A9120008C0
:10006000BB120008CD120008DF120008CB01000807
:10007000CB010008CB010008CB010008CB01000830
:10008000CB010008CB010008CB010008CB01000820
:10009000CB010008CB010008CB010008F1120008D9
:1000A000CB010008CB010008CB010008CB01000800
:1000B000CB010008CB010008CB010008CB010008F0
:1000C000CB010008CB010008CB010008CB010008E0
:1000D000CB01000831660008CB010008CB01000805
:1000E0006D120008CB010008CB010008CB0100080D
:1000F000CB010008CB010008CB010008CB010008B0
:10010000CB010008CB010008CB010008CB0100089F
:10011000CB010008CB010008CB010008CB0100088F
:10012000CB010008CB010008CB010008CB0100087F
:10013000CB010008CB010008CB010008CB0100086F
:10014000CB010008CB010008CB010008CB0100085F
:10015000CB010008CB010008CB010008CB0100084F
:10016000CB010008CB010008CB010008CB0100083F
:10017000CB010008CB010008CB0100080000000003
:10018000CB010008CB010008DFF810D000F0F4FC30
:10019000004800470F0C0008AFF3008060110120F9
:1001A000002804D090FAA0F0B0FA80F0401C70470C
:1001B0000648804706480047FEE7FEE7FEE7FEE701
:1001C000FEE7FEE7FEE7FEE7FEE7FEE7AD4D0008CF
:1001D00089010008EFF3108072B6704780F3108831
:1001E0007047434A1368012B04D04FF0010313609A
:1001F000404A1060404A116040484FF08051016011
:100200007047EFF3108272B63948016851B34FF06E
:10021000000101603748016891B1EFF309811EF0D8
:10022000100F08BF21ED108B21E9F00F4FF00004F3
:100230001EF0100F08BF012441F8044D0068016052
:100240002D490968096808C9B1E8F00F002B18BFEB
:10025000B1EC108B81F309884EF0100E002B18BF03
:100260002EF0100E82F310884EF0040E70472249D3
:100270000860EFF3148222F0040282F314881D490F
:100280004FF0000008601A494FF0010008601C4858
:100290004FF47F01D0F8002041EA020101601748C5
:1002A0004FF08051016017480068006880F30888AB
:1002B00061B662B670471EF0040F0CBFEFF3088002
:1002C000EFF3098020E9F00F40F804ED40F804ED69
:1002D0001EF0040F0CBF80F3088880F3098800B576
:1002E00056F0CEF95DF804EB4EF0040E70470000B6
:1002F000140000200C0000201000002004ED00E09D
:1003000020ED00E008ED00E02DE9F05F054600205B
:1003100092469B4688460646814640241BE0284676
:1003200041464746224600F0CDFA53465A46C01A87
:10033000914110D311461846224600F047F82D1A75
:1003400067EB01084F4622460120002100F03EF8ED
:1003500017EB00094E41201EA4F10104DFDC4846E2
:1003600031462A464346BDE8F09F2DE9F04100247E
:10037000061B254671F1000605DA01240027D0EBA3
:10038000070067EB0101161E73F1000605DA00276E
:10039000D2EB0702012567EB0303FFF7B5FF8646A3
:1003A0000E4617469C46AC4204D00025D0EB050E05
:1003B00065EB010624B10020D2EB000760EB030CD3
:1003C000704631463A466346BDE8F081202A04DB98
:1003D000203A00FA02F1002070479140C2F1200358
:1003E00020FA03F3194390407047A0F14101192905
:1003F00000D82030704700000649074A086850437B
:1004000043F239021044086040087047014908600F
:1004100070470000D00C00206D4EC64110B5431A45
:10042000934209D28318881803E010F8011D03F8DD
:10043000011D521EF9D210BD40EA01039B0703D0F3
:1004400009E008C9121F08C0042AFAD203E011F813
:10045000013B00F8013B521EF9D210BDD2B201E0BF
:1004600000F8012B491EFBD270470022F6E710B5B9
:1004700013460A4604461946FFF7F0FF204610BD12
:10048000421E12F8013F002BFBD111F8013B02F88C
:10049000013B002BF9D1704730B505462A460B4683
:1004A00012F8010B13F8014B08B1A042F8D01CB1AF
:1004B000002802D06D1CF1E7284630BD10B5044677
:1004C00004E00B7800F8013B03B1491C521EF8D23E
:1004D000204610BD421C10F8011B0029FBD1801AD8
:1004E000704710B5002200E0521C835C8C5CA34274
:1004F00001D1002BF8D1D8B2E1B2401A10BD30B50D
:1005000004460020034600E05B1C934203D2E05CFB
:10051000CD5C401BF8D030BD034611F8012B00F82C
:10052000012B002AF9D11846704730B50546002046
:10053000034600E05B1C934205D2EC5CC85C201AC9
:1005400001D1002CF6D130BD0022CBB20178994206
:1005500000D10246401C0029F8D1104670472DE911
:10056000F04791460F4680460446002614F8015B8A
:100570002DB100F0C9F90068405DC007F6D12B2D00
:1005800002D02D2D18D0641E4A463946204600F070
:10059000BFF927B13968A14201D1C7F800807105C0
:1005A0004FF002040BD54042002803DD06F0D8FBD3
:1005B0000460A007BDE8F08746F48066E4E7002801
:1005C000F8DA06F0CDFB04606FF00040F2E770B59A
:1005D000064606F0C5FB046805460A22002130469F
:1005E000FFF7BDFF2C6070BD2DE9FE4F804681EA0C
:1005F0000300C00F0C46009021F0004123F000459D
:10060000B8EB0200A94105D24046214690461C465F
:100610000B46024623F00040104347D0270DC7F396
:100620000A00C3F30A510290401A019040286BDA85
:10063000C3F3130040F4801B0098924620B10023BE
:10064000D2EB030A63EB0B0B01985946C0F1400251
:100650005046FFF7BBFE06460D4650465946019AE6
:1006600000F040F910EB08006141002487EA1152C4
:1006700084EAE7731A4340D0009A62B3019A012AD0
:100680004FEA075215DC001B61EB02014FF00042FC
:1006900002EA0752CDE90042001C41F580113246C2
:1006A0002B4600F093F903B0BDE8F08F4046214699
:1006B000F9E7001B61EB0201001C41F580130018F3
:1006C0005B412018A2F5001747EB030140EAD57003
:1006D000B6196D4111E06D084FEA360645EAC0755E
:1006E0004FEA0752001B61EB0201001C41F580112B
:1006F00049084FEA30000019514132462B4603B0F9
:10070000BDE8F04F00F053B90098012240000023EB
:10071000D0EB020263EBE073009821464FEAE074ED
:10072000B8EB000061EB0401E9E783F000435BE70D
:1007300081F0004158E72DE9FE4F81EA030404F0FF
:10074000004421F0004100944FF0000B23F00043DF
:1007500050EA01045ED052EA03045BD0C3F30A54AA
:10076000C1F30A552C44A4F2F3340194A0FB0254C3
:10077000C1F3130141F48011C3F3130343F4801355
:1007800001FB024400FB034E840A970A44EA8154A9
:1007900047EA8357A4FB076802958D0A05FB078586
:1007A0004FEA932C04FB0C542705029D4FEA065890
:1007B00047EA1637B5EB08056EEB070C870E920E6D
:1007C00047EA811742EA8312A7FB0201B6EB0B014D
:1007D00064EB00042B0D43EA0C335E1844EB1C5011
:1007E000DA465146E7FB0201C5F313044FEA0B3327
:1007F00043EA14534FEA0432019C43EA0603A4F18E
:100800000C040294009CCDE900B400F0DFF803B0C2
:10081000BDE8F08F00200146F9E70EB540F2334104
:1008200002910021CDE900110A460B4600F0CEF8F6
:1008300003B000BDC1F30A5210B5C1F3130140F279
:10084000FF3341F480119A4201DA002010BD40F2DA
:1008500033439A42A2F2334203DC524200F032F8B0
:1008600010BD904010BD000030B5041E71F10004B1
:1008700004DB4FF00044404264EB0101141E73F1AD
:10088000000405DB1C464FF00043524263EB0403B7
:10089000994208BF904230BD30B50B46014600205A
:1008A0002022012409E021FA02F59D4205D303FA32
:1008B00002F5491B04FA02F52844151EA2F10102B3
:1008C000F1DC30BD202A04DB203A21FA02F00021BD
:1008D000704721FA02F3D040C2F120029140084350
:1008E00019467047202A06DBCB17203A41FA02F05E
:1008F00043EAE07306E041FA02F3D040C2F120027D
:10090000914008431946704700487047483007082F
:100910002DE9F05F82460078002715468B460AF1E4
:100920000104B946302801D09DB113E014F8010B41
:100930000127782803D0582801D045B10AE00DB12D
:10094000102D07D10027102514F8010B02E008250F
:1009500000E00A250026B0460EE005FB080005FB76
:1009600006F1012701EB10461FFA80F8B6F5803F2B
:1009700000D3B94614F8010B294600F00FF90028FE
:10098000EBDABBF1000F05D00FB1641E00E0544656
:10099000CBF80040B9F1000F06D006F0E1F90221D2
:1009A0000160C81EBDE8F09F48EA0640FAE710B5AE
:1009B000141E73F1000408DA401C41F10001921882
:1009C0005B411A4301D120F0010010BD2DE9F04D2B
:1009D00092469B4611B1B1FA81F202E0B0FA80F280
:1009E00020329046FFF7F2FC04460F4640EA0A0028
:1009F00041EA0B0153465A46084313D0114653EAC5
:100A0000010019D0C8F140025046FFF75BFF0546D0
:100A10000E46504659464246FFF7D8FC084305D0DB
:100A2000012004E020463946BDE8F08D0020054352
:100A300046EAE0762C4337430A986305E40AA0EBC4
:100A400008000022FD0A44EA47540A3002D500207B
:100A50000146E9E7010510196941DDE9084500197A
:100A60006941BDE8F04DA2E72DE9F04D81EA0304AC
:100A700004F0004B21F0004514464FF0000A23F02B
:100A8000004150EA050220D054EA01021DD0C5F30E
:100A90000A570246C5F31303C1F31300C1F30A5604
:100AA00040F4801543F48013A7EB0608101BD646CC
:100AB00008F2FD3873EB050002D308F1010801E0EC
:100AC00092185B41B8F1000F03DA00200146BDE83F
:100AD000F08D00204FF48011064684460EE0171B6F
:100AE00073EB050705D3121B63EB050306434CEAC2
:100AF000010C49084FEA300092185B4150EA0107A7
:100B0000EDD152EA030012D082EA040083EA050123
:100B1000084305D0101BAB4106D20122002306E09A
:100B200000224FF0004302E06FF0010253101AEB75
:100B300006004CEB085110EB0A0041EB0B01BDE83D
:100B4000F04DFFF734BFC1F30A52C1F3130140F275
:100B5000FF3341F480119A4202DA002001467047C7
:100B600040F233439A42A2F2334202DC5242FFF790
:100B7000A9BEFFF72BBC0000064C074D06E0E0685D
:100B800040F0010394E8070098471034AC42F6D3D4
:100B9000FFF7FEFAC0640708E06407083A2800D2AD
:100BA000303820F02002412A01D3A2F137008842D8
:100BB00001D34FF0FF30704770B58C1810F8015B0F
:100BC00015F0070301D110F8013B2A1106D110F8E6
:100BD000012B03E010F8016B01F8016B5B1EF9D1EA
:100BE0002B0705D40023521E0DD401F8013BFAE770
:100BF00010F8013BCB1A921C03E013F8015B01F8DB
:100C0000015B521EF9D5A142D8D3002070BD10B5AA
:100C10005BF0F3FC002010BD2DE9F04106460025F5
:100C200027E0012700240BE005EB4500134901EB09
:100C3000001030F8140008B9002703E0601C84B2EB
:100C4000182CF1DB00BF97B100240EE0002005EB6B
:100C500045010A4A02EB011121F8140032462146EF
:100C6000284603F011FE601C84B2182CEEDB681CD1
:100C700085B2202DD5DBBDE8F081000080C70020C3
:100C800070B50646FFF7B8FB072190FBF1F201FBB8
:100C90001200FB4908700020FA490880FA490880D0
:100CA000401E488000240DE0002507E00020F749A1
:100CB00001EBC40121F81500681C85B2042DF5DB99
:100CC000601C84B2042CEFDBED48007807285AD270
:100CD000DFE800F0045AB0D0FDFCFB000121EB4836
:100CE0004182818141810181E748B0F90200801C85
:100CF00000EB4000E64A02EB0012E348B0F90000C6
:100D0000401C22F81010E048B0F90200401C00EB33
:100D10004000DF4A02EB0012DB48B0F90000801C03
:100D200022F81010D848B0F90200401C00EB400037
:100D3000D74A02EB0012D448B0F90000401C22F858
:100D40001010D148B0F90200401C00EB4000D04A1E
:100D500002EB0012CC48B0F9000022F81010324625
:100D60000021012003F0A8FD32460121084603F0CE
:100D7000A3FD32460221012003F09EFD32460121EF
:100D8000022003F099FDDAE10121C048818241820D
:100D900081814181BC48B0F90200801C00EB400019
:100DA000BB4A02EB0012B848B0F90000801C22F8E0
:100DB0001010B548B0F90200801C00EB4000B44AA6
:100DC00002EB0012B048B0F90000401C22F81010ED
:100DD000AD48B0F90200401C00EB4000AC4A02EB09
:100DE0000012A948B0F90000801C22F81010A64893
:100DF000B0F90200401C00EB4000A54A02EB0012D3
:100E0000A148B0F90000401C22F8101032460846F4
:100E100003F052FD32460221012003F04DFD32461F
:100E20000121022003F048FD32460221084603F06A
:100E300043FD84E100241AE001219348B0F9020047
:100E4000401C00EB4000924A02EB00108E4AB2F9BF
:100E50000020224420F812108C48083020F814108A
:100E600032462146012003F027FD601C84B2042C89
:100E7000E2DB64E1012185480182818141810181B8
:100E80008148B0F90200801C00EB4000804A02EB70
:100E900000127D48B0F9000022F810107A48B0F92D
:100EA0000200401C00EB4000794A02EB0012764839
:100EB000B0F90000801C22F810107348B0F902004D
:100EC000401C00EB4000724A02E0E3E081E02AE0CF
:100ED00002EB00126C48B0F90000401C22F8101020
:100EE0006948B0F90200401C00EB4000684A02EB80
:100EF00000126548B0F9000022F8101032460021B7
:100F0000012003F0D9FC32460121084603F0D4FC4D
:100F100032460221012003F0CFFC3246002102209C
:100F200003F0CAFC0BE10121584881828181418193
:100F300001815548B0F90200801C00EB4000544A82
:100F400002EB00125048B0F90000801C22F810108B
:100F50004D48B0F90200401C00EB40004C4A02EB47
:100F600000124948B0F90000801C22F810104648D1
:100F7000B0F90200401C00EB4000454A02EB0012B1
:100F80004148B0F90000401C22F810103E48B0F96A
:100F90000200401C00EB40003D4A02EB00123A48C0
:100FA000B0F9000022F8101032460021012003F0B1
:100FB00083FC32460121084603F07EFC32460221C2
:100FC000012003F079FC32460221084603F074FC4C
:100FD000B5E001212D4881824182418101812A4869
:100FE000B0F90200801C00EB4000294A02EB00121D
:100FF0002548B0F90000801C22F810102248B0F9F2
:101000000200801C00EB4000214A02EB00121E4847
:10101000B0F90000401C22F810101B48B0F9020083
:10102000401C00EB40001A4A02EB00121648B0F9CF
:101030000000401C22F810101348B0F90200401CB8
:1010400000EB4000124A02EB00120F48B0F900001A
:1010500022F8101032460021012003F02DFC324608
:101060000121084603F028FC32460121022003F04A
:1010700023FC32460221084603F01EFC5FE000001C
:10108000B8070020BA070020BC07002080CD002050
:1010900080C7002001212B4841820182818141814A
:1010A0002948B0F90200801C00EB4000274A02EBFF
:1010B00000122548B0F90000401C22F81010224808
:1010C000B0F90200801C00EB4000204A02EB001245
:1010D0001D48B0F9000022F810101B48B0F90200BA
:1010E000401C00EB4000194A02EB00121648B0F910
:1010F0000000801C22F810101348B0F90200401CB8
:1011000000EB4000114A02EB00120F48B0F900005A
:10111000401C22F810103246084603F0CDFB324640
:101120000221012003F0C8FB32460021022003F017
:10113000C3FB32460121022003F0BEFB00BF00BF0B
:1011400070BD000080CD0020BC07002080C70020BB
:101150000146087810381823B0FBF3F20848805C89
:10116000C865032A05D908686FF30900001D886562
:1011700003E008686FF309008865886D7047000018
:10118000B4C60608014600208A6A8B69CBB932B121
:10119000012A0DD0022A03D0032A10D10EE000BF8D
:1011A000CB6A03F08073B3F1807F00D1012007E0A8
:1011B000CB6AB3F1C07F00D1012001E000E000BFA5
:1011C00034E08B69B3F5005F1AD132B1012A07D040
:1011D000022A03D0032A11D10AE000BF01200EE049
:1011E000CB6A03F08073B3F1807F00D1012006E069
:1011F000CB6AB3F1C07F00D1012000E000BF15E051
:1012000032B1012A05D0022A04D0032A0CD103E00E
:1012100000BF00BF012008E0CB6A03F08073B3F188
:10122000807F00D1012000E000BF00BF704730B5D3
:101230000468246824F4802405682C6004686360D2
:101240008468402C04D10468A2600468E16003E073
:101250000468A1600468E26030BD10B556F098FAE9
:10126000012000F001FE56F0BDFA10BD10B556F099
:101270008FFA4FF4806000F0F7FD4FF4006000F04B
:10128000F3FD4FF4805000F0EFFD4FF4005000F0FC
:10129000EBFD4FF4804000F0E7FD4FF4004000F01C
:1012A000E3FD56F09FFA10BD10B556F071FA02201A
:1012B00000F0DAFD56F096FA10BD10B556F068FA57
:1012C000042000F0D1FD56F08DFA10BD10B556F097
:1012D0005FFA082000F0C8FD56F084FA10BD10B582
:1012E00056F056FA102000F0BFFD56F07BFA10BD04
:1012F00010B556F04DFA202000F0B6FD402000F069
:10130000B3FD802000F0B0FD4FF4807000F0ACFD24
:101310004FF4007000F0A8FD56F064FA10BD000014
:1013200010B5002201B909E0012901D10A0205E046
:10133000022901D10A0201E04FF440720E4B1B68F2
:1013400023F440730C4C236023461B681343236033
:1013500023461B6823F0F803236023461B680224FE
:1013600044EAC0042343044C236023461B6843F42F
:101370008033236010BD0000103C02401C48006810
:1013800000F40070B0B11A48006820F400701849E9
:10139000086000BF0846006840F400600860084626
:1013A000006820F40060086000BF0846006840F450
:1013B000007008600E48006800F48060B0B10C480E
:1013C000006820F480600A49086000BF0846006891
:1013D00040F4805008600846006820F4805008609F
:1013E00000BF0846006840F4806008607047000055
:1013F000003C02400A4A126822F44072084B1A600C
:101400001A46126842F004021A601A4612684FF433
:10141000803343EA00231A43014B1A6070470000EF
:10142000103C0240074A126822F44072054B1A60D1
:101430001A4612681A601A46126842F001021A60CF
:1014400001707047103C024010B50D49096821F445
:1014500040710B4C21602146096841F440712160C4
:101460002146096841F001012160026000BF00BF10
:1014700000BFBFF36F8F00BF00BF00BF436010BD50
:10148000103C0240084A126822F44072064B1A606F
:101490001A46126842F480721A601A46126842F0C4
:1014A00001021A6001807047103C0240084A12682D
:1014B00022F44072064B1A601A46126842F4007217
:1014C0001A601A46126842F001021A600160704701
:1014D000103C02402348006800F0100040B1224850
:1014E000C06940F010002049C86110201D49086003
:1014F0001C48006800F0200040B11B48C06940F063
:1015000008001949C861202016490860154800687C
:1015100000F0400040B11448C06940F00400124996
:10152000C86140200F4908600E48006800F0800044
:1015300040B10D48C06940F002000B49C8618020ED
:10154000084908600748006800F0020040B10648FA
:10155000C06940F020000449C861022001490860C8
:10156000704700000C3C0240DC0C002070B50446C3
:10157000002500201449C86100F094FD054609E0EB
:10158000601C38B124B100F08DFD401BA04201D990
:10159000032070BD0D48006800F480300028EFD1B2
:1015A0000A48006800F0010010B1012007490860F6
:1015B0000648006800F0F20018B1FFF78BFF012029
:1015C000E7E70020E5E70000DC0C00200C3C0240CF
:1015D00070B504461D460023B5F5804F13D154F86D
:1015E00022300C480340D1E9000640EA06108E681C
:1015F00040EA06208E8940EA06408E693043034364
:1016000044F8223003E06FF0704044F822000020DC
:1016100070BD00000000F0CF10B50346002208683E
:1016200053F8202012480240D1E901042043CC683D
:1016300020430C6920434C6920438C692043CC69CA
:1016400020430C6A20434C6A20438C6A2043CC6AB6
:101650002043CC6B20430C6B20430243886808284E
:1016600001D142F04002086843F82020002010BD5C
:101670008000F0FF30B503460024501C53F8204092
:1016800004F04044D1E9000540EA05108D6840EAC5
:1016900005208D8940EA0545088A401E45EA005527
:1016A000087D801E45EA00608D6928430443501C74
:1016B00043F82040002030BD014600202F4A9142CF
:1016C00003D2B1F1006F00D356E02D4A914204D20B
:1016D0002A4A914201D301204EE02A4A914204D283
:1016E000274A914201D3022046E0274A914204D280
:1016F000244A914201D303203EE0244A914204D27D
:10170000214A914201D3042036E0214A914204D279
:101710001E4A914201D305202EE01E4A914204D276
:101720001B4A914201D3062026E01B4A914204D273
:10173000184A914201D307201EE0184A914204D270
:10174000154A914201D3082016E0154A914204D26D
:10175000124A914201D309200EE0124A914204D26A
:101760000F4A914201D30A2006E0B1F1016F03D282
:101770000C4A914200D30B20704700000040000843
:101780000080000800C000080000010800000208F6
:1017900000000408000006080000080800000A080D
:1017A00000000C0800000E0870B50446A56D00F09E
:1017B00079FC064694F83500022808D08020606540
:1017C00000BF002084F8340000BF012070BD2068F5
:1017D000006820F01600216808602068406920F049
:1017E000800021684861206C08B9A06C28B120688D
:1017F000006820F00800216808602068006820F078
:101800000100216808600FE000F04CFC801B0528F7
:101810000AD92020606500BF002084F8340000BF92
:10182000032084F83500D1E72068006800F001004B
:101830000028E9D194F85C103F208840A86000BFE0
:10184000002084F8340000BF012084F83500002017
:10185000BCE7014691F83500022803D08020486596
:1018600001207047052081F835000868006820F0E5
:1018700001000A6810600020F3E770B504460CB957
:10188000012070BD94F83500022800D1F9E72068E6
:10189000006820F0010021680860002021680860CD
:1018A00021684860216888602168C86021680861F3
:1018B0002120216848612046FFF74AFC05460020A8
:1018C000E06320646064A064E064206594F85C10C8
:1018D0003F208840A8600020606584F8350000BF84
:1018E00084F8340000BF00BFCBE700002DE9F041D1
:1018F0000446002500F0D6FB074614B90120BDE8D8
:10190000F081606A00B100BF00BF002084F834009D
:1019100000BF022084F835002068006820F0010034
:10192000216808600AE000F0BDFBC01B052805D94E
:1019300020206065032084F83500E0E72068006817
:1019400000F001000028EED120680568214805401C
:10195000D4E901010843E16808432169084361694A
:101960000843A1690843E1690843216A0843054324
:10197000606A042803D1D4E90B01084305432068B9
:1019800005602068456925F00705606A0543606ABF
:1019900004280DD1A06A0543E06A48B12046FFF74C
:1019A000F1FB28B140206065012084F83500A6E7EE
:1019B000206845612046FFF7CBFB064694F85C1093
:1019C0003F208840B06000206065012084F8350029
:1019D000002094E73F8010F02DE9F04704460D46C3
:1019E00016461F464FF00008D4F8589000BF94F8F0
:1019F0003400012802D10220BDE8F087012084F8DC
:101A0000340000BF94F83500012825D1022084F865
:101A10003500002060653B46324629462046FFF7E8
:101A200006FC94F85C103F208840C9F80800206844
:101A3000006840F0160021680860206C28B120681A
:101A4000006840F00800216808602068006840F0E5
:101A500001002168086006E000BF002084F834001F
:101A600000BF4FF002084046C6E700002DE9F041F4
:101A700004460E460127002500BF2548007E0128A8
:101A800002D10220BDE8F08101202149087600BF83
:101A90004CF25030FFF76AFD0746002F31D1401E4F
:101AA0003060206801280FD1207C6168FFF7A2FC1C
:101AB0004CF25030FFF75AFD07461648006820F0F8
:101AC0000400144908601AE0A56812E0217C284649
:101AD000FFF726FC4CF25030FFF748FD07460D4853
:101AE000006820F0FA000B4908600FB1356005E08E
:101AF0006D1CD4E902100844A842E7D800BFFFF7E4
:101B00003DFC00BF00200249087600BF3846B9E717
:101B1000DC0C0020103C02400348006840F000400C
:101B20000149086000207047103C02402DE9F04157
:101B300006460F4614461D464FF0010800BF1F48D9
:101B4000007E012802D10220BDE8F08101201B495E
:101B5000087600BF4CF25030FFF708FD8046B8F120
:101B6000000F23D126B9E1B23846FFF75BFC12E043
:101B7000012E04D1A1B23846FFF784FC0BE0022EFF
:101B800004D121463846FFF791FC04E022462B465B
:101B90003846FFF759FC4CF25030FFF7E7FC80461F
:101BA0000748006820F001000549086000BF0020D8
:101BB0000249087600BF4046C6E70000DC0C002062
:101BC000103C024000200949096801F0004159B168
:101BD0000749064A0C3A1160064911600349096831
:101BE00001F0004101B1012070470000103C0240AB
:101BF00023016745AB89EFCD00B587B0142102A85A
:101C0000FEF733FC2A48006808B107B000BD012088
:101C10002749086000BF002001902648006840F076
:101C20000100244908600846006800F001000190A6
:101C300000BF00BF8814029002200390002004908F
:101C4000032005900C20069002A91B4800F01AF909
:101C50004FF6807002900220039000200490032031
:101C600005900C20069002A9144800F00BF94CF2E4
:101C7000337002900220039000200490032005900E
:101C80000C20069002A90E4800F0FCF84FF480509A
:101C900002900220039000200490032005900C2065
:101CA000069002A9074800F0EDF800BFADE700007C
:101CB00000000020383802400014024000100240AA
:101CC000000C024000180240F0B50C46002500222E
:101CD0000023002192E0012606FA01F504EA05023C
:101CE000AA427DD1474E8F0856F827308E07370F0E
:101CF0000F26BE403340444EB04201D1002623E0BF
:101D0000424EB04201D101261EE0414EB04201D107
:101D1000022619E03F4EB04201D1032614E03E4EA8
:101D2000B04201D104260FE03C4EB04201D105265D
:101D30000AE03B4EB04201D1062605E0394EB042E2
:101D400001D1072600E008268F073F0FBE409E42C4
:101D500022D1354E36689643334F3E603E1D36687D
:101D600096433F1D3E603E1D366896433F1D3E60D4
:101D70003E1D366896433F1D3E608E07370F0F2687
:101D800006FA07F31F4E8F0856F827609E431D4F33
:101D90004FEA910C47F82C6006684FEA410C032784
:101DA00007FA0CF7BE430660CF0800F1200656F88C
:101DB00027604F074FEAD76C0F2707FA0CF7BE438F
:101DC0004FEAD10C00F1200747F82C60C6684FEAB3
:101DD000410C032707FA0CF7BE43C660466800E0D3
:101DE0000BE001278F40BE43466086684FEA410CF6
:101DF000032707FA0CF7BE438660491C1029FFF43D
:101E00006AAFF0BD08380140000002400004024003
:101E100000080240000C0240001002400014024082
:101E200000180240001C0240003C014070B505460D
:101E300028460CF055FC044604EB4400094901EB2C
:101E40008000406858B104EB44020B4603EB820269
:101E5000906804EB440203EB82025168884700BF9C
:101E600070BD00002800002010B50446044800683A
:101E7000204020B1024804602046FFF7D7FF10BD84
:101E8000143C0140F8B502460B4600250024002012
:101E90000021DEE0012606FA01F51E6806EA0504C7
:101EA000AC4275D11E7906F00306012E04D01E79CE
:101EB00006F00306022E13D190684F000326BE40A1
:101EC000B0434F00DE68BE4030439060506801264A
:101ED0008E40B0431E79C6F300168E4030435060EA
:101EE0001E7906F00306032E09D0D0684F000326A2
:101EF000BE40B0434F009E68BE403043D0601E7964
:101F000006F00306022E13D1CF0802F1200656F880
:101F100027004E07F70E0F26BE40B0434F07FF0EB7
:101F20001E69BE403043CF0802F1200646F8270064
:101F300010684F000326BE40B0431E7906F003062A
:101F40004F00BE40304310605E6806F08056B6F128
:101F5000805F7DD100BF00260096404E366846F473
:101F600080463E4F3E603E46366806F48046009608
:101F700000BF00BF3A4E8F0856F827008E07370F74
:101F80000F26BE40B043374EB24202D1002624E0B5
:101F90005EE0354EB24201D101261EE0334EB24220
:101FA00001D1022619E0324EB24201D1032614E0DB
:101FB000304EB24201D104260FE02F4EB24201D181
:101FC00005260AE02D4EB24201D1062605E02C4E30
:101FD000B24201D1072600E008268F073F0FBE401E
:101FE00030431F4E8F0846F82700264E3068A04326
:101FF0005E6806F48036B6F5803F00D12043214E5E
:102000003060361D3068A0435E6806F40036B6F5D1
:10201000003F00D120431B4E361D3060361D306816
:10202000A0435E6806F48016B6F5801F00D12043F9
:10203000144E08363060361D3068A0435E6806F4E2
:102040000016B6F5001F00D120430E4E0C3630604E
:10205000491C1029FFF41EAFF8BD000044380240AF
:10206000083801400000024000040240000802401D
:10207000000C024000100240001402400018024010
:10208000001C0240003C0140024613690B400BB1AA
:10209000012000E0002070470AB1816101E00B04DB
:1020A0008361704710B559F0A1FB4FF47A71484332
:1020B000B0FBF1F010BD0000034800680349097847
:1020C00008440149086070471C00002024000020DB
:1020D00010B50D48006840F400700B4908600846D0
:1020E000006840F4806008600846006840F4807032
:1020F0000860032000F0A2F8002000F007F800F0CC
:1021000009F8002010BD0000003C024001460020FC
:102110007047000008B500BF002000900E4800681E
:1021200040F480400C4908600846006800F4804094
:10213000009000BF00BF00BF00200090081F006893
:1021400040F08050091F08600846006800F0805089
:10215000009000BF00BF08BD4438024010B50146E2
:102160000846002817DB00F01F0301229A400B4BA2
:10217000440943F8242000BF00BF00BFBFF34F8FC6
:1021800000BF00BF00BF00BF00BF00BFBFF36F8F25
:1021900000BF00BF00BF00BF10BD000080E100E035
:1021A00001460846002809DB00F01F0301229A407F
:1021B00043099B0003F1E023C3F8002100BF7047EF
:1021C0002DE9F05F80460D461646002704F0ACFD71
:1021D000074639462A46334601F00700C0F1070A90
:1021E000BAF1040F02D94FF0040A01E0C0F1070A66
:1021F000D14600F1040ABAF1070F02D24FF0000AEB
:1022000001E0A0F1030AD4464FF0010A0AFA09FAE4
:10221000AAF1010A0AEA020A0AFA0CFA4FF0010BC3
:102220000BFA0CFBABF1010B0BEA030B4AEA0B04B4
:102230002146404604F080FDBDE8F09F00BF00F05D
:102240000702064B19684FF6FF031940044B0B4376
:1022500043EA0221014B196000BF70470CED00E01A
:102260000000FA0570B504460D460CB9012070BD9A
:102270005848006800F00700A84209D255490D707F
:102280000846006800F00700A84201D00120EEE7F0
:10229000207800F0020002281DD1207800F0040010
:1022A000042805D14C48006840F4E0504A490860D1
:1022B000207800F00800082805D14748006840F45D
:1022C0006040454908604448006820F0F000A1687B
:1022D000084341490860207800F00100A8B3606815
:1022E000012807D13C4808380068C0F34040B8B91D
:1022F0000120BCE76068022802D06068032807D18B
:10230000354808380068C0F3406048B90120AEE79E
:10231000314808380068C0F3400008B90120A6E73A
:102320002D48006820F00300616808432A490860CE
:10233000FFF7B8FE064609E0FFF7B4FE801B41F246
:102340008831884202D9032091E707E022480068DB
:1023500000F00C006168B0EB810FEDD11D48006802
:1023600000F00700A84209D91A490D700846006814
:1023700000F00700A84201D0012078E7207800F0A3
:102380000400042807D11448006820F4E050E168F4
:10239000084311490860207800F00800082808D197
:1023A0000D48006820F46040216940EAC1000A49F4
:1023B000086000F03FF808490968C1F30311074AB3
:1023C000515CC8400649086006480068FFF79EFE59
:1023D00000204CE7003C0240083802409CC606083A
:1023E000080000202000002001480068704700001D
:1023F0000800002000B5FFF7F7FF04490968C1F3A2
:102400008221034A515CC84000BD000008380240E8
:10241000ACC6060800B5FFF7E7FF04490968C1F339
:102420004231034A515CC84000BD000008380240F8
:10243000ACC606082DE9F047002400250026A14679
:102440002548006800F00C0020B1042805D00828B9
:102450003AD105E0DFF8849039E0DFF8849036E087
:102460001D48001F006800F03F041B48001F006863
:1024700000F4800078B11A481749091F0968C1F3B0
:102480008811A0FB01700146224600233846FDF763
:102490003BFF05460EE011480F49091F0968C1F3CB
:1024A0008811A0FB01700146224600233846FDF743
:1024B0002BFF05460848001F0068C0F30140401C80
:1024C0004600B5FBF6F902E0DFF8109000BF00BF50
:1024D0004846BDE8F0870000083802400024F400B8
:1024E00000127A00F8B504460CB90120F8BD207836
:1024F00000F00100002874D0F948006800F00C00DA
:1025000004280DD0F648006800F00C00082813D10C
:10251000F348001F006800F48000B0F5800F0BD175
:10252000EF4808380068C0F34040002859D0606880
:10253000002856D10120D9E700BF6068B0F5803F80
:1025400008D1E7480838006840F48030E449083989
:1025500008601EE06068B0F5A02F0DD1E048083893
:10256000006840F48020DE490839086008460068A9
:1025700040F4803008600CE0D9480838006820F446
:102580008030D749083908600846006820F4802068
:10259000086000BF606890B1FFF784FD054606E063
:1025A000FFF780FD401B642801D903209EE7CC483B
:1025B00008380068C0F340400028F1D011E0FFF770
:1025C00071FD054606E0FFF76DFD401B642801D94B
:1025D00003208BE7C24808380068C0F34040002859
:1025E000F1D1207800F0020002285FD1BC480068D9
:1025F00000F00C0058B1BA48006800F00C00082840
:102600001CD1B748001F006800F48000B0B9B4487E
:1026100008380068C0F3400020B1E068012801D00C
:10262000012063E7AE480838006820F0F80021690F
:1026300040EAC100AA490839086037E0E06800B301
:102640000120A8490860FFF72DFD054606E0FFF7C9
:1026500029FD401B022801D9032047E7A04808387C
:102660000068C0F340000028F1D09D480838006899
:1026700020F0F800216940EAC10099490839086052
:1026800014E0002097490860FFF70CFD054606E0BE
:10269000FFF708FD401B022801D9032026E79048D8
:1026A00008380068C0F340000028F1D1207800F01D
:1026B000080008282CD16069A8B101208A49086067
:1026C000FFF7F0FC054606E0FFF7ECFC401B022894
:1026D00001D903200AE782486C300068C0F340004B
:1026E0000028F1D014E000207F490860FFF7DAFCF1
:1026F000054606E0FFF7D6FC401B022801D903205F
:10270000F4E677486C300068C0F340000028F1D14F
:10271000207800F00400042870D100277048383079
:10272000006800F0805090B900BF002000906C4815
:102730003830006840F080506949383108600846F8
:10274000006800F08050009000BF00BF012767487C
:10275000006800F48070B0B96448006840F480708C
:1027600062490860FFF79EFC054606E0FFF79AFC09
:10277000401B022801D90320B8E65C48006800F439
:1027800080700028F2D000BFA068012808D154480A
:102790006830006840F001005149683108601DE070
:1027A000A06805280DD14E486830006840F004004C
:1027B0004B49683108600846006840F00100086035
:1027C0000CE047486830006820F001004449683157
:1027D00008600846006820F00400086000BFA06898
:1027E000A8B1FFF75FFC054609E0FFF75BFC401B63
:1027F00041F28831884202D9032077E626E0384842
:1028000068300068C0F340000028EED013E0FFF706
:1028100049FC054608E0FFF745FC401B41F28831C2
:10282000884201D9032061E62D4868300068C0F372
:1028300040000028EFD1012F07D129483830006827
:1028400020F0805026493831086000BFA069002878
:1028500045D02348006800F00C0008285DD0A0692E
:10286000022845D100201F490866FFF71BFC0546DA
:1028700006E0FFF717FC401B022801D9032035E6CC
:10288000174808380068C0F340600028F1D1D4E947
:1028900007010843616A40EA81110122A06AC2EB84
:1028A000500041EA00412C20005D41EA00600C49E3
:1028B000091F086001200B490866FFF7F3FB054676
:1028C00006E0FFF7EFFB401B022801D903200DE6CD
:1028D000034808380068C0F340600028F1D049E0A0
:1028E0000838024000004742800E47420070004016
:1028F000002021490866FFF7D5FB054606E0FFF7F3
:10290000D1FB401B022801D90320EFE51B480068DA
:10291000C0F340600028F2D12CE0A069012800D16A
:10292000E4E51648001D0668A069012820D006F4D9
:102930008001E06981421BD106F03F01206A81429B
:1029400016D147F6C0703040616AB0EB811F0FD1DD
:1029500006F440310122A06AC2EB5000B1EB004FF7
:1029600006D106F070612C20005DB1EB006F01D044
:102970000120BBE50020B9E50000474200380240D5
:102980007047014691F85100704710B504460CB9E4
:10299000012010BD606A38B96068B0F5827F00D14F
:1029A00005E00021E16102E0002121616161002177
:1029B000A16294F8510028B9002084F85000204604
:1029C00000F048F8022084F851002068006820F0E8
:1029D000400021680860A08800F48270218901F419
:1029E00004410843A18901F400610843217C01F0FE
:1029F00002010843217D01F001010843218B01F40C
:102A000000710843217F01F0380108432021095D4E
:102A100001F080010843218D01F400510843216831
:102A200008600421A06901EA104094F8241001F024
:102A300010010843216848602068C06920F40060E4
:102A40002168C86100206065012084F851000020E1
:102A50009FE7000010B586B00446142101A8FDF7D9
:102A600004FD49492068884238D100BF0020009009
:102A70004648006840F480504449086008460068B1
:102A800000F48050009000BF00BF00BF0020009005
:102A90003E481438006840F002003C491439086090
:102AA0000846006800F00200009000BF00BF382018
:102AB0000190022002900020039003200490052042
:102AC000059001A93248FFF7DDF9002211462320C5
:102AD000FFF776FB2320FFF763FB53E02D492068C7
:102AE00088424FD100BF002000902848001F006896
:102AF00040F480402549091F08600846006800F43A
:102B00008040009000BF00BF00BF002000901F4821
:102B10001438006840F004001C4914390860084665
:102B2000006800F00400009000BF00BF00BF00205C
:102B300000900846006840F00200086008460068FF
:102B400000F00200009000BF00BF0C2001900220A6
:102B5000029000200390032004900520059001A915
:102B60000D48FFF78FF94FF40050019002200290BA
:102B700000200390032004900520059001A904483B
:102B8000FFF780F906B010BD003001404438024024
:102B90000004024000380040000802402DE9F843DC
:102BA0000446884616461D464FF000096068B0F599
:102BB000827F0DD1A06858B9042084F851003346B3
:102BC000424641462046009500F007FABDE8F883EA
:102BD00000BF94F85000012801D10220F6E701203F
:102BE00084F8500000BFFFF75DFA074694F85100E3
:102BF000012802D04FF002097EE0B8F1000F00D0AA
:102C000016B94FF0010977E0042084F85100002044
:102C10006065C4F83880A687E6872063A086E086D2
:102C200020646064A068B0F5004F0BD12068006894
:102C300020F04000216808602068006820F480408F
:102C4000216808602068006800F04000402805D036
:102C50002068006840F0400021680860E068F8B92A
:102C60001AE02068806800F0010050B12068007B05
:102C7000A16B0870A06B401CA063E08F401EE08732
:102C80000AE0FFF70FFAC01BA84201D3681C00B985
:102C900015B94FF003092FE0E08F0028E1D11EE0C5
:102CA0001AE02068806800F0010050B12068C06818
:102CB000A16B0880A06B801CA063E08F401EE087A2
:102CC0000AE0FFF7EFF9C01BA84201D3681C00B966
:102CD00015B94FF003090FE0E08F0028E1D13A4623
:102CE0002946204601F003FF08B120206065606D91
:102CF00008B14FF0010900BF012084F8510000BF66
:102D0000002084F8500000BF48465FE72DE9F041FD
:102D100004460E4615460027A06870B96068B0F5F5
:102D2000827F0AD1042084F851002B463246314676
:102D3000204600F067FABDE8F08100BF94F850002B
:102D4000012801D10220F6E7012084F8500000BFDD
:102D500094F85100012801D0022757E006B10DB9BF
:102D6000012753E0042084F8510000206065A66329
:102D7000A587E58720646064A086E086A068B0F53A
:102D8000004F0BD12068006820F0400021680860E7
:102D90002068006820F48040216808601F48E16CCA
:102DA00008641F48E16CC8631E48E16CC8640020D9
:102DB000E16C0865E38FD4F800C00CF10C01A26B44
:102DC000E06CFEF709FE40B1606D40F010006065F8
:102DD0000127012084F8510018E02068006800F005
:102DE0004000402805D02068006840F0400021687D
:102DF00008602068406840F0200021684860206832
:102E0000406840F001002168486000BF00BF00201A
:102E100084F8500000BF38468DE700006149000883
:102E20008B49000839490008704770472DE9F84F71
:102E30000446884616461D464FF0000A00BF94F827
:102E40005000012802D10220BDE8F88F012084F84B
:102E5000500000BFFFF726F90746B14694F851002D
:102E6000012802D04FF0020AADE0B8F1000F00D007
:102E700016B94FF0010AA6E0032084F851000020A3
:102E80006065C4F83080A686E686A063A087E087E8
:102E900060642064A068B0F5004F0BD12068006822
:102EA00020F04000216808602068006840F48040FD
:102EB000216808602068006800F04000402805D0C4
:102EC0002068006840F0400021680860E068B0F5C4
:102ED000006F2FD1606810B1B9F1010F09D1206BDB
:102EE00000882168C860206B801C2063E08E401E33
:102EF000E0861BE02068806800F0020002280AD10A
:102F0000206B00882168C860206B801C2063E08EE5
:102F1000401EE0860AE0FFF7C5F8C01BA84201D3B7
:102F2000681C00B915B94FF0030A4CE0E08E002888
:102F3000E0D12EE0606810B1B9F1010F09D1206B2A
:102F4000007821680873206B401C2063E08E401ECF
:102F5000E0861BE02068806800F0020002280AD1A9
:102F6000206B007821680873206B401C2063E08E82
:102F7000401EE0860AE0FFF795F8C01BA84201D387
:102F8000681C00B915B94FF0030A1CE0E08E002858
:102F9000E0D13A462946204601F0F4FD08B1202050
:102FA0006065A06850B900BF002000902068C0682C
:102FB000009020688068009000BF00BF606D08B17D
:102FC0004FF0010A00BF012084F8510000BF00202B
:102FD00084F8500000BF504636E72DE9FF5F0446F5
:102FE000884691461D460E9E0120029000200190C9
:102FF00000BF94F85000012803D1022004B0BDE8BE
:10300000F09F012084F8500000BFFFF74BF80746FF
:1030100094F851B060680390AA46BBF1010F0BD041
:103020000398B0F5827F04D1A06810B9BBF1040FFA
:1030300002D002200190DBE0B8F1000F03D0B9F11B
:10304000000F00D015B901200190D1E094F8510093
:10305000042802D0052084F8510000206065C4F8DF
:103060003890E587A587C4F83080E586A58620647A
:1030700060642068006800F04000402805D02068A7
:10308000006840F0400021680860E068B0F5006F1B
:103090004AD1606810B1BAF1010F09D1206B0088E4
:1030A0002168C860206B801C2063E08E401EE08693
:1030B00033E02068806800F00200022810D1E08E22
:1030C00070B1029801280BD1206B00882168C8607C
:1030D000206B801C2063E08E401EE0860020029062
:1030E0002068806800F0010068B1E08F58B1206866
:1030F000C068A16B0880A06B801CA063E08F401E9D
:10310000E08701200290FEF7CDFFC01BB04204D340
:10311000701C10B1032001906AE0E08E0028C8D135
:10312000E08F0028C5D14AE0606810B1BAF1010F04
:1031300009D1206B007821680873206B401C206344
:10314000E08E401EE08634E02068806800F00200D7
:10315000022810D1E08E70B1029801280BD1206BAB
:10316000007821680873206B401C2063E08E401EAD
:10317000E086002002902068806800F0010068B1BD
:10318000E08F58B12068C068A16B0870A06B401C2C
:10319000A063E08F401EE08701200290FEF782FFCF
:1031A000C01BB04201D3701C00B916B903200190B6
:1031B0001EE0E08E0028C7D1E08F0028C4D13A4637
:1031C0003146204601F0DEFC20B101200190202094
:1031D00060650DE0A06850B900BF00200090206835
:1031E000C068009020688068009000BF00BF00BFEA
:1031F000012084F8510000BF002084F8500000BF77
:103200000198FBE62DE9F04704460E4617461D4699
:103210004FF0000A00BF94F85000012802D10220AC
:10322000BDE8F087012084F8500000BF94F8518079
:10323000D4F80490B8F1010F0AD0B9F5827F04D117
:10324000A06810B9B8F1040F02D04FF0020A7DE077
:103250000EB107B115B94FF0010A77E094F85100AB
:10326000042802D0052084F8510000206065266300
:10327000A586E586A763A587E5872064606494F842
:103280005100042806D13548E16C08643448E16CEB
:10329000C86305E03348E16C08643348E16CC863F7
:1032A0003248E16CC8640020E16C0865E38FD4F813
:1032B00000C00CF10C01A26BE06CFEF78DFB48B175
:1032C000606D40F0100060654FF0010A012084F845
:1032D00051003BE02068406840F0010021684860F0
:1032E0000020A16C0864A16CC863A16CC864A16CC7
:1032F0000865E38ED4F800C00CF10C02216BA06CC1
:10330000FEF76AFB48B1606D40F0100060654FF059
:10331000010A012084F8510018E02068006800F0DC
:103320004000402805D02068006840F04000216837
:1033300008602068406840F02000216848602068EC
:10334000406840F002002168486000BF00BF0020D4
:1033500084F8500000BF504662E700006149000851
:103360008B4900087D490008874A00083949000850
:103370002DE9F04104460E461546002700BF94F89B
:103380005000012802D10220BDE8F081012084F81C
:10339000500000BF94F85100012801D0022758E0E6
:1033A00006B10DB9012754E0032084F85100002034
:1033B00060652663A586E586A06360642064A087B7
:1033C000E087A068B0F5004F0BD12068006820F0BE
:1033D0004000216808602068006840F4804021684F
:1033E00008601F48A16C08641E48A16CC8631E4891
:1033F000A16CC8640020A16C0865E38ED4F800C0FD
:103400000CF10C02216BA06CFEF7E6FA40B1606D86
:1034100040F0100060650127012084F8510018E099
:103420002068006800F04000402805D0206800684F
:1034300040F04000216808602068406840F02000AB
:10344000216848602068406840F0020021684860B8
:1034500000BF00BF002084F8500000BF384693E74B
:103460006F490008074A000839490008704770474B
:103470007047704770B504460E4615460CB90120DA
:1034800070BD94F8490028B9002084F8480020460F
:1034900000F01CF804F108012068FEF7BDF8314681
:1034A000A2682068FEF7E6F82946236BD4E90102FA
:1034B000FEF78EF8A168206850F8210040F0010066
:1034C000A268216841F822000020D9E710B586B033
:1034D0000446142101A8FCF7C8FF00BF002000909B
:1034E0002648006840F0010024490860084600684A
:1034F00000F00100009000BF00BF4FF23F000190BC
:103500000220029000200390032004900C200590DC
:1035100001A91B48FEF7B6FC40F23F400190022093
:10352000029000200390032004900C20059001A934
:103530001448FEF7A7FC4FF683700190022002901A
:1035400000200390032004900C20059001A90E4850
:10355000FEF798FC4FF63370019002200290002095
:103560000390032004900C20059001A90748FEF762
:1035700089FCFEF741FB06B010BD00003838024060
:10358000001402400018024000100240000C0240EB
:10359000042808D14FF0E021096941F004014FF0FF
:1035A000E022116107E04FF0E021096921F00401F8
:1035B0004FF0E0221161704770B504462546681E41
:1035C000B0F1807F01D301200FE0681E4FF0E021B1
:1035D00048610F214FF0FF3003F0AEFB00204FF0A9
:1035E000E021886107200861002070BD704700005D
:1035F00070B504462CB94FF45372034903A051F03F
:103600008DFD254670BD0000A9CE06086875617263
:103610007420213D204E554C4C0000002DE9F84F00
:103620000446206805682068C668206847694FF02E
:103630000009CA4605F00F09B9F1000F0AD105F0DB
:10364000200038B106F0200020B1204602F0FFFD36
:10365000BDE8F88FB9F1000F72D007F0010018B97A
:1036600006F4907000286BD005F0010030B106F42C
:10367000807018B1206C40F00100206405F0040057
:1036800030B107F0010018B1206C40F00200206456
:1036900005F0020030B107F0010018B1206C40F0D5
:1036A0000400206405F0080048B106F0200010B9BD
:1036B00007F0010018B1206C40F008002064206C75
:1036C00070B305F0200028B106F0200010B12046AC
:1036D00002F0BDFD20684069C0F3801A206C00F044
:1036E000080010B9BAF1000F23D0204602F07AFD8D
:1036F0002068406900F04000402816D120684069E9
:1037000020F0400021684861A06B50B15648A16B81
:103710000865A06BFEF79DF810B1A06B016D88479E
:103720000CE02046FFF764FF08E02046FFF760FF4B
:1037300004E02046FFF75CFF0020206488E7FFE7F5
:10374000206B012879D105F01000002875D006F013
:103750001000002871D000BF002000902068006891
:10376000009020684068009000BF00BF206840695A
:1037700000F04000402839D1A06B006840681FFA73
:1037800080F8B8F1000F30D0A08D40452DDDA4F8B1
:103790002E80A06BC069B0F5807F1FD02068C06804
:1037A00020F480702168C8602068406920F0010022
:1037B000216848612068406920F040002168486124
:1037C000202084F83E00002020632068C06820F09C
:1037D00010002168C860A06BFDF7E6FFA08DE28DA8
:1037E000801A81B22046FFF701FF31E7A08DE18DFD
:1037F000401A1FFA80F8E08DE8B1B8F1000F1AD036
:103800002068C06820F490702168C8602068406912
:1038100020F0010021684861202084F83E0000204B
:1038200020632068C06820F010002168C86041460D
:103830002046FFF7DBFE0BE7FFE705F0800030B125
:1038400006F0800018B1204602F0C2FE00E705F045
:10385000400030B106F0400018B1204602F0DDFC17
:10386000F6E600BFF4E60000B560000810B50446B7
:103870000CB9012010BDA06900B100E000BF94F8B0
:103880003D0028B9002084F83C00204600F028F8CC
:10389000242084F83D002068C06820F4005021688E
:1038A000C860204602F032FD2068006920F4904094
:1038B000216808612068406920F02A002168486179
:1038C0002068C06840F400502168C860002020646F
:1038D000202084F83D0084F83E000020CAE7000064
:1038E00010B586B00446142101A8FCF7BEFD1F499F
:1038F0002068884238D100BF002000901C48006832
:1039000040F010001A4908600846006800F01000F6
:10391000009000BF00BF00BF002000901448143882
:10392000006840F001001249143908600846006838
:1039300000F00100009000BF00BF4FF4C060019094
:10394000022002900020039003200490072005909D
:1039500001A90848FEF796FA002211462520FEF735
:103960002FFC2520FEF71CFC06B010BD0010014006
:10397000443802400000024070B504460D46164629
:1039800094F83E00202816D105B10EB9012070BD73
:1039900000BF94F83C00012801D10220F7E7012084
:1039A00084F83C0000BF00202063324629462046B0
:1039B00002F0C2FDEBE70220E9E7000070B5044623
:1039C0002CB94FF45772054905A051F0A7FB2546C5
:1039D00005F5887010F0FCFC70BD0000C0CE060834
:1039E000687561727420213D204E554C4C000000DA
:1039F00070B504462CB940F26B32054905A051F070
:103A00008DFB254605F5887010F0E2FC70BD0000C6
:103A1000D8CE0608687561727420213D204E554C41
:103A20004C000000F7B50446154694F83D002028E8
:103A30003DD1019800B10DB90120FEBD00BF94F841
:103A40003C00012801D10220F7E7012084F83C0066
:103A500000BF01982062A584E58400202064212015
:103A600084F83D001348616BC8631348616B0864B8
:103A70001248616BC8640020616B086501AE236861
:103A80001A1D31682B46606BFDF7A6FF6FF04000F2
:103A90002168086000BF002084F83C0000BF206857
:103AA000406940F08000216848610020C5E702209D
:103AB000C3E70000A1610008D7610008C9600008E1
:103AC00070B504462CB940F27232054905A051F098
:103AD00025FB2546042105F5887052F0DFFF70BDF7
:103AE000F4CE0608687561727420213D204E554C55
:103AF0004C00000070470000F0B5A3B006460F462A
:103B0000022E06DA3BA053F0EDFE4FF0FF3023B05B
:103B1000F0BD40A17868002000BF0290029828B94B
:103B20003DA053F0DFFE4FF0FF30F0E740F61C40C1
:103B300053F0B8FF054625B940A053F0D3FEFF244B
:103B40004FE002A840F61C432A464449009005A8CD
:103B500027F0D2FB0446002C3ED140F61C4C2098A6
:103B6000ACEB0003BDF83220BDF830103CA053F0A0
:103B7000B9FEBDF8301001EB4101BDF8322001FB68
:103B800002F053F08FFF0390039860B9BDF8300046
:103B900000EB4000BDF8322000FB02F13BA053F0E7
:103BA000A1FEFF241DE0BDF83000ADF8100000229A
:103BB000464905A827F04FFB04461CB944A053F022
:103BC00091FE03E0214644A053F08CFE039838B1E7
:103BD000039852F035FC03E0214647A053F082FEE3
:103BE00000BF15B1284652F02BFC02984FF0FF3071
:103BF00020468CE74A7065675F44656320696C6C9A
:103C00006567616C20617267756D656E7473202ED7
:103C10002E2E0A00726200004A7065675F44656379
:103C2000206F70656E207468652066696C6520661B
:103C300061696C65642E2E2E0A0000004A7065676B
:103C40005F44656320776F726B206D616C6C6F638E
:103C5000206661696C65642E2E2E0A008385020839
:103C6000496D6167652064696D656E73696F6E7318
:103C70003A2025752062792025752E202575206231
:103C80007974657320757365642E0A004A706567E0
:103C90005F4465632064657669642E66627566209C
:103CA0006D616C6C6F63206661696C65642C206E5D
:103CB00065656420746F20757365202564204279E2
:103CC000746573202E2E2E0A00000000951405083E
:103CD0000D4F4B20200A00004661696C656420741A
:103CE0006F206465636F6D70726573733A207263E1
:103CF0003D25640A000000004661696C656420741B
:103D00006F20707265706172653A2072633D256440
:103D10000A0000002DE9F04105460E4617461C46F4
:103D2000B9B2B0B200F056FB00F0FCFBA84606E0CA
:103D3000B8F8000004490880641E08F10208002C4D
:103D4000F6D1BDE8F08100008000006C70B504463B
:103D5000002609480588408845430021084600F0B0
:103D600039FB00F0DFFB00BF02E004490C80761C49
:103D7000AE42FAD370BD0000B81100208000006C84
:103D800010B5044655488471002C51D1F020534998
:103D900008804FF4A07048800846808849F241317D
:103DA000884205D04D48808845F21031884214D1B0
:103DB0002C204A4908812A2048812B2088810846E6
:103DC000808845F21031884206D14FF4A0704349F3
:103DD00008804FF4F07048807BE04048808845F2CE
:103DE0001051884210D14FF430503C4908814FF4B3
:103DF000285048814FF42C5088814FF4F07008808F
:103E00004FF44870488064E03448808841F663117C
:103E100088425ED12C20314908812B2048812A20FC
:103E200088814FF4F07008804FF44870488050E06B
:103E30004FF4A07029490880F02048800846808807
:103E400049F24131884205D02448808845F210313A
:103E5000884207D12C20214908812A2048812B2023
:103E6000888129E01D48808845F21051884210D190
:103E70004FF43050194908814FF4285048814FF4CD
:103E80002C5088814FF4487008804FF4F0704880BF
:103E900012E01248808841F6631188420CD12C2030
:103EA0000E4908812A2048812B2088814FF44870D0
:103EB00008804FF4F07048800848808845F210313F
:103EC000884206D14FF4F070044908804FF4A07086
:103ED0004880002000F044F910BD0000B811002017
:103EE00030B504460B4625884248808849F2413166
:103EF000884205D03F48808845F21031884216D16B
:103F00003C49488900F008FBC3F30F2000F0FEFA9B
:103F1000D8B200F0FBFA3749888900F0FDFAC2F305
:103F20000F2000F0F3FAD0B200F0F0FA59E0314877
:103F3000808845F21051884222D12E49488900F0EC
:103F4000EBFAC3F30F2000F0E1FA2A494989491C32
:103F500088B200F0E1FAD8B200F0D8FA2549888991
:103F600000F0DAFAC2F30F2000F0D0FA2149898973
:103F7000491C88B200F0D0FAD0B200F0C7FA30E0A5
:103F80001C48808841F6631188422AD119488079FB
:103F900018B918480088401EC31A1649488900F00D
:103FA000BBFAC3F30F2000F0B1FAD8B200F0AEFABA
:103FB000C3F30F2000F0AAFAD8B200F0A7FA0D4917
:103FC000888900F0A9FAC2F30F2000F09FFAD0B25E
:103FD00000F09CFAC2F30F2000F098FAD0B200F083
:103FE00095FA04480089044908804FF0D840A0F8A9
:103FF000805030BDB81100207E00006C2DE9F043E8
:1040000005460C4616461F46301B00F10108B9B2A2
:10401000A0B200F0DFF900F085FAA94605E0B9F892
:10402000000004490880A8F10108B8F1000FF6DC8F
:10403000BDE8F0838000006C0148008870470000F4
:104040008000006C2DE9F04780460C461546464638
:104050000027B946BA4629480088A04203DD274810
:104060004088A84203DC00203080BDE8F087A9B278
:10407000A0B200F0AFF92148808849F2413188426E
:104080000BD01E48808845F21031884205D01B486D
:10409000808841F66311884203D12E2000F03CFA5B
:1040A00009E01648808845F21051884203D14FF448
:1040B000385000F031FAFFF7BFFF07460F488088FD
:1040C00041F66311884201D13780CEE7FFF7B4FF94
:1040D0000746FFF7B1FF824607F0FF094FF6FF7072
:1040E00000EA0929F812C0024FEAA92140EA41106A
:1040F00040EAEA20308000BFB7E70000B811002096
:1041000070B52DED048B0446BE2000F005FA0520A5
:1041100000F0FCF92046FCF780FB41EC190B9FED09
:104120000E0B53EC102BFCF706FB41EC180BFCF7C5
:1041300081FB85B2284600F0E9F9012000F0E6F99C
:10414000FF2000F0E3F9002000F0E0F9002000F08B
:10415000DDF9BDEC048B70BD66666666666604407C
:1041600070B504460023002699488079012805D1BE
:104170009748808841F66311884208D19448807935
:10418000F0B99348808841F66311884218D1082C11
:1041900015D2DFE804F00406080A0C0E10120624FB
:1041A0000DE007240BE0042409E0052407E00124C6
:1041B00005E0002403E0032401E0022400BF00BF67
:1041C0008348808849F24131884211D080488088F4
:1041D00045F2103188420BD07D48808845F210515D
:1041E000884205D07A48808841F6631188427DD1A3
:1041F000082C1CD2DFE804F00406090C0F12151875
:1042000000BF14E043F0800311E043F040030EE0F0
:1042100043F0C0030BE043F0200308E043F06003E9
:1042200005E043F0A00302E043F0E00300BF00BF5D
:104230006748808845F21051884202D14FF45856A1
:1042400000E036266248808845F2103188420DD061
:104250005F48808845F21051884207D05C488088CA
:1042600041F66311884201D043F0080319463046F5
:1042700000F062F95648808841F6631188421DD0EB
:1042800003F0200068B152480088514949888842AB
:1042900014DA4F48058840884D4908800846458013
:1042A0000CE04B4800884A494988884206DD484866
:1042B00005884088464908800846458044488088EB
:1042C00045F21051884254D14149488900F024F9FF
:1042D000002000F01BF93E494989491C88B200F0D2
:1042E0001BF9002000F012F9394900E06FE049891C
:1042F000891C88B200F010F935490988491EC1F3BC
:104300000F2000F003F932494989C91C88B200F036
:1043100003F92F490978491EC8B200F0F7F82C4973
:10432000888900F0F9F8002000F0F0F82849898920
:10433000491C88B200F0F0F8002000F0E7F82449AA
:104340008989891C88B200F0E7F821494988491E0B
:10435000C1F30F2000F0DAF81D498989C91C88B221
:1043600000F0DAF81A498978491EC8B200F0CEF890
:104370002DE01749488900F0CFF8002000F0C6F87A
:10438000002000F0C3F812490988491EC1F30F202C
:1043900000F0BCF80E490978491EC8B200F0B6F822
:1043A0000B49888900F0B8F8002000F0AFF8002031
:1043B00000F0ACF806494988491EC1F30F2000F00F
:1043C000A5F803498978491EC8B200F09FF870BD6E
:1043D000B811002000B502460B464B48808849F2D0
:1043E0004131884205D04848808845F210318842E2
:1043F00014D14549488900F08FF8101200F086F872
:10440000D0B200F083F84049888900F085F818128E
:1044100000F07CF8D8B200F079F873E03A48808870
:1044200041F66311884247D137488079A8B93648A8
:104430000088401E801A82B23349488900F06CF827
:10444000002000F063F8002000F060F8101200F087
:104450005DF8D0B200F05AF816E02B49488900F018
:104460005BF8101200F052F8D0B200F04FF8264975
:104470000988491EC1F30F2000F048F82249097845
:10448000491EC8B200F042F81F49888900F044F87C
:10449000181200F03BF8D8B200F038F81A494988F1
:1044A000491EC1F30F2000F031F817498978491EE1
:1044B000C8B200F02BF825E01348808845F210516F
:1044C00088421FD11049488900F026F8101200F0E8
:1044D0001DF80D494989491C88B200F01DF8D0B279
:1044E00000F014F80849888900F016F8181200F056
:1044F0000DF805498989491C88B200F00DF8D8B239
:1045000000F004F800BD0000B81100200149088047
:10451000704700008000006C01490880704700006F
:104520007E00006C02480089024908807047000044
:10453000B81100207E00006C034A10804FF0D84272
:10454000A2F88010704700007E00006C70B506462F
:1045500000207080308000252FE0032427E03B48B6
:1045600000EBC40030F81500F8B13948B0F902008A
:1045700020441F2810DA3648B0F902002044401CBD
:1045800000EB4000334901EB00103149B1F9001054
:10459000294430F8110038B13046FCF73DFB304675
:1045A000FCF76EFB002070BD04E0601E04B2601CCE
:1045B0000028D4D100BF681C05B2042DCDDB002536
:1045C0003AE0032433E0214800EBC40030F8150042
:1045D00058B300201E49B1F90210214401EB4101FA
:1045E0001C4A02EB01111A4AB2F900202A4421F8B0
:1045F000120001211648B0F902002044401C00EBD3
:104600004000144A02EB0010114AB2F900202A447B
:1046100020F81210A9B2A0B2324600F035F9A9B2C2
:10462000621C90B2324600F047F9601E04B2601C72
:104630000028C8D1681C05B2042DC2DB044840889C
:10464000401C00B2024948800120ACE780CD002028
:10465000BC07002080C7002070B50646002070808F
:1046600030803848008800B970BD002421E0002562
:104670001AE0354800EBC40030F8150090B131481D
:10468000B0F90200204400EB4000304901EB00117A
:104690002C48B0F900002844401E31F8100000B149
:1046A000E2E703E0681C85B2042DE2DB00BF601C7A
:1046B00084B2042CDBDB002439E0002533E02248FF
:1046C00000EBC40030F8150058B300201D49B1F9C3
:1046D0000210214401EB41011C4A02EB0111194A6D
:1046E000B2F900202A4421F8120001211548B0F93E
:1046F0000200204400EB4000144A02EB0012114873
:10470000B0F900002844401E22F810103246294615
:10471000204600F0B9F8681E81B23246204600F00B
:10472000CBF8681C85B2042DC9DB601C84B2042C54
:10473000C3DB04480088401E00B20249088000BF65
:1047400092E70000BC07002080CD002080C7002039
:1047500070B50646002070803080384800881528E3
:1047600000D170BD002421E003251AE0344800EB9D
:10477000C40030F8150090B13048B0F90200204470
:1047800000EB40002F4901EB00112C48B0F900006C
:104790002844401C31F8100000B1E2E703E0681E35
:1047A00005B2002DE2DA00BF601C04B2042CDBDB92
:1047B000002439E0032533E0214800EBC40030F841
:1047C000150058B300201D49B1F90210214401EB36
:1047D00041011C4A02EB0111184AB2F900202A4497
:1047E00021F8120001211548B0F90200204400EB25
:1047F0004000144A02EB00121048B0F900002844AF
:10480000401C22F81010A9B2A0B2324600F03CF8C9
:104810006A1C91B2A0B2324600F04EF8681E05B292
:10482000002DC9DA601C04B2042CC3DB03480088E5
:10483000401C00B20149088000BF92E7BC0700207D
:1048400080CD002080C7002070B5044600250FE011
:10485000002609E0002005EB45010A4A02EB0111A0
:1048600021F81600701C86B2182EF3DB681C85B286
:10487000202DEDDB0020608020802046FCF700FA30
:1048800070BD000080C7002018B50A4B1B880B4480
:104890001BB2ADF80030074B5B8803441BB2ADF888
:1048A00002301488631C1380131D03EB8403009CE7
:1048B0001C6018BDBC07002018B50B4B5B88034477
:1048C0001BB2ADF80230084B1B880B441BB2ADF88D
:1048D00000305488631C538002F5C27303EB8403D9
:1048E000009C1C6018BD0000BC07002070B5044689
:1048F0000121A26820689047206900B917E056F0AE
:1049000075FF05460DE056F071FF401BE1698842D6
:1049100002D96FF0010070BDE169491C480856F0EA
:10492000B1FB2169206888470028ECD000BF2046F1
:1049300022F02CFD0020EEE770B50546AC6B206838
:10494000406820F0030021684860606D40F010006E
:104950006065012084F851002046FEF711F870BD13
:1049600070B50446A56B2846FEF75FFA70BD70B5BA
:104970000446A56B2846FEF77AFD70BD70B5044667
:10498000A56B2846FEF775FD70BD70B50546AC6B8E
:10499000FDF788FB06462868006800F48070B0F5D3
:1049A000807F2BD02068406820F02000216848607C
:1049B000A06850B96068B0F5827F06D12068406871
:1049C00020F003002168486005E02068406820F07E
:1049D00001002168486032466421204600F087F8D3
:1049E00008B1202060650020E087012084F8510094
:1049F000606D18B12046FDF7C3FF70BD2046FEF77D
:104A000013FA00BFF9E7F8B50546AC6BFDF74AFBB2
:104A100006462868006800F48070B0F5807F2DD0CD
:104A20002068406820F020002168486020684068C5
:104A300020F002002168486032466421204600F0E0
:104A4000A1F818B1606D40F020006065A06850B911
:104A500000BF002000902068C06800902068806837
:104A6000009000BF00BF0020E086012084F85100C4
:104A7000606D18B12046FDF783FFF8BD2046FEF7B4
:104A8000F5FC00BFF9E770B50546AC6BFDF70AFB16
:104A900006462868006800F48070B0F5807F21D059
:104AA0002068406820F02000216848603246642178
:104AB000204600F067F818B1606D40F02000606596
:104AC0002068406820F00300216848600020E086EC
:104AD000E087012084F85100606D18B12046FDF791
:104AE0004FFF70BD2046FEF7C3FC00BFF9E7F8B5E5
:104AF00004460E4615466068B0F5827F0DD1A06869
:104B0000B0F5004F03D0A068B0F5806F05D12068E4
:104B1000006820F04000216808606068B0F5827F7E
:104B20001FD1A068B0F5806F0DD0334600228021E0
:104B30002046009500F05CF808B3606D40F020005E
:104B400060650320F8BD3346002201212046009510
:104B500000F04EF898B1606D40F0200060650320D1
:104B6000F0E73346002201212046009500F040F88E
:104B700028B1606D40F0200060650320E2E700206E
:104B8000E0E700007CB504460D461646164800686E
:104B90001821B0FBF1F01549B0FBF1F04FF47A7138
:104BA000484301906068B0F5827F0DD12B4600220A
:104BB00080212046009600F01BF898B1606D40F00F
:104BC0002000606503207CBD00BF019800B908E0AB
:104BD0000198401E019020688068C0F3C010002832
:104BE000F3D100BF0020EEE70800002040420F0094
:104BF0002DE9F84F04460D4690461E46DDF82890F4
:104C0000FDF750FAA0EB0900371AFDF74BFA824680
:104C10002C480068C0F3CB307843009045E0701C0E
:104C2000002842D0FDF73EFAA0EB0A00B84200D2BD
:104C3000A7BB2068406820F0E000216848606068F9
:104C4000B0F5827F0DD1A068B0F5004F03D0A06809
:104C5000B0F5806F05D12068006820F04000216821
:104C60000860A06AB0F5005F0DD100BF2068006841
:104C700020F40050216808602068006840F400506B
:104C80002168086000BF012084F8510000BF0020A7
:104C900084F8500000BF0320BDE8F88FFFE70098BC
:104CA00000B900270098401E0090206880682840C6
:104CB000A84201D1012000E000204045AFD10020F2
:104CC000EAE700000800002010B552F061FDFDF792
:104CD000F3F956F091FD52F085FD10BD00B593B08B
:104CE000302107A8FBF7C1FB142102A8FBF7BDFB8D
:104CF00000BF002001902648006840F08050244901
:104D000008600846006800F08050019000BF00BFB6
:104D100000BF002001901F48006840F480401D49FA
:104D200008600846006800F48040019000BF00BFA2
:104D3000012007900004089002200D9041050E917B
:104D400008210F914FF4A8711091022111910421B3
:104D5000129107A8FDF7C6FB18B127210EA001F09C
:104D600073FC0F20029002200390002004904FF467
:104D7000A05005904FF480500690052102A8FDF741
:104D800071FA18B1342104A001F05EFC13B000BD2B
:104D900040380240007000402E2E5C626F617264E9
:104DA0005C626F6172642E6300000000034800685B
:104DB00040F47000014908607047000088ED00E091
:104DC00010B5044600206080208013480078072832
:104DD0001DD2DFE800F0041D080C10141800204656
:104DE00000F04CFF15E0204600F018F811E02046D6
:104DF00000F0CEFB0DE0204600F030F909E020463F
:104E000001F07CF805E0204600F05CFE01E000BF08
:104E100000BF00BF10BD0000B807002070B50546F8
:104E20008A480088D8B38A48B0F90000002835DBEA
:104E30008748B0F90000C0F1180004282EDB844830
:104E4000B0F90200401C00EB4000824901EB001168
:104E50007F48B0F9000031F81000F8B97C48B0F98B
:104E60000200401C00EB40007A4901EB0011784839
:104E7000B0F90000801C31F8100078B97448B0F91E
:104E80000200401C00EB4000724901EB0011704829
:104E9000B0F90000C01C31F81000E8B370BDFFE7A6
:104EA0006B48B0F90200002835DB6948B0F9020010
:104EB000C0F1200004282EDB6548B0F9020000EBA9
:104EC0004000644901EB00116148B0F90000401C4A
:104ED00031F81000F8B95E48B0F90200801C00EB10
:104EE00040005C4901EB00115948B0F90000401C3A
:104EF00031F8100078B95648B0F90200C01C00EB38
:104F00004000544901EB00115148B0F90000401C29
:104F100031F8100000B1C1E7FFE74C4801884E4866
:104F2000C1814B48B0F90200401C00EB4000494AE7
:104F300002EB00124648B0F90000C01C22F8101025
:104F4000454881814248B0F90200401C00EB400016
:104F5000404A02EB00123E48B0F90000801C22F8E3
:104F600010103D4801813A48B0F90200401C00EBA6
:104F70004000384A02EB00123548B0F9000022F830
:104F800010103248008808B9012100E000213248A1
:104F900041832F48B0F90200C01C00EB40002D4AAD
:104FA00002EB00122A48B0F90000401C22F8101051
:104FB000294841822648B0F90200801C00EB4000DD
:104FC000244A02EB00122248B0F90000401C22F8EB
:104FD0001010214841801E48B0F9020000EB40004B
:104FE0001C4A02EB00121A48B0F90000401C22F8DB
:104FF0001010002419E01548008850B12A460121FC
:105000002046FFF741FC2A4621460120FFF754FCC9
:1050100009E02A4621460120FFF736FC2A460121F5
:105020002046FFF749FC601C84B2042CE3DB0748F0
:105030000088401C05490880088800EBD0714910A1
:10504000A0EB4101014A118000BF27E7BA07002009
:10505000BC07002080C7002080CD002010B504468A
:10506000F948008830B101287ED002287DD003287D
:105070007CD1B3E1F548B0F9020000281EDBF3480B
:10508000B0F9020000EB4000F14901EB0011EF48DC
:10509000B0F90000801C31F8100078B9EB48B0F985
:1050A0000200801C00EB4000E94901EB0011E748D9
:1050B000B0F90000401C31F8100000B110BD002113
:1050C000E448418101810121418281800021DF4842
:1050D000B0F90200401C00EB4000DD4A02EB001278
:1050E000DA48B0F90000401C22F81010D748B0F997
:1050F0000200401C00EB4000D54A02EB0012D348EE
:10510000B0F9000022F8101081F00101CF48B0F989
:105110000200801C00EB4000CD4A02EB0012CB489D
:10512000B0F90000401C22F81010C848B0F9020085
:1051300000EB4000C64A02EB0012C448B0F9000080
:10514000801C22F81010224600210120FFF79CFB52
:10515000224601210846FFF797FB22460221002044
:10516000FFF7AAFB224602E006E082E0F6E1012119
:105170000220FFF7A1FBF2E1B448B0F902000028D9
:105180001DDBB248B0F90200801C00EB4000B049C2
:1051900001EB0011AD48B0F9000031F8100070B912
:1051A000AA48B0F90200401C00EB4000A84901EBFE
:1051B0000011A648B0F9000031F8100000B17DE7F9
:1051C0000021A448818081810120A24908810882B0
:1051D00000219E48B0F9020000EB40009C4A02EB1F
:1051E00000129A48B0F90000801C22F8101097486D
:1051F000B0F90200401C00EB4000954A02EB00129F
:105200009248B0F90000801C22F8101081F00101D2
:105210008E48B0F90200401C00EB40008C4A02EBC3
:1052200000128A48B0F9000022F810108748B0F93F
:105230000200801C00EB4000854A02EB001283480C
:10524000B0F9000022F81010224600210220FFF7DA
:1052500033FB224600210120FFF72EFB22460221CC
:105260000120FFF711FB224602210020FFF70CFB73
:1052700075E17648B0F9020000282DDB7348B0F9DB
:10528000020000EB4000724901EB00116F48B0F9D9
:105290000000401C31F81000F0B96C48B0F9020071
:1052A00000EB40006A4901EB00116848B0F90000CA
:1052B000801C31F8100078B96448B0F90200401C35
:1052C00000EB4000624901EB00116048B0F90000BA
:1052D000401C31F8100000B1F0E600215D4801816A
:1052E00001828182012181804181418000215748D2
:1052F000B0F90200401C00EB4000554A02EB0012DE
:105300005248B0F9000022F810105048B0F90200DD
:10531000801C00EB40004E4A02EB00124B48B0F9F3
:10532000000022F810104948B0F90200801C00EB80
:105330004000474A02EB00124448B0F90000801CCC
:1053400022F8101081F001014048B0F9020000EB92
:1053500040003F4A02EB00123C48B0F90000801CBC
:1053600022F810103948B0F90200401C00EB400050
:10537000374A02EB00123548B0F90000401C22F811
:1053800010103248B0F9020000EB4000304A02EB46
:1053900000122E48B0F90000401C22F810102246DE
:1053A00002210846FFF770FA224600210220FFF78B
:1053B0006BFA224600210120FFF766FA22460121FE
:1053C0000846FFF779FA224602210020FFF774FA17
:1053D000224601210020FFF76FFAC0E01B48B0F918
:1053E000000000282EDB1948B0F90200401C00EB39
:1053F0004000174901EB00111448B0F9000031F8E2
:105400001000F8B91148B0F90200401C00EB400050
:105410000F4901EB00110D48B0F90000801C31F874
:10542000100078B90948B0F90200801C00EB400078
:10543000074901EB00110548B0F90000801C31F864
:10544000100048B13AE60000BA070020BC0700206F
:1054500080C7002080CD0020002149488180418004
:105460004182012181828181018100214548B0F979
:10547000020000EB4000444A02EB00124148B0F940
:105480000000801C22F810103E48B0F90200801C79
:1054900000EB40003C4A02EB00123A48B0F9000031
:1054A000401C22F810103748B0F9020000EB400011
:1054B000354A02EB00123348B0F90000401C22F8D4
:1054C000101081F001012F48B0F90200801C00EBA0
:1054D00040002D4A02EB00122A48B0F90000801C5F
:1054E00022F810102748B0F90200401C00EB4000E1
:1054F000254A02EB00122348B0F90000801C22F874
:1055000010102048B0F90200401C00EB40001E4A79
:1055100002EB00121B48B0F9000022F810102246DE
:1055200001210020FFF7B0F9224601210220FFF7F8
:10553000ABF9224602210020FFF7A6F922460021FE
:105540000120FFF7B9F9224602210120FFF7B4F943
:10555000224602210846FFF7AFF900E000BF00BF76
:105560000A480088401C094908800888C11700EBD8
:1055700091718910A0EB8101044A118000BF9DE563
:1055800080CD0020BC07002080C70020BA07002083
:1055900010B50446F948008830B101287ED00228B1
:1055A0007DD003287CD1B4E1F548B0F90200002891
:1055B0002DDBF348B0F9020000EB4000F14901EBAC
:1055C0000011EF48B0F90000401C31F81000F0B9AC
:1055D000EB48B0F9020000EB4000EA4901EB001192
:1055E000E748B0F90000801C31F8100078B9E448B1
:1055F000B0F90200801C00EB4000E24901EB001111
:10560000DF48B0F90000801C31F8100000B110BD77
:105610000021DD4801824181018101214180818297
:1056200081800021D648B0F90200801C00EB4000C8
:10563000D44A02EB0012D248B0F9000022F8101050
:10564000CF48B0F90200401C00EB4000CD4A02EB0D
:105650000012CB48B0F90000401C22F81010C848D6
:10566000B0F90200401C00EB4000C64A02EB0012F9
:10567000C348B0F9000022F8101081F00101C048C1
:10568000B0F9020000EB4000BE4A02EB0012BC4839
:10569000B0F90000401C22F8101002E03DE0BAE032
:1056A000F6E1B748B0F90200801C00EB4000B54AB3
:1056B00002EB0012B248B0F90000801C22F8101072
:1056C000AF48B0F9020000EB4000AE4A02EB001216
:1056D000AB48B0F90000801C22F8101022460021CF
:1056E0000120FFF7D1F8224601210846FFF7CCF848
:1056F000224600210220FFF7C7F82246022100209F
:10570000FFF7DAF8224602210846FFF7D5F82246CD
:1057100001210020FFF7D0F8BBE19948B0F9000063
:1057200000281EDB9648B0F90200801C00EB400008
:10573000944901EB00119248B0F9000031F81000D3
:1057400078B98F48B0F90200801C00EB40008D4909
:1057500001EB00118A48B0F90000401C31F810003C
:1057600000B154E70020884988804880012186489C
:105770004182018200218248B0F9020000EB400022
:10578000804A02EB00127E48B0F90000801C22F82B
:1057900010107B48B0F9020000EB4000794A02EBA0
:1057A00000127748B0F90000401C22F8101081F078
:1057B00001017348B0F90200801C00EB4000714AFF
:1057C00002EB00126E48B0F90000401C22F81010E5
:1057D0006B48B0F90200801C00EB4000694A02EB04
:1057E00000126748B0F9000022F81010224600218C
:1057F0000220FFF761F8224601210220FFF75CF842
:10580000224601210020FFF73FF822460221002016
:10581000FFF73AF83DE15A48B0F9020000281EDBD4
:105820005748B0F9020000EB4000564901EB001167
:105830005348B0F90000401C31F8100078B95048C6
:10584000B0F90200401C00EB40004E4901EB001192
:105850004B48B0F90000401C31F8100000B1D6E60A
:10586000002149480182818101214181418000213B
:105870004348B0F90200801C00EB4000414A02EBB3
:1058800000123F48B0F9000022F810103C48B0F96F
:105890000200401C00EB40003A4A02EB001238487C
:1058A000B0F90000801C22F8101081F0010134488A
:1058B000B0F90200401C00EB4000324A02EB00123B
:1058C0002F48B0F90000401C22F810102C48B0F905
:1058D000020000EB40002B4A02EB00122848B0F90E
:1058E0000000401C22F81010224602210120FEF781
:1058F000CBFF224600210220FEF7C6FF22460121EF
:105900000846FEF7D9FF224601210020FEF7D4FF0A
:10591000BFE01B48B0F9000000282DDB1848B0F9A3
:105920000200401C00EB4000164901EB0011144836
:10593000B0F9000031F81000F0B91148B0F90200D8
:10594000401C00EB40000F4901EB00110C48B0F97E
:105950000000801C31F8100070B90948B0F902004D
:10596000801C00EB4000074901EB00110448B0F92E
:10597000000031F8100048B149E60000BA070020E5
:10598000BC07002080C7002080CD002000214948AE
:105990008182418041820121018281810181002136
:1059A0004548B0F90200801C00EB4000434A02EB7E
:1059B00000124148B0F90000801C22F810103E4847
:1059C000B0F90200801C00EB40003C4A02EB0012E0
:1059D0003948B0F90000401C22F810103648B0F9E0
:1059E000020000EB4000354A02EB00123248B0F9E9
:1059F0000000401C22F8101081F001012E48B0F97F
:105A00000200801C00EB40002C4A02EB00122A48E6
:105A1000B0F9000022F810102748B0F90200401C2D
:105A200000EB4000254A02EB00122348B0F90000C9
:105A3000801C22F810102048B0F90200401C00EB36
:105A400040001E4A02EB00121B48B0F9000022F889
:105A50001010224601210020FEF716FF22460121E8
:105A60000220FEF711FF224602210846FEF70CFF36
:105A7000224600210120FEF71FFF224602210120BD
:105A8000FEF71AFF224600210220FEF715FF00E074
:105A900000BF00BF0A480088401C094908800888E8
:105AA000C11700EB91718910A0EB8101044A1180AC
:105AB00000BFACE580CD0020BC07002080C70020DF
:105AC000BA07002010B504466848008820B368482B
:105AD000B0F9000000281EDB6548B0F90200801C08
