:020000040800F2
:1000000080BE0020B1010008B9010008B702000855
:10001000BD010008BF010008C10100080000000088
:10002000000000000000000000000000C301000804
:10003000C50100080000000003020008093800089C
:10004000CB010008CB010008CB010008CB01000860
:10005000CB010008CB010008770E0008C50E000890
:10006000D70E0008E90E0008FB0E0008CB010008BF
:10007000CB010008CB010008CB010008CB01000830
:10008000CB010008CB010008CB010008CB01000820
:10009000CB010008CB010008CB0100080D0F0008C0
:1000A000CB010008CB010008CB010008CB01000800
:1000B000CB010008CB010008CB010008CB010008F0
:1000C000CB010008CB010008CB010008CB010008E0
:1000D000CB0100087D3E0008CB010008CB010008E1
:1000E000890E0008CB010008CB010008CB010008F5
:1000F000CB010008CB010008CB010008CB010008B0
:10010000CB010008CB010008CB010008CB0100089F
:10011000CB010008CB010008CB010008CB0100088F
:10012000CB010008CB010008CB010008CB0100087F
:10013000CB010008CB010008CB010008CB0100086F
:10014000CB010008CB010008CB010008CB0100085F
:10015000CB010008CB010008CB010008CB0100084F
:10016000CB010008CB010008CB010008CB0100083F
:10017000CB010008CB010008CB0100080000000003
:10018000CB010008CB010008DFF810D000F04CFDD7
:1001900000480047610D0008AFF3008080BE0020DA
:1001A000002804D090FAA0F0B0FA80F0401C70470C
:1001B0000648804706480047FEE7FEE7FEE7FEE701
:1001C000FEE7FEE7FEE7FEE7FEE7FEE7ED380008A4
:1001D00089010008EFF3108072B6704780F3108831
:1001E0007047434A1368012B04D04FF0010313609A
:1001F000404A1060404A116040484FF08051016011
:100200007047EFF3108272B63948016851B34FF06E
:10021000000101603748016891B1EFF309811EF0D8
:10022000100F08BF21ED108B21E9F00F4FF00004F3
:100230001EF0100F08BF012441F8044D0068016052
:100240002D490968096808C9B1E8F00F002B18BFEB
:10025000B1EC108B81F309884EF0100E002B18BF03
:100260002EF0100E82F310884EF0040E70472249D3
:100270000860EFF3148222F0040282F314881D490F
:100280004FF0000008601A494FF0010008601C4858
:100290004FF47F01D0F8002041EA020101601748C5
:1002A0004FF08051016017480068006880F30888AB
:1002B00061B662B670471EF0040F0CBFEFF3088002
:1002C000EFF3098020E9F00F40F804ED40F804ED69
:1002D0001EF0040F0CBF80F3088880F3098800B576
:1002E0003FF072FA5DF804EB4EF0040E7047000028
:1002F0000C000020040000200800002004ED00E0B5
:1003000020ED00E008ED00E02DE9F05F054600205B
:1003100092469B4688460646814640241BE0284676
:1003200041464746224600F00FFB53465A46C01A44
:10033000914110D311461846224600F047F82D1A75
:1003400067EB01084F4622460120002100F03EF8ED
:1003500017EB00094E41201EA4F10104DFDC4846E2
:1003600031462A464346BDE8F09F2DE9F04100247E
:10037000061B254671F1000605DA01240027D0EBA3
:10038000070067EB0101161E73F1000605DA00276E
:10039000D2EB0702012567EB0303FFF7B5FF8646A3
:1003A0000E4617469C46AC4204D00025D0EB050E05
:1003B00065EB010624B10020D2EB000760EB030CD3
:1003C000704631463A466346BDE8F081202A04DB98
:1003D000203A00FA02F1002070479140C2F1200358
:1003E00020FA03F3194390407047A0F14101192905
:1003F00000D82030704700000649074A086850437B
:1004000043F239021044086040087047014908600F
:1004100070470000A40500206D4EC64110B5431A78
:10042000934209D28318881803E010F8011D03F8DD
:10043000011D521EF9D210BD40EA01039B0703D0F3
:1004400009E008C9121F08C0042AFAD203E011F813
:10045000013B00F8013B521EF9D210BDD2B201E0BF
:1004600000F8012B491EFBD270470022F6E710B5B9
:1004700013460A4604461946FFF7F0FF204610BD12
:10048000421E12F8013F002BFBD111F8013B02F88C
:10049000013B002BF9D1704730B505462A460B4683
:1004A00012F8010B13F8014B08B1A042F8D01CB1AF
:1004B000002802D06D1CF1E7284630BD10B5044677
:1004C00004E00B7800F8013B03B1491C521EF8D23E
:1004D000204610BD421C10F8011B0029FBD1801AD8
:1004E000704710B5002200E0521C835C8C5CA34274
:1004F00001D1002BF8D1D8B2E1B2401A10BD30B50D
:1005000004460020034600E05B1C934203D2E05CFB
:10051000CD5C401BF8D030BD034611F8012B00F82C
:10052000012B002AF9D11846704730B50546002046
:10053000034600E05B1C934205D2EC5CC85C201AC9
:1005400001D1002CF6D130BD0022CBB20178994206
:1005500000D10246401C0029F8D1104670472DE911
:10056000F04791460F4680460446002614F8015B8A
:100570002DB100F00BFA0068405DC007F6D12B2DBD
:1005800002D02D2D18D0641E4A463946204600F070
:1005900001FA27B13968A14201D1C7F8008071057D
:1005A0004FF002040BD54042002803DD03F0DCFCD1
:1005B0000460A007BDE8F08746F48066E4E7002801
:1005C000F8DA03F0D1FC04606FF00040F2E72DE9A7
:1005D000F05F93460F4680460446002603F0C4FCB5
:1005E000D0F80090824614F8015B2DB100F0CEF9EE
:1005F0000068405DC007F6D12B2D02D02D2D1AD0FA
:10060000641E0021CAF800105A463946204600F000
:10061000C1F9014627B13868A04201D1C7F800806E
:10062000DAF80000022809D0CAF80090700505D554
:100630004842BDE8F09F46F48066E2E70846F8E7E6
:1006400070B5064603F090FC046805460A220021B6
:100650003046FFF784FF2C6070BD2DE9FE4F8046C9
:1006600081EA0300C00F0C46009021F0004123F006
:100670000045B8EB0200A94105D24046214690460C
:100680001C460B46024623F00040104347D0270D7E
:10069000C7F30A00C3F30A510290401A01904028A0
:1006A0006BDAC3F3130040F4801B0098924620B12C
:1006B0000023D2EB030A63EB0B0B01985946C0F100
:1006C00040025046FFF782FE06460D465046594608
:1006D000019A00F049F910EB08006141002487EA13
:1006E000115284EAE7731A4340D0009A62B3019A28
:1006F000012A4FEA075215DC001B61EB02014FF0A3
:10070000004202EA0752CDE90042001C41F5801187
:1007100032462B4600F09CF903B0BDE8F08F40460E
:100720002146F9E7001B61EB0201001C41F5801333
:1007300000185B412018A2F5001747EB030140EABF
:10074000D570B6196D4111E06D084FEA360645EADD
:10075000C0754FEA0752001B61EB0201001C41F516
:10076000801149084FEA30000019514132462B46AA
:1007700003B0BDE8F04F00F05CB9009801224000E2
:100780000023D0EB020263EBE073009821464FEAAE
:10079000E074B8EB000061EB0401E9E783F000438B
:1007A0005BE781F0004158E72DE9FE4F81EA030441
:1007B00004F0004421F0004100944FF0000B23F0BE
:1007C000004350EA01045ED052EA03045BD0C3F355
:1007D0000A54C1F30A552C44A4F2F3340194A0FB4B
:1007E0000254C1F3130141F48011C3F3130343F422
:1007F000801301FB024400FB034E840A970A44EA7B
:10080000815447EA8357A4FB076802958D0A05FBCC
:1008100007854FEA932C04FB0C542705029D4FEAF1
:10082000065847EA1637B5EB08056EEB070C870E3E
:10083000920E47EA811742EA8312A7FB0201B6EB48
:100840000B0164EB00042B0D43EA0C335E1844EB00
:100850001C50DA465146E7FB0201C5F313044FEA88
:100860000B3343EA14534FEA0432019C43EA060374
:10087000A4F10C040294009CCDE900B400F0E8F867
:1008800003B0BDE8F08F00200146F9E70EB5C10FB7
:1008900080EAE0700844CA07002140F233438DE843
:1008A0000E000A460B4600F0D3F803B000BD70B549
:1008B000C1F30A5201F000450024C1F3130140F2D4
:1008C000FF3341F480119A4201DA002070BD40F2FA
:1008D00033439A42A2F2334203DC524200F034F82E
:1008E00000E090402C43F1D0404270BD30B5041E72
:1008F00071F1000404DB4FF00044404264EB01015D
:10090000141E73F1000405DB1C464FF000435242F5
:1009100063EB0403994208BF904230BD30B50B46EB
:10092000014600202022012409E021FA02F59D421F
:1009300005D303FA02F5491B04FA02F52844151EF3
:10094000A2F10102F1DC30BD202A04DB203A21FAB9
:1009500002F00021704721FA02F3D040C2F12002D8
:100960009140084319467047202A06DBCB17203AEE
:1009700041FA02F043EAE07306E041FA02F3D040A4
:10098000C2F1200291400843194670470048704761
:10099000BCDE06082DE9F05F824600780027154688
:1009A0008B460AF10104B946302801D09DB113E00D
:1009B00014F8010B0127782803D0582801D045B13D
:1009C0000AE00DB1102D07D10027102514F8010BF6
:1009D00002E0082500E00A250026B0460EE005FBEF
:1009E000080005FB06F1012701EB10461FFA80F80D
:1009F000B6F5803F00D3B94614F8010B294600F044
:100A000025F90028EBDABBF1000F05D00FB1641E09
:100A100000E05446CBF80040B9F1000F06D003F0D7
:100A2000A3FA02210160C81EBDE8F09F48EA064013
:100A3000FAE710B5141E73F1000408DA401C41F106
:100A4000000192185B411A4301D120F0010010BD52
:100A50002DE9F04D92469B4611B1B1FA81F202E0C8
:100A6000B0FA80F220329046FFF7B0FC04460F4601
:100A700040EA0A0041EA0B0153465A46084313D0A4
:100A8000114653EA010019D0C8F140025046FFF761
:100A90005BFF05460E46504659464246FFF796FC18
:100AA000084305D0012004E020463946BDE8F08D1A
:100AB0000020054346EAE0762C4337430A98630555
:100AC000E40AA0EB08000022FD0A44EA47540A3079
:100AD00002D500200146E9E7010510196941DDE969
:100AE000084500196941BDE8F04DA2E72DE9F04D38
:100AF00081EA030404F0004B21F0004514464FF056
:100B0000000A23F0004150EA050220D054EA010215
:100B10001DD0C5F30A570246C5F31303C1F31300F2
:100B2000C1F30A5640F4801543F48013A7EB06087E
:100B3000101BD64608F2FD3873EB050002D308F10E
:100B4000010801E092185B41B8F1000F03DA0020C0
:100B50000146BDE8F08D00204FF480110646844622
:100B60000EE0171B73EB050705D3121B63EB0503A0
:100B700006434CEA010C49084FEA300092185B41E9
:100B800050EA0107EDD152EA030012D082EA0400D4
:100B900083EA0501084305D0101BAB4106D20122B0
:100BA000002306E000224FF0004302E06FF0010254
:100BB00053101AEB06004CEB085110EB0A0041EB06
:100BC0000B01BDE8F04DFFF734BF70B521F00043D5
:100BD00003430CD0C1F30A550024D5EB040564EBA4
:100BE0000403D617AD1AB34102DB0020014670BDE5
:100BF000201841EB025170BDC1F30A52C1F3130139
:100C000040F2FF3341F480119A4202DA002001469B
:100C1000704740F233439A42A2F2334202DC52421E
:100C2000FFF792BEFFF7D2BB064C074D06E0E06827
:100C300040F0010394E8070098471034AC42F6D323
:100C4000FFF7A6FAC0300708E03007083A2800D2BC
:100C5000303820F02002412A01D3A2F13700884227
:100C600001D34FF0FF3070472DE9F04D00231A46B5
:100C70001B1A8A4103DB00200146BDE8F08DC1F359
:100C80000A52C1F3130141F480154FF0000BD10754
:100C900002D100186D41521E0027044640F2FF1198
:100CA000384601EB620A3E468046024600204FF479
:100CB0008011FFF749FEC2197141BB1846EB0100D4
:100CC000B4EB030C75EB000C04D3E41A65EB0005E0
:100CD00017460E46241908F101006D41804634285C
:100CE000E3DDF91946EB0600091BA84103D24FF0DA
:100CF000FF32134601E0002213461BEB070046EBD0
:100D00000A51BDE8F04DFFF794BE70B58C1810F88D
:100D1000015B15F0070301D110F8013B2A1106D140
:100D200010F8012B03E010F8016B01F8016B5B1E5A
:100D3000F9D12B0705D40023521E0DD401F8013B35
:100D4000FAE710F8013BCB1A921C03E013F8015BA1
:100D500001F8015B521EF9D5A142D8D3002070BD25
:100D600010B543F068FF002010BD00000146087870
:100D700010381823B0FBF3F20848805CC865032ADA
:100D800005D908686FF30900001D886503E008684D
:100D90006FF309008865886D704700003A1E0608E9
:100DA000014600208A6A8B69CBB932B1012A0DD085
:100DB000022A03D0032A10D10EE000BFCB6A03F051
:100DC0008073B3F1807F00D1012007E0CB6AB3F1DB
:100DD000C07F00D1012001E000E000BF34E08B695A
:100DE000B3F5005F1AD132B1012A07D0022A03D02D
:100DF000032A11D10AE000BF01200EE0CB6A03F004
:100E00008073B3F1807F00D1012006E0CB6AB3F19B
:100E1000C07F00D1012000E000BF15E032B1012AFF
:100E200005D0022A04D0032A0CD103E000BF00BF82
:100E3000012008E0CB6A03F08073B3F1807F00D11A
:100E4000012000E000BF00BF704730B5046824688F
:100E500024F4802405682C60046863608468402C56
:100E600004D10468A2600468E16003E00468A16042
:100E70000468E26030BD10B53FF0A2FA012000F036
:100E800043FD3FF0C7FA10BD10B53FF099FA4FF49B
:100E9000806000F039FD4FF4006000F035FD4FF444
:100EA000805000F031FD4FF4005000F02DFD4FF464
:100EB000804000F029FD4FF4004000F025FD3FF098
:100EC000A9FA10BD10B53FF07BFA022000F01CFD1E
:100ED0003FF0A0FA10BD10B53FF072FA042000F008
:100EE00013FD3FF097FA10BD10B53FF069FA0820E6
:100EF00000F00AFD3FF08EFA10BD10B53FF060FA29
:100F0000102000F001FD3FF085FA10BD10B53FF054
:100F100057FA202000F0F8FC402000F0F5FC80207B
:100F200000F0F2FC4FF4807000F0EEFC4FF4007023
:100F300000F0EAFC3FF06EFA10BDF0B50246CEB20A
:100F4000090ACDB2090ACCB2090A0B4602F14807D8
:100F500057F823C002F5896757F824700CEB070097
:100F600002F6480757F82570784002F6484757F8C8
:100F700026703844F0BD000010B5002201B909E028
:100F8000012901D10A0205E0022901D10A0201E08A
:100F90004FF440720E4B1B6823F440730C4C2360DB
:100FA00023461B681343236023461B6823F0F80382
:100FB000236023461B68022444EAC0042343044CF4
:100FC000236023461B6843F48033236010BD000078
:100FD000103C02401C48006800F40070B0B11A4890
:100FE000006820F400701849086000BF08460068D7
:100FF00040F4006008600846006820F40060086063
:1010000000BF0846006840F4007008600E480068A1
:1010100000F48060B0B10C48006820F480600A4998
:10102000086000BF0846006840F480500860084629
:10103000006820F48050086000BF0846006840F453
:101040008060086070470000003C02400A4A126855
:1010500022F44072084B1A601A46126842F00402E9
:101060001A601A4612684FF4803343EA00231A4389
:10107000014B1A6070470000103C0240074A12689A
:1010800022F44072054B1A601A4612681A601A461A
:10109000126842F001021A6001707047103C024071
:1010A00010B50D49096821F440710B4C21602146AF
:1010B000096841F4407121602146096841F001014D
:1010C0002160026000BF00BF00BFBFF36F8F00BF91
:1010D00000BF00BF436010BD103C0240084A1268C8
:1010E00022F44072064B1A601A46126842F480726B
:1010F0001A601A46126842F001021A6001807047B5
:10110000103C0240084A126822F44072064B1A60F2
:101110001A46126842F400721A601A46126842F0C7
:1011200001021A6001607047103C024023480068C9
:1011300000F0100040B12248C06940F01000204982
:10114000C86110201D4908601C48006800F020009C
:1011500040B11B48C06940F008001949C86120200F
:10116000164908601548006800F0400040B1144876
:10117000C06940F004001249C86140200F4908606E
:101180000E48006800F0800040B10D48C06940F092
:1011900002000B49C86180200849086007480068C0
:1011A00000F0020040B10648C06940F02000044948
:1011B000C861022001490860704700000C3C0240F1
:1011C000AC05002070B50446002500201449C86114
:1011D00000F0B8FC054609E0601C38B124B100F00D
:1011E000B1FC401BA04201D9032070BD0D4800682E
:1011F00000F480300028EFD10A48006800F00100B8
:1012000010B10120074908600648006800F0F200AC
:1012100018B1FFF78BFF0120E7E70020E5E70000AA
:10122000AC0500200C3C0240014600202F4A9142B0
:1012300003D2B1F1006F00D356E02D4A914204D29F
:101240002A4A914201D301204EE02A4A914204D217
:10125000274A914201D3022046E0274A914204D214
:10126000244A914201D303203EE0244A914204D211
:10127000214A914201D3042036E0214A914204D20E
:101280001E4A914201D305202EE01E4A914204D20B
:101290001B4A914201D3062026E01B4A914204D208
:1012A000184A914201D307201EE0184A914204D205
:1012B000154A914201D3082016E0154A914204D202
:1012C000124A914201D309200EE0124A914204D2FF
:1012D0000F4A914201D30A2006E0B1F1016F03D217
:1012E0000C4A914200D30B207047000000400008D8
:1012F0000080000800C0000800000108000002088B
:1013000000000408000006080000080800000A08A1
:1013100000000C0800000E0870B50446A56D00F032
:1013200011FC064694F83500022808D0802060653C
:1013300000BF002084F8340000BF012070BD206889
:10134000006820F01600216808602068406920F0DD
:10135000800021684861206C08B9A06C28B1206821
:10136000006820F00800216808602068006820F00C
:101370000100216808600FE000F0E4FB801B0528F5
:101380000AD92020606500BF002084F8340000BF27
:10139000032084F83500D1E72068006800F00100E0
:1013A0000028E9D194F85C103F208840A86000BF75
:1013B000002084F8340000BF012084F835000020AC
:1013C000BCE7014691F83500022803D0802048652B
:1013D00001207047052081F835000868006820F07A
:1013E00001000A6810600020F3E770B504460CB9EC
:1013F000012070BD94F83500022800D1F9E720687B
:10140000006820F001002168086000202168086061
:1014100021684860216888602168C8602168086187
:101420002120216848612046FFF7A0FC05460020E6
:10143000E06320646064A064E064206594F85C105C
:101440003F208840A8600020606584F8350000BF18
:1014500084F8340000BF00BFCBE700002DE9F04165
:101460000446002500F06EFB074614B90120BDE8D4
:10147000F081606A00B100BF00BF002084F8340032
:1014800000BF022084F835002068006820F00100C9
:10149000216808600AE000F055FBC01B052805D94B
:1014A00020206065032084F83500E0E720680068AC
:1014B00000F001000028EED12068056821480540B1
:1014C000D4E901010843E1680843216908436169DF
:1014D0000843A1690843E1690843216A08430543B9
:1014E000606A042803D1D4E90B010843054320684E
:1014F00005602068456925F00705606A0543606A54
:1015000004280DD1A06A0543E06A48B12046FFF7E0
:1015100047FC28B140206065012084F83500A6E72B
:10152000206845612046FFF721FC064694F85C10D0
:101530003F208840B06000206065012084F83500BD
:10154000002094E73F8010F02DE9F04704460D4657
:1015500016461F464FF00008D4F8589000BF94F884
:101560003400012802D10220BDE8F087012084F870
:10157000340000BF94F83500012825D1022084F8FA
:101580003500002060653B46324629462046FFF77D
:101590005CFC94F85C103F208840C9F80800206883
:1015A000006840F0160021680860206C28B12068AF
:1015B000006840F00800216808602068006840F07A
:1015C00001002168086006E000BF002084F83400B4
:1015D00000BF4FF002084046C6E700002DE9F04189
:1015E00004460E460127002500BF2548007E01283D
:1015F00002D10220BDE8F08101202149087600BF18
:101600004CF25030FFF7DEFD0746002F31D1401E6F
:101610003060206801280FD1207C6168FFF716FD3B
:101620004CF25030FFF7CEFD07461648006820F018
:101630000400144908601AE0A56812E0217C2846DD
:10164000FFF79AFC4CF25030FFF7BCFD07460D48FF
:10165000006820F0FA000B4908600FB1356005E022
:101660006D1CD4E902100844A842E7D800BFFFF778
:10167000B1FC00BF00200249087600BF3846B9E738
:10168000AC050020103C02400348006840F00040D8
:101690000149086000207047103C02402DE9F041EC
:1016A00006460F4614461D464FF0010800BF1F486E
:1016B000007E012802D10220BDE8F08101201B49F3
:1016C000087600BF4CF25030FFF77CFD8046B8F141
:1016D000000F23D126B9E1B23846FFF7CFFC12E064
:1016E000012E04D1A1B23846FFF7F8FC0BE0022E20
:1016F00004D121463846FFF705FD04E022462B467B
:101700003846FFF7CDFC4CF25030FFF75BFD8046CA
:101710000748006820F001000549086000BF00206C
:101720000249087600BF4046C6E70000AC0500202D
:10173000103C024000200949096801F0004159B1FC
:101740000749064A0C3A11600649116003490968C5
:1017500001F0004101B1012070470000103C02403F
:1017600023016745AB89EFCDF0B50C46002500227B
:101770000023002192E0012606FA01F504EA0502A1
:10178000AA427DD1474E8F0856F827308E07370F73
:101790000F26BE403340444EB04201D1002623E024
:1017A000424EB04201D101261EE0414EB04201D16D
:1017B000022619E03F4EB04201D1032614E03E4E0E
:1017C000B04201D104260FE03C4EB04201D10526C3
:1017D0000AE03B4EB04201D1062605E0394EB04248
:1017E00001D1072600E008268F073F0FBE409E422A
:1017F00022D1354E36689643334F3E603E1D3668E3
:1018000096433F1D3E603E1D366896433F1D3E6039
:101810003E1D366896433F1D3E608E07370F0F26EC
:1018200006FA07F31F4E8F0856F827609E431D4F98
:101830004FEA910C47F82C6006684FEA410C0327E9
:1018400007FA0CF7BE430660CF0800F1200656F8F1
:1018500027604F074FEAD76C0F2707FA0CF7BE43F4
:101860004FEAD10C00F1200747F82C60C6684FEA18
:10187000410C032707FA0CF7BE43C660466800E038
:101880000BE001278F40BE43466086684FEA410C5B
:10189000032707FA0CF7BE438660491C1029FFF4A2
:1018A0006AAFF0BD08380140000002400004024069
:1018B00000080240000C02400010024000140240E8
:1018C00000180240001C0240003C014070B5054673
:1018D000284605F075F8044604EB4400094901EB7D
:1018E0008000406858B104EB44020B4603EB8202CF
:1018F000906804EB440203EB82025168884700BF02
:1019000070BD00002000002010B5044604480068A7
:10191000204020B1024804602046FFF7D7FF10BDE9
:10192000143C0140F8B502460B4600250024002077
:101930000021DEE0012606FA01F51E6806EA05042C
:10194000AC4275D11E7906F00306012E04D01E7933
:1019500006F00306022E13D190684F000326BE4006
:10196000B0434F00DE68BE403043906050680126AF
:101970008E40B0431E79C6F300168E40304350604F
:101980001E7906F00306032E09D0D0684F00032607
:10199000BE40B0434F009E68BE403043D0601E79C9
:1019A00006F00306022E13D1CF0802F1200656F8E6
:1019B00027004E07F70E0F26BE40B0434F07FF0E1D
:1019C0001E69BE403043CF0802F1200646F82700CA
:1019D00010684F000326BE40B0431E7906F0030690
:1019E0004F00BE40304310605E6806F08056B6F18E
:1019F000805F7DD100BF00260096404E366846F4D9
:101A000080463E4F3E603E46366806F4804600966D
:101A100000BF00BF3A4E8F0856F827008E07370FD9
:101A20000F26BE40B043374EB24202D1002624E01A
:101A30005EE0354EB24201D101261EE0334EB24285
:101A400001D1022619E0324EB24201D1032614E040
:101A5000304EB24201D104260FE02F4EB24201D1E6
:101A600005260AE02D4EB24201D1062605E02C4E95
:101A7000B24201D1072600E008268F073F0FBE4083
:101A800030431F4E8F0846F82700264E3068A0438B
:101A90005E6806F48036B6F5803F00D12043214EC3
:101AA0003060361D3068A0435E6806F40036B6F537
:101AB000003F00D120431B4E361D3060361D30687C
:101AC000A0435E6806F48016B6F5801F00D120435F
:101AD000144E08363060361D3068A0435E6806F448
:101AE0000016B6F5001F00D120430E4E0C363060B4
:101AF000491C1029FFF41EAFF8BD00004438024015
:101B00000838014000000240000402400008024082
:101B1000000C024000100240001402400018024075
:101B2000001C0240003C0140024613690B400BB10F
:101B3000012000E0002070470AB1816101E00B0440
:101B40008361704710B542F0B5FA4FF47A7148439B
:101B5000B0FBF1F010BD00000348006803490978AC
:101B60000844014908607047140000201C00002050
:101B700010B50D48006840F400700B490860084635
:101B8000006840F4806008600846006840F4807097
:101B90000860032000F0A2F8002000F007F800F031
:101BA00009F8002010BD0000003C02400146002062
:101BB0007047000008B500BF002000900E48006884
:101BC00040F480400C4908600846006800F48040FA
:101BD000009000BF00BF00BF00200090081F0068F9
:101BE00040F08050091F08600846006800F08050EF
:101BF000009000BF00BF08BD4438024010B5014648
:101C00000846002817DB00F01F0301229A400B4B07
:101C1000440943F8242000BF00BF00BFBFF34F8F2B
:101C200000BF00BF00BF00BF00BF00BFBFF36F8F8A
:101C300000BF00BF00BF00BF10BD000080E100E09A
:101C400001460846002809DB00F01F0301229A40E4
:101C500043099B0003F1E023C3F8002100BF704754
:101C60002DE9F05F80460D461646002702F060F928
:101C7000074639462A46334601F00700C0F1070AF5
:101C8000BAF1040F02D94FF0040A01E0C0F1070ACB
:101C9000D14600F1040ABAF1070F02D24FF0000A50
:101CA00001E0A0F1030AD4464FF0010A0AFA09FA4A
:101CB000AAF1010A0AEA020A0AFA0CFA4FF0010B29
:101CC0000BFA0CFBABF1010B0BEA030B4AEA0B041A
:101CD0002146404602F034F9BDE8F09F00BF00F015
:101CE0000702064B19684FF6FF031940044B0B43DC
:101CF00043EA0221014B196000BF70470CED00E080
:101D00000000FA0570B504460D460CB9012070BDFF
:101D10005848006800F00700A84209D255490D70E4
:101D20000846006800F00700A84201D00120EEE755
:101D3000207800F0020002281DD1207800F0040075
:101D4000042805D14C48006840F4E0504A49086036
:101D5000207800F00800082805D14748006840F4C2
:101D60006040454908604448006820F0F000A168E0
:101D7000084341490860207800F00100A8B360687A
:101D8000012807D13C4808380068C0F34040B8B982
:101D90000120BCE76068022802D06068032807D1F0
:101DA000354808380068C0F3406048B90120AEE704
:101DB000314808380068C0F3400008B90120A6E7A0
:101DC0002D48006820F00300616808432A49086034
:101DD000FFF7B8FE064609E0FFF7B4FE801B41F2AC
:101DE0008831884202D9032091E707E02248006841
:101DF00000F00C006168B0EB810FEDD11D48006868
:101E000000F00700A84209D91A490D700846006879
:101E100000F00700A84201D0012078E7207800F008
:101E20000400042807D11448006820F4E050E16859
:101E3000084311490860207800F00800082808D1FC
:101E40000D48006820F46040216940EAC1000A4959
:101E5000086000F03FF808490968C1F30311074A18
:101E6000515CC8400649086006480068FFF79EFEBE
:101E700000204CE7003C024008380240221E0608C1
:101E80000000002018000020014800687047000092
:101E90000000002000B5FFF7F7FF04490968C1F30F
:101EA0008221034A515CC84000BD0000083802404E
:101EB000321E060800B5FFF7E7FF04490968C1F3C1
:101EC0004231034A515CC84000BD0000083802405E
:101ED000321E06082DE9F047002400250026A14601
:101EE0002548006800F00C0020B1042805D008281F
:101EF0003AD105E0DFF8849039E0DFF8849036E0ED
:101F00001D48001F006800F03F041B48001F0068C8
:101F100000F4800078B11A481749091F0968C1F315
:101F20008811A0FB01700146224600233846FEF7C7
:101F3000EBF905460EE011480F49091F0968C1F386
:101F40008811A0FB01700146224600233846FEF7A7
:101F5000DBF905460848001F0068C0F30140401C3B
:101F60004600B5FBF6F902E0DFF8109000BF00BFB5
:101F70004846BDE8F0870000083802400024F4001D
:101F800000127A00F8B504460CB90120F8BD20789B
:101F900000F00100002874D0F948006800F00C003F
:101FA00004280DD0F648006800F00C00082813D172
:101FB000F348001F006800F48000B0F5800F0BD1DB
:101FC000EF4808380068C0F34040002859D06068E6
:101FD000002856D10120D9E700BF6068B0F5803FE6
:101FE00008D1E7480838006840F48030E4490839EF
:101FF00008601EE06068B0F5A02F0DD1E0480838F9
:10200000006840F48020DE4908390860084600680E
:1020100040F4803008600CE0D9480838006820F4AB
:102020008030D749083908600846006820F48020CD
:10203000086000BF606890B1FFF784FD054606E0C8
:10204000FFF780FD401B642801D903209EE7CC48A0
:1020500008380068C0F340400028F1D011E0FFF7D5
:1020600071FD054606E0FFF76DFD401B642801D9B0
:1020700003208BE7C24808380068C0F340400028BE
:10208000F1D1207800F0020002285FD1BC4800683E
:1020900000F00C0058B1BA48006800F00C000828A5
:1020A0001CD1B748001F006800F48000B0B9B448E4
:1020B00008380068C0F3400020B1E068012801D072
:1020C000012063E7AE480838006820F0F800216975
:1020D00040EAC100AA490839086037E0E06800B367
:1020E0000120A8490860FFF72DFD054606E0FFF72F
:1020F00029FD401B022801D9032047E7A0480838E2
:102100000068C0F340000028F1D09D4808380068FE
:1021100020F0F800216940EAC100994908390860B7
:1021200014E0002097490860FFF70CFD054606E023
:10213000FFF708FD401B022801D9032026E790483D
:1021400008380068C0F340000028F1D1207800F082
:10215000080008282CD16069A8B101208A490860CC
:10216000FFF7F0FC054606E0FFF7ECFC401B0228F9
:1021700001D903200AE782486C300068C0F34000B0
:102180000028F1D014E000207F490860FFF7DAFC56
:10219000054606E0FFF7D6FC401B022801D90320C4
:1021A000F4E677486C300068C0F340000028F1D1B5
:1021B000207800F00400042870D1002770483830DF
:1021C000006800F0805090B900BF002000906C487B
:1021D0003830006840F0805069493831086008465E
:1021E000006800F08050009000BF00BF01276748E2
:1021F000006800F48070B0B96448006840F48070F2
:1022000062490860FFF79EFC054606E0FFF79AFC6E
:10221000401B022801D90320B8E65C48006800F49E
:1022200080700028F2D000BFA068012808D154486F
:102230006830006840F001005149683108601DE0D5
:10224000A06805280DD14E486830006840F00400B1
:102250004B49683108600846006840F0010008609A
:102260000CE047486830006820F0010044496831BC
:1022700008600846006820F00400086000BFA068FD
:10228000A8B1FFF75FFC054609E0FFF75BFC401BC8
:1022900041F28831884202D9032077E626E03848A7
:1022A00068300068C0F340000028EED013E0FFF76C
:1022B00049FC054608E0FFF745FC401B41F2883128
:1022C000884201D9032061E62D4868300068C0F3D8
:1022D00040000028EFD1012F07D12948383000688D
:1022E00020F0805026493831086000BFA0690028DE
:1022F00045D02348006800F00C0008285DD0A06994
:10230000022845D100201F490866FFF71BFC05463F
:1023100006E0FFF717FC401B022801D9032035E631
:10232000174808380068C0F340600028F1D1D4E9AC
:1023300007010843616A40EA81110122A06AC2EBE9
:10234000500041EA00412C20005D41EA00600C4948
:10235000091F086001200B490866FFF7F3FB0546DB
:1023600006E0FFF7EFFB401B022801D903200DE632
:10237000034808380068C0F340600028F1D049E005
:102380000838024000004742800E4742007000407B
:10239000002021490866FFF7D5FB054606E0FFF758
:1023A000D1FB401B022801D90320EFE51B48006840
:1023B000C0F340600028F2D12CE0A069012800D1D0
:1023C000E4E51648001D0668A069012820D006F43F
:1023D0008001E06981421BD106F03F01206A814201
:1023E00016D147F6C0703040616AB0EB811F0FD143
:1023F00006F440310122A06AC2EB5000B1EB004F5D
:1024000006D106F070612C20005DB1EB006F01D0A9
:102410000120BBE50020B9E500004742003802403A
:102420007047014691F85100704710B504460CB949
:10243000012010BD606A38B96068B0F5827F00D1B4
:1024400005E00021E16102E00021216161610021DC
:10245000A16294F8510028B9002084F85000204669
:1024600000F048F8022084F851002068006820F04D
:10247000400021680860A08800F48270218901F47E
:1024800004410843A18901F400610843217C01F063
:1024900002010843217D01F001010843218B01F471
:1024A00000710843217F01F0380108432021095DB4
:1024B00001F080010843218D01F400510843216897
:1024C00008600421A06901EA104094F8241001F08A
:1024D00010010843216848602068C06920F400604A
:1024E0002168C86100206065012084F85100002047
:1024F0009FE7000010B586B00446142101A8FDF73F
:10250000B4FF49492068884238D100BF00200090BC
:102510004648006840F48050444908600846006816
:1025200000F48050009000BF00BF00BF002000906A
:102530003E481438006840F002003C4914390860F5
:102540000846006800F00200009000BF00BF38207D
:1025500001900220029000200390032004900520A7
:10256000059001A93248FFF7DDF90022114623202A
:10257000FFF776FB2320FFF763FB53E02D4920682C
:1025800088424FD100BF002000902848001F0068FB
:1025900040F480402549091F08600846006800F49F
:1025A0008040009000BF00BF00BF002000901F4887
:1025B0001438006840F004001C49143908600846CB
:1025C000006800F00400009000BF00BF00BF0020C2
:1025D00000900846006840F0020008600846006865
:1025E00000F00200009000BF00BF0C20019002200C
:1025F000029000200390032004900520059001A97B
:102600000D48FFF78FF94FF400500190022002901F
:1026100000200390032004900520059001A90448A0
:10262000FFF780F906B010BD003001404438024089
:102630000004024000380040000802402DE9F84341
:102640000446884616461D464FF000096068B0F5FE
:10265000827F0DD1A06858B9042084F85100334618
:10266000424641462046009500F007FABDE8F8834F
:1026700000BF94F85000012801D10220F6E70120A4
:1026800084F8500000BFFFF75DFA074694F8510048
:10269000012802D04FF002097EE0B8F1000F00D00F
:1026A00016B94FF0010977E0042084F851000020AA
:1026B0006065C4F83880A687E6872063A086E08638
:1026C00020646064A068B0F5004F0BD120680068FA
:1026D00020F04000216808602068006820F48040F5
:1026E000216808602068006800F04000402805D09C
:1026F0002068006840F0400021680860E068F8B990
:102700001AE02068806800F0010050B12068007B6A
:10271000A16B0870A06B401CA063E08F401EE08797
:102720000AE0FFF70FFAC01BA84201D3681C00B9EA
:1027300015B94FF003092FE0E08F0028E1D11EE02A
:102740001AE02068806800F0010050B12068C0687D
:10275000A16B0880A06B801CA063E08F401EE08707
:102760000AE0FFF7EFF9C01BA84201D3681C00B9CB
:1027700015B94FF003090FE0E08F0028E1D13A4688
:102780002946204600F054FF08B120206065606DA6
:1027900008B14FF0010900BF012084F8510000BFCB
:1027A000002084F8500000BF48465FE72DE9F04163
:1027B00004460E4615460027A06870B96068B0F55B
:1027C000827F0AD1042084F851002B4632463146DC
:1027D000204600F067FABDE8F08100BF94F8500091
:1027E000012801D10220F6E7012084F8500000BF43
:1027F00094F85100012801D0022757E006B10DB925
:10280000012753E0042084F8510000206065A6638E
:10281000A587E58720646064A086E086A068B0F59F
:10282000004F0BD12068006820F04000216808604C
:102830002068006820F48040216808601F48E16C2F
:1028400008641F48E16CC8631E48E16CC86400203E
:10285000E16C0865E38FD4F800C00CF10C01A26BA9
:10286000E06CFEF771FE40B1606D40F010006065F5
:102870000127012084F8510018E02068006800F06A
:102880004000402805D02068006840F040002168E2
:1028900008602068406840F0200021684860206897
:1028A000406840F001002168486000BF00BF002080
:1028B00084F8500000BF38468DE70000A3340008BC
:1028C000CD3400087B340008704770472DE9F84F7D
:1028D0000446884616461D464FF0000A00BF94F88D
:1028E0005000012802D10220BDE8F88F012084F8B1
:1028F000500000BFFFF726F90746B14694F8510093
:10290000012802D04FF0020AADE0B8F1000F00D06C
:1029100016B94FF0010AA6E0032084F85100002008
:102920006065C4F83080A686E686A063A087E0874D
:1029300060642064A068B0F5004F0BD12068006887
:1029400020F04000216808602068006840F4804062
:10295000216808602068006800F04000402805D029
:102960002068006840F0400021680860E068B0F529
:10297000006F2FD1606810B1B9F1010F09D1206B40
:1029800000882168C860206B801C2063E08E401E98
:10299000E0861BE02068806800F0020002280AD16F
:1029A000206B00882168C860206B801C2063E08E4B
:1029B000401EE0860AE0FFF7C5F8C01BA84201D31D
:1029C000681C00B915B94FF0030A4CE0E08E0028EE
:1029D000E0D12EE0606810B1B9F1010F09D1206B90
:1029E000007821680873206B401C2063E08E401E35
:1029F000E0861BE02068806800F0020002280AD10F
:102A0000206B007821680873206B401C2063E08EE7
:102A1000401EE0860AE0FFF795F8C01BA84201D3EC
:102A2000681C00B915B94FF0030A1CE0E08E0028BD
:102A3000E0D13A462946204600F044FE08B1202065
:102A40006065A06850B900BF002000902068C06891
:102A5000009020688068009000BF00BF606D08B1E2
:102A60004FF0010A00BF012084F8510000BF002090
:102A700084F8500000BF504636E72DE9FF5F04465A
:102A8000884691461D460E9E01200290002001902E
:102A900000BF94F85000012803D1022004B0BDE823
:102AA000F09F012084F8500000BFFFF74BF8074665
:102AB00094F851B060680390AA46BBF1010F0BD0A7
:102AC0000398B0F5827F04D1A06810B9BBF1040F60
:102AD00002D002200190DBE0B8F1000F03D0B9F181
:102AE000000F00D015B901200190D1E094F85100F9
:102AF000042802D0052084F8510000206065C4F845
:102B00003890E587A587C4F83080E586A5862064DF
:102B100060642068006800F04000402805D020680C
:102B2000006840F0400021680860E068B0F5006F80
:102B30004AD1606810B1BAF1010F09D1206B008849
:102B40002168C860206B801C2063E08E401EE086F8
:102B500033E02068806800F00200022810D1E08E87
:102B600070B1029801280BD1206B00882168C860E1
:102B7000206B801C2063E08E401EE08600200290C7
:102B80002068806800F0010068B1E08F58B12068CB
:102B9000C068A16B0880A06B801CA063E08F401E02
:102BA000E08701200290FEF7CDFFC01BB04204D3A6
:102BB000701C10B1032001906AE0E08E0028C8D19B
:102BC000E08F0028C5D14AE0606810B1BAF1010F6A
:102BD00009D1206B007821680873206B401C2063AA
:102BE000E08E401EE08634E02068806800F002003D
:102BF000022810D1E08E70B1029801280BD1206B11
:102C0000007821680873206B401C2063E08E401E12
:102C1000E086002002902068806800F0010068B122
:102C2000E08F58B12068C068A16B0870A06B401C91
:102C3000A063E08F401EE08701200290FEF782FF34
:102C4000C01BB04201D3701C00B916B9032001901B
:102C50001EE0E08E0028C7D1E08F0028C4D13A469C
:102C60003146204600F02EFD20B1012001902020A9
:102C700060650DE0A06850B900BF0020009020689A
:102C8000C068009020688068009000BF00BF00BF4F
:102C9000012084F8510000BF002084F8500000BFDC
:102CA0000198FBE62DE9F04704460E4617461D46FF
:102CB0004FF0000A00BF94F85000012802D1022012
:102CC000BDE8F087012084F8500000BF94F85180DF
:102CD000D4F80490B8F1010F0AD0B9F5827F04D17D
:102CE000A06810B9B8F1040F02D04FF0020A7DE0DD
:102CF0000EB107B115B94FF0010A77E094F8510011
:102D0000042802D0052084F8510000206065266365
:102D1000A586E586A763A587E5872064606494F8A7
:102D20005100042806D13548E16C08643448E16C50
:102D3000C86305E03348E16C08643348E16CC8635C
:102D40003248E16CC8640020E16C0865E38FD4F878
:102D500000C00CF10C01A26BE06CFEF7F5FB48B172
:102D6000606D40F0100060654FF0010A012084F8AA
:102D700051003BE02068406840F001002168486055
:102D80000020A16C0864A16CC863A16CC864A16C2C
:102D90000865E38ED4F800C00CF10C02216BA06C26
:102DA000FEF7D2FB48B1606D40F0100060654FF057
:102DB000010A012084F8510018E02068006800F042
:102DC0004000402805D02068006840F0400021689D
:102DD00008602068406840F0200021684860206852
:102DE000406840F002002168486000BF00BF00203A
:102DF00084F8500000BF504662E70000A33400088A
:102E0000CD340008BF340008C93500087B34000801
:102E10002DE9F04104460E461546002700BF94F800
:102E20005000012802D10220BDE8F081012084F881
:102E3000500000BF94F85100012801D0022758E04B
:102E400006B10DB9012754E0032084F85100002099
:102E500060652663A586E586A06360642064A0871C
:102E6000E087A068B0F5004F0BD12068006820F023
:102E70004000216808602068006840F480402168B4
:102E800008601F48A16C08641E48A16CC8631E48F6
:102E9000A16CC8640020A16C0865E38ED4F800C062
:102EA0000CF10C02216BA06CFEF74EFB40B1606D83
:102EB00040F0100060650127012084F8510018E0FF
:102EC0002068006800F04000402805D020680068B5
:102ED00040F04000216808602068406840F0200011
:102EE000216848602068406840F00200216848601E
:102EF00000BF00BF002084F8500000BF384693E7B1
:102F0000B1340008493500087B3400087047704729
:102F100070477047042808D14FF0E021096941F05B
:102F200004014FF0E022116107E04FF0E021096950
:102F300021F004014FF0E0221161704770B50446A2
:102F40002546681EB0F1807F01D301200FE0681E86
:102F50004FF0E02148610F214FF0FF3000F0F0FF0B
:102F600000204FF0E021886107200861002070BD3B
:102F70007047000070B504462CB94FF453720349F2
:102F800003A03BF05DF9254670BD00003126060820
:102F9000687561727420213D204E554C4C00000034
:102FA0002DE9F84F0446206805682068C668206847
:102FB00047694FF00009CA4605F00F09B9F1000F43
:102FC0000AD105F0200038B106F0200020B12046DB
:102FD00000F063FDBDE8F88FB9F1000F72D007F083
:102FE000010018B906F4907000286BD005F00100BC
:102FF00030B106F4807018B1206C40F001002064FC
:1030000005F0040030B107F0010018B1206C40F069
:103010000200206405F0020030B107F0010018B191
:10302000206C40F00400206405F0080048B106F070
:10303000200010B907F0010018B1206C40F0080022
:103040002064206C70B305F0200028B106F0200049
:1030500010B1204600F021FD20684069C0F3801ABD
:10306000206C00F0080010B9BAF1000F23D0204600
:1030700000F0DEFC2068406900F04000402816D1D6
:103080002068406920F0400021684861A06B50B181
:103090005648A16B0865A06BFEF793F910B1A06BC1
:1030A000016D88470CE02046FFF764FF08E02046EA
:1030B000FFF760FF04E02046FFF75CFF002020647C
:1030C00088E7FFE7206B012879D105F01000002880
:1030D00075D006F01000002871D000BF00200090CD
:1030E00020680068009020684068009000BF00BF22
:1030F0002068406900F04000402839D1A06B00688A
:1031000040681FFA80F8B8F1000F30D0A08D40451C
:103110002DDDA4F82E80A06BC069B0F5807F1FD094
:103120002068C06820F480702168C8602068406909
:1031300020F00100216848612068406920F04000CB
:1031400021684861202084F83E0000202063206828
:10315000C06820F010002168C860A06BFEF7DCF8A2
:10316000A08DE28D801A81B22046FFF701FF31E782
:10317000A08DE18D401A1FFA80F8E08DE8B1B8F11A
:10318000000F1AD02068C06820F490702168C860D1
:103190002068406920F0010021684861202084F8FF
:1031A0003E00002020632068C06820F010002168E5
:1031B000C86041462046FFF7DBFE0BE7FFE705F05E
:1031C000800030B106F0800018B1204600F026FEE5
:1031D00000E705F0400030B106F0400018B120468D
:1031E00000F041FCF6E600BFF4E6000001390008FB
:1031F00010B504460CB9012010BDA06900B100E073
:1032000000BF94F83D0028B9002084F83C00204617
:1032100000F028F8242084F83D002068C06820F4DD
:1032200000502168C860204600F096FC20680069C4
:1032300020F49040216808612068406920F02A004D
:10324000216848612068C06840F400502168C86067
:1032500000202064202084F83D0084F83E000020F7
:10326000CAE7000010B586B00446142101A8FDF796
:10327000FCF81F492068884238D100BF0020009028
:103280001C48006840F010001A49086008460068B1
:1032900000F01000009000BF00BF00BF00200090B1
:1032A00014481438006840F00100124914390860CD
:1032B0000846006800F00100009000BF00BF4FF416
:1032C000C06001900220029000200390032004902F
:1032D0000720059001A90848FEF724FB00221146AB
:1032E0002520FEF7BDFC2520FEF7AAFC06B010BD88
:1032F00000100140443802400000024070B504460E
:103300000D46164694F83E00202816D105B10EB998
:10331000012070BD00BF94F83C00012801D10220BB
:10332000F7E7012084F83C0000BF0020206332460C
:103330002946204600F026FDEBE70220E9E70000E1
:1033400070B504462CB94FF45772054905A03AF000
:1033500077FF254605F5887008F058F870BD000025
:1033600048260608687561727420213D204E554C30
:103370004C00000070B504462CB940F26B32054990
:1033800005A03AF05DFF254605F5887008F03EF887
:1033900070BD000060260608687561727420213DCA
:1033A000204E554C4C000000F7B50446154694F8E5
:1033B0003D0020283DD1019800B10DB90120FEBD8E
:1033C00000BF94F83C00012801D10220F7E701205A
:1033D00084F83C0000BF01982062A584E5840020A9
:1033E0002064212084F83D001348616BC8631348B2
:1033F000616B08641248616BC8640020616B0865EA
:1034000001AE23681A1D31682B46606BFEF79CF8ED
:103410006FF040002168086000BF002084F83C0085
:1034200000BF2068406940F08000216848610020AA
:10343000C5E70220C3E70000ED390008233A000881
:103440001539000870B504462CB940F272320549AE
:1034500005A03AF0F5FE2546042105F588703CF0FC
:103460005FFB70BD7C260608687561727420213D83
:10347000204E554C4C000000704770B50546AC6BB3
:103480002068406820F0030021684860606D40F0CB
:1034900010006065012084F851002046FEF7C0FF4F
:1034A00070BD70B50446A56B2846FFF70EFA70BDD7
:1034B00070B50446A56B2846FFF729FD70BD70B5B1
:1034C0000446A56B2846FFF724FD70BD70B5054680
:1034D000AC6BFEF737FB06462868006800F4807086
:1034E000B0F5807F2BD02068406820F02000216854
:1034F0004860A06850B96068B0F5827F06D1206846
:10350000406820F003002168486005E020684068BA
:1035100020F001002168486032466421204600F016
:1035200087F808B1202060650020E087012084F83A
:103530005100606D18B12046FEF772FF70BD204645
:10354000FFF7C2F900BFF9E7F8B50546AC6BFEF727
:10355000F9FA06462868006800F48070B0F5807FAC
:103560002DD02068406820F0200021684860206845
:10357000406820F0020021684860324664212046FD
:1035800000F0A0F818B1606D40F020006065A06800
:1035900050B900BF002000902068C06800902068EB
:1035A0008068009000BF00BF0020E086012084F802
:1035B0005100606D18B12046FEF732FFF8BD20467D
:1035C000FFF7A4FC00BFF9E770B50546AC6BFEF74A
:1035D000B9FA06462868006800F48070B0F5807F6C
:1035E00021D02068406820F02000216848603246E1
:1035F0006421204600F066F818B1606D40F02000AC
:1036000060652068406820F0030021684860002061
:10361000E086E087012084F85100606D18B12046F3
:10362000FEF7FEFE70BD2046FFF772FC00BFF9E713
:10363000F8B504460E4615466068B0F5827F0DD198
:10364000A068B0F5004F03D0A068B0F5806F05D139
:103650002068006820F04000216808606068B0F5CC
:10366000827F1FD1A068B0F5806F0DD03346002255
:1036700080212046009500F05BF808B3606D40F0B3
:10368000200060650320F8BD33460022012120465A
:10369000009500F04DF898B1606D40F02000606535
:1036A0000320F0E73346002201212046009500F078
:1036B0003FF828B1606D40F0200060650320E2E72C
:1036C0000020E0E77CB504460D4616461648006823
:1036D0001821B0FBF1F01549B0FBF1F04FF47A710D
:1036E000484301906068B0F5827F0DD12B460022DF
:1036F00080212046009600F01BF898B1606D40F0E4
:103700002000606503207CBD00BF019800B908E07F
:103710000198401E019020688068C0F3C010002806
:10372000F3D100BF0020EEE70000002040420F0070
:103730002DE9F84F04460D4690461E46DDF82890C8
:10374000FEF700FAA0EB0900371AFEF7FBF98246F4
:103750002C480068C0F3CB307843009045E0701CE3
:10376000002842D0FEF7EEF9A0EB0A00B84200D2E2
:10377000A7BB2068406820F0E000216848606068CE
:10378000B0F5827F0DD1A068B0F5004F03D0A068DE
:10379000B0F5806F05D12068006820F040002168F6
:1037A0000860A06AB0F5005F0DD100BF2068006816
:1037B00020F40050216808602068006840F4005040
:1037C0002168086000BF012084F8510000BF00207C
:1037D00084F8500000BF0320BDE8F88FFFE7009891
:1037E00000B900270098401E00902068806828409B
:1037F000A84201D1012000E000204045AFD10020C7
:10380000EAE700000000002010B53CF0D9FDFEF70B
:10381000A3F940F055FC3CF0FDFD10BD00B593B0A0
:10382000302107A8FCF721FE142102A8FCF71DFE99
:1038300000BF002001902648006840F080502449D5
:1038400008600846006800F08050019000BF00BF8B
:1038500000BF002001901F48006840F480401D49CF
:1038600008600846006800F48040019000BF00BF77
:10387000012007900004089002200D9041050E9150
:1038800008210F914FF4A871109102211191042188
:10389000129107A8FEF776FB18B127210EA000F0C1
:1038A000F9FA0F20029002200390002004904FF4B8
:1038B000A05005904FF480500690052102A8FEF715
:1038C00021FA18B1342104A000F0E4FA13B000BDCD
:1038D00040380240007000402E2E5C626F617264BE
:1038E0005C626F6172642E63000000000348006830
:1038F00040F47000014908607047000088ED00E066
:1039000070B50546AC6B0020E085E0842046FFF7EB
:1039100031FB70BD70B506460025B46B2068406968
:10392000C0F3C01594F83D00212805D125B1002031
:10393000E084204600F0A7F820684069C0F38015B5
:1039400094F83E00222805D125B10020E0852046CC
:1039500000F06EF8206C40F0100020642046FFF765
:1039600009FB70BD70B50546AC6B2868006800F4B3
:103970008070F8B90020E0852068C06820F480706D
:103980002168C8602068406920F001002168486112
:103990002068406920F0400021684861202084F8B8
:1039A0003E00206B012805D12068C06820F010007F
:1039B0002168C860206B012804D1A18D2046FFF743
:1039C000D7FA02E02046FFF7BBFC70BD70B5054694
:1039D000AC6B206B012805D1A08D41082046FFF774
:1039E000C7FA02E02046FFF7C5FC70BD70B505467A
:1039F000AC6B2868006800F4807070B90020E08427
:103A00002068406920F08000216848612068C06813
:103A100040F040002168C86002E02046FFF712FD38
:103A200070BD70B50446A56B2846FFF725FD70BD37
:103A30000168C96821F490710268D1600168496920
:103A400021F0010102685161016B012905D1016872
:103A5000C96821F010010268D160202180F83E1071
:103A600000210163704710B504462068C06820F04B
:103A700040002168C860202084F83D002046FFF700
:103A8000E1FC002010BD0168C96821F0C001026896
:103A9000D160202180F83D10704770B5044694F83D
:103AA0003E00222856D1A068B0F5805F0CD1206975
:103AB00050B90025A66A20684068C0F3080030802D
:103AC000A06A801CA06215E0A56A0026A068B0F577
:103AD000805F03D0A06828B9206918B920684068C1
:103AE000287004E02068406800F07F002870A06A19
:103AF000401CA062E08D401E80B2E08540BB206883
:103B0000C06820F020002168C8602068C06820F4E8
:103B100080702168C8602068406920F00100216839
:103B20004861202084F83E00206B01280AD12068DB
:103B3000C06820F010002168C860A18D2046FFF702
:103B400017FA02E02046FFF7FBFB0020206370BD60
:103B50000020FCE70220FAE72DE9F84F0446206830
:103B6000006920F44050E168084321680861216938
:103B7000A068084361690843E16908430090206830
:103B8000C06849F20C618843009908432168C86005
:103B90002068406920F44070A169084321684861A9
:103BA00076492068884203D075492068884203D14D
:103BB000FEF780F9814602E0FEF76CF98146E06984
:103BC000B0F5004F6CD102206168A0FB01500346A4
:103BD0001920A9FB007001462A463846FCF794FBE1
:103BE0006421B0FBF1F04FEA001A02206168A0FBEB
:103BF00001510B461920A9FB00712A463846FCF7F3
:103C000083FB834602206168A0FB01500346192014
:103C1000A9FB00712A463846FCF776FB6421B0FB0D
:103C2000F1F000EBC00101EB0010ABEB80003221A2
:103C300001EBC0006421B0FBF1F000F0F8000AEBEA
:103C4000400A02206168A0FB015003461920A9FB2D
:103C5000007001462A463846FCF756FB8346022090
:103C60006168A0FB015003461920A9FB00712A4698
:103C70003846FCF749FB6421B0FBF1F000EBC001D2
:103C800001EB0010ABEB8000322101EBC00064219E
:103C9000B0FBF1F000F007005044216888606AE052
:103CA00004206168A0FB015003461920A9FB0070A5
:103CB00001462A463846FCF727FB82460420616805
:103CC000A0FB015003461920A9FB007001462A46BB
:103CD0003846FCF719FB6421B0FBF1F000EBC001A2
:103CE00001EB0010AAEB8000322101EB00106421EF
:103CF000B0FBF1F000F0F00A04206168A0FB017055
:103D000003461920A9FB00513A462846FCF7FCFA65
:103D10006421B0FBF1F00AEB001A04206168A0FBFB
:103D200001510B461920A9FB00712A463846FCF7C1
:103D3000EBFA834604206168A0FB0150034619207A
:103D4000A9FB007001462A463846FCF7DDFA6421DB
:103D5000B0FBF1F000EBC00101EB0010ABEB800019
:103D6000322101EB00106421B0FBF1F000F00F00F4
:103D7000504421688860BDE8F88F000000100140C1
:103D80000014014077B581B0044615460298A06240
:103D9000A58500202064222084F83E001C48A16BE9
:103DA000C8631C48A16B08641B48A16BC864002051
:103DB000A16B086502AE32682368191D2B46A06B03
:103DC000FDF7C2FB00BF0020009020680068009053
:103DD00020684068009000BF00BF00BF002084F84A
:103DE0003C0000BF2068C06840F480702168C86053
:103DF0002068406940F001002168486120684069FE
:103E000040F0400021684861002004B070BD00000F
:103E100065390008CD39000815390008014691F8C8
:103E20003D00212828D18868B0F5805F0BD1086952
:103E300048B90A6A1088C0F308000B685860086A1D
:103E4000801C086205E00B6A581C086218780B6831
:103E50005860C88C401E80B2C88458B90868C068D1
:103E600020F080000B68D8600868C06840F040000F
:103E70000B68D860002070470220FCE710B53CF0CA
:103E80009FFA034858F02AFE3CF0C4FA10BD000027
:103E9000240A002000BFFEE70FB47CB50C0009AD7A
:103EA00001D0611E00E00021CDE90001064B6A4609
:103EB0002946089801F0A0F9002C02D0009A0021B0
:103EC00011707CBC5DF814FBA15F00087CB50C0090
:103ED0001D461646014601D0601E00E00020CDE9D7
:103EE0000010064B6A462946304601F085F9002C41
:103EF00002D0009A002111707CBD0000A15F000873
:103F000003B401984100009850EAC12018BF042072
:103F10004A0D18BF40F0010040F2FF72B2EB515F52
:103F200008BF40F00200012808BF052002B070471A
:103F300002480068C0F30220704700000CED00E06A
:103F400010B5002804DB0A07130E054A135406E0D7
:103F50000A07140E034A00F00F031B1FD45410BDB0
:103F600000E400E018ED00E000487047A8050020DC
:103F70002DE9F04D2DED040B2DED0E8B96B0DDE906
:103F80002550279CDDF890A025F0004624F000483D
:103F9000BAF1000F14BF0121002101EB4502FC49D9
:103FA00053184A1093422AD3002814BF0123002338
:103FB00003EB44030B44F7498B4220D358EA00013A
:103FC0009FEDF59B76D0DFF8D8B35D4503D1BAF10C
:103FD000000F05D188E0BAF1000F08BF002100D022
:103FE000012101EB450111F5001F08D8002814BF7D
:103FF0000121002101EB440111F5001F0BD99DEDBA
:10400000261B9DED240B16B0BDEC0E8B04B0BDE855
:10401000F04D00F085BE0027002DBCBFE14988456A
:1040200021DAE1498845A8BF02271CDAC3451ADC1A
:10403000DE4901EB2851142908DDC1F1340220FAD0
:1040400002F101FA02F282420DD108E058B9C1F141
:10405000140228FA02F101FA02F2424503D101F0FA
:104060000101C1F1020756EA0A0124D1002C22DA2B
:10407000002D18BF022F01D0012F0AD0022000F01E
:104080009BFE16B0BDEC0E8B04B0BDE8F04D00F009
:104090002FBE022000F090FE00F02AFE51EC100B23
:1040A00081F0004141EC100B16B0BDEC0E8B04B05A
:1040B000BDE8F08D18E09FEDBEAB9FEDBF8B0028F3
:1040C00071D1B848804522D105F1804010F58010AB
:1040D00008BFBAF1000F07D0B3450ADC002CA8BF17
:1040E0009DED260BE0DA0DE0B0EE490AF0EE690A2C
:1040F000DAE7002C06DA9DED260B51EC100B81F06F
:1041000000416FE0AE48784490ED000BCCE7D84515
:104110004DD1002C48DA2EB186423AD1BAF1000FC7
:1041200042D126E0BAF1000F13D0022000F044FE85
:1041300000F012FE8DED020B9DED240B8DED000BBA
:1041400010EE900A039961F31E0003909DED020B9F
:10415000AAE78DED02AB9DED240B1AEE901A10EE3E
:10416000900A8DED000B61F31E0003909DED020B94
:104170009AE78DED028B9DED240B18EE901A10EE50
:10418000900A8DED000B61F31E0003909DED020B74
:104190008AE709DA9DED240B51EC190B53EC102B37
:1041A000FCF7A4FC1EE020E09DED240B7CE786429A
:1041B0001BDAB4F1804F0DD0A4F10050B0F1FF50E4
:1041C00013D1002D11DB9DED240B51EC100B43F0AE
:1041D000C1FB07E09DED240B53EC102B51EC100BB1
:1041E00000F0C2BC41EC100B5EE79DED240B51ECDE
:1041F000100B0FF0EBFBBAF1000FCDE90E0142D12D
:104200009FED710B46B3A6F1E040B0F17F600CD09A
:104210005E4538D1002D00DAA7B3022F0CBF012074
:104220004FF0FF30FCF732FBDCE7002D01DD002C06
:104230000DDA002D01DD002C1FDB002D16DA002C1D
:1042400014DB012F08BF9FED620B3FF42DAFB0EEE2
:104250004A0AF0EE6A0A27E7022F18BF002D0CD099
:10426000012F0AD1002DFFF61FAF06E0002DB8BFC9
:10427000002C08DA012F3FF417AFB0EE480AF0EE39
:10428000680A11E71BE0012000EBE57050EA070126
:1042900015D0791EB0EE498AF0EE698A084308BF4E
:1042A0009FED4D8B4E480025804570DD4D494E48B1
:1042B000884514DDB0420DDB002C19DB2FE0012016
:1042C00000F07AFD16B0BDEC0E8B04B0BDE8F04DE9
:1042D00000F032BDB34502DC002C09DC1FE0864251
:1042E00002DA002C1BDA03E05E452BDD002C16DD24
:1042F000022000F061FD00F02FFD8DED020B53EC6C
:104300001A2B51EC180BFCF74FFACDE90001039979
:10431000019861F31E0003909DED020BC4E602209C
:1043200000F04AFD00F028FD10EE901A18EE900AF9
:104330008DED020B8DED008B61F31E0003909DED62
:10434000020BB1E69DED0E0B53EC192B51EC100B4B
:10435000FCF724FA9FED260BCDE9080153EC102B56
:104360009DED080B51EC100BFCF71EFA9FED221B84
:1043700053EC112BFCF715FA9DED081B53EC112B98
:10438000FCF712FA9FED1E1B53EC112B3CE08CE066
:10439000FFFF1F00FFFF0F00000000000000F03FC4
:1043A0000000F03F0000F07F0000404301FCFFFFF1
:1043B000000000000000F07F00000000000000008E
:1043C000269D0600000000000000000000000080A4
:1043D000000000000000F0FF000000000000F0BF3F
:1043E0000000E0410000F043FFFFEF3F000000004D
:1043F000000000000000D03F555555555555D53F9C
:10440000000000000000E03FFCF7CBF99DED080B39
:1044100041EC1A0B53EC102B51EC100BFCF7C4F9C8
:1044200053EC1A2BFCF7C0F941EC1A0B9FEDFE0B75
:1044300053EC102B9DED080B51EC100BFCF7B4F96D
:1044400041EC1B0B9FEDFA0B51EC1A0B53EC102BAC
:10445000FCF7AAF941EC1A0B9FEDF70B53EC102B6C
:104460009DED080B51EC100BFCF79EF953EC1A2B49
:10447000FCF794F941EC1A0B51EC1B0B53EC1A2B83
:10448000FCF7EBF80690CDE906519DED060B53ECD9
:104490001B2B51EC100BFCF781F953EC1A2BFCF79A
:1044A00080F941EC100B00F0A1B90020B6F5801F97
:1044B0000EDA9FEDE30B53EC102B9DED0E0B51EC40
:1044C000100BFCF771F9CDE90E016FF034000E46C8
:1044D00000EB2650A0F2FF37C6F31300DA4940F094
:1044E0007F6646F040568842D8BF002408DDD74991
:1044F0008142C8BF012403DC0024A6F580167F1C7E
:10450000D348784400EBC4000F9690ED00CB9DEDAE
:104510000E0B53EC1C2B51EC100BFCF73FF99DEDEF
:104520000E0B41EC1B0B53EC1C2B51EC100BFCF74E
:1045300094F841EC100B51EC190B53EC102BFCF7D9
:10454000D5FA41EC1D0B51EC1B0B53EC1D2BFCF76A
:104550002BF941EC1A0BBF488DED10AB7844109548
:1045600090ED000B4FF0005040EA660000EB8440F5
:104570008DED080B00F5002009909DED080B53EC24
:104580001C2B51EC100BFCF709F99DED0E1B53ECA5
:10459000112BFCF706F941EC100B53EC102B9DEDA1
:1045A000100B51EC100BFCF7FFF89DED080B41ECE4
:1045B0001C0B53EC102B9DED100B51EC100BFCF76A
:1045C000F3F853EC1B2BFCF7ECF853EC1C2BFCF72B
:1045D000E5F853EC1D2BFCF7E7F841EC1C0B53EC12
:1045E0001A2B51EC1A0BFCF7DFF841EC1B0B9A4825
:1045F0000621B0EE4B0AF0EE6B0A784400F0FAFAAE
:10460000B0EE401AF0EE601AB0EE41DAF0EE61DA88
:1046100053EC1B2B51EC1B0BFCF7C6F853EC1D2B7A
:10462000FCF7C2F89DED100B41EC1B0B53EC1A2B61
:1046300051EC100BFCF711F853EC1C2BFCF7B4F801
:1046400053EC1B2BFCF709F89DED100B41EC1B0BF9
:1046500053EC102B51EC100BFCF7A6F841EC1D0BA2
:104660009FED7FEB53EC1E2BFBF7F7FF53EC1B2B5F
:10467000FBF7F3FF0890CDE908519DED080B53ECD3
:104680001E2B51EC100BFCF789F853EC1D2BFCF79B
:1046900085F853EC1B2BFCF784F89DED080B41ECDF
:1046A0001D0B53EC102B9DED100B51EC100BFCF778
:1046B0007BF841EC1B0B53EC1A2B51EC1D0BFCF758
:1046C00073F89DED080B41EC1A0B53EC102B51ECD9
:1046D0001C0BFCF769F853EC1A2BFBF7BEFF41ECFF
:1046E0001A0B51EC1B0B53EC1A2BFBF7B6FF0C907B
:1046F000CDE90C519DED0C0B53EC1B2B51EC100B29
:10470000FCF74CF853EC1A2BFCF74BF841EC1B0B65
:104710009FED550B53EC102B9DED0C0B51EC100B3A
:10472000FCF742F841EC1A0B9FED510B51EC1B0BBF
:1047300053EC102BFCF738F841EC1B0B9FED4E0BA4
:1047400053EC102B9DED0C0B51EC100BFCF72CF8DF
:1047500053EC1B2BFBF781FF41EC100B48487844CE
:1047600000EBC40090ED001B51EC100B53EC112B2F
:10477000FBF773FF41EC1B0B3846FCF787F8CDE9DC
:10478000080153EC1B2B51EC1A0BFBF766FF41ECB5
:10479000100B3C48784400EBC40090ED00CB51EC8A
:1047A000100B53EC1C2BFBF758FF9DED081B53EC33
:1047B000112BFBF752FF0690CDE906519DED080B3A
:1047C00053EC102B9DED060B51EC100BFBF7E6FFA5
:1047D00053EC1C2BFBF7E2FF53EC1A2BFBF7DEFF2D
:1047E00053EC1B2BFBF7DDFF41EC100B9DED261B63
:1047F00053EC102B8DED001B00959DED260B51EC1D
:10480000100BFBF7D1FF9DED000B41EC1A0B53ECA5
:10481000102B9DED260B51EC100BFBF7BFFF9DED10
:10482000061B53EC112B2FE0000000604715F73FEB
:10483000FE822B654715F73F44DF5DF80BAE543E13
:1048400000000000000040438E9803007AB60B0081
:10485000A2980600D0980600DA9706000000000033
:104860000000000000000840000000E009C7EE3F23
:10487000FD033ADC09C7EE3FF5015B14E02F3EBEB5
:104880006696060020960600FBF78EFF53EC1A2B67
:10489000FBF7E3FE9DED060B41EC1A0B53EC102BDE
:1048A0009DED000B51EC100BFBF77EFFCDE90C01E9
:1048B0009DED0C0B51EC1A0B53EC102BFBF7CDFEBE
:1048C000CDE902010C46AA498C422FDB611A08434C
:1048D00018D19DED0C0B53EC102B9DED020B51EC00
:1048E000100BFBF75BFF41EC1B0B9FEDA30B51EC97
:1048F0001A0B53EC102BFBF7B0FE53EC1B2BFBF702
:10490000F5FF2DD2022000F057FA00F025FA10EE44
:10491000901A18EE900A8DED020B8DED008B61F36D
:104920001E0003909DED020BFFF7BEBB944A24F0DE
:104930000041914214D39349214408437FF4EFACE2
:104940009DED0C0B53EC102B9DED020B51EC100B5D
:10495000FBF724FF53EC1A2BFBF7C8FF7FF6DFAC05
:1049600024F000408849894A002601EB2051824208
:104970002BDA481C4FF4801121FA00F02044844ABD
:10498000C0F30A517A44A1F2FF3192ED000B814A43
:104990008DED080BCA4020EA0202C0F3130040F478
:1049A0008010C1F1140120FA01F60992002CB8BF61
:1049B00076429DED080B53EC102B9DED0C0B51EC4A
:1049C000100BFBF7EBFECDE90C019DED0C0B51EC50
:1049D0001A0B53EC102BFBF740FE9FED6F0B08906A
:1049E000CDE9085153EC102B9DED080B51EC100B49
:1049F000FBF7DAFE41EC1B0B9FED690B53EC102B20
:104A00009DED080B51EC100BFBF7CEFE9DED0C0B52
:104A100041EC1C0B53EC102B9DED080B51EC100BD3
:104A2000FBF7BCFE53EC1A2BFBF7BBFE9FED5E1BA6
:104A300053EC112BFBF7B8FE53EC1C2BFBF70DFED0
:104A400041EC1A0B51EC1B0B53EC1A2BFBF705FE38
:104A5000CDE902019DED020B53EC1B2B51EC100B29
:104A6000FBF79CFE53EC1A2BFBF79BFE9DED020B14
:104A700041EC1A0B53EC102B51EC100BFBF794FE8E
:104A8000CDE908014A489DED080B0521784400F066
:104A9000B1F89DED081B51EC100B53EC112BFBF7FB
:104AA00083FE9DED021B53EC112BFBF77AFECDE943
:104AB00006019DED020B53EC1A2B51EC100BFBF78A
:104AC00073FE53EC1A2BFBF7C8FD9FED3B0B41EC3B
:104AD0001A0B53EC102B9DED060B51EC100BFBF752
:104AE0005DFE9DED060B41EC1B0B53EC102B9DED79
:104AF000020B51EC100BFBF757FE53EC1B2BFBF793
:104B0000F5FF53EC1A2BFBF749FE9DED021B53EC0E
:104B1000112BFBF743FE53EC192BFBF742FECDE9BB
:104B2000020101EB065001150029C8BF039015DCF6
:104B30009DED020B324651EC100BFCF746F8FFF7E7
:104B4000DFF9042808BF00F017F932469DED020B8B
:104B500051EC100BFCF739F8CDE902019DED020B89
:104B600051EC180B53EC102BFBF71EFEFFF73ABB72
:104B70000000904000000000FE822B654715973C26
:104B800000CC904000346F3F01FCFFFF0000E03F8D
:104B9000A8940600FFFF0F0000000000432EE63F30
:104BA000396CA80C615C20BEEF39FAFE422EE63F5C
:104BB00078930600000000000000000000000040A4
:104BC00001460A46C81701EB90708010A1EB8000E7
:104BD00070B9642091FBF0F300FB131030B94FF46F
:104BE000C87091FBF0F300FB131008B90120704767
:104BF0000020FCE770B504462DED028B4D1E00EB46
:104C0000C500B0EE408AF0EE608A90ED000B35F002
:104C1000060017D053EC182B51EC100BFBF7C4FD1A
:104C200041EC100B6D1E04EBC50090ED001B51EC28
:104C3000100B53EC112BFBF710FD41EC100B35F072
:104C40000600E7D1022D36D0042D1CD0062D1CBF46
:104C5000BDEC028B70BD53EC182B51EC100BFBF725
:104C6000A3FD94ED0A1B53EC112BFBF7F6FC53EC60
:104C7000182BFBF799FD94ED081B53EC112BFBF758
:104C8000ECFC41EC100B53EC182B51EC100BFBF728
:104C90008BFD94ED061B53EC112BFBF7DEFC53EC64
:104CA000182BFBF781FD94ED040B53EC102BFBF755
:104CB000D4FC41EC100B53EC182B51EC100BFBF710
:104CC00073FD94ED021B53EC112BFBF7C6FC53EC68
:104CD000182BFBF769FD94ED001B53EC112BFBF730
:104CE000BCFCBDEC028B41EC100B70BD0000000061
:104CF0009FED070B10B553EC102B9FED070B51ECFC
:104D0000100BFBF7F3FE41EC100B10BD0000000090
:104D10000000000000000000000000000000F03F64
:104D200010B553EC112B51EC100BFBF796FC41EC3A
:104D3000100B10BD000000009FED050B10B553ECEB
:104D4000102B51EC100BFBF7D1FE41EC100B10BDFA
:104D500000000000000000009FED050B10B553ECB3
:104D6000102B51EC100BFBF71FFD41EC100B10BD8D
:104D700000000000000000709FED050B10B553EC23
:104D8000102B51EC100BFBF70FFD41EC100B10BD7D
:104D9000000000000000001002E008C8121F08C157
:104DA000002AFAD170477047002001E001C1121FAC
:104DB000002AFBD1704700000149086070470000DD
:104DC000A805002002460020704770B504460D4635
:104DD0002DB12069284010B94FF0FF3070BD264634
:104DE00001207169886029462046FFF7EBFFF5E74F
:104DF00008B509E00021009102E00099491C0091EA
:104E000000991429F9D3401E0028F3D108BD70B5CC
:104E100004462546FBF7DEF9064605F114003FF08F
:104E200097FB05F114003FF01FFA288A20F00200DA
:104E30002882688A20F0010068823046FBF7CEF9AC
:104E40002946286C01F08AFA70BD00002DE9FF5F49
:104E500082B00021DDE90430020DDDF840B00343EB
:104E600018D044F61050A2F2FF32424315141198A4
:104E700001281FD0A5EB0B00401C5FEA000A4FF091
:104E800000064E4FDFF83891B046504615D5CAF1AE
:104E9000000413E0119801244AA3012801D16FEA0C
:104EA0000B010298119AC0E90031C0E9024206B034
:104EB000BDE8F09FCBF10000DFE704460021404A47
:104EC000491842EB0450CDE9001012E0E00707D08A
:104ED00032463B4640464946FBF766FC80468946DB
:104EE00032463B4610461946FBF75EFC06460F4627
:104EF0006410002CEAD1DDE90401DDE90023BAF1F8
:104F0000000F06DAFBF750FC42464B46FBF74CFC21
:104F100005E0FBF7EBFD42464B46FBF7E7FD044699
:104F20000E460022284BFBF7E1FC03D84FF0FF3080
:104F3000014607E00022254B20463146FBF78DFB5A
:104F4000FBF75AFE102409E0002C0ADB0A2200239A
:104F5000FBF7DAF9039B30321A55641E50EA01025E
:104F6000F2D1641C039AC4F111031444119A012A6A
:104F700003D0012208430DD10AE0084304D00020E9
:104F80004FF0110B119072E7A3EB0B056D1E0DE0B6
:104F90005B4504DD4FF0000205F1010504E003DA92
:104FA0004FF00002A5F10105002AECD002981199FA
:104FB000C0E90231C0E9004579E700000000144073
:104FC0000000F03F300000000000F0430000E03F30
:104FD00070B5044606480068FBF7E2F8451E054830
:104FE00050F83500A0F114062560304670BD000071
:104FF000640200200813002070B504462F212046CB
:10500000FBF7A2FA051E01D1204670BD681C0546BB
:10501000FBE7000003490868884201D0012070477F
:105020000020FCE7740200202DE9F0438BB0054618
:105030008946174600242DB94FF49B721C491DA0C8
:1050400039F0FEF82FB940F2371219491AA039F099
:10505000F7F800E0641C285D202804D0285D0928AA
:1050600001D04C45F6D324B94FF0FF300BB0BDE86A
:10507000F0832146284632F0C7F8064616B94FF0AD
:10508000FF30F3E7282101A8FBF7EFF901AA494611
:10509000284632F067F98046B8F1000F02D14FF090
:1050A000FF30E3E701A94046B04738600020DDE764
:1050B00098360608636D6400726574700000000025
:1050C0002DE9F0410546884616462F4627B9372276
:1050D000084909A039F0B4F834461CB94FF0FF3044
:1050E000BDE8F08162882188386D036828469847BA
:1050F0000020F5E77E27060870696E20213D2052CA
:10510000545F4E554C4C00002DE9F047054689464A
:1051100016461F46A846B8F1000F04D118220A49C6
:105120000AA039F08DF834460CB1042F02D00020CB
:10513000BDE8F0872188D8F850008268284690475B
:1051400060803846F4E700006927060870696E2021
:10515000213D2052545F4E554C4C00002DE9F04744
:105160000546894616461F46A846B8F1000F04D1E9
:1051700027220A490AA039F063F834460CB1042FFB
:1051800002D00020BDE8F08762882188D8F850005E
:105190004368284698473846F4E700007327060816
:1051A00070696E20213D2052545F4E554C4C0000DA
:1051B0002DE9F04107460E461C203BF065FA0446F7
:1051C0000CB9BDE8F0813546B6F904002061201D18
:1051D0004060006000BFE86820600648E060286921
:1051E000A06165612C61214638463FF047FC00BF55
:1051F000E7E70000CB4D00082DE9FF4F95B09A4638
:10520000884606460025EEE1252877D1002427466A
:10521000F94A0121039400E0044316F8013F203BC2
:1052200001FA03F01042F7D130782A2811D06FF03C
:105230002F033078A0F13002092A16D8039A44F0DF
:10524000020402EB820203EB42021044761C03903C
:10525000EFE758F8042B0392002A03DA504244F493
:105260000054039044F00204761C30782E2816D1A6
:1052700016F8010F44F004042A280DD06FF02F0215
:105280003078A0F13003092B09D807EB870302EB34
:105290004303C718761CF3E758F8047B761C307874
:1052A0006C280FD006DC4C2817D068280DD06A284F
:1052B00014D104E0742810D07A280FD10DE044F402
:1052C00000140AE044F4801401E044F440147278BD
:1052D000824202D104F58014761C761C3078662850
:1052E0000BD013DC582877D009DC002875D045286E
:1052F000F6D04628F4D047281AD193E118E0632865
:1053000035D0642879D0652812D18BE1702873D00C
:1053100008DC6728F1D069286FD06E280DD06F287F
:1053200006D1ACE073282CD0752874D0782853D0DF
:105330005246179990476D1C54E1C4F3025002285D
:1053400009D003280DD0D8F8001004280DD00D6026
:1053500008F1040846E1D8F80010EA17C1E9005244
:10536000F6E7D8F800100D80F2E70D70F0E718F8B6
:10537000041B8DF8001000208DF80100EB46012081
:1053800003E058F804BB4FF0FF3061074FF0000115
:1053900002D40DE009F101018946B9420FDA8145D5
:1053A000F8DB1BF809100029F4D108E009F101012C
:1053B00089468142FADB1BF809100029F6D10398CF
:1053C0005346A0EB090721463846179A00F080FAA9
:1053D000284400EB090507E044E008E10DE01BF874
:1053E000010B524617999047B9F10109F7D253467C
:1053F00021463846179AF2E039E00A21C4F30252F6
:105400004FF0000B0091022A06D058F8040BC11788
:10541000032A09D00AE023E008F1070020F0070280
:10542000F2E80201904605E000B2C117042A01D15A
:1054300040B2C117002906DA0A460021404261EB5A
:1054400002012D2202E0220504D52B228DF8042032
:10545000012203E0E20701D02022F7E7914657E05E
:105460000A2100E010214FF0000B00910BE0102109
:105470004FF0000B44F004040827009103E00820DB
:105480004FF0000B0090C4F30252022A05D058F8E6
:10549000040B0021032A08D008E008F1070020F0DF
:1054A0000702F2E80201904603E080B2042A00D12C
:1054B000C0B24FF0000922072AD53278702A07D0EF
:1054C000DDF800C08CF0100C5CEA0B0C05D00EE08F
:1054D00040228DF80420012208E050EA010306D0A2
:1054E00030238DF804308DF8052002229146009B70
:1054F00083F0080353EA0B030AD150EA010201D1F9
:10550000620705D530228DF804204FF001097F1E77
:105510003278582A04D039A20C920CAA02920BE0DD
:105520003BA2F9E75B46009AFAF7EEFE0C9B9B5C08
:10553000029A521E0292137050EA0102F2D10298AE
:1055400004A9081A00F1200B600702D524F4803466
:1055500000E001275F4502DDA7EB0B0000E0002023
:1055600000EB0B01009003984944401A0390E003BC
:1055700006D453462146179A039800F0A9F905442A
:10558000002706E001A85246C05D179990476D1CA0
:105590007F1C4F45F6DBE0030CD553462146179A96
:1055A000039800F095F9054404E03020524617991D
:1055B00090476D1C0099481E00900029F5DC08E01A
:1055C0000298029952460078491C02911799904717
:1055D0006D1CBBF10001ABF1010BF1DC5BE100F0F4
:1055E00065F90544761C307800287FF40DAE19B0BB
:1055F0002846BDE8F08F0000092801003031323321
:1056000034353637383961626364656600000000FE
:1056100030313233343536373839414243444546E8
:1056200000000000600700D4062708F1070020F002
:105630000700F0E80223804603F0004C5FEA0C000C
:1056400001D097A009E0200501D596A005E0E0076C
:1056500001D095A001E0AFF24C001390307823F018
:10566000004365280CD006DC452809D046281DD00B
:1056700047287FD13BE0662818D067287AD136E0EA
:105680000021112F01DB112000E0781CCDE9000181
:1056900004A90CA8FFF7DAFBDDE90D010C9A4FF025
:1056A000000B07F10109109200914EE04FF000400D
:1056B0000097CDE9011004A90CA8FFF7C7FBDDE9AD
:1056C0000D020C9B0F994FF0000B91461093009226
:1056D00011B9791C00EB0109B7EB090003D4C0F143
:1056E000FF3B07F10109A9EB0700019042E0012F00
:1056F00000DA01270021112F01DD112000E03846DA
:10570000CDE9000104A90CA8FFF7A0FBDDE90D011C
:105710000C9A00914FF0000BB946109221070FD45C
:10572000009A4A4503DA914601E0A9F10109B9F16D
:10573000010F05DD109AA9F10101515C3029F4D067
:10574000B84202DA10F1040F03DA0121CDE90110A9
:1057500010E0002803DC8344A9EB000102E0411CB7
:10576000494500DD8946A0EB0B00401C01904FF03D
:1057700000400290200705D40198484502DB4FF015
:10578000FF30019000208DF84B0002980DF14B077F
:10579000B0F1004F25D002200C902B200D900298E4
:1057A00000280CDA404202902D200D9007E00A21DB
:1057B0000298FBF7B3F83031029007F8011D0C99FD
:1057C000481E0C900029F2DC02980028EFD1791EC7
:1057D0000D980870307800F0200040F0450007F880
:1057E000020D11A8C01BC01D02901398007800B1D3
:1057F000012000EB0901019801EBE07102980144DE
:105800000398401A401E0390E00306D453462146F5
:10581000179A039800F05CF805441398007818B1C3
:105820005246179990476D1CE00323D553462146F5
:10583000179A039800F04CF805441BE0BBF1000FE9
:1058400007DB0098584504DD1098179910F80B00F5
:1058500001E0179930205246904701980BF1010B57
:10586000401E05F10105019004D12E2052461799E2
:1058700090476D1CB9F10001A9F10109DEDC05E0DA
:1058800017F8010B5246179990476D1C0299481E54
:1058900002900029F4DC53462146179A03989EE6AD
:1058A0002D0000002B000000200000002DE9F04139
:1058B000044600251E461746880404D405E03946F0
:1058C0002020B0476D1C641EF9D52846BDE8F08144
:1058D0002DE9F041044600251E469046C80301D537
:1058E000302700E02027880404D505E041463846EB
:1058F000B0476D1C641EF9D52846BDE8F081000054
:1059000010B53AF079FD08B1054810BD3EF040FAF7
:10591000044614B104F13000F7E70148F5E7000050
:105920008401002070B5044624B95322144915A0FF
:1059300038F086FCA06A0078232809D1A16AE069C2
:10594000884205D9D4E90A010844E16988420CD2A9
:10595000214611A03AF0DEFD14F062FCFAF73AFCA1
:10596000054600BF002DFDD108E0A06A2030E169A6
:10597000814203D821460FA03AF0CCFD70BD000053
:10598000A032060874687265616420213D2052547B
:105990005F4E554C4C0000007468726561643A2596
:1059A0007320737461636B206F766572666C6F77BA
:1059B0000A0000007761726E696E673A20257320D5
:1059C000737461636B20697320636C6F73652074FB
:1059D0006F20656E64206F6620737461636B206155
:1059E0006464726573732E0A000000002DE9FC5F89
:1059F00004468B4616461F46DDE90C9ADDE90E5833
:105A000004F114004060006000BF26626762C4F8C1
:105A10002890C4F82CA02321D4E90A023BF032FBE1
:105A2000D4E90A3C63441A1F174BD4E908013AF041
:105A300019FCE061202D04DB9522144914A038F0F4
:105A4000FFFB3034A57165710020A060C4F814809C
:105A5000C4F8188020602071A064E064303C00909D
:105A60002346144A2146019004F14C003EF066FCA6
:105A700000BF1148006818B120460F4909688847DF
:105A800000BF0020BDE8FC9F293A0408EE3206085A
:105A90007072696F72697479203C2052545F544867
:105AA000524541445F5052494F524954595F4D410C
:105AB00058000000BD3F0408880200202DE9F0478F
:105AC00004460E4617469846DDF8209084F8099063
:105AD000607A20F001006072E66127620020A06217
