:020000040800F2
:10000000A82F0120650300086D030008870400087D
:100010007103000873030008750300080000000066
:10002000000000000000000000000000770300084E
:100030007903000800000000D3030008998300083A
:100040007F0300087F0300087F0300087F03000888
:100050007F0300087F03000817430008654300087A
:1000600077430008894300089B4300087F0300088A
:100070007F0300087F0300087F0300087F03000858
:100080007F0300087F0300087F0300087F03000848
:100090007F0300087F0300087F030008AD430008CA
:1000A0007F0300087F0300087F0300087F03000828
:1000B0007F0300087F0300087F0300087F03000818
:1000C0007F0300087F0300087F0300087F03000808
:1000D0007F030008019D0008199D00087F030008A8
:1000E000294300087F0300087F0300087F030008FE
:1000F0007F0300087F0300087F0300087F030008D8
:100100007F030008CD7E00087F0300087F030008FE
:100110007F0300087F0300087F0300087F030008B7
:100120007F0300087F0300087F0300087F030008A7
:100130007F0300087F0300087F0300087F03000897
:100140007F0300087F0300087F0300087F03000887
:100150007F0300087F0300087F0300087F03000877
:100160007F0300087F0300087F0300087F03000867
:100170007F0300087F0300087F03000800000000E1
:100180007F0300087F03000800F002F800F0B8F8D1
:100190000AA090E8000C82448344AAF10107DA45E2
:1001A00001D100F0ADF8AFF2090EBAE80F0013F07C
:1001B000010F18BFFB1A43F001031847E0010700C5
:1001C000000207000A444FF0000C10F8013B13F046
:1001D000070408BF10F8014B1D1108BF10F8015BA0
:1001E000641E05D010F8016B641E01F8016BF9D193
:1001F00013F0080F1EBF10F8014BAD1C0C1B09D1EA
:100200006D1E58BF01F801CBFAD505E014F8016B5B
:1002100001F8016B6D1EF9D59142D6D370470000ED
:100220000023002400250026103A28BF78C1FBD8FF
:10023000520728BF30C148BF0B6070476E2901F0DC
:100240008482702900F03383662925F03EA5652954
:1002500025F03BA5672925F038A5612925F037A5AC
:1002600003681B0A28BF41F08001692900F0A482BD
:10027000642900F0A182752900F09E826F2901F0A7
:100280009285782900F0FF82E92901F02D85E42983
:1002900001F02A85F52901F02785EF2901F08F85E6
:1002A000F82900F0FE820368DB0928BF41F08001D5
:1002B000632901F09C84732901F0A184E32902F0F1
:1002C0008981F32902F08E81002070471FB565F007
:1002D000F7FC00F0AEFE01F0C9F904000020002197
:1002E00065F084FB401C60600020002165F094FBF9
:1002F000E06001F07BFE1FBD10B501F0E0FE10BD17
:1003000002F0EFFD1146FFF7E1FF03F05BFB02F0A7
:1003100091FE03B4FFF7F0FF03BC0EF04FF90000AD
:10032000002804D090FAA0F0B0FA80F0401C70478A
:100330000B49D1F800C04A685CF8043B10681844C7
:1003400042F8040B8C4528BFA1F1DC0C8A4228BF7F
:10035000A1F1DC02C1F800C04A6020F00040704703
:100360003C2901200948804709480047FEE7FEE78D
:10037000FEE7FEE7FEE7FEE7FEE7FEE7FEE7FEE755
:1003800004480549054A064B704700007D84000873
:1003900089010008A8290120A82F0120A82B0120ED
:1003A000A82B0120EFF3108072B6704780F31088FD
:1003B0007047434A1368012B04D04FF001031360C8
:1003C000404A1060404A116040484FF0805101603F
:1003D0007047EFF3108272B63948016851B34FF09D
:1003E000000101603748016891B1EFF309811EF007
:1003F000100F08BF21ED108B21E9F00F4FF0000422
:100400001EF0100F08BF012441F8044D0068016080
:100410002D490968096808C9B1E8F00F002B18BF19
:10042000B1EC108B81F309884EF0100E002B18BF31
:100430002EF0100E82F310884EF0040E7047224901
:100440000860EFF3148222F0040282F314881D493D
:100450004FF0000008601A494FF0010008601C4886
:100460004FF47F01D0F8002041EA020101601748F3
:100470004FF08051016017480068006880F30888D9
:1004800061B662B670471EF0040F0CBFEFF3088030
:10049000EFF3098020E9F00F40F804ED40F804ED97
:1004A0001EF0040F0CBF80F3088880F3098800B5A4
:1004B0004DF0A6FC5DF804EB4EF0040E7047000012
:1004C000140000200C0000201000002004ED00E0CB
:1004D00020ED00E008ED00E07047000010B501F0ED
:1004E000C5F8001D10BD00BF055506000048704747
:1004F000442901207047704753EA020C00F06980DC
:100500002DE9F04B4FF00006002B1FBFB3FA83F527
:1005100003FA05F424FA05F65E4012BF1643B2FA58
:1005200082F502FA05F4C5F120051EBF22FA05FC8A
:1005300044EA0C04203556EA044C4FEA144418BF30
:10054000641C4FF000084FF00009904271EB030C5F
:1005500039D3002919BFB1FA81F701FA07F6B0FAC9
:1005600080F700FA07F6C7F120071EBF20FA07FC44
:1005700046EA0C062037B6FBF4FCA7EB0507103F54
:1005800007F01F0BCBF120060CFA0BFB2CFA06F63A
:1005900044BFB3460026202FA4BF5E464FF0000B99
:1005A0005BEA060C08BF4FF0010B19EB0B09ABFB24
:1005B000027C48EB0608C01B06FB02CC0BFB03CCFD
:1005C00071EB0C01C1E70B46024641464846BDE8C7
:1005D000F08B13B54FF000004FF0000101F044F82C
:1005E000BDE81C40704710B54C1084EA530404D594
:1005F0004042C1F1000138BF491E1B4204D552429E
:10060000C3F1000338BF5B1EFFF776FF14F0804F85
:1006100004D04042C1F1000138BF491E14F0004F20
:1006200004D05242C3F1000338BF5B1E10BD10B5A9
:100630000446FFF753FF0068005DC00602D504F1D1
:10064000200010BD204610BD10B50446FFF746FF40
:100650000068005D000704D5DF2C02D0A4F1200063
:1006600010BD204610BD00007CB51D4616460C008E
:10067000009001D02044401E074B7B442A46694627
:100680000190304601F089FA05461CB10020694608
:1006900001F096FA28467CBD4D1500000FB40449C0
:1006A00010B503AA029801F0AFFA10BC5DF814FB74
:1006B000B82701200FB41CB5084B06AA7B44694635
:1006C0000090059801F069FA04460020694601F09F
:1006D00077FA20461CBC5DF814FB000001150000F1
:1006E0000FB47CB50C0009AA009001D02044401E34
:1006F000084B7B4469460190089801F04EFA054684
:100700001CB10020694601F05BFA28467CBC5DF80C
:1007100014FB0000D514000070B50446856900681C
:10072000C10601D5302600E02026C00707D070BDE5
:10073000D4E9012130469047206A401C20626D1E9A
:10074000F6D570BD70B5044685690078C00707D13D
:1007500070BDD4E9012120209047206A401C20620E
:100760006D1EF6D570BD70B50C460546012A05D044
:100770002878800600D5EA69002302E0012305E01D
:100780005B1C934202D2E05C0028F9D1A869E6180C
:10079000C01AA861286A184428622846FFF7BCFFDF
:1007A00004E0D5E9012114F8010B9047B442F8D3D5
:1007B0002846FFF7C7FF70BD2DE9F041064600242B
:1007C00010687529314616A510D000F053FF002897
:1007D00002DA404213A507E031688A0701D512A565
:1007E00002E0490704D511A5012401E000F04BFF08
:1007F00000210A2206F1240709E0B0FBF2FCB0FB5D
:10080000F2F302FB1C00303078541846491C0028D3
:10081000F3D123462A463046BDE8F04100F03CBF04
:10082000000000002D0000002B0000002000000050
:10083000F0B40D460188090502D5214C7C4402E044
:100840001F4C7C440E34002100F1240608E002F025
:100850000F071209E75D42EA03721B097754491C2E
:1008600052EA0307F3D102780023120704D5702D52
:1008700006D009B1022311342246F0BC00F00CBFAF
:1008800001231034F8E770B504460D462146106880
:1008900000F0F9FE024629462046BDE870400023DC
:1008A000C6E7D21D22F00703D3E90023C0E703689F
:1008B000126843F0200303600823C3610023B7E7F5
:1008C00010C006002DE9F05F894604464FF0000A8B
:1008D000DFF874B1FB44C0F820A02046E1688847E7
:1008E000002874D0252806D0D4E901219047206A39
:1008F000401C2062F1E700265F462046E1688847F9
:100900002028054607DB312D05D2781910F8200C78
:1009100008B10643F1E7B00701D526F00406C4F894
:100920001CA00027C4F818A02A2D09D0284609F0D9
:100930000DFE38B304EB8708303DC8F8185019E0B5
:1009400059F8041B204604EB87029161E16888474F
:10095000012F054618D1E069002820DA26F020068C
:100960001DE0D8F8180000EB800005EB400030389F
:10097000C8F818002046E1688847054609F0E6FDFA
:100980000028EED1012F0AD02E2D08D12046E16893
:1009900088477F1C0546022F46F02006C4DBA0696D
:1009A000002803DA404246F00106A061F00701D0BA
:1009B00026F010066C2D0BD0682D09D04C2D39D0A7
:1009C0006A2D35D0742D35D07A2D33D016E038E02D
:1009D000E1682F4620468847B842054609D16C2F6A
:1009E00026D04FF48060E1680643204688470546DC
:1009F00004E06C2F1AD04FF4807006430DB3A5F1BC
:100A00004100192802D8203546F400664A46294696
:100A1000204626604E46FFF711FC80B101280BD01E
:100A2000F61D26F0070000F1080956E74020E4E72C
:100A30008020D8E70020D6E706F104094DE72846D4
:100A400052E7206ABDE8F09FA0BF06000FB400B5D2
:100A50008DB010A9099000910B904FF0FF300A90D3
:100A600000200C90064878440690064878446A4670
:100A700007900F9909A801F0C1F90DB05DF814FBBA
:100A8000B3130000CB1300002DE9FF5F1D464FF0AC
:100A9000FF3B91464FF000085F46D5E90146A96942
:100AA00001987F1C8847296A824688470028F6D12A
:100AB000BAF1FF3F0CD0002E24F4C06419DD6006AB
:100AC00014D5BAF12B0F09D0BAF12D0F0ED103E0D6
:100AD000584604B0BDE8F09F44F48064A9690198C9
:100AE0007F1C8847761E8246002E02DDBAF1300F49
:100AF00003D0B9F1000F26D032E0A969761E019823
:100B00007F1C44F400748847002E824605DDBAF14C
:100B1000780F06D0BAF1580F03D0B9F1000F10D0FA
:100B20001EE0B9F1000F02D0B9F1100F18D1A96978
:100B3000761E01987F1C24F400748847824610209A
:100B400002E0082000E00A20814609E0A96908FBCC
:100B50000908761E01987F1C44F400748847824679
:100B6000002E05DD4946504601F034F90028EDDA43
:100B7000E96901988847A00502D46FF00100A8E751
:100B8000E00725D1600613D5600502D5C8F1000045
:100B900000E0404629680A1D2A600968220501D53F
:100BA000087015E0220701D5088011E008600FE009
:100BB0002868011D29600068210502D580F80080A1
:100BC00006E0210702D5A0F8008001E0C0F800800F
:100BD00038467EE770B50646FFF788FC0468054690
:100BE00030460A22002100F002F82C6070BD2DE989
:100BF000F04791460F4680460446002614F8015BF4
:100C00002DB1FFF76BFC0068405DC007F6D12B2DBE
:100C100002D02D2D18D0641E4A463946204601F0D8
:100C20001DF927B13968A14201D1C7F800804FF002
:100C3000020471050BD54042002803DDFFF756FC86
:100C40000460A007BDE8F08746F48066E4E700286A
:100C5000F8DAFFF74BFC04606FF00040F2E72DE993
:100C6000F05F93460F46804604460026FFF73EFCA1
:100C7000D0F80090824614F8015B2DB1FFF72EFCEE
:100C80000068405DC007F6D12B2D02D02D2D1AD063
:100C9000641E0021CAF800105A463946204601F069
:100CA000DDF8014627B13868A04201D1C7F80080BD
:100CB000DAF80000022809D0CAF80090700505D5BE
:100CC0004842BDE8F09F46F48066E2E70846F8E750
:100CD000007B00F08000704770B50446C068810753
:100CE00013D0800601D5A56A04E0A16960680844B4
:100CF0002169451A204601F035F9002206462946A9
:100D0000204600F02DF8304670BD002070BD70B553
:100D100010B1BDE87040DFE70025074C6E1E07E00C
:100D20002046FFF7D9FF00B13546206D20F00104C1
:100D3000002CF5D1284670BD6427012070B50D4602
:100D4000044604E0294628F0E3FA401C04D014F8D5
:100D5000010B0028F6D170BD4FF0FF3070BD0000D0
:100D60002DE9F041044616460D464769007B800791
:100D70002ED038460DF033FC50BB3EB3012E02D0CE
:100D8000022E25D104E0204600F066F805441DE05F
:100D900038460DF015FCE168002841F01001E160D3
:100DA00005DA204601F0AAF80120BDE8F081C90368
:100DB0000BD56268E16A914200D81146A2691144DC
:100DC0002269891A814200DD08460544002D01DAB6
:100DD0000220EAE7E16A6068E268814206D2910394
:100DE000E06203D522F4003141F01002A669002729
:100DF000AE4213DCE16A814201D90B4600E00346B2
:100E000003EB060C2369ACEB030CAC4506DD814219
:100E100001D98C4600E084469C4505D1A760276037
:100E200042F02000A5620DE0AD1BE669AE1B8142D9
:100E3000A66000D90846C01A281A206058196060B8
:100E400022F0200003490840E060002084F8487048
:100E5000ABE70000BFCFD7FF10B50146C2689007CF
:100E600003D0900607D5886A0AE0FFF73FFB01210F
:100E70000160881E10BD8B69486818440B69C01A50
:100E800091F848301BB191F84910401A10BD110378
:100E9000FCD50028FADD401E10BD26F067BD28F005
:100EA00037BA000010B5044603E028F031FA401CC0
:100EB00009D014F8010B05490028F6D1BDE810400F
:100EC0000A2028F025BA4FF0FF3010BDB8270120C6
:100ED0002DE9F0410C4607461646104600F06EF824
:100EE0002078611C61280AD0722802D077283CD172
:100EF00002E00125002405E00225042402E0082484
:100F000048F2020511F8010B2B2806D0622809D0FF
:100F100011F8010C74280AD00BE045F0030544F0E9
:100F20000204EFE745F0040544F00104EAE744F069
:100F30001004384621460DF05BFB411C15D0002102
:100F4000316171604FF40071F560F16170612007EB
:100F500004D5304602220021FFF702FF306D40F039
:100F6000010030653046BDE8F0810020FBE72DE947
:100F7000F0410D460646104C206DC10704D04108D3
:100F800004D020F00104F7E722460EE0542040F0A0
:100F9000CAFB07000ED0206D47F001010843542121
:100FA0002065384600F0C5FA3A4629463046BDE885
:100FB000F0418DE70020D6E7642701202DE9F047B6
:100FC00004464FF000094FF0FF37C568D4E90486A6
:100FD000A80707D0204600F0C5FF30460DF0E4FA20
:100FE000002802DA3846BDE8F087280502D54046D9
:100FF00028F09BF94C21204600F09BFA206D20F050
:10100000010020654846EEE70B4910B5A1F17C02CE
:101010000A4CC2E93712372106E000EB104342F8D0
:101020002130074B00FB03400B1EA1F10101F4DC52
:1010300010BD0120E8E70000DC280120E119D66698
:10104000CD0D0100072811D2DFE800F00406080EDC
:10105000100C0A0006A070470BA0704714A0704740
:101060001EA0704723A070472CA0704733A0704784
:101070004E6F206572726F7220286572726E6F20DB
:101080003D2030290000000045444F4D202D2066B2
:10109000756E6374696F6E20617267756D656E74CD
:1010A000206F7574206F662072616E6765000000A6
:1010B0004552414E4745202D2066756E6374696F19
:1010C0006E20726573756C74206E6F74207265701B
:1010D000726573656E7461626C650000454E4F4DBC
:1010E000454D202D206F7574206F66206D656D6FE6
:1010F0007279000045494E56414C202D20696E768C
:10110000616C696420617267756D656E7420746FBF
:101110002066756E6374696F6E0000004553494721
:101120004E554D202D20696C6C6567616C2073698C
:10113000676E616C206E756D62657200556E6B6EC8
:101140006F776E206572726F72000000401ECAB227
:1011500010F8011F8A4202D00029F9D100207047FF
:1011600030B505460B462A4613F8014B12F8010B21
:1011700008B1A042F8D01CB1002802D06D1CF1E7E4
:10118000284630BD40EA010310B59B070FD1042A61
:101190000DD310C808C9121F9C42F8D020BA19BA42
:1011A000884201D9012010BD4FF0FF3010BD1AB1A7
:1011B000D30703D0521C07E0002010BD10F8013BFC
:1011C00011F8014B1B1B07D110F8013B11F8014B23
:1011D0001B1B01D1921EF1D1184610BD40EA01033C
:1011E000024630B59B0710D14FF0013400E008C231
:1011F00008C91D1B9D4315EAC41FF8D013F0FF0159
:1012000002F8011B0DD01B0AF8E711F8013B002B77
:1012100002F8013B05D011F8013B002B02F8013B1D
:10122000F3D130BD2DE9F041054690460E46002031
:10123000044600E0641C44450BD2285DFFF7F7F933
:101240000746305DFFF7F3F9381A02D1295D00290E
:10125000F0D1BDE8F0810022CBB210F8011B994219
:1012600000D1421E0029F8D11046704710B5431C2A
:1012700002E010F8011B71B18107FAD14FF0013281
:1012800002C88C1A8C4314EAC211F9D0C01A0A069B
:1012900003D0C01E10BDC01A10BD0A0401D0801EAC
:1012A00010BD0902FCD0401E10BDCBB22AB101789E
:1012B0008B4203D0401C521EF9D10020704740EAF7
:1012C000010370B59B072ED14FF00136042A2AD3B3
:1012D00008C810C99D1B9D43121F15EAC61517D0DB
:1012E000D8B2E1B2401A50EA056110D198B2A1B269
:1012F000401A50EA05410AD123F07F4024F07F4193
:10130000401A50EA052102D1180EA0EB146070BDFE
:10131000A342DBD018BA21BA884201D9012070BD9E
:101320004FF0FF3070BD0AB9002070BD10F8013BCE
:1013300011F8014B63B1A3420AD1521E08D010F834
:10134000013B11F8014B1BB1A34201D1521EEDD15B
:10135000181B70BD421E12F8013F002BFBD111F883
:10136000013B002B02F8013BF9D17047032A40F200
:10137000308010F0030C00F0158011F8013BBCF137
:10138000020F624498BF11F801CB00F8013B38BF4F
:1013900011F8013BA2F1040298BF00F801CB38BF5D
:1013A00000F8013B11F0030300F06780083AC0F039
:1013B000088051F8043B083A51F804CBA0E8081023
:1013C000F5E7121D5CBF51F8043B40F8043BAFF356
:1013D0000080D20724BF11F8013B11F801CB48BFB0
:1013E00011F8012B24BF00F8013B00F801CB48BFE6
:1013F00000F8012B7047431A28BF9A427FF6B6AF18
:10140000032A1044114440F2268010F0030F1EBF3F
:1014100011F8013D521E00F8013D10F0030F7FF45A
:10142000F6AF11F0030300F09086083AC0F00B808D
:1014300051F8043D083A51F804CD40F8043D40F815
:1014400004CDFFF7F3BF121D5CBF51F8043D40F817
:10145000043DAFF30080D20724BF11F8013D11F81D
:1014600001CD48BF11F8012C24BF00F8013D00F860
:1014700001CD48BF00F8012C704710B5203AC0F0EC
:101480000B80B1E81850203AA0E81850B1E8185085
:10149000A0E81850BFF4F5AF5FEA027C24BFB1E8C2
:1014A0001850A0E8185044BF18C918C0BDE8104033
:1014B0005FEA827C24BF51F8043B40F8043B08BF3C
:1014C0007047D20728BF31F8023B48BF11F8012B03
:1014D00028BF20F8023B48BF00F8012B704702F0FC
:1014E000FF0343EA032242EA024200F002B84FF04F
:1014F00000020429C0F0128010F0030C00F01B80E1
:10150000CCF1040CBCF1020F18BF00F8012BA8BFEE
:1015100020F8022BA1EB0C0100F00DB85FEAC17CB2
:1015200024BF00F8012B00F8012B48BF00F8012B65
:1015300070474FF0000200B5134694469646203996
:1015400022BFA0E80C50A0E80C50B1F12001BFF47C
:10155000F7AF090728BFA0E80C5048BF0CC05DF8E2
:1015600004EB890028BF40F8042B08BF704748BF30
:1015700020F8022B11F0804F18BF00F8012B7047A4
:1015800010B5044610F0030F08BF11F0030F40F030
:1015900015804FF0013E121FC0F20E8051F8043B3F
:1015A000A3EB0E0C2CEA030C1CEACE1C08BF40F87F
:1015B000043BF0D0A1F1040102F10402521E08DB49
:1015C00011F8013B002B00F8013BF7D11146FFF762
:1015D0008EFF204610BD00004FF0013C50F8042B58
:1015E00051F8043B9A4221D1A2EB0C03934313EA36
:1015F000CC1317D150F8042B51F8043B9A4215D163
:10160000A2EB0C03934313EACC130BD150F8042B39
:1016100051F8043B9A4209D1A2EB0C03934313EA1D
:10162000CC13DBD04FF00000704700BFD01A01BAD6
:10163000B1FA81F101F0180122FA01F0CB40C1F1B9
:101640002001DBB2C0B2C01A2CFA01F3D11A9143C7
:1016500011EAC311E6D17047704770477047000028
:10166000004870474429012000F099BD00487047A8
:101670006429012009684A0501D540B27047C905AF
:10168000FCD500B2704709684A0501D5C0B2704761
:10169000C905FCD580B270472DE9F0470D46994643
:1016A0009246044600F124080168880604D5E069E2
:1016B00021F01001216000E00120A84201DD471B5C
:1016C00000E00027A1697A1902EB0900081AA0615D
:1016D0002078C00602D42046FFF71EF8002608E056
:1016E000D4E901211AF806009047206A401C761CB4
:1016F00020624E45F4DB2078C0060AD52046FFF76D
:101700000BF806E0D4E9012130209047206A401C04
:101710002062381EA7F10107F4DC07E0D4E90121BB
:1017200018F805009047206A401C2062281EA5F189
:101730000105F3DC2046FFF705F82078000602D506
:101740000220BDE8F0870120FBE711680268006A0B
:10175000530501D508700AE0D30501D5088006E0DD
:10176000130603D5C217C1E9000200E0086001209A
:10177000704770472DE9FF4F0C461E464FF0FF376C
:101780008BB0D2E90001DDF860800A908A46C1F38F
:101790000A5505B93D46002108464FF00000BAF150
:1017A000000F00F4400005DA00EB80004FF4400128
:1017B00001EA50004FEA9059B9F1010F00DDB94636
:1017C0000A9850EA4A000ED044F61050A5F2FF35B0
:1017D00045432F14B8F1000F1ED07542291E1EDD9F
:1017E000C9F100021CE0B8F1010F4FF0000001D078
:1017F000302103E0F24305E02154401CB042FBDB02
:1018000030460022002121540B99C1F80880C1E91B
:1018100000200FB0BDE8F08FBD1B6D1CDEE74A460F
:1018200000DA694206A801F09BF806AB93E80700CE
:1018300003AB83E8070050460A9901F0D3FC8DE81A
:101840000700A0F500501F3800900398002D0ADD16
:1018500042F21F014A460844002303A90390684648
:1018600001F03CFF09E0A0F500504A461F38002374
:1018700003A90390684601F046FF8DE807000004C5
:10188000000C03D04FF0FF30410800E01046B8F1E3
:10189000000F03D00022009215461EE0751E05D4ED
:1018A00000F082FC303262556D1EF9D5B34601223C
:1018B000084302D000227F1C04E02078302801D1A8
:1018C00000227F1E002A099784D01DE0112D07DA1F
:1018D00000F06AFC303262556D1C50EA0102F5D10D
:1018E000084302D00098C8B10EE00021681E05E050
:1018F000235C625C63542254401E491C8142F7DB26
:10190000AB46A81B401E0990002004F80B000B9862
:10191000099AC0F80880C0E9002B7AE711264FF039
:10192000000857E72DE9F04F88460446D21D22F003
:10193000070191B0D1E90001CDE90A0108F029FDC4
:1019400002460B98C00F01D02D2007E020688107C8
:1019500001D52B2002E0202101EAC000032A0990D2
:1019600001D0072A05DB03464146204600F0E8FD8A
:101970000BE12078800601D5E06900E00620B8F18F
:10198000650F814606D0B8F1660F18D0B8F1670F21
:1019900070D131E00020B9F1110F009001DB11236B
:1019A00001E009F101030AAA01A90CA8FFF7E2FE70
:1019B000DDE90C70002609F10105834647E00120AE
:1019C0004B4600904FF000470AAA01A90CA8FFF768
:1019D000D1FEDDE90DB00C995D46002610B909F184
:1019E00001000D18B9EB050003D4C0F1FF3609F171
:1019F0000105A5EB09002BE0B9F1010F01DA4FF069
:101A000001090020B9F1110F0090484601DD1123B2
:101A100000E003460AAA01A90CA8FFF7ABFEDDE926
:101A20000C704D4600268346207800070AD4AB454B
:101A300000DA5D4601A8012D04DD411911F8011CF1
:101A4000302907D04F4502DA17F1040F04DA0120DC
:101A500082460FE06D1EEEE7002F02DCED1B3E44D8
:101A600003E0781CA84200DD7D1CB81B00F1010AD0
:101A70004FF000472078000703D4AA4501DB4FF060
:101A8000FF3A0021B7F1004F0DF143088DF84310E4
:101A900024D002202B23002F01DA7F422D230A219C
:101AA000021EA0F1010000DC5FB197FBF1FC97FB87
:101AB000F1F201FB1C7C17460CF1300C08F801CD4B
:101AC000EEE7A8F1010003702188090501D5452141
:101AD00000E06521A0F1010800F8011C09980FA998
:101AE000A1EB0807FF1D00B10120411901EBEA70CD
:101AF000A1693844081A401EA0612078C00602D4AB
:101B00002046FEF709FE099828B1D4E90121904743
:101B1000206A401C20622078C00622D52046FEF7AD
:101B2000FBFD1EE0002E04DBB34502DD01A8805D55
:101B300000E03020D4E901219047206A401C206257
:101B4000761CAAF101005FEA000A0AD1FFF78EFDB8
:101B5000C0680168405CD4E901219047206A401CBC
:101B60002062281EA5F10105DCDC07E0D4E9012193
:101B700018F8010B9047206A401C2062381EA7F11C
:101B80000107F3DC2046FEF7DDFD032011B041E63E
:101B900001694A1C02610878704700B58FB0CDE931
:101BA00001310021059105497944CDE90310114621
:101BB0006846FEF787FE0FB000BD0000E5FFFFFF9F
:101BC0000A6802F8010B0A607047D1E900239A42C3
:101BD00002D2531C0B601070704710B5436913B1EB
:101BE000AFF3008001E0FEF7BEFD012010BD1278CA
:101BF00000F124010A7000224A700122EDE7116809
:101C00004FF0FF32E9E70000074B70B50D467B440B
:101C1000FFF7C3FF04462846FFF75AF810B14FF00C
:101C2000FF3070BD204670BDFF7602002DE9FF5FDA
:101C300015468A460446DFF8AC80F8440027D8E908
:101C400000103E46CDE9001010E03AF816106A4642
:101C500002A801F022F9411C07D02178890603D59A
:101C6000E269391891420DD80744761C2078800625
:101C700002D5E069B84205DDAE42E6DB3AF816006F
:101C80000028E2D1A069C01BA0612046FEF744FDF8
:101C9000D8E90010CDE90010002017E03AF818103C
:101CA0006A4602A801F0F9F8B0F1FF3F81460BD077
:101CB00000250DF1080B05E0D4E901211BF8050012
:101CC00090476D1C4D45F7D308F10100B0428046A6
:101CD000E4DB206A384420622046FEF733FDBDE88D
:101CE000FF9F00004EAC06002DE9F0418046D21D5A
:101CF00022F007020025D2E90002F52915A614D02A
:101D0000011E72F1000106DA0023D0EB030063EB41
:101D1000020211A608E0D8F800108B0701D50FA623
:101D200002E0490701D50EA601251146002408F15D
:101D3000240704E000F038FA30323A55641C50EAC7
:101D40000102F7D12B46324621464046BDE8F0411C
:101D5000FFF7A2BC000000002D0000002B000000D7
:101D60002000000030B4002100F1240408E002F05B
:101D70000705D208303542EA4372DB086554491C36
:101D800052EA0305F3D10468002310A2250707D502
:101D9000A40600D421B1C46901230DA2641EC4614C
:101DA00030BCFFF779BC10B5044621461068FFF738
:101DB0006AFC02462046BDE810400023D2E7D21D4F
:101DC00022F00701D1E90023CCE700000000000069
:101DD000300000003A2800D2303820F02002412A9A
:101DE00001D3A2F13700884201D34FF0FF30704792
:101DF000026811441378016018467047D1600549A4
:101E000079445161044979441162002111611146FC
:101E100000F0ECBBEDFFFFFF29040000426842B177
:101E2000016811F8013B23B1521EC0E900121846A7
:101E300070470121C160881E704742685AB1C3686B
:101E4000016843B983688B4205D0491E521CC0E922
:101E50000012002070474FF0FF3070472DE9F05F0F
:101E6000824615468B4600270AF10104B9460078E0
:101E7000302801D09DB113E014F8010B0127782818
:101E800003D0582801D045B10AE00DB1102D07D17B
:101E9000002714F8010B102502E0082500E00A25B0
:101EA0000026B0460EE005FB080005FB06F1012701
:101EB0001FFA80F801EB1046B6F5803F00D3B94613
:101EC00014F8010B2946FFF785FF0028EBDABBF178
:101ED000000F05D00FB1641E00E05446CBF800405F
:101EE000B9F1000F06D0FEF701FB02210160C81E08
:101EF000BDE8F09F48EA0640FAE70000C16821F417
:101F0000001141F08001C1600021816001607047D3
:101F10002DE9F047814614460E464FF0FF3832480F
:101F2000D5685769054209D03846A1690CF0D3FB42
:101F3000002811DB2C48C0430540E5602B463246A3
:101F4000494638460CF0D5FBA16920F00042B21A90
:101F500011440028A16103D02046FFF7CFFF40467F
:101F6000BDE8F08770B504460569C06A61688842BB
:101F700000D80846E16821F42011E160C90312D5B8
:101F8000A84208D02246411B2846FFF7C1FF10B1E6
:101F90004FF0FF3070BD0020E562C4E90150E068F9
:101FA00020F48030E060002070BD10B50446C068A9
:101FB00020F02000E060A16AA06988420DD0204690
:101FC000FFF7D0FFE06820F4405040F01000E060E0
:101FD000A06AA0612069E062606044F24001E068AC
:101FE0008843E06010BD00001000020010B54248B8
:101FF0005421FFF79EFA41485421FFF79AFA4048CE
:102000005421FFF796FA3F493B483C4A3F4B086052
:102010003D490A603A491960531C0365481C106524
:10202000012008653B48344A39A17844FEF750FF47
:1020300020B9384878440A3800F04FFF37482F4A13
:1020400035A17844FEF744FF20B9344878440A3873
:1020500000F043FF32482A4A2FA17844FEF738FFA8
:1020600020B92F4878440A3800F037FF402322482F
:10207000DC000021224600F0EDFE20B12548784426
:10208000543800F02AFF1D4822464023002100F06A
:10209000E1FE20B121487844543800F01EFF184872
:1020A00022461023002100F0D5FE002806D01C484F
:1020B0007844BDE81040563800F00FBF10BD1048FE
:1020C00070B5006D20F001040B48FEF777FF0B4858
:1020D000FEF774FF0A48FEF771FF09E0206D20F05B
:1020E00001052046FEF76AFF204627F01EF92C4620
:1020F000002CF3D170BD000064270120B827012017
:102100000C280120B80F0020BC0F0020C00F0020B9
:1021100072000000F056060077000000DE56060050
:10212000CD560600431A28BF9A427FF6A6A910444E
:1021300010F0030F11441EBF11F8013D521E00F8AC
:10214000013D10F0030F7FF4F6AF103AC0F00A80A3
:1021500010B531E91850103A20E91850BFF4F9AF22
:10216000BDE81040530724BF31E9081020E90810EA
:1021700044BF51F8043D40F8043D12F0030F08BF7E
:102180007047D20728BF31F8023D48BF11F8012C33
:1021900028BF20F8023D48BF00F8012C704707B562
:1021A000022000F050FF07BD30B5B0F10A024FEA3F
:1021B000900E71F100034EEA817EB0EB0E0061EBF0
:1021C00091014FEA101E4EEA017E10EB0E0041EB2A
:1021D00011114FEA102E4EEA016E10EB0E0041EB8A
:1021E00011214FEA104E4EEA014E10EB0E0041EB6A
:1021F0001141401841F100014FEAD00040EA41701E
:102200004FEAD10110EB80054FEA810444EA907453
:1022100044EB01046D1944EB0404521BA3414FF03D
:10222000000348BF0A3200D530BD401C41F1000117
:1022300030BD10B50446FEF751F90068005D00F0AE
:10224000010010BD2DE9F04F04460D46D21D22F0CD
:10225000070089B0D0E900974846394608F099F858
:102260000246F80F01D02D2307E02068810701D531
:102270002B2302E0202101EAC0038DF820300BB1AE
:10228000012000E00020032A824601D0072A04DB57
:102290002946204600F054F93FE12078800601D419
:1022A0000D2500E0E569C7F30A560D2D49DA002136
:1022B0004FEA175B08464FF00000002F00F4400083
:1022C00007DA00EB80004FF4400100EBD07001EA28
:1022D00060008115012901DD4FF0FF3100224FEA36
:1022E000850CBCF1180F06D31346ACF118004FF063
:1022F0008052C24003E04FF4801323FA0CF30CF138
:102300000C0CBCF1200F04D3ACF1200C09FA0CF03A
:1023100001E007FA0CF000294FF0004801DD18B980
:102320000FE00ED140450CD319EB02095F4121B9F2
:10233000404502D19F4329EA0209BBEB175F00D059
:10234000761C2088000502D57B48784402E07A4854
:102350007844193808AA302302F80A30037C0AF1BD
:102360000101002E0AF1020A53546A4602DC4FF0C2
:10237000300101E04FF031014FF001088DF80010FD
:1023800002D0A6F2FF3603E059EA470100D06B4EB7
:10239000002D02DC2178090704D54FF002082E2118
:1023A0008DF80110C44600210BE0C7F303433F0141
:1023B000C35C491C6D1E02F80830052908F10108AC
:1023C00001DA002DF1DC00210CE000EB1973491C4F
:1023D0001B786D1E082902F808304FEA091908F128
:1023E000010801DA002DF0DC21688B0602D516E029
:1023F000A8F10108E04505DD02EB080313F8013CF4
:10240000302BF5D0B8F1000F09DD02EB080313F80B
:10241000013C2E2B03D1090701D4A8F10108002D9E
:1024200005DD3E2102F808106D1E08F10108407C10
:10243000002E02F8080008F1010804DA2D20764287
:1024400002F8080002E02B2002F808000A214FF4ED
:102450007A70864208F101080BDB96FBF0F330330B
:1024600002F8083096FBF0F308F1010800FB136650
:1024700001E0642E0CDB642096FBF0F3303302F8AD
:10248000083096FBF0F308F1010800FB136601E049
:102490000A2E06DB96FBF1F0303002F8080008F156
:1024A000010896FBF1F001FB1060303002F80800E3
:1024B000A16908F1010808EB050202EB0A00081AFD
:1024C000A0612078C00602D42046FEF725F9216AD3
:1024D00008AE01EB0A00206204E0D4E9012116F8FD
:1024E000010B9047BAF1010AF7D22078C00602D555
:1024F0002046FEF711F96E4609E016F8010B3E285A
:102500000FD0D4E901219047206A401C2062B8F125
:102510000108F2D22046FEF715F909B00320BDE804
:10252000F08F206A2844206203E0D4E901213020A2
:1025300090476D1EEBD3F8E759A5060002FCFFFF9C
:102540002DE9F0411F46044603260168072A01F4DD
:10255000006004DB08B116A505E016A503E008B18C
:1025600015A500E015A521F010002060A069C01E8F
:10257000A0610FB1401EA0612046FEF7CDF84FB11B
:10258000D4E9012138469047206A401C2062C01CD3
:10259000206206E0206AFAE7D4E9012115F8010B70
:1025A0009047761EF8D22046FEF7CCF8BDE8F081C1
:1025B0004E414E006E616E00494E4600696E6600E7
:1025C00010B5436913B1AFF3008001E0FFF72EFBB4
:1025D000012010BD128800F1240182840022C284EF
:1025E0000122EDE711684FF0FF32E9E72DE9F34FE3
:1025F0004FF0000A0C4656468DB001200C9001F1B8
:102600000C000B9062690B9801219047051E2DD09C
:10261000252D2CD0216A8847C0B162690B98012111
:102620009047216A88470028F7D16269411E0B98BC
:10263000904700E0761CA1690D988847216A884779
:102640000028F7D1E1690D988847DBE7A1690D986B
:102650008847A842074601D1761CD3E7E1690D9867
:1026600088477F1C02D1BAF1000F6FD06CE162691C
:102670000B9800273D46394690472A2804D16269C5
:102680000B98012190470125DFF8D08262690B98F1
:1026900001219047A0F130010A290AD24745E5DC23
:1026A00007EB870100EB4107303FDFD445F0100511
:1026B000ECE7E90601D46FF000476C280AD04C28FB
:1026C00014D0682815D06A280DD074281CD07A2818
:1026D0001AD01DE062690B98012190476C2802D046
:1026E00045F0040514E045F002050DE045F0200535
:1026F0000AE062690B9801219047682802D045F0F2
:10270000080505E045F4006562690B9801219047D2
:10271000C4E9015765283DD019DC58287AD00CDC73
:10272000452837D004DC252826D041289ED131E029
:1027300046282FD0472899D12CE05B2877D06128F4
:1027400028D063287CD0642823D15AE0F7E06F2892
:1027500048D008DC66281DD067281BD0692821D006
:102760006E2816D127E0702845D0732868D07528C8
:1027700047D078280DD14DE0A1690D9888472528CC
:1027800005463FF469AFE1690D9888476D1C3FF439
:102790006AAFD9E00D9923466A466FF00100AFF3A6
:1027A0000080C6E045F0400023464FF00002606024
:1027B000A80736D43EE0E8077FF447AF2068011D44
:1027C00021600068290501D506701BE7290701D59E
:1027D000068017E7A90703D5F117C0E9006111E7E3
:1027E00006600FE745F0400023464FF008026060A6
:1027F000A80716D41EE040F60E0125EA010060602D
:1028000016E045F0400023464FF00A026060A8073A
:1028100007D40FE045F040006060A80708D52346C4
:1028200010220D996FF00100AFF3008081E007E006
:10283000102223460D996FF00100FEF725F978E08C
:102840004FF0000963284F46C8464B46CB4602D09E
:102850005B2807D039E02079C00601D40120A060B0
:10286000012732E06269D4F80CB00B98012190473F
:102870005E2807D14FF0010949466269D4F80CB0CF
:102880000B989047216939B900210A4603AB43F8F8
:102890002120491C0829FADBD8B3216949B308F182
:1028A000010862690B98012190475D28F4D1B9F1C4
:1028B000000F09D0002003A951F82020D24341F88D
:1028C0002020401C0828F7DB03AB20690028207972
:1028D0004FEA40701ED05B462246CDF80080CDE91D
:1028E00001970D9900286FF0010020DAAFF3008006
:1028F0001FE0C11703AA00EBD1614B1121F01F01AA
:1029000002EB8302411A13680120884003431360DD
:10291000C7E719E00D99224600286FF001000097E3
:1029200002DAAFF3008004E0AFF3008001E0AFF320
:10293000008000280ADA401C06D10C9820B14FF024
:10294000FF300FB0BDE8F08F5046FAE7E90701D13C
:102950000AF1010A064400200C9053E6CCCCCC0CC2
:102960002DE9F047814616468AB0354878440DC8AF
:102970008DE80D0032487844801C03AC0DC884E813
:102980000D0041F69B300844372190FBF1F290FB9B
:10299000F1F5A5F1800501FB12041B3C02D5644250
:1029A000012000E00020DFF898A080460027FA44CC
:1029B000AAF1BE0A0EE0E0070AD03246684607EBED
:1029C000470101230AEB810100F09DFE8DE807001D
:1029D00064107F1C002CEED1194F7F44AE3F19E0EC
:1029E000E80715D007EB04100DF1180A90E80E0067
:1029F0008AE80E00C068F04201D19819089032466A
:102A0000012306A903A800F07EFE03AB83E80700BC
:102A10006D10641C002DE3D14FF00103324669466E
:102A2000B8F1000F03A802D000F058FE01E000F05A
:102A30006AFEC9E90001C9F808200AB0BDE8F087BC
:102A4000C89F060070B50D4601461446D36850690C
:102A50002A460BF01DFE002807DA411C07D0E1686A
:102A600020F0004041F48041E160281A70BD20460A
:102A7000FFF744FA4FF0FF3070BDC16800220260DA
:102A800021F4805141F0400111F4C06FC16001D0C8
:102A90008260704702694168891AC269891A816037
:102AA00070472DE9F0470446C06840F48000E060BC
:102AB000010312D520F40020E060810606D4E26A0A
:102AC00061688A4200D80A46511A216040F4001019
:102AD000E06094F82500BDE8F08720F40010E06085
:102AE000800602D52046FFF760FAE06842F28101D5
:102AF0004FF0FF390140012903D02046FFF7FEF9CE
:102B0000B6E02168002600290ADAC94340F4805063
:102B10002160C4E902606068411C61600078DAE706
:102B200044F2400108420CD020F4A04040F04000A4
:102B30002660E06021696068401AE169401AA0607F
:102B400096E0216991B9C00310D4E0693EF0EBFD35
:102B50002061B0B1E06840F4006010F4407FE060B4
:102B600002D140F48070E06020696060E068D4F8D1
:102B700014A0C1061AD5C0030ED52046FFF7F2F9FE
:102B800014E004F1240020610120E061E06820F4F9
:102B9000407040F48060E6E721696068401AA169EE
:102BA000014450460BF097FD0028A6DBE068C00307
:102BB0002AD56168E06A884200D808462169451A2A
:102BC000E069471B1BD02046D4F81880FFF7CAF9EC
:102BD00008EB05015046C4F818800BF07CFD002876
:102BE0008BDBE06840F40030E060000202D5A069B1
:102BF0002844A061E1692069C91B45180DE0204601
:102C0000FFF7B0F9E769F5E725696168D4E90607D8
:102C1000491BE56208446560A061E06820F010008F
:102C200010F4C06FE06002D0204600F0E7F9E068E1
:102C300040F48050C4E90260000205D52069E062DA
:102C400060606FF0010046E7224639462846FFF7EC
:102C5000F9FE411C0CD02918E16258B1401E2060D9
:102C6000681C6060E06840F40030E060287832E77B
:102C7000484630E765602046FFF7FFFEF8E72DE99C
:102C8000F04705460C46C86820F4201040F4800048
:102C9000C860800602D50846FFF787F9E06841F270
:102CA00082014FF0FF390140022903D02046FFF78F
:102CB00025F9B5E000F42041B1F5004F0FD1C00374
:102CC00006D56168E06A884200D80846606006E080
:102CD0002069E062606060690BF072FCA061A0682E
:102CE0000022EEB200280DDAE1688B050AD4C04359
:102CF000A06041F490302260E0606068411C616037
:102D00000670A5E0E0689046226040F40050E06064
:102D1000206968BB60690BF062FC012704F124059F
:102D2000A0B1A08910F4407F08D0E0693EF0FBFC20
:102D3000206118B1E06840F4006016E0E7612561A9
:102D4000E06820F4407040F480600EE0E0693EF0FE
:102D5000EAFC00282061F1D0E06840F4006010F443
:102D6000407FE06002D140F48070E06020696060E4
:102D7000E06825696FF0010AC1051FD56168E06A46
:102D8000884200D80846411B04D022462846FFF757
:102D9000BFF8F0BBE068010203D5E562C4E9015861
:102DA00054E0691CE1626160E16940F48030491ED1
:102DB000C4E9021030462E70BDE8F087010202D54A
:102DC00000F480320AE06068411C61600670E068CF
:102DD0000A2E40F48030E06006D00022E16A60688C
:102DE000814203D90B4602E00122F7E70346A78997
:102DF0005B1B7F0503D4E7699F4200DDE2B181429E
:102E000000D80146E5620F1AC4E90158002B09DD1C
:102E100000E005E0224619462846FFF779F808B198
:102E20004846C9E747B1A069E5626560C01BA0617B
:102E3000E06840F01000E060E068000208D56168DA
:102E4000A069E562491B08446560A0615046B3E78C
:102E50003046B1E770B5C468A50713D0650211D438
:102E6000B2F5807F09D0B2F5007F06D0B2F5806F51
:102E700008D1012300F1240106E05D1E6FF07F46BA
:102E8000B54201D3012070BD0161C361416024F4EA
:102E900070611143C160002070BD70B516460C46CC
:102EA0000546FDF71BFB036893F80101012806D0D6
:102EB000FF2C0FD8185D68B101202C7070BDD3F8BD
:102EC00007013246214603F2071303442846BDE8B2
:102ED000704018474FF0FF3070BD0146082000F0E9
:102EE00025B87546FEF7BCFBAE460500694653465D
:102EF00020F00700854618B020B5FDF741FABDE87F
:102F000020404FF000064FF000074FF000084FF050
:102F1000000B21F00701AC46ACE8C009ACE8C009E1
:102F2000ACE8C009ACE8C0098D46704710B500F0A8
:102F3000A9F8002800D110BDBDE810400BF03EBB41
:102F40002DE9F0471C469246804602FB01F511B37D
:102F5000A76800203DE0002F3DDCE069A8421DDAB3
:102F6000B9F1000F1AD0224629464046FEF7D0FF9D
:102F700008B1A7602AE0E06810F4C06F01D000201B
:102F800008E022696168891AE269511AC003A160E8
:102F900001D44842A0605046BDE8F087A84203DA59
:102FA000E06840F40000E060214698F80000FFF778
:102FB00066FEE16821F40001E160411C06D0A768CB
:102FC000002805DB6D1E08F1010813E00020E3E78F
:102FD000012081460EE0AF423E4600DD2E464146CE
:102FE00032466068FEF7C2F96068BF1BAD1B304413
:102FF000B0446060002DAEDCA760CCE770B505463C
:1030000040F202260A4C0FE094F85000C00708D0A6
:10301000AC4206D0E06836EA000002D12046FDF757
:103020005BFE206D20F00104002CEDD170BD00008E
:103030006427012010B50446AFF300802046BDE8A8
:103040001040FDF766B901460220FFF76FBF000090
:1030500010B5014602A000F02DF8012010BD0000BF
:1030600053494752545245443A2052656469726547
:1030700063743A2063616E2774206F70656E3A2026
:103080000000000070B50D46044601464FF0FF30C9
:10309000AFF300800246401C06D0D01C02D0294667
:1030A00020469047002070BD29462046BDE870406C
:1030B00000F060BC70B505460C460A2000E06D1CAF
:1030C0000BF03AFB35B128780028F8D102E0641CF7
:1030D0000BF032FB14B120780028F8D1BDE8704025
:1030E0000A200BF029BB000010B5022803D04101D3
:1030F00003D50DA112E0002010BD010101D50FA1E3
:103100000CE0C10001D511A108E0810001D512A198
:1031100004E0400001D513A100E0002115A0FFF755
:10312000C9FF012010BD0000496E76616C69642002
:103130004F7065726174696F6E0000004469766952
:103140006465204279205A65726F00004F7665727F
:10315000666C6F7700000000556E646572666C6F78
:1031600077000000496E657861637420526573755D
:103170006C7400005349474650453A2041726974C7
:10318000686D6574696320657863657074696F6ED6
:103190003A20000010B5012805D0002103A0FFF758
:1031A00089FF012010BD09A1F8E7000053494752EB
:1031B000544D454D3A204F7574206F662068656107
:1031C00070206D656D6F7279000000003A204865CF
:1031D0006170206D656D6F727920636F72727570AA
:1031E000746564005FEA400C08BF91F0000F4FEA7D
:1031F0008C234FEAC12243EA51514FEA1C5018BFB9
:1032000000F5F0404FEA300018BF41F000415FEA9E
:103210006C5C00F02980BCF1FF3F08BF40F08040AB
:103220007047130C06BF12044FF0100C4FF0000C47
:10323000130E04BF12020CF1080C130F04BF12018D
:103240000CF1040C930F04BF92000CF1020CD30F8D
:1032500004BF52000CF1010C11464FF00002A0F126
:103260001F00A0EB0C00704711F0004F08BF704723
:1032700031F000413FF4D5AF0B0C06BF09044FF00D
:10328000100C4FF0000C0B0E04BF09020CF1080CDF
:103290000B0F04BF09010CF1040C8B0F04BF890054
:1032A0000CF1020CCB0F04BF49000CF1010CCCF166
:1032B0002003A0EB0C0022FA03F302FA0CF241EA1D
:1032C000030100F10100704720F07F4C80EA030009
:1032D00023F07F47ACEB070303F57C5300F000407D
:1032E00003F1FF032DE980494FEA154B09B44FEA7A
:1032F000144325EA0B4E24EA03480FF2042606EB9A
:10330000132749083E785FEA320203FB0667C7F5D8
:10331000000707FB06F64FEA54374FEAD64606F198
:10332000020607FB066CCCF1005C4FEA1C472CEA56
:10333000074C07FB06F40CFB06F504EB15464FEAB9
:10334000961634BF00204FF000404FEAD13706FBFD
:1033500007FC4FEA1C4C0CFB0BF7D21B03FB0CF7D2
:1033600061EB07010CFB0EF7B0EB074072EB174265
:103370000CFB08F734BFA2EB0742B2EB074261EB4C
:1033800017414FEA0C444FEA910706FB07FC4FEA4E
:103390001C4C0CFB0BF7B0EBC74072EB573203FB36
:1033A0000CF734BFA2EBC742B2EBC74261EB573117
:1033B0000CFB0EF7B0EBC70072EB57720CFB08F773
:1033C00034BFA2EBC702B2EBC70261EB5771039F98
:1033D0004FEA816141EA921104EBCC044FEAD13704
:1033E0004FEA826206FB07FC42EA90124FEA8060D5
:1033F0004FEA1C4C0CFB0BF7D21B03FB0CF761EBE9
:1034000007010CFB0EF7B0EB074072EB17420CFB09
:1034100008F734BFA2EB0742B2EB074261EB17415A
:103420004FEA8C554FEA910704EB9C2406FB07FCFE
:103430004FEA1C4C0CFB0BF7B0EBC74072EB57325A
:1034400003FB0CF734BFA2EBC742B2EBC74261EB00
:1034500057310CFB0EF7B0EBC70072EB57720CFB49
:1034600008F734BFA2EBC702B2EBC70261EB57719A
:1034700015EB4C254FEA816141EA92114FEA8262D5
:103480004FEAD13742EA901206FB07FC44F10004F0
:103490004FEA80604FEA1C4C0CFB0BF7D21B03FB7E
:1034A0000CF761EB07010CFB0EF7B0EB074072EB7A
:1034B00017420CFB08F734BFA2EB0742B2EB0742FE
:1034C00061EB174115EB1C154FEA813141EA92413E
:1034D0004FEA823242EA90424FEA80304FEA0C765D
:1034E00044F1000448EA03434EEA0B484FF0000E53
:1034F000B2EB080C71EB030724BF624639464EEB72
:103500000E0E4FF0000B0018524149414BEB0B0BD4
:10351000B2EB080C71EB03077BF1000B24BF624692
:1035200039464EEB0E0E4FF0000B00185241494148
:103530004BEB0B0BB2EB080C71EB03077BF1000BB1
:1035400024BF624639464EEB0E0E51EA020718BF01
:1035500046F0010616EB0E7655F1000254F100011B
:1035600003D5BDE88901BDE80088BDE88901BDE853
:103570000048B619524141EB0101A3F10103704724
:1035800080807F7E7D7C7B7A7978777676757473A0
:10359000727171706F6E6E6D6C6C6B6A6A6968685F
:1035A000676666656464636362616160605F5F5EF5
:1035B0005E5D5D5C5C5B5B5A5A595958585757566B
:1035C00056555555545453535252525151505050D0
:1035D0004F4F4F4E4E4D4D4D4C4C4C4B4B4B4A4A22
:1035E0004A49494948484847474747464646454566
:1035F000454444444443434343424242424141419F
:10360000002B9C4630D477002BD01CB54FEA3707EF
:1036100003B44FF010004FF01001BAF1000F06D0C4
:10362000BCF1000FDCBF40F0080040F008014FF093
:1036300000000FBCBDE810400BF1010BBBF1010F06
:1036400008BF5FEA170722BF12F1010211F1010161
:103650004FF0004143F1000300F0004043EA000056
:103660007047F9D35708D0E746EA064613F1400FF2
:103670004FEA16461FDD13F1200FDFBF16430A463F
:10368000002120335B42BED0C3F1200746EA064644
:1036900002FA07F74FEA164646EA0706C3F1200783
:1036A00022FA03F201FA07F721FA03F14FF00003BF
:1036B00042EA0702A7E746EA020646EA06464FEA5A
:1036C000164646EA0106BCBF46EA0646360C4FF0EF
:1036D00000034FF000024FF0000194E72DE9804C09
:1036E0009A46934670B491E8380007C831EA400C16
:1036F00048BF34EA430C03D5FFF7E6FDFFF780FF30
:10370000F0BCBDE8008C2DE9804C9A46934670B41D
:1037100091E8380007C810F0804F08BF13F0804FC1
:1037200003D100F005F8FFF76BFFF0BCBDE8008C9B
:1037300020F07F4780EA030023F07F4C07EB0C0367
:10374000A3F57C5300F00040A3F1FE0392F0000FBC
:1037500000F0B38095F0000F00F077802DE901496B
:103760004FEA11404FEA144621EA004800FB06FCEC
:1037700024EA064708FB06F607FB08F800FB07F7F4
:1037800018EB06484CEB164C4FEA124B18EB074867
:103790004FEA15464CEB174022EA0B4E0BFB06FC9A
:1037A00025EA06470EFB06F607FB0EFE0BFB07F7A6
:1037B0001EEB064E4CEB164C4FF000061EEB074E70
:1037C0004CEB174B18EB0B0840F1000018EB0E0BFD
:1037D00058EB000840F100008F1A4FF000013CBF89
:1037E000C943661B14BFB5EB040C00213CBFC943A1
:1037F000F61B4FEA17444EEA8E0E27EA04454FEABD
:103800001C4704FB07622CEA074C05FB07F70CFB7F
:1038100005F604FB0CFC16EB074642EB174216EBD1
:103820000C4642EB1C421BEB060658EB02024141E0
:1038300046EA9E0601D5BDE80189B619524141EB21
:103840000101A3F10103BDE801894FEA14454FEAE4
:10385000114724EA054621EA074C05FB07F406FB5D
:1038600007F70CFB06F105FB0CFC11EB074144EBE1
:1038700017444FEA124711EB0C4144EB1C4422EA77
:10388000074C05FB07F206FB07F70CFB06F605FBEA
:103890000CFC16EB074642EB174216EB0C4642EBCC
:1038A0001C456A1854F1000148BF7047B6195241CF
:1038B00041EB0101A3F10103704795F0000F37D0F0
:1038C0004FEA11424FEA144721EA024624EA074C24
:1038D00002FB07F106FB07F70CFB06F402FB0CFCEE
:1038E00014EB074441EB17414FEA154714EB0C4426
:1038F00041EB1C4125EA074C02FB07F506FB07F7E5
:103900000CFB06F602FB0CFC16EB074645EB1745D5
:1039100016EB0C4645EB1C42121951F1000148BF51
:103920007047B619524141EB0101A3F10103704701
:103930004FEA14454FEA114724EA054621EA074CAD
:1039400005FB07F106FB07F70CFB06F24FF000063C
:1039500005FB0CFC12EB074241EB174112EB0C424A
:1039600051EB1C4148BF7047921841EB0101A3F194
:1039700001037047401E0D2828BF0D2003A202EB53
:103980008002012013689B1818477047FFFFFFFF54
:1039900059F7FFFFF7FFFFFFF3FFFFFFEFFFFFFF09
:1039A000EBFFFFFFE7FFFFFFA9F6FFFFE9F7FFFFD0
:1039B000DBFFFFFFD7FFFFFFD3FFFFFFCFFFFFFFBF
:1039C000CBFFFFFF10B551F01DF9002010BD000026
:1039D0002DE9FF4FABB081468A461646389D05A9B2
:1039E0002E980DAB15AACDE90016CDE902051DA94B
:1039F00024A800F0A7F8082D48D3002443E0EB08E2
:103A0000002139E0002031E00DF1140858F824803D
:103A10000DF1900B5BF824B001FB0B0B0BFB038744
:103A2000DFF8108158F82480DFF80CB15BF824B07F
:103A300001FB0B88DFF804B15BF824B008FB06B883
:103A4000DFF8FCB05BF824B000FB0B8808FB03FC3C
:103A5000002208E007EB02081AF808800CEB020BC2
:103A600009F80B80521C9A42F4D3401C24AF57F83B
:103A700024708742C8D8491C1DAF57F824708F4264
:103A8000C0D8601C0446072CB9D150E000244CE09B
:103A900024A850F824006843049005FB06F0039026
:103AA0004FF000083BE0002732E0049808FB00F0EC
:103AB00007FB050005A951F82410082202FB0100AC
:103AC00001901C4850F824001B4951F8241008FBB1
:103AD000010003994843194951F82410184A52F833
:103AE000242007FB021101FB050002904FF0000BA0
:103AF0000BE0514601A846F0D7FE0090494602A8C7
:103B0000009A52F08FFC0BF1010BAB45F1D37F1CF7
:103B100024A850F82400B842C7D808F101081DA80D
:103B200050F824004045BED8641C072CB0D12FB0FB
:103B3000BDE8F08F3C8C0608748C0608208C0608C3
:103B4000588C06082DE9F0470446DDE9097C0B9EF8
:103B5000089D00203CE0DFF8288158F82080B84418
:103B6000DFF8209159F82090A8EB0908A8F1010886
:103B7000DFF80C9159F82090B8FBF9F844F8208050
:103B8000DFF8048158F82080E044DFF8009159F80C
:103B90002090A8EB0908A8F10108DFF8EC9059F88B
:103BA0002090B8FBF9F841F8208054F82080B8F153
:103BB000000F03D14FF0000841F8208051F8208019
:103BC000B8F1000F03D14FF0000844F82080401CEA
:103BD0000728C0D14FF00008C5F80080C3F8008066
:103BE000C2F80080002046E054F82080B8F1000FB1
:103BF00013D051F82080B8F1000F0ED051F820906A
:103C000054F8208008FB06F808F107084FF0010A75
:103C10000AEBD80809FB08F801E04FF0000852F859
:103C20002090C14400F1010842F8289053F82090F8
:103C300051F820A054F8208008FB06F808F1070886
:103C40004FEAD8080AFB089900F1010843F82890C8
:103C500051F8208054F8209008FB09F808FB06F87A
:103C600008F1070855F8209009EBD80900F1010880
:103C700045F82890401C0728B6D1BDE8F087000021
:103C8000588C0608208C0608748C06083C8C0608A4
:103C90002DE9F0410646002527E0012700240BE02E
:103CA00005EB4500134901EB001030F8140008B98A
:103CB000002703E0601C84B2182CF1DB00BF97B131
:103CC00000240EE0002005EB45010A4A02EB011139
:103CD00021F8140032462146284604F09FF8601C63
:103CE00084B2182CEEDB681C85B2202DD5DBBDE834
:103CF000F0810000B8E2002070B50646FCF718FB22
:103D0000072190FBF1F201FB1200FB490870002033
:103D1000FA490880FA490880401E488000240DE0D6
:103D2000002507E00020F74901EBC40121F8150048
:103D3000681C85B2042DF5DB601C84B2042CEFDB1B
:103D4000ED48007807285AD2DFE800F0045AB0D0D6
:103D5000FDFCFB000121EB48418281814181018111
:103D6000E748B0F90200801C00EB4000E64A02EB95
:103D70000012E348B0F90000401C22F81010E0489F
:103D8000B0F90200401C00EB4000DF4A02EB0012D9
:103D9000DB48B0F90000801C22F81010D848B0F9B8
:103DA0000200401C00EB4000D74A02EB0012D4484E
:103DB000B0F90000401C22F81010D148B0F9020000
:103DC000401C00EB4000D04A02EB0012CC48B0F996
:103DD000000022F8101032460021012004F036F8CD
:103DE00032460121084604F031F832460221012012
:103DF00004F02CF832460121022004F027F8DAE121
:103E00000121C0488182418281814181BC48B0F951
:103E10000200801C00EB4000BB4A02EB0012B848D5
:103E2000B0F90000801C22F81010B548B0F902006B
:103E3000801C00EB4000B44A02EB0012B048B0F91D
:103E40000000401C22F81010AD48B0F90200401CE0
:103E500000EB4000AC4A02EB0012A948B0F90000A8
:103E6000801C22F81010A648B0F90200401C00EB9C
:103E70004000A54A02EB0012A148B0F90000401C26
:103E800022F810103246084603F0E0FF32460221C5
:103E9000012003F0DBFF32460121022003F0D6FFB0
:103EA00032460221084603F0D1FF84E100241AE0E3
:103EB00001219348B0F90200401C00EB4000924AF7
:103EC00002EB00108E4AB2F90020224420F81210B2
:103ED0008C48083020F8141032462146012003F0A7
:103EE000B5FF601C84B2042CE2DB64E1012185484B
:103EF00001828181418101818148B0F90200801CE9
:103F000000EB4000804A02EB00127D48B0F900004F
:103F100022F810107A48B0F90200401C00EB400073
:103F2000794A02EB00127648B0F90000801C22F8B2
:103F300010107348B0F90200401C00EB4000724AB8
:103F400002E0E3E081E02AE002EB00126C48B0F905
:103F50000000401C22F810106948B0F90200401C13
:103F600000EB4000684A02EB00126548B0F900001F
:103F700022F8101032460021012003F067FF32467C
:103F80000121084603F062FF32460221012003F0BE
:103F90005DFF32460021022003F058FF0BE10121B2
:103FA000584881828181418101815548B0F90200E0
:103FB000801C00EB4000544A02EB00125048B0F95C
:103FC0000000801C22F810104D48B0F90200401C7F
:103FD00000EB40004C4A02EB00124948B0F90000E7
:103FE000801C22F810104648B0F90200401C00EB7B
:103FF0004000454A02EB00124148B0F90000401C65
:1040000022F810103E48B0F90200401C00EB4000BE
:104010003D4A02EB00123A48B0F9000022F81010B5
:1040200032460021012003F011FF324601210846EB
:1040300003F00CFF32460221012003F007FF324655
:104040000221084603F002FFB5E001212D488182DC
:104050004182418101812A48B0F90200801C00EBB5
:104060004000294A02EB00122548B0F90000801CEC
:1040700022F810102248B0F90200801C00EB40002A
:10408000214A02EB00121E48B0F90000401C22F841
:1040900010101B48B0F90200401C00EB40001A4A07
:1040A00002EB00121648B0F90000401C22F8101074
:1040B0001348B0F90200401C00EB4000124A02EB2A
:1040C00000120F48B0F9000022F81010324600210B
:1040D000012003F0BBFE32460121084603F0B6FE84
:1040E00032460121022003F0B1FE32460221084689
:1040F00003F0ACFE5FE00000D80A0020DA0A0020DE
:10410000DC0A0020B8E80020B8E2002001212B489A
:1041100041820182818141812948B0F90200801CDD
:1041200000EB4000274A02EB00122548B0F90000DE
:10413000401C22F810102248B0F90200801C00EB4D
:104140004000204A02EB00121D48B0F9000022F89E
:1041500010101B48B0F90200401C00EB4000194A47
:1041600002EB00121648B0F90000801C22F8101073
:104170001348B0F90200401C00EB4000114A02EB6A
:1041800000120F48B0F90000401C22F8101032460F
:10419000084603F05BFE32460221012003F056FE82
:1041A00032460021022003F051FE32460121022056
:1041B00003F04CFE00BF00BF70BD0000B8E8002057
:1041C000DC0A0020B8E200200146087810381823E5
:1041D000B0FBF3F20848805CC865032A05D908687B
:1041E0006FF30900001D886503E008686FF309009C
:1041F0008865886D70470000EA5C0608014600206B
:104200008A6A8B69CBB932B1012A0DD0022A03D058
:10421000032A10D10EE000BFCB6A03F08073B3F124
:10422000807F00D1012007E0CB6AB3F1C07F00D1CD
:10423000012001E000E000BF34E08B69B3F5005FCE
:104240001AD132B1012A07D0022A03D0032A11D190
:104250000AE000BF01200EE0CB6A03F08073B3F1E7
:10426000807F00D1012006E0CB6AB3F1C07F00D18E
:10427000012000E000BF15E032B1012A05D0022A7A
:1042800004D0032A0CD103E000BF00BF012008E0E6
:10429000CB6A03F08073B3F1807F00D1012000E08E
:1042A00000BF00BF70472DE9F04106460F46144697
:1042B0002546E01704EB907082103946304603F033
:1042C00011FE0020BDE8F08130B50468246824F4B4
:1042D000802405682C60046863608468402C04D1E5
:1042E0000468A2600468E16003E00468A1600468F7
:1042F000E26030BD2DE9F04106460F4614462546E2
:10430000E01704EB907082103946304603F02EFE21
:104310000020BDE8F08110B54AF05EFE012000F0FB
:1043200091FE4AF083FE10BD10B54AF055FE4FF4E1
:10433000806000F087FE4FF4006000F083FE4FF4D1
:10434000805000F07FFE4FF4005000F07BFE4FF4F1
:10435000804000F077FE4FF4004000F073FE4AF01A
:1043600065FE10BD10B54AF037FE022000F06AFE6F
:104370004AF05CFE10BD10B54AF02EFE042000F09D
:1043800061FE4AF053FE10BD10B54AF025FE08202C
:1043900000F058FE4AF04AFE10BD10B54AF01CFE6F
:1043A000102000F04FFE4AF041FE10BD10B54AF05B
:1043B00013FE202000F046FE402000F043FE802047
:1043C00000F040FE4FF4807000F03CFE4FF40070AF
:1043D00000F038FE4AF02AFE10BD000010B50022A1
:1043E00001B909E0012901D10A0205E0022901D140
:1043F0000A0201E04FF440720E4B1B6823F4407335
:104400000C4C236023461B681343236023461B6820
:1044100023F0F803236023461B68022444EAC00407
:104420002343044C236023461B6843F480332360FA
:1044300010BD0000103C02401C48006800F40070F1
:10444000B0B11A48006820F400701849086000BF35
:104450000846006840F4006008600846006820F4E0
:104460000060086000BF0846006840F40070086003
:104470000E48006800F48060B0B10C48006820F479
:1044800080600A49086000BF0846006840F4805018
:1044900008600846006820F48050086000BF0846A5
:1044A000006840F48060086070470000003C0240F3
:1044B0000A4A126822F44072084B1A601A461268BF
:1044C00042F004021A601A4612684FF4803343EA3D
:1044D00000231A43014B1A6070470000103C024051
:1044E000074A126822F44072054B1A601A46126895
:1044F0001A601A46126842F001021A600170704791
:10450000103C024010B50D49096821F440710B4C74
:1045100021602146096841F4407121602146096803
:1045200041F001012160026000BF00BF00BFBFF386
:104530006F8F00BF00BF00BF436010BD103C024042
:10454000084A126822F44072064B1A601A46126832
:1045500042F480721A601A46126842F001021A6030
:1045600001807047103C0240084A126822F44072F1
:10457000064B1A601A46126842F400721A601A4614
:10458000126842F001021A6001607047103C02405C
:104590002348006800F0100040B12248C06940F094
:1045A00010002049C86110201D4908601C4800689F
:1045B00000F0200040B11B48C06940F008001949D4
:1045C000C8612020164908601548006800F04000C6
:1045D00040B11448C06940F004001249C86140204D
:1045E0000F4908600E48006800F0800040B10D4897
:1045F000C06940F002000B49C8618020084908608A
:104600000748006800F0020040B10648C06940F069
:1046100020000449C8610220014908607047000079
:104620000C3C0240C40F002070B504460025002059
:104630001449C86100F024FE054609E0601C38B149
:1046400024B100F01DFE401BA04201D9032070BD23
:104650000D48006800F480300028EFD10A48006857
:1046600000F0010010B10120074908600648006809
:1046700000F0F20018B1FFF78BFF0120E7E7002000
:10468000E5E70000C40F00200C3C024070B5044672
:104690001D460023B5F5804F13D154F822300C4845
:1046A0000340D1E9000640EA06108E6840EA062081
:1046B0008E8940EA06408E693043034344F8223035
:1046C00003E06FF0704044F82200002070BD00004D
:1046D0000000F0CF10B503460022086853F82020F0
:1046E00012480240D1E901042043CC6820430C6900
:1046F00020434C6920438C692043CC6920430C6AD9
:1047000020434C6A20438C6A2043CC6A2043CC6B04
:1047100020430C6B204302438868082801D142F0F3
:104720004002086843F82020002010BD8000F0FF00
:1047300030B503460024501C53F8204004F0404498
:10474000D1E9000540EA05108D6840EA05208D8911
:1047500040EA0545088A401E45EA0055087D801E4E
:1047600045EA00608D6928430443501C43F820400B
:10477000002030BD2DE9F04303460C461546202DA0
:1047800002DA0120A84000E00020A0F1010C032083
:10479000A0EB541604F01F0153F8260020FA01F78D
:1047A0006818202811DDC1F120004FEAE07800EB05
:1047B000D8684FEA6818A0EB4819A6F1010853F829
:1047C000288008FA09F848EA070707EA0C00BDE85C
:1047D000F0832DE9F04303460C461546202D02DAFE
:1047E0000120A84000E00020A0F1010C0320A0EB74
:1047F000541604F01F0153F8260020FA01F7681838
:10480000202811DDC1F120004FEAE07800EBD868E4
:104810004FEA6818A0EB4819A6F1010853F8288060
:1048200008FA09F848EA070707EA0C00BDE8F08330
:10483000014600202F4A914203D2B1F1006F00D30C
:1048400056E02D4A914204D22A4A914201D30120D6
:104850004EE02A4A914204D2274A914201D30220D3
:1048600046E0274A914204D2244A914201D30320D0
:104870003EE0244A914204D2214A914201D30420CD
:1048800036E0214A914204D21E4A914201D30520CA
:104890002EE01E4A914204D21B4A914201D30620C7
:1048A00026E01B4A914204D2184A914201D30720C4
:1048B0001EE0184A914204D2154A914201D30820C1
:1048C00016E0154A914204D2124A914201D30920BE
:1048D0000EE0124A914204D20F4A914201D30A20BB
:1048E00006E0B1F1016F03D20C4A914200D30B20D4
:1048F00070470000004000080080000800C0000869
:10490000000001080000020800000408000006087A
:104910000000080800000A0800000C0800000E084B
:1049200070B50446A56D00F0ABFC064694F8350062
:10493000022808D08020606500BF002084F8340081
:1049400000BF012070BD2068006820F016002168BB
:1049500008602068406920F0800021684861206C70
:1049600008B9A06C28B12068006820F00800216810
:1049700008602068006820F00100216808600FE0EE
:1049800000F07EFC801B05280AD92020606500BF4E
:10499000002084F8340000BF032084F83500D1E7FC
:1049A0002068006800F001000028E9D194F85C104C
:1049B0003F208840A86000BF002084F8340000BF7A
:1049C000012084F835000020BCE7014691F835004D
:1049D000022803D08020486501207047052081F817
:1049E00035000868006820F001000A6810600020A7
:1049F000F3E770B504460CB9012070BD94F835009A
:104A0000022800D1F9E72068006820F00100216841
:104A1000086000202168086021684860216888607B
:104A20002168C8602168086121202168486120460A
:104A3000FFF7CAFB05460020E06320646064A064C1
:104A4000E064206594F85C103F208840A860002056
:104A5000606584F8350000BF84F8340000BF00BFF3
:104A6000CBE700002DE9F0410446002500F008FCEA
:104A7000074614B90120BDE8F081606A00B100BFAB
:104A800000BF002084F8340000BF022084F8350005
:104A90002068006820F00100216808600AE000F04A
:104AA000EFFBC01B052805D920206065032084F892
:104AB0003500E0E72068006800F001000028EED132
:104AC0002068056821480540D4E901010843E168F0
:104AD00008432169084361690843A1690843E16902
:104AE0000843216A08430543606A042803D1D4E9D6
:104AF0000B0108430543206805602068456925F0DF
:104B00000705606A0543606A04280DD1A06A054361
:104B1000E06A48B12046FFF771FB28B1402060658C
:104B2000012084F83500A6E7206845612046FFF79C
:104B30004BFB064694F85C103F208840B060002094
:104B40006065012084F83500002094E73F8010F074
:104B50002DE9F04104460D4616461F464FF0000869
:104B600000BF94F83400012802D10220BDE8F08192
:104B7000012084F8340000BF94F83500012811D1D9
:104B8000022084F83500002060653B463246294605
:104B90002046FFF799FB2068006840F0010021687B
:104BA000086006E000BF002084F8340000BF4FF02A
:104BB00002084046DAE72DE9F04704460D4616465E
:104BC0001F464FF00008D4F8589000BF94F8340006
:104BD000012802D10220BDE8F087012084F83400CA
:104BE00000BF94F83500012825D1022084F8350053
:104BF000002060653B46324629462046FFF764FBAD
:104C000094F85C103F208840C9F8080020680068CC
:104C100040F0160021680860206C28B12068006808
:104C200040F00800216808602068006840F001003A
:104C30002168086006E000BF002084F8340000BF4F
:104C40004FF002084046C6E72DE9F04104460E4603
:104C50000127002500BF2548007E012802D102203F
:104C6000BDE8F08101202149087600BF4CF25030A8
:104C7000FFF7DAFC0746002F31D1401E3060206874
:104C800001280FD1207C6168FFF712FC4CF25030F4
:104C9000FFF7CAFC07461648006820F004001449D4
:104CA00008601AE0A56812E0217C2846FFF796FB11
:104CB0004CF25030FFF7B8FC07460D48006820F072
:104CC000FA000B4908600FB1356005E06D1CD4E9AE
:104CD00002100844A842E7D800BFFFF7ADFB00BFB1
:104CE00000200249087600BF3846B9E7C40F00200B
:104CF000103C02400348006840F000400149086051
:104D000000207047103C02402DE9F04106460F4656
:104D100014461D464FF0010800BF1F48007E0128C1
:104D200002D10220BDE8F08101201B49087600BFB6
:104D30004CF25030FFF778FC8046B8F1000F23D1D9
:104D400026B9E1B23846FFF7CBFB12E0012E04D1C1
:104D5000A1B23846FFF7F4FB0BE0022E04D1214646
:104D60003846FFF701FC04E022462B463846FFF7A1
:104D7000C9FB4CF25030FFF757FC804607480068EB
:104D800020F001000549086000BF002002490876B4
:104D900000BF4046C6E70000C40F0020103C0240A0
:104DA00000200949096801F0004159B10749064A44
:104DB0000C3A1160064911600349096801F000418D
:104DC00001B1012070470000103C024023016745FB
:104DD000AB89EFCD00B587B0142102A8FCF7A9FB81
:104DE0002A48006808B107B000BD012027490860C3
:104DF00000BF002001902648006840F001002449CF
:104E000008600846006800F00100019000BF00BF84
:104E10008814029002200390002004900320059043
:104E20000C20069002A91B4800F01AF94FF680707A
:104E300002900220039000200490032005900C2093
:104E4000069002A9144800F00BF94CF2337002905E
:104E50000220039000200490032005900C2006906F
:104E600002A90E4800F0FCF84FF480500290022096
:104E7000039000200490032005900C20069002A9C6
:104E8000074800F0EDF800BFADE70000000000208B
:104E9000383802400014024000100240000C02406A
:104EA00000180240F0B50C46002500220023002126
:104EB00092E0012606FA01F504EA0502AA427DD134
:104EC000474E8F0856F827308E07370F0F26BE4003
:104ED0003340444EB04201D1002623E0424EB0425E
:104EE00001D101261EE0414EB04201D1022619E057
:104EF0003F4EB04201D1032614E03E4EB04201D1F4
:104F000004260FE03C4EB04201D105260AE03B4E9C
:104F1000B04201D1062605E0394EB04201D1072644
:104F200000E008268F073F0FBE409E4222D1354E3B
:104F300036689643334F3E603E1D366896433F1DAC
:104F40003E603E1D366896433F1D3E603E1D3668FE
:104F500096433F1D3E608E07370F0F2606FA07F374
:104F60001F4E8F0856F827609E431D4F4FEA910C45
:104F700047F82C6006684FEA410C032707FA0CF744
:104F8000BE430660CF0800F1200656F827604F07A1
:104F90004FEAD76C0F2707FA0CF7BE434FEAD10C44
:104FA00000F1200747F82C60C6684FEA410C032740
:104FB00007FA0CF7BE43C660466800E00BE0012725
:104FC0008F40BE43466086684FEA410C032707FACC
:104FD0000CF7BE438660491C1029FFF46AAFF0BD90
:104FE000083801400000024000040240000802406E
:104FF000000C024000100240001402400018024061
:10500000001C0240003C014070B5054628460BF0EC
:10501000FFFC044604EB4400094901EB80004068B2
:1050200058B104EB44020B4603EB8202906804EB98
:10503000440203EB82025168884700BF70BD000044
:105040002800002010B5044604480068204020B124
:10505000024804602046FFF7D7FF10BD143C014012
:10506000F8B502460B460025002400200021DEE0B2
:10507000012606FA01F51E6806EA0504AC4275D160
:105080001E7906F00306012E04D01E7906F00306F1
:10509000022E13D190684F000326BE40B0434F004C
:1050A000DE68BE4030439060506801268E40B043B9
:1050B0001E79C6F300168E40304350601E7906F00C
:1050C0000306032E09D0D0684F000326BE40B0432C
:1050D0004F009E68BE403043D0601E7906F0030644
:1050E000022E13D1CF0802F1200656F827004E07F2
:1050F000F70E0F26BE40B0434F07FF0E1E69BE409D
:105100003043CF0802F1200646F8270010684F0010
:105110000326BE40B0431E7906F003064F00BE4092
:10512000304310605E6806F08056B6F1805F7DD136
:1051300000BF00260096404E366846F480463E4F3B
:105140003E603E46366806F48046009600BF00BFCB
:105150003A4E8F0856F827008E07370F0F26BE40AD
:10516000B043374EB24202D1002624E05EE0354E15
:10517000B24201D101261EE0334EB24201D10226D5
:1051800019E0324EB24201D1032614E0304EB24251
:1051900001D104260FE02F4EB24201D105260AE0CC
:1051A0002D4EB24201D1062605E02C4EB24201D16D
:1051B000072600E008268F073F0FBE4030431F4EF2
:1051C0008F0846F82700264E3068A0435E6806F434
:1051D0008036B6F5803F00D12043214E3060361D29
:1051E0003068A0435E6806F40036B6F5003F00D193
:1051F00020431B4E361D3060361D3068A0435E686C
:1052000006F48016B6F5801F00D12043144E0836F0
:105210003060361D3068A0435E6806F40016B6F5AF
:10522000001F00D120430E4E0C363060491C10295F
:10523000FFF41EAFF8BD00004438024008380140BA
:10524000000002400004024000080240000C02403E
:10525000001002400014024000180240001C0240EE
:10526000003C0140024613690B400BB1012000E0F5
:10527000002070470AB1816101E00B04836170472F
:1052800010B54EF097FA4FF47A714843B0FBF1F045
:1052900010BD00000348006803490978084401492B
:1052A000086070471C0000202400002010B50D4845
:1052B000006840F400700B4908600846006840F43C
:1052C000806008600846006840F480700860032031
:1052D00000F0A2F8002000F007F800F009F8002024
:1052E00010BD0000003C0240014600207047000055
:1052F00008B500BF002000900E48006840F48040D0
:105300000C4908600846006800F48040009000BF27
:1053100000BF00BF00200090081F006840F08050D0
:10532000091F08600846006800F08050009000BF28
:1053300000BF08BD4438024010B5014608460028A9
:1053400017DB00F01F0301229A400B4B440943F87E
:10535000242000BF00BF00BFBFF34F8F00BF00BFBE
:1053600000BF00BF00BF00BFBFF36F8F00BF00BF13
:1053700000BF00BF10BD000080E100E0014608460C
:10538000002809DB00F01F0301229A4043099B001B
:1053900003F1E023C3F8002100BF70472DE9F05F5F
:1053A00080460D461646002705F00CF8074639469C
:1053B0002A46334601F00700C0F1070ABAF1040F8C
:1053C00002D94FF0040A01E0C0F1070AD14600F10A
:1053D000040ABAF1070F02D24FF0000A01E0A0F16F
:1053E000030AD4464FF0010A0AFA09FAAAF1010A9F
:1053F0000AEA020A0AFA0CFA4FF0010B0BFA0CFB4C
:10540000ABF1010B0BEA030B4AEA0B0421464046C1
:1054100004F0E0FFBDE8F09F00BF00F00702064B7C
:1054200019684FF6FF031940044B0B4343EA02216E
:10543000014B196000BF70470CED00E00000FA0559
:1054400070B504460D460CB9012070BD584800687F
:1054500000F00700A84209D255490D7008460068BF
:1054600000F00700A84201D00120EEE7207800F00C
:10547000020002281DD1207800F00400042805D184
:105480004C48006840F4E0504A490860207800F039
:105490000800082805D14748006840F460404549A5
:1054A00008604448006820F0F000A16808434149C2
:1054B0000860207800F00100A8B36068012807D1D7
:1054C0003C4808380068C0F34040B8B90120BCE748
:1054D0006068022802D06068032807D13548083880
:1054E0000068C0F3406048B90120AEE73148083891
:1054F0000068C0F3400008B90120A6E72D48006805
:1055000020F00300616808432A490860FFF7B8FEED
:10551000064609E0FFF7B4FE801B41F2883188425D
:1055200002D9032091E707E02248006800F00C0050
:105530006168B0EB810FEDD11D48006800F00700F5
:10554000A84209D91A490D700846006800F0070002
:10555000A84201D0012078E7207800F00400042858
:1055600007D11448006820F4E050E168084311496D
:105570000860207800F00800082808D10D4800686D
:1055800020F46040216940EAC1000A49086000F047
:105590003FF808490968C1F30311074A515CC84044
:1055A0000649086006480068FFF79EFE00204CE7A9
:1055B000003C024008380240D25C06080800002087
:1055C000200000200148006870470000080000200B
:1055D00000B5FFF7F7FF04490968C1F38221034AC8
:1055E000515CC84000BD000008380240E25C06087B
:1055F00000B5FFF7E7FF04490968C1F34231034AE8
:10560000515CC84000BD000008380240E25C06085A
:105610002DE9F047002400250026A1462548006812
:1056200000F00C0020B1042805D008283AD105E08C
:10563000DFF8849039E0DFF8849036E01D48001FE1
:10564000006800F03F041B48001F006800F4800061
:1056500078B11A481749091F0968C1F38811A0FBDE
:1056600001700146224600233846FAF745FF0546F9
:105670000EE011480F49091F0968C1F38811A0FB0A
:1056800001700146224600233846FAF735FF0546E9
:105690000848001F0068C0F30140401C4600B5FBED
:1056A000F6F902E0DFF8109000BF00BF4846BDE801
:1056B000F0870000083802400024F40000127A004D
:1056C000F8B504460CB90120F8BD207800F00100BF
:1056D000002874D0F948006800F00C0004280DD0B0
:1056E000F648006800F00C00082813D1F348001FAA
:1056F000006800F48000B0F5800F0BD1EF48083847
:105700000068C0F34040002859D06068002856D196
:105710000120D9E700BF6068B0F5803F08D1E748B5
:105720000838006840F48030E449083908601EE019
:105730006068B0F5A02F0DD1E0480838006840F44B
:105740008020DE49083908600846006840F480304F
:1057500008600CE0D9480838006820F48030D74948
:10576000083908600846006820F48020086000BFFF
:10577000606890B1FFF784FD054606E0FFF780FD05
:10578000401B642801D903209EE7CC4808380068F4
:10579000C0F340400028F1D011E0FFF771FD05464D
:1057A00006E0FFF76DFD401B642801D903208BE75D
:1057B000C24808380068C0F340400028F1D1207882
:1057C00000F0020002285FD1BC48006800F00C0025
:1057D00058B1BA48006800F00C0008281CD1B7483E
:1057E000001F006800F48000B0B9B44808380068B1
:1057F000C0F3400020B1E068012801D0012063E738
:10580000AE480838006820F0F800216940EAC1007D
:10581000AA490839086037E0E06800B30120A849C8
:105820000860FFF72DFD054606E0FFF729FD401B48
:10583000022801D9032047E7A04808380068C0F3D0
:1058400040000028F1D09D480838006820F0F8009A
:10585000216940EAC10099490839086014E0002034
:1058600097490860FFF70CFD054606E0FFF708FDC5
:10587000401B022801D9032026E790480838006819
:10588000C0F340000028F1D1207800F0080008287B
:105890002CD16069A8B101208A490860FFF7F0FCAB
:1058A000054606E0FFF7ECFC401B022801D9032067
:1058B0000AE782486C300068C0F340000028F1D04D
:1058C00014E000207F490860FFF7DAFC054606E097
:1058D000FFF7D6FC401B022801D90320F4E67748E5
:1058E0006C300068C0F340000028F1D1207800F04F
:1058F0000400042870D1002770483830006800F098
:10590000805090B900BF002000906C48383000688B
:1059100040F080506949383108600846006800F05E
:105920008050009000BF00BF01276748006800F466
:105930008070B0B96448006840F4807062490860C3
:10594000FFF79EFC054606E0FFF79AFC401B022885
:1059500001D90320B8E65C48006800F48070002894
:10596000F2D000BFA068012808D154486830006810
:1059700040F001005149683108601DE0A068052829
:105980000DD14E486830006840F004004B49683142
:1059900008600846006840F0010008600CE04748D5
:1059A0006830006820F0010044496831086008460A
:1059B000006820F00400086000BFA068A8B1FFF7ED
:1059C0005FFC054609E0FFF75BFC401B41F28831B4
:1059D000884202D9032077E626E03848683000681C
:1059E000C0F340000028EED013E0FFF749FC054665
:1059F00008E0FFF745FC401B41F28831884201D99D
:105A0000032061E62D4868300068C0F3400000289C
:105A1000EFD1012F07D129483830006820F080509D
:105A200026493831086000BFA069002845D02348C6
:105A3000006800F00C0008285DD0A069022845D15C
:105A400000201F490866FFF71BFC054606E0FFF72C
:105A500017FC401B022801D9032035E617480838F7
:105A60000068C0F340600028F1D1D4E90701084381
:105A7000616A40EA81110122A06AC2EB500041EA4A
:105A800000412C20005D41EA00600C49091F0860BC
:105A900001200B490866FFF7F3FB054606E0FFF718
:105AA000EFFB401B022801D903200DE6034808380C
:105AB0000068C0F340600028F1D049E00838024097
:105AC00000004742800E47420070004000202149FC
:105AD0000866FFF7D5FB054606E0FFF7D1FB401B44
